{
	"training/contracts/Libraries.sol": {
		"A": {
			"abi": [
				{
					"inputs": [
						{
							"internalType": "int256",
							"name": "a",
							"type": "int256"
						},
						{
							"internalType": "int256",
							"name": "b",
							"type": "int256"
						}
					],
					"name": "div",
					"outputs": [
						{
							"internalType": "int256",
							"name": "",
							"type": "int256"
						}
					],
					"stateMutability": "pure",
					"type": "function"
				}
			],
			"devdoc": {
				"kind": "dev",
				"methods": {},
				"version": 1
			},
			"evm": {
				"assembly": "    /* \"training/contracts/Libraries.sol\":70:166  contract A{... */\n  mstore(0x40, 0x80)\n  callvalue\n  dup1\n  iszero\n  tag_1\n  jumpi\n  0x00\n  dup1\n  revert\ntag_1:\n  pop\n  dataSize(sub_0)\n  dup1\n  dataOffset(sub_0)\n  0x00\n  codecopy\n  0x00\n  return\nstop\n\nsub_0: assembly {\n        /* \"training/contracts/Libraries.sol\":70:166  contract A{... */\n      mstore(0x40, 0x80)\n      callvalue\n      dup1\n      iszero\n      tag_1\n      jumpi\n      0x00\n      dup1\n      revert\n    tag_1:\n      pop\n      jumpi(tag_2, lt(calldatasize, 0x04))\n      shr(0xe0, calldataload(0x00))\n      dup1\n      0x43509138\n      eq\n      tag_3\n      jumpi\n    tag_2:\n      0x00\n      dup1\n      revert\n        /* \"training/contracts/Libraries.sol\":86:164  function div(int a, int b) public pure returns(int){... */\n    tag_3:\n      tag_4\n      0x04\n      dup1\n      calldatasize\n      sub\n      dup2\n      add\n      swap1\n      tag_5\n      swap2\n      swap1\n      tag_6\n      jump\t// in\n    tag_5:\n      tag_7\n      jump\t// in\n    tag_4:\n      mload(0x40)\n      tag_8\n      swap2\n      swap1\n      tag_9\n      jump\t// in\n    tag_8:\n      mload(0x40)\n      dup1\n      swap2\n      sub\n      swap1\n      return\n    tag_7:\n        /* \"training/contracts/Libraries.sol\":133:136  int */\n      0x00\n        /* \"training/contracts/Libraries.sol\":156:157  b */\n      dup2\n        /* \"training/contracts/Libraries.sol\":154:155  a */\n      dup4\n        /* \"training/contracts/Libraries.sol\":154:157  a/b */\n      tag_11\n      swap2\n      swap1\n      tag_12\n      jump\t// in\n    tag_11:\n        /* \"training/contracts/Libraries.sol\":147:157  return a/b */\n      swap1\n      pop\n        /* \"training/contracts/Libraries.sol\":86:164  function div(int a, int b) public pure returns(int){... */\n      swap3\n      swap2\n      pop\n      pop\n      jump\t// out\n        /* \"#utility.yul\":7:144   */\n    tag_14:\n        /* \"#utility.yul\":52:57   */\n      0x00\n        /* \"#utility.yul\":90:96   */\n      dup2\n        /* \"#utility.yul\":77:97   */\n      calldataload\n        /* \"#utility.yul\":68:97   */\n      swap1\n      pop\n        /* \"#utility.yul\":106:138   */\n      tag_16\n        /* \"#utility.yul\":132:137   */\n      dup2\n        /* \"#utility.yul\":106:138   */\n      tag_17\n      jump\t// in\n    tag_16:\n        /* \"#utility.yul\":7:144   */\n      swap3\n      swap2\n      pop\n      pop\n      jump\t// out\n        /* \"#utility.yul\":150:620   */\n    tag_6:\n        /* \"#utility.yul\":216:222   */\n      0x00\n        /* \"#utility.yul\":224:230   */\n      dup1\n        /* \"#utility.yul\":273:275   */\n      0x40\n        /* \"#utility.yul\":261:270   */\n      dup4\n        /* \"#utility.yul\":252:259   */\n      dup6\n        /* \"#utility.yul\":248:271   */\n      sub\n        /* \"#utility.yul\":244:276   */\n      slt\n        /* \"#utility.yul\":241:360   */\n      iszero\n      tag_19\n      jumpi\n        /* \"#utility.yul\":279:358   */\n      tag_20\n      tag_21\n      jump\t// in\n    tag_20:\n        /* \"#utility.yul\":241:360   */\n    tag_19:\n        /* \"#utility.yul\":399:400   */\n      0x00\n        /* \"#utility.yul\":424:476   */\n      tag_22\n        /* \"#utility.yul\":468:475   */\n      dup6\n        /* \"#utility.yul\":459:465   */\n      dup3\n        /* \"#utility.yul\":448:457   */\n      dup7\n        /* \"#utility.yul\":444:466   */\n      add\n        /* \"#utility.yul\":424:476   */\n      tag_14\n      jump\t// in\n    tag_22:\n        /* \"#utility.yul\":414:476   */\n      swap3\n      pop\n        /* \"#utility.yul\":370:486   */\n      pop\n        /* \"#utility.yul\":525:527   */\n      0x20\n        /* \"#utility.yul\":551:603   */\n      tag_23\n        /* \"#utility.yul\":595:602   */\n      dup6\n        /* \"#utility.yul\":586:592   */\n      dup3\n        /* \"#utility.yul\":575:584   */\n      dup7\n        /* \"#utility.yul\":571:593   */\n      add\n        /* \"#utility.yul\":551:603   */\n      tag_14\n      jump\t// in\n    tag_23:\n        /* \"#utility.yul\":541:603   */\n      swap2\n      pop\n        /* \"#utility.yul\":496:613   */\n      pop\n        /* \"#utility.yul\":150:620   */\n      swap3\n      pop\n      swap3\n      swap1\n      pop\n      jump\t// out\n        /* \"#utility.yul\":626:741   */\n    tag_24:\n        /* \"#utility.yul\":711:734   */\n      tag_26\n        /* \"#utility.yul\":728:733   */\n      dup2\n        /* \"#utility.yul\":711:734   */\n      tag_27\n      jump\t// in\n    tag_26:\n        /* \"#utility.yul\":706:709   */\n      dup3\n        /* \"#utility.yul\":699:735   */\n      mstore\n        /* \"#utility.yul\":626:741   */\n      pop\n      pop\n      jump\t// out\n        /* \"#utility.yul\":747:965   */\n    tag_9:\n        /* \"#utility.yul\":838:842   */\n      0x00\n        /* \"#utility.yul\":876:878   */\n      0x20\n        /* \"#utility.yul\":865:874   */\n      dup3\n        /* \"#utility.yul\":861:879   */\n      add\n        /* \"#utility.yul\":853:879   */\n      swap1\n      pop\n        /* \"#utility.yul\":889:958   */\n      tag_29\n        /* \"#utility.yul\":955:956   */\n      0x00\n        /* \"#utility.yul\":944:953   */\n      dup4\n        /* \"#utility.yul\":940:957   */\n      add\n        /* \"#utility.yul\":931:937   */\n      dup5\n        /* \"#utility.yul\":889:958   */\n      tag_24\n      jump\t// in\n    tag_29:\n        /* \"#utility.yul\":747:965   */\n      swap3\n      swap2\n      pop\n      pop\n      jump\t// out\n        /* \"#utility.yul\":1052:1437   */\n    tag_12:\n        /* \"#utility.yul\":1091:1092   */\n      0x00\n        /* \"#utility.yul\":1108:1127   */\n      tag_33\n        /* \"#utility.yul\":1125:1126   */\n      dup3\n        /* \"#utility.yul\":1108:1127   */\n      tag_27\n      jump\t// in\n    tag_33:\n        /* \"#utility.yul\":1103:1127   */\n      swap2\n      pop\n        /* \"#utility.yul\":1141:1160   */\n      tag_34\n        /* \"#utility.yul\":1158:1159   */\n      dup4\n        /* \"#utility.yul\":1141:1160   */\n      tag_27\n      jump\t// in\n    tag_34:\n        /* \"#utility.yul\":1136:1160   */\n      swap3\n      pop\n        /* \"#utility.yul\":1179:1180   */\n      dup3\n        /* \"#utility.yul\":1169:1204   */\n      tag_35\n      jumpi\n        /* \"#utility.yul\":1184:1202   */\n      tag_36\n      tag_37\n      jump\t// in\n    tag_36:\n        /* \"#utility.yul\":1169:1204   */\n    tag_35:\n        /* \"#utility.yul\":1370:1371   */\n      0x01\n        /* \"#utility.yul\":1367:1368   */\n      0x00\n        /* \"#utility.yul\":1363:1372   */\n      sub\n        /* \"#utility.yul\":1360:1361   */\n      dup4\n        /* \"#utility.yul\":1357:1373   */\n      eq\n        /* \"#utility.yul\":1276:1342   */\n      0x8000000000000000000000000000000000000000000000000000000000000000\n        /* \"#utility.yul\":1273:1274   */\n      dup4\n        /* \"#utility.yul\":1270:1343   */\n      eq\n        /* \"#utility.yul\":1253:1383   */\n      and\n        /* \"#utility.yul\":1250:1406   */\n      iszero\n      tag_38\n      jumpi\n        /* \"#utility.yul\":1386:1404   */\n      tag_39\n      tag_40\n      jump\t// in\n    tag_39:\n        /* \"#utility.yul\":1250:1406   */\n    tag_38:\n        /* \"#utility.yul\":1429:1430   */\n      dup3\n        /* \"#utility.yul\":1426:1427   */\n      dup3\n        /* \"#utility.yul\":1421:1431   */\n      sdiv\n        /* \"#utility.yul\":1416:1431   */\n      swap1\n      pop\n        /* \"#utility.yul\":1052:1437   */\n      swap3\n      swap2\n      pop\n      pop\n      jump\t// out\n        /* \"#utility.yul\":1443:1519   */\n    tag_27:\n        /* \"#utility.yul\":1479:1486   */\n      0x00\n        /* \"#utility.yul\":1508:1513   */\n      dup2\n        /* \"#utility.yul\":1497:1513   */\n      swap1\n      pop\n        /* \"#utility.yul\":1443:1519   */\n      swap2\n      swap1\n      pop\n      jump\t// out\n        /* \"#utility.yul\":1525:1705   */\n    tag_40:\n        /* \"#utility.yul\":1573:1650   */\n      0x4e487b7100000000000000000000000000000000000000000000000000000000\n        /* \"#utility.yul\":1570:1571   */\n      0x00\n        /* \"#utility.yul\":1563:1651   */\n      mstore\n        /* \"#utility.yul\":1670:1674   */\n      0x11\n        /* \"#utility.yul\":1667:1668   */\n      0x04\n        /* \"#utility.yul\":1660:1675   */\n      mstore\n        /* \"#utility.yul\":1694:1698   */\n      0x24\n        /* \"#utility.yul\":1691:1692   */\n      0x00\n        /* \"#utility.yul\":1684:1699   */\n      revert\n        /* \"#utility.yul\":1711:1891   */\n    tag_37:\n        /* \"#utility.yul\":1759:1836   */\n      0x4e487b7100000000000000000000000000000000000000000000000000000000\n        /* \"#utility.yul\":1756:1757   */\n      0x00\n        /* \"#utility.yul\":1749:1837   */\n      mstore\n        /* \"#utility.yul\":1856:1860   */\n      0x12\n        /* \"#utility.yul\":1853:1854   */\n      0x04\n        /* \"#utility.yul\":1846:1861   */\n      mstore\n        /* \"#utility.yul\":1880:1884   */\n      0x24\n        /* \"#utility.yul\":1877:1878   */\n      0x00\n        /* \"#utility.yul\":1870:1885   */\n      revert\n        /* \"#utility.yul\":2020:2137   */\n    tag_21:\n        /* \"#utility.yul\":2129:2130   */\n      0x00\n        /* \"#utility.yul\":2126:2127   */\n      dup1\n        /* \"#utility.yul\":2119:2131   */\n      revert\n        /* \"#utility.yul\":2143:2263   */\n    tag_17:\n        /* \"#utility.yul\":2215:2238   */\n      tag_48\n        /* \"#utility.yul\":2232:2237   */\n      dup2\n        /* \"#utility.yul\":2215:2238   */\n      tag_27\n      jump\t// in\n    tag_48:\n        /* \"#utility.yul\":2208:2213   */\n      dup2\n        /* \"#utility.yul\":2205:2239   */\n      eq\n        /* \"#utility.yul\":2195:2257   */\n      tag_49\n      jumpi\n        /* \"#utility.yul\":2253:2254   */\n      0x00\n        /* \"#utility.yul\":2250:2251   */\n      dup1\n        /* \"#utility.yul\":2243:2255   */\n      revert\n        /* \"#utility.yul\":2195:2257   */\n    tag_49:\n        /* \"#utility.yul\":2143:2263   */\n      pop\n      jump\t// out\n\n    auxdata: 0xa264697066735822122082adb0e05f9bfcd65392af5ed7b58d68babd7429001c90337b5a7fdfd2113a0b64736f6c63430008070033\n}\n",
				"bytecode": {
					"linkReferences": {},
					"object": "608060405234801561001057600080fd5b50610219806100206000396000f3fe608060405234801561001057600080fd5b506004361061002b5760003560e01c80634350913814610030575b600080fd5b61004a6004803603810190610045919061008b565b610060565b60405161005791906100da565b60405180910390f35b6000818361006e91906100f5565b905092915050565b600081359050610085816101cc565b92915050565b600080604083850312156100a2576100a16101c7565b5b60006100b085828601610076565b92505060206100c185828601610076565b9150509250929050565b6100d48161015f565b82525050565b60006020820190506100ef60008301846100cb565b92915050565b60006101008261015f565b915061010b8361015f565b92508261011b5761011a610198565b5b600160000383147f80000000000000000000000000000000000000000000000000000000000000008314161561015457610153610169565b5b828205905092915050565b6000819050919050565b7f4e487b7100000000000000000000000000000000000000000000000000000000600052601160045260246000fd5b7f4e487b7100000000000000000000000000000000000000000000000000000000600052601260045260246000fd5b600080fd5b6101d58161015f565b81146101e057600080fd5b5056fea264697066735822122082adb0e05f9bfcd65392af5ed7b58d68babd7429001c90337b5a7fdfd2113a0b64736f6c63430008070033",
					"opcodes": "PUSH1 0x80 PUSH1 0x40 MSTORE CALLVALUE DUP1 ISZERO PUSH2 0x10 JUMPI PUSH1 0x0 DUP1 REVERT JUMPDEST POP PUSH2 0x219 DUP1 PUSH2 0x20 PUSH1 0x0 CODECOPY PUSH1 0x0 RETURN INVALID PUSH1 0x80 PUSH1 0x40 MSTORE CALLVALUE DUP1 ISZERO PUSH2 0x10 JUMPI PUSH1 0x0 DUP1 REVERT JUMPDEST POP PUSH1 0x4 CALLDATASIZE LT PUSH2 0x2B JUMPI PUSH1 0x0 CALLDATALOAD PUSH1 0xE0 SHR DUP1 PUSH4 0x43509138 EQ PUSH2 0x30 JUMPI JUMPDEST PUSH1 0x0 DUP1 REVERT JUMPDEST PUSH2 0x4A PUSH1 0x4 DUP1 CALLDATASIZE SUB DUP2 ADD SWAP1 PUSH2 0x45 SWAP2 SWAP1 PUSH2 0x8B JUMP JUMPDEST PUSH2 0x60 JUMP JUMPDEST PUSH1 0x40 MLOAD PUSH2 0x57 SWAP2 SWAP1 PUSH2 0xDA JUMP JUMPDEST PUSH1 0x40 MLOAD DUP1 SWAP2 SUB SWAP1 RETURN JUMPDEST PUSH1 0x0 DUP2 DUP4 PUSH2 0x6E SWAP2 SWAP1 PUSH2 0xF5 JUMP JUMPDEST SWAP1 POP SWAP3 SWAP2 POP POP JUMP JUMPDEST PUSH1 0x0 DUP2 CALLDATALOAD SWAP1 POP PUSH2 0x85 DUP2 PUSH2 0x1CC JUMP JUMPDEST SWAP3 SWAP2 POP POP JUMP JUMPDEST PUSH1 0x0 DUP1 PUSH1 0x40 DUP4 DUP6 SUB SLT ISZERO PUSH2 0xA2 JUMPI PUSH2 0xA1 PUSH2 0x1C7 JUMP JUMPDEST JUMPDEST PUSH1 0x0 PUSH2 0xB0 DUP6 DUP3 DUP7 ADD PUSH2 0x76 JUMP JUMPDEST SWAP3 POP POP PUSH1 0x20 PUSH2 0xC1 DUP6 DUP3 DUP7 ADD PUSH2 0x76 JUMP JUMPDEST SWAP2 POP POP SWAP3 POP SWAP3 SWAP1 POP JUMP JUMPDEST PUSH2 0xD4 DUP2 PUSH2 0x15F JUMP JUMPDEST DUP3 MSTORE POP POP JUMP JUMPDEST PUSH1 0x0 PUSH1 0x20 DUP3 ADD SWAP1 POP PUSH2 0xEF PUSH1 0x0 DUP4 ADD DUP5 PUSH2 0xCB JUMP JUMPDEST SWAP3 SWAP2 POP POP JUMP JUMPDEST PUSH1 0x0 PUSH2 0x100 DUP3 PUSH2 0x15F JUMP JUMPDEST SWAP2 POP PUSH2 0x10B DUP4 PUSH2 0x15F JUMP JUMPDEST SWAP3 POP DUP3 PUSH2 0x11B JUMPI PUSH2 0x11A PUSH2 0x198 JUMP JUMPDEST JUMPDEST PUSH1 0x1 PUSH1 0x0 SUB DUP4 EQ PUSH32 0x8000000000000000000000000000000000000000000000000000000000000000 DUP4 EQ AND ISZERO PUSH2 0x154 JUMPI PUSH2 0x153 PUSH2 0x169 JUMP JUMPDEST JUMPDEST DUP3 DUP3 SDIV SWAP1 POP SWAP3 SWAP2 POP POP JUMP JUMPDEST PUSH1 0x0 DUP2 SWAP1 POP SWAP2 SWAP1 POP JUMP JUMPDEST PUSH32 0x4E487B7100000000000000000000000000000000000000000000000000000000 PUSH1 0x0 MSTORE PUSH1 0x11 PUSH1 0x4 MSTORE PUSH1 0x24 PUSH1 0x0 REVERT JUMPDEST PUSH32 0x4E487B7100000000000000000000000000000000000000000000000000000000 PUSH1 0x0 MSTORE PUSH1 0x12 PUSH1 0x4 MSTORE PUSH1 0x24 PUSH1 0x0 REVERT JUMPDEST PUSH1 0x0 DUP1 REVERT JUMPDEST PUSH2 0x1D5 DUP2 PUSH2 0x15F JUMP JUMPDEST DUP2 EQ PUSH2 0x1E0 JUMPI PUSH1 0x0 DUP1 REVERT JUMPDEST POP JUMP INVALID LOG2 PUSH5 0x6970667358 0x22 SLT KECCAK256 DUP3 0xAD 0xB0 0xE0 0x5F SWAP12 0xFC 0xD6 MSTORE8 SWAP3 0xAF 0x5E 0xD7 0xB5 DUP14 PUSH9 0xBABD7429001C90337B GAS PUSH32 0xDFD2113A0B64736F6C6343000807003300000000000000000000000000000000 "
				},
				"gasEstimates": {
					"creation": {
						"codeDepositCost": "107400",
						"executionCost": "153",
						"totalCost": "107553"
					},
					"external": {
						"div(int256,int256)": "infinite"
					}
				},
				"methodIdentifiers": {
					"div(int256,int256)": "43509138"
				}
			},
			"storageLayout": {
				"storage": [],
				"types": null
			},
			"userdoc": {
				"kind": "user",
				"methods": {},
				"version": 1
			}
		}
	}
}