{
	"training/contracts/Inheritence,sol.sol": {
		"US": {
			"abi": [
				{
					"inputs": [],
					"name": "a",
					"outputs": [
						{
							"internalType": "int256",
							"name": "",
							"type": "int256"
						}
					],
					"stateMutability": "view",
					"type": "function"
				},
				{
					"inputs": [],
					"name": "flag",
					"outputs": [
						{
							"internalType": "string",
							"name": "",
							"type": "string"
						}
					],
					"stateMutability": "view",
					"type": "function"
				},
				{
					"inputs": [],
					"name": "name",
					"outputs": [
						{
							"internalType": "string",
							"name": "",
							"type": "string"
						}
					],
					"stateMutability": "view",
					"type": "function"
				},
				{
					"inputs": [],
					"name": "president",
					"outputs": [
						{
							"internalType": "string",
							"name": "",
							"type": "string"
						}
					],
					"stateMutability": "view",
					"type": "function"
				},
				{
					"inputs": [],
					"name": "sqm",
					"outputs": [
						{
							"internalType": "uint256",
							"name": "",
							"type": "uint256"
						}
					],
					"stateMutability": "view",
					"type": "function"
				}
			],
			"devdoc": {
				"kind": "dev",
				"methods": {},
				"version": 1
			},
			"evm": {
				"assembly": "    /* \"training/contracts/Inheritence,sol.sol\":630:708  contract US is Country(7){... */\n  mstore(0x40, 0x80)\n  callvalue\n  dup1\n  iszero\n  tag_1\n  jumpi\n  0x00\n  dup1\n  revert\ntag_1:\n  pop\n    /* \"training/contracts/Inheritence,sol.sol\":653:654  7 */\n  0x07\n    /* \"training/contracts/Inheritence,sol.sol\":320:322  _a */\n  dup1\n    /* \"training/contracts/Inheritence,sol.sol\":318:319  a */\n  0x03\n    /* \"training/contracts/Inheritence,sol.sol\":318:322  a=_a */\n  dup2\n  swap1\n  sstore\n  pop\n    /* \"training/contracts/Inheritence,sol.sol\":203:329  constructor(int _a){        // baslangic degeri verildigi icin bunlari diger kontratlarda girmemiz gerekli... */\n  pop\n    /* \"training/contracts/Inheritence,sol.sol\":630:708  contract US is Country(7){... */\n  dataSize(sub_0)\n  dup1\n  dataOffset(sub_0)\n  0x00\n  codecopy\n  0x00\n  return\nstop\n\nsub_0: assembly {\n        /* \"training/contracts/Inheritence,sol.sol\":630:708  contract US is Country(7){... */\n      mstore(0x40, 0x80)\n      callvalue\n      dup1\n      iszero\n      tag_1\n      jumpi\n      0x00\n      dup1\n      revert\n    tag_1:\n      pop\n      jumpi(tag_2, lt(calldatasize, 0x04))\n      shr(0xe0, calldataload(0x00))\n      dup1\n      0x06fdde03\n      eq\n      tag_3\n      jumpi\n      dup1\n      0x0dbe671f\n      eq\n      tag_4\n      jumpi\n      dup1\n      0x324a1376\n      eq\n      tag_5\n      jumpi\n      dup1\n      0x59774655\n      eq\n      tag_6\n      jumpi\n      dup1\n      0x890eba68\n      eq\n      tag_7\n      jumpi\n    tag_2:\n      0x00\n      dup1\n      revert\n        /* \"training/contracts/Inheritence,sol.sol\":55:73  string public name */\n    tag_3:\n      tag_8\n      tag_9\n      jump\t// in\n    tag_8:\n      mload(0x40)\n      tag_10\n      swap2\n      swap1\n      tag_11\n      jump\t// in\n    tag_10:\n      mload(0x40)\n      dup1\n      swap2\n      sub\n      swap1\n      return\n        /* \"training/contracts/Inheritence,sol.sol\":185:197  int public a */\n    tag_4:\n      tag_12\n      tag_13\n      jump\t// in\n    tag_12:\n      mload(0x40)\n      tag_14\n      swap2\n      swap1\n      tag_15\n      jump\t// in\n    tag_14:\n      mload(0x40)\n      dup1\n      swap2\n      sub\n      swap1\n      return\n        /* \"training/contracts/Inheritence,sol.sol\":682:705  string public president */\n    tag_5:\n      tag_16\n      tag_17\n      jump\t// in\n    tag_16:\n      mload(0x40)\n      tag_18\n      swap2\n      swap1\n      tag_11\n      jump\t// in\n    tag_18:\n      mload(0x40)\n      dup1\n      swap2\n      sub\n      swap1\n      return\n        /* \"training/contracts/Inheritence,sol.sol\":661:676  uint public sqm */\n    tag_6:\n      tag_19\n      tag_20\n      jump\t// in\n    tag_19:\n      mload(0x40)\n      tag_21\n      swap2\n      swap1\n      tag_22\n      jump\t// in\n    tag_21:\n      mload(0x40)\n      dup1\n      swap2\n      sub\n      swap1\n      return\n        /* \"training/contracts/Inheritence,sol.sol\":79:97  string public flag */\n    tag_7:\n      tag_23\n      tag_24\n      jump\t// in\n    tag_23:\n      mload(0x40)\n      tag_25\n      swap2\n      swap1\n      tag_11\n      jump\t// in\n    tag_25:\n      mload(0x40)\n      dup1\n      swap2\n      sub\n      swap1\n      return\n        /* \"training/contracts/Inheritence,sol.sol\":55:73  string public name */\n    tag_9:\n      0x00\n      dup1\n      sload\n      tag_26\n      swap1\n      tag_27\n      jump\t// in\n    tag_26:\n      dup1\n      0x1f\n      add\n      0x20\n      dup1\n      swap2\n      div\n      mul\n      0x20\n      add\n      mload(0x40)\n      swap1\n      dup2\n      add\n      0x40\n      mstore\n      dup1\n      swap3\n      swap2\n      swap1\n      dup2\n      dup2\n      mstore\n      0x20\n      add\n      dup3\n      dup1\n      sload\n      tag_28\n      swap1\n      tag_27\n      jump\t// in\n    tag_28:\n      dup1\n      iszero\n      tag_29\n      jumpi\n      dup1\n      0x1f\n      lt\n      tag_30\n      jumpi\n      0x0100\n      dup1\n      dup4\n      sload\n      div\n      mul\n      dup4\n      mstore\n      swap2\n      0x20\n      add\n      swap2\n      jump(tag_29)\n    tag_30:\n      dup3\n      add\n      swap2\n      swap1\n      0x00\n      mstore\n      keccak256(0x00, 0x20)\n      swap1\n    tag_31:\n      dup2\n      sload\n      dup2\n      mstore\n      swap1\n      0x01\n      add\n      swap1\n      0x20\n      add\n      dup1\n      dup4\n      gt\n      tag_31\n      jumpi\n      dup3\n      swap1\n      sub\n      0x1f\n      and\n      dup3\n      add\n      swap2\n    tag_29:\n      pop\n      pop\n      pop\n      pop\n      pop\n      dup2\n      jump\t// out\n        /* \"training/contracts/Inheritence,sol.sol\":185:197  int public a */\n    tag_13:\n      sload(0x03)\n      dup2\n      jump\t// out\n        /* \"training/contracts/Inheritence,sol.sol\":682:705  string public president */\n    tag_17:\n      0x05\n      dup1\n      sload\n      tag_32\n      swap1\n      tag_27\n      jump\t// in\n    tag_32:\n      dup1\n      0x1f\n      add\n      0x20\n      dup1\n      swap2\n      div\n      mul\n      0x20\n      add\n      mload(0x40)\n      swap1\n      dup2\n      add\n      0x40\n      mstore\n      dup1\n      swap3\n      swap2\n      swap1\n      dup2\n      dup2\n      mstore\n      0x20\n      add\n      dup3\n      dup1\n      sload\n      tag_33\n      swap1\n      tag_27\n      jump\t// in\n    tag_33:\n      dup1\n      iszero\n      tag_34\n      jumpi\n      dup1\n      0x1f\n      lt\n      tag_35\n      jumpi\n      0x0100\n      dup1\n      dup4\n      sload\n      div\n      mul\n      dup4\n      mstore\n      swap2\n      0x20\n      add\n      swap2\n      jump(tag_34)\n    tag_35:\n      dup3\n      add\n      swap2\n      swap1\n      0x00\n      mstore\n      keccak256(0x00, 0x20)\n      swap1\n    tag_36:\n      dup2\n      sload\n      dup2\n      mstore\n      swap1\n      0x01\n      add\n      swap1\n      0x20\n      add\n      dup1\n      dup4\n      gt\n      tag_36\n      jumpi\n      dup3\n      swap1\n      sub\n      0x1f\n      and\n      dup3\n      add\n      swap2\n    tag_34:\n      pop\n      pop\n      pop\n      pop\n      pop\n      dup2\n      jump\t// out\n        /* \"training/contracts/Inheritence,sol.sol\":661:676  uint public sqm */\n    tag_20:\n      sload(0x04)\n      dup2\n      jump\t// out\n        /* \"training/contracts/Inheritence,sol.sol\":79:97  string public flag */\n    tag_24:\n      0x01\n      dup1\n      sload\n      tag_37\n      swap1\n      tag_27\n      jump\t// in\n    tag_37:\n      dup1\n      0x1f\n      add\n      0x20\n      dup1\n      swap2\n      div\n      mul\n      0x20\n      add\n      mload(0x40)\n      swap1\n      dup2\n      add\n      0x40\n      mstore\n      dup1\n      swap3\n      swap2\n      swap1\n      dup2\n      dup2\n      mstore\n      0x20\n      add\n      dup3\n      dup1\n      sload\n      tag_38\n      swap1\n      tag_27\n      jump\t// in\n    tag_38:\n      dup1\n      iszero\n      tag_39\n      jumpi\n      dup1\n      0x1f\n      lt\n      tag_40\n      jumpi\n      0x0100\n      dup1\n      dup4\n      sload\n      div\n      mul\n      dup4\n      mstore\n      swap2\n      0x20\n      add\n      swap2\n      jump(tag_39)\n    tag_40:\n      dup3\n      add\n      swap2\n      swap1\n      0x00\n      mstore\n      keccak256(0x00, 0x20)\n      swap1\n    tag_41:\n      dup2\n      sload\n      dup2\n      mstore\n      swap1\n      0x01\n      add\n      swap1\n      0x20\n      add\n      dup1\n      dup4\n      gt\n      tag_41\n      jumpi\n      dup3\n      swap1\n      sub\n      0x1f\n      and\n      dup3\n      add\n      swap2\n    tag_39:\n      pop\n      pop\n      pop\n      pop\n      pop\n      dup2\n      jump\t// out\n        /* \"#utility.yul\":7:122   */\n    tag_43:\n        /* \"#utility.yul\":92:115   */\n      tag_45\n        /* \"#utility.yul\":109:114   */\n      dup2\n        /* \"#utility.yul\":92:115   */\n      tag_46\n      jump\t// in\n    tag_45:\n        /* \"#utility.yul\":87:90   */\n      dup3\n        /* \"#utility.yul\":80:116   */\n      mstore\n        /* \"#utility.yul\":7:122   */\n      pop\n      pop\n      jump\t// out\n        /* \"#utility.yul\":128:492   */\n    tag_47:\n        /* \"#utility.yul\":216:219   */\n      0x00\n        /* \"#utility.yul\":244:283   */\n      tag_49\n        /* \"#utility.yul\":277:282   */\n      dup3\n        /* \"#utility.yul\":244:283   */\n      tag_50\n      jump\t// in\n    tag_49:\n        /* \"#utility.yul\":299:370   */\n      tag_51\n        /* \"#utility.yul\":363:369   */\n      dup2\n        /* \"#utility.yul\":358:361   */\n      dup6\n        /* \"#utility.yul\":299:370   */\n      tag_52\n      jump\t// in\n    tag_51:\n        /* \"#utility.yul\":292:370   */\n      swap4\n      pop\n        /* \"#utility.yul\":379:431   */\n      tag_53\n        /* \"#utility.yul\":424:430   */\n      dup2\n        /* \"#utility.yul\":419:422   */\n      dup6\n        /* \"#utility.yul\":412:416   */\n      0x20\n        /* \"#utility.yul\":405:410   */\n      dup7\n        /* \"#utility.yul\":401:417   */\n      add\n        /* \"#utility.yul\":379:431   */\n      tag_54\n      jump\t// in\n    tag_53:\n        /* \"#utility.yul\":456:485   */\n      tag_55\n        /* \"#utility.yul\":478:484   */\n      dup2\n        /* \"#utility.yul\":456:485   */\n      tag_56\n      jump\t// in\n    tag_55:\n        /* \"#utility.yul\":451:454   */\n      dup5\n        /* \"#utility.yul\":447:486   */\n      add\n        /* \"#utility.yul\":440:486   */\n      swap2\n      pop\n        /* \"#utility.yul\":220:492   */\n      pop\n        /* \"#utility.yul\":128:492   */\n      swap3\n      swap2\n      pop\n      pop\n      jump\t// out\n        /* \"#utility.yul\":498:616   */\n    tag_57:\n        /* \"#utility.yul\":585:609   */\n      tag_59\n        /* \"#utility.yul\":603:608   */\n      dup2\n        /* \"#utility.yul\":585:609   */\n      tag_60\n      jump\t// in\n    tag_59:\n        /* \"#utility.yul\":580:583   */\n      dup3\n        /* \"#utility.yul\":573:610   */\n      mstore\n        /* \"#utility.yul\":498:616   */\n      pop\n      pop\n      jump\t// out\n        /* \"#utility.yul\":622:840   */\n    tag_15:\n        /* \"#utility.yul\":713:717   */\n      0x00\n        /* \"#utility.yul\":751:753   */\n      0x20\n        /* \"#utility.yul\":740:749   */\n      dup3\n        /* \"#utility.yul\":736:754   */\n      add\n        /* \"#utility.yul\":728:754   */\n      swap1\n      pop\n        /* \"#utility.yul\":764:833   */\n      tag_62\n        /* \"#utility.yul\":830:831   */\n      0x00\n        /* \"#utility.yul\":819:828   */\n      dup4\n        /* \"#utility.yul\":815:832   */\n      add\n        /* \"#utility.yul\":806:812   */\n      dup5\n        /* \"#utility.yul\":764:833   */\n      tag_43\n      jump\t// in\n    tag_62:\n        /* \"#utility.yul\":622:840   */\n      swap3\n      swap2\n      pop\n      pop\n      jump\t// out\n        /* \"#utility.yul\":846:1159   */\n    tag_11:\n        /* \"#utility.yul\":959:963   */\n      0x00\n        /* \"#utility.yul\":997:999   */\n      0x20\n        /* \"#utility.yul\":986:995   */\n      dup3\n        /* \"#utility.yul\":982:1000   */\n      add\n        /* \"#utility.yul\":974:1000   */\n      swap1\n      pop\n        /* \"#utility.yul\":1046:1055   */\n      dup2\n        /* \"#utility.yul\":1040:1044   */\n      dup2\n        /* \"#utility.yul\":1036:1056   */\n      sub\n        /* \"#utility.yul\":1032:1033   */\n      0x00\n        /* \"#utility.yul\":1021:1030   */\n      dup4\n        /* \"#utility.yul\":1017:1034   */\n      add\n        /* \"#utility.yul\":1010:1057   */\n      mstore\n        /* \"#utility.yul\":1074:1152   */\n      tag_64\n        /* \"#utility.yul\":1147:1151   */\n      dup2\n        /* \"#utility.yul\":1138:1144   */\n      dup5\n        /* \"#utility.yul\":1074:1152   */\n      tag_47\n      jump\t// in\n    tag_64:\n        /* \"#utility.yul\":1066:1152   */\n      swap1\n      pop\n        /* \"#utility.yul\":846:1159   */\n      swap3\n      swap2\n      pop\n      pop\n      jump\t// out\n        /* \"#utility.yul\":1165:1387   */\n    tag_22:\n        /* \"#utility.yul\":1258:1262   */\n      0x00\n        /* \"#utility.yul\":1296:1298   */\n      0x20\n        /* \"#utility.yul\":1285:1294   */\n      dup3\n        /* \"#utility.yul\":1281:1299   */\n      add\n        /* \"#utility.yul\":1273:1299   */\n      swap1\n      pop\n        /* \"#utility.yul\":1309:1380   */\n      tag_66\n        /* \"#utility.yul\":1377:1378   */\n      0x00\n        /* \"#utility.yul\":1366:1375   */\n      dup4\n        /* \"#utility.yul\":1362:1379   */\n      add\n        /* \"#utility.yul\":1353:1359   */\n      dup5\n        /* \"#utility.yul\":1309:1380   */\n      tag_57\n      jump\t// in\n    tag_66:\n        /* \"#utility.yul\":1165:1387   */\n      swap3\n      swap2\n      pop\n      pop\n      jump\t// out\n        /* \"#utility.yul\":1393:1492   */\n    tag_50:\n        /* \"#utility.yul\":1445:1451   */\n      0x00\n        /* \"#utility.yul\":1479:1484   */\n      dup2\n        /* \"#utility.yul\":1473:1485   */\n      mload\n        /* \"#utility.yul\":1463:1485   */\n      swap1\n      pop\n        /* \"#utility.yul\":1393:1492   */\n      swap2\n      swap1\n      pop\n      jump\t// out\n        /* \"#utility.yul\":1498:1667   */\n    tag_52:\n        /* \"#utility.yul\":1582:1593   */\n      0x00\n        /* \"#utility.yul\":1616:1622   */\n      dup3\n        /* \"#utility.yul\":1611:1614   */\n      dup3\n        /* \"#utility.yul\":1604:1623   */\n      mstore\n        /* \"#utility.yul\":1656:1660   */\n      0x20\n        /* \"#utility.yul\":1651:1654   */\n      dup3\n        /* \"#utility.yul\":1647:1661   */\n      add\n        /* \"#utility.yul\":1632:1661   */\n      swap1\n      pop\n        /* \"#utility.yul\":1498:1667   */\n      swap3\n      swap2\n      pop\n      pop\n      jump\t// out\n        /* \"#utility.yul\":1673:1749   */\n    tag_46:\n        /* \"#utility.yul\":1709:1716   */\n      0x00\n        /* \"#utility.yul\":1738:1743   */\n      dup2\n        /* \"#utility.yul\":1727:1743   */\n      swap1\n      pop\n        /* \"#utility.yul\":1673:1749   */\n      swap2\n      swap1\n      pop\n      jump\t// out\n        /* \"#utility.yul\":1755:1832   */\n    tag_60:\n        /* \"#utility.yul\":1792:1799   */\n      0x00\n        /* \"#utility.yul\":1821:1826   */\n      dup2\n        /* \"#utility.yul\":1810:1826   */\n      swap1\n      pop\n        /* \"#utility.yul\":1755:1832   */\n      swap2\n      swap1\n      pop\n      jump\t// out\n        /* \"#utility.yul\":1838:2145   */\n    tag_54:\n        /* \"#utility.yul\":1906:1907   */\n      0x00\n        /* \"#utility.yul\":1916:2029   */\n    tag_72:\n        /* \"#utility.yul\":1930:1936   */\n      dup4\n        /* \"#utility.yul\":1927:1928   */\n      dup2\n        /* \"#utility.yul\":1924:1937   */\n      lt\n        /* \"#utility.yul\":1916:2029   */\n      iszero\n      tag_74\n      jumpi\n        /* \"#utility.yul\":2015:2016   */\n      dup1\n        /* \"#utility.yul\":2010:2013   */\n      dup3\n        /* \"#utility.yul\":2006:2017   */\n      add\n        /* \"#utility.yul\":2000:2018   */\n      mload\n        /* \"#utility.yul\":1996:1997   */\n      dup2\n        /* \"#utility.yul\":1991:1994   */\n      dup5\n        /* \"#utility.yul\":1987:1998   */\n      add\n        /* \"#utility.yul\":1980:2019   */\n      mstore\n        /* \"#utility.yul\":1952:1954   */\n      0x20\n        /* \"#utility.yul\":1949:1950   */\n      dup2\n        /* \"#utility.yul\":1945:1955   */\n      add\n        /* \"#utility.yul\":1940:1955   */\n      swap1\n      pop\n        /* \"#utility.yul\":1916:2029   */\n      jump(tag_72)\n    tag_74:\n        /* \"#utility.yul\":2047:2053   */\n      dup4\n        /* \"#utility.yul\":2044:2045   */\n      dup2\n        /* \"#utility.yul\":2041:2054   */\n      gt\n        /* \"#utility.yul\":2038:2139   */\n      iszero\n      tag_75\n      jumpi\n        /* \"#utility.yul\":2127:2128   */\n      0x00\n        /* \"#utility.yul\":2118:2124   */\n      dup5\n        /* \"#utility.yul\":2113:2116   */\n      dup5\n        /* \"#utility.yul\":2109:2125   */\n      add\n        /* \"#utility.yul\":2102:2129   */\n      mstore\n        /* \"#utility.yul\":2038:2139   */\n    tag_75:\n        /* \"#utility.yul\":1887:2145   */\n      pop\n        /* \"#utility.yul\":1838:2145   */\n      pop\n      pop\n      pop\n      jump\t// out\n        /* \"#utility.yul\":2151:2471   */\n    tag_27:\n        /* \"#utility.yul\":2195:2201   */\n      0x00\n        /* \"#utility.yul\":2232:2233   */\n      0x02\n        /* \"#utility.yul\":2226:2230   */\n      dup3\n        /* \"#utility.yul\":2222:2234   */\n      div\n        /* \"#utility.yul\":2212:2234   */\n      swap1\n      pop\n        /* \"#utility.yul\":2279:2280   */\n      0x01\n        /* \"#utility.yul\":2273:2277   */\n      dup3\n        /* \"#utility.yul\":2269:2281   */\n      and\n        /* \"#utility.yul\":2300:2318   */\n      dup1\n        /* \"#utility.yul\":2290:2371   */\n      tag_77\n      jumpi\n        /* \"#utility.yul\":2356:2360   */\n      0x7f\n        /* \"#utility.yul\":2348:2354   */\n      dup3\n        /* \"#utility.yul\":2344:2361   */\n      and\n        /* \"#utility.yul\":2334:2361   */\n      swap2\n      pop\n        /* \"#utility.yul\":2290:2371   */\n    tag_77:\n        /* \"#utility.yul\":2418:2420   */\n      0x20\n        /* \"#utility.yul\":2410:2416   */\n      dup3\n        /* \"#utility.yul\":2407:2421   */\n      lt\n        /* \"#utility.yul\":2387:2405   */\n      dup2\n        /* \"#utility.yul\":2384:2422   */\n      eq\n        /* \"#utility.yul\":2381:2465   */\n      iszero\n      tag_78\n      jumpi\n        /* \"#utility.yul\":2437:2455   */\n      tag_79\n      tag_80\n      jump\t// in\n    tag_79:\n        /* \"#utility.yul\":2381:2465   */\n    tag_78:\n        /* \"#utility.yul\":2202:2471   */\n      pop\n        /* \"#utility.yul\":2151:2471   */\n      swap2\n      swap1\n      pop\n      jump\t// out\n        /* \"#utility.yul\":2477:2657   */\n    tag_80:\n        /* \"#utility.yul\":2525:2602   */\n      0x4e487b7100000000000000000000000000000000000000000000000000000000\n        /* \"#utility.yul\":2522:2523   */\n      0x00\n        /* \"#utility.yul\":2515:2603   */\n      mstore\n        /* \"#utility.yul\":2622:2626   */\n      0x22\n        /* \"#utility.yul\":2619:2620   */\n      0x04\n        /* \"#utility.yul\":2612:2627   */\n      mstore\n        /* \"#utility.yul\":2646:2650   */\n      0x24\n        /* \"#utility.yul\":2643:2644   */\n      0x00\n        /* \"#utility.yul\":2636:2651   */\n      revert\n        /* \"#utility.yul\":2663:2765   */\n    tag_56:\n        /* \"#utility.yul\":2704:2710   */\n      0x00\n        /* \"#utility.yul\":2755:2757   */\n      0x1f\n        /* \"#utility.yul\":2751:2758   */\n      not\n        /* \"#utility.yul\":2746:2748   */\n      0x1f\n        /* \"#utility.yul\":2739:2744   */\n      dup4\n        /* \"#utility.yul\":2735:2749   */\n      add\n        /* \"#utility.yul\":2731:2759   */\n      and\n        /* \"#utility.yul\":2721:2759   */\n      swap1\n      pop\n        /* \"#utility.yul\":2663:2765   */\n      swap2\n      swap1\n      pop\n      jump\t// out\n\n    auxdata: 0xa2646970667358221220f71bd79e709d201b3b08669e5dde8ff3289c6a870031077e485c897e9fde88d464736f6c63430008070033\n}\n",
				"bytecode": {
					"linkReferences": {},
					"object": "608060405234801561001057600080fd5b50600780600381905550506104628061002a6000396000f3fe608060405234801561001057600080fd5b50600436106100575760003560e01c806306fdde031461005c5780630dbe671f1461007a578063324a13761461009857806359774655146100b6578063890eba68146100d4575b600080fd5b6100646100f2565b604051610071919061031a565b60405180910390f35b610082610180565b60405161008f91906102ff565b60405180910390f35b6100a0610186565b6040516100ad919061031a565b60405180910390f35b6100be610214565b6040516100cb919061033c565b60405180910390f35b6100dc61021a565b6040516100e9919061031a565b60405180910390f35b600080546100ff906103ba565b80601f016020809104026020016040519081016040528092919081815260200182805461012b906103ba565b80156101785780601f1061014d57610100808354040283529160200191610178565b820191906000526020600020905b81548152906001019060200180831161015b57829003601f168201915b505050505081565b60035481565b60058054610193906103ba565b80601f01602080910402602001604051908101604052809291908181526020018280546101bf906103ba565b801561020c5780601f106101e15761010080835404028352916020019161020c565b820191906000526020600020905b8154815290600101906020018083116101ef57829003601f168201915b505050505081565b60045481565b60018054610227906103ba565b80601f0160208091040260200160405190810160405280929190818152602001828054610253906103ba565b80156102a05780601f10610275576101008083540402835291602001916102a0565b820191906000526020600020905b81548152906001019060200180831161028357829003601f168201915b505050505081565b6102b181610373565b82525050565b60006102c282610357565b6102cc8185610362565b93506102dc818560208601610387565b6102e58161041b565b840191505092915050565b6102f98161037d565b82525050565b600060208201905061031460008301846102a8565b92915050565b6000602082019050818103600083015261033481846102b7565b905092915050565b600060208201905061035160008301846102f0565b92915050565b600081519050919050565b600082825260208201905092915050565b6000819050919050565b6000819050919050565b60005b838110156103a557808201518184015260208101905061038a565b838111156103b4576000848401525b50505050565b600060028204905060018216806103d257607f821691505b602082108114156103e6576103e56103ec565b5b50919050565b7f4e487b7100000000000000000000000000000000000000000000000000000000600052602260045260246000fd5b6000601f19601f830116905091905056fea2646970667358221220f71bd79e709d201b3b08669e5dde8ff3289c6a870031077e485c897e9fde88d464736f6c63430008070033",
					"opcodes": "PUSH1 0x80 PUSH1 0x40 MSTORE CALLVALUE DUP1 ISZERO PUSH2 0x10 JUMPI PUSH1 0x0 DUP1 REVERT JUMPDEST POP PUSH1 0x7 DUP1 PUSH1 0x3 DUP2 SWAP1 SSTORE POP POP PUSH2 0x462 DUP1 PUSH2 0x2A PUSH1 0x0 CODECOPY PUSH1 0x0 RETURN INVALID PUSH1 0x80 PUSH1 0x40 MSTORE CALLVALUE DUP1 ISZERO PUSH2 0x10 JUMPI PUSH1 0x0 DUP1 REVERT JUMPDEST POP PUSH1 0x4 CALLDATASIZE LT PUSH2 0x57 JUMPI PUSH1 0x0 CALLDATALOAD PUSH1 0xE0 SHR DUP1 PUSH4 0x6FDDE03 EQ PUSH2 0x5C JUMPI DUP1 PUSH4 0xDBE671F EQ PUSH2 0x7A JUMPI DUP1 PUSH4 0x324A1376 EQ PUSH2 0x98 JUMPI DUP1 PUSH4 0x59774655 EQ PUSH2 0xB6 JUMPI DUP1 PUSH4 0x890EBA68 EQ PUSH2 0xD4 JUMPI JUMPDEST PUSH1 0x0 DUP1 REVERT JUMPDEST PUSH2 0x64 PUSH2 0xF2 JUMP JUMPDEST PUSH1 0x40 MLOAD PUSH2 0x71 SWAP2 SWAP1 PUSH2 0x31A JUMP JUMPDEST PUSH1 0x40 MLOAD DUP1 SWAP2 SUB SWAP1 RETURN JUMPDEST PUSH2 0x82 PUSH2 0x180 JUMP JUMPDEST PUSH1 0x40 MLOAD PUSH2 0x8F SWAP2 SWAP1 PUSH2 0x2FF JUMP JUMPDEST PUSH1 0x40 MLOAD DUP1 SWAP2 SUB SWAP1 RETURN JUMPDEST PUSH2 0xA0 PUSH2 0x186 JUMP JUMPDEST PUSH1 0x40 MLOAD PUSH2 0xAD SWAP2 SWAP1 PUSH2 0x31A JUMP JUMPDEST PUSH1 0x40 MLOAD DUP1 SWAP2 SUB SWAP1 RETURN JUMPDEST PUSH2 0xBE PUSH2 0x214 JUMP JUMPDEST PUSH1 0x40 MLOAD PUSH2 0xCB SWAP2 SWAP1 PUSH2 0x33C JUMP JUMPDEST PUSH1 0x40 MLOAD DUP1 SWAP2 SUB SWAP1 RETURN JUMPDEST PUSH2 0xDC PUSH2 0x21A JUMP JUMPDEST PUSH1 0x40 MLOAD PUSH2 0xE9 SWAP2 SWAP1 PUSH2 0x31A JUMP JUMPDEST PUSH1 0x40 MLOAD DUP1 SWAP2 SUB SWAP1 RETURN JUMPDEST PUSH1 0x0 DUP1 SLOAD PUSH2 0xFF SWAP1 PUSH2 0x3BA JUMP JUMPDEST DUP1 PUSH1 0x1F ADD PUSH1 0x20 DUP1 SWAP2 DIV MUL PUSH1 0x20 ADD PUSH1 0x40 MLOAD SWAP1 DUP2 ADD PUSH1 0x40 MSTORE DUP1 SWAP3 SWAP2 SWAP1 DUP2 DUP2 MSTORE PUSH1 0x20 ADD DUP3 DUP1 SLOAD PUSH2 0x12B SWAP1 PUSH2 0x3BA JUMP JUMPDEST DUP1 ISZERO PUSH2 0x178 JUMPI DUP1 PUSH1 0x1F LT PUSH2 0x14D JUMPI PUSH2 0x100 DUP1 DUP4 SLOAD DIV MUL DUP4 MSTORE SWAP2 PUSH1 0x20 ADD SWAP2 PUSH2 0x178 JUMP JUMPDEST DUP3 ADD SWAP2 SWAP1 PUSH1 0x0 MSTORE PUSH1 0x20 PUSH1 0x0 KECCAK256 SWAP1 JUMPDEST DUP2 SLOAD DUP2 MSTORE SWAP1 PUSH1 0x1 ADD SWAP1 PUSH1 0x20 ADD DUP1 DUP4 GT PUSH2 0x15B JUMPI DUP3 SWAP1 SUB PUSH1 0x1F AND DUP3 ADD SWAP2 JUMPDEST POP POP POP POP POP DUP2 JUMP JUMPDEST PUSH1 0x3 SLOAD DUP2 JUMP JUMPDEST PUSH1 0x5 DUP1 SLOAD PUSH2 0x193 SWAP1 PUSH2 0x3BA JUMP JUMPDEST DUP1 PUSH1 0x1F ADD PUSH1 0x20 DUP1 SWAP2 DIV MUL PUSH1 0x20 ADD PUSH1 0x40 MLOAD SWAP1 DUP2 ADD PUSH1 0x40 MSTORE DUP1 SWAP3 SWAP2 SWAP1 DUP2 DUP2 MSTORE PUSH1 0x20 ADD DUP3 DUP1 SLOAD PUSH2 0x1BF SWAP1 PUSH2 0x3BA JUMP JUMPDEST DUP1 ISZERO PUSH2 0x20C JUMPI DUP1 PUSH1 0x1F LT PUSH2 0x1E1 JUMPI PUSH2 0x100 DUP1 DUP4 SLOAD DIV MUL DUP4 MSTORE SWAP2 PUSH1 0x20 ADD SWAP2 PUSH2 0x20C JUMP JUMPDEST DUP3 ADD SWAP2 SWAP1 PUSH1 0x0 MSTORE PUSH1 0x20 PUSH1 0x0 KECCAK256 SWAP1 JUMPDEST DUP2 SLOAD DUP2 MSTORE SWAP1 PUSH1 0x1 ADD SWAP1 PUSH1 0x20 ADD DUP1 DUP4 GT PUSH2 0x1EF JUMPI DUP3 SWAP1 SUB PUSH1 0x1F AND DUP3 ADD SWAP2 JUMPDEST POP POP POP POP POP DUP2 JUMP JUMPDEST PUSH1 0x4 SLOAD DUP2 JUMP JUMPDEST PUSH1 0x1 DUP1 SLOAD PUSH2 0x227 SWAP1 PUSH2 0x3BA JUMP JUMPDEST DUP1 PUSH1 0x1F ADD PUSH1 0x20 DUP1 SWAP2 DIV MUL PUSH1 0x20 ADD PUSH1 0x40 MLOAD SWAP1 DUP2 ADD PUSH1 0x40 MSTORE DUP1 SWAP3 SWAP2 SWAP1 DUP2 DUP2 MSTORE PUSH1 0x20 ADD DUP3 DUP1 SLOAD PUSH2 0x253 SWAP1 PUSH2 0x3BA JUMP JUMPDEST DUP1 ISZERO PUSH2 0x2A0 JUMPI DUP1 PUSH1 0x1F LT PUSH2 0x275 JUMPI PUSH2 0x100 DUP1 DUP4 SLOAD DIV MUL DUP4 MSTORE SWAP2 PUSH1 0x20 ADD SWAP2 PUSH2 0x2A0 JUMP JUMPDEST DUP3 ADD SWAP2 SWAP1 PUSH1 0x0 MSTORE PUSH1 0x20 PUSH1 0x0 KECCAK256 SWAP1 JUMPDEST DUP2 SLOAD DUP2 MSTORE SWAP1 PUSH1 0x1 ADD SWAP1 PUSH1 0x20 ADD DUP1 DUP4 GT PUSH2 0x283 JUMPI DUP3 SWAP1 SUB PUSH1 0x1F AND DUP3 ADD SWAP2 JUMPDEST POP POP POP POP POP DUP2 JUMP JUMPDEST PUSH2 0x2B1 DUP2 PUSH2 0x373 JUMP JUMPDEST DUP3 MSTORE POP POP JUMP JUMPDEST PUSH1 0x0 PUSH2 0x2C2 DUP3 PUSH2 0x357 JUMP JUMPDEST PUSH2 0x2CC DUP2 DUP6 PUSH2 0x362 JUMP JUMPDEST SWAP4 POP PUSH2 0x2DC DUP2 DUP6 PUSH1 0x20 DUP7 ADD PUSH2 0x387 JUMP JUMPDEST PUSH2 0x2E5 DUP2 PUSH2 0x41B JUMP JUMPDEST DUP5 ADD SWAP2 POP POP SWAP3 SWAP2 POP POP JUMP JUMPDEST PUSH2 0x2F9 DUP2 PUSH2 0x37D JUMP JUMPDEST DUP3 MSTORE POP POP JUMP JUMPDEST PUSH1 0x0 PUSH1 0x20 DUP3 ADD SWAP1 POP PUSH2 0x314 PUSH1 0x0 DUP4 ADD DUP5 PUSH2 0x2A8 JUMP JUMPDEST SWAP3 SWAP2 POP POP JUMP JUMPDEST PUSH1 0x0 PUSH1 0x20 DUP3 ADD SWAP1 POP DUP2 DUP2 SUB PUSH1 0x0 DUP4 ADD MSTORE PUSH2 0x334 DUP2 DUP5 PUSH2 0x2B7 JUMP JUMPDEST SWAP1 POP SWAP3 SWAP2 POP POP JUMP JUMPDEST PUSH1 0x0 PUSH1 0x20 DUP3 ADD SWAP1 POP PUSH2 0x351 PUSH1 0x0 DUP4 ADD DUP5 PUSH2 0x2F0 JUMP JUMPDEST SWAP3 SWAP2 POP POP JUMP JUMPDEST PUSH1 0x0 DUP2 MLOAD SWAP1 POP SWAP2 SWAP1 POP JUMP JUMPDEST PUSH1 0x0 DUP3 DUP3 MSTORE PUSH1 0x20 DUP3 ADD SWAP1 POP SWAP3 SWAP2 POP POP JUMP JUMPDEST PUSH1 0x0 DUP2 SWAP1 POP SWAP2 SWAP1 POP JUMP JUMPDEST PUSH1 0x0 DUP2 SWAP1 POP SWAP2 SWAP1 POP JUMP JUMPDEST PUSH1 0x0 JUMPDEST DUP4 DUP2 LT ISZERO PUSH2 0x3A5 JUMPI DUP1 DUP3 ADD MLOAD DUP2 DUP5 ADD MSTORE PUSH1 0x20 DUP2 ADD SWAP1 POP PUSH2 0x38A JUMP JUMPDEST DUP4 DUP2 GT ISZERO PUSH2 0x3B4 JUMPI PUSH1 0x0 DUP5 DUP5 ADD MSTORE JUMPDEST POP POP POP POP JUMP JUMPDEST PUSH1 0x0 PUSH1 0x2 DUP3 DIV SWAP1 POP PUSH1 0x1 DUP3 AND DUP1 PUSH2 0x3D2 JUMPI PUSH1 0x7F DUP3 AND SWAP2 POP JUMPDEST PUSH1 0x20 DUP3 LT DUP2 EQ ISZERO PUSH2 0x3E6 JUMPI PUSH2 0x3E5 PUSH2 0x3EC JUMP JUMPDEST JUMPDEST POP SWAP2 SWAP1 POP JUMP JUMPDEST PUSH32 0x4E487B7100000000000000000000000000000000000000000000000000000000 PUSH1 0x0 MSTORE PUSH1 0x22 PUSH1 0x4 MSTORE PUSH1 0x24 PUSH1 0x0 REVERT JUMPDEST PUSH1 0x0 PUSH1 0x1F NOT PUSH1 0x1F DUP4 ADD AND SWAP1 POP SWAP2 SWAP1 POP JUMP INVALID LOG2 PUSH5 0x6970667358 0x22 SLT KECCAK256 0xF7 SHL 0xD7 SWAP15 PUSH17 0x9D201B3B08669E5DDE8FF3289C6A870031 SMOD PUSH31 0x485C897E9FDE88D464736F6C63430008070033000000000000000000000000 "
				},
				"gasEstimates": {
					"creation": {
						"codeDepositCost": "224400",
						"executionCost": "22388",
						"totalCost": "246788"
					},
					"external": {
						"a()": "2429",
						"flag()": "infinite",
						"name()": "infinite",
						"president()": "infinite",
						"sqm()": "2473"
					}
				},
				"methodIdentifiers": {
					"a()": "0dbe671f",
					"flag()": "890eba68",
					"name()": "06fdde03",
					"president()": "324a1376",
					"sqm()": "59774655"
				}
			},
			"userdoc": {
				"kind": "user",
				"methods": {},
				"version": 1
			}
		}
	}
}