{
	"training/contracts/Libraries.sol": {
		"Math": {
			"abi": [
				{
					"inputs": [
						{
							"internalType": "int256",
							"name": "a",
							"type": "int256"
						},
						{
							"internalType": "int256",
							"name": "b",
							"type": "int256"
						}
					],
					"name": "div",
					"outputs": [
						{
							"internalType": "int256",
							"name": "",
							"type": "int256"
						}
					],
					"stateMutability": "pure",
					"type": "function"
				}
			],
			"devdoc": {
				"kind": "dev",
				"methods": {},
				"version": 1
			},
			"evm": {
				"assembly": "    /* \"training/contracts/Libraries.sol\":243:391  library Math{... */\n  dataSize(sub_0)\n  dataOffset(sub_0)\n  0x0b\n  dup3\n  dup3\n  dup3\n  codecopy\n  dup1\n  mload\n  0x00\n  byte\n  0x73\n  eq\n  tag_1\n  jumpi\n  mstore(0x00, 0x4e487b7100000000000000000000000000000000000000000000000000000000)\n  mstore(0x04, 0x00)\n  revert(0x00, 0x24)\ntag_1:\n  mstore(0x00, address)\n  0x73\n  dup2\n  mstore8\n  dup3\n  dup2\n  return\nstop\n\nsub_0: assembly {\n        /* \"training/contracts/Libraries.sol\":243:391  library Math{... */\n      eq(address, deployTimeAddress())\n      mstore(0x40, 0x80)\n      jumpi(tag_1, lt(calldatasize, 0x04))\n      shr(0xe0, calldataload(0x00))\n      dup1\n      0x43509138\n      eq\n      tag_2\n      jumpi\n    tag_1:\n      0x00\n      dup1\n      revert\n        /* \"training/contracts/Libraries.sol\":261:389  function div(int a, int b) public pure returns(int){... */\n    tag_2:\n      tag_3\n      0x04\n      dup1\n      calldatasize\n      sub\n      dup2\n      add\n      swap1\n      tag_4\n      swap2\n      swap1\n      tag_5\n      jump\t// in\n    tag_4:\n      tag_6\n      jump\t// in\n    tag_3:\n      mload(0x40)\n      tag_7\n      swap2\n      swap1\n      tag_8\n      jump\t// in\n    tag_7:\n      mload(0x40)\n      dup1\n      swap2\n      sub\n      swap1\n      return\n    tag_6:\n        /* \"training/contracts/Libraries.sol\":308:311  int */\n      0x00\n        /* \"training/contracts/Libraries.sol\":333:334  0 */\n      dup1\n        /* \"training/contracts/Libraries.sol\":330:331  b */\n      dup3\n        /* \"training/contracts/Libraries.sol\":330:334  b!=0 */\n      eq\n      iszero\n        /* \"training/contracts/Libraries.sol\":322:362  require(b!=0, \"the donominator is zero\") */\n      tag_10\n      jumpi\n      mload(0x40)\n      0x08c379a000000000000000000000000000000000000000000000000000000000\n      dup2\n      mstore\n      0x04\n      add\n      tag_11\n      swap1\n      tag_12\n      jump\t// in\n    tag_11:\n      mload(0x40)\n      dup1\n      swap2\n      sub\n      swap1\n      revert\n    tag_10:\n        /* \"training/contracts/Libraries.sol\":381:382  b */\n      dup2\n        /* \"training/contracts/Libraries.sol\":379:380  a */\n      dup4\n        /* \"training/contracts/Libraries.sol\":379:382  a/b */\n      tag_13\n      swap2\n      swap1\n      tag_14\n      jump\t// in\n    tag_13:\n        /* \"training/contracts/Libraries.sol\":372:382  return a/b */\n      swap1\n      pop\n        /* \"training/contracts/Libraries.sol\":261:389  function div(int a, int b) public pure returns(int){... */\n      swap3\n      swap2\n      pop\n      pop\n      jump\t// out\n        /* \"#utility.yul\":7:144   */\n    tag_16:\n        /* \"#utility.yul\":52:57   */\n      0x00\n        /* \"#utility.yul\":90:96   */\n      dup2\n        /* \"#utility.yul\":77:97   */\n      calldataload\n        /* \"#utility.yul\":68:97   */\n      swap1\n      pop\n        /* \"#utility.yul\":106:138   */\n      tag_18\n        /* \"#utility.yul\":132:137   */\n      dup2\n        /* \"#utility.yul\":106:138   */\n      tag_19\n      jump\t// in\n    tag_18:\n        /* \"#utility.yul\":7:144   */\n      swap3\n      swap2\n      pop\n      pop\n      jump\t// out\n        /* \"#utility.yul\":150:620   */\n    tag_5:\n        /* \"#utility.yul\":216:222   */\n      0x00\n        /* \"#utility.yul\":224:230   */\n      dup1\n        /* \"#utility.yul\":273:275   */\n      0x40\n        /* \"#utility.yul\":261:270   */\n      dup4\n        /* \"#utility.yul\":252:259   */\n      dup6\n        /* \"#utility.yul\":248:271   */\n      sub\n        /* \"#utility.yul\":244:276   */\n      slt\n        /* \"#utility.yul\":241:360   */\n      iszero\n      tag_21\n      jumpi\n        /* \"#utility.yul\":279:358   */\n      tag_22\n      tag_23\n      jump\t// in\n    tag_22:\n        /* \"#utility.yul\":241:360   */\n    tag_21:\n        /* \"#utility.yul\":399:400   */\n      0x00\n        /* \"#utility.yul\":424:476   */\n      tag_24\n        /* \"#utility.yul\":468:475   */\n      dup6\n        /* \"#utility.yul\":459:465   */\n      dup3\n        /* \"#utility.yul\":448:457   */\n      dup7\n        /* \"#utility.yul\":444:466   */\n      add\n        /* \"#utility.yul\":424:476   */\n      tag_16\n      jump\t// in\n    tag_24:\n        /* \"#utility.yul\":414:476   */\n      swap3\n      pop\n        /* \"#utility.yul\":370:486   */\n      pop\n        /* \"#utility.yul\":525:527   */\n      0x20\n        /* \"#utility.yul\":551:603   */\n      tag_25\n        /* \"#utility.yul\":595:602   */\n      dup6\n        /* \"#utility.yul\":586:592   */\n      dup3\n        /* \"#utility.yul\":575:584   */\n      dup7\n        /* \"#utility.yul\":571:593   */\n      add\n        /* \"#utility.yul\":551:603   */\n      tag_16\n      jump\t// in\n    tag_25:\n        /* \"#utility.yul\":541:603   */\n      swap2\n      pop\n        /* \"#utility.yul\":496:613   */\n      pop\n        /* \"#utility.yul\":150:620   */\n      swap3\n      pop\n      swap3\n      swap1\n      pop\n      jump\t// out\n        /* \"#utility.yul\":626:749   */\n    tag_26:\n        /* \"#utility.yul\":719:742   */\n      tag_28\n        /* \"#utility.yul\":736:741   */\n      dup2\n        /* \"#utility.yul\":719:742   */\n      tag_29\n      jump\t// in\n    tag_28:\n        /* \"#utility.yul\":714:717   */\n      dup3\n        /* \"#utility.yul\":707:743   */\n      mstore\n        /* \"#utility.yul\":626:749   */\n      pop\n      pop\n      jump\t// out\n        /* \"#utility.yul\":755:1121   */\n    tag_30:\n        /* \"#utility.yul\":897:900   */\n      0x00\n        /* \"#utility.yul\":918:985   */\n      tag_32\n        /* \"#utility.yul\":982:984   */\n      0x17\n        /* \"#utility.yul\":977:980   */\n      dup4\n        /* \"#utility.yul\":918:985   */\n      tag_33\n      jump\t// in\n    tag_32:\n        /* \"#utility.yul\":911:985   */\n      swap2\n      pop\n        /* \"#utility.yul\":994:1087   */\n      tag_34\n        /* \"#utility.yul\":1083:1086   */\n      dup3\n        /* \"#utility.yul\":994:1087   */\n      tag_35\n      jump\t// in\n    tag_34:\n        /* \"#utility.yul\":1112:1114   */\n      0x20\n        /* \"#utility.yul\":1107:1110   */\n      dup3\n        /* \"#utility.yul\":1103:1115   */\n      add\n        /* \"#utility.yul\":1096:1115   */\n      swap1\n      pop\n        /* \"#utility.yul\":755:1121   */\n      swap2\n      swap1\n      pop\n      jump\t// out\n        /* \"#utility.yul\":1127:1361   */\n    tag_8:\n        /* \"#utility.yul\":1226:1230   */\n      0x00\n        /* \"#utility.yul\":1264:1266   */\n      0x20\n        /* \"#utility.yul\":1253:1262   */\n      dup3\n        /* \"#utility.yul\":1249:1267   */\n      add\n        /* \"#utility.yul\":1241:1267   */\n      swap1\n      pop\n        /* \"#utility.yul\":1277:1354   */\n      tag_37\n        /* \"#utility.yul\":1351:1352   */\n      0x00\n        /* \"#utility.yul\":1340:1349   */\n      dup4\n        /* \"#utility.yul\":1336:1353   */\n      add\n        /* \"#utility.yul\":1327:1333   */\n      dup5\n        /* \"#utility.yul\":1277:1354   */\n      tag_26\n      jump\t// in\n    tag_37:\n        /* \"#utility.yul\":1127:1361   */\n      swap3\n      swap2\n      pop\n      pop\n      jump\t// out\n        /* \"#utility.yul\":1367:1786   */\n    tag_12:\n        /* \"#utility.yul\":1533:1537   */\n      0x00\n        /* \"#utility.yul\":1571:1573   */\n      0x20\n        /* \"#utility.yul\":1560:1569   */\n      dup3\n        /* \"#utility.yul\":1556:1574   */\n      add\n        /* \"#utility.yul\":1548:1574   */\n      swap1\n      pop\n        /* \"#utility.yul\":1620:1629   */\n      dup2\n        /* \"#utility.yul\":1614:1618   */\n      dup2\n        /* \"#utility.yul\":1610:1630   */\n      sub\n        /* \"#utility.yul\":1606:1607   */\n      0x00\n        /* \"#utility.yul\":1595:1604   */\n      dup4\n        /* \"#utility.yul\":1591:1608   */\n      add\n        /* \"#utility.yul\":1584:1631   */\n      mstore\n        /* \"#utility.yul\":1648:1779   */\n      tag_39\n        /* \"#utility.yul\":1774:1778   */\n      dup2\n        /* \"#utility.yul\":1648:1779   */\n      tag_30\n      jump\t// in\n    tag_39:\n        /* \"#utility.yul\":1640:1779   */\n      swap1\n      pop\n        /* \"#utility.yul\":1367:1786   */\n      swap2\n      swap1\n      pop\n      jump\t// out\n        /* \"#utility.yul\":1873:2042   */\n    tag_33:\n        /* \"#utility.yul\":1957:1968   */\n      0x00\n        /* \"#utility.yul\":1991:1997   */\n      dup3\n        /* \"#utility.yul\":1986:1989   */\n      dup3\n        /* \"#utility.yul\":1979:1998   */\n      mstore\n        /* \"#utility.yul\":2031:2035   */\n      0x20\n        /* \"#utility.yul\":2026:2029   */\n      dup3\n        /* \"#utility.yul\":2022:2036   */\n      add\n        /* \"#utility.yul\":2007:2036   */\n      swap1\n      pop\n        /* \"#utility.yul\":1873:2042   */\n      swap3\n      swap2\n      pop\n      pop\n      jump\t// out\n        /* \"#utility.yul\":2048:2433   */\n    tag_14:\n        /* \"#utility.yul\":2087:2088   */\n      0x00\n        /* \"#utility.yul\":2104:2123   */\n      tag_44\n        /* \"#utility.yul\":2121:2122   */\n      dup3\n        /* \"#utility.yul\":2104:2123   */\n      tag_29\n      jump\t// in\n    tag_44:\n        /* \"#utility.yul\":2099:2123   */\n      swap2\n      pop\n        /* \"#utility.yul\":2137:2156   */\n      tag_45\n        /* \"#utility.yul\":2154:2155   */\n      dup4\n        /* \"#utility.yul\":2137:2156   */\n      tag_29\n      jump\t// in\n    tag_45:\n        /* \"#utility.yul\":2132:2156   */\n      swap3\n      pop\n        /* \"#utility.yul\":2175:2176   */\n      dup3\n        /* \"#utility.yul\":2165:2200   */\n      tag_46\n      jumpi\n        /* \"#utility.yul\":2180:2198   */\n      tag_47\n      tag_48\n      jump\t// in\n    tag_47:\n        /* \"#utility.yul\":2165:2200   */\n    tag_46:\n        /* \"#utility.yul\":2366:2367   */\n      0x01\n        /* \"#utility.yul\":2363:2364   */\n      0x00\n        /* \"#utility.yul\":2359:2368   */\n      sub\n        /* \"#utility.yul\":2356:2357   */\n      dup4\n        /* \"#utility.yul\":2353:2369   */\n      eq\n        /* \"#utility.yul\":2272:2338   */\n      0x8000000000000000000000000000000000000000000000000000000000000000\n        /* \"#utility.yul\":2269:2270   */\n      dup4\n        /* \"#utility.yul\":2266:2339   */\n      eq\n        /* \"#utility.yul\":2249:2379   */\n      and\n        /* \"#utility.yul\":2246:2402   */\n      iszero\n      tag_49\n      jumpi\n        /* \"#utility.yul\":2382:2400   */\n      tag_50\n      tag_51\n      jump\t// in\n    tag_50:\n        /* \"#utility.yul\":2246:2402   */\n    tag_49:\n        /* \"#utility.yul\":2425:2426   */\n      dup3\n        /* \"#utility.yul\":2422:2423   */\n      dup3\n        /* \"#utility.yul\":2417:2427   */\n      sdiv\n        /* \"#utility.yul\":2412:2427   */\n      swap1\n      pop\n        /* \"#utility.yul\":2048:2433   */\n      swap3\n      swap2\n      pop\n      pop\n      jump\t// out\n        /* \"#utility.yul\":2439:2515   */\n    tag_29:\n        /* \"#utility.yul\":2475:2482   */\n      0x00\n        /* \"#utility.yul\":2504:2509   */\n      dup2\n        /* \"#utility.yul\":2493:2509   */\n      swap1\n      pop\n        /* \"#utility.yul\":2439:2515   */\n      swap2\n      swap1\n      pop\n      jump\t// out\n        /* \"#utility.yul\":2521:2701   */\n    tag_51:\n        /* \"#utility.yul\":2569:2646   */\n      0x4e487b7100000000000000000000000000000000000000000000000000000000\n        /* \"#utility.yul\":2566:2567   */\n      0x00\n        /* \"#utility.yul\":2559:2647   */\n      mstore\n        /* \"#utility.yul\":2666:2670   */\n      0x11\n        /* \"#utility.yul\":2663:2664   */\n      0x04\n        /* \"#utility.yul\":2656:2671   */\n      mstore\n        /* \"#utility.yul\":2690:2694   */\n      0x24\n        /* \"#utility.yul\":2687:2688   */\n      0x00\n        /* \"#utility.yul\":2680:2695   */\n      revert\n        /* \"#utility.yul\":2707:2887   */\n    tag_48:\n        /* \"#utility.yul\":2755:2832   */\n      0x4e487b7100000000000000000000000000000000000000000000000000000000\n        /* \"#utility.yul\":2752:2753   */\n      0x00\n        /* \"#utility.yul\":2745:2833   */\n      mstore\n        /* \"#utility.yul\":2852:2856   */\n      0x12\n        /* \"#utility.yul\":2849:2850   */\n      0x04\n        /* \"#utility.yul\":2842:2857   */\n      mstore\n        /* \"#utility.yul\":2876:2880   */\n      0x24\n        /* \"#utility.yul\":2873:2874   */\n      0x00\n        /* \"#utility.yul\":2866:2881   */\n      revert\n        /* \"#utility.yul\":3016:3133   */\n    tag_23:\n        /* \"#utility.yul\":3125:3126   */\n      0x00\n        /* \"#utility.yul\":3122:3123   */\n      dup1\n        /* \"#utility.yul\":3115:3127   */\n      revert\n        /* \"#utility.yul\":3139:3312   */\n    tag_35:\n        /* \"#utility.yul\":3279:3304   */\n      0x74686520646f6e6f6d696e61746f72206973207a65726f000000000000000000\n        /* \"#utility.yul\":3275:3276   */\n      0x00\n        /* \"#utility.yul\":3267:3273   */\n      dup3\n        /* \"#utility.yul\":3263:3277   */\n      add\n        /* \"#utility.yul\":3256:3305   */\n      mstore\n        /* \"#utility.yul\":3139:3312   */\n      pop\n      jump\t// out\n        /* \"#utility.yul\":3318:3438   */\n    tag_19:\n        /* \"#utility.yul\":3390:3413   */\n      tag_60\n        /* \"#utility.yul\":3407:3412   */\n      dup2\n        /* \"#utility.yul\":3390:3413   */\n      tag_29\n      jump\t// in\n    tag_60:\n        /* \"#utility.yul\":3383:3388   */\n      dup2\n        /* \"#utility.yul\":3380:3414   */\n      eq\n        /* \"#utility.yul\":3370:3432   */\n      tag_61\n      jumpi\n        /* \"#utility.yul\":3428:3429   */\n      0x00\n        /* \"#utility.yul\":3425:3426   */\n      dup1\n        /* \"#utility.yul\":3418:3430   */\n      revert\n        /* \"#utility.yul\":3370:3432   */\n    tag_61:\n        /* \"#utility.yul\":3318:3438   */\n      pop\n      jump\t// out\n\n    auxdata: 0xa2646970667358221220d92798bf3f38f2722d02d801fb0576bc25693ad3bd50ef5c83998433fc0e089a64736f6c63430008070033\n}\n",
				"bytecode": {
					"linkReferences": {},
					"object": "6102e3610053600b82828239805160001a607314610046577f4e487b7100000000000000000000000000000000000000000000000000000000600052600060045260246000fd5b30600052607381538281f3fe73000000000000000000000000000000000000000030146080604052600436106100355760003560e01c8063435091381461003a575b600080fd5b610054600480360381019061004f91906100d8565b61006a565b604051610061919061014a565b60405180910390f35b6000808214156100af576040517f08c379a00000000000000000000000000000000000000000000000000000000081526004016100a690610165565b60405180910390fd5b81836100bb9190610196565b905092915050565b6000813590506100d281610296565b92915050565b600080604083850312156100ef576100ee610268565b5b60006100fd858286016100c3565b925050602061010e858286016100c3565b9150509250929050565b61012181610200565b82525050565b6000610134601783610185565b915061013f8261026d565b602082019050919050565b600060208201905061015f6000830184610118565b92915050565b6000602082019050818103600083015261017e81610127565b9050919050565b600082825260208201905092915050565b60006101a182610200565b91506101ac83610200565b9250826101bc576101bb610239565b5b600160000383147f8000000000000000000000000000000000000000000000000000000000000000831416156101f5576101f461020a565b5b828205905092915050565b6000819050919050565b7f4e487b7100000000000000000000000000000000000000000000000000000000600052601160045260246000fd5b7f4e487b7100000000000000000000000000000000000000000000000000000000600052601260045260246000fd5b600080fd5b7f74686520646f6e6f6d696e61746f72206973207a65726f000000000000000000600082015250565b61029f81610200565b81146102aa57600080fd5b5056fea2646970667358221220d92798bf3f38f2722d02d801fb0576bc25693ad3bd50ef5c83998433fc0e089a64736f6c63430008070033",
					"opcodes": "PUSH2 0x2E3 PUSH2 0x53 PUSH1 0xB DUP3 DUP3 DUP3 CODECOPY DUP1 MLOAD PUSH1 0x0 BYTE PUSH1 0x73 EQ PUSH2 0x46 JUMPI PUSH32 0x4E487B7100000000000000000000000000000000000000000000000000000000 PUSH1 0x0 MSTORE PUSH1 0x0 PUSH1 0x4 MSTORE PUSH1 0x24 PUSH1 0x0 REVERT JUMPDEST ADDRESS PUSH1 0x0 MSTORE PUSH1 0x73 DUP2 MSTORE8 DUP3 DUP2 RETURN INVALID PUSH20 0x0 ADDRESS EQ PUSH1 0x80 PUSH1 0x40 MSTORE PUSH1 0x4 CALLDATASIZE LT PUSH2 0x35 JUMPI PUSH1 0x0 CALLDATALOAD PUSH1 0xE0 SHR DUP1 PUSH4 0x43509138 EQ PUSH2 0x3A JUMPI JUMPDEST PUSH1 0x0 DUP1 REVERT JUMPDEST PUSH2 0x54 PUSH1 0x4 DUP1 CALLDATASIZE SUB DUP2 ADD SWAP1 PUSH2 0x4F SWAP2 SWAP1 PUSH2 0xD8 JUMP JUMPDEST PUSH2 0x6A JUMP JUMPDEST PUSH1 0x40 MLOAD PUSH2 0x61 SWAP2 SWAP1 PUSH2 0x14A JUMP JUMPDEST PUSH1 0x40 MLOAD DUP1 SWAP2 SUB SWAP1 RETURN JUMPDEST PUSH1 0x0 DUP1 DUP3 EQ ISZERO PUSH2 0xAF JUMPI PUSH1 0x40 MLOAD PUSH32 0x8C379A000000000000000000000000000000000000000000000000000000000 DUP2 MSTORE PUSH1 0x4 ADD PUSH2 0xA6 SWAP1 PUSH2 0x165 JUMP JUMPDEST PUSH1 0x40 MLOAD DUP1 SWAP2 SUB SWAP1 REVERT JUMPDEST DUP2 DUP4 PUSH2 0xBB SWAP2 SWAP1 PUSH2 0x196 JUMP JUMPDEST SWAP1 POP SWAP3 SWAP2 POP POP JUMP JUMPDEST PUSH1 0x0 DUP2 CALLDATALOAD SWAP1 POP PUSH2 0xD2 DUP2 PUSH2 0x296 JUMP JUMPDEST SWAP3 SWAP2 POP POP JUMP JUMPDEST PUSH1 0x0 DUP1 PUSH1 0x40 DUP4 DUP6 SUB SLT ISZERO PUSH2 0xEF JUMPI PUSH2 0xEE PUSH2 0x268 JUMP JUMPDEST JUMPDEST PUSH1 0x0 PUSH2 0xFD DUP6 DUP3 DUP7 ADD PUSH2 0xC3 JUMP JUMPDEST SWAP3 POP POP PUSH1 0x20 PUSH2 0x10E DUP6 DUP3 DUP7 ADD PUSH2 0xC3 JUMP JUMPDEST SWAP2 POP POP SWAP3 POP SWAP3 SWAP1 POP JUMP JUMPDEST PUSH2 0x121 DUP2 PUSH2 0x200 JUMP JUMPDEST DUP3 MSTORE POP POP JUMP JUMPDEST PUSH1 0x0 PUSH2 0x134 PUSH1 0x17 DUP4 PUSH2 0x185 JUMP JUMPDEST SWAP2 POP PUSH2 0x13F DUP3 PUSH2 0x26D JUMP JUMPDEST PUSH1 0x20 DUP3 ADD SWAP1 POP SWAP2 SWAP1 POP JUMP JUMPDEST PUSH1 0x0 PUSH1 0x20 DUP3 ADD SWAP1 POP PUSH2 0x15F PUSH1 0x0 DUP4 ADD DUP5 PUSH2 0x118 JUMP JUMPDEST SWAP3 SWAP2 POP POP JUMP JUMPDEST PUSH1 0x0 PUSH1 0x20 DUP3 ADD SWAP1 POP DUP2 DUP2 SUB PUSH1 0x0 DUP4 ADD MSTORE PUSH2 0x17E DUP2 PUSH2 0x127 JUMP JUMPDEST SWAP1 POP SWAP2 SWAP1 POP JUMP JUMPDEST PUSH1 0x0 DUP3 DUP3 MSTORE PUSH1 0x20 DUP3 ADD SWAP1 POP SWAP3 SWAP2 POP POP JUMP JUMPDEST PUSH1 0x0 PUSH2 0x1A1 DUP3 PUSH2 0x200 JUMP JUMPDEST SWAP2 POP PUSH2 0x1AC DUP4 PUSH2 0x200 JUMP JUMPDEST SWAP3 POP DUP3 PUSH2 0x1BC JUMPI PUSH2 0x1BB PUSH2 0x239 JUMP JUMPDEST JUMPDEST PUSH1 0x1 PUSH1 0x0 SUB DUP4 EQ PUSH32 0x8000000000000000000000000000000000000000000000000000000000000000 DUP4 EQ AND ISZERO PUSH2 0x1F5 JUMPI PUSH2 0x1F4 PUSH2 0x20A JUMP JUMPDEST JUMPDEST DUP3 DUP3 SDIV SWAP1 POP SWAP3 SWAP2 POP POP JUMP JUMPDEST PUSH1 0x0 DUP2 SWAP1 POP SWAP2 SWAP1 POP JUMP JUMPDEST PUSH32 0x4E487B7100000000000000000000000000000000000000000000000000000000 PUSH1 0x0 MSTORE PUSH1 0x11 PUSH1 0x4 MSTORE PUSH1 0x24 PUSH1 0x0 REVERT JUMPDEST PUSH32 0x4E487B7100000000000000000000000000000000000000000000000000000000 PUSH1 0x0 MSTORE PUSH1 0x12 PUSH1 0x4 MSTORE PUSH1 0x24 PUSH1 0x0 REVERT JUMPDEST PUSH1 0x0 DUP1 REVERT JUMPDEST PUSH32 0x74686520646F6E6F6D696E61746F72206973207A65726F000000000000000000 PUSH1 0x0 DUP3 ADD MSTORE POP JUMP JUMPDEST PUSH2 0x29F DUP2 PUSH2 0x200 JUMP JUMPDEST DUP2 EQ PUSH2 0x2AA JUMPI PUSH1 0x0 DUP1 REVERT JUMPDEST POP JUMP INVALID LOG2 PUSH5 0x6970667358 0x22 SLT KECCAK256 0xD9 0x27 SWAP9 0xBF EXTCODEHASH CODESIZE CALLCODE PUSH19 0x2D02D801FB0576BC25693AD3BD50EF5C839984 CALLER 0xFC 0xE ADDMOD SWAP11 PUSH5 0x736F6C6343 STOP ADDMOD SMOD STOP CALLER "
				},
				"gasEstimates": {
					"creation": {
						"codeDepositCost": "147800",
						"executionCost": "221",
						"totalCost": "148021"
					},
					"external": {
						"div(int256,int256)": "infinite"
					}
				},
				"methodIdentifiers": {
					"div(int256,int256)": "43509138"
				}
			},
			"storageLayout": {
				"storage": [],
				"types": null
			},
			"userdoc": {
				"kind": "user",
				"methods": {},
				"version": 1
			}
		}
	}
}