{
	"training/contracts/Variables2.sol": {
		"Variable": {
			"abi": [
				{
					"inputs": [],
					"name": "c1",
					"outputs": [
						{
							"internalType": "enum Variable.cities",
							"name": "",
							"type": "uint8"
						}
					],
					"stateMutability": "view",
					"type": "function"
				},
				{
					"inputs": [
						{
							"internalType": "uint256",
							"name": "",
							"type": "uint256"
						}
					],
					"name": "names",
					"outputs": [
						{
							"internalType": "string",
							"name": "",
							"type": "string"
						}
					],
					"stateMutability": "view",
					"type": "function"
				},
				{
					"inputs": [
						{
							"internalType": "uint256",
							"name": "",
							"type": "uint256"
						}
					],
					"name": "names2",
					"outputs": [
						{
							"internalType": "string",
							"name": "",
							"type": "string"
						}
					],
					"stateMutability": "view",
					"type": "function"
				},
				{
					"inputs": [],
					"name": "ogr1",
					"outputs": [
						{
							"internalType": "string",
							"name": "name",
							"type": "string"
						},
						{
							"internalType": "string",
							"name": "surname",
							"type": "string"
						},
						{
							"internalType": "uint8",
							"name": "no",
							"type": "uint8"
						}
					],
					"stateMutability": "view",
					"type": "function"
				},
				{
					"inputs": [
						{
							"internalType": "uint8",
							"name": "",
							"type": "uint8"
						}
					],
					"name": "ogrenciler",
					"outputs": [
						{
							"internalType": "bool",
							"name": "",
							"type": "bool"
						}
					],
					"stateMutability": "view",
					"type": "function"
				}
			],
			"devdoc": {
				"kind": "dev",
				"methods": {},
				"version": 1
			},
			"evm": {
				"assembly": "    /* \"training/contracts/Variables2.sol\":70:970  contract Variable{... */\n  mstore(0x40, 0x80)\n    /* \"training/contracts/Variables2.sol\":106:154  string[] public names=[\"miuul\", \"vahit\", \"enes\"] */\n  mload(0x40)\n  dup1\n  0x60\n  add\n  0x40\n  mstore\n  dup1\n  mload(0x40)\n  dup1\n  0x40\n  add\n  0x40\n  mstore\n  dup1\n  0x05\n  dup2\n  mstore\n  0x20\n  add\n  0x6d6975756c000000000000000000000000000000000000000000000000000000\n  dup2\n  mstore\n  pop\n  dup2\n  mstore\n  0x20\n  add\n  mload(0x40)\n  dup1\n  0x40\n  add\n  0x40\n  mstore\n  dup1\n  0x05\n  dup2\n  mstore\n  0x20\n  add\n  0x7661686974000000000000000000000000000000000000000000000000000000\n  dup2\n  mstore\n  pop\n  dup2\n  mstore\n  0x20\n  add\n  mload(0x40)\n  dup1\n  0x40\n  add\n  0x40\n  mstore\n  dup1\n  0x04\n  dup2\n  mstore\n  0x20\n  add\n  0x656e657300000000000000000000000000000000000000000000000000000000\n  dup2\n  mstore\n  pop\n  dup2\n  mstore\n  pop\n  0x00\n  swap1\n  0x03\n  tag_1\n  swap3\n  swap2\n  swap1\n  tag_2\n  jump\t// in\ntag_1:\n  pop\n    /* \"training/contracts/Variables2.sol\":240:290  string[4] public names2=[\"miuul\", \"vahit\", \"enes\"] */\n  mload(0x40)\n  dup1\n  0x60\n  add\n  0x40\n  mstore\n  dup1\n  mload(0x40)\n  dup1\n  0x40\n  add\n  0x40\n  mstore\n  dup1\n  0x05\n  dup2\n  mstore\n  0x20\n  add\n  0x6d6975756c000000000000000000000000000000000000000000000000000000\n  dup2\n  mstore\n  pop\n  dup2\n  mstore\n  0x20\n  add\n  mload(0x40)\n  dup1\n  0x40\n  add\n  0x40\n  mstore\n  dup1\n  0x05\n  dup2\n  mstore\n  0x20\n  add\n  0x7661686974000000000000000000000000000000000000000000000000000000\n  dup2\n  mstore\n  pop\n  dup2\n  mstore\n  0x20\n  add\n  mload(0x40)\n  dup1\n  0x40\n  add\n  0x40\n  mstore\n  dup1\n  0x04\n  dup2\n  mstore\n  0x20\n  add\n  0x656e657300000000000000000000000000000000000000000000000000000000\n  dup2\n  mstore\n  pop\n  dup2\n  mstore\n  pop\n  0x01\n  swap1\n  0x03\n  tag_3\n  swap3\n  swap2\n  swap1\n  tag_4\n  jump\t// in\ntag_3:\n  pop\n    /* \"training/contracts/Variables2.sol\":756:769  cities.Ankara */\n  0x00\n    /* \"training/contracts/Variables2.sol\":739:769  cities public c1=cities.Ankara */\n  0x06\n  exp(0x0100, 0x00)\n  dup2\n  sload\n  dup2\n  0xff\n  mul\n  not\n  and\n  swap1\n  dup4\n  0x02\n  dup2\n  gt\n  iszero\n  tag_5\n  jumpi\n  tag_6\n  tag_7\n  jump\t// in\ntag_6:\ntag_5:\n  mul\n  or\n  swap1\n  sstore\n  pop\n    /* \"training/contracts/Variables2.sol\":70:970  contract Variable{... */\n  callvalue\n  dup1\n  iszero\n  tag_8\n  jumpi\n  0x00\n  dup1\n  revert\ntag_8:\n  pop\n  jump(tag_9)\ntag_2:\n  dup3\n  dup1\n  sload\n  dup3\n  dup3\n  sstore\n  swap1\n  0x00\n  mstore\n  keccak256(0x00, 0x20)\n  swap1\n  dup2\n  add\n  swap3\n  dup3\n  iszero\n  tag_10\n  jumpi\n  swap2\n  0x20\n  mul\n  dup3\n  add\ntag_11:\n  dup3\n  dup2\n  gt\n  iszero\n  tag_12\n  jumpi\n  dup3\n  mload\n  dup3\n  swap1\n  dup1\n  mload\n  swap1\n  0x20\n  add\n  swap1\n  tag_13\n  swap3\n  swap2\n  swap1\n  tag_14\n  jump\t// in\ntag_13:\n  pop\n  swap2\n  0x20\n  add\n  swap2\n  swap1\n  0x01\n  add\n  swap1\n  jump(tag_11)\ntag_12:\ntag_10:\n  pop\n  swap1\n  pop\n  tag_15\n  swap2\n  swap1\n  tag_16\n  jump\t// in\ntag_15:\n  pop\n  swap1\n  jump\t// out\ntag_4:\n  dup3\n  0x04\n  dup2\n  add\n  swap3\n  dup3\n  iszero\n  tag_17\n  jumpi\n  swap2\n  0x20\n  mul\n  dup3\n  add\ntag_18:\n  dup3\n  dup2\n  gt\n  iszero\n  tag_19\n  jumpi\n  dup3\n  mload\n  dup3\n  swap1\n  dup1\n  mload\n  swap1\n  0x20\n  add\n  swap1\n  tag_20\n  swap3\n  swap2\n  swap1\n  tag_14\n  jump\t// in\ntag_20:\n  pop\n  swap2\n  0x20\n  add\n  swap2\n  swap1\n  0x01\n  add\n  swap1\n  jump(tag_18)\ntag_19:\ntag_17:\n  pop\n  swap1\n  pop\n  tag_21\n  swap2\n  swap1\n  tag_16\n  jump\t// in\ntag_21:\n  pop\n  swap1\n  jump\t// out\ntag_14:\n  dup3\n  dup1\n  sload\n  tag_22\n  swap1\n  tag_23\n  jump\t// in\ntag_22:\n  swap1\n  0x00\n  mstore\n  keccak256(0x00, 0x20)\n  swap1\n  0x1f\n  add\n  0x20\n  swap1\n  div\n  dup2\n  add\n  swap3\n  dup3\n  tag_25\n  jumpi\n  0x00\n  dup6\n  sstore\n  jump(tag_24)\ntag_25:\n  dup3\n  0x1f\n  lt\n  tag_26\n  jumpi\n  dup1\n  mload\n  not(0xff)\n  and\n  dup4\n  dup1\n  add\n  or\n  dup6\n  sstore\n  jump(tag_24)\ntag_26:\n  dup3\n  dup1\n  add\n  0x01\n  add\n  dup6\n  sstore\n  dup3\n  iszero\n  tag_24\n  jumpi\n  swap2\n  dup3\n  add\ntag_27:\n  dup3\n  dup2\n  gt\n  iszero\n  tag_28\n  jumpi\n  dup3\n  mload\n  dup3\n  sstore\n  swap2\n  0x20\n  add\n  swap2\n  swap1\n  0x01\n  add\n  swap1\n  jump(tag_27)\ntag_28:\ntag_24:\n  pop\n  swap1\n  pop\n  tag_29\n  swap2\n  swap1\n  tag_30\n  jump\t// in\ntag_29:\n  pop\n  swap1\n  jump\t// out\ntag_16:\ntag_31:\n  dup1\n  dup3\n  gt\n  iszero\n  tag_32\n  jumpi\n  0x00\n  dup2\n  dup2\n  tag_33\n  swap2\n  swap1\n  tag_34\n  jump\t// in\ntag_33:\n  pop\n  0x01\n  add\n  jump(tag_31)\ntag_32:\n  pop\n  swap1\n  jump\t// out\ntag_30:\ntag_35:\n  dup1\n  dup3\n  gt\n  iszero\n  tag_36\n  jumpi\n  0x00\n  dup2\n  0x00\n  swap1\n  sstore\n  pop\n  0x01\n  add\n  jump(tag_35)\ntag_36:\n  pop\n  swap1\n  jump\t// out\ntag_34:\n  pop\n  dup1\n  sload\n  tag_37\n  swap1\n  tag_23\n  jump\t// in\ntag_37:\n  0x00\n  dup3\n  sstore\n  dup1\n  0x1f\n  lt\n  tag_39\n  jumpi\n  pop\n  jump(tag_38)\ntag_39:\n  0x1f\n  add\n  0x20\n  swap1\n  div\n  swap1\n  0x00\n  mstore\n  keccak256(0x00, 0x20)\n  swap1\n  dup2\n  add\n  swap1\n  tag_40\n  swap2\n  swap1\n  tag_30\n  jump\t// in\ntag_40:\ntag_38:\n  pop\n  jump\t// out\n    /* \"#utility.yul\":7:327   */\ntag_23:\n    /* \"#utility.yul\":51:57   */\n  0x00\n    /* \"#utility.yul\":88:89   */\n  0x02\n    /* \"#utility.yul\":82:86   */\n  dup3\n    /* \"#utility.yul\":78:90   */\n  div\n    /* \"#utility.yul\":68:90   */\n  swap1\n  pop\n    /* \"#utility.yul\":135:136   */\n  0x01\n    /* \"#utility.yul\":129:133   */\n  dup3\n    /* \"#utility.yul\":125:137   */\n  and\n    /* \"#utility.yul\":156:174   */\n  dup1\n    /* \"#utility.yul\":146:227   */\n  tag_43\n  jumpi\n    /* \"#utility.yul\":212:216   */\n  0x7f\n    /* \"#utility.yul\":204:210   */\n  dup3\n    /* \"#utility.yul\":200:217   */\n  and\n    /* \"#utility.yul\":190:217   */\n  swap2\n  pop\n    /* \"#utility.yul\":146:227   */\ntag_43:\n    /* \"#utility.yul\":274:276   */\n  0x20\n    /* \"#utility.yul\":266:272   */\n  dup3\n    /* \"#utility.yul\":263:277   */\n  lt\n    /* \"#utility.yul\":243:261   */\n  dup2\n    /* \"#utility.yul\":240:278   */\n  eq\n    /* \"#utility.yul\":237:321   */\n  iszero\n  tag_44\n  jumpi\n    /* \"#utility.yul\":293:311   */\n  tag_45\n  tag_46\n  jump\t// in\ntag_45:\n    /* \"#utility.yul\":237:321   */\ntag_44:\n    /* \"#utility.yul\":58:327   */\n  pop\n    /* \"#utility.yul\":7:327   */\n  swap2\n  swap1\n  pop\n  jump\t// out\n    /* \"#utility.yul\":333:513   */\ntag_7:\n    /* \"#utility.yul\":381:458   */\n  0x4e487b7100000000000000000000000000000000000000000000000000000000\n    /* \"#utility.yul\":378:379   */\n  0x00\n    /* \"#utility.yul\":371:459   */\n  mstore\n    /* \"#utility.yul\":478:482   */\n  0x21\n    /* \"#utility.yul\":475:476   */\n  0x04\n    /* \"#utility.yul\":468:483   */\n  mstore\n    /* \"#utility.yul\":502:506   */\n  0x24\n    /* \"#utility.yul\":499:500   */\n  0x00\n    /* \"#utility.yul\":492:507   */\n  revert\n    /* \"#utility.yul\":519:699   */\ntag_46:\n    /* \"#utility.yul\":567:644   */\n  0x4e487b7100000000000000000000000000000000000000000000000000000000\n    /* \"#utility.yul\":564:565   */\n  0x00\n    /* \"#utility.yul\":557:645   */\n  mstore\n    /* \"#utility.yul\":664:668   */\n  0x22\n    /* \"#utility.yul\":661:662   */\n  0x04\n    /* \"#utility.yul\":654:669   */\n  mstore\n    /* \"#utility.yul\":688:692   */\n  0x24\n    /* \"#utility.yul\":685:686   */\n  0x00\n    /* \"#utility.yul\":678:693   */\n  revert\n    /* \"training/contracts/Variables2.sol\":70:970  contract Variable{... */\ntag_9:\n  dataSize(sub_0)\n  dup1\n  dataOffset(sub_0)\n  0x00\n  codecopy\n  0x00\n  return\nstop\n\nsub_0: assembly {\n        /* \"training/contracts/Variables2.sol\":70:970  contract Variable{... */\n      mstore(0x40, 0x80)\n      callvalue\n      dup1\n      iszero\n      tag_1\n      jumpi\n      0x00\n      dup1\n      revert\n    tag_1:\n      pop\n      jumpi(tag_2, lt(calldatasize, 0x04))\n      shr(0xe0, calldataload(0x00))\n      dup1\n      0x4622ab03\n      eq\n      tag_3\n      jumpi\n      dup1\n      0x5f57697c\n      eq\n      tag_4\n      jumpi\n      dup1\n      0x8ad71beb\n      eq\n      tag_5\n      jumpi\n      dup1\n      0xa6a9d8dd\n      eq\n      tag_6\n      jumpi\n      dup1\n      0xf2badb22\n      eq\n      tag_7\n      jumpi\n    tag_2:\n      0x00\n      dup1\n      revert\n        /* \"training/contracts/Variables2.sol\":106:154  string[] public names=[\"miuul\", \"vahit\", \"enes\"] */\n    tag_3:\n      tag_8\n      0x04\n      dup1\n      calldatasize\n      sub\n      dup2\n      add\n      swap1\n      tag_9\n      swap2\n      swap1\n      tag_10\n      jump\t// in\n    tag_9:\n      tag_11\n      jump\t// in\n    tag_8:\n      mload(0x40)\n      tag_12\n      swap2\n      swap1\n      tag_13\n      jump\t// in\n    tag_12:\n      mload(0x40)\n      dup1\n      swap2\n      sub\n      swap1\n      return\n        /* \"training/contracts/Variables2.sol\":739:769  cities public c1=cities.Ankara */\n    tag_4:\n      tag_14\n      tag_15\n      jump\t// in\n    tag_14:\n      mload(0x40)\n      tag_16\n      swap2\n      swap1\n      tag_17\n      jump\t// in\n    tag_16:\n      mload(0x40)\n      dup1\n      swap2\n      sub\n      swap1\n      return\n        /* \"training/contracts/Variables2.sol\":945:964  Ogrenci public ogr1 */\n    tag_5:\n      tag_18\n      tag_19\n      jump\t// in\n    tag_18:\n      mload(0x40)\n      tag_20\n      swap4\n      swap3\n      swap2\n      swap1\n      tag_21\n      jump\t// in\n    tag_20:\n      mload(0x40)\n      dup1\n      swap2\n      sub\n      swap1\n      return\n        /* \"training/contracts/Variables2.sol\":412:450  mapping(uint8=>bool) public ogrenciler */\n    tag_6:\n      tag_22\n      0x04\n      dup1\n      calldatasize\n      sub\n      dup2\n      add\n      swap1\n      tag_23\n      swap2\n      swap1\n      tag_24\n      jump\t// in\n    tag_23:\n      tag_25\n      jump\t// in\n    tag_22:\n      mload(0x40)\n      tag_26\n      swap2\n      swap1\n      tag_27\n      jump\t// in\n    tag_26:\n      mload(0x40)\n      dup1\n      swap2\n      sub\n      swap1\n      return\n        /* \"training/contracts/Variables2.sol\":240:290  string[4] public names2=[\"miuul\", \"vahit\", \"enes\"] */\n    tag_7:\n      tag_28\n      0x04\n      dup1\n      calldatasize\n      sub\n      dup2\n      add\n      swap1\n      tag_29\n      swap2\n      swap1\n      tag_10\n      jump\t// in\n    tag_29:\n      tag_30\n      jump\t// in\n    tag_28:\n      mload(0x40)\n      tag_31\n      swap2\n      swap1\n      tag_13\n      jump\t// in\n    tag_31:\n      mload(0x40)\n      dup1\n      swap2\n      sub\n      swap1\n      return\n        /* \"training/contracts/Variables2.sol\":106:154  string[] public names=[\"miuul\", \"vahit\", \"enes\"] */\n    tag_11:\n      0x00\n      dup2\n      dup2\n      sload\n      dup2\n      lt\n      tag_32\n      jumpi\n      0x00\n      dup1\n      revert\n    tag_32:\n      swap1\n      0x00\n      mstore\n      keccak256(0x00, 0x20)\n      add\n      0x00\n      swap2\n      pop\n      swap1\n      pop\n      dup1\n      sload\n      tag_34\n      swap1\n      tag_35\n      jump\t// in\n    tag_34:\n      dup1\n      0x1f\n      add\n      0x20\n      dup1\n      swap2\n      div\n      mul\n      0x20\n      add\n      mload(0x40)\n      swap1\n      dup2\n      add\n      0x40\n      mstore\n      dup1\n      swap3\n      swap2\n      swap1\n      dup2\n      dup2\n      mstore\n      0x20\n      add\n      dup3\n      dup1\n      sload\n      tag_36\n      swap1\n      tag_35\n      jump\t// in\n    tag_36:\n      dup1\n      iszero\n      tag_37\n      jumpi\n      dup1\n      0x1f\n      lt\n      tag_38\n      jumpi\n      0x0100\n      dup1\n      dup4\n      sload\n      div\n      mul\n      dup4\n      mstore\n      swap2\n      0x20\n      add\n      swap2\n      jump(tag_37)\n    tag_38:\n      dup3\n      add\n      swap2\n      swap1\n      0x00\n      mstore\n      keccak256(0x00, 0x20)\n      swap1\n    tag_39:\n      dup2\n      sload\n      dup2\n      mstore\n      swap1\n      0x01\n      add\n      swap1\n      0x20\n      add\n      dup1\n      dup4\n      gt\n      tag_39\n      jumpi\n      dup3\n      swap1\n      sub\n      0x1f\n      and\n      dup3\n      add\n      swap2\n    tag_37:\n      pop\n      pop\n      pop\n      pop\n      pop\n      dup2\n      jump\t// out\n        /* \"training/contracts/Variables2.sol\":739:769  cities public c1=cities.Ankara */\n    tag_15:\n      0x06\n      0x00\n      swap1\n      sload\n      swap1\n      0x0100\n      exp\n      swap1\n      div\n      0xff\n      and\n      dup2\n      jump\t// out\n        /* \"training/contracts/Variables2.sol\":945:964  Ogrenci public ogr1 */\n    tag_19:\n      0x07\n      dup1\n      0x00\n      add\n      dup1\n      sload\n      tag_40\n      swap1\n      tag_35\n      jump\t// in\n    tag_40:\n      dup1\n      0x1f\n      add\n      0x20\n      dup1\n      swap2\n      div\n      mul\n      0x20\n      add\n      mload(0x40)\n      swap1\n      dup2\n      add\n      0x40\n      mstore\n      dup1\n      swap3\n      swap2\n      swap1\n      dup2\n      dup2\n      mstore\n      0x20\n      add\n      dup3\n      dup1\n      sload\n      tag_41\n      swap1\n      tag_35\n      jump\t// in\n    tag_41:\n      dup1\n      iszero\n      tag_42\n      jumpi\n      dup1\n      0x1f\n      lt\n      tag_43\n      jumpi\n      0x0100\n      dup1\n      dup4\n      sload\n      div\n      mul\n      dup4\n      mstore\n      swap2\n      0x20\n      add\n      swap2\n      jump(tag_42)\n    tag_43:\n      dup3\n      add\n      swap2\n      swap1\n      0x00\n      mstore\n      keccak256(0x00, 0x20)\n      swap1\n    tag_44:\n      dup2\n      sload\n      dup2\n      mstore\n      swap1\n      0x01\n      add\n      swap1\n      0x20\n      add\n      dup1\n      dup4\n      gt\n      tag_44\n      jumpi\n      dup3\n      swap1\n      sub\n      0x1f\n      and\n      dup3\n      add\n      swap2\n    tag_42:\n      pop\n      pop\n      pop\n      pop\n      pop\n      swap1\n      dup1\n      0x01\n      add\n      dup1\n      sload\n      tag_45\n      swap1\n      tag_35\n      jump\t// in\n    tag_45:\n      dup1\n      0x1f\n      add\n      0x20\n      dup1\n      swap2\n      div\n      mul\n      0x20\n      add\n      mload(0x40)\n      swap1\n      dup2\n      add\n      0x40\n      mstore\n      dup1\n      swap3\n      swap2\n      swap1\n      dup2\n      dup2\n      mstore\n      0x20\n      add\n      dup3\n      dup1\n      sload\n      tag_46\n      swap1\n      tag_35\n      jump\t// in\n    tag_46:\n      dup1\n      iszero\n      tag_47\n      jumpi\n      dup1\n      0x1f\n      lt\n      tag_48\n      jumpi\n      0x0100\n      dup1\n      dup4\n      sload\n      div\n      mul\n      dup4\n      mstore\n      swap2\n      0x20\n      add\n      swap2\n      jump(tag_47)\n    tag_48:\n      dup3\n      add\n      swap2\n      swap1\n      0x00\n      mstore\n      keccak256(0x00, 0x20)\n      swap1\n    tag_49:\n      dup2\n      sload\n      dup2\n      mstore\n      swap1\n      0x01\n      add\n      swap1\n      0x20\n      add\n      dup1\n      dup4\n      gt\n      tag_49\n      jumpi\n      dup3\n      swap1\n      sub\n      0x1f\n      and\n      dup3\n      add\n      swap2\n    tag_47:\n      pop\n      pop\n      pop\n      pop\n      pop\n      swap1\n      dup1\n      0x02\n      add\n      0x00\n      swap1\n      sload\n      swap1\n      0x0100\n      exp\n      swap1\n      div\n      0xff\n      and\n      swap1\n      pop\n      dup4\n      jump\t// out\n        /* \"training/contracts/Variables2.sol\":412:450  mapping(uint8=>bool) public ogrenciler */\n    tag_25:\n      mstore(0x20, 0x05)\n      dup1\n      0x00\n      mstore\n      keccak256(0x00, 0x40)\n      0x00\n      swap2\n      pop\n      sload\n      swap1\n      0x0100\n      exp\n      swap1\n      div\n      0xff\n      and\n      dup2\n      jump\t// out\n        /* \"training/contracts/Variables2.sol\":240:290  string[4] public names2=[\"miuul\", \"vahit\", \"enes\"] */\n    tag_30:\n      0x01\n      dup2\n      0x04\n      dup2\n      lt\n      tag_50\n      jumpi\n      0x00\n      dup1\n      revert\n    tag_50:\n      add\n      0x00\n      swap2\n      pop\n      swap1\n      pop\n      dup1\n      sload\n      tag_52\n      swap1\n      tag_35\n      jump\t// in\n    tag_52:\n      dup1\n      0x1f\n      add\n      0x20\n      dup1\n      swap2\n      div\n      mul\n      0x20\n      add\n      mload(0x40)\n      swap1\n      dup2\n      add\n      0x40\n      mstore\n      dup1\n      swap3\n      swap2\n      swap1\n      dup2\n      dup2\n      mstore\n      0x20\n      add\n      dup3\n      dup1\n      sload\n      tag_53\n      swap1\n      tag_35\n      jump\t// in\n    tag_53:\n      dup1\n      iszero\n      tag_54\n      jumpi\n      dup1\n      0x1f\n      lt\n      tag_55\n      jumpi\n      0x0100\n      dup1\n      dup4\n      sload\n      div\n      mul\n      dup4\n      mstore\n      swap2\n      0x20\n      add\n      swap2\n      jump(tag_54)\n    tag_55:\n      dup3\n      add\n      swap2\n      swap1\n      0x00\n      mstore\n      keccak256(0x00, 0x20)\n      swap1\n    tag_56:\n      dup2\n      sload\n      dup2\n      mstore\n      swap1\n      0x01\n      add\n      swap1\n      0x20\n      add\n      dup1\n      dup4\n      gt\n      tag_56\n      jumpi\n      dup3\n      swap1\n      sub\n      0x1f\n      and\n      dup3\n      add\n      swap2\n    tag_54:\n      pop\n      pop\n      pop\n      pop\n      pop\n      dup2\n      jump\t// out\n        /* \"#utility.yul\":7:146   */\n    tag_58:\n        /* \"#utility.yul\":53:58   */\n      0x00\n        /* \"#utility.yul\":91:97   */\n      dup2\n        /* \"#utility.yul\":78:98   */\n      calldataload\n        /* \"#utility.yul\":69:98   */\n      swap1\n      pop\n        /* \"#utility.yul\":107:140   */\n      tag_60\n        /* \"#utility.yul\":134:139   */\n      dup2\n        /* \"#utility.yul\":107:140   */\n      tag_61\n      jump\t// in\n    tag_60:\n        /* \"#utility.yul\":7:146   */\n      swap3\n      swap2\n      pop\n      pop\n      jump\t// out\n        /* \"#utility.yul\":152:287   */\n    tag_62:\n        /* \"#utility.yul\":196:201   */\n      0x00\n        /* \"#utility.yul\":234:240   */\n      dup2\n        /* \"#utility.yul\":221:241   */\n      calldataload\n        /* \"#utility.yul\":212:241   */\n      swap1\n      pop\n        /* \"#utility.yul\":250:281   */\n      tag_64\n        /* \"#utility.yul\":275:280   */\n      dup2\n        /* \"#utility.yul\":250:281   */\n      tag_65\n      jump\t// in\n    tag_64:\n        /* \"#utility.yul\":152:287   */\n      swap3\n      swap2\n      pop\n      pop\n      jump\t// out\n        /* \"#utility.yul\":293:622   */\n    tag_10:\n        /* \"#utility.yul\":352:358   */\n      0x00\n        /* \"#utility.yul\":401:403   */\n      0x20\n        /* \"#utility.yul\":389:398   */\n      dup3\n        /* \"#utility.yul\":380:387   */\n      dup5\n        /* \"#utility.yul\":376:399   */\n      sub\n        /* \"#utility.yul\":372:404   */\n      slt\n        /* \"#utility.yul\":369:488   */\n      iszero\n      tag_67\n      jumpi\n        /* \"#utility.yul\":407:486   */\n      tag_68\n      tag_69\n      jump\t// in\n    tag_68:\n        /* \"#utility.yul\":369:488   */\n    tag_67:\n        /* \"#utility.yul\":527:528   */\n      0x00\n        /* \"#utility.yul\":552:605   */\n      tag_70\n        /* \"#utility.yul\":597:604   */\n      dup5\n        /* \"#utility.yul\":588:594   */\n      dup3\n        /* \"#utility.yul\":577:586   */\n      dup6\n        /* \"#utility.yul\":573:595   */\n      add\n        /* \"#utility.yul\":552:605   */\n      tag_58\n      jump\t// in\n    tag_70:\n        /* \"#utility.yul\":542:605   */\n      swap2\n      pop\n        /* \"#utility.yul\":498:615   */\n      pop\n        /* \"#utility.yul\":293:622   */\n      swap3\n      swap2\n      pop\n      pop\n      jump\t// out\n        /* \"#utility.yul\":628:953   */\n    tag_24:\n        /* \"#utility.yul\":685:691   */\n      0x00\n        /* \"#utility.yul\":734:736   */\n      0x20\n        /* \"#utility.yul\":722:731   */\n      dup3\n        /* \"#utility.yul\":713:720   */\n      dup5\n        /* \"#utility.yul\":709:732   */\n      sub\n        /* \"#utility.yul\":705:737   */\n      slt\n        /* \"#utility.yul\":702:821   */\n      iszero\n      tag_72\n      jumpi\n        /* \"#utility.yul\":740:819   */\n      tag_73\n      tag_69\n      jump\t// in\n    tag_73:\n        /* \"#utility.yul\":702:821   */\n    tag_72:\n        /* \"#utility.yul\":860:861   */\n      0x00\n        /* \"#utility.yul\":885:936   */\n      tag_74\n        /* \"#utility.yul\":928:935   */\n      dup5\n        /* \"#utility.yul\":919:925   */\n      dup3\n        /* \"#utility.yul\":908:917   */\n      dup6\n        /* \"#utility.yul\":904:926   */\n      add\n        /* \"#utility.yul\":885:936   */\n      tag_62\n      jump\t// in\n    tag_74:\n        /* \"#utility.yul\":875:936   */\n      swap2\n      pop\n        /* \"#utility.yul\":831:946   */\n      pop\n        /* \"#utility.yul\":628:953   */\n      swap3\n      swap2\n      pop\n      pop\n      jump\t// out\n        /* \"#utility.yul\":959:1068   */\n    tag_75:\n        /* \"#utility.yul\":1040:1061   */\n      tag_77\n        /* \"#utility.yul\":1055:1060   */\n      dup2\n        /* \"#utility.yul\":1040:1061   */\n      tag_78\n      jump\t// in\n    tag_77:\n        /* \"#utility.yul\":1035:1038   */\n      dup3\n        /* \"#utility.yul\":1028:1062   */\n      mstore\n        /* \"#utility.yul\":959:1068   */\n      pop\n      pop\n      jump\t// out\n        /* \"#utility.yul\":1074:1219   */\n    tag_79:\n        /* \"#utility.yul\":1168:1212   */\n      tag_81\n        /* \"#utility.yul\":1206:1211   */\n      dup2\n        /* \"#utility.yul\":1168:1212   */\n      tag_82\n      jump\t// in\n    tag_81:\n        /* \"#utility.yul\":1163:1166   */\n      dup3\n        /* \"#utility.yul\":1156:1213   */\n      mstore\n        /* \"#utility.yul\":1074:1219   */\n      pop\n      pop\n      jump\t// out\n        /* \"#utility.yul\":1225:1589   */\n    tag_83:\n        /* \"#utility.yul\":1313:1316   */\n      0x00\n        /* \"#utility.yul\":1341:1380   */\n      tag_85\n        /* \"#utility.yul\":1374:1379   */\n      dup3\n        /* \"#utility.yul\":1341:1380   */\n      tag_86\n      jump\t// in\n    tag_85:\n        /* \"#utility.yul\":1396:1467   */\n      tag_87\n        /* \"#utility.yul\":1460:1466   */\n      dup2\n        /* \"#utility.yul\":1455:1458   */\n      dup6\n        /* \"#utility.yul\":1396:1467   */\n      tag_88\n      jump\t// in\n    tag_87:\n        /* \"#utility.yul\":1389:1467   */\n      swap4\n      pop\n        /* \"#utility.yul\":1476:1528   */\n      tag_89\n        /* \"#utility.yul\":1521:1527   */\n      dup2\n        /* \"#utility.yul\":1516:1519   */\n      dup6\n        /* \"#utility.yul\":1509:1513   */\n      0x20\n        /* \"#utility.yul\":1502:1507   */\n      dup7\n        /* \"#utility.yul\":1498:1514   */\n      add\n        /* \"#utility.yul\":1476:1528   */\n      tag_90\n      jump\t// in\n    tag_89:\n        /* \"#utility.yul\":1553:1582   */\n      tag_91\n        /* \"#utility.yul\":1575:1581   */\n      dup2\n        /* \"#utility.yul\":1553:1582   */\n      tag_92\n      jump\t// in\n    tag_91:\n        /* \"#utility.yul\":1548:1551   */\n      dup5\n        /* \"#utility.yul\":1544:1583   */\n      add\n        /* \"#utility.yul\":1537:1583   */\n      swap2\n      pop\n        /* \"#utility.yul\":1317:1589   */\n      pop\n        /* \"#utility.yul\":1225:1589   */\n      swap3\n      swap2\n      pop\n      pop\n      jump\t// out\n        /* \"#utility.yul\":1595:1707   */\n    tag_93:\n        /* \"#utility.yul\":1678:1700   */\n      tag_95\n        /* \"#utility.yul\":1694:1699   */\n      dup2\n        /* \"#utility.yul\":1678:1700   */\n      tag_96\n      jump\t// in\n    tag_95:\n        /* \"#utility.yul\":1673:1676   */\n      dup3\n        /* \"#utility.yul\":1666:1701   */\n      mstore\n        /* \"#utility.yul\":1595:1707   */\n      pop\n      pop\n      jump\t// out\n        /* \"#utility.yul\":1713:1923   */\n    tag_27:\n        /* \"#utility.yul\":1800:1804   */\n      0x00\n        /* \"#utility.yul\":1838:1840   */\n      0x20\n        /* \"#utility.yul\":1827:1836   */\n      dup3\n        /* \"#utility.yul\":1823:1841   */\n      add\n        /* \"#utility.yul\":1815:1841   */\n      swap1\n      pop\n        /* \"#utility.yul\":1851:1916   */\n      tag_98\n        /* \"#utility.yul\":1913:1914   */\n      0x00\n        /* \"#utility.yul\":1902:1911   */\n      dup4\n        /* \"#utility.yul\":1898:1915   */\n      add\n        /* \"#utility.yul\":1889:1895   */\n      dup5\n        /* \"#utility.yul\":1851:1916   */\n      tag_75\n      jump\t// in\n    tag_98:\n        /* \"#utility.yul\":1713:1923   */\n      swap3\n      swap2\n      pop\n      pop\n      jump\t// out\n        /* \"#utility.yul\":1929:2165   */\n    tag_17:\n        /* \"#utility.yul\":2029:2033   */\n      0x00\n        /* \"#utility.yul\":2067:2069   */\n      0x20\n        /* \"#utility.yul\":2056:2065   */\n      dup3\n        /* \"#utility.yul\":2052:2070   */\n      add\n        /* \"#utility.yul\":2044:2070   */\n      swap1\n      pop\n        /* \"#utility.yul\":2080:2158   */\n      tag_100\n        /* \"#utility.yul\":2155:2156   */\n      0x00\n        /* \"#utility.yul\":2144:2153   */\n      dup4\n        /* \"#utility.yul\":2140:2157   */\n      add\n        /* \"#utility.yul\":2131:2137   */\n      dup5\n        /* \"#utility.yul\":2080:2158   */\n      tag_79\n      jump\t// in\n    tag_100:\n        /* \"#utility.yul\":1929:2165   */\n      swap3\n      swap2\n      pop\n      pop\n      jump\t// out\n        /* \"#utility.yul\":2171:2484   */\n    tag_13:\n        /* \"#utility.yul\":2284:2288   */\n      0x00\n        /* \"#utility.yul\":2322:2324   */\n      0x20\n        /* \"#utility.yul\":2311:2320   */\n      dup3\n        /* \"#utility.yul\":2307:2325   */\n      add\n        /* \"#utility.yul\":2299:2325   */\n      swap1\n      pop\n        /* \"#utility.yul\":2371:2380   */\n      dup2\n        /* \"#utility.yul\":2365:2369   */\n      dup2\n        /* \"#utility.yul\":2361:2381   */\n      sub\n        /* \"#utility.yul\":2357:2358   */\n      0x00\n        /* \"#utility.yul\":2346:2355   */\n      dup4\n        /* \"#utility.yul\":2342:2359   */\n      add\n        /* \"#utility.yul\":2335:2382   */\n      mstore\n        /* \"#utility.yul\":2399:2477   */\n      tag_102\n        /* \"#utility.yul\":2472:2476   */\n      dup2\n        /* \"#utility.yul\":2463:2469   */\n      dup5\n        /* \"#utility.yul\":2399:2477   */\n      tag_83\n      jump\t// in\n    tag_102:\n        /* \"#utility.yul\":2391:2477   */\n      swap1\n      pop\n        /* \"#utility.yul\":2171:2484   */\n      swap3\n      swap2\n      pop\n      pop\n      jump\t// out\n        /* \"#utility.yul\":2490:3106   */\n    tag_21:\n        /* \"#utility.yul\":2675:2679   */\n      0x00\n        /* \"#utility.yul\":2713:2715   */\n      0x60\n        /* \"#utility.yul\":2702:2711   */\n      dup3\n        /* \"#utility.yul\":2698:2716   */\n      add\n        /* \"#utility.yul\":2690:2716   */\n      swap1\n      pop\n        /* \"#utility.yul\":2762:2771   */\n      dup2\n        /* \"#utility.yul\":2756:2760   */\n      dup2\n        /* \"#utility.yul\":2752:2772   */\n      sub\n        /* \"#utility.yul\":2748:2749   */\n      0x00\n        /* \"#utility.yul\":2737:2746   */\n      dup4\n        /* \"#utility.yul\":2733:2750   */\n      add\n        /* \"#utility.yul\":2726:2773   */\n      mstore\n        /* \"#utility.yul\":2790:2868   */\n      tag_104\n        /* \"#utility.yul\":2863:2867   */\n      dup2\n        /* \"#utility.yul\":2854:2860   */\n      dup7\n        /* \"#utility.yul\":2790:2868   */\n      tag_83\n      jump\t// in\n    tag_104:\n        /* \"#utility.yul\":2782:2868   */\n      swap1\n      pop\n        /* \"#utility.yul\":2915:2924   */\n      dup2\n        /* \"#utility.yul\":2909:2913   */\n      dup2\n        /* \"#utility.yul\":2905:2925   */\n      sub\n        /* \"#utility.yul\":2900:2902   */\n      0x20\n        /* \"#utility.yul\":2889:2898   */\n      dup4\n        /* \"#utility.yul\":2885:2903   */\n      add\n        /* \"#utility.yul\":2878:2926   */\n      mstore\n        /* \"#utility.yul\":2943:3021   */\n      tag_105\n        /* \"#utility.yul\":3016:3020   */\n      dup2\n        /* \"#utility.yul\":3007:3013   */\n      dup6\n        /* \"#utility.yul\":2943:3021   */\n      tag_83\n      jump\t// in\n    tag_105:\n        /* \"#utility.yul\":2935:3021   */\n      swap1\n      pop\n        /* \"#utility.yul\":3031:3099   */\n      tag_106\n        /* \"#utility.yul\":3095:3097   */\n      0x40\n        /* \"#utility.yul\":3084:3093   */\n      dup4\n        /* \"#utility.yul\":3080:3098   */\n      add\n        /* \"#utility.yul\":3071:3077   */\n      dup5\n        /* \"#utility.yul\":3031:3099   */\n      tag_93\n      jump\t// in\n    tag_106:\n        /* \"#utility.yul\":2490:3106   */\n      swap5\n      swap4\n      pop\n      pop\n      pop\n      pop\n      jump\t// out\n        /* \"#utility.yul\":3193:3292   */\n    tag_86:\n        /* \"#utility.yul\":3245:3251   */\n      0x00\n        /* \"#utility.yul\":3279:3284   */\n      dup2\n        /* \"#utility.yul\":3273:3285   */\n      mload\n        /* \"#utility.yul\":3263:3285   */\n      swap1\n      pop\n        /* \"#utility.yul\":3193:3292   */\n      swap2\n      swap1\n      pop\n      jump\t// out\n        /* \"#utility.yul\":3298:3467   */\n    tag_88:\n        /* \"#utility.yul\":3382:3393   */\n      0x00\n        /* \"#utility.yul\":3416:3422   */\n      dup3\n        /* \"#utility.yul\":3411:3414   */\n      dup3\n        /* \"#utility.yul\":3404:3423   */\n      mstore\n        /* \"#utility.yul\":3456:3460   */\n      0x20\n        /* \"#utility.yul\":3451:3454   */\n      dup3\n        /* \"#utility.yul\":3447:3461   */\n      add\n        /* \"#utility.yul\":3432:3461   */\n      swap1\n      pop\n        /* \"#utility.yul\":3298:3467   */\n      swap3\n      swap2\n      pop\n      pop\n      jump\t// out\n        /* \"#utility.yul\":3473:3563   */\n    tag_78:\n        /* \"#utility.yul\":3507:3514   */\n      0x00\n        /* \"#utility.yul\":3550:3555   */\n      dup2\n        /* \"#utility.yul\":3543:3556   */\n      iszero\n        /* \"#utility.yul\":3536:3557   */\n      iszero\n        /* \"#utility.yul\":3525:3557   */\n      swap1\n      pop\n        /* \"#utility.yul\":3473:3563   */\n      swap2\n      swap1\n      pop\n      jump\t// out\n        /* \"#utility.yul\":3569:3698   */\n    tag_112:\n        /* \"#utility.yul\":3615:3622   */\n      0x00\n        /* \"#utility.yul\":3644:3649   */\n      dup2\n        /* \"#utility.yul\":3633:3649   */\n      swap1\n      pop\n        /* \"#utility.yul\":3650:3692   */\n      tag_114\n        /* \"#utility.yul\":3686:3691   */\n      dup3\n        /* \"#utility.yul\":3650:3692   */\n      tag_115\n      jump\t// in\n    tag_114:\n        /* \"#utility.yul\":3569:3698   */\n      swap2\n      swap1\n      pop\n      jump\t// out\n        /* \"#utility.yul\":3704:3781   */\n    tag_116:\n        /* \"#utility.yul\":3741:3748   */\n      0x00\n        /* \"#utility.yul\":3770:3775   */\n      dup2\n        /* \"#utility.yul\":3759:3775   */\n      swap1\n      pop\n        /* \"#utility.yul\":3704:3781   */\n      swap2\n      swap1\n      pop\n      jump\t// out\n        /* \"#utility.yul\":3787:3873   */\n    tag_96:\n        /* \"#utility.yul\":3822:3829   */\n      0x00\n        /* \"#utility.yul\":3862:3866   */\n      0xff\n        /* \"#utility.yul\":3855:3860   */\n      dup3\n        /* \"#utility.yul\":3851:3867   */\n      and\n        /* \"#utility.yul\":3840:3867   */\n      swap1\n      pop\n        /* \"#utility.yul\":3787:3873   */\n      swap2\n      swap1\n      pop\n      jump\t// out\n        /* \"#utility.yul\":3879:4008   */\n    tag_82:\n        /* \"#utility.yul\":3936:3945   */\n      0x00\n        /* \"#utility.yul\":3969:4002   */\n      tag_120\n        /* \"#utility.yul\":3996:4001   */\n      dup3\n        /* \"#utility.yul\":3969:4002   */\n      tag_112\n      jump\t// in\n    tag_120:\n        /* \"#utility.yul\":3956:4002   */\n      swap1\n      pop\n        /* \"#utility.yul\":3879:4008   */\n      swap2\n      swap1\n      pop\n      jump\t// out\n        /* \"#utility.yul\":4014:4321   */\n    tag_90:\n        /* \"#utility.yul\":4082:4083   */\n      0x00\n        /* \"#utility.yul\":4092:4205   */\n    tag_122:\n        /* \"#utility.yul\":4106:4112   */\n      dup4\n        /* \"#utility.yul\":4103:4104   */\n      dup2\n        /* \"#utility.yul\":4100:4113   */\n      lt\n        /* \"#utility.yul\":4092:4205   */\n      iszero\n      tag_124\n      jumpi\n        /* \"#utility.yul\":4191:4192   */\n      dup1\n        /* \"#utility.yul\":4186:4189   */\n      dup3\n        /* \"#utility.yul\":4182:4193   */\n      add\n        /* \"#utility.yul\":4176:4194   */\n      mload\n        /* \"#utility.yul\":4172:4173   */\n      dup2\n        /* \"#utility.yul\":4167:4170   */\n      dup5\n        /* \"#utility.yul\":4163:4174   */\n      add\n        /* \"#utility.yul\":4156:4195   */\n      mstore\n        /* \"#utility.yul\":4128:4130   */\n      0x20\n        /* \"#utility.yul\":4125:4126   */\n      dup2\n        /* \"#utility.yul\":4121:4131   */\n      add\n        /* \"#utility.yul\":4116:4131   */\n      swap1\n      pop\n        /* \"#utility.yul\":4092:4205   */\n      jump(tag_122)\n    tag_124:\n        /* \"#utility.yul\":4223:4229   */\n      dup4\n        /* \"#utility.yul\":4220:4221   */\n      dup2\n        /* \"#utility.yul\":4217:4230   */\n      gt\n        /* \"#utility.yul\":4214:4315   */\n      iszero\n      tag_125\n      jumpi\n        /* \"#utility.yul\":4303:4304   */\n      0x00\n        /* \"#utility.yul\":4294:4300   */\n      dup5\n        /* \"#utility.yul\":4289:4292   */\n      dup5\n        /* \"#utility.yul\":4285:4301   */\n      add\n        /* \"#utility.yul\":4278:4305   */\n      mstore\n        /* \"#utility.yul\":4214:4315   */\n    tag_125:\n        /* \"#utility.yul\":4063:4321   */\n      pop\n        /* \"#utility.yul\":4014:4321   */\n      pop\n      pop\n      pop\n      jump\t// out\n        /* \"#utility.yul\":4327:4647   */\n    tag_35:\n        /* \"#utility.yul\":4371:4377   */\n      0x00\n        /* \"#utility.yul\":4408:4409   */\n      0x02\n        /* \"#utility.yul\":4402:4406   */\n      dup3\n        /* \"#utility.yul\":4398:4410   */\n      div\n        /* \"#utility.yul\":4388:4410   */\n      swap1\n      pop\n        /* \"#utility.yul\":4455:4456   */\n      0x01\n        /* \"#utility.yul\":4449:4453   */\n      dup3\n        /* \"#utility.yul\":4445:4457   */\n      and\n        /* \"#utility.yul\":4476:4494   */\n      dup1\n        /* \"#utility.yul\":4466:4547   */\n      tag_127\n      jumpi\n        /* \"#utility.yul\":4532:4536   */\n      0x7f\n        /* \"#utility.yul\":4524:4530   */\n      dup3\n        /* \"#utility.yul\":4520:4537   */\n      and\n        /* \"#utility.yul\":4510:4537   */\n      swap2\n      pop\n        /* \"#utility.yul\":4466:4547   */\n    tag_127:\n        /* \"#utility.yul\":4594:4596   */\n      0x20\n        /* \"#utility.yul\":4586:4592   */\n      dup3\n        /* \"#utility.yul\":4583:4597   */\n      lt\n        /* \"#utility.yul\":4563:4581   */\n      dup2\n        /* \"#utility.yul\":4560:4598   */\n      eq\n        /* \"#utility.yul\":4557:4641   */\n      iszero\n      tag_128\n      jumpi\n        /* \"#utility.yul\":4613:4631   */\n      tag_129\n      tag_130\n      jump\t// in\n    tag_129:\n        /* \"#utility.yul\":4557:4641   */\n    tag_128:\n        /* \"#utility.yul\":4378:4647   */\n      pop\n        /* \"#utility.yul\":4327:4647   */\n      swap2\n      swap1\n      pop\n      jump\t// out\n        /* \"#utility.yul\":4653:4833   */\n    tag_131:\n        /* \"#utility.yul\":4701:4778   */\n      0x4e487b7100000000000000000000000000000000000000000000000000000000\n        /* \"#utility.yul\":4698:4699   */\n      0x00\n        /* \"#utility.yul\":4691:4779   */\n      mstore\n        /* \"#utility.yul\":4798:4802   */\n      0x21\n        /* \"#utility.yul\":4795:4796   */\n      0x04\n        /* \"#utility.yul\":4788:4803   */\n      mstore\n        /* \"#utility.yul\":4822:4826   */\n      0x24\n        /* \"#utility.yul\":4819:4820   */\n      0x00\n        /* \"#utility.yul\":4812:4827   */\n      revert\n        /* \"#utility.yul\":4839:5019   */\n    tag_130:\n        /* \"#utility.yul\":4887:4964   */\n      0x4e487b7100000000000000000000000000000000000000000000000000000000\n        /* \"#utility.yul\":4884:4885   */\n      0x00\n        /* \"#utility.yul\":4877:4965   */\n      mstore\n        /* \"#utility.yul\":4984:4988   */\n      0x22\n        /* \"#utility.yul\":4981:4982   */\n      0x04\n        /* \"#utility.yul\":4974:4989   */\n      mstore\n        /* \"#utility.yul\":5008:5012   */\n      0x24\n        /* \"#utility.yul\":5005:5006   */\n      0x00\n        /* \"#utility.yul\":4998:5013   */\n      revert\n        /* \"#utility.yul\":5148:5265   */\n    tag_69:\n        /* \"#utility.yul\":5257:5258   */\n      0x00\n        /* \"#utility.yul\":5254:5255   */\n      dup1\n        /* \"#utility.yul\":5247:5259   */\n      revert\n        /* \"#utility.yul\":5271:5373   */\n    tag_92:\n        /* \"#utility.yul\":5312:5318   */\n      0x00\n        /* \"#utility.yul\":5363:5365   */\n      0x1f\n        /* \"#utility.yul\":5359:5366   */\n      not\n        /* \"#utility.yul\":5354:5356   */\n      0x1f\n        /* \"#utility.yul\":5347:5352   */\n      dup4\n        /* \"#utility.yul\":5343:5357   */\n      add\n        /* \"#utility.yul\":5339:5367   */\n      and\n        /* \"#utility.yul\":5329:5367   */\n      swap1\n      pop\n        /* \"#utility.yul\":5271:5373   */\n      swap2\n      swap1\n      pop\n      jump\t// out\n        /* \"#utility.yul\":5379:5493   */\n    tag_115:\n        /* \"#utility.yul\":5461:5462   */\n      0x03\n        /* \"#utility.yul\":5454:5459   */\n      dup2\n        /* \"#utility.yul\":5451:5463   */\n      lt\n        /* \"#utility.yul\":5441:5487   */\n      tag_139\n      jumpi\n        /* \"#utility.yul\":5467:5485   */\n      tag_140\n      tag_131\n      jump\t// in\n    tag_140:\n        /* \"#utility.yul\":5441:5487   */\n    tag_139:\n        /* \"#utility.yul\":5379:5493   */\n      pop\n      jump\t// out\n        /* \"#utility.yul\":5499:5621   */\n    tag_61:\n        /* \"#utility.yul\":5572:5596   */\n      tag_142\n        /* \"#utility.yul\":5590:5595   */\n      dup2\n        /* \"#utility.yul\":5572:5596   */\n      tag_116\n      jump\t// in\n    tag_142:\n        /* \"#utility.yul\":5565:5570   */\n      dup2\n        /* \"#utility.yul\":5562:5597   */\n      eq\n        /* \"#utility.yul\":5552:5615   */\n      tag_143\n      jumpi\n        /* \"#utility.yul\":5611:5612   */\n      0x00\n        /* \"#utility.yul\":5608:5609   */\n      dup1\n        /* \"#utility.yul\":5601:5613   */\n      revert\n        /* \"#utility.yul\":5552:5615   */\n    tag_143:\n        /* \"#utility.yul\":5499:5621   */\n      pop\n      jump\t// out\n        /* \"#utility.yul\":5627:5745   */\n    tag_65:\n        /* \"#utility.yul\":5698:5720   */\n      tag_145\n        /* \"#utility.yul\":5714:5719   */\n      dup2\n        /* \"#utility.yul\":5698:5720   */\n      tag_96\n      jump\t// in\n    tag_145:\n        /* \"#utility.yul\":5691:5696   */\n      dup2\n        /* \"#utility.yul\":5688:5721   */\n      eq\n        /* \"#utility.yul\":5678:5739   */\n      tag_146\n      jumpi\n        /* \"#utility.yul\":5735:5736   */\n      0x00\n        /* \"#utility.yul\":5732:5733   */\n      dup1\n        /* \"#utility.yul\":5725:5737   */\n      revert\n        /* \"#utility.yul\":5678:5739   */\n    tag_146:\n        /* \"#utility.yul\":5627:5745   */\n      pop\n      jump\t// out\n\n    auxdata: 0xa264697066735822122067702605db94bb90a55f732adea99de205cf9d95c12d2dd9b04099b99af7c8c764736f6c63430008070033\n}\n",
				"bytecode": {
					"linkReferences": {},
					"object": "608060405260405180606001604052806040518060400160405280600581526020017f6d6975756c00000000000000000000000000000000000000000000000000000081525081526020016040518060400160405280600581526020017f766168697400000000000000000000000000000000000000000000000000000081525081526020016040518060400160405280600481526020017f656e6573000000000000000000000000000000000000000000000000000000008152508152506000906003620000d0929190620001e0565b5060405180606001604052806040518060400160405280600581526020017f6d6975756c00000000000000000000000000000000000000000000000000000081525081526020016040518060400160405280600581526020017f766168697400000000000000000000000000000000000000000000000000000081525081526020016040518060400160405280600481526020017f656e65730000000000000000000000000000000000000000000000000000000081525081525060019060036200019d92919062000247565b506000600660006101000a81548160ff02191690836002811115620001c757620001c6620003f5565b5b0217905550348015620001d957600080fd5b5062000453565b82805482825590600052602060002090810192821562000234579160200282015b828111156200023357825182908051906020019062000222929190620002a1565b509160200191906001019062000201565b5b50905062000243919062000332565b5090565b82600481019282156200028e579160200282015b828111156200028d5782518290805190602001906200027c929190620002a1565b50916020019190600101906200025b565b5b5090506200029d919062000332565b5090565b828054620002af90620003bf565b90600052602060002090601f016020900481019282620002d357600085556200031f565b82601f10620002ee57805160ff19168380011785556200031f565b828001600101855582156200031f579182015b828111156200031e57825182559160200191906001019062000301565b5b5090506200032e91906200035a565b5090565b5b808211156200035657600081816200034c919062000379565b5060010162000333565b5090565b5b80821115620003755760008160009055506001016200035b565b5090565b5080546200038790620003bf565b6000825580601f106200039b5750620003bc565b601f016020900490600052602060002090810190620003bb91906200035a565b5b50565b60006002820490506001821680620003d857607f821691505b60208210811415620003ef57620003ee62000424565b5b50919050565b7f4e487b7100000000000000000000000000000000000000000000000000000000600052602160045260246000fd5b7f4e487b7100000000000000000000000000000000000000000000000000000000600052602260045260246000fd5b61071d80620004636000396000f3fe608060405234801561001057600080fd5b50600436106100575760003560e01c80634622ab031461005c5780635f57697c1461008c5780638ad71beb146100aa578063a6a9d8dd146100ca578063f2badb22146100fa575b600080fd5b6100766004803603810190610071919061040b565b61012a565b6040516100839190610501565b60405180910390f35b6100946101d6565b6040516100a191906104e6565b60405180910390f35b6100b26101e9565b6040516100c193929190610523565b60405180910390f35b6100e460048036038101906100df9190610438565b61031e565b6040516100f191906104cb565b60405180910390f35b610114600480360381019061010f919061040b565b61033e565b6040516101219190610501565b60405180910390f35b6000818154811061013a57600080fd5b906000526020600020016000915090508054610155906105ff565b80601f0160208091040260200160405190810160405280929190818152602001828054610181906105ff565b80156101ce5780601f106101a3576101008083540402835291602001916101ce565b820191906000526020600020905b8154815290600101906020018083116101b157829003601f168201915b505050505081565b600660009054906101000a900460ff1681565b60078060000180546101fa906105ff565b80601f0160208091040260200160405190810160405280929190818152602001828054610226906105ff565b80156102735780601f1061024857610100808354040283529160200191610273565b820191906000526020600020905b81548152906001019060200180831161025657829003601f168201915b505050505090806001018054610288906105ff565b80601f01602080910402602001604051908101604052809291908181526020018280546102b4906105ff565b80156103015780601f106102d657610100808354040283529160200191610301565b820191906000526020600020905b8154815290600101906020018083116102e457829003601f168201915b5050505050908060020160009054906101000a900460ff16905083565b60056020528060005260406000206000915054906101000a900460ff1681565b6001816004811061034e57600080fd5b016000915090508054610360906105ff565b80601f016020809104026020016040519081016040528092919081815260200182805461038c906105ff565b80156103d95780601f106103ae576101008083540402835291602001916103d9565b820191906000526020600020905b8154815290600101906020018083116103bc57829003601f168201915b505050505081565b6000813590506103f0816106b9565b92915050565b600081359050610405816106d0565b92915050565b6000602082840312156104215761042061068f565b5b600061042f848285016103e1565b91505092915050565b60006020828403121561044e5761044d61068f565b5b600061045c848285016103f6565b91505092915050565b61046e81610584565b82525050565b61047d816105ba565b82525050565b600061048e82610568565b6104988185610573565b93506104a88185602086016105cc565b6104b181610694565b840191505092915050565b6104c5816105ad565b82525050565b60006020820190506104e06000830184610465565b92915050565b60006020820190506104fb6000830184610474565b92915050565b6000602082019050818103600083015261051b8184610483565b905092915050565b6000606082019050818103600083015261053d8186610483565b905081810360208301526105518185610483565b905061056060408301846104bc565b949350505050565b600081519050919050565b600082825260208201905092915050565b60008115159050919050565b600081905061059e826106a5565b919050565b6000819050919050565b600060ff82169050919050565b60006105c582610590565b9050919050565b60005b838110156105ea5780820151818401526020810190506105cf565b838111156105f9576000848401525b50505050565b6000600282049050600182168061061757607f821691505b6020821081141561062b5761062a610660565b5b50919050565b7f4e487b7100000000000000000000000000000000000000000000000000000000600052602160045260246000fd5b7f4e487b7100000000000000000000000000000000000000000000000000000000600052602260045260246000fd5b600080fd5b6000601f19601f8301169050919050565b600381106106b6576106b5610631565b5b50565b6106c2816105a3565b81146106cd57600080fd5b50565b6106d9816105ad565b81146106e457600080fd5b5056fea264697066735822122067702605db94bb90a55f732adea99de205cf9d95c12d2dd9b04099b99af7c8c764736f6c63430008070033",
					"opcodes": "PUSH1 0x80 PUSH1 0x40 MSTORE PUSH1 0x40 MLOAD DUP1 PUSH1 0x60 ADD PUSH1 0x40 MSTORE DUP1 PUSH1 0x40 MLOAD DUP1 PUSH1 0x40 ADD PUSH1 0x40 MSTORE DUP1 PUSH1 0x5 DUP2 MSTORE PUSH1 0x20 ADD PUSH32 0x6D6975756C000000000000000000000000000000000000000000000000000000 DUP2 MSTORE POP DUP2 MSTORE PUSH1 0x20 ADD PUSH1 0x40 MLOAD DUP1 PUSH1 0x40 ADD PUSH1 0x40 MSTORE DUP1 PUSH1 0x5 DUP2 MSTORE PUSH1 0x20 ADD PUSH32 0x7661686974000000000000000000000000000000000000000000000000000000 DUP2 MSTORE POP DUP2 MSTORE PUSH1 0x20 ADD PUSH1 0x40 MLOAD DUP1 PUSH1 0x40 ADD PUSH1 0x40 MSTORE DUP1 PUSH1 0x4 DUP2 MSTORE PUSH1 0x20 ADD PUSH32 0x656E657300000000000000000000000000000000000000000000000000000000 DUP2 MSTORE POP DUP2 MSTORE POP PUSH1 0x0 SWAP1 PUSH1 0x3 PUSH3 0xD0 SWAP3 SWAP2 SWAP1 PUSH3 0x1E0 JUMP JUMPDEST POP PUSH1 0x40 MLOAD DUP1 PUSH1 0x60 ADD PUSH1 0x40 MSTORE DUP1 PUSH1 0x40 MLOAD DUP1 PUSH1 0x40 ADD PUSH1 0x40 MSTORE DUP1 PUSH1 0x5 DUP2 MSTORE PUSH1 0x20 ADD PUSH32 0x6D6975756C000000000000000000000000000000000000000000000000000000 DUP2 MSTORE POP DUP2 MSTORE PUSH1 0x20 ADD PUSH1 0x40 MLOAD DUP1 PUSH1 0x40 ADD PUSH1 0x40 MSTORE DUP1 PUSH1 0x5 DUP2 MSTORE PUSH1 0x20 ADD PUSH32 0x7661686974000000000000000000000000000000000000000000000000000000 DUP2 MSTORE POP DUP2 MSTORE PUSH1 0x20 ADD PUSH1 0x40 MLOAD DUP1 PUSH1 0x40 ADD PUSH1 0x40 MSTORE DUP1 PUSH1 0x4 DUP2 MSTORE PUSH1 0x20 ADD PUSH32 0x656E657300000000000000000000000000000000000000000000000000000000 DUP2 MSTORE POP DUP2 MSTORE POP PUSH1 0x1 SWAP1 PUSH1 0x3 PUSH3 0x19D SWAP3 SWAP2 SWAP1 PUSH3 0x247 JUMP JUMPDEST POP PUSH1 0x0 PUSH1 0x6 PUSH1 0x0 PUSH2 0x100 EXP DUP2 SLOAD DUP2 PUSH1 0xFF MUL NOT AND SWAP1 DUP4 PUSH1 0x2 DUP2 GT ISZERO PUSH3 0x1C7 JUMPI PUSH3 0x1C6 PUSH3 0x3F5 JUMP JUMPDEST JUMPDEST MUL OR SWAP1 SSTORE POP CALLVALUE DUP1 ISZERO PUSH3 0x1D9 JUMPI PUSH1 0x0 DUP1 REVERT JUMPDEST POP PUSH3 0x453 JUMP JUMPDEST DUP3 DUP1 SLOAD DUP3 DUP3 SSTORE SWAP1 PUSH1 0x0 MSTORE PUSH1 0x20 PUSH1 0x0 KECCAK256 SWAP1 DUP2 ADD SWAP3 DUP3 ISZERO PUSH3 0x234 JUMPI SWAP2 PUSH1 0x20 MUL DUP3 ADD JUMPDEST DUP3 DUP2 GT ISZERO PUSH3 0x233 JUMPI DUP3 MLOAD DUP3 SWAP1 DUP1 MLOAD SWAP1 PUSH1 0x20 ADD SWAP1 PUSH3 0x222 SWAP3 SWAP2 SWAP1 PUSH3 0x2A1 JUMP JUMPDEST POP SWAP2 PUSH1 0x20 ADD SWAP2 SWAP1 PUSH1 0x1 ADD SWAP1 PUSH3 0x201 JUMP JUMPDEST JUMPDEST POP SWAP1 POP PUSH3 0x243 SWAP2 SWAP1 PUSH3 0x332 JUMP JUMPDEST POP SWAP1 JUMP JUMPDEST DUP3 PUSH1 0x4 DUP2 ADD SWAP3 DUP3 ISZERO PUSH3 0x28E JUMPI SWAP2 PUSH1 0x20 MUL DUP3 ADD JUMPDEST DUP3 DUP2 GT ISZERO PUSH3 0x28D JUMPI DUP3 MLOAD DUP3 SWAP1 DUP1 MLOAD SWAP1 PUSH1 0x20 ADD SWAP1 PUSH3 0x27C SWAP3 SWAP2 SWAP1 PUSH3 0x2A1 JUMP JUMPDEST POP SWAP2 PUSH1 0x20 ADD SWAP2 SWAP1 PUSH1 0x1 ADD SWAP1 PUSH3 0x25B JUMP JUMPDEST JUMPDEST POP SWAP1 POP PUSH3 0x29D SWAP2 SWAP1 PUSH3 0x332 JUMP JUMPDEST POP SWAP1 JUMP JUMPDEST DUP3 DUP1 SLOAD PUSH3 0x2AF SWAP1 PUSH3 0x3BF JUMP JUMPDEST SWAP1 PUSH1 0x0 MSTORE PUSH1 0x20 PUSH1 0x0 KECCAK256 SWAP1 PUSH1 0x1F ADD PUSH1 0x20 SWAP1 DIV DUP2 ADD SWAP3 DUP3 PUSH3 0x2D3 JUMPI PUSH1 0x0 DUP6 SSTORE PUSH3 0x31F JUMP JUMPDEST DUP3 PUSH1 0x1F LT PUSH3 0x2EE JUMPI DUP1 MLOAD PUSH1 0xFF NOT AND DUP4 DUP1 ADD OR DUP6 SSTORE PUSH3 0x31F JUMP JUMPDEST DUP3 DUP1 ADD PUSH1 0x1 ADD DUP6 SSTORE DUP3 ISZERO PUSH3 0x31F JUMPI SWAP2 DUP3 ADD JUMPDEST DUP3 DUP2 GT ISZERO PUSH3 0x31E JUMPI DUP3 MLOAD DUP3 SSTORE SWAP2 PUSH1 0x20 ADD SWAP2 SWAP1 PUSH1 0x1 ADD SWAP1 PUSH3 0x301 JUMP JUMPDEST JUMPDEST POP SWAP1 POP PUSH3 0x32E SWAP2 SWAP1 PUSH3 0x35A JUMP JUMPDEST POP SWAP1 JUMP JUMPDEST JUMPDEST DUP1 DUP3 GT ISZERO PUSH3 0x356 JUMPI PUSH1 0x0 DUP2 DUP2 PUSH3 0x34C SWAP2 SWAP1 PUSH3 0x379 JUMP JUMPDEST POP PUSH1 0x1 ADD PUSH3 0x333 JUMP JUMPDEST POP SWAP1 JUMP JUMPDEST JUMPDEST DUP1 DUP3 GT ISZERO PUSH3 0x375 JUMPI PUSH1 0x0 DUP2 PUSH1 0x0 SWAP1 SSTORE POP PUSH1 0x1 ADD PUSH3 0x35B JUMP JUMPDEST POP SWAP1 JUMP JUMPDEST POP DUP1 SLOAD PUSH3 0x387 SWAP1 PUSH3 0x3BF JUMP JUMPDEST PUSH1 0x0 DUP3 SSTORE DUP1 PUSH1 0x1F LT PUSH3 0x39B JUMPI POP PUSH3 0x3BC JUMP JUMPDEST PUSH1 0x1F ADD PUSH1 0x20 SWAP1 DIV SWAP1 PUSH1 0x0 MSTORE PUSH1 0x20 PUSH1 0x0 KECCAK256 SWAP1 DUP2 ADD SWAP1 PUSH3 0x3BB SWAP2 SWAP1 PUSH3 0x35A JUMP JUMPDEST JUMPDEST POP JUMP JUMPDEST PUSH1 0x0 PUSH1 0x2 DUP3 DIV SWAP1 POP PUSH1 0x1 DUP3 AND DUP1 PUSH3 0x3D8 JUMPI PUSH1 0x7F DUP3 AND SWAP2 POP JUMPDEST PUSH1 0x20 DUP3 LT DUP2 EQ ISZERO PUSH3 0x3EF JUMPI PUSH3 0x3EE PUSH3 0x424 JUMP JUMPDEST JUMPDEST POP SWAP2 SWAP1 POP JUMP JUMPDEST PUSH32 0x4E487B7100000000000000000000000000000000000000000000000000000000 PUSH1 0x0 MSTORE PUSH1 0x21 PUSH1 0x4 MSTORE PUSH1 0x24 PUSH1 0x0 REVERT JUMPDEST PUSH32 0x4E487B7100000000000000000000000000000000000000000000000000000000 PUSH1 0x0 MSTORE PUSH1 0x22 PUSH1 0x4 MSTORE PUSH1 0x24 PUSH1 0x0 REVERT JUMPDEST PUSH2 0x71D DUP1 PUSH3 0x463 PUSH1 0x0 CODECOPY PUSH1 0x0 RETURN INVALID PUSH1 0x80 PUSH1 0x40 MSTORE CALLVALUE DUP1 ISZERO PUSH2 0x10 JUMPI PUSH1 0x0 DUP1 REVERT JUMPDEST POP PUSH1 0x4 CALLDATASIZE LT PUSH2 0x57 JUMPI PUSH1 0x0 CALLDATALOAD PUSH1 0xE0 SHR DUP1 PUSH4 0x4622AB03 EQ PUSH2 0x5C JUMPI DUP1 PUSH4 0x5F57697C EQ PUSH2 0x8C JUMPI DUP1 PUSH4 0x8AD71BEB EQ PUSH2 0xAA JUMPI DUP1 PUSH4 0xA6A9D8DD EQ PUSH2 0xCA JUMPI DUP1 PUSH4 0xF2BADB22 EQ PUSH2 0xFA JUMPI JUMPDEST PUSH1 0x0 DUP1 REVERT JUMPDEST PUSH2 0x76 PUSH1 0x4 DUP1 CALLDATASIZE SUB DUP2 ADD SWAP1 PUSH2 0x71 SWAP2 SWAP1 PUSH2 0x40B JUMP JUMPDEST PUSH2 0x12A JUMP JUMPDEST PUSH1 0x40 MLOAD PUSH2 0x83 SWAP2 SWAP1 PUSH2 0x501 JUMP JUMPDEST PUSH1 0x40 MLOAD DUP1 SWAP2 SUB SWAP1 RETURN JUMPDEST PUSH2 0x94 PUSH2 0x1D6 JUMP JUMPDEST PUSH1 0x40 MLOAD PUSH2 0xA1 SWAP2 SWAP1 PUSH2 0x4E6 JUMP JUMPDEST PUSH1 0x40 MLOAD DUP1 SWAP2 SUB SWAP1 RETURN JUMPDEST PUSH2 0xB2 PUSH2 0x1E9 JUMP JUMPDEST PUSH1 0x40 MLOAD PUSH2 0xC1 SWAP4 SWAP3 SWAP2 SWAP1 PUSH2 0x523 JUMP JUMPDEST PUSH1 0x40 MLOAD DUP1 SWAP2 SUB SWAP1 RETURN JUMPDEST PUSH2 0xE4 PUSH1 0x4 DUP1 CALLDATASIZE SUB DUP2 ADD SWAP1 PUSH2 0xDF SWAP2 SWAP1 PUSH2 0x438 JUMP JUMPDEST PUSH2 0x31E JUMP JUMPDEST PUSH1 0x40 MLOAD PUSH2 0xF1 SWAP2 SWAP1 PUSH2 0x4CB JUMP JUMPDEST PUSH1 0x40 MLOAD DUP1 SWAP2 SUB SWAP1 RETURN JUMPDEST PUSH2 0x114 PUSH1 0x4 DUP1 CALLDATASIZE SUB DUP2 ADD SWAP1 PUSH2 0x10F SWAP2 SWAP1 PUSH2 0x40B JUMP JUMPDEST PUSH2 0x33E JUMP JUMPDEST PUSH1 0x40 MLOAD PUSH2 0x121 SWAP2 SWAP1 PUSH2 0x501 JUMP JUMPDEST PUSH1 0x40 MLOAD DUP1 SWAP2 SUB SWAP1 RETURN JUMPDEST PUSH1 0x0 DUP2 DUP2 SLOAD DUP2 LT PUSH2 0x13A JUMPI PUSH1 0x0 DUP1 REVERT JUMPDEST SWAP1 PUSH1 0x0 MSTORE PUSH1 0x20 PUSH1 0x0 KECCAK256 ADD PUSH1 0x0 SWAP2 POP SWAP1 POP DUP1 SLOAD PUSH2 0x155 SWAP1 PUSH2 0x5FF JUMP JUMPDEST DUP1 PUSH1 0x1F ADD PUSH1 0x20 DUP1 SWAP2 DIV MUL PUSH1 0x20 ADD PUSH1 0x40 MLOAD SWAP1 DUP2 ADD PUSH1 0x40 MSTORE DUP1 SWAP3 SWAP2 SWAP1 DUP2 DUP2 MSTORE PUSH1 0x20 ADD DUP3 DUP1 SLOAD PUSH2 0x181 SWAP1 PUSH2 0x5FF JUMP JUMPDEST DUP1 ISZERO PUSH2 0x1CE JUMPI DUP1 PUSH1 0x1F LT PUSH2 0x1A3 JUMPI PUSH2 0x100 DUP1 DUP4 SLOAD DIV MUL DUP4 MSTORE SWAP2 PUSH1 0x20 ADD SWAP2 PUSH2 0x1CE JUMP JUMPDEST DUP3 ADD SWAP2 SWAP1 PUSH1 0x0 MSTORE PUSH1 0x20 PUSH1 0x0 KECCAK256 SWAP1 JUMPDEST DUP2 SLOAD DUP2 MSTORE SWAP1 PUSH1 0x1 ADD SWAP1 PUSH1 0x20 ADD DUP1 DUP4 GT PUSH2 0x1B1 JUMPI DUP3 SWAP1 SUB PUSH1 0x1F AND DUP3 ADD SWAP2 JUMPDEST POP POP POP POP POP DUP2 JUMP JUMPDEST PUSH1 0x6 PUSH1 0x0 SWAP1 SLOAD SWAP1 PUSH2 0x100 EXP SWAP1 DIV PUSH1 0xFF AND DUP2 JUMP JUMPDEST PUSH1 0x7 DUP1 PUSH1 0x0 ADD DUP1 SLOAD PUSH2 0x1FA SWAP1 PUSH2 0x5FF JUMP JUMPDEST DUP1 PUSH1 0x1F ADD PUSH1 0x20 DUP1 SWAP2 DIV MUL PUSH1 0x20 ADD PUSH1 0x40 MLOAD SWAP1 DUP2 ADD PUSH1 0x40 MSTORE DUP1 SWAP3 SWAP2 SWAP1 DUP2 DUP2 MSTORE PUSH1 0x20 ADD DUP3 DUP1 SLOAD PUSH2 0x226 SWAP1 PUSH2 0x5FF JUMP JUMPDEST DUP1 ISZERO PUSH2 0x273 JUMPI DUP1 PUSH1 0x1F LT PUSH2 0x248 JUMPI PUSH2 0x100 DUP1 DUP4 SLOAD DIV MUL DUP4 MSTORE SWAP2 PUSH1 0x20 ADD SWAP2 PUSH2 0x273 JUMP JUMPDEST DUP3 ADD SWAP2 SWAP1 PUSH1 0x0 MSTORE PUSH1 0x20 PUSH1 0x0 KECCAK256 SWAP1 JUMPDEST DUP2 SLOAD DUP2 MSTORE SWAP1 PUSH1 0x1 ADD SWAP1 PUSH1 0x20 ADD DUP1 DUP4 GT PUSH2 0x256 JUMPI DUP3 SWAP1 SUB PUSH1 0x1F AND DUP3 ADD SWAP2 JUMPDEST POP POP POP POP POP SWAP1 DUP1 PUSH1 0x1 ADD DUP1 SLOAD PUSH2 0x288 SWAP1 PUSH2 0x5FF JUMP JUMPDEST DUP1 PUSH1 0x1F ADD PUSH1 0x20 DUP1 SWAP2 DIV MUL PUSH1 0x20 ADD PUSH1 0x40 MLOAD SWAP1 DUP2 ADD PUSH1 0x40 MSTORE DUP1 SWAP3 SWAP2 SWAP1 DUP2 DUP2 MSTORE PUSH1 0x20 ADD DUP3 DUP1 SLOAD PUSH2 0x2B4 SWAP1 PUSH2 0x5FF JUMP JUMPDEST DUP1 ISZERO PUSH2 0x301 JUMPI DUP1 PUSH1 0x1F LT PUSH2 0x2D6 JUMPI PUSH2 0x100 DUP1 DUP4 SLOAD DIV MUL DUP4 MSTORE SWAP2 PUSH1 0x20 ADD SWAP2 PUSH2 0x301 JUMP JUMPDEST DUP3 ADD SWAP2 SWAP1 PUSH1 0x0 MSTORE PUSH1 0x20 PUSH1 0x0 KECCAK256 SWAP1 JUMPDEST DUP2 SLOAD DUP2 MSTORE SWAP1 PUSH1 0x1 ADD SWAP1 PUSH1 0x20 ADD DUP1 DUP4 GT PUSH2 0x2E4 JUMPI DUP3 SWAP1 SUB PUSH1 0x1F AND DUP3 ADD SWAP2 JUMPDEST POP POP POP POP POP SWAP1 DUP1 PUSH1 0x2 ADD PUSH1 0x0 SWAP1 SLOAD SWAP1 PUSH2 0x100 EXP SWAP1 DIV PUSH1 0xFF AND SWAP1 POP DUP4 JUMP JUMPDEST PUSH1 0x5 PUSH1 0x20 MSTORE DUP1 PUSH1 0x0 MSTORE PUSH1 0x40 PUSH1 0x0 KECCAK256 PUSH1 0x0 SWAP2 POP SLOAD SWAP1 PUSH2 0x100 EXP SWAP1 DIV PUSH1 0xFF AND DUP2 JUMP JUMPDEST PUSH1 0x1 DUP2 PUSH1 0x4 DUP2 LT PUSH2 0x34E JUMPI PUSH1 0x0 DUP1 REVERT JUMPDEST ADD PUSH1 0x0 SWAP2 POP SWAP1 POP DUP1 SLOAD PUSH2 0x360 SWAP1 PUSH2 0x5FF JUMP JUMPDEST DUP1 PUSH1 0x1F ADD PUSH1 0x20 DUP1 SWAP2 DIV MUL PUSH1 0x20 ADD PUSH1 0x40 MLOAD SWAP1 DUP2 ADD PUSH1 0x40 MSTORE DUP1 SWAP3 SWAP2 SWAP1 DUP2 DUP2 MSTORE PUSH1 0x20 ADD DUP3 DUP1 SLOAD PUSH2 0x38C SWAP1 PUSH2 0x5FF JUMP JUMPDEST DUP1 ISZERO PUSH2 0x3D9 JUMPI DUP1 PUSH1 0x1F LT PUSH2 0x3AE JUMPI PUSH2 0x100 DUP1 DUP4 SLOAD DIV MUL DUP4 MSTORE SWAP2 PUSH1 0x20 ADD SWAP2 PUSH2 0x3D9 JUMP JUMPDEST DUP3 ADD SWAP2 SWAP1 PUSH1 0x0 MSTORE PUSH1 0x20 PUSH1 0x0 KECCAK256 SWAP1 JUMPDEST DUP2 SLOAD DUP2 MSTORE SWAP1 PUSH1 0x1 ADD SWAP1 PUSH1 0x20 ADD DUP1 DUP4 GT PUSH2 0x3BC JUMPI DUP3 SWAP1 SUB PUSH1 0x1F AND DUP3 ADD SWAP2 JUMPDEST POP POP POP POP POP DUP2 JUMP JUMPDEST PUSH1 0x0 DUP2 CALLDATALOAD SWAP1 POP PUSH2 0x3F0 DUP2 PUSH2 0x6B9 JUMP JUMPDEST SWAP3 SWAP2 POP POP JUMP JUMPDEST PUSH1 0x0 DUP2 CALLDATALOAD SWAP1 POP PUSH2 0x405 DUP2 PUSH2 0x6D0 JUMP JUMPDEST SWAP3 SWAP2 POP POP JUMP JUMPDEST PUSH1 0x0 PUSH1 0x20 DUP3 DUP5 SUB SLT ISZERO PUSH2 0x421 JUMPI PUSH2 0x420 PUSH2 0x68F JUMP JUMPDEST JUMPDEST PUSH1 0x0 PUSH2 0x42F DUP5 DUP3 DUP6 ADD PUSH2 0x3E1 JUMP JUMPDEST SWAP2 POP POP SWAP3 SWAP2 POP POP JUMP JUMPDEST PUSH1 0x0 PUSH1 0x20 DUP3 DUP5 SUB SLT ISZERO PUSH2 0x44E JUMPI PUSH2 0x44D PUSH2 0x68F JUMP JUMPDEST JUMPDEST PUSH1 0x0 PUSH2 0x45C DUP5 DUP3 DUP6 ADD PUSH2 0x3F6 JUMP JUMPDEST SWAP2 POP POP SWAP3 SWAP2 POP POP JUMP JUMPDEST PUSH2 0x46E DUP2 PUSH2 0x584 JUMP JUMPDEST DUP3 MSTORE POP POP JUMP JUMPDEST PUSH2 0x47D DUP2 PUSH2 0x5BA JUMP JUMPDEST DUP3 MSTORE POP POP JUMP JUMPDEST PUSH1 0x0 PUSH2 0x48E DUP3 PUSH2 0x568 JUMP JUMPDEST PUSH2 0x498 DUP2 DUP6 PUSH2 0x573 JUMP JUMPDEST SWAP4 POP PUSH2 0x4A8 DUP2 DUP6 PUSH1 0x20 DUP7 ADD PUSH2 0x5CC JUMP JUMPDEST PUSH2 0x4B1 DUP2 PUSH2 0x694 JUMP JUMPDEST DUP5 ADD SWAP2 POP POP SWAP3 SWAP2 POP POP JUMP JUMPDEST PUSH2 0x4C5 DUP2 PUSH2 0x5AD JUMP JUMPDEST DUP3 MSTORE POP POP JUMP JUMPDEST PUSH1 0x0 PUSH1 0x20 DUP3 ADD SWAP1 POP PUSH2 0x4E0 PUSH1 0x0 DUP4 ADD DUP5 PUSH2 0x465 JUMP JUMPDEST SWAP3 SWAP2 POP POP JUMP JUMPDEST PUSH1 0x0 PUSH1 0x20 DUP3 ADD SWAP1 POP PUSH2 0x4FB PUSH1 0x0 DUP4 ADD DUP5 PUSH2 0x474 JUMP JUMPDEST SWAP3 SWAP2 POP POP JUMP JUMPDEST PUSH1 0x0 PUSH1 0x20 DUP3 ADD SWAP1 POP DUP2 DUP2 SUB PUSH1 0x0 DUP4 ADD MSTORE PUSH2 0x51B DUP2 DUP5 PUSH2 0x483 JUMP JUMPDEST SWAP1 POP SWAP3 SWAP2 POP POP JUMP JUMPDEST PUSH1 0x0 PUSH1 0x60 DUP3 ADD SWAP1 POP DUP2 DUP2 SUB PUSH1 0x0 DUP4 ADD MSTORE PUSH2 0x53D DUP2 DUP7 PUSH2 0x483 JUMP JUMPDEST SWAP1 POP DUP2 DUP2 SUB PUSH1 0x20 DUP4 ADD MSTORE PUSH2 0x551 DUP2 DUP6 PUSH2 0x483 JUMP JUMPDEST SWAP1 POP PUSH2 0x560 PUSH1 0x40 DUP4 ADD DUP5 PUSH2 0x4BC JUMP JUMPDEST SWAP5 SWAP4 POP POP POP POP JUMP JUMPDEST PUSH1 0x0 DUP2 MLOAD SWAP1 POP SWAP2 SWAP1 POP JUMP JUMPDEST PUSH1 0x0 DUP3 DUP3 MSTORE PUSH1 0x20 DUP3 ADD SWAP1 POP SWAP3 SWAP2 POP POP JUMP JUMPDEST PUSH1 0x0 DUP2 ISZERO ISZERO SWAP1 POP SWAP2 SWAP1 POP JUMP JUMPDEST PUSH1 0x0 DUP2 SWAP1 POP PUSH2 0x59E DUP3 PUSH2 0x6A5 JUMP JUMPDEST SWAP2 SWAP1 POP JUMP JUMPDEST PUSH1 0x0 DUP2 SWAP1 POP SWAP2 SWAP1 POP JUMP JUMPDEST PUSH1 0x0 PUSH1 0xFF DUP3 AND SWAP1 POP SWAP2 SWAP1 POP JUMP JUMPDEST PUSH1 0x0 PUSH2 0x5C5 DUP3 PUSH2 0x590 JUMP JUMPDEST SWAP1 POP SWAP2 SWAP1 POP JUMP JUMPDEST PUSH1 0x0 JUMPDEST DUP4 DUP2 LT ISZERO PUSH2 0x5EA JUMPI DUP1 DUP3 ADD MLOAD DUP2 DUP5 ADD MSTORE PUSH1 0x20 DUP2 ADD SWAP1 POP PUSH2 0x5CF JUMP JUMPDEST DUP4 DUP2 GT ISZERO PUSH2 0x5F9 JUMPI PUSH1 0x0 DUP5 DUP5 ADD MSTORE JUMPDEST POP POP POP POP JUMP JUMPDEST PUSH1 0x0 PUSH1 0x2 DUP3 DIV SWAP1 POP PUSH1 0x1 DUP3 AND DUP1 PUSH2 0x617 JUMPI PUSH1 0x7F DUP3 AND SWAP2 POP JUMPDEST PUSH1 0x20 DUP3 LT DUP2 EQ ISZERO PUSH2 0x62B JUMPI PUSH2 0x62A PUSH2 0x660 JUMP JUMPDEST JUMPDEST POP SWAP2 SWAP1 POP JUMP JUMPDEST PUSH32 0x4E487B7100000000000000000000000000000000000000000000000000000000 PUSH1 0x0 MSTORE PUSH1 0x21 PUSH1 0x4 MSTORE PUSH1 0x24 PUSH1 0x0 REVERT JUMPDEST PUSH32 0x4E487B7100000000000000000000000000000000000000000000000000000000 PUSH1 0x0 MSTORE PUSH1 0x22 PUSH1 0x4 MSTORE PUSH1 0x24 PUSH1 0x0 REVERT JUMPDEST PUSH1 0x0 DUP1 REVERT JUMPDEST PUSH1 0x0 PUSH1 0x1F NOT PUSH1 0x1F DUP4 ADD AND SWAP1 POP SWAP2 SWAP1 POP JUMP JUMPDEST PUSH1 0x3 DUP2 LT PUSH2 0x6B6 JUMPI PUSH2 0x6B5 PUSH2 0x631 JUMP JUMPDEST JUMPDEST POP JUMP JUMPDEST PUSH2 0x6C2 DUP2 PUSH2 0x5A3 JUMP JUMPDEST DUP2 EQ PUSH2 0x6CD JUMPI PUSH1 0x0 DUP1 REVERT JUMPDEST POP JUMP JUMPDEST PUSH2 0x6D9 DUP2 PUSH2 0x5AD JUMP JUMPDEST DUP2 EQ PUSH2 0x6E4 JUMPI PUSH1 0x0 DUP1 REVERT JUMPDEST POP JUMP INVALID LOG2 PUSH5 0x6970667358 0x22 SLT KECCAK256 PUSH8 0x702605DB94BB90A5 0x5F PUSH20 0x2ADEA99DE205CF9D95C12D2DD9B04099B99AF7C8 0xC7 PUSH5 0x736F6C6343 STOP ADDMOD SMOD STOP CALLER "
				},
				"gasEstimates": {
					"creation": {
						"codeDepositCost": "364200",
						"executionCost": "infinite",
						"totalCost": "infinite"
					},
					"external": {
						"c1()": "2560",
						"names(uint256)": "infinite",
						"names2(uint256)": "infinite",
						"ogr1()": "infinite",
						"ogrenciler(uint8)": "2846"
					}
				},
				"methodIdentifiers": {
					"c1()": "5f57697c",
					"names(uint256)": "4622ab03",
					"names2(uint256)": "f2badb22",
					"ogr1()": "8ad71beb",
					"ogrenciler(uint8)": "a6a9d8dd"
				}
			},
			"storageLayout": {
				"storage": [
					{
						"astId": 8,
						"contract": "training/contracts/Variables2.sol:Variable",
						"label": "names",
						"offset": 0,
						"slot": "0",
						"type": "t_array(t_string_storage)dyn_storage"
					},
					{
						"astId": 16,
						"contract": "training/contracts/Variables2.sol:Variable",
						"label": "names2",
						"offset": 0,
						"slot": "1",
						"type": "t_array(t_string_storage)4_storage"
					},
					{
						"astId": 20,
						"contract": "training/contracts/Variables2.sol:Variable",
						"label": "ogrenciler",
						"offset": 0,
						"slot": "5",
						"type": "t_mapping(t_uint8,t_bool)"
					},
					{
						"astId": 29,
						"contract": "training/contracts/Variables2.sol:Variable",
						"label": "c1",
						"offset": 0,
						"slot": "6",
						"type": "t_enum(cities)24"
					},
					{
						"astId": 39,
						"contract": "training/contracts/Variables2.sol:Variable",
						"label": "ogr1",
						"offset": 0,
						"slot": "7",
						"type": "t_struct(Ogrenci)36_storage"
					}
				],
				"types": {
					"t_array(t_string_storage)4_storage": {
						"base": "t_string_storage",
						"encoding": "inplace",
						"label": "string[4]",
						"numberOfBytes": "128"
					},
					"t_array(t_string_storage)dyn_storage": {
						"base": "t_string_storage",
						"encoding": "dynamic_array",
						"label": "string[]",
						"numberOfBytes": "32"
					},
					"t_bool": {
						"encoding": "inplace",
						"label": "bool",
						"numberOfBytes": "1"
					},
					"t_enum(cities)24": {
						"encoding": "inplace",
						"label": "enum Variable.cities",
						"numberOfBytes": "1"
					},
					"t_mapping(t_uint8,t_bool)": {
						"encoding": "mapping",
						"key": "t_uint8",
						"label": "mapping(uint8 => bool)",
						"numberOfBytes": "32",
						"value": "t_bool"
					},
					"t_string_storage": {
						"encoding": "bytes",
						"label": "string",
						"numberOfBytes": "32"
					},
					"t_struct(Ogrenci)36_storage": {
						"encoding": "inplace",
						"label": "struct Variable.Ogrenci",
						"members": [
							{
								"astId": 31,
								"contract": "training/contracts/Variables2.sol:Variable",
								"label": "name",
								"offset": 0,
								"slot": "0",
								"type": "t_string_storage"
							},
							{
								"astId": 33,
								"contract": "training/contracts/Variables2.sol:Variable",
								"label": "surname",
								"offset": 0,
								"slot": "1",
								"type": "t_string_storage"
							},
							{
								"astId": 35,
								"contract": "training/contracts/Variables2.sol:Variable",
								"label": "no",
								"offset": 0,
								"slot": "2",
								"type": "t_uint8"
							}
						],
						"numberOfBytes": "96"
					},
					"t_uint8": {
						"encoding": "inplace",
						"label": "uint8",
						"numberOfBytes": "1"
					}
				}
			},
			"userdoc": {
				"kind": "user",
				"methods": {},
				"version": 1
			}
		}
	}
}