{
	"training/contracts/Events.sol": {
		"Events": {
			"abi": [
				{
					"anonymous": false,
					"inputs": [
						{
							"indexed": false,
							"internalType": "string",
							"name": "name",
							"type": "string"
						},
						{
							"indexed": false,
							"internalType": "bool",
							"name": "attendance",
							"type": "bool"
						},
						{
							"indexed": false,
							"internalType": "int256",
							"name": "marks",
							"type": "int256"
						}
					],
					"name": "studentRegistered",
					"type": "event"
				},
				{
					"inputs": [],
					"name": "newStudent",
					"outputs": [
						{
							"internalType": "string",
							"name": "name",
							"type": "string"
						},
						{
							"internalType": "bool",
							"name": "attendance",
							"type": "bool"
						},
						{
							"internalType": "int256",
							"name": "marks",
							"type": "int256"
						}
					],
					"stateMutability": "view",
					"type": "function"
				},
				{
					"inputs": [
						{
							"internalType": "string",
							"name": "_name",
							"type": "string"
						},
						{
							"internalType": "bool",
							"name": "_attendance",
							"type": "bool"
						},
						{
							"internalType": "int256",
							"name": "_marks",
							"type": "int256"
						}
					],
					"name": "registerStudent",
					"outputs": [],
					"stateMutability": "nonpayable",
					"type": "function"
				}
			],
			"devdoc": {
				"kind": "dev",
				"methods": {},
				"version": 1
			},
			"evm": {
				"assembly": "    /* \"training/contracts/Events.sol\":132:700  contract Events{... */\n  mstore(0x40, 0x80)\n  callvalue\n  dup1\n  iszero\n  tag_1\n  jumpi\n  0x00\n  dup1\n  revert\ntag_1:\n  pop\n  dataSize(sub_0)\n  dup1\n  dataOffset(sub_0)\n  0x00\n  codecopy\n  0x00\n  return\nstop\n\nsub_0: assembly {\n        /* \"training/contracts/Events.sol\":132:700  contract Events{... */\n      mstore(0x40, 0x80)\n      callvalue\n      dup1\n      iszero\n      tag_1\n      jumpi\n      0x00\n      dup1\n      revert\n    tag_1:\n      pop\n      jumpi(tag_2, lt(calldatasize, 0x04))\n      shr(0xe0, calldataload(0x00))\n      dup1\n      0x20d55f5a\n      eq\n      tag_3\n      jumpi\n      dup1\n      0x22c1340c\n      eq\n      tag_4\n      jumpi\n    tag_2:\n      0x00\n      dup1\n      revert\n        /* \"training/contracts/Events.sol\":440:697  function registerStudent(string memory _name, bool _attendance, int _marks) public{... */\n    tag_3:\n      tag_5\n      0x04\n      dup1\n      calldatasize\n      sub\n      dup2\n      add\n      swap1\n      tag_6\n      swap2\n      swap1\n      tag_7\n      jump\t// in\n    tag_6:\n      tag_8\n      jump\t// in\n    tag_5:\n      stop\n        /* \"training/contracts/Events.sol\":258:283  Student public newStudent */\n    tag_4:\n      tag_9\n      tag_10\n      jump\t// in\n    tag_9:\n      mload(0x40)\n      tag_11\n      swap4\n      swap3\n      swap2\n      swap1\n      tag_12\n      jump\t// in\n    tag_11:\n      mload(0x40)\n      dup1\n      swap2\n      sub\n      swap1\n      return\n        /* \"training/contracts/Events.sol\":440:697  function registerStudent(string memory _name, bool _attendance, int _marks) public{... */\n    tag_8:\n        /* \"training/contracts/Events.sol\":548:553  _name */\n      dup3\n        /* \"training/contracts/Events.sol\":532:542  newStudent */\n      0x00\n        /* \"training/contracts/Events.sol\":532:547  newStudent.name */\n      dup1\n      add\n        /* \"training/contracts/Events.sol\":532:553  newStudent.name=_name */\n      swap1\n      dup1\n      mload\n      swap1\n      0x20\n      add\n      swap1\n      tag_14\n      swap3\n      swap2\n      swap1\n      tag_15\n      jump\t// in\n    tag_14:\n      pop\n        /* \"training/contracts/Events.sol\":585:596  _attendance */\n      dup2\n        /* \"training/contracts/Events.sol\":563:573  newStudent */\n      0x00\n        /* \"training/contracts/Events.sol\":563:584  newStudent.attendance */\n      0x01\n      add\n      0x00\n        /* \"training/contracts/Events.sol\":563:596  newStudent.attendance=_attendance */\n      0x0100\n      exp\n      dup2\n      sload\n      dup2\n      0xff\n      mul\n      not\n      and\n      swap1\n      dup4\n      iszero\n      iszero\n      mul\n      or\n      swap1\n      sstore\n      pop\n        /* \"training/contracts/Events.sol\":645:690  studentRegistered(_name, _attendance, _marks) */\n      0xea4746028160fd5712ca429f649a8e93b293c7a17c876ca48b7766543f68b4ba\n        /* \"training/contracts/Events.sol\":663:668  _name */\n      dup4\n        /* \"training/contracts/Events.sol\":670:681  _attendance */\n      dup4\n        /* \"training/contracts/Events.sol\":683:689  _marks */\n      dup4\n        /* \"training/contracts/Events.sol\":645:690  studentRegistered(_name, _attendance, _marks) */\n      mload(0x40)\n      tag_16\n      swap4\n      swap3\n      swap2\n      swap1\n      tag_12\n      jump\t// in\n    tag_16:\n      mload(0x40)\n      dup1\n      swap2\n      sub\n      swap1\n      log1\n        /* \"training/contracts/Events.sol\":440:697  function registerStudent(string memory _name, bool _attendance, int _marks) public{... */\n      pop\n      pop\n      pop\n      jump\t// out\n        /* \"training/contracts/Events.sol\":258:283  Student public newStudent */\n    tag_10:\n      0x00\n      dup1\n      0x00\n      add\n      dup1\n      sload\n      tag_17\n      swap1\n      tag_18\n      jump\t// in\n    tag_17:\n      dup1\n      0x1f\n      add\n      0x20\n      dup1\n      swap2\n      div\n      mul\n      0x20\n      add\n      mload(0x40)\n      swap1\n      dup2\n      add\n      0x40\n      mstore\n      dup1\n      swap3\n      swap2\n      swap1\n      dup2\n      dup2\n      mstore\n      0x20\n      add\n      dup3\n      dup1\n      sload\n      tag_19\n      swap1\n      tag_18\n      jump\t// in\n    tag_19:\n      dup1\n      iszero\n      tag_20\n      jumpi\n      dup1\n      0x1f\n      lt\n      tag_21\n      jumpi\n      0x0100\n      dup1\n      dup4\n      sload\n      div\n      mul\n      dup4\n      mstore\n      swap2\n      0x20\n      add\n      swap2\n      jump(tag_20)\n    tag_21:\n      dup3\n      add\n      swap2\n      swap1\n      0x00\n      mstore\n      keccak256(0x00, 0x20)\n      swap1\n    tag_22:\n      dup2\n      sload\n      dup2\n      mstore\n      swap1\n      0x01\n      add\n      swap1\n      0x20\n      add\n      dup1\n      dup4\n      gt\n      tag_22\n      jumpi\n      dup3\n      swap1\n      sub\n      0x1f\n      and\n      dup3\n      add\n      swap2\n    tag_20:\n      pop\n      pop\n      pop\n      pop\n      pop\n      swap1\n      dup1\n      0x01\n      add\n      0x00\n      swap1\n      sload\n      swap1\n      0x0100\n      exp\n      swap1\n      div\n      0xff\n      and\n      swap1\n      dup1\n      0x02\n      add\n      sload\n      swap1\n      pop\n      dup4\n      jump\t// out\n    tag_15:\n      dup3\n      dup1\n      sload\n      tag_23\n      swap1\n      tag_18\n      jump\t// in\n    tag_23:\n      swap1\n      0x00\n      mstore\n      keccak256(0x00, 0x20)\n      swap1\n      0x1f\n      add\n      0x20\n      swap1\n      div\n      dup2\n      add\n      swap3\n      dup3\n      tag_25\n      jumpi\n      0x00\n      dup6\n      sstore\n      jump(tag_24)\n    tag_25:\n      dup3\n      0x1f\n      lt\n      tag_26\n      jumpi\n      dup1\n      mload\n      not(0xff)\n      and\n      dup4\n      dup1\n      add\n      or\n      dup6\n      sstore\n      jump(tag_24)\n    tag_26:\n      dup3\n      dup1\n      add\n      0x01\n      add\n      dup6\n      sstore\n      dup3\n      iszero\n      tag_24\n      jumpi\n      swap2\n      dup3\n      add\n    tag_27:\n      dup3\n      dup2\n      gt\n      iszero\n      tag_28\n      jumpi\n      dup3\n      mload\n      dup3\n      sstore\n      swap2\n      0x20\n      add\n      swap2\n      swap1\n      0x01\n      add\n      swap1\n      jump(tag_27)\n    tag_28:\n    tag_24:\n      pop\n      swap1\n      pop\n      tag_29\n      swap2\n      swap1\n      tag_30\n      jump\t// in\n    tag_29:\n      pop\n      swap1\n      jump\t// out\n    tag_30:\n    tag_31:\n      dup1\n      dup3\n      gt\n      iszero\n      tag_32\n      jumpi\n      0x00\n      dup2\n      0x00\n      swap1\n      sstore\n      pop\n      0x01\n      add\n      jump(tag_31)\n    tag_32:\n      pop\n      swap1\n      jump\t// out\n        /* \"#utility.yul\":7:419   */\n    tag_34:\n        /* \"#utility.yul\":85:90   */\n      0x00\n        /* \"#utility.yul\":110:176   */\n      tag_36\n        /* \"#utility.yul\":126:175   */\n      tag_37\n        /* \"#utility.yul\":168:174   */\n      dup5\n        /* \"#utility.yul\":126:175   */\n      tag_38\n      jump\t// in\n    tag_37:\n        /* \"#utility.yul\":110:176   */\n      tag_39\n      jump\t// in\n    tag_36:\n        /* \"#utility.yul\":101:176   */\n      swap1\n      pop\n        /* \"#utility.yul\":199:205   */\n      dup3\n        /* \"#utility.yul\":192:197   */\n      dup2\n        /* \"#utility.yul\":185:206   */\n      mstore\n        /* \"#utility.yul\":237:241   */\n      0x20\n        /* \"#utility.yul\":230:235   */\n      dup2\n        /* \"#utility.yul\":226:242   */\n      add\n        /* \"#utility.yul\":275:278   */\n      dup5\n        /* \"#utility.yul\":266:272   */\n      dup5\n        /* \"#utility.yul\":261:264   */\n      dup5\n        /* \"#utility.yul\":257:273   */\n      add\n        /* \"#utility.yul\":254:279   */\n      gt\n        /* \"#utility.yul\":251:363   */\n      iszero\n      tag_40\n      jumpi\n        /* \"#utility.yul\":282:361   */\n      tag_41\n      tag_42\n      jump\t// in\n    tag_41:\n        /* \"#utility.yul\":251:363   */\n    tag_40:\n        /* \"#utility.yul\":372:413   */\n      tag_43\n        /* \"#utility.yul\":406:412   */\n      dup5\n        /* \"#utility.yul\":401:404   */\n      dup3\n        /* \"#utility.yul\":396:399   */\n      dup6\n        /* \"#utility.yul\":372:413   */\n      tag_44\n      jump\t// in\n    tag_43:\n        /* \"#utility.yul\":91:419   */\n      pop\n        /* \"#utility.yul\":7:419   */\n      swap4\n      swap3\n      pop\n      pop\n      pop\n      jump\t// out\n        /* \"#utility.yul\":425:558   */\n    tag_45:\n        /* \"#utility.yul\":468:473   */\n      0x00\n        /* \"#utility.yul\":506:512   */\n      dup2\n        /* \"#utility.yul\":493:513   */\n      calldataload\n        /* \"#utility.yul\":484:513   */\n      swap1\n      pop\n        /* \"#utility.yul\":522:552   */\n      tag_47\n        /* \"#utility.yul\":546:551   */\n      dup2\n        /* \"#utility.yul\":522:552   */\n      tag_48\n      jump\t// in\n    tag_47:\n        /* \"#utility.yul\":425:558   */\n      swap3\n      swap2\n      pop\n      pop\n      jump\t// out\n        /* \"#utility.yul\":564:701   */\n    tag_49:\n        /* \"#utility.yul\":609:614   */\n      0x00\n        /* \"#utility.yul\":647:653   */\n      dup2\n        /* \"#utility.yul\":634:654   */\n      calldataload\n        /* \"#utility.yul\":625:654   */\n      swap1\n      pop\n        /* \"#utility.yul\":663:695   */\n      tag_51\n        /* \"#utility.yul\":689:694   */\n      dup2\n        /* \"#utility.yul\":663:695   */\n      tag_52\n      jump\t// in\n    tag_51:\n        /* \"#utility.yul\":564:701   */\n      swap3\n      swap2\n      pop\n      pop\n      jump\t// out\n        /* \"#utility.yul\":721:1061   */\n    tag_53:\n        /* \"#utility.yul\":777:782   */\n      0x00\n        /* \"#utility.yul\":826:829   */\n      dup3\n        /* \"#utility.yul\":819:823   */\n      0x1f\n        /* \"#utility.yul\":811:817   */\n      dup4\n        /* \"#utility.yul\":807:824   */\n      add\n        /* \"#utility.yul\":803:830   */\n      slt\n        /* \"#utility.yul\":793:915   */\n      tag_55\n      jumpi\n        /* \"#utility.yul\":834:913   */\n      tag_56\n      tag_57\n      jump\t// in\n    tag_56:\n        /* \"#utility.yul\":793:915   */\n    tag_55:\n        /* \"#utility.yul\":951:957   */\n      dup2\n        /* \"#utility.yul\":938:958   */\n      calldataload\n        /* \"#utility.yul\":976:1055   */\n      tag_58\n        /* \"#utility.yul\":1051:1054   */\n      dup5\n        /* \"#utility.yul\":1043:1049   */\n      dup3\n        /* \"#utility.yul\":1036:1040   */\n      0x20\n        /* \"#utility.yul\":1028:1034   */\n      dup7\n        /* \"#utility.yul\":1024:1041   */\n      add\n        /* \"#utility.yul\":976:1055   */\n      tag_34\n      jump\t// in\n    tag_58:\n        /* \"#utility.yul\":967:1055   */\n      swap2\n      pop\n        /* \"#utility.yul\":783:1061   */\n      pop\n        /* \"#utility.yul\":721:1061   */\n      swap3\n      swap2\n      pop\n      pop\n      jump\t// out\n        /* \"#utility.yul\":1067:1858   */\n    tag_7:\n        /* \"#utility.yul\":1150:1156   */\n      0x00\n        /* \"#utility.yul\":1158:1164   */\n      dup1\n        /* \"#utility.yul\":1166:1172   */\n      0x00\n        /* \"#utility.yul\":1215:1217   */\n      0x60\n        /* \"#utility.yul\":1203:1212   */\n      dup5\n        /* \"#utility.yul\":1194:1201   */\n      dup7\n        /* \"#utility.yul\":1190:1213   */\n      sub\n        /* \"#utility.yul\":1186:1218   */\n      slt\n        /* \"#utility.yul\":1183:1302   */\n      iszero\n      tag_60\n      jumpi\n        /* \"#utility.yul\":1221:1300   */\n      tag_61\n      tag_62\n      jump\t// in\n    tag_61:\n        /* \"#utility.yul\":1183:1302   */\n    tag_60:\n        /* \"#utility.yul\":1369:1370   */\n      0x00\n        /* \"#utility.yul\":1358:1367   */\n      dup5\n        /* \"#utility.yul\":1354:1371   */\n      add\n        /* \"#utility.yul\":1341:1372   */\n      calldataload\n        /* \"#utility.yul\":1399:1417   */\n      0xffffffffffffffff\n        /* \"#utility.yul\":1391:1397   */\n      dup2\n        /* \"#utility.yul\":1388:1418   */\n      gt\n        /* \"#utility.yul\":1385:1502   */\n      iszero\n      tag_63\n      jumpi\n        /* \"#utility.yul\":1421:1500   */\n      tag_64\n      tag_65\n      jump\t// in\n    tag_64:\n        /* \"#utility.yul\":1385:1502   */\n    tag_63:\n        /* \"#utility.yul\":1526:1589   */\n      tag_66\n        /* \"#utility.yul\":1581:1588   */\n      dup7\n        /* \"#utility.yul\":1572:1578   */\n      dup3\n        /* \"#utility.yul\":1561:1570   */\n      dup8\n        /* \"#utility.yul\":1557:1579   */\n      add\n        /* \"#utility.yul\":1526:1589   */\n      tag_53\n      jump\t// in\n    tag_66:\n        /* \"#utility.yul\":1516:1589   */\n      swap4\n      pop\n        /* \"#utility.yul\":1312:1599   */\n      pop\n        /* \"#utility.yul\":1638:1640   */\n      0x20\n        /* \"#utility.yul\":1664:1714   */\n      tag_67\n        /* \"#utility.yul\":1706:1713   */\n      dup7\n        /* \"#utility.yul\":1697:1703   */\n      dup3\n        /* \"#utility.yul\":1686:1695   */\n      dup8\n        /* \"#utility.yul\":1682:1704   */\n      add\n        /* \"#utility.yul\":1664:1714   */\n      tag_45\n      jump\t// in\n    tag_67:\n        /* \"#utility.yul\":1654:1714   */\n      swap3\n      pop\n        /* \"#utility.yul\":1609:1724   */\n      pop\n        /* \"#utility.yul\":1763:1765   */\n      0x40\n        /* \"#utility.yul\":1789:1841   */\n      tag_68\n        /* \"#utility.yul\":1833:1840   */\n      dup7\n        /* \"#utility.yul\":1824:1830   */\n      dup3\n        /* \"#utility.yul\":1813:1822   */\n      dup8\n        /* \"#utility.yul\":1809:1831   */\n      add\n        /* \"#utility.yul\":1789:1841   */\n      tag_49\n      jump\t// in\n    tag_68:\n        /* \"#utility.yul\":1779:1841   */\n      swap2\n      pop\n        /* \"#utility.yul\":1734:1851   */\n      pop\n        /* \"#utility.yul\":1067:1858   */\n      swap3\n      pop\n      swap3\n      pop\n      swap3\n      jump\t// out\n        /* \"#utility.yul\":1864:1973   */\n    tag_69:\n        /* \"#utility.yul\":1945:1966   */\n      tag_71\n        /* \"#utility.yul\":1960:1965   */\n      dup2\n        /* \"#utility.yul\":1945:1966   */\n      tag_72\n      jump\t// in\n    tag_71:\n        /* \"#utility.yul\":1940:1943   */\n      dup3\n        /* \"#utility.yul\":1933:1967   */\n      mstore\n        /* \"#utility.yul\":1864:1973   */\n      pop\n      pop\n      jump\t// out\n        /* \"#utility.yul\":1979:2094   */\n    tag_73:\n        /* \"#utility.yul\":2064:2087   */\n      tag_75\n        /* \"#utility.yul\":2081:2086   */\n      dup2\n        /* \"#utility.yul\":2064:2087   */\n      tag_76\n      jump\t// in\n    tag_75:\n        /* \"#utility.yul\":2059:2062   */\n      dup3\n        /* \"#utility.yul\":2052:2088   */\n      mstore\n        /* \"#utility.yul\":1979:2094   */\n      pop\n      pop\n      jump\t// out\n        /* \"#utility.yul\":2100:2464   */\n    tag_77:\n        /* \"#utility.yul\":2188:2191   */\n      0x00\n        /* \"#utility.yul\":2216:2255   */\n      tag_79\n        /* \"#utility.yul\":2249:2254   */\n      dup3\n        /* \"#utility.yul\":2216:2255   */\n      tag_80\n      jump\t// in\n    tag_79:\n        /* \"#utility.yul\":2271:2342   */\n      tag_81\n        /* \"#utility.yul\":2335:2341   */\n      dup2\n        /* \"#utility.yul\":2330:2333   */\n      dup6\n        /* \"#utility.yul\":2271:2342   */\n      tag_82\n      jump\t// in\n    tag_81:\n        /* \"#utility.yul\":2264:2342   */\n      swap4\n      pop\n        /* \"#utility.yul\":2351:2403   */\n      tag_83\n        /* \"#utility.yul\":2396:2402   */\n      dup2\n        /* \"#utility.yul\":2391:2394   */\n      dup6\n        /* \"#utility.yul\":2384:2388   */\n      0x20\n        /* \"#utility.yul\":2377:2382   */\n      dup7\n        /* \"#utility.yul\":2373:2389   */\n      add\n        /* \"#utility.yul\":2351:2403   */\n      tag_84\n      jump\t// in\n    tag_83:\n        /* \"#utility.yul\":2428:2457   */\n      tag_85\n        /* \"#utility.yul\":2450:2456   */\n      dup2\n        /* \"#utility.yul\":2428:2457   */\n      tag_86\n      jump\t// in\n    tag_85:\n        /* \"#utility.yul\":2423:2426   */\n      dup5\n        /* \"#utility.yul\":2419:2458   */\n      add\n        /* \"#utility.yul\":2412:2458   */\n      swap2\n      pop\n        /* \"#utility.yul\":2192:2464   */\n      pop\n        /* \"#utility.yul\":2100:2464   */\n      swap3\n      swap2\n      pop\n      pop\n      jump\t// out\n        /* \"#utility.yul\":2470:2987   */\n    tag_12:\n        /* \"#utility.yul\":2631:2635   */\n      0x00\n        /* \"#utility.yul\":2669:2671   */\n      0x60\n        /* \"#utility.yul\":2658:2667   */\n      dup3\n        /* \"#utility.yul\":2654:2672   */\n      add\n        /* \"#utility.yul\":2646:2672   */\n      swap1\n      pop\n        /* \"#utility.yul\":2718:2727   */\n      dup2\n        /* \"#utility.yul\":2712:2716   */\n      dup2\n        /* \"#utility.yul\":2708:2728   */\n      sub\n        /* \"#utility.yul\":2704:2705   */\n      0x00\n        /* \"#utility.yul\":2693:2702   */\n      dup4\n        /* \"#utility.yul\":2689:2706   */\n      add\n        /* \"#utility.yul\":2682:2729   */\n      mstore\n        /* \"#utility.yul\":2746:2824   */\n      tag_88\n        /* \"#utility.yul\":2819:2823   */\n      dup2\n        /* \"#utility.yul\":2810:2816   */\n      dup7\n        /* \"#utility.yul\":2746:2824   */\n      tag_77\n      jump\t// in\n    tag_88:\n        /* \"#utility.yul\":2738:2824   */\n      swap1\n      pop\n        /* \"#utility.yul\":2834:2900   */\n      tag_89\n        /* \"#utility.yul\":2896:2898   */\n      0x20\n        /* \"#utility.yul\":2885:2894   */\n      dup4\n        /* \"#utility.yul\":2881:2899   */\n      add\n        /* \"#utility.yul\":2872:2878   */\n      dup6\n        /* \"#utility.yul\":2834:2900   */\n      tag_69\n      jump\t// in\n    tag_89:\n        /* \"#utility.yul\":2910:2980   */\n      tag_90\n        /* \"#utility.yul\":2976:2978   */\n      0x40\n        /* \"#utility.yul\":2965:2974   */\n      dup4\n        /* \"#utility.yul\":2961:2979   */\n      add\n        /* \"#utility.yul\":2952:2958   */\n      dup5\n        /* \"#utility.yul\":2910:2980   */\n      tag_73\n      jump\t// in\n    tag_90:\n        /* \"#utility.yul\":2470:2987   */\n      swap5\n      swap4\n      pop\n      pop\n      pop\n      pop\n      jump\t// out\n        /* \"#utility.yul\":2993:3122   */\n    tag_39:\n        /* \"#utility.yul\":3027:3033   */\n      0x00\n        /* \"#utility.yul\":3054:3074   */\n      tag_92\n      tag_93\n      jump\t// in\n    tag_92:\n        /* \"#utility.yul\":3044:3074   */\n      swap1\n      pop\n        /* \"#utility.yul\":3083:3116   */\n      tag_94\n        /* \"#utility.yul\":3111:3115   */\n      dup3\n        /* \"#utility.yul\":3103:3109   */\n      dup3\n        /* \"#utility.yul\":3083:3116   */\n      tag_95\n      jump\t// in\n    tag_94:\n        /* \"#utility.yul\":2993:3122   */\n      swap2\n      swap1\n      pop\n      jump\t// out\n        /* \"#utility.yul\":3128:3203   */\n    tag_93:\n        /* \"#utility.yul\":3161:3167   */\n      0x00\n        /* \"#utility.yul\":3194:3196   */\n      0x40\n        /* \"#utility.yul\":3188:3197   */\n      mload\n        /* \"#utility.yul\":3178:3197   */\n      swap1\n      pop\n        /* \"#utility.yul\":3128:3203   */\n      swap1\n      jump\t// out\n        /* \"#utility.yul\":3209:3517   */\n    tag_38:\n        /* \"#utility.yul\":3271:3275   */\n      0x00\n        /* \"#utility.yul\":3361:3379   */\n      0xffffffffffffffff\n        /* \"#utility.yul\":3353:3359   */\n      dup3\n        /* \"#utility.yul\":3350:3380   */\n      gt\n        /* \"#utility.yul\":3347:3403   */\n      iszero\n      tag_98\n      jumpi\n        /* \"#utility.yul\":3383:3401   */\n      tag_99\n      tag_100\n      jump\t// in\n    tag_99:\n        /* \"#utility.yul\":3347:3403   */\n    tag_98:\n        /* \"#utility.yul\":3421:3450   */\n      tag_101\n        /* \"#utility.yul\":3443:3449   */\n      dup3\n        /* \"#utility.yul\":3421:3450   */\n      tag_86\n      jump\t// in\n    tag_101:\n        /* \"#utility.yul\":3413:3450   */\n      swap1\n      pop\n        /* \"#utility.yul\":3505:3509   */\n      0x20\n        /* \"#utility.yul\":3499:3503   */\n      dup2\n        /* \"#utility.yul\":3495:3510   */\n      add\n        /* \"#utility.yul\":3487:3510   */\n      swap1\n      pop\n        /* \"#utility.yul\":3209:3517   */\n      swap2\n      swap1\n      pop\n      jump\t// out\n        /* \"#utility.yul\":3523:3622   */\n    tag_80:\n        /* \"#utility.yul\":3575:3581   */\n      0x00\n        /* \"#utility.yul\":3609:3614   */\n      dup2\n        /* \"#utility.yul\":3603:3615   */\n      mload\n        /* \"#utility.yul\":3593:3615   */\n      swap1\n      pop\n        /* \"#utility.yul\":3523:3622   */\n      swap2\n      swap1\n      pop\n      jump\t// out\n        /* \"#utility.yul\":3628:3797   */\n    tag_82:\n        /* \"#utility.yul\":3712:3723   */\n      0x00\n        /* \"#utility.yul\":3746:3752   */\n      dup3\n        /* \"#utility.yul\":3741:3744   */\n      dup3\n        /* \"#utility.yul\":3734:3753   */\n      mstore\n        /* \"#utility.yul\":3786:3790   */\n      0x20\n        /* \"#utility.yul\":3781:3784   */\n      dup3\n        /* \"#utility.yul\":3777:3791   */\n      add\n        /* \"#utility.yul\":3762:3791   */\n      swap1\n      pop\n        /* \"#utility.yul\":3628:3797   */\n      swap3\n      swap2\n      pop\n      pop\n      jump\t// out\n        /* \"#utility.yul\":3803:3893   */\n    tag_72:\n        /* \"#utility.yul\":3837:3844   */\n      0x00\n        /* \"#utility.yul\":3880:3885   */\n      dup2\n        /* \"#utility.yul\":3873:3886   */\n      iszero\n        /* \"#utility.yul\":3866:3887   */\n      iszero\n        /* \"#utility.yul\":3855:3887   */\n      swap1\n      pop\n        /* \"#utility.yul\":3803:3893   */\n      swap2\n      swap1\n      pop\n      jump\t// out\n        /* \"#utility.yul\":3899:3975   */\n    tag_76:\n        /* \"#utility.yul\":3935:3942   */\n      0x00\n        /* \"#utility.yul\":3964:3969   */\n      dup2\n        /* \"#utility.yul\":3953:3969   */\n      swap1\n      pop\n        /* \"#utility.yul\":3899:3975   */\n      swap2\n      swap1\n      pop\n      jump\t// out\n        /* \"#utility.yul\":3981:4135   */\n    tag_44:\n        /* \"#utility.yul\":4065:4071   */\n      dup3\n        /* \"#utility.yul\":4060:4063   */\n      dup2\n        /* \"#utility.yul\":4055:4058   */\n      dup4\n        /* \"#utility.yul\":4042:4072   */\n      calldatacopy\n        /* \"#utility.yul\":4127:4128   */\n      0x00\n        /* \"#utility.yul\":4118:4124   */\n      dup4\n        /* \"#utility.yul\":4113:4116   */\n      dup4\n        /* \"#utility.yul\":4109:4125   */\n      add\n        /* \"#utility.yul\":4102:4129   */\n      mstore\n        /* \"#utility.yul\":3981:4135   */\n      pop\n      pop\n      pop\n      jump\t// out\n        /* \"#utility.yul\":4141:4448   */\n    tag_84:\n        /* \"#utility.yul\":4209:4210   */\n      0x00\n        /* \"#utility.yul\":4219:4332   */\n    tag_108:\n        /* \"#utility.yul\":4233:4239   */\n      dup4\n        /* \"#utility.yul\":4230:4231   */\n      dup2\n        /* \"#utility.yul\":4227:4240   */\n      lt\n        /* \"#utility.yul\":4219:4332   */\n      iszero\n      tag_110\n      jumpi\n        /* \"#utility.yul\":4318:4319   */\n      dup1\n        /* \"#utility.yul\":4313:4316   */\n      dup3\n        /* \"#utility.yul\":4309:4320   */\n      add\n        /* \"#utility.yul\":4303:4321   */\n      mload\n        /* \"#utility.yul\":4299:4300   */\n      dup2\n        /* \"#utility.yul\":4294:4297   */\n      dup5\n        /* \"#utility.yul\":4290:4301   */\n      add\n        /* \"#utility.yul\":4283:4322   */\n      mstore\n        /* \"#utility.yul\":4255:4257   */\n      0x20\n        /* \"#utility.yul\":4252:4253   */\n      dup2\n        /* \"#utility.yul\":4248:4258   */\n      add\n        /* \"#utility.yul\":4243:4258   */\n      swap1\n      pop\n        /* \"#utility.yul\":4219:4332   */\n      jump(tag_108)\n    tag_110:\n        /* \"#utility.yul\":4350:4356   */\n      dup4\n        /* \"#utility.yul\":4347:4348   */\n      dup2\n        /* \"#utility.yul\":4344:4357   */\n      gt\n        /* \"#utility.yul\":4341:4442   */\n      iszero\n      tag_111\n      jumpi\n        /* \"#utility.yul\":4430:4431   */\n      0x00\n        /* \"#utility.yul\":4421:4427   */\n      dup5\n        /* \"#utility.yul\":4416:4419   */\n      dup5\n        /* \"#utility.yul\":4412:4428   */\n      add\n        /* \"#utility.yul\":4405:4432   */\n      mstore\n        /* \"#utility.yul\":4341:4442   */\n    tag_111:\n        /* \"#utility.yul\":4190:4448   */\n      pop\n        /* \"#utility.yul\":4141:4448   */\n      pop\n      pop\n      pop\n      jump\t// out\n        /* \"#utility.yul\":4454:4774   */\n    tag_18:\n        /* \"#utility.yul\":4498:4504   */\n      0x00\n        /* \"#utility.yul\":4535:4536   */\n      0x02\n        /* \"#utility.yul\":4529:4533   */\n      dup3\n        /* \"#utility.yul\":4525:4537   */\n      div\n        /* \"#utility.yul\":4515:4537   */\n      swap1\n      pop\n        /* \"#utility.yul\":4582:4583   */\n      0x01\n        /* \"#utility.yul\":4576:4580   */\n      dup3\n        /* \"#utility.yul\":4572:4584   */\n      and\n        /* \"#utility.yul\":4603:4621   */\n      dup1\n        /* \"#utility.yul\":4593:4674   */\n      tag_113\n      jumpi\n        /* \"#utility.yul\":4659:4663   */\n      0x7f\n        /* \"#utility.yul\":4651:4657   */\n      dup3\n        /* \"#utility.yul\":4647:4664   */\n      and\n        /* \"#utility.yul\":4637:4664   */\n      swap2\n      pop\n        /* \"#utility.yul\":4593:4674   */\n    tag_113:\n        /* \"#utility.yul\":4721:4723   */\n      0x20\n        /* \"#utility.yul\":4713:4719   */\n      dup3\n        /* \"#utility.yul\":4710:4724   */\n      lt\n        /* \"#utility.yul\":4690:4708   */\n      dup2\n        /* \"#utility.yul\":4687:4725   */\n      eq\n        /* \"#utility.yul\":4684:4768   */\n      iszero\n      tag_114\n      jumpi\n        /* \"#utility.yul\":4740:4758   */\n      tag_115\n      tag_116\n      jump\t// in\n    tag_115:\n        /* \"#utility.yul\":4684:4768   */\n    tag_114:\n        /* \"#utility.yul\":4505:4774   */\n      pop\n        /* \"#utility.yul\":4454:4774   */\n      swap2\n      swap1\n      pop\n      jump\t// out\n        /* \"#utility.yul\":4780:5061   */\n    tag_95:\n        /* \"#utility.yul\":4863:4890   */\n      tag_118\n        /* \"#utility.yul\":4885:4889   */\n      dup3\n        /* \"#utility.yul\":4863:4890   */\n      tag_86\n      jump\t// in\n    tag_118:\n        /* \"#utility.yul\":4855:4861   */\n      dup2\n        /* \"#utility.yul\":4851:4891   */\n      add\n        /* \"#utility.yul\":4993:4999   */\n      dup2\n        /* \"#utility.yul\":4981:4991   */\n      dup2\n        /* \"#utility.yul\":4978:5000   */\n      lt\n        /* \"#utility.yul\":4957:4975   */\n      0xffffffffffffffff\n        /* \"#utility.yul\":4945:4955   */\n      dup3\n        /* \"#utility.yul\":4942:4976   */\n      gt\n        /* \"#utility.yul\":4939:5001   */\n      or\n        /* \"#utility.yul\":4936:5024   */\n      iszero\n      tag_119\n      jumpi\n        /* \"#utility.yul\":5004:5022   */\n      tag_120\n      tag_100\n      jump\t// in\n    tag_120:\n        /* \"#utility.yul\":4936:5024   */\n    tag_119:\n        /* \"#utility.yul\":5044:5054   */\n      dup1\n        /* \"#utility.yul\":5040:5042   */\n      0x40\n        /* \"#utility.yul\":5033:5055   */\n      mstore\n        /* \"#utility.yul\":4823:5061   */\n      pop\n        /* \"#utility.yul\":4780:5061   */\n      pop\n      pop\n      jump\t// out\n        /* \"#utility.yul\":5067:5247   */\n    tag_116:\n        /* \"#utility.yul\":5115:5192   */\n      0x4e487b7100000000000000000000000000000000000000000000000000000000\n        /* \"#utility.yul\":5112:5113   */\n      0x00\n        /* \"#utility.yul\":5105:5193   */\n      mstore\n        /* \"#utility.yul\":5212:5216   */\n      0x22\n        /* \"#utility.yul\":5209:5210   */\n      0x04\n        /* \"#utility.yul\":5202:5217   */\n      mstore\n        /* \"#utility.yul\":5236:5240   */\n      0x24\n        /* \"#utility.yul\":5233:5234   */\n      0x00\n        /* \"#utility.yul\":5226:5241   */\n      revert\n        /* \"#utility.yul\":5253:5433   */\n    tag_100:\n        /* \"#utility.yul\":5301:5378   */\n      0x4e487b7100000000000000000000000000000000000000000000000000000000\n        /* \"#utility.yul\":5298:5299   */\n      0x00\n        /* \"#utility.yul\":5291:5379   */\n      mstore\n        /* \"#utility.yul\":5398:5402   */\n      0x41\n        /* \"#utility.yul\":5395:5396   */\n      0x04\n        /* \"#utility.yul\":5388:5403   */\n      mstore\n        /* \"#utility.yul\":5422:5426   */\n      0x24\n        /* \"#utility.yul\":5419:5420   */\n      0x00\n        /* \"#utility.yul\":5412:5427   */\n      revert\n        /* \"#utility.yul\":5439:5556   */\n    tag_57:\n        /* \"#utility.yul\":5548:5549   */\n      0x00\n        /* \"#utility.yul\":5545:5546   */\n      dup1\n        /* \"#utility.yul\":5538:5550   */\n      revert\n        /* \"#utility.yul\":5562:5679   */\n    tag_42:\n        /* \"#utility.yul\":5671:5672   */\n      0x00\n        /* \"#utility.yul\":5668:5669   */\n      dup1\n        /* \"#utility.yul\":5661:5673   */\n      revert\n        /* \"#utility.yul\":5685:5802   */\n    tag_65:\n        /* \"#utility.yul\":5794:5795   */\n      0x00\n        /* \"#utility.yul\":5791:5792   */\n      dup1\n        /* \"#utility.yul\":5784:5796   */\n      revert\n        /* \"#utility.yul\":5808:5925   */\n    tag_62:\n        /* \"#utility.yul\":5917:5918   */\n      0x00\n        /* \"#utility.yul\":5914:5915   */\n      dup1\n        /* \"#utility.yul\":5907:5919   */\n      revert\n        /* \"#utility.yul\":5931:6033   */\n    tag_86:\n        /* \"#utility.yul\":5972:5978   */\n      0x00\n        /* \"#utility.yul\":6023:6025   */\n      0x1f\n        /* \"#utility.yul\":6019:6026   */\n      not\n        /* \"#utility.yul\":6014:6016   */\n      0x1f\n        /* \"#utility.yul\":6007:6012   */\n      dup4\n        /* \"#utility.yul\":6003:6017   */\n      add\n        /* \"#utility.yul\":5999:6027   */\n      and\n        /* \"#utility.yul\":5989:6027   */\n      swap1\n      pop\n        /* \"#utility.yul\":5931:6033   */\n      swap2\n      swap1\n      pop\n      jump\t// out\n        /* \"#utility.yul\":6039:6155   */\n    tag_48:\n        /* \"#utility.yul\":6109:6130   */\n      tag_129\n        /* \"#utility.yul\":6124:6129   */\n      dup2\n        /* \"#utility.yul\":6109:6130   */\n      tag_72\n      jump\t// in\n    tag_129:\n        /* \"#utility.yul\":6102:6107   */\n      dup2\n        /* \"#utility.yul\":6099:6131   */\n      eq\n        /* \"#utility.yul\":6089:6149   */\n      tag_130\n      jumpi\n        /* \"#utility.yul\":6145:6146   */\n      0x00\n        /* \"#utility.yul\":6142:6143   */\n      dup1\n        /* \"#utility.yul\":6135:6147   */\n      revert\n        /* \"#utility.yul\":6089:6149   */\n    tag_130:\n        /* \"#utility.yul\":6039:6155   */\n      pop\n      jump\t// out\n        /* \"#utility.yul\":6161:6281   */\n    tag_52:\n        /* \"#utility.yul\":6233:6256   */\n      tag_132\n        /* \"#utility.yul\":6250:6255   */\n      dup2\n        /* \"#utility.yul\":6233:6256   */\n      tag_76\n      jump\t// in\n    tag_132:\n        /* \"#utility.yul\":6226:6231   */\n      dup2\n        /* \"#utility.yul\":6223:6257   */\n      eq\n        /* \"#utility.yul\":6213:6275   */\n      tag_133\n      jumpi\n        /* \"#utility.yul\":6271:6272   */\n      0x00\n        /* \"#utility.yul\":6268:6269   */\n      dup1\n        /* \"#utility.yul\":6261:6273   */\n      revert\n        /* \"#utility.yul\":6213:6275   */\n    tag_133:\n        /* \"#utility.yul\":6161:6281   */\n      pop\n      jump\t// out\n\n    auxdata: 0xa2646970667358221220848dbc61f6c023a0d910b1983e9d1b1de7c1711a418d2a77df39fb00018142eb64736f6c63430008070033\n}\n",
				"bytecode": {
					"linkReferences": {},
					"object": "608060405234801561001057600080fd5b506105ef806100206000396000f3fe608060405234801561001057600080fd5b50600436106100365760003560e01c806320d55f5a1461003b57806322c1340c14610057575b600080fd5b610055600480360381019061005091906102d7565b610077565b005b61005f6100ed565b60405161006e9392919061039d565b60405180910390f35b8260008001908051906020019061008f92919061019a565b5081600060010160006101000a81548160ff0219169083151502179055507fea4746028160fd5712ca429f649a8e93b293c7a17c876ca48b7766543f68b4ba8383836040516100e09392919061039d565b60405180910390a1505050565b60008060000180546100fe906104a5565b80601f016020809104026020016040519081016040528092919081815260200182805461012a906104a5565b80156101775780601f1061014c57610100808354040283529160200191610177565b820191906000526020600020905b81548152906001019060200180831161015a57829003601f168201915b5050505050908060010160009054906101000a900460ff16908060020154905083565b8280546101a6906104a5565b90600052602060002090601f0160209004810192826101c8576000855561020f565b82601f106101e157805160ff191683800117855561020f565b8280016001018555821561020f579182015b8281111561020e5782518255916020019190600101906101f3565b5b50905061021c9190610220565b5090565b5b80821115610239576000816000905550600101610221565b5090565b600061025061024b84610400565b6103db565b90508281526020810184848401111561026c5761026b61056b565b5b610277848285610463565b509392505050565b60008135905061028e8161058b565b92915050565b6000813590506102a3816105a2565b92915050565b600082601f8301126102be576102bd610566565b5b81356102ce84826020860161023d565b91505092915050565b6000806000606084860312156102f0576102ef610575565b5b600084013567ffffffffffffffff81111561030e5761030d610570565b5b61031a868287016102a9565b935050602061032b8682870161027f565b925050604061033c86828701610294565b9150509250925092565b61034f8161044d565b82525050565b61035e81610459565b82525050565b600061036f82610431565b610379818561043c565b9350610389818560208601610472565b6103928161057a565b840191505092915050565b600060608201905081810360008301526103b78186610364565b90506103c66020830185610346565b6103d36040830184610355565b949350505050565b60006103e56103f6565b90506103f182826104d7565b919050565b6000604051905090565b600067ffffffffffffffff82111561041b5761041a610537565b5b6104248261057a565b9050602081019050919050565b600081519050919050565b600082825260208201905092915050565b60008115159050919050565b6000819050919050565b82818337600083830152505050565b60005b83811015610490578082015181840152602081019050610475565b8381111561049f576000848401525b50505050565b600060028204905060018216806104bd57607f821691505b602082108114156104d1576104d0610508565b5b50919050565b6104e08261057a565b810181811067ffffffffffffffff821117156104ff576104fe610537565b5b80604052505050565b7f4e487b7100000000000000000000000000000000000000000000000000000000600052602260045260246000fd5b7f4e487b7100000000000000000000000000000000000000000000000000000000600052604160045260246000fd5b600080fd5b600080fd5b600080fd5b600080fd5b6000601f19601f8301169050919050565b6105948161044d565b811461059f57600080fd5b50565b6105ab81610459565b81146105b657600080fd5b5056fea2646970667358221220848dbc61f6c023a0d910b1983e9d1b1de7c1711a418d2a77df39fb00018142eb64736f6c63430008070033",
					"opcodes": "PUSH1 0x80 PUSH1 0x40 MSTORE CALLVALUE DUP1 ISZERO PUSH2 0x10 JUMPI PUSH1 0x0 DUP1 REVERT JUMPDEST POP PUSH2 0x5EF DUP1 PUSH2 0x20 PUSH1 0x0 CODECOPY PUSH1 0x0 RETURN INVALID PUSH1 0x80 PUSH1 0x40 MSTORE CALLVALUE DUP1 ISZERO PUSH2 0x10 JUMPI PUSH1 0x0 DUP1 REVERT JUMPDEST POP PUSH1 0x4 CALLDATASIZE LT PUSH2 0x36 JUMPI PUSH1 0x0 CALLDATALOAD PUSH1 0xE0 SHR DUP1 PUSH4 0x20D55F5A EQ PUSH2 0x3B JUMPI DUP1 PUSH4 0x22C1340C EQ PUSH2 0x57 JUMPI JUMPDEST PUSH1 0x0 DUP1 REVERT JUMPDEST PUSH2 0x55 PUSH1 0x4 DUP1 CALLDATASIZE SUB DUP2 ADD SWAP1 PUSH2 0x50 SWAP2 SWAP1 PUSH2 0x2D7 JUMP JUMPDEST PUSH2 0x77 JUMP JUMPDEST STOP JUMPDEST PUSH2 0x5F PUSH2 0xED JUMP JUMPDEST PUSH1 0x40 MLOAD PUSH2 0x6E SWAP4 SWAP3 SWAP2 SWAP1 PUSH2 0x39D JUMP JUMPDEST PUSH1 0x40 MLOAD DUP1 SWAP2 SUB SWAP1 RETURN JUMPDEST DUP3 PUSH1 0x0 DUP1 ADD SWAP1 DUP1 MLOAD SWAP1 PUSH1 0x20 ADD SWAP1 PUSH2 0x8F SWAP3 SWAP2 SWAP1 PUSH2 0x19A JUMP JUMPDEST POP DUP2 PUSH1 0x0 PUSH1 0x1 ADD PUSH1 0x0 PUSH2 0x100 EXP DUP2 SLOAD DUP2 PUSH1 0xFF MUL NOT AND SWAP1 DUP4 ISZERO ISZERO MUL OR SWAP1 SSTORE POP PUSH32 0xEA4746028160FD5712CA429F649A8E93B293C7A17C876CA48B7766543F68B4BA DUP4 DUP4 DUP4 PUSH1 0x40 MLOAD PUSH2 0xE0 SWAP4 SWAP3 SWAP2 SWAP1 PUSH2 0x39D JUMP JUMPDEST PUSH1 0x40 MLOAD DUP1 SWAP2 SUB SWAP1 LOG1 POP POP POP JUMP JUMPDEST PUSH1 0x0 DUP1 PUSH1 0x0 ADD DUP1 SLOAD PUSH2 0xFE SWAP1 PUSH2 0x4A5 JUMP JUMPDEST DUP1 PUSH1 0x1F ADD PUSH1 0x20 DUP1 SWAP2 DIV MUL PUSH1 0x20 ADD PUSH1 0x40 MLOAD SWAP1 DUP2 ADD PUSH1 0x40 MSTORE DUP1 SWAP3 SWAP2 SWAP1 DUP2 DUP2 MSTORE PUSH1 0x20 ADD DUP3 DUP1 SLOAD PUSH2 0x12A SWAP1 PUSH2 0x4A5 JUMP JUMPDEST DUP1 ISZERO PUSH2 0x177 JUMPI DUP1 PUSH1 0x1F LT PUSH2 0x14C JUMPI PUSH2 0x100 DUP1 DUP4 SLOAD DIV MUL DUP4 MSTORE SWAP2 PUSH1 0x20 ADD SWAP2 PUSH2 0x177 JUMP JUMPDEST DUP3 ADD SWAP2 SWAP1 PUSH1 0x0 MSTORE PUSH1 0x20 PUSH1 0x0 KECCAK256 SWAP1 JUMPDEST DUP2 SLOAD DUP2 MSTORE SWAP1 PUSH1 0x1 ADD SWAP1 PUSH1 0x20 ADD DUP1 DUP4 GT PUSH2 0x15A JUMPI DUP3 SWAP1 SUB PUSH1 0x1F AND DUP3 ADD SWAP2 JUMPDEST POP POP POP POP POP SWAP1 DUP1 PUSH1 0x1 ADD PUSH1 0x0 SWAP1 SLOAD SWAP1 PUSH2 0x100 EXP SWAP1 DIV PUSH1 0xFF AND SWAP1 DUP1 PUSH1 0x2 ADD SLOAD SWAP1 POP DUP4 JUMP JUMPDEST DUP3 DUP1 SLOAD PUSH2 0x1A6 SWAP1 PUSH2 0x4A5 JUMP JUMPDEST SWAP1 PUSH1 0x0 MSTORE PUSH1 0x20 PUSH1 0x0 KECCAK256 SWAP1 PUSH1 0x1F ADD PUSH1 0x20 SWAP1 DIV DUP2 ADD SWAP3 DUP3 PUSH2 0x1C8 JUMPI PUSH1 0x0 DUP6 SSTORE PUSH2 0x20F JUMP JUMPDEST DUP3 PUSH1 0x1F LT PUSH2 0x1E1 JUMPI DUP1 MLOAD PUSH1 0xFF NOT AND DUP4 DUP1 ADD OR DUP6 SSTORE PUSH2 0x20F JUMP JUMPDEST DUP3 DUP1 ADD PUSH1 0x1 ADD DUP6 SSTORE DUP3 ISZERO PUSH2 0x20F JUMPI SWAP2 DUP3 ADD JUMPDEST DUP3 DUP2 GT ISZERO PUSH2 0x20E JUMPI DUP3 MLOAD DUP3 SSTORE SWAP2 PUSH1 0x20 ADD SWAP2 SWAP1 PUSH1 0x1 ADD SWAP1 PUSH2 0x1F3 JUMP JUMPDEST JUMPDEST POP SWAP1 POP PUSH2 0x21C SWAP2 SWAP1 PUSH2 0x220 JUMP JUMPDEST POP SWAP1 JUMP JUMPDEST JUMPDEST DUP1 DUP3 GT ISZERO PUSH2 0x239 JUMPI PUSH1 0x0 DUP2 PUSH1 0x0 SWAP1 SSTORE POP PUSH1 0x1 ADD PUSH2 0x221 JUMP JUMPDEST POP SWAP1 JUMP JUMPDEST PUSH1 0x0 PUSH2 0x250 PUSH2 0x24B DUP5 PUSH2 0x400 JUMP JUMPDEST PUSH2 0x3DB JUMP JUMPDEST SWAP1 POP DUP3 DUP2 MSTORE PUSH1 0x20 DUP2 ADD DUP5 DUP5 DUP5 ADD GT ISZERO PUSH2 0x26C JUMPI PUSH2 0x26B PUSH2 0x56B JUMP JUMPDEST JUMPDEST PUSH2 0x277 DUP5 DUP3 DUP6 PUSH2 0x463 JUMP JUMPDEST POP SWAP4 SWAP3 POP POP POP JUMP JUMPDEST PUSH1 0x0 DUP2 CALLDATALOAD SWAP1 POP PUSH2 0x28E DUP2 PUSH2 0x58B JUMP JUMPDEST SWAP3 SWAP2 POP POP JUMP JUMPDEST PUSH1 0x0 DUP2 CALLDATALOAD SWAP1 POP PUSH2 0x2A3 DUP2 PUSH2 0x5A2 JUMP JUMPDEST SWAP3 SWAP2 POP POP JUMP JUMPDEST PUSH1 0x0 DUP3 PUSH1 0x1F DUP4 ADD SLT PUSH2 0x2BE JUMPI PUSH2 0x2BD PUSH2 0x566 JUMP JUMPDEST JUMPDEST DUP2 CALLDATALOAD PUSH2 0x2CE DUP5 DUP3 PUSH1 0x20 DUP7 ADD PUSH2 0x23D JUMP JUMPDEST SWAP2 POP POP SWAP3 SWAP2 POP POP JUMP JUMPDEST PUSH1 0x0 DUP1 PUSH1 0x0 PUSH1 0x60 DUP5 DUP7 SUB SLT ISZERO PUSH2 0x2F0 JUMPI PUSH2 0x2EF PUSH2 0x575 JUMP JUMPDEST JUMPDEST PUSH1 0x0 DUP5 ADD CALLDATALOAD PUSH8 0xFFFFFFFFFFFFFFFF DUP2 GT ISZERO PUSH2 0x30E JUMPI PUSH2 0x30D PUSH2 0x570 JUMP JUMPDEST JUMPDEST PUSH2 0x31A DUP7 DUP3 DUP8 ADD PUSH2 0x2A9 JUMP JUMPDEST SWAP4 POP POP PUSH1 0x20 PUSH2 0x32B DUP7 DUP3 DUP8 ADD PUSH2 0x27F JUMP JUMPDEST SWAP3 POP POP PUSH1 0x40 PUSH2 0x33C DUP7 DUP3 DUP8 ADD PUSH2 0x294 JUMP JUMPDEST SWAP2 POP POP SWAP3 POP SWAP3 POP SWAP3 JUMP JUMPDEST PUSH2 0x34F DUP2 PUSH2 0x44D JUMP JUMPDEST DUP3 MSTORE POP POP JUMP JUMPDEST PUSH2 0x35E DUP2 PUSH2 0x459 JUMP JUMPDEST DUP3 MSTORE POP POP JUMP JUMPDEST PUSH1 0x0 PUSH2 0x36F DUP3 PUSH2 0x431 JUMP JUMPDEST PUSH2 0x379 DUP2 DUP6 PUSH2 0x43C JUMP JUMPDEST SWAP4 POP PUSH2 0x389 DUP2 DUP6 PUSH1 0x20 DUP7 ADD PUSH2 0x472 JUMP JUMPDEST PUSH2 0x392 DUP2 PUSH2 0x57A JUMP JUMPDEST DUP5 ADD SWAP2 POP POP SWAP3 SWAP2 POP POP JUMP JUMPDEST PUSH1 0x0 PUSH1 0x60 DUP3 ADD SWAP1 POP DUP2 DUP2 SUB PUSH1 0x0 DUP4 ADD MSTORE PUSH2 0x3B7 DUP2 DUP7 PUSH2 0x364 JUMP JUMPDEST SWAP1 POP PUSH2 0x3C6 PUSH1 0x20 DUP4 ADD DUP6 PUSH2 0x346 JUMP JUMPDEST PUSH2 0x3D3 PUSH1 0x40 DUP4 ADD DUP5 PUSH2 0x355 JUMP JUMPDEST SWAP5 SWAP4 POP POP POP POP JUMP JUMPDEST PUSH1 0x0 PUSH2 0x3E5 PUSH2 0x3F6 JUMP JUMPDEST SWAP1 POP PUSH2 0x3F1 DUP3 DUP3 PUSH2 0x4D7 JUMP JUMPDEST SWAP2 SWAP1 POP JUMP JUMPDEST PUSH1 0x0 PUSH1 0x40 MLOAD SWAP1 POP SWAP1 JUMP JUMPDEST PUSH1 0x0 PUSH8 0xFFFFFFFFFFFFFFFF DUP3 GT ISZERO PUSH2 0x41B JUMPI PUSH2 0x41A PUSH2 0x537 JUMP JUMPDEST JUMPDEST PUSH2 0x424 DUP3 PUSH2 0x57A JUMP JUMPDEST SWAP1 POP PUSH1 0x20 DUP2 ADD SWAP1 POP SWAP2 SWAP1 POP JUMP JUMPDEST PUSH1 0x0 DUP2 MLOAD SWAP1 POP SWAP2 SWAP1 POP JUMP JUMPDEST PUSH1 0x0 DUP3 DUP3 MSTORE PUSH1 0x20 DUP3 ADD SWAP1 POP SWAP3 SWAP2 POP POP JUMP JUMPDEST PUSH1 0x0 DUP2 ISZERO ISZERO SWAP1 POP SWAP2 SWAP1 POP JUMP JUMPDEST PUSH1 0x0 DUP2 SWAP1 POP SWAP2 SWAP1 POP JUMP JUMPDEST DUP3 DUP2 DUP4 CALLDATACOPY PUSH1 0x0 DUP4 DUP4 ADD MSTORE POP POP POP JUMP JUMPDEST PUSH1 0x0 JUMPDEST DUP4 DUP2 LT ISZERO PUSH2 0x490 JUMPI DUP1 DUP3 ADD MLOAD DUP2 DUP5 ADD MSTORE PUSH1 0x20 DUP2 ADD SWAP1 POP PUSH2 0x475 JUMP JUMPDEST DUP4 DUP2 GT ISZERO PUSH2 0x49F JUMPI PUSH1 0x0 DUP5 DUP5 ADD MSTORE JUMPDEST POP POP POP POP JUMP JUMPDEST PUSH1 0x0 PUSH1 0x2 DUP3 DIV SWAP1 POP PUSH1 0x1 DUP3 AND DUP1 PUSH2 0x4BD JUMPI PUSH1 0x7F DUP3 AND SWAP2 POP JUMPDEST PUSH1 0x20 DUP3 LT DUP2 EQ ISZERO PUSH2 0x4D1 JUMPI PUSH2 0x4D0 PUSH2 0x508 JUMP JUMPDEST JUMPDEST POP SWAP2 SWAP1 POP JUMP JUMPDEST PUSH2 0x4E0 DUP3 PUSH2 0x57A JUMP JUMPDEST DUP2 ADD DUP2 DUP2 LT PUSH8 0xFFFFFFFFFFFFFFFF DUP3 GT OR ISZERO PUSH2 0x4FF JUMPI PUSH2 0x4FE PUSH2 0x537 JUMP JUMPDEST JUMPDEST DUP1 PUSH1 0x40 MSTORE POP POP POP JUMP JUMPDEST PUSH32 0x4E487B7100000000000000000000000000000000000000000000000000000000 PUSH1 0x0 MSTORE PUSH1 0x22 PUSH1 0x4 MSTORE PUSH1 0x24 PUSH1 0x0 REVERT JUMPDEST PUSH32 0x4E487B7100000000000000000000000000000000000000000000000000000000 PUSH1 0x0 MSTORE PUSH1 0x41 PUSH1 0x4 MSTORE PUSH1 0x24 PUSH1 0x0 REVERT JUMPDEST PUSH1 0x0 DUP1 REVERT JUMPDEST PUSH1 0x0 DUP1 REVERT JUMPDEST PUSH1 0x0 DUP1 REVERT JUMPDEST PUSH1 0x0 DUP1 REVERT JUMPDEST PUSH1 0x0 PUSH1 0x1F NOT PUSH1 0x1F DUP4 ADD AND SWAP1 POP SWAP2 SWAP1 POP JUMP JUMPDEST PUSH2 0x594 DUP2 PUSH2 0x44D JUMP JUMPDEST DUP2 EQ PUSH2 0x59F JUMPI PUSH1 0x0 DUP1 REVERT JUMPDEST POP JUMP JUMPDEST PUSH2 0x5AB DUP2 PUSH2 0x459 JUMP JUMPDEST DUP2 EQ PUSH2 0x5B6 JUMPI PUSH1 0x0 DUP1 REVERT JUMPDEST POP JUMP INVALID LOG2 PUSH5 0x6970667358 0x22 SLT KECCAK256 DUP5 DUP14 0xBC PUSH2 0xF6C0 0x23 LOG0 0xD9 LT 0xB1 SWAP9 RETURNDATACOPY SWAP14 SHL SAR 0xE7 0xC1 PUSH18 0x1A418D2A77DF39FB00018142EB64736F6C63 NUMBER STOP ADDMOD SMOD STOP CALLER "
				},
				"gasEstimates": {
					"creation": {
						"codeDepositCost": "303800",
						"executionCost": "343",
						"totalCost": "304143"
					},
					"external": {
						"newStudent()": "infinite",
						"registerStudent(string,bool,int256)": "infinite"
					}
				},
				"methodIdentifiers": {
					"newStudent()": "22c1340c",
					"registerStudent(string,bool,int256)": "20d55f5a"
				}
			},
			"userdoc": {
				"kind": "user",
				"methods": {},
				"version": 1
			}
		}
	}
}