{
	"training/contracts/Polymorfizm.sol": {
		"Poly": {
			"abi": [
				{
					"inputs": [
						{
							"internalType": "int256",
							"name": "a",
							"type": "int256"
						},
						{
							"internalType": "int256",
							"name": "b",
							"type": "int256"
						}
					],
					"name": "sum",
					"outputs": [
						{
							"internalType": "int256",
							"name": "",
							"type": "int256"
						}
					],
					"stateMutability": "pure",
					"type": "function"
				},
				{
					"inputs": [
						{
							"internalType": "int256",
							"name": "a",
							"type": "int256"
						},
						{
							"internalType": "int256",
							"name": "b",
							"type": "int256"
						},
						{
							"internalType": "int256",
							"name": "c",
							"type": "int256"
						}
					],
					"name": "sum",
					"outputs": [
						{
							"internalType": "int256",
							"name": "",
							"type": "int256"
						}
					],
					"stateMutability": "pure",
					"type": "function"
				}
			],
			"devdoc": {
				"kind": "dev",
				"methods": {},
				"version": 1
			},
			"evm": {
				"assembly": "    /* \"training/contracts/Polymorfizm.sol\":33:227  contract Poly{... */\n  mstore(0x40, 0x80)\n  callvalue\n  dup1\n  iszero\n  tag_1\n  jumpi\n  0x00\n  dup1\n  revert\ntag_1:\n  pop\n  dataSize(sub_0)\n  dup1\n  dataOffset(sub_0)\n  0x00\n  codecopy\n  0x00\n  return\nstop\n\nsub_0: assembly {\n        /* \"training/contracts/Polymorfizm.sol\":33:227  contract Poly{... */\n      mstore(0x40, 0x80)\n      callvalue\n      dup1\n      iszero\n      tag_1\n      jumpi\n      0x00\n      dup1\n      revert\n    tag_1:\n      pop\n      jumpi(tag_2, lt(calldatasize, 0x04))\n      shr(0xe0, calldataload(0x00))\n      dup1\n      0x9967062d\n      eq\n      tag_3\n      jumpi\n      dup1\n      0xa7e04671\n      eq\n      tag_4\n      jumpi\n    tag_2:\n      0x00\n      dup1\n      revert\n        /* \"training/contracts/Polymorfizm.sol\":52:130  function sum(int a, int b) public pure returns(int){... */\n    tag_3:\n      tag_5\n      0x04\n      dup1\n      calldatasize\n      sub\n      dup2\n      add\n      swap1\n      tag_6\n      swap2\n      swap1\n      tag_7\n      jump\t// in\n    tag_6:\n      tag_8\n      jump\t// in\n    tag_5:\n      mload(0x40)\n      tag_9\n      swap2\n      swap1\n      tag_10\n      jump\t// in\n    tag_9:\n      mload(0x40)\n      dup1\n      swap2\n      sub\n      swap1\n      return\n        /* \"training/contracts/Polymorfizm.sol\":136:223  function sum(int a, int b, int c) public pure returns(int){... */\n    tag_4:\n      tag_11\n      0x04\n      dup1\n      calldatasize\n      sub\n      dup2\n      add\n      swap1\n      tag_12\n      swap2\n      swap1\n      tag_13\n      jump\t// in\n    tag_12:\n      tag_14\n      jump\t// in\n    tag_11:\n      mload(0x40)\n      tag_15\n      swap2\n      swap1\n      tag_10\n      jump\t// in\n    tag_15:\n      mload(0x40)\n      dup1\n      swap2\n      sub\n      swap1\n      return\n        /* \"training/contracts/Polymorfizm.sol\":52:130  function sum(int a, int b) public pure returns(int){... */\n    tag_8:\n        /* \"training/contracts/Polymorfizm.sol\":99:102  int */\n      0x00\n        /* \"training/contracts/Polymorfizm.sol\":122:123  b */\n      dup2\n        /* \"training/contracts/Polymorfizm.sol\":120:121  a */\n      dup4\n        /* \"training/contracts/Polymorfizm.sol\":120:123  a+b */\n      tag_17\n      swap2\n      swap1\n      tag_18\n      jump\t// in\n    tag_17:\n        /* \"training/contracts/Polymorfizm.sol\":113:123  return a+b */\n      swap1\n      pop\n        /* \"training/contracts/Polymorfizm.sol\":52:130  function sum(int a, int b) public pure returns(int){... */\n      swap3\n      swap2\n      pop\n      pop\n      jump\t// out\n        /* \"training/contracts/Polymorfizm.sol\":136:223  function sum(int a, int b, int c) public pure returns(int){... */\n    tag_14:\n        /* \"training/contracts/Polymorfizm.sol\":190:193  int */\n      0x00\n        /* \"training/contracts/Polymorfizm.sol\":215:216  c */\n      dup2\n        /* \"training/contracts/Polymorfizm.sol\":213:214  b */\n      dup4\n        /* \"training/contracts/Polymorfizm.sol\":211:212  a */\n      dup6\n        /* \"training/contracts/Polymorfizm.sol\":211:214  a+b */\n      tag_20\n      swap2\n      swap1\n      tag_18\n      jump\t// in\n    tag_20:\n        /* \"training/contracts/Polymorfizm.sol\":211:216  a+b+c */\n      tag_21\n      swap2\n      swap1\n      tag_18\n      jump\t// in\n    tag_21:\n        /* \"training/contracts/Polymorfizm.sol\":204:216  return a+b+c */\n      swap1\n      pop\n        /* \"training/contracts/Polymorfizm.sol\":136:223  function sum(int a, int b, int c) public pure returns(int){... */\n      swap4\n      swap3\n      pop\n      pop\n      pop\n      jump\t// out\n        /* \"#utility.yul\":7:144   */\n    tag_23:\n        /* \"#utility.yul\":52:57   */\n      0x00\n        /* \"#utility.yul\":90:96   */\n      dup2\n        /* \"#utility.yul\":77:97   */\n      calldataload\n        /* \"#utility.yul\":68:97   */\n      swap1\n      pop\n        /* \"#utility.yul\":106:138   */\n      tag_25\n        /* \"#utility.yul\":132:137   */\n      dup2\n        /* \"#utility.yul\":106:138   */\n      tag_26\n      jump\t// in\n    tag_25:\n        /* \"#utility.yul\":7:144   */\n      swap3\n      swap2\n      pop\n      pop\n      jump\t// out\n        /* \"#utility.yul\":150:620   */\n    tag_7:\n        /* \"#utility.yul\":216:222   */\n      0x00\n        /* \"#utility.yul\":224:230   */\n      dup1\n        /* \"#utility.yul\":273:275   */\n      0x40\n        /* \"#utility.yul\":261:270   */\n      dup4\n        /* \"#utility.yul\":252:259   */\n      dup6\n        /* \"#utility.yul\":248:271   */\n      sub\n        /* \"#utility.yul\":244:276   */\n      slt\n        /* \"#utility.yul\":241:360   */\n      iszero\n      tag_28\n      jumpi\n        /* \"#utility.yul\":279:358   */\n      tag_29\n      tag_30\n      jump\t// in\n    tag_29:\n        /* \"#utility.yul\":241:360   */\n    tag_28:\n        /* \"#utility.yul\":399:400   */\n      0x00\n        /* \"#utility.yul\":424:476   */\n      tag_31\n        /* \"#utility.yul\":468:475   */\n      dup6\n        /* \"#utility.yul\":459:465   */\n      dup3\n        /* \"#utility.yul\":448:457   */\n      dup7\n        /* \"#utility.yul\":444:466   */\n      add\n        /* \"#utility.yul\":424:476   */\n      tag_23\n      jump\t// in\n    tag_31:\n        /* \"#utility.yul\":414:476   */\n      swap3\n      pop\n        /* \"#utility.yul\":370:486   */\n      pop\n        /* \"#utility.yul\":525:527   */\n      0x20\n        /* \"#utility.yul\":551:603   */\n      tag_32\n        /* \"#utility.yul\":595:602   */\n      dup6\n        /* \"#utility.yul\":586:592   */\n      dup3\n        /* \"#utility.yul\":575:584   */\n      dup7\n        /* \"#utility.yul\":571:593   */\n      add\n        /* \"#utility.yul\":551:603   */\n      tag_23\n      jump\t// in\n    tag_32:\n        /* \"#utility.yul\":541:603   */\n      swap2\n      pop\n        /* \"#utility.yul\":496:613   */\n      pop\n        /* \"#utility.yul\":150:620   */\n      swap3\n      pop\n      swap3\n      swap1\n      pop\n      jump\t// out\n        /* \"#utility.yul\":626:1239   */\n    tag_13:\n        /* \"#utility.yul\":700:706   */\n      0x00\n        /* \"#utility.yul\":708:714   */\n      dup1\n        /* \"#utility.yul\":716:722   */\n      0x00\n        /* \"#utility.yul\":765:767   */\n      0x60\n        /* \"#utility.yul\":753:762   */\n      dup5\n        /* \"#utility.yul\":744:751   */\n      dup7\n        /* \"#utility.yul\":740:763   */\n      sub\n        /* \"#utility.yul\":736:768   */\n      slt\n        /* \"#utility.yul\":733:852   */\n      iszero\n      tag_34\n      jumpi\n        /* \"#utility.yul\":771:850   */\n      tag_35\n      tag_30\n      jump\t// in\n    tag_35:\n        /* \"#utility.yul\":733:852   */\n    tag_34:\n        /* \"#utility.yul\":891:892   */\n      0x00\n        /* \"#utility.yul\":916:968   */\n      tag_36\n        /* \"#utility.yul\":960:967   */\n      dup7\n        /* \"#utility.yul\":951:957   */\n      dup3\n        /* \"#utility.yul\":940:949   */\n      dup8\n        /* \"#utility.yul\":936:958   */\n      add\n        /* \"#utility.yul\":916:968   */\n      tag_23\n      jump\t// in\n    tag_36:\n        /* \"#utility.yul\":906:968   */\n      swap4\n      pop\n        /* \"#utility.yul\":862:978   */\n      pop\n        /* \"#utility.yul\":1017:1019   */\n      0x20\n        /* \"#utility.yul\":1043:1095   */\n      tag_37\n        /* \"#utility.yul\":1087:1094   */\n      dup7\n        /* \"#utility.yul\":1078:1084   */\n      dup3\n        /* \"#utility.yul\":1067:1076   */\n      dup8\n        /* \"#utility.yul\":1063:1085   */\n      add\n        /* \"#utility.yul\":1043:1095   */\n      tag_23\n      jump\t// in\n    tag_37:\n        /* \"#utility.yul\":1033:1095   */\n      swap3\n      pop\n        /* \"#utility.yul\":988:1105   */\n      pop\n        /* \"#utility.yul\":1144:1146   */\n      0x40\n        /* \"#utility.yul\":1170:1222   */\n      tag_38\n        /* \"#utility.yul\":1214:1221   */\n      dup7\n        /* \"#utility.yul\":1205:1211   */\n      dup3\n        /* \"#utility.yul\":1194:1203   */\n      dup8\n        /* \"#utility.yul\":1190:1212   */\n      add\n        /* \"#utility.yul\":1170:1222   */\n      tag_23\n      jump\t// in\n    tag_38:\n        /* \"#utility.yul\":1160:1222   */\n      swap2\n      pop\n        /* \"#utility.yul\":1115:1232   */\n      pop\n        /* \"#utility.yul\":626:1239   */\n      swap3\n      pop\n      swap3\n      pop\n      swap3\n      jump\t// out\n        /* \"#utility.yul\":1245:1360   */\n    tag_39:\n        /* \"#utility.yul\":1330:1353   */\n      tag_41\n        /* \"#utility.yul\":1347:1352   */\n      dup2\n        /* \"#utility.yul\":1330:1353   */\n      tag_42\n      jump\t// in\n    tag_41:\n        /* \"#utility.yul\":1325:1328   */\n      dup3\n        /* \"#utility.yul\":1318:1354   */\n      mstore\n        /* \"#utility.yul\":1245:1360   */\n      pop\n      pop\n      jump\t// out\n        /* \"#utility.yul\":1366:1584   */\n    tag_10:\n        /* \"#utility.yul\":1457:1461   */\n      0x00\n        /* \"#utility.yul\":1495:1497   */\n      0x20\n        /* \"#utility.yul\":1484:1493   */\n      dup3\n        /* \"#utility.yul\":1480:1498   */\n      add\n        /* \"#utility.yul\":1472:1498   */\n      swap1\n      pop\n        /* \"#utility.yul\":1508:1577   */\n      tag_44\n        /* \"#utility.yul\":1574:1575   */\n      0x00\n        /* \"#utility.yul\":1563:1572   */\n      dup4\n        /* \"#utility.yul\":1559:1576   */\n      add\n        /* \"#utility.yul\":1550:1556   */\n      dup5\n        /* \"#utility.yul\":1508:1577   */\n      tag_39\n      jump\t// in\n    tag_44:\n        /* \"#utility.yul\":1366:1584   */\n      swap3\n      swap2\n      pop\n      pop\n      jump\t// out\n        /* \"#utility.yul\":1671:2196   */\n    tag_18:\n        /* \"#utility.yul\":1710:1713   */\n      0x00\n        /* \"#utility.yul\":1729:1748   */\n      tag_48\n        /* \"#utility.yul\":1746:1747   */\n      dup3\n        /* \"#utility.yul\":1729:1748   */\n      tag_42\n      jump\t// in\n    tag_48:\n        /* \"#utility.yul\":1724:1748   */\n      swap2\n      pop\n        /* \"#utility.yul\":1762:1781   */\n      tag_49\n        /* \"#utility.yul\":1779:1780   */\n      dup4\n        /* \"#utility.yul\":1762:1781   */\n      tag_42\n      jump\t// in\n    tag_49:\n        /* \"#utility.yul\":1757:1781   */\n      swap3\n      pop\n        /* \"#utility.yul\":1950:1951   */\n      dup2\n        /* \"#utility.yul\":1882:1948   */\n      0x7fffffffffffffffffffffffffffffffffffffffffffffffffffffffffffffff\n        /* \"#utility.yul\":1878:1952   */\n      sub\n        /* \"#utility.yul\":1875:1876   */\n      dup4\n        /* \"#utility.yul\":1871:1953   */\n      sgt\n        /* \"#utility.yul\":1866:1867   */\n      0x00\n        /* \"#utility.yul\":1863:1864   */\n      dup4\n        /* \"#utility.yul\":1859:1868   */\n      slt\n        /* \"#utility.yul\":1852:1869   */\n      iszero\n        /* \"#utility.yul\":1848:1954   */\n      and\n        /* \"#utility.yul\":1845:1977   */\n      iszero\n      tag_50\n      jumpi\n        /* \"#utility.yul\":1957:1975   */\n      tag_51\n      tag_52\n      jump\t// in\n    tag_51:\n        /* \"#utility.yul\":1845:1977   */\n    tag_50:\n        /* \"#utility.yul\":2137:2138   */\n      dup2\n        /* \"#utility.yul\":2069:2135   */\n      0x8000000000000000000000000000000000000000000000000000000000000000\n        /* \"#utility.yul\":2065:2139   */\n      sub\n        /* \"#utility.yul\":2062:2063   */\n      dup4\n        /* \"#utility.yul\":2058:2140   */\n      slt\n        /* \"#utility.yul\":2054:2055   */\n      0x00\n        /* \"#utility.yul\":2051:2052   */\n      dup4\n        /* \"#utility.yul\":2047:2056   */\n      slt\n        /* \"#utility.yul\":2043:2141   */\n      and\n        /* \"#utility.yul\":2040:2164   */\n      iszero\n      tag_53\n      jumpi\n        /* \"#utility.yul\":2144:2162   */\n      tag_54\n      tag_52\n      jump\t// in\n    tag_54:\n        /* \"#utility.yul\":2040:2164   */\n    tag_53:\n        /* \"#utility.yul\":2188:2189   */\n      dup3\n        /* \"#utility.yul\":2185:2186   */\n      dup3\n        /* \"#utility.yul\":2181:2190   */\n      add\n        /* \"#utility.yul\":2174:2190   */\n      swap1\n      pop\n        /* \"#utility.yul\":1671:2196   */\n      swap3\n      swap2\n      pop\n      pop\n      jump\t// out\n        /* \"#utility.yul\":2202:2278   */\n    tag_42:\n        /* \"#utility.yul\":2238:2245   */\n      0x00\n        /* \"#utility.yul\":2267:2272   */\n      dup2\n        /* \"#utility.yul\":2256:2272   */\n      swap1\n      pop\n        /* \"#utility.yul\":2202:2278   */\n      swap2\n      swap1\n      pop\n      jump\t// out\n        /* \"#utility.yul\":2284:2464   */\n    tag_52:\n        /* \"#utility.yul\":2332:2409   */\n      0x4e487b7100000000000000000000000000000000000000000000000000000000\n        /* \"#utility.yul\":2329:2330   */\n      0x00\n        /* \"#utility.yul\":2322:2410   */\n      mstore\n        /* \"#utility.yul\":2429:2433   */\n      0x11\n        /* \"#utility.yul\":2426:2427   */\n      0x04\n        /* \"#utility.yul\":2419:2434   */\n      mstore\n        /* \"#utility.yul\":2453:2457   */\n      0x24\n        /* \"#utility.yul\":2450:2451   */\n      0x00\n        /* \"#utility.yul\":2443:2458   */\n      revert\n        /* \"#utility.yul\":2593:2710   */\n    tag_30:\n        /* \"#utility.yul\":2702:2703   */\n      0x00\n        /* \"#utility.yul\":2699:2700   */\n      dup1\n        /* \"#utility.yul\":2692:2704   */\n      revert\n        /* \"#utility.yul\":2716:2836   */\n    tag_26:\n        /* \"#utility.yul\":2788:2811   */\n      tag_61\n        /* \"#utility.yul\":2805:2810   */\n      dup2\n        /* \"#utility.yul\":2788:2811   */\n      tag_42\n      jump\t// in\n    tag_61:\n        /* \"#utility.yul\":2781:2786   */\n      dup2\n        /* \"#utility.yul\":2778:2812   */\n      eq\n        /* \"#utility.yul\":2768:2830   */\n      tag_62\n      jumpi\n        /* \"#utility.yul\":2826:2827   */\n      0x00\n        /* \"#utility.yul\":2823:2824   */\n      dup1\n        /* \"#utility.yul\":2816:2828   */\n      revert\n        /* \"#utility.yul\":2768:2830   */\n    tag_62:\n        /* \"#utility.yul\":2716:2836   */\n      pop\n      jump\t// out\n\n    auxdata: 0xa2646970667358221220144e8b30e808f31dafb20423f4a683766ac787e65ffa23a3324e51d17504ee5564736f6c63430008070033\n}\n",
				"bytecode": {
					"linkReferences": {},
					"object": "608060405234801561001057600080fd5b506102c4806100206000396000f3fe608060405234801561001057600080fd5b50600436106100365760003560e01c80639967062d1461003b578063a7e046711461006b575b600080fd5b610055600480360381019061005091906100e8565b61009b565b604051610062919061018a565b60405180910390f35b61008560048036038101906100809190610128565b6100b1565b604051610092919061018a565b60405180910390f35b600081836100a991906101a5565b905092915050565b60008183856100c091906101a5565b6100ca91906101a5565b90509392505050565b6000813590506100e281610277565b92915050565b600080604083850312156100ff576100fe610272565b5b600061010d858286016100d3565b925050602061011e858286016100d3565b9150509250929050565b60008060006060848603121561014157610140610272565b5b600061014f868287016100d3565b9350506020610160868287016100d3565b9250506040610171868287016100d3565b9150509250925092565b61018481610239565b82525050565b600060208201905061019f600083018461017b565b92915050565b60006101b082610239565b91506101bb83610239565b9250817f7fffffffffffffffffffffffffffffffffffffffffffffffffffffffffffffff038313600083121516156101f6576101f5610243565b5b817f800000000000000000000000000000000000000000000000000000000000000003831260008312161561022e5761022d610243565b5b828201905092915050565b6000819050919050565b7f4e487b7100000000000000000000000000000000000000000000000000000000600052601160045260246000fd5b600080fd5b61028081610239565b811461028b57600080fd5b5056fea2646970667358221220144e8b30e808f31dafb20423f4a683766ac787e65ffa23a3324e51d17504ee5564736f6c63430008070033",
					"opcodes": "PUSH1 0x80 PUSH1 0x40 MSTORE CALLVALUE DUP1 ISZERO PUSH2 0x10 JUMPI PUSH1 0x0 DUP1 REVERT JUMPDEST POP PUSH2 0x2C4 DUP1 PUSH2 0x20 PUSH1 0x0 CODECOPY PUSH1 0x0 RETURN INVALID PUSH1 0x80 PUSH1 0x40 MSTORE CALLVALUE DUP1 ISZERO PUSH2 0x10 JUMPI PUSH1 0x0 DUP1 REVERT JUMPDEST POP PUSH1 0x4 CALLDATASIZE LT PUSH2 0x36 JUMPI PUSH1 0x0 CALLDATALOAD PUSH1 0xE0 SHR DUP1 PUSH4 0x9967062D EQ PUSH2 0x3B JUMPI DUP1 PUSH4 0xA7E04671 EQ PUSH2 0x6B JUMPI JUMPDEST PUSH1 0x0 DUP1 REVERT JUMPDEST PUSH2 0x55 PUSH1 0x4 DUP1 CALLDATASIZE SUB DUP2 ADD SWAP1 PUSH2 0x50 SWAP2 SWAP1 PUSH2 0xE8 JUMP JUMPDEST PUSH2 0x9B JUMP JUMPDEST PUSH1 0x40 MLOAD PUSH2 0x62 SWAP2 SWAP1 PUSH2 0x18A JUMP JUMPDEST PUSH1 0x40 MLOAD DUP1 SWAP2 SUB SWAP1 RETURN JUMPDEST PUSH2 0x85 PUSH1 0x4 DUP1 CALLDATASIZE SUB DUP2 ADD SWAP1 PUSH2 0x80 SWAP2 SWAP1 PUSH2 0x128 JUMP JUMPDEST PUSH2 0xB1 JUMP JUMPDEST PUSH1 0x40 MLOAD PUSH2 0x92 SWAP2 SWAP1 PUSH2 0x18A JUMP JUMPDEST PUSH1 0x40 MLOAD DUP1 SWAP2 SUB SWAP1 RETURN JUMPDEST PUSH1 0x0 DUP2 DUP4 PUSH2 0xA9 SWAP2 SWAP1 PUSH2 0x1A5 JUMP JUMPDEST SWAP1 POP SWAP3 SWAP2 POP POP JUMP JUMPDEST PUSH1 0x0 DUP2 DUP4 DUP6 PUSH2 0xC0 SWAP2 SWAP1 PUSH2 0x1A5 JUMP JUMPDEST PUSH2 0xCA SWAP2 SWAP1 PUSH2 0x1A5 JUMP JUMPDEST SWAP1 POP SWAP4 SWAP3 POP POP POP JUMP JUMPDEST PUSH1 0x0 DUP2 CALLDATALOAD SWAP1 POP PUSH2 0xE2 DUP2 PUSH2 0x277 JUMP JUMPDEST SWAP3 SWAP2 POP POP JUMP JUMPDEST PUSH1 0x0 DUP1 PUSH1 0x40 DUP4 DUP6 SUB SLT ISZERO PUSH2 0xFF JUMPI PUSH2 0xFE PUSH2 0x272 JUMP JUMPDEST JUMPDEST PUSH1 0x0 PUSH2 0x10D DUP6 DUP3 DUP7 ADD PUSH2 0xD3 JUMP JUMPDEST SWAP3 POP POP PUSH1 0x20 PUSH2 0x11E DUP6 DUP3 DUP7 ADD PUSH2 0xD3 JUMP JUMPDEST SWAP2 POP POP SWAP3 POP SWAP3 SWAP1 POP JUMP JUMPDEST PUSH1 0x0 DUP1 PUSH1 0x0 PUSH1 0x60 DUP5 DUP7 SUB SLT ISZERO PUSH2 0x141 JUMPI PUSH2 0x140 PUSH2 0x272 JUMP JUMPDEST JUMPDEST PUSH1 0x0 PUSH2 0x14F DUP7 DUP3 DUP8 ADD PUSH2 0xD3 JUMP JUMPDEST SWAP4 POP POP PUSH1 0x20 PUSH2 0x160 DUP7 DUP3 DUP8 ADD PUSH2 0xD3 JUMP JUMPDEST SWAP3 POP POP PUSH1 0x40 PUSH2 0x171 DUP7 DUP3 DUP8 ADD PUSH2 0xD3 JUMP JUMPDEST SWAP2 POP POP SWAP3 POP SWAP3 POP SWAP3 JUMP JUMPDEST PUSH2 0x184 DUP2 PUSH2 0x239 JUMP JUMPDEST DUP3 MSTORE POP POP JUMP JUMPDEST PUSH1 0x0 PUSH1 0x20 DUP3 ADD SWAP1 POP PUSH2 0x19F PUSH1 0x0 DUP4 ADD DUP5 PUSH2 0x17B JUMP JUMPDEST SWAP3 SWAP2 POP POP JUMP JUMPDEST PUSH1 0x0 PUSH2 0x1B0 DUP3 PUSH2 0x239 JUMP JUMPDEST SWAP2 POP PUSH2 0x1BB DUP4 PUSH2 0x239 JUMP JUMPDEST SWAP3 POP DUP2 PUSH32 0x7FFFFFFFFFFFFFFFFFFFFFFFFFFFFFFFFFFFFFFFFFFFFFFFFFFFFFFFFFFFFFFF SUB DUP4 SGT PUSH1 0x0 DUP4 SLT ISZERO AND ISZERO PUSH2 0x1F6 JUMPI PUSH2 0x1F5 PUSH2 0x243 JUMP JUMPDEST JUMPDEST DUP2 PUSH32 0x8000000000000000000000000000000000000000000000000000000000000000 SUB DUP4 SLT PUSH1 0x0 DUP4 SLT AND ISZERO PUSH2 0x22E JUMPI PUSH2 0x22D PUSH2 0x243 JUMP JUMPDEST JUMPDEST DUP3 DUP3 ADD SWAP1 POP SWAP3 SWAP2 POP POP JUMP JUMPDEST PUSH1 0x0 DUP2 SWAP1 POP SWAP2 SWAP1 POP JUMP JUMPDEST PUSH32 0x4E487B7100000000000000000000000000000000000000000000000000000000 PUSH1 0x0 MSTORE PUSH1 0x11 PUSH1 0x4 MSTORE PUSH1 0x24 PUSH1 0x0 REVERT JUMPDEST PUSH1 0x0 DUP1 REVERT JUMPDEST PUSH2 0x280 DUP2 PUSH2 0x239 JUMP JUMPDEST DUP2 EQ PUSH2 0x28B JUMPI PUSH1 0x0 DUP1 REVERT JUMPDEST POP JUMP INVALID LOG2 PUSH5 0x6970667358 0x22 SLT KECCAK256 EQ 0x4E DUP12 ADDRESS 0xE8 ADDMOD RETURN SAR 0xAF 0xB2 DIV 0x23 DELEGATECALL 0xA6 DUP4 PUSH23 0x6AC787E65FFA23A3324E51D17504EE5564736F6C634300 ADDMOD SMOD STOP CALLER "
				},
				"gasEstimates": {
					"creation": {
						"codeDepositCost": "141600",
						"executionCost": "190",
						"totalCost": "141790"
					},
					"external": {
						"sum(int256,int256)": "infinite",
						"sum(int256,int256,int256)": "infinite"
					}
				},
				"methodIdentifiers": {
					"sum(int256,int256)": "9967062d",
					"sum(int256,int256,int256)": "a7e04671"
				}
			},
			"storageLayout": {
				"storage": [],
				"types": null
			},
			"userdoc": {
				"kind": "user",
				"methods": {},
				"version": 1
			}
		}
	}
}