{
	"training/contracts/lottery2.sol": {
		"Lottery": {
			"abi": [
				{
					"inputs": [],
					"stateMutability": "nonpayable",
					"type": "constructor"
				},
				{
					"anonymous": false,
					"inputs": [
						{
							"indexed": false,
							"internalType": "address",
							"name": "player",
							"type": "address"
						},
						{
							"indexed": false,
							"internalType": "uint256",
							"name": "amount",
							"type": "uint256"
						}
					],
					"name": "playerInvested",
					"type": "event"
				},
				{
					"anonymous": false,
					"inputs": [
						{
							"indexed": false,
							"internalType": "address",
							"name": "winner",
							"type": "address"
						},
						{
							"indexed": false,
							"internalType": "uint256",
							"name": "amount",
							"type": "uint256"
						}
					],
					"name": "winnerSelected",
					"type": "event"
				},
				{
					"inputs": [],
					"name": "getBalance",
					"outputs": [
						{
							"internalType": "uint256",
							"name": "",
							"type": "uint256"
						}
					],
					"stateMutability": "view",
					"type": "function"
				},
				{
					"inputs": [],
					"name": "invest",
					"outputs": [],
					"stateMutability": "payable",
					"type": "function"
				},
				{
					"inputs": [],
					"name": "manager",
					"outputs": [
						{
							"internalType": "address",
							"name": "",
							"type": "address"
						}
					],
					"stateMutability": "view",
					"type": "function"
				},
				{
					"inputs": [
						{
							"internalType": "uint256",
							"name": "",
							"type": "uint256"
						}
					],
					"name": "players",
					"outputs": [
						{
							"internalType": "address payable",
							"name": "",
							"type": "address"
						}
					],
					"stateMutability": "view",
					"type": "function"
				},
				{
					"inputs": [],
					"name": "selectWinner",
					"outputs": [],
					"stateMutability": "nonpayable",
					"type": "function"
				}
			],
			"devdoc": {
				"kind": "dev",
				"methods": {},
				"version": 1
			},
			"evm": {
				"assembly": "    /* \"training/contracts/lottery2.sol\":61:1415  contract Lottery{... */\n  mstore(0x40, 0x80)\n    /* \"training/contracts/lottery2.sol\":154:210  constructor() public {... */\n  callvalue\n  dup1\n  iszero\n  tag_1\n  jumpi\n  0x00\n  dup1\n  revert\ntag_1:\n  pop\n    /* \"training/contracts/lottery2.sol\":193:203  msg.sender */\n  caller\n    /* \"training/contracts/lottery2.sol\":185:192  manager */\n  0x00\n  dup1\n    /* \"training/contracts/lottery2.sol\":185:203  manager=msg.sender */\n  0x0100\n  exp\n  dup2\n  sload\n  dup2\n  0xffffffffffffffffffffffffffffffffffffffff\n  mul\n  not\n  and\n  swap1\n  dup4\n  0xffffffffffffffffffffffffffffffffffffffff\n  and\n  mul\n  or\n  swap1\n  sstore\n  pop\n    /* \"training/contracts/lottery2.sol\":61:1415  contract Lottery{... */\n  dataSize(sub_0)\n  dup1\n  dataOffset(sub_0)\n  0x00\n  codecopy\n  0x00\n  return\nstop\n\nsub_0: assembly {\n        /* \"training/contracts/lottery2.sol\":61:1415  contract Lottery{... */\n      mstore(0x40, 0x80)\n      jumpi(tag_1, lt(calldatasize, 0x04))\n      shr(0xe0, calldataload(0x00))\n      dup1\n      0x12065fe0\n      eq\n      tag_2\n      jumpi\n      dup1\n      0x33a99e04\n      eq\n      tag_3\n      jumpi\n      dup1\n      0x481c6a75\n      eq\n      tag_4\n      jumpi\n      dup1\n      0xe8b5e51f\n      eq\n      tag_5\n      jumpi\n      dup1\n      0xf71d96cb\n      eq\n      tag_6\n      jumpi\n    tag_1:\n      0x00\n      dup1\n      revert\n        /* \"training/contracts/lottery2.sol\":812:917  function getBalance() public view onlyManager returns(uint) {... */\n    tag_2:\n      callvalue\n      dup1\n      iszero\n      tag_7\n      jumpi\n      0x00\n      dup1\n      revert\n    tag_7:\n      pop\n      tag_8\n      tag_9\n      jump\t// in\n    tag_8:\n      mload(0x40)\n      tag_10\n      swap2\n      swap1\n      tag_11\n      jump\t// in\n    tag_10:\n      mload(0x40)\n      dup1\n      swap2\n      sub\n      swap1\n      return\n        /* \"training/contracts/lottery2.sol\":1089:1403  function selectWinner()  public onlyManager {... */\n    tag_3:\n      callvalue\n      dup1\n      iszero\n      tag_12\n      jumpi\n      0x00\n      dup1\n      revert\n    tag_12:\n      pop\n      tag_13\n      tag_14\n      jump\t// in\n    tag_13:\n      stop\n        /* \"training/contracts/lottery2.sol\":83:105  address public manager */\n    tag_4:\n      callvalue\n      dup1\n      iszero\n      tag_15\n      jumpi\n      0x00\n      dup1\n      revert\n    tag_15:\n      pop\n      tag_16\n      tag_17\n      jump\t// in\n    tag_16:\n      mload(0x40)\n      tag_18\n      swap2\n      swap1\n      tag_19\n      jump\t// in\n    tag_18:\n      mload(0x40)\n      dup1\n      swap2\n      sub\n      swap1\n      return\n        /* \"training/contracts/lottery2.sol\":499:802  function invest() payable public {... */\n    tag_5:\n      tag_20\n      tag_21\n      jump\t// in\n    tag_20:\n      stop\n        /* \"training/contracts/lottery2.sol\":111:143  address payable[] public players */\n    tag_6:\n      callvalue\n      dup1\n      iszero\n      tag_22\n      jumpi\n      0x00\n      dup1\n      revert\n    tag_22:\n      pop\n      tag_23\n      0x04\n      dup1\n      calldatasize\n      sub\n      dup2\n      add\n      swap1\n      tag_24\n      swap2\n      swap1\n      tag_25\n      jump\t// in\n    tag_24:\n      tag_26\n      jump\t// in\n    tag_23:\n      mload(0x40)\n      tag_27\n      swap2\n      swap1\n      tag_28\n      jump\t// in\n    tag_27:\n      mload(0x40)\n      dup1\n      swap2\n      sub\n      swap1\n      return\n        /* \"training/contracts/lottery2.sol\":812:917  function getBalance() public view onlyManager returns(uint) {... */\n    tag_9:\n        /* \"training/contracts/lottery2.sol\":866:870  uint */\n      0x00\n        /* \"training/contracts/lottery2.sol\":273:280  manager */\n      dup1\n      0x00\n      swap1\n      sload\n      swap1\n      0x0100\n      exp\n      swap1\n      div\n      0xffffffffffffffffffffffffffffffffffffffff\n      and\n        /* \"training/contracts/lottery2.sol\":261:280  msg.sender==manager */\n      0xffffffffffffffffffffffffffffffffffffffff\n      and\n        /* \"training/contracts/lottery2.sol\":261:271  msg.sender */\n      caller\n        /* \"training/contracts/lottery2.sol\":261:280  msg.sender==manager */\n      0xffffffffffffffffffffffffffffffffffffffff\n      and\n      eq\n        /* \"training/contracts/lottery2.sol\":253:319  require(msg.sender==manager,\"Only manager can call this function\") */\n      tag_30\n      jumpi\n      mload(0x40)\n      0x08c379a000000000000000000000000000000000000000000000000000000000\n      dup2\n      mstore\n      0x04\n      add\n      tag_31\n      swap1\n      tag_32\n      jump\t// in\n    tag_31:\n      mload(0x40)\n      dup1\n      swap2\n      sub\n      swap1\n      revert\n    tag_30:\n        /* \"training/contracts/lottery2.sol\":889:910  address(this).balance */\n      selfbalance\n        /* \"training/contracts/lottery2.sol\":882:910  return address(this).balance */\n      swap1\n      pop\n        /* \"training/contracts/lottery2.sol\":812:917  function getBalance() public view onlyManager returns(uint) {... */\n      swap1\n      jump\t// out\n        /* \"training/contracts/lottery2.sol\":1089:1403  function selectWinner()  public onlyManager {... */\n    tag_14:\n        /* \"training/contracts/lottery2.sol\":273:280  manager */\n      0x00\n      dup1\n      sload\n      swap1\n      0x0100\n      exp\n      swap1\n      div\n      0xffffffffffffffffffffffffffffffffffffffff\n      and\n        /* \"training/contracts/lottery2.sol\":261:280  msg.sender==manager */\n      0xffffffffffffffffffffffffffffffffffffffff\n      and\n        /* \"training/contracts/lottery2.sol\":261:271  msg.sender */\n      caller\n        /* \"training/contracts/lottery2.sol\":261:280  msg.sender==manager */\n      0xffffffffffffffffffffffffffffffffffffffff\n      and\n      eq\n        /* \"training/contracts/lottery2.sol\":253:319  require(msg.sender==manager,\"Only manager can call this function\") */\n      tag_35\n      jumpi\n      mload(0x40)\n      0x08c379a000000000000000000000000000000000000000000000000000000000\n      dup2\n      mstore\n      0x04\n      add\n      tag_36\n      swap1\n      tag_32\n      jump\t// in\n    tag_36:\n      mload(0x40)\n      dup1\n      swap2\n      sub\n      swap1\n      revert\n    tag_35:\n        /* \"training/contracts/lottery2.sol\":1143:1149  uint r */\n      0x00\n        /* \"training/contracts/lottery2.sol\":1150:1158  random() */\n      tag_38\n        /* \"training/contracts/lottery2.sol\":1150:1156  random */\n      tag_39\n        /* \"training/contracts/lottery2.sol\":1150:1158  random() */\n      jump\t// in\n    tag_38:\n        /* \"training/contracts/lottery2.sol\":1143:1158  uint r=random() */\n      swap1\n      pop\n        /* \"training/contracts/lottery2.sol\":1168:1178  uint index */\n      0x00\n        /* \"training/contracts/lottery2.sol\":1181:1188  players */\n      0x01\n        /* \"training/contracts/lottery2.sol\":1181:1195  players.length */\n      dup1\n      sload\n      swap1\n      pop\n        /* \"training/contracts/lottery2.sol\":1179:1180  r */\n      dup3\n        /* \"training/contracts/lottery2.sol\":1179:1195  r%players.length */\n      tag_40\n      swap2\n      swap1\n      tag_41\n      jump\t// in\n    tag_40:\n        /* \"training/contracts/lottery2.sol\":1168:1195  uint index=r%players.length */\n      swap1\n      pop\n        /* \"training/contracts/lottery2.sol\":1205:1227  address payable winner */\n      0x00\n        /* \"training/contracts/lottery2.sol\":1229:1236  players */\n      0x01\n        /* \"training/contracts/lottery2.sol\":1237:1242  index */\n      dup3\n        /* \"training/contracts/lottery2.sol\":1229:1243  players[index] */\n      dup2\n      sload\n      dup2\n      lt\n      tag_42\n      jumpi\n      tag_43\n      tag_44\n      jump\t// in\n    tag_43:\n    tag_42:\n      swap1\n      0x00\n      mstore\n      keccak256(0x00, 0x20)\n      add\n      0x00\n      swap1\n      sload\n      swap1\n      0x0100\n      exp\n      swap1\n      div\n      0xffffffffffffffffffffffffffffffffffffffff\n      and\n        /* \"training/contracts/lottery2.sol\":1205:1243  address payable winner= players[index] */\n      swap1\n      pop\n        /* \"training/contracts/lottery2.sol\":1258:1303  winnerSelected(winner, address(this).balance) */\n      0x55f5b627439ea7e61a062304e180620655850a1483013dc935ea17f07f0c40ca\n        /* \"training/contracts/lottery2.sol\":1273:1279  winner */\n      dup2\n        /* \"training/contracts/lottery2.sol\":1281:1302  address(this).balance */\n      selfbalance\n        /* \"training/contracts/lottery2.sol\":1258:1303  winnerSelected(winner, address(this).balance) */\n      mload(0x40)\n      tag_46\n      swap3\n      swap2\n      swap1\n      tag_47\n      jump\t// in\n    tag_46:\n      mload(0x40)\n      dup1\n      swap2\n      sub\n      swap1\n      log1\n        /* \"training/contracts/lottery2.sol\":1313:1319  winner */\n      dup1\n        /* \"training/contracts/lottery2.sol\":1313:1328  winner.transfer */\n      0xffffffffffffffffffffffffffffffffffffffff\n      and\n        /* \"training/contracts/lottery2.sol\":1313:1351  winner.transfer(address(this).balance) */\n      0x08fc\n        /* \"training/contracts/lottery2.sol\":1329:1350  address(this).balance */\n      selfbalance\n        /* \"training/contracts/lottery2.sol\":1313:1351  winner.transfer(address(this).balance) */\n      swap1\n      dup2\n      iszero\n      mul\n      swap1\n      mload(0x40)\n      0x00\n      mload(0x40)\n      dup1\n      dup4\n      sub\n      dup2\n      dup6\n      dup9\n      dup9\n      call\n      swap4\n      pop\n      pop\n      pop\n      pop\n      iszero\n      dup1\n      iszero\n      tag_49\n      jumpi\n      returndatasize\n      0x00\n      dup1\n      returndatacopy\n      revert(0x00, returndatasize)\n    tag_49:\n      pop\n        /* \"training/contracts/lottery2.sol\":1133:1403  {... */\n      pop\n      pop\n      pop\n        /* \"training/contracts/lottery2.sol\":1089:1403  function selectWinner()  public onlyManager {... */\n      jump\t// out\n        /* \"training/contracts/lottery2.sol\":83:105  address public manager */\n    tag_17:\n      0x00\n      dup1\n      sload\n      swap1\n      0x0100\n      exp\n      swap1\n      div\n      0xffffffffffffffffffffffffffffffffffffffff\n      and\n      dup2\n      jump\t// out\n        /* \"training/contracts/lottery2.sol\":499:802  function invest() payable public {... */\n    tag_21:\n        /* \"training/contracts/lottery2.sol\":562:569  manager */\n      0x00\n      dup1\n      sload\n      swap1\n      0x0100\n      exp\n      swap1\n      div\n      0xffffffffffffffffffffffffffffffffffffffff\n      and\n        /* \"training/contracts/lottery2.sol\":550:569  msg.sender!=manager */\n      0xffffffffffffffffffffffffffffffffffffffff\n      and\n        /* \"training/contracts/lottery2.sol\":550:560  msg.sender */\n      caller\n        /* \"training/contracts/lottery2.sol\":550:569  msg.sender!=manager */\n      0xffffffffffffffffffffffffffffffffffffffff\n      and\n      eq\n      iszero\n        /* \"training/contracts/lottery2.sol\":542:595  require(msg.sender!=manager,\" Manager cannot invest\") */\n      tag_51\n      jumpi\n      mload(0x40)\n      0x08c379a000000000000000000000000000000000000000000000000000000000\n      dup2\n      mstore\n      0x04\n      add\n      tag_52\n      swap1\n      tag_53\n      jump\t// in\n    tag_52:\n      mload(0x40)\n      dup1\n      swap2\n      sub\n      swap1\n      revert\n    tag_51:\n        /* \"training/contracts/lottery2.sol\":640:649  0.1 ether */\n      0x016345785d8a0000\n        /* \"training/contracts/lottery2.sol\":629:638  msg.value */\n      callvalue\n        /* \"training/contracts/lottery2.sol\":629:649  msg.value>=0.1 ether */\n      lt\n      iszero\n        /* \"training/contracts/lottery2.sol\":621:680  require(msg.value>=0.1 ether,\"Invest minimum od 0.1 ether\") */\n      tag_54\n      jumpi\n      mload(0x40)\n      0x08c379a000000000000000000000000000000000000000000000000000000000\n      dup2\n      mstore\n      0x04\n      add\n      tag_55\n      swap1\n      tag_56\n      jump\t// in\n    tag_55:\n      mload(0x40)\n      dup1\n      swap2\n      sub\n      swap1\n      revert\n    tag_54:\n        /* \"training/contracts/lottery2.sol\":710:717  players */\n      0x01\n        /* \"training/contracts/lottery2.sol\":731:741  msg.sender */\n      caller\n        /* \"training/contracts/lottery2.sol\":710:743  players.push(payable(msg.sender)) */\n      swap1\n      dup1\n      0x01\n      dup2\n      sload\n      add\n      dup1\n      dup3\n      sstore\n      dup1\n      swap2\n      pop\n      pop\n      0x01\n      swap1\n      sub\n      swap1\n      0x00\n      mstore\n      keccak256(0x00, 0x20)\n      add\n      0x00\n      swap1\n      swap2\n      swap1\n      swap2\n      swap1\n      swap2\n      0x0100\n      exp\n      dup2\n      sload\n      dup2\n      0xffffffffffffffffffffffffffffffffffffffff\n      mul\n      not\n      and\n      swap1\n      dup4\n      0xffffffffffffffffffffffffffffffffffffffff\n      and\n      mul\n      or\n      swap1\n      sstore\n      pop\n        /* \"training/contracts/lottery2.sol\":758:795  playerInvested(msg.sender, msg.value) */\n      0xa8f643ea2fb97c81606ff796830b91e4514e5422e86401ea5ef4ab242f13338f\n        /* \"training/contracts/lottery2.sol\":773:783  msg.sender */\n      caller\n        /* \"training/contracts/lottery2.sol\":785:794  msg.value */\n      callvalue\n        /* \"training/contracts/lottery2.sol\":758:795  playerInvested(msg.sender, msg.value) */\n      mload(0x40)\n      tag_58\n      swap3\n      swap2\n      swap1\n      tag_59\n      jump\t// in\n    tag_58:\n      mload(0x40)\n      dup1\n      swap2\n      sub\n      swap1\n      log1\n        /* \"training/contracts/lottery2.sol\":499:802  function invest() payable public {... */\n      jump\t// out\n        /* \"training/contracts/lottery2.sol\":111:143  address payable[] public players */\n    tag_26:\n      0x01\n      dup2\n      dup2\n      sload\n      dup2\n      lt\n      tag_60\n      jumpi\n      0x00\n      dup1\n      revert\n    tag_60:\n      swap1\n      0x00\n      mstore\n      keccak256(0x00, 0x20)\n      add\n      0x00\n      swap2\n      pop\n      sload\n      swap1\n      0x0100\n      exp\n      swap1\n      div\n      0xffffffffffffffffffffffffffffffffffffffff\n      and\n      dup2\n      jump\t// out\n        /* \"training/contracts/lottery2.sol\":927:1079  function random() private view returns(uint){... */\n    tag_39:\n        /* \"training/contracts/lottery2.sol\":966:970  uint */\n      0x00\n        /* \"training/contracts/lottery2.sol\":1020:1035  block.timestamp */\n      timestamp\n        /* \"training/contracts/lottery2.sol\":1037:1053  block.difficulty */\n      difficulty\n        /* \"training/contracts/lottery2.sol\":1055:1062  players */\n      0x01\n        /* \"training/contracts/lottery2.sol\":1055:1069  players.length */\n      dup1\n      sload\n      swap1\n      pop\n        /* \"training/contracts/lottery2.sol\":1003:1070  abi.encodePacked(block.timestamp, block.difficulty, players.length) */\n      add(0x20, mload(0x40))\n      tag_63\n      swap4\n      swap3\n      swap2\n      swap1\n      tag_64\n      jump\t// in\n    tag_63:\n      mload(0x40)\n      0x20\n      dup2\n      dup4\n      sub\n      sub\n      dup2\n      mstore\n      swap1\n      0x40\n      mstore\n        /* \"training/contracts/lottery2.sol\":993:1071  keccak256(abi.encodePacked(block.timestamp, block.difficulty, players.length)) */\n      dup1\n      mload\n      swap1\n      0x20\n      add\n      keccak256\n        /* \"training/contracts/lottery2.sol\":988:1072  uint(keccak256(abi.encodePacked(block.timestamp, block.difficulty, players.length))) */\n      0x00\n      shr\n        /* \"training/contracts/lottery2.sol\":981:1072  return uint(keccak256(abi.encodePacked(block.timestamp, block.difficulty, players.length))) */\n      swap1\n      pop\n        /* \"training/contracts/lottery2.sol\":927:1079  function random() private view returns(uint){... */\n      swap1\n      jump\t// out\n        /* \"#utility.yul\":7:146   */\n    tag_66:\n        /* \"#utility.yul\":53:58   */\n      0x00\n        /* \"#utility.yul\":91:97   */\n      dup2\n        /* \"#utility.yul\":78:98   */\n      calldataload\n        /* \"#utility.yul\":69:98   */\n      swap1\n      pop\n        /* \"#utility.yul\":107:140   */\n      tag_68\n        /* \"#utility.yul\":134:139   */\n      dup2\n        /* \"#utility.yul\":107:140   */\n      tag_69\n      jump\t// in\n    tag_68:\n        /* \"#utility.yul\":7:146   */\n      swap3\n      swap2\n      pop\n      pop\n      jump\t// out\n        /* \"#utility.yul\":152:481   */\n    tag_25:\n        /* \"#utility.yul\":211:217   */\n      0x00\n        /* \"#utility.yul\":260:262   */\n      0x20\n        /* \"#utility.yul\":248:257   */\n      dup3\n        /* \"#utility.yul\":239:246   */\n      dup5\n        /* \"#utility.yul\":235:258   */\n      sub\n        /* \"#utility.yul\":231:263   */\n      slt\n        /* \"#utility.yul\":228:347   */\n      iszero\n      tag_71\n      jumpi\n        /* \"#utility.yul\":266:345   */\n      tag_72\n      tag_73\n      jump\t// in\n    tag_72:\n        /* \"#utility.yul\":228:347   */\n    tag_71:\n        /* \"#utility.yul\":386:387   */\n      0x00\n        /* \"#utility.yul\":411:464   */\n      tag_74\n        /* \"#utility.yul\":456:463   */\n      dup5\n        /* \"#utility.yul\":447:453   */\n      dup3\n        /* \"#utility.yul\":436:445   */\n      dup6\n        /* \"#utility.yul\":432:454   */\n      add\n        /* \"#utility.yul\":411:464   */\n      tag_66\n      jump\t// in\n    tag_74:\n        /* \"#utility.yul\":401:464   */\n      swap2\n      pop\n        /* \"#utility.yul\":357:474   */\n      pop\n        /* \"#utility.yul\":152:481   */\n      swap3\n      swap2\n      pop\n      pop\n      jump\t// out\n        /* \"#utility.yul\":487:634   */\n    tag_75:\n        /* \"#utility.yul\":582:627   */\n      tag_77\n        /* \"#utility.yul\":621:626   */\n      dup2\n        /* \"#utility.yul\":582:627   */\n      tag_78\n      jump\t// in\n    tag_77:\n        /* \"#utility.yul\":577:580   */\n      dup3\n        /* \"#utility.yul\":570:628   */\n      mstore\n        /* \"#utility.yul\":487:634   */\n      pop\n      pop\n      jump\t// out\n        /* \"#utility.yul\":640:782   */\n    tag_79:\n        /* \"#utility.yul\":743:775   */\n      tag_81\n        /* \"#utility.yul\":769:774   */\n      dup2\n        /* \"#utility.yul\":743:775   */\n      tag_82\n      jump\t// in\n    tag_81:\n        /* \"#utility.yul\":738:741   */\n      dup3\n        /* \"#utility.yul\":731:776   */\n      mstore\n        /* \"#utility.yul\":640:782   */\n      pop\n      pop\n      jump\t// out\n        /* \"#utility.yul\":788:906   */\n    tag_83:\n        /* \"#utility.yul\":875:899   */\n      tag_85\n        /* \"#utility.yul\":893:898   */\n      dup2\n        /* \"#utility.yul\":875:899   */\n      tag_86\n      jump\t// in\n    tag_85:\n        /* \"#utility.yul\":870:873   */\n      dup3\n        /* \"#utility.yul\":863:900   */\n      mstore\n        /* \"#utility.yul\":788:906   */\n      pop\n      pop\n      jump\t// out\n        /* \"#utility.yul\":912:1278   */\n    tag_87:\n        /* \"#utility.yul\":1054:1057   */\n      0x00\n        /* \"#utility.yul\":1075:1142   */\n      tag_89\n        /* \"#utility.yul\":1139:1141   */\n      0x23\n        /* \"#utility.yul\":1134:1137   */\n      dup4\n        /* \"#utility.yul\":1075:1142   */\n      tag_90\n      jump\t// in\n    tag_89:\n        /* \"#utility.yul\":1068:1142   */\n      swap2\n      pop\n        /* \"#utility.yul\":1151:1244   */\n      tag_91\n        /* \"#utility.yul\":1240:1243   */\n      dup3\n        /* \"#utility.yul\":1151:1244   */\n      tag_92\n      jump\t// in\n    tag_91:\n        /* \"#utility.yul\":1269:1271   */\n      0x40\n        /* \"#utility.yul\":1264:1267   */\n      dup3\n        /* \"#utility.yul\":1260:1272   */\n      add\n        /* \"#utility.yul\":1253:1272   */\n      swap1\n      pop\n        /* \"#utility.yul\":912:1278   */\n      swap2\n      swap1\n      pop\n      jump\t// out\n        /* \"#utility.yul\":1284:1650   */\n    tag_93:\n        /* \"#utility.yul\":1426:1429   */\n      0x00\n        /* \"#utility.yul\":1447:1514   */\n      tag_95\n        /* \"#utility.yul\":1511:1513   */\n      0x16\n        /* \"#utility.yul\":1506:1509   */\n      dup4\n        /* \"#utility.yul\":1447:1514   */\n      tag_90\n      jump\t// in\n    tag_95:\n        /* \"#utility.yul\":1440:1514   */\n      swap2\n      pop\n        /* \"#utility.yul\":1523:1616   */\n      tag_96\n        /* \"#utility.yul\":1612:1615   */\n      dup3\n        /* \"#utility.yul\":1523:1616   */\n      tag_97\n      jump\t// in\n    tag_96:\n        /* \"#utility.yul\":1641:1643   */\n      0x20\n        /* \"#utility.yul\":1636:1639   */\n      dup3\n        /* \"#utility.yul\":1632:1644   */\n      add\n        /* \"#utility.yul\":1625:1644   */\n      swap1\n      pop\n        /* \"#utility.yul\":1284:1650   */\n      swap2\n      swap1\n      pop\n      jump\t// out\n        /* \"#utility.yul\":1656:2022   */\n    tag_98:\n        /* \"#utility.yul\":1798:1801   */\n      0x00\n        /* \"#utility.yul\":1819:1886   */\n      tag_100\n        /* \"#utility.yul\":1883:1885   */\n      0x1b\n        /* \"#utility.yul\":1878:1881   */\n      dup4\n        /* \"#utility.yul\":1819:1886   */\n      tag_90\n      jump\t// in\n    tag_100:\n        /* \"#utility.yul\":1812:1886   */\n      swap2\n      pop\n        /* \"#utility.yul\":1895:1988   */\n      tag_101\n        /* \"#utility.yul\":1984:1987   */\n      dup3\n        /* \"#utility.yul\":1895:1988   */\n      tag_102\n      jump\t// in\n    tag_101:\n        /* \"#utility.yul\":2013:2015   */\n      0x20\n        /* \"#utility.yul\":2008:2011   */\n      dup3\n        /* \"#utility.yul\":2004:2016   */\n      add\n        /* \"#utility.yul\":1997:2016   */\n      swap1\n      pop\n        /* \"#utility.yul\":1656:2022   */\n      swap2\n      swap1\n      pop\n      jump\t// out\n        /* \"#utility.yul\":2028:2146   */\n    tag_103:\n        /* \"#utility.yul\":2115:2139   */\n      tag_105\n        /* \"#utility.yul\":2133:2138   */\n      dup2\n        /* \"#utility.yul\":2115:2139   */\n      tag_106\n      jump\t// in\n    tag_105:\n        /* \"#utility.yul\":2110:2113   */\n      dup3\n        /* \"#utility.yul\":2103:2140   */\n      mstore\n        /* \"#utility.yul\":2028:2146   */\n      pop\n      pop\n      jump\t// out\n        /* \"#utility.yul\":2152:2309   */\n    tag_107:\n        /* \"#utility.yul\":2257:2302   */\n      tag_109\n        /* \"#utility.yul\":2277:2301   */\n      tag_110\n        /* \"#utility.yul\":2295:2300   */\n      dup3\n        /* \"#utility.yul\":2277:2301   */\n      tag_106\n      jump\t// in\n    tag_110:\n        /* \"#utility.yul\":2257:2302   */\n      tag_111\n      jump\t// in\n    tag_109:\n        /* \"#utility.yul\":2252:2255   */\n      dup3\n        /* \"#utility.yul\":2245:2303   */\n      mstore\n        /* \"#utility.yul\":2152:2309   */\n      pop\n      pop\n      jump\t// out\n        /* \"#utility.yul\":2315:2853   */\n    tag_64:\n        /* \"#utility.yul\":2483:2486   */\n      0x00\n        /* \"#utility.yul\":2498:2573   */\n      tag_113\n        /* \"#utility.yul\":2569:2572   */\n      dup3\n        /* \"#utility.yul\":2560:2566   */\n      dup7\n        /* \"#utility.yul\":2498:2573   */\n      tag_107\n      jump\t// in\n    tag_113:\n        /* \"#utility.yul\":2598:2600   */\n      0x20\n        /* \"#utility.yul\":2593:2596   */\n      dup3\n        /* \"#utility.yul\":2589:2601   */\n      add\n        /* \"#utility.yul\":2582:2601   */\n      swap2\n      pop\n        /* \"#utility.yul\":2611:2686   */\n      tag_114\n        /* \"#utility.yul\":2682:2685   */\n      dup3\n        /* \"#utility.yul\":2673:2679   */\n      dup6\n        /* \"#utility.yul\":2611:2686   */\n      tag_107\n      jump\t// in\n    tag_114:\n        /* \"#utility.yul\":2711:2713   */\n      0x20\n        /* \"#utility.yul\":2706:2709   */\n      dup3\n        /* \"#utility.yul\":2702:2714   */\n      add\n        /* \"#utility.yul\":2695:2714   */\n      swap2\n      pop\n        /* \"#utility.yul\":2724:2799   */\n      tag_115\n        /* \"#utility.yul\":2795:2798   */\n      dup3\n        /* \"#utility.yul\":2786:2792   */\n      dup5\n        /* \"#utility.yul\":2724:2799   */\n      tag_107\n      jump\t// in\n    tag_115:\n        /* \"#utility.yul\":2824:2826   */\n      0x20\n        /* \"#utility.yul\":2819:2822   */\n      dup3\n        /* \"#utility.yul\":2815:2827   */\n      add\n        /* \"#utility.yul\":2808:2827   */\n      swap2\n      pop\n        /* \"#utility.yul\":2844:2847   */\n      dup2\n        /* \"#utility.yul\":2837:2847   */\n      swap1\n      pop\n        /* \"#utility.yul\":2315:2853   */\n      swap5\n      swap4\n      pop\n      pop\n      pop\n      pop\n      jump\t// out\n        /* \"#utility.yul\":2859:3081   */\n    tag_19:\n        /* \"#utility.yul\":2952:2956   */\n      0x00\n        /* \"#utility.yul\":2990:2992   */\n      0x20\n        /* \"#utility.yul\":2979:2988   */\n      dup3\n        /* \"#utility.yul\":2975:2993   */\n      add\n        /* \"#utility.yul\":2967:2993   */\n      swap1\n      pop\n        /* \"#utility.yul\":3003:3074   */\n      tag_117\n        /* \"#utility.yul\":3071:3072   */\n      0x00\n        /* \"#utility.yul\":3060:3069   */\n      dup4\n        /* \"#utility.yul\":3056:3073   */\n      add\n        /* \"#utility.yul\":3047:3053   */\n      dup5\n        /* \"#utility.yul\":3003:3074   */\n      tag_83\n      jump\t// in\n    tag_117:\n        /* \"#utility.yul\":2859:3081   */\n      swap3\n      swap2\n      pop\n      pop\n      jump\t// out\n        /* \"#utility.yul\":3087:3341   */\n    tag_28:\n        /* \"#utility.yul\":3196:3200   */\n      0x00\n        /* \"#utility.yul\":3234:3236   */\n      0x20\n        /* \"#utility.yul\":3223:3232   */\n      dup3\n        /* \"#utility.yul\":3219:3237   */\n      add\n        /* \"#utility.yul\":3211:3237   */\n      swap1\n      pop\n        /* \"#utility.yul\":3247:3334   */\n      tag_119\n        /* \"#utility.yul\":3331:3332   */\n      0x00\n        /* \"#utility.yul\":3320:3329   */\n      dup4\n        /* \"#utility.yul\":3316:3333   */\n      add\n        /* \"#utility.yul\":3307:3313   */\n      dup5\n        /* \"#utility.yul\":3247:3334   */\n      tag_79\n      jump\t// in\n    tag_119:\n        /* \"#utility.yul\":3087:3341   */\n      swap3\n      swap2\n      pop\n      pop\n      jump\t// out\n        /* \"#utility.yul\":3347:3695   */\n    tag_47:\n        /* \"#utility.yul\":3476:3480   */\n      0x00\n        /* \"#utility.yul\":3514:3516   */\n      0x40\n        /* \"#utility.yul\":3503:3512   */\n      dup3\n        /* \"#utility.yul\":3499:3517   */\n      add\n        /* \"#utility.yul\":3491:3517   */\n      swap1\n      pop\n        /* \"#utility.yul\":3527:3606   */\n      tag_121\n        /* \"#utility.yul\":3603:3604   */\n      0x00\n        /* \"#utility.yul\":3592:3601   */\n      dup4\n        /* \"#utility.yul\":3588:3605   */\n      add\n        /* \"#utility.yul\":3579:3585   */\n      dup6\n        /* \"#utility.yul\":3527:3606   */\n      tag_75\n      jump\t// in\n    tag_121:\n        /* \"#utility.yul\":3616:3688   */\n      tag_122\n        /* \"#utility.yul\":3684:3686   */\n      0x20\n        /* \"#utility.yul\":3673:3682   */\n      dup4\n        /* \"#utility.yul\":3669:3687   */\n      add\n        /* \"#utility.yul\":3660:3666   */\n      dup5\n        /* \"#utility.yul\":3616:3688   */\n      tag_103\n      jump\t// in\n    tag_122:\n        /* \"#utility.yul\":3347:3695   */\n      swap4\n      swap3\n      pop\n      pop\n      pop\n      jump\t// out\n        /* \"#utility.yul\":3701:4033   */\n    tag_59:\n        /* \"#utility.yul\":3822:3826   */\n      0x00\n        /* \"#utility.yul\":3860:3862   */\n      0x40\n        /* \"#utility.yul\":3849:3858   */\n      dup3\n        /* \"#utility.yul\":3845:3863   */\n      add\n        /* \"#utility.yul\":3837:3863   */\n      swap1\n      pop\n        /* \"#utility.yul\":3873:3944   */\n      tag_124\n        /* \"#utility.yul\":3941:3942   */\n      0x00\n        /* \"#utility.yul\":3930:3939   */\n      dup4\n        /* \"#utility.yul\":3926:3943   */\n      add\n        /* \"#utility.yul\":3917:3923   */\n      dup6\n        /* \"#utility.yul\":3873:3944   */\n      tag_83\n      jump\t// in\n    tag_124:\n        /* \"#utility.yul\":3954:4026   */\n      tag_125\n        /* \"#utility.yul\":4022:4024   */\n      0x20\n        /* \"#utility.yul\":4011:4020   */\n      dup4\n        /* \"#utility.yul\":4007:4025   */\n      add\n        /* \"#utility.yul\":3998:4004   */\n      dup5\n        /* \"#utility.yul\":3954:4026   */\n      tag_103\n      jump\t// in\n    tag_125:\n        /* \"#utility.yul\":3701:4033   */\n      swap4\n      swap3\n      pop\n      pop\n      pop\n      jump\t// out\n        /* \"#utility.yul\":4039:4458   */\n    tag_32:\n        /* \"#utility.yul\":4205:4209   */\n      0x00\n        /* \"#utility.yul\":4243:4245   */\n      0x20\n        /* \"#utility.yul\":4232:4241   */\n      dup3\n        /* \"#utility.yul\":4228:4246   */\n      add\n        /* \"#utility.yul\":4220:4246   */\n      swap1\n      pop\n        /* \"#utility.yul\":4292:4301   */\n      dup2\n        /* \"#utility.yul\":4286:4290   */\n      dup2\n        /* \"#utility.yul\":4282:4302   */\n      sub\n        /* \"#utility.yul\":4278:4279   */\n      0x00\n        /* \"#utility.yul\":4267:4276   */\n      dup4\n        /* \"#utility.yul\":4263:4280   */\n      add\n        /* \"#utility.yul\":4256:4303   */\n      mstore\n        /* \"#utility.yul\":4320:4451   */\n      tag_127\n        /* \"#utility.yul\":4446:4450   */\n      dup2\n        /* \"#utility.yul\":4320:4451   */\n      tag_87\n      jump\t// in\n    tag_127:\n        /* \"#utility.yul\":4312:4451   */\n      swap1\n      pop\n        /* \"#utility.yul\":4039:4458   */\n      swap2\n      swap1\n      pop\n      jump\t// out\n        /* \"#utility.yul\":4464:4883   */\n    tag_53:\n        /* \"#utility.yul\":4630:4634   */\n      0x00\n        /* \"#utility.yul\":4668:4670   */\n      0x20\n        /* \"#utility.yul\":4657:4666   */\n      dup3\n        /* \"#utility.yul\":4653:4671   */\n      add\n        /* \"#utility.yul\":4645:4671   */\n      swap1\n      pop\n        /* \"#utility.yul\":4717:4726   */\n      dup2\n        /* \"#utility.yul\":4711:4715   */\n      dup2\n        /* \"#utility.yul\":4707:4727   */\n      sub\n        /* \"#utility.yul\":4703:4704   */\n      0x00\n        /* \"#utility.yul\":4692:4701   */\n      dup4\n        /* \"#utility.yul\":4688:4705   */\n      add\n        /* \"#utility.yul\":4681:4728   */\n      mstore\n        /* \"#utility.yul\":4745:4876   */\n      tag_129\n        /* \"#utility.yul\":4871:4875   */\n      dup2\n        /* \"#utility.yul\":4745:4876   */\n      tag_93\n      jump\t// in\n    tag_129:\n        /* \"#utility.yul\":4737:4876   */\n      swap1\n      pop\n        /* \"#utility.yul\":4464:4883   */\n      swap2\n      swap1\n      pop\n      jump\t// out\n        /* \"#utility.yul\":4889:5308   */\n    tag_56:\n        /* \"#utility.yul\":5055:5059   */\n      0x00\n        /* \"#utility.yul\":5093:5095   */\n      0x20\n        /* \"#utility.yul\":5082:5091   */\n      dup3\n        /* \"#utility.yul\":5078:5096   */\n      add\n        /* \"#utility.yul\":5070:5096   */\n      swap1\n      pop\n        /* \"#utility.yul\":5142:5151   */\n      dup2\n        /* \"#utility.yul\":5136:5140   */\n      dup2\n        /* \"#utility.yul\":5132:5152   */\n      sub\n        /* \"#utility.yul\":5128:5129   */\n      0x00\n        /* \"#utility.yul\":5117:5126   */\n      dup4\n        /* \"#utility.yul\":5113:5130   */\n      add\n        /* \"#utility.yul\":5106:5153   */\n      mstore\n        /* \"#utility.yul\":5170:5301   */\n      tag_131\n        /* \"#utility.yul\":5296:5300   */\n      dup2\n        /* \"#utility.yul\":5170:5301   */\n      tag_98\n      jump\t// in\n    tag_131:\n        /* \"#utility.yul\":5162:5301   */\n      swap1\n      pop\n        /* \"#utility.yul\":4889:5308   */\n      swap2\n      swap1\n      pop\n      jump\t// out\n        /* \"#utility.yul\":5314:5536   */\n    tag_11:\n        /* \"#utility.yul\":5407:5411   */\n      0x00\n        /* \"#utility.yul\":5445:5447   */\n      0x20\n        /* \"#utility.yul\":5434:5443   */\n      dup3\n        /* \"#utility.yul\":5430:5448   */\n      add\n        /* \"#utility.yul\":5422:5448   */\n      swap1\n      pop\n        /* \"#utility.yul\":5458:5529   */\n      tag_133\n        /* \"#utility.yul\":5526:5527   */\n      0x00\n        /* \"#utility.yul\":5515:5524   */\n      dup4\n        /* \"#utility.yul\":5511:5528   */\n      add\n        /* \"#utility.yul\":5502:5508   */\n      dup5\n        /* \"#utility.yul\":5458:5529   */\n      tag_103\n      jump\t// in\n    tag_133:\n        /* \"#utility.yul\":5314:5536   */\n      swap3\n      swap2\n      pop\n      pop\n      jump\t// out\n        /* \"#utility.yul\":5623:5792   */\n    tag_90:\n        /* \"#utility.yul\":5707:5718   */\n      0x00\n        /* \"#utility.yul\":5741:5747   */\n      dup3\n        /* \"#utility.yul\":5736:5739   */\n      dup3\n        /* \"#utility.yul\":5729:5748   */\n      mstore\n        /* \"#utility.yul\":5781:5785   */\n      0x20\n        /* \"#utility.yul\":5776:5779   */\n      dup3\n        /* \"#utility.yul\":5772:5786   */\n      add\n        /* \"#utility.yul\":5757:5786   */\n      swap1\n      pop\n        /* \"#utility.yul\":5623:5792   */\n      swap3\n      swap2\n      pop\n      pop\n      jump\t// out\n        /* \"#utility.yul\":5798:5894   */\n    tag_86:\n        /* \"#utility.yul\":5835:5842   */\n      0x00\n        /* \"#utility.yul\":5864:5888   */\n      tag_138\n        /* \"#utility.yul\":5882:5887   */\n      dup3\n        /* \"#utility.yul\":5864:5888   */\n      tag_139\n      jump\t// in\n    tag_138:\n        /* \"#utility.yul\":5853:5888   */\n      swap1\n      pop\n        /* \"#utility.yul\":5798:5894   */\n      swap2\n      swap1\n      pop\n      jump\t// out\n        /* \"#utility.yul\":5900:6004   */\n    tag_82:\n        /* \"#utility.yul\":5945:5952   */\n      0x00\n        /* \"#utility.yul\":5974:5998   */\n      tag_141\n        /* \"#utility.yul\":5992:5997   */\n      dup3\n        /* \"#utility.yul\":5974:5998   */\n      tag_139\n      jump\t// in\n    tag_141:\n        /* \"#utility.yul\":5963:5998   */\n      swap1\n      pop\n        /* \"#utility.yul\":5900:6004   */\n      swap2\n      swap1\n      pop\n      jump\t// out\n        /* \"#utility.yul\":6010:6136   */\n    tag_139:\n        /* \"#utility.yul\":6047:6054   */\n      0x00\n        /* \"#utility.yul\":6087:6129   */\n      0xffffffffffffffffffffffffffffffffffffffff\n        /* \"#utility.yul\":6080:6085   */\n      dup3\n        /* \"#utility.yul\":6076:6130   */\n      and\n        /* \"#utility.yul\":6065:6130   */\n      swap1\n      pop\n        /* \"#utility.yul\":6010:6136   */\n      swap2\n      swap1\n      pop\n      jump\t// out\n        /* \"#utility.yul\":6142:6219   */\n    tag_106:\n        /* \"#utility.yul\":6179:6186   */\n      0x00\n        /* \"#utility.yul\":6208:6213   */\n      dup2\n        /* \"#utility.yul\":6197:6213   */\n      swap1\n      pop\n        /* \"#utility.yul\":6142:6219   */\n      swap2\n      swap1\n      pop\n      jump\t// out\n        /* \"#utility.yul\":6225:6359   */\n    tag_78:\n        /* \"#utility.yul\":6283:6292   */\n      0x00\n        /* \"#utility.yul\":6316:6353   */\n      tag_145\n        /* \"#utility.yul\":6347:6352   */\n      dup3\n        /* \"#utility.yul\":6316:6353   */\n      tag_146\n      jump\t// in\n    tag_145:\n        /* \"#utility.yul\":6303:6353   */\n      swap1\n      pop\n        /* \"#utility.yul\":6225:6359   */\n      swap2\n      swap1\n      pop\n      jump\t// out\n        /* \"#utility.yul\":6365:6491   */\n    tag_146:\n        /* \"#utility.yul\":6415:6424   */\n      0x00\n        /* \"#utility.yul\":6448:6485   */\n      tag_148\n        /* \"#utility.yul\":6479:6484   */\n      dup3\n        /* \"#utility.yul\":6448:6485   */\n      tag_149\n      jump\t// in\n    tag_148:\n        /* \"#utility.yul\":6435:6485   */\n      swap1\n      pop\n        /* \"#utility.yul\":6365:6491   */\n      swap2\n      swap1\n      pop\n      jump\t// out\n        /* \"#utility.yul\":6497:6610   */\n    tag_149:\n        /* \"#utility.yul\":6547:6556   */\n      0x00\n        /* \"#utility.yul\":6580:6604   */\n      tag_151\n        /* \"#utility.yul\":6598:6603   */\n      dup3\n        /* \"#utility.yul\":6580:6604   */\n      tag_139\n      jump\t// in\n    tag_151:\n        /* \"#utility.yul\":6567:6604   */\n      swap1\n      pop\n        /* \"#utility.yul\":6497:6610   */\n      swap2\n      swap1\n      pop\n      jump\t// out\n        /* \"#utility.yul\":6616:6695   */\n    tag_111:\n        /* \"#utility.yul\":6655:6662   */\n      0x00\n        /* \"#utility.yul\":6684:6689   */\n      dup2\n        /* \"#utility.yul\":6673:6689   */\n      swap1\n      pop\n        /* \"#utility.yul\":6616:6695   */\n      swap2\n      swap1\n      pop\n      jump\t// out\n        /* \"#utility.yul\":6701:6877   */\n    tag_41:\n        /* \"#utility.yul\":6733:6734   */\n      0x00\n        /* \"#utility.yul\":6750:6770   */\n      tag_154\n        /* \"#utility.yul\":6768:6769   */\n      dup3\n        /* \"#utility.yul\":6750:6770   */\n      tag_106\n      jump\t// in\n    tag_154:\n        /* \"#utility.yul\":6745:6770   */\n      swap2\n      pop\n        /* \"#utility.yul\":6784:6804   */\n      tag_155\n        /* \"#utility.yul\":6802:6803   */\n      dup4\n        /* \"#utility.yul\":6784:6804   */\n      tag_106\n      jump\t// in\n    tag_155:\n        /* \"#utility.yul\":6779:6804   */\n      swap3\n      pop\n        /* \"#utility.yul\":6823:6824   */\n      dup3\n        /* \"#utility.yul\":6813:6848   */\n      tag_156\n      jumpi\n        /* \"#utility.yul\":6828:6846   */\n      tag_157\n      tag_158\n      jump\t// in\n    tag_157:\n        /* \"#utility.yul\":6813:6848   */\n    tag_156:\n        /* \"#utility.yul\":6869:6870   */\n      dup3\n        /* \"#utility.yul\":6866:6867   */\n      dup3\n        /* \"#utility.yul\":6862:6871   */\n      mod\n        /* \"#utility.yul\":6857:6871   */\n      swap1\n      pop\n        /* \"#utility.yul\":6701:6877   */\n      swap3\n      swap2\n      pop\n      pop\n      jump\t// out\n        /* \"#utility.yul\":6883:7063   */\n    tag_158:\n        /* \"#utility.yul\":6931:7008   */\n      0x4e487b7100000000000000000000000000000000000000000000000000000000\n        /* \"#utility.yul\":6928:6929   */\n      0x00\n        /* \"#utility.yul\":6921:7009   */\n      mstore\n        /* \"#utility.yul\":7028:7032   */\n      0x12\n        /* \"#utility.yul\":7025:7026   */\n      0x04\n        /* \"#utility.yul\":7018:7033   */\n      mstore\n        /* \"#utility.yul\":7052:7056   */\n      0x24\n        /* \"#utility.yul\":7049:7050   */\n      0x00\n        /* \"#utility.yul\":7042:7057   */\n      revert\n        /* \"#utility.yul\":7069:7249   */\n    tag_44:\n        /* \"#utility.yul\":7117:7194   */\n      0x4e487b7100000000000000000000000000000000000000000000000000000000\n        /* \"#utility.yul\":7114:7115   */\n      0x00\n        /* \"#utility.yul\":7107:7195   */\n      mstore\n        /* \"#utility.yul\":7214:7218   */\n      0x32\n        /* \"#utility.yul\":7211:7212   */\n      0x04\n        /* \"#utility.yul\":7204:7219   */\n      mstore\n        /* \"#utility.yul\":7238:7242   */\n      0x24\n        /* \"#utility.yul\":7235:7236   */\n      0x00\n        /* \"#utility.yul\":7228:7243   */\n      revert\n        /* \"#utility.yul\":7378:7495   */\n    tag_73:\n        /* \"#utility.yul\":7487:7488   */\n      0x00\n        /* \"#utility.yul\":7484:7485   */\n      dup1\n        /* \"#utility.yul\":7477:7489   */\n      revert\n        /* \"#utility.yul\":7501:7723   */\n    tag_92:\n        /* \"#utility.yul\":7641:7675   */\n      0x4f6e6c79206d616e616765722063616e2063616c6c20746869732066756e6374\n        /* \"#utility.yul\":7637:7638   */\n      0x00\n        /* \"#utility.yul\":7629:7635   */\n      dup3\n        /* \"#utility.yul\":7625:7639   */\n      add\n        /* \"#utility.yul\":7618:7676   */\n      mstore\n        /* \"#utility.yul\":7710:7715   */\n      0x696f6e0000000000000000000000000000000000000000000000000000000000\n        /* \"#utility.yul\":7705:7707   */\n      0x20\n        /* \"#utility.yul\":7697:7703   */\n      dup3\n        /* \"#utility.yul\":7693:7708   */\n      add\n        /* \"#utility.yul\":7686:7716   */\n      mstore\n        /* \"#utility.yul\":7501:7723   */\n      pop\n      jump\t// out\n        /* \"#utility.yul\":7729:7901   */\n    tag_97:\n        /* \"#utility.yul\":7869:7893   */\n      0x204d616e616765722063616e6e6f7420696e7665737400000000000000000000\n        /* \"#utility.yul\":7865:7866   */\n      0x00\n        /* \"#utility.yul\":7857:7863   */\n      dup3\n        /* \"#utility.yul\":7853:7867   */\n      add\n        /* \"#utility.yul\":7846:7894   */\n      mstore\n        /* \"#utility.yul\":7729:7901   */\n      pop\n      jump\t// out\n        /* \"#utility.yul\":7907:8084   */\n    tag_102:\n        /* \"#utility.yul\":8047:8076   */\n      0x496e76657374206d696e696d756d206f6420302e312065746865720000000000\n        /* \"#utility.yul\":8043:8044   */\n      0x00\n        /* \"#utility.yul\":8035:8041   */\n      dup3\n        /* \"#utility.yul\":8031:8045   */\n      add\n        /* \"#utility.yul\":8024:8077   */\n      mstore\n        /* \"#utility.yul\":7907:8084   */\n      pop\n      jump\t// out\n        /* \"#utility.yul\":8090:8212   */\n    tag_69:\n        /* \"#utility.yul\":8163:8187   */\n      tag_168\n        /* \"#utility.yul\":8181:8186   */\n      dup2\n        /* \"#utility.yul\":8163:8187   */\n      tag_106\n      jump\t// in\n    tag_168:\n        /* \"#utility.yul\":8156:8161   */\n      dup2\n        /* \"#utility.yul\":8153:8188   */\n      eq\n        /* \"#utility.yul\":8143:8206   */\n      tag_169\n      jumpi\n        /* \"#utility.yul\":8202:8203   */\n      0x00\n        /* \"#utility.yul\":8199:8200   */\n      dup1\n        /* \"#utility.yul\":8192:8204   */\n      revert\n        /* \"#utility.yul\":8143:8206   */\n    tag_169:\n        /* \"#utility.yul\":8090:8212   */\n      pop\n      jump\t// out\n\n    auxdata: 0xa26469706673582212207ef56f18f12a82a3da6f31ddddd02f38427750c14f729f1f1008f2cb73efb38264736f6c63430008070033\n}\n",
				"bytecode": {
					"linkReferences": {},
					"object": "608060405234801561001057600080fd5b50336000806101000a81548173ffffffffffffffffffffffffffffffffffffffff021916908373ffffffffffffffffffffffffffffffffffffffff160217905550610985806100606000396000f3fe60806040526004361061004a5760003560e01c806312065fe01461004f57806333a99e041461007a578063481c6a7514610091578063e8b5e51f146100bc578063f71d96cb146100c6575b600080fd5b34801561005b57600080fd5b50610064610103565b6040516100719190610749565b60405180910390f35b34801561008657600080fd5b5061008f61019a565b005b34801561009d57600080fd5b506100a6610311565b6040516100b39190610661565b60405180910390f35b6100c4610335565b005b3480156100d257600080fd5b506100ed60048036038101906100e8919061053b565b6104ad565b6040516100fa919061067c565b60405180910390f35b60008060009054906101000a900473ffffffffffffffffffffffffffffffffffffffff1673ffffffffffffffffffffffffffffffffffffffff163373ffffffffffffffffffffffffffffffffffffffff1614610194576040517f08c379a000000000000000000000000000000000000000000000000000000000815260040161018b906106e9565b60405180910390fd5b47905090565b60008054906101000a900473ffffffffffffffffffffffffffffffffffffffff1673ffffffffffffffffffffffffffffffffffffffff163373ffffffffffffffffffffffffffffffffffffffff1614610228576040517f08c379a000000000000000000000000000000000000000000000000000000000815260040161021f906106e9565b60405180910390fd5b60006102326104ec565b90506000600180549050826102479190610803565b905060006001828154811061025f5761025e610863565b5b9060005260206000200160009054906101000a900473ffffffffffffffffffffffffffffffffffffffff1690507f55f5b627439ea7e61a062304e180620655850a1483013dc935ea17f07f0c40ca81476040516102bd929190610697565b60405180910390a18073ffffffffffffffffffffffffffffffffffffffff166108fc479081150290604051600060405180830381858888f1935050505015801561030b573d6000803e3d6000fd5b50505050565b60008054906101000a900473ffffffffffffffffffffffffffffffffffffffff1681565b60008054906101000a900473ffffffffffffffffffffffffffffffffffffffff1673ffffffffffffffffffffffffffffffffffffffff163373ffffffffffffffffffffffffffffffffffffffff1614156103c4576040517f08c379a00000000000000000000000000000000000000000000000000000000081526004016103bb90610709565b60405180910390fd5b67016345785d8a000034101561040f576040517f08c379a000000000000000000000000000000000000000000000000000000000815260040161040690610729565b60405180910390fd5b6001339080600181540180825580915050600190039060005260206000200160009091909190916101000a81548173ffffffffffffffffffffffffffffffffffffffff021916908373ffffffffffffffffffffffffffffffffffffffff1602179055507fa8f643ea2fb97c81606ff796830b91e4514e5422e86401ea5ef4ab242f13338f33346040516104a39291906106c0565b60405180910390a1565b600181815481106104bd57600080fd5b906000526020600020016000915054906101000a900473ffffffffffffffffffffffffffffffffffffffff1681565b6000424460018054905060405160200161050893929190610624565b6040516020818303038152906040528051906020012060001c905090565b60008135905061053581610938565b92915050565b60006020828403121561055157610550610892565b5b600061055f84828501610526565b91505092915050565b610571816107c3565b82525050565b61058081610787565b82525050565b61058f81610775565b82525050565b60006105a2602383610764565b91506105ad82610897565b604082019050919050565b60006105c5601683610764565b91506105d0826108e6565b602082019050919050565b60006105e8601b83610764565b91506105f38261090f565b602082019050919050565b610607816107b9565b82525050565b61061e610619826107b9565b6107f9565b82525050565b6000610630828661060d565b602082019150610640828561060d565b602082019150610650828461060d565b602082019150819050949350505050565b60006020820190506106766000830184610586565b92915050565b60006020820190506106916000830184610577565b92915050565b60006040820190506106ac6000830185610568565b6106b960208301846105fe565b9392505050565b60006040820190506106d56000830185610586565b6106e260208301846105fe565b9392505050565b6000602082019050818103600083015261070281610595565b9050919050565b60006020820190508181036000830152610722816105b8565b9050919050565b60006020820190508181036000830152610742816105db565b9050919050565b600060208201905061075e60008301846105fe565b92915050565b600082825260208201905092915050565b600061078082610799565b9050919050565b600061079282610799565b9050919050565b600073ffffffffffffffffffffffffffffffffffffffff82169050919050565b6000819050919050565b60006107ce826107d5565b9050919050565b60006107e0826107e7565b9050919050565b60006107f282610799565b9050919050565b6000819050919050565b600061080e826107b9565b9150610819836107b9565b92508261082957610828610834565b5b828206905092915050565b7f4e487b7100000000000000000000000000000000000000000000000000000000600052601260045260246000fd5b7f4e487b7100000000000000000000000000000000000000000000000000000000600052603260045260246000fd5b600080fd5b7f4f6e6c79206d616e616765722063616e2063616c6c20746869732066756e637460008201527f696f6e0000000000000000000000000000000000000000000000000000000000602082015250565b7f204d616e616765722063616e6e6f7420696e7665737400000000000000000000600082015250565b7f496e76657374206d696e696d756d206f6420302e312065746865720000000000600082015250565b610941816107b9565b811461094c57600080fd5b5056fea26469706673582212207ef56f18f12a82a3da6f31ddddd02f38427750c14f729f1f1008f2cb73efb38264736f6c63430008070033",
					"opcodes": "PUSH1 0x80 PUSH1 0x40 MSTORE CALLVALUE DUP1 ISZERO PUSH2 0x10 JUMPI PUSH1 0x0 DUP1 REVERT JUMPDEST POP CALLER PUSH1 0x0 DUP1 PUSH2 0x100 EXP DUP2 SLOAD DUP2 PUSH20 0xFFFFFFFFFFFFFFFFFFFFFFFFFFFFFFFFFFFFFFFF MUL NOT AND SWAP1 DUP4 PUSH20 0xFFFFFFFFFFFFFFFFFFFFFFFFFFFFFFFFFFFFFFFF AND MUL OR SWAP1 SSTORE POP PUSH2 0x985 DUP1 PUSH2 0x60 PUSH1 0x0 CODECOPY PUSH1 0x0 RETURN INVALID PUSH1 0x80 PUSH1 0x40 MSTORE PUSH1 0x4 CALLDATASIZE LT PUSH2 0x4A JUMPI PUSH1 0x0 CALLDATALOAD PUSH1 0xE0 SHR DUP1 PUSH4 0x12065FE0 EQ PUSH2 0x4F JUMPI DUP1 PUSH4 0x33A99E04 EQ PUSH2 0x7A JUMPI DUP1 PUSH4 0x481C6A75 EQ PUSH2 0x91 JUMPI DUP1 PUSH4 0xE8B5E51F EQ PUSH2 0xBC JUMPI DUP1 PUSH4 0xF71D96CB EQ PUSH2 0xC6 JUMPI JUMPDEST PUSH1 0x0 DUP1 REVERT JUMPDEST CALLVALUE DUP1 ISZERO PUSH2 0x5B JUMPI PUSH1 0x0 DUP1 REVERT JUMPDEST POP PUSH2 0x64 PUSH2 0x103 JUMP JUMPDEST PUSH1 0x40 MLOAD PUSH2 0x71 SWAP2 SWAP1 PUSH2 0x749 JUMP JUMPDEST PUSH1 0x40 MLOAD DUP1 SWAP2 SUB SWAP1 RETURN JUMPDEST CALLVALUE DUP1 ISZERO PUSH2 0x86 JUMPI PUSH1 0x0 DUP1 REVERT JUMPDEST POP PUSH2 0x8F PUSH2 0x19A JUMP JUMPDEST STOP JUMPDEST CALLVALUE DUP1 ISZERO PUSH2 0x9D JUMPI PUSH1 0x0 DUP1 REVERT JUMPDEST POP PUSH2 0xA6 PUSH2 0x311 JUMP JUMPDEST PUSH1 0x40 MLOAD PUSH2 0xB3 SWAP2 SWAP1 PUSH2 0x661 JUMP JUMPDEST PUSH1 0x40 MLOAD DUP1 SWAP2 SUB SWAP1 RETURN JUMPDEST PUSH2 0xC4 PUSH2 0x335 JUMP JUMPDEST STOP JUMPDEST CALLVALUE DUP1 ISZERO PUSH2 0xD2 JUMPI PUSH1 0x0 DUP1 REVERT JUMPDEST POP PUSH2 0xED PUSH1 0x4 DUP1 CALLDATASIZE SUB DUP2 ADD SWAP1 PUSH2 0xE8 SWAP2 SWAP1 PUSH2 0x53B JUMP JUMPDEST PUSH2 0x4AD JUMP JUMPDEST PUSH1 0x40 MLOAD PUSH2 0xFA SWAP2 SWAP1 PUSH2 0x67C JUMP JUMPDEST PUSH1 0x40 MLOAD DUP1 SWAP2 SUB SWAP1 RETURN JUMPDEST PUSH1 0x0 DUP1 PUSH1 0x0 SWAP1 SLOAD SWAP1 PUSH2 0x100 EXP SWAP1 DIV PUSH20 0xFFFFFFFFFFFFFFFFFFFFFFFFFFFFFFFFFFFFFFFF AND PUSH20 0xFFFFFFFFFFFFFFFFFFFFFFFFFFFFFFFFFFFFFFFF AND CALLER PUSH20 0xFFFFFFFFFFFFFFFFFFFFFFFFFFFFFFFFFFFFFFFF AND EQ PUSH2 0x194 JUMPI PUSH1 0x40 MLOAD PUSH32 0x8C379A000000000000000000000000000000000000000000000000000000000 DUP2 MSTORE PUSH1 0x4 ADD PUSH2 0x18B SWAP1 PUSH2 0x6E9 JUMP JUMPDEST PUSH1 0x40 MLOAD DUP1 SWAP2 SUB SWAP1 REVERT JUMPDEST SELFBALANCE SWAP1 POP SWAP1 JUMP JUMPDEST PUSH1 0x0 DUP1 SLOAD SWAP1 PUSH2 0x100 EXP SWAP1 DIV PUSH20 0xFFFFFFFFFFFFFFFFFFFFFFFFFFFFFFFFFFFFFFFF AND PUSH20 0xFFFFFFFFFFFFFFFFFFFFFFFFFFFFFFFFFFFFFFFF AND CALLER PUSH20 0xFFFFFFFFFFFFFFFFFFFFFFFFFFFFFFFFFFFFFFFF AND EQ PUSH2 0x228 JUMPI PUSH1 0x40 MLOAD PUSH32 0x8C379A000000000000000000000000000000000000000000000000000000000 DUP2 MSTORE PUSH1 0x4 ADD PUSH2 0x21F SWAP1 PUSH2 0x6E9 JUMP JUMPDEST PUSH1 0x40 MLOAD DUP1 SWAP2 SUB SWAP1 REVERT JUMPDEST PUSH1 0x0 PUSH2 0x232 PUSH2 0x4EC JUMP JUMPDEST SWAP1 POP PUSH1 0x0 PUSH1 0x1 DUP1 SLOAD SWAP1 POP DUP3 PUSH2 0x247 SWAP2 SWAP1 PUSH2 0x803 JUMP JUMPDEST SWAP1 POP PUSH1 0x0 PUSH1 0x1 DUP3 DUP2 SLOAD DUP2 LT PUSH2 0x25F JUMPI PUSH2 0x25E PUSH2 0x863 JUMP JUMPDEST JUMPDEST SWAP1 PUSH1 0x0 MSTORE PUSH1 0x20 PUSH1 0x0 KECCAK256 ADD PUSH1 0x0 SWAP1 SLOAD SWAP1 PUSH2 0x100 EXP SWAP1 DIV PUSH20 0xFFFFFFFFFFFFFFFFFFFFFFFFFFFFFFFFFFFFFFFF AND SWAP1 POP PUSH32 0x55F5B627439EA7E61A062304E180620655850A1483013DC935EA17F07F0C40CA DUP2 SELFBALANCE PUSH1 0x40 MLOAD PUSH2 0x2BD SWAP3 SWAP2 SWAP1 PUSH2 0x697 JUMP JUMPDEST PUSH1 0x40 MLOAD DUP1 SWAP2 SUB SWAP1 LOG1 DUP1 PUSH20 0xFFFFFFFFFFFFFFFFFFFFFFFFFFFFFFFFFFFFFFFF AND PUSH2 0x8FC SELFBALANCE SWAP1 DUP2 ISZERO MUL SWAP1 PUSH1 0x40 MLOAD PUSH1 0x0 PUSH1 0x40 MLOAD DUP1 DUP4 SUB DUP2 DUP6 DUP9 DUP9 CALL SWAP4 POP POP POP POP ISZERO DUP1 ISZERO PUSH2 0x30B JUMPI RETURNDATASIZE PUSH1 0x0 DUP1 RETURNDATACOPY RETURNDATASIZE PUSH1 0x0 REVERT JUMPDEST POP POP POP POP JUMP JUMPDEST PUSH1 0x0 DUP1 SLOAD SWAP1 PUSH2 0x100 EXP SWAP1 DIV PUSH20 0xFFFFFFFFFFFFFFFFFFFFFFFFFFFFFFFFFFFFFFFF AND DUP2 JUMP JUMPDEST PUSH1 0x0 DUP1 SLOAD SWAP1 PUSH2 0x100 EXP SWAP1 DIV PUSH20 0xFFFFFFFFFFFFFFFFFFFFFFFFFFFFFFFFFFFFFFFF AND PUSH20 0xFFFFFFFFFFFFFFFFFFFFFFFFFFFFFFFFFFFFFFFF AND CALLER PUSH20 0xFFFFFFFFFFFFFFFFFFFFFFFFFFFFFFFFFFFFFFFF AND EQ ISZERO PUSH2 0x3C4 JUMPI PUSH1 0x40 MLOAD PUSH32 0x8C379A000000000000000000000000000000000000000000000000000000000 DUP2 MSTORE PUSH1 0x4 ADD PUSH2 0x3BB SWAP1 PUSH2 0x709 JUMP JUMPDEST PUSH1 0x40 MLOAD DUP1 SWAP2 SUB SWAP1 REVERT JUMPDEST PUSH8 0x16345785D8A0000 CALLVALUE LT ISZERO PUSH2 0x40F JUMPI PUSH1 0x40 MLOAD PUSH32 0x8C379A000000000000000000000000000000000000000000000000000000000 DUP2 MSTORE PUSH1 0x4 ADD PUSH2 0x406 SWAP1 PUSH2 0x729 JUMP JUMPDEST PUSH1 0x40 MLOAD DUP1 SWAP2 SUB SWAP1 REVERT JUMPDEST PUSH1 0x1 CALLER SWAP1 DUP1 PUSH1 0x1 DUP2 SLOAD ADD DUP1 DUP3 SSTORE DUP1 SWAP2 POP POP PUSH1 0x1 SWAP1 SUB SWAP1 PUSH1 0x0 MSTORE PUSH1 0x20 PUSH1 0x0 KECCAK256 ADD PUSH1 0x0 SWAP1 SWAP2 SWAP1 SWAP2 SWAP1 SWAP2 PUSH2 0x100 EXP DUP2 SLOAD DUP2 PUSH20 0xFFFFFFFFFFFFFFFFFFFFFFFFFFFFFFFFFFFFFFFF MUL NOT AND SWAP1 DUP4 PUSH20 0xFFFFFFFFFFFFFFFFFFFFFFFFFFFFFFFFFFFFFFFF AND MUL OR SWAP1 SSTORE POP PUSH32 0xA8F643EA2FB97C81606FF796830B91E4514E5422E86401EA5EF4AB242F13338F CALLER CALLVALUE PUSH1 0x40 MLOAD PUSH2 0x4A3 SWAP3 SWAP2 SWAP1 PUSH2 0x6C0 JUMP JUMPDEST PUSH1 0x40 MLOAD DUP1 SWAP2 SUB SWAP1 LOG1 JUMP JUMPDEST PUSH1 0x1 DUP2 DUP2 SLOAD DUP2 LT PUSH2 0x4BD JUMPI PUSH1 0x0 DUP1 REVERT JUMPDEST SWAP1 PUSH1 0x0 MSTORE PUSH1 0x20 PUSH1 0x0 KECCAK256 ADD PUSH1 0x0 SWAP2 POP SLOAD SWAP1 PUSH2 0x100 EXP SWAP1 DIV PUSH20 0xFFFFFFFFFFFFFFFFFFFFFFFFFFFFFFFFFFFFFFFF AND DUP2 JUMP JUMPDEST PUSH1 0x0 TIMESTAMP DIFFICULTY PUSH1 0x1 DUP1 SLOAD SWAP1 POP PUSH1 0x40 MLOAD PUSH1 0x20 ADD PUSH2 0x508 SWAP4 SWAP3 SWAP2 SWAP1 PUSH2 0x624 JUMP JUMPDEST PUSH1 0x40 MLOAD PUSH1 0x20 DUP2 DUP4 SUB SUB DUP2 MSTORE SWAP1 PUSH1 0x40 MSTORE DUP1 MLOAD SWAP1 PUSH1 0x20 ADD KECCAK256 PUSH1 0x0 SHR SWAP1 POP SWAP1 JUMP JUMPDEST PUSH1 0x0 DUP2 CALLDATALOAD SWAP1 POP PUSH2 0x535 DUP2 PUSH2 0x938 JUMP JUMPDEST SWAP3 SWAP2 POP POP JUMP JUMPDEST PUSH1 0x0 PUSH1 0x20 DUP3 DUP5 SUB SLT ISZERO PUSH2 0x551 JUMPI PUSH2 0x550 PUSH2 0x892 JUMP JUMPDEST JUMPDEST PUSH1 0x0 PUSH2 0x55F DUP5 DUP3 DUP6 ADD PUSH2 0x526 JUMP JUMPDEST SWAP2 POP POP SWAP3 SWAP2 POP POP JUMP JUMPDEST PUSH2 0x571 DUP2 PUSH2 0x7C3 JUMP JUMPDEST DUP3 MSTORE POP POP JUMP JUMPDEST PUSH2 0x580 DUP2 PUSH2 0x787 JUMP JUMPDEST DUP3 MSTORE POP POP JUMP JUMPDEST PUSH2 0x58F DUP2 PUSH2 0x775 JUMP JUMPDEST DUP3 MSTORE POP POP JUMP JUMPDEST PUSH1 0x0 PUSH2 0x5A2 PUSH1 0x23 DUP4 PUSH2 0x764 JUMP JUMPDEST SWAP2 POP PUSH2 0x5AD DUP3 PUSH2 0x897 JUMP JUMPDEST PUSH1 0x40 DUP3 ADD SWAP1 POP SWAP2 SWAP1 POP JUMP JUMPDEST PUSH1 0x0 PUSH2 0x5C5 PUSH1 0x16 DUP4 PUSH2 0x764 JUMP JUMPDEST SWAP2 POP PUSH2 0x5D0 DUP3 PUSH2 0x8E6 JUMP JUMPDEST PUSH1 0x20 DUP3 ADD SWAP1 POP SWAP2 SWAP1 POP JUMP JUMPDEST PUSH1 0x0 PUSH2 0x5E8 PUSH1 0x1B DUP4 PUSH2 0x764 JUMP JUMPDEST SWAP2 POP PUSH2 0x5F3 DUP3 PUSH2 0x90F JUMP JUMPDEST PUSH1 0x20 DUP3 ADD SWAP1 POP SWAP2 SWAP1 POP JUMP JUMPDEST PUSH2 0x607 DUP2 PUSH2 0x7B9 JUMP JUMPDEST DUP3 MSTORE POP POP JUMP JUMPDEST PUSH2 0x61E PUSH2 0x619 DUP3 PUSH2 0x7B9 JUMP JUMPDEST PUSH2 0x7F9 JUMP JUMPDEST DUP3 MSTORE POP POP JUMP JUMPDEST PUSH1 0x0 PUSH2 0x630 DUP3 DUP7 PUSH2 0x60D JUMP JUMPDEST PUSH1 0x20 DUP3 ADD SWAP2 POP PUSH2 0x640 DUP3 DUP6 PUSH2 0x60D JUMP JUMPDEST PUSH1 0x20 DUP3 ADD SWAP2 POP PUSH2 0x650 DUP3 DUP5 PUSH2 0x60D JUMP JUMPDEST PUSH1 0x20 DUP3 ADD SWAP2 POP DUP2 SWAP1 POP SWAP5 SWAP4 POP POP POP POP JUMP JUMPDEST PUSH1 0x0 PUSH1 0x20 DUP3 ADD SWAP1 POP PUSH2 0x676 PUSH1 0x0 DUP4 ADD DUP5 PUSH2 0x586 JUMP JUMPDEST SWAP3 SWAP2 POP POP JUMP JUMPDEST PUSH1 0x0 PUSH1 0x20 DUP3 ADD SWAP1 POP PUSH2 0x691 PUSH1 0x0 DUP4 ADD DUP5 PUSH2 0x577 JUMP JUMPDEST SWAP3 SWAP2 POP POP JUMP JUMPDEST PUSH1 0x0 PUSH1 0x40 DUP3 ADD SWAP1 POP PUSH2 0x6AC PUSH1 0x0 DUP4 ADD DUP6 PUSH2 0x568 JUMP JUMPDEST PUSH2 0x6B9 PUSH1 0x20 DUP4 ADD DUP5 PUSH2 0x5FE JUMP JUMPDEST SWAP4 SWAP3 POP POP POP JUMP JUMPDEST PUSH1 0x0 PUSH1 0x40 DUP3 ADD SWAP1 POP PUSH2 0x6D5 PUSH1 0x0 DUP4 ADD DUP6 PUSH2 0x586 JUMP JUMPDEST PUSH2 0x6E2 PUSH1 0x20 DUP4 ADD DUP5 PUSH2 0x5FE JUMP JUMPDEST SWAP4 SWAP3 POP POP POP JUMP JUMPDEST PUSH1 0x0 PUSH1 0x20 DUP3 ADD SWAP1 POP DUP2 DUP2 SUB PUSH1 0x0 DUP4 ADD MSTORE PUSH2 0x702 DUP2 PUSH2 0x595 JUMP JUMPDEST SWAP1 POP SWAP2 SWAP1 POP JUMP JUMPDEST PUSH1 0x0 PUSH1 0x20 DUP3 ADD SWAP1 POP DUP2 DUP2 SUB PUSH1 0x0 DUP4 ADD MSTORE PUSH2 0x722 DUP2 PUSH2 0x5B8 JUMP JUMPDEST SWAP1 POP SWAP2 SWAP1 POP JUMP JUMPDEST PUSH1 0x0 PUSH1 0x20 DUP3 ADD SWAP1 POP DUP2 DUP2 SUB PUSH1 0x0 DUP4 ADD MSTORE PUSH2 0x742 DUP2 PUSH2 0x5DB JUMP JUMPDEST SWAP1 POP SWAP2 SWAP1 POP JUMP JUMPDEST PUSH1 0x0 PUSH1 0x20 DUP3 ADD SWAP1 POP PUSH2 0x75E PUSH1 0x0 DUP4 ADD DUP5 PUSH2 0x5FE JUMP JUMPDEST SWAP3 SWAP2 POP POP JUMP JUMPDEST PUSH1 0x0 DUP3 DUP3 MSTORE PUSH1 0x20 DUP3 ADD SWAP1 POP SWAP3 SWAP2 POP POP JUMP JUMPDEST PUSH1 0x0 PUSH2 0x780 DUP3 PUSH2 0x799 JUMP JUMPDEST SWAP1 POP SWAP2 SWAP1 POP JUMP JUMPDEST PUSH1 0x0 PUSH2 0x792 DUP3 PUSH2 0x799 JUMP JUMPDEST SWAP1 POP SWAP2 SWAP1 POP JUMP JUMPDEST PUSH1 0x0 PUSH20 0xFFFFFFFFFFFFFFFFFFFFFFFFFFFFFFFFFFFFFFFF DUP3 AND SWAP1 POP SWAP2 SWAP1 POP JUMP JUMPDEST PUSH1 0x0 DUP2 SWAP1 POP SWAP2 SWAP1 POP JUMP JUMPDEST PUSH1 0x0 PUSH2 0x7CE DUP3 PUSH2 0x7D5 JUMP JUMPDEST SWAP1 POP SWAP2 SWAP1 POP JUMP JUMPDEST PUSH1 0x0 PUSH2 0x7E0 DUP3 PUSH2 0x7E7 JUMP JUMPDEST SWAP1 POP SWAP2 SWAP1 POP JUMP JUMPDEST PUSH1 0x0 PUSH2 0x7F2 DUP3 PUSH2 0x799 JUMP JUMPDEST SWAP1 POP SWAP2 SWAP1 POP JUMP JUMPDEST PUSH1 0x0 DUP2 SWAP1 POP SWAP2 SWAP1 POP JUMP JUMPDEST PUSH1 0x0 PUSH2 0x80E DUP3 PUSH2 0x7B9 JUMP JUMPDEST SWAP2 POP PUSH2 0x819 DUP4 PUSH2 0x7B9 JUMP JUMPDEST SWAP3 POP DUP3 PUSH2 0x829 JUMPI PUSH2 0x828 PUSH2 0x834 JUMP JUMPDEST JUMPDEST DUP3 DUP3 MOD SWAP1 POP SWAP3 SWAP2 POP POP JUMP JUMPDEST PUSH32 0x4E487B7100000000000000000000000000000000000000000000000000000000 PUSH1 0x0 MSTORE PUSH1 0x12 PUSH1 0x4 MSTORE PUSH1 0x24 PUSH1 0x0 REVERT JUMPDEST PUSH32 0x4E487B7100000000000000000000000000000000000000000000000000000000 PUSH1 0x0 MSTORE PUSH1 0x32 PUSH1 0x4 MSTORE PUSH1 0x24 PUSH1 0x0 REVERT JUMPDEST PUSH1 0x0 DUP1 REVERT JUMPDEST PUSH32 0x4F6E6C79206D616E616765722063616E2063616C6C20746869732066756E6374 PUSH1 0x0 DUP3 ADD MSTORE PUSH32 0x696F6E0000000000000000000000000000000000000000000000000000000000 PUSH1 0x20 DUP3 ADD MSTORE POP JUMP JUMPDEST PUSH32 0x204D616E616765722063616E6E6F7420696E7665737400000000000000000000 PUSH1 0x0 DUP3 ADD MSTORE POP JUMP JUMPDEST PUSH32 0x496E76657374206D696E696D756D206F6420302E312065746865720000000000 PUSH1 0x0 DUP3 ADD MSTORE POP JUMP JUMPDEST PUSH2 0x941 DUP2 PUSH2 0x7B9 JUMP JUMPDEST DUP2 EQ PUSH2 0x94C JUMPI PUSH1 0x0 DUP1 REVERT JUMPDEST POP JUMP INVALID LOG2 PUSH5 0x6970667358 0x22 SLT KECCAK256 PUSH31 0xF56F18F12A82A3DA6F31DDDDD02F38427750C14F729F1F1008F2CB73EFB382 PUSH5 0x736F6C6343 STOP ADDMOD SMOD STOP CALLER "
				},
				"gasEstimates": {
					"creation": {
						"codeDepositCost": "487400",
						"executionCost": "24790",
						"totalCost": "512190"
					},
					"external": {
						"getBalance()": "2602",
						"invest()": "52534",
						"manager()": "2533",
						"players(uint256)": "5022",
						"selectWinner()": "infinite"
					},
					"internal": {
						"random()": "infinite"
					}
				},
				"methodIdentifiers": {
					"getBalance()": "12065fe0",
					"invest()": "e8b5e51f",
					"manager()": "481c6a75",
					"players(uint256)": "f71d96cb",
					"selectWinner()": "33a99e04"
				}
			},
			"storageLayout": {
				"storage": [
					{
						"astId": 3,
						"contract": "training/contracts/lottery2.sol:Lottery",
						"label": "manager",
						"offset": 0,
						"slot": "0",
						"type": "t_address"
					},
					{
						"astId": 6,
						"contract": "training/contracts/lottery2.sol:Lottery",
						"label": "players",
						"offset": 0,
						"slot": "1",
						"type": "t_array(t_address_payable)dyn_storage"
					}
				],
				"types": {
					"t_address": {
						"encoding": "inplace",
						"label": "address",
						"numberOfBytes": "20"
					},
					"t_address_payable": {
						"encoding": "inplace",
						"label": "address payable",
						"numberOfBytes": "20"
					},
					"t_array(t_address_payable)dyn_storage": {
						"base": "t_address_payable",
						"encoding": "dynamic_array",
						"label": "address payable[]",
						"numberOfBytes": "32"
					}
				}
			},
			"userdoc": {
				"kind": "user",
				"methods": {},
				"version": 1
			}
		}
	}
}