{
	"training/contracts/Polymorfizm.sol": {
		"Poly": {
			"abi": [
				{
					"inputs": [
						{
							"internalType": "int256",
							"name": "a",
							"type": "int256"
						},
						{
							"internalType": "int256",
							"name": "b",
							"type": "int256"
						}
					],
					"name": "sum",
					"outputs": [
						{
							"internalType": "int256",
							"name": "",
							"type": "int256"
						}
					],
					"stateMutability": "pure",
					"type": "function"
				},
				{
					"inputs": [
						{
							"internalType": "int256",
							"name": "a",
							"type": "int256"
						},
						{
							"internalType": "int256",
							"name": "b",
							"type": "int256"
						},
						{
							"internalType": "int256",
							"name": "c",
							"type": "int256"
						}
					],
					"name": "sum",
					"outputs": [
						{
							"internalType": "int256",
							"name": "",
							"type": "int256"
						}
					],
					"stateMutability": "pure",
					"type": "function"
				},
				{
					"inputs": [
						{
							"internalType": "string",
							"name": "a",
							"type": "string"
						},
						{
							"internalType": "string",
							"name": "b",
							"type": "string"
						}
					],
					"name": "sum",
					"outputs": [
						{
							"internalType": "int256",
							"name": "",
							"type": "int256"
						}
					],
					"stateMutability": "pure",
					"type": "function"
				}
			],
			"devdoc": {
				"kind": "dev",
				"methods": {},
				"version": 1
			},
			"evm": {
				"assembly": "    /* \"training/contracts/Polymorfizm.sol\":33:319  contract Poly{... */\n  mstore(0x40, 0x80)\n  callvalue\n  dup1\n  iszero\n  tag_1\n  jumpi\n  0x00\n  dup1\n  revert\ntag_1:\n  pop\n  dataSize(sub_0)\n  dup1\n  dataOffset(sub_0)\n  0x00\n  codecopy\n  0x00\n  return\nstop\n\nsub_0: assembly {\n        /* \"training/contracts/Polymorfizm.sol\":33:319  contract Poly{... */\n      mstore(0x40, 0x80)\n      callvalue\n      dup1\n      iszero\n      tag_1\n      jumpi\n      0x00\n      dup1\n      revert\n    tag_1:\n      pop\n      jumpi(tag_2, lt(calldatasize, 0x04))\n      shr(0xe0, calldataload(0x00))\n      dup1\n      0x9967062d\n      eq\n      tag_3\n      jumpi\n      dup1\n      0xa7e04671\n      eq\n      tag_4\n      jumpi\n      dup1\n      0xe61840f2\n      eq\n      tag_5\n      jumpi\n    tag_2:\n      0x00\n      dup1\n      revert\n        /* \"training/contracts/Polymorfizm.sol\":52:130  function sum(int a, int b) public pure returns(int){... */\n    tag_3:\n      tag_6\n      0x04\n      dup1\n      calldatasize\n      sub\n      dup2\n      add\n      swap1\n      tag_7\n      swap2\n      swap1\n      tag_8\n      jump\t// in\n    tag_7:\n      tag_9\n      jump\t// in\n    tag_6:\n      mload(0x40)\n      tag_10\n      swap2\n      swap1\n      tag_11\n      jump\t// in\n    tag_10:\n      mload(0x40)\n      dup1\n      swap2\n      sub\n      swap1\n      return\n        /* \"training/contracts/Polymorfizm.sol\":136:223  function sum(int a, int b, int c) public pure returns(int){... */\n    tag_4:\n      tag_12\n      0x04\n      dup1\n      calldatasize\n      sub\n      dup2\n      add\n      swap1\n      tag_13\n      swap2\n      swap1\n      tag_14\n      jump\t// in\n    tag_13:\n      tag_15\n      jump\t// in\n    tag_12:\n      mload(0x40)\n      tag_16\n      swap2\n      swap1\n      tag_11\n      jump\t// in\n    tag_16:\n      mload(0x40)\n      dup1\n      swap2\n      sub\n      swap1\n      return\n        /* \"training/contracts/Polymorfizm.sol\":229:316  function sum(string memory a, string memory b) public pure returns(int){... */\n    tag_5:\n      tag_17\n      0x04\n      dup1\n      calldatasize\n      sub\n      dup2\n      add\n      swap1\n      tag_18\n      swap2\n      swap1\n      tag_19\n      jump\t// in\n    tag_18:\n      tag_20\n      jump\t// in\n    tag_17:\n      mload(0x40)\n      tag_21\n      swap2\n      swap1\n      tag_11\n      jump\t// in\n    tag_21:\n      mload(0x40)\n      dup1\n      swap2\n      sub\n      swap1\n      return\n        /* \"training/contracts/Polymorfizm.sol\":52:130  function sum(int a, int b) public pure returns(int){... */\n    tag_9:\n        /* \"training/contracts/Polymorfizm.sol\":99:102  int */\n      0x00\n        /* \"training/contracts/Polymorfizm.sol\":122:123  b */\n      dup2\n        /* \"training/contracts/Polymorfizm.sol\":120:121  a */\n      dup4\n        /* \"training/contracts/Polymorfizm.sol\":120:123  a+b */\n      tag_23\n      swap2\n      swap1\n      tag_24\n      jump\t// in\n    tag_23:\n        /* \"training/contracts/Polymorfizm.sol\":113:123  return a+b */\n      swap1\n      pop\n        /* \"training/contracts/Polymorfizm.sol\":52:130  function sum(int a, int b) public pure returns(int){... */\n      swap3\n      swap2\n      pop\n      pop\n      jump\t// out\n        /* \"training/contracts/Polymorfizm.sol\":136:223  function sum(int a, int b, int c) public pure returns(int){... */\n    tag_15:\n        /* \"training/contracts/Polymorfizm.sol\":190:193  int */\n      0x00\n        /* \"training/contracts/Polymorfizm.sol\":215:216  c */\n      dup2\n        /* \"training/contracts/Polymorfizm.sol\":213:214  b */\n      dup4\n        /* \"training/contracts/Polymorfizm.sol\":211:212  a */\n      dup6\n        /* \"training/contracts/Polymorfizm.sol\":211:214  a+b */\n      tag_26\n      swap2\n      swap1\n      tag_24\n      jump\t// in\n    tag_26:\n        /* \"training/contracts/Polymorfizm.sol\":211:216  a+b+c */\n      tag_27\n      swap2\n      swap1\n      tag_24\n      jump\t// in\n    tag_27:\n        /* \"training/contracts/Polymorfizm.sol\":204:216  return a+b+c */\n      swap1\n      pop\n        /* \"training/contracts/Polymorfizm.sol\":136:223  function sum(int a, int b, int c) public pure returns(int){... */\n      swap4\n      swap3\n      pop\n      pop\n      pop\n      jump\t// out\n        /* \"training/contracts/Polymorfizm.sol\":229:316  function sum(string memory a, string memory b) public pure returns(int){... */\n    tag_20:\n        /* \"training/contracts/Polymorfizm.sol\":296:299  int */\n      0x00\n        /* \"training/contracts/Polymorfizm.sol\":229:316  function sum(string memory a, string memory b) public pure returns(int){... */\n      swap3\n      swap2\n      pop\n      pop\n      jump\t// out\n        /* \"#utility.yul\":7:419   */\n    tag_30:\n        /* \"#utility.yul\":85:90   */\n      0x00\n        /* \"#utility.yul\":110:176   */\n      tag_32\n        /* \"#utility.yul\":126:175   */\n      tag_33\n        /* \"#utility.yul\":168:174   */\n      dup5\n        /* \"#utility.yul\":126:175   */\n      tag_34\n      jump\t// in\n    tag_33:\n        /* \"#utility.yul\":110:176   */\n      tag_35\n      jump\t// in\n    tag_32:\n        /* \"#utility.yul\":101:176   */\n      swap1\n      pop\n        /* \"#utility.yul\":199:205   */\n      dup3\n        /* \"#utility.yul\":192:197   */\n      dup2\n        /* \"#utility.yul\":185:206   */\n      mstore\n        /* \"#utility.yul\":237:241   */\n      0x20\n        /* \"#utility.yul\":230:235   */\n      dup2\n        /* \"#utility.yul\":226:242   */\n      add\n        /* \"#utility.yul\":275:278   */\n      dup5\n        /* \"#utility.yul\":266:272   */\n      dup5\n        /* \"#utility.yul\":261:264   */\n      dup5\n        /* \"#utility.yul\":257:273   */\n      add\n        /* \"#utility.yul\":254:279   */\n      gt\n        /* \"#utility.yul\":251:363   */\n      iszero\n      tag_36\n      jumpi\n        /* \"#utility.yul\":282:361   */\n      tag_37\n      tag_38\n      jump\t// in\n    tag_37:\n        /* \"#utility.yul\":251:363   */\n    tag_36:\n        /* \"#utility.yul\":372:413   */\n      tag_39\n        /* \"#utility.yul\":406:412   */\n      dup5\n        /* \"#utility.yul\":401:404   */\n      dup3\n        /* \"#utility.yul\":396:399   */\n      dup6\n        /* \"#utility.yul\":372:413   */\n      tag_40\n      jump\t// in\n    tag_39:\n        /* \"#utility.yul\":91:419   */\n      pop\n        /* \"#utility.yul\":7:419   */\n      swap4\n      swap3\n      pop\n      pop\n      pop\n      jump\t// out\n        /* \"#utility.yul\":425:562   */\n    tag_41:\n        /* \"#utility.yul\":470:475   */\n      0x00\n        /* \"#utility.yul\":508:514   */\n      dup2\n        /* \"#utility.yul\":495:515   */\n      calldataload\n        /* \"#utility.yul\":486:515   */\n      swap1\n      pop\n        /* \"#utility.yul\":524:556   */\n      tag_43\n        /* \"#utility.yul\":550:555   */\n      dup2\n        /* \"#utility.yul\":524:556   */\n      tag_44\n      jump\t// in\n    tag_43:\n        /* \"#utility.yul\":425:562   */\n      swap3\n      swap2\n      pop\n      pop\n      jump\t// out\n        /* \"#utility.yul\":582:922   */\n    tag_45:\n        /* \"#utility.yul\":638:643   */\n      0x00\n        /* \"#utility.yul\":687:690   */\n      dup3\n        /* \"#utility.yul\":680:684   */\n      0x1f\n        /* \"#utility.yul\":672:678   */\n      dup4\n        /* \"#utility.yul\":668:685   */\n      add\n        /* \"#utility.yul\":664:691   */\n      slt\n        /* \"#utility.yul\":654:776   */\n      tag_47\n      jumpi\n        /* \"#utility.yul\":695:774   */\n      tag_48\n      tag_49\n      jump\t// in\n    tag_48:\n        /* \"#utility.yul\":654:776   */\n    tag_47:\n        /* \"#utility.yul\":812:818   */\n      dup2\n        /* \"#utility.yul\":799:819   */\n      calldataload\n        /* \"#utility.yul\":837:916   */\n      tag_50\n        /* \"#utility.yul\":912:915   */\n      dup5\n        /* \"#utility.yul\":904:910   */\n      dup3\n        /* \"#utility.yul\":897:901   */\n      0x20\n        /* \"#utility.yul\":889:895   */\n      dup7\n        /* \"#utility.yul\":885:902   */\n      add\n        /* \"#utility.yul\":837:916   */\n      tag_30\n      jump\t// in\n    tag_50:\n        /* \"#utility.yul\":828:916   */\n      swap2\n      pop\n        /* \"#utility.yul\":644:922   */\n      pop\n        /* \"#utility.yul\":582:922   */\n      swap3\n      swap2\n      pop\n      pop\n      jump\t// out\n        /* \"#utility.yul\":928:1398   */\n    tag_8:\n        /* \"#utility.yul\":994:1000   */\n      0x00\n        /* \"#utility.yul\":1002:1008   */\n      dup1\n        /* \"#utility.yul\":1051:1053   */\n      0x40\n        /* \"#utility.yul\":1039:1048   */\n      dup4\n        /* \"#utility.yul\":1030:1037   */\n      dup6\n        /* \"#utility.yul\":1026:1049   */\n      sub\n        /* \"#utility.yul\":1022:1054   */\n      slt\n        /* \"#utility.yul\":1019:1138   */\n      iszero\n      tag_52\n      jumpi\n        /* \"#utility.yul\":1057:1136   */\n      tag_53\n      tag_54\n      jump\t// in\n    tag_53:\n        /* \"#utility.yul\":1019:1138   */\n    tag_52:\n        /* \"#utility.yul\":1177:1178   */\n      0x00\n        /* \"#utility.yul\":1202:1254   */\n      tag_55\n        /* \"#utility.yul\":1246:1253   */\n      dup6\n        /* \"#utility.yul\":1237:1243   */\n      dup3\n        /* \"#utility.yul\":1226:1235   */\n      dup7\n        /* \"#utility.yul\":1222:1244   */\n      add\n        /* \"#utility.yul\":1202:1254   */\n      tag_41\n      jump\t// in\n    tag_55:\n        /* \"#utility.yul\":1192:1254   */\n      swap3\n      pop\n        /* \"#utility.yul\":1148:1264   */\n      pop\n        /* \"#utility.yul\":1303:1305   */\n      0x20\n        /* \"#utility.yul\":1329:1381   */\n      tag_56\n        /* \"#utility.yul\":1373:1380   */\n      dup6\n        /* \"#utility.yul\":1364:1370   */\n      dup3\n        /* \"#utility.yul\":1353:1362   */\n      dup7\n        /* \"#utility.yul\":1349:1371   */\n      add\n        /* \"#utility.yul\":1329:1381   */\n      tag_41\n      jump\t// in\n    tag_56:\n        /* \"#utility.yul\":1319:1381   */\n      swap2\n      pop\n        /* \"#utility.yul\":1274:1391   */\n      pop\n        /* \"#utility.yul\":928:1398   */\n      swap3\n      pop\n      swap3\n      swap1\n      pop\n      jump\t// out\n        /* \"#utility.yul\":1404:2017   */\n    tag_14:\n        /* \"#utility.yul\":1478:1484   */\n      0x00\n        /* \"#utility.yul\":1486:1492   */\n      dup1\n        /* \"#utility.yul\":1494:1500   */\n      0x00\n        /* \"#utility.yul\":1543:1545   */\n      0x60\n        /* \"#utility.yul\":1531:1540   */\n      dup5\n        /* \"#utility.yul\":1522:1529   */\n      dup7\n        /* \"#utility.yul\":1518:1541   */\n      sub\n        /* \"#utility.yul\":1514:1546   */\n      slt\n        /* \"#utility.yul\":1511:1630   */\n      iszero\n      tag_58\n      jumpi\n        /* \"#utility.yul\":1549:1628   */\n      tag_59\n      tag_54\n      jump\t// in\n    tag_59:\n        /* \"#utility.yul\":1511:1630   */\n    tag_58:\n        /* \"#utility.yul\":1669:1670   */\n      0x00\n        /* \"#utility.yul\":1694:1746   */\n      tag_60\n        /* \"#utility.yul\":1738:1745   */\n      dup7\n        /* \"#utility.yul\":1729:1735   */\n      dup3\n        /* \"#utility.yul\":1718:1727   */\n      dup8\n        /* \"#utility.yul\":1714:1736   */\n      add\n        /* \"#utility.yul\":1694:1746   */\n      tag_41\n      jump\t// in\n    tag_60:\n        /* \"#utility.yul\":1684:1746   */\n      swap4\n      pop\n        /* \"#utility.yul\":1640:1756   */\n      pop\n        /* \"#utility.yul\":1795:1797   */\n      0x20\n        /* \"#utility.yul\":1821:1873   */\n      tag_61\n        /* \"#utility.yul\":1865:1872   */\n      dup7\n        /* \"#utility.yul\":1856:1862   */\n      dup3\n        /* \"#utility.yul\":1845:1854   */\n      dup8\n        /* \"#utility.yul\":1841:1863   */\n      add\n        /* \"#utility.yul\":1821:1873   */\n      tag_41\n      jump\t// in\n    tag_61:\n        /* \"#utility.yul\":1811:1873   */\n      swap3\n      pop\n        /* \"#utility.yul\":1766:1883   */\n      pop\n        /* \"#utility.yul\":1922:1924   */\n      0x40\n        /* \"#utility.yul\":1948:2000   */\n      tag_62\n        /* \"#utility.yul\":1992:1999   */\n      dup7\n        /* \"#utility.yul\":1983:1989   */\n      dup3\n        /* \"#utility.yul\":1972:1981   */\n      dup8\n        /* \"#utility.yul\":1968:1990   */\n      add\n        /* \"#utility.yul\":1948:2000   */\n      tag_41\n      jump\t// in\n    tag_62:\n        /* \"#utility.yul\":1938:2000   */\n      swap2\n      pop\n        /* \"#utility.yul\":1893:2010   */\n      pop\n        /* \"#utility.yul\":1404:2017   */\n      swap3\n      pop\n      swap3\n      pop\n      swap3\n      jump\t// out\n        /* \"#utility.yul\":2023:2857   */\n    tag_19:\n        /* \"#utility.yul\":2111:2117   */\n      0x00\n        /* \"#utility.yul\":2119:2125   */\n      dup1\n        /* \"#utility.yul\":2168:2170   */\n      0x40\n        /* \"#utility.yul\":2156:2165   */\n      dup4\n        /* \"#utility.yul\":2147:2154   */\n      dup6\n        /* \"#utility.yul\":2143:2166   */\n      sub\n        /* \"#utility.yul\":2139:2171   */\n      slt\n        /* \"#utility.yul\":2136:2255   */\n      iszero\n      tag_64\n      jumpi\n        /* \"#utility.yul\":2174:2253   */\n      tag_65\n      tag_54\n      jump\t// in\n    tag_65:\n        /* \"#utility.yul\":2136:2255   */\n    tag_64:\n        /* \"#utility.yul\":2322:2323   */\n      0x00\n        /* \"#utility.yul\":2311:2320   */\n      dup4\n        /* \"#utility.yul\":2307:2324   */\n      add\n        /* \"#utility.yul\":2294:2325   */\n      calldataload\n        /* \"#utility.yul\":2352:2370   */\n      0xffffffffffffffff\n        /* \"#utility.yul\":2344:2350   */\n      dup2\n        /* \"#utility.yul\":2341:2371   */\n      gt\n        /* \"#utility.yul\":2338:2455   */\n      iszero\n      tag_66\n      jumpi\n        /* \"#utility.yul\":2374:2453   */\n      tag_67\n      tag_68\n      jump\t// in\n    tag_67:\n        /* \"#utility.yul\":2338:2455   */\n    tag_66:\n        /* \"#utility.yul\":2479:2542   */\n      tag_69\n        /* \"#utility.yul\":2534:2541   */\n      dup6\n        /* \"#utility.yul\":2525:2531   */\n      dup3\n        /* \"#utility.yul\":2514:2523   */\n      dup7\n        /* \"#utility.yul\":2510:2532   */\n      add\n        /* \"#utility.yul\":2479:2542   */\n      tag_45\n      jump\t// in\n    tag_69:\n        /* \"#utility.yul\":2469:2542   */\n      swap3\n      pop\n        /* \"#utility.yul\":2265:2552   */\n      pop\n        /* \"#utility.yul\":2619:2621   */\n      0x20\n        /* \"#utility.yul\":2608:2617   */\n      dup4\n        /* \"#utility.yul\":2604:2622   */\n      add\n        /* \"#utility.yul\":2591:2623   */\n      calldataload\n        /* \"#utility.yul\":2650:2668   */\n      0xffffffffffffffff\n        /* \"#utility.yul\":2642:2648   */\n      dup2\n        /* \"#utility.yul\":2639:2669   */\n      gt\n        /* \"#utility.yul\":2636:2753   */\n      iszero\n      tag_70\n      jumpi\n        /* \"#utility.yul\":2672:2751   */\n      tag_71\n      tag_68\n      jump\t// in\n    tag_71:\n        /* \"#utility.yul\":2636:2753   */\n    tag_70:\n        /* \"#utility.yul\":2777:2840   */\n      tag_72\n        /* \"#utility.yul\":2832:2839   */\n      dup6\n        /* \"#utility.yul\":2823:2829   */\n      dup3\n        /* \"#utility.yul\":2812:2821   */\n      dup7\n        /* \"#utility.yul\":2808:2830   */\n      add\n        /* \"#utility.yul\":2777:2840   */\n      tag_45\n      jump\t// in\n    tag_72:\n        /* \"#utility.yul\":2767:2840   */\n      swap2\n      pop\n        /* \"#utility.yul\":2562:2850   */\n      pop\n        /* \"#utility.yul\":2023:2857   */\n      swap3\n      pop\n      swap3\n      swap1\n      pop\n      jump\t// out\n        /* \"#utility.yul\":2863:2978   */\n    tag_73:\n        /* \"#utility.yul\":2948:2971   */\n      tag_75\n        /* \"#utility.yul\":2965:2970   */\n      dup2\n        /* \"#utility.yul\":2948:2971   */\n      tag_76\n      jump\t// in\n    tag_75:\n        /* \"#utility.yul\":2943:2946   */\n      dup3\n        /* \"#utility.yul\":2936:2972   */\n      mstore\n        /* \"#utility.yul\":2863:2978   */\n      pop\n      pop\n      jump\t// out\n        /* \"#utility.yul\":2984:3202   */\n    tag_11:\n        /* \"#utility.yul\":3075:3079   */\n      0x00\n        /* \"#utility.yul\":3113:3115   */\n      0x20\n        /* \"#utility.yul\":3102:3111   */\n      dup3\n        /* \"#utility.yul\":3098:3116   */\n      add\n        /* \"#utility.yul\":3090:3116   */\n      swap1\n      pop\n        /* \"#utility.yul\":3126:3195   */\n      tag_78\n        /* \"#utility.yul\":3192:3193   */\n      0x00\n        /* \"#utility.yul\":3181:3190   */\n      dup4\n        /* \"#utility.yul\":3177:3194   */\n      add\n        /* \"#utility.yul\":3168:3174   */\n      dup5\n        /* \"#utility.yul\":3126:3195   */\n      tag_73\n      jump\t// in\n    tag_78:\n        /* \"#utility.yul\":2984:3202   */\n      swap3\n      swap2\n      pop\n      pop\n      jump\t// out\n        /* \"#utility.yul\":3208:3337   */\n    tag_35:\n        /* \"#utility.yul\":3242:3248   */\n      0x00\n        /* \"#utility.yul\":3269:3289   */\n      tag_80\n      tag_81\n      jump\t// in\n    tag_80:\n        /* \"#utility.yul\":3259:3289   */\n      swap1\n      pop\n        /* \"#utility.yul\":3298:3331   */\n      tag_82\n        /* \"#utility.yul\":3326:3330   */\n      dup3\n        /* \"#utility.yul\":3318:3324   */\n      dup3\n        /* \"#utility.yul\":3298:3331   */\n      tag_83\n      jump\t// in\n    tag_82:\n        /* \"#utility.yul\":3208:3337   */\n      swap2\n      swap1\n      pop\n      jump\t// out\n        /* \"#utility.yul\":3343:3418   */\n    tag_81:\n        /* \"#utility.yul\":3376:3382   */\n      0x00\n        /* \"#utility.yul\":3409:3411   */\n      0x40\n        /* \"#utility.yul\":3403:3412   */\n      mload\n        /* \"#utility.yul\":3393:3412   */\n      swap1\n      pop\n        /* \"#utility.yul\":3343:3418   */\n      swap1\n      jump\t// out\n        /* \"#utility.yul\":3424:3732   */\n    tag_34:\n        /* \"#utility.yul\":3486:3490   */\n      0x00\n        /* \"#utility.yul\":3576:3594   */\n      0xffffffffffffffff\n        /* \"#utility.yul\":3568:3574   */\n      dup3\n        /* \"#utility.yul\":3565:3595   */\n      gt\n        /* \"#utility.yul\":3562:3618   */\n      iszero\n      tag_86\n      jumpi\n        /* \"#utility.yul\":3598:3616   */\n      tag_87\n      tag_88\n      jump\t// in\n    tag_87:\n        /* \"#utility.yul\":3562:3618   */\n    tag_86:\n        /* \"#utility.yul\":3636:3665   */\n      tag_89\n        /* \"#utility.yul\":3658:3664   */\n      dup3\n        /* \"#utility.yul\":3636:3665   */\n      tag_90\n      jump\t// in\n    tag_89:\n        /* \"#utility.yul\":3628:3665   */\n      swap1\n      pop\n        /* \"#utility.yul\":3720:3724   */\n      0x20\n        /* \"#utility.yul\":3714:3718   */\n      dup2\n        /* \"#utility.yul\":3710:3725   */\n      add\n        /* \"#utility.yul\":3702:3725   */\n      swap1\n      pop\n        /* \"#utility.yul\":3424:3732   */\n      swap2\n      swap1\n      pop\n      jump\t// out\n        /* \"#utility.yul\":3738:4263   */\n    tag_24:\n        /* \"#utility.yul\":3777:3780   */\n      0x00\n        /* \"#utility.yul\":3796:3815   */\n      tag_92\n        /* \"#utility.yul\":3813:3814   */\n      dup3\n        /* \"#utility.yul\":3796:3815   */\n      tag_76\n      jump\t// in\n    tag_92:\n        /* \"#utility.yul\":3791:3815   */\n      swap2\n      pop\n        /* \"#utility.yul\":3829:3848   */\n      tag_93\n        /* \"#utility.yul\":3846:3847   */\n      dup4\n        /* \"#utility.yul\":3829:3848   */\n      tag_76\n      jump\t// in\n    tag_93:\n        /* \"#utility.yul\":3824:3848   */\n      swap3\n      pop\n        /* \"#utility.yul\":4017:4018   */\n      dup2\n        /* \"#utility.yul\":3949:4015   */\n      0x7fffffffffffffffffffffffffffffffffffffffffffffffffffffffffffffff\n        /* \"#utility.yul\":3945:4019   */\n      sub\n        /* \"#utility.yul\":3942:3943   */\n      dup4\n        /* \"#utility.yul\":3938:4020   */\n      sgt\n        /* \"#utility.yul\":3933:3934   */\n      0x00\n        /* \"#utility.yul\":3930:3931   */\n      dup4\n        /* \"#utility.yul\":3926:3935   */\n      slt\n        /* \"#utility.yul\":3919:3936   */\n      iszero\n        /* \"#utility.yul\":3915:4021   */\n      and\n        /* \"#utility.yul\":3912:4044   */\n      iszero\n      tag_94\n      jumpi\n        /* \"#utility.yul\":4024:4042   */\n      tag_95\n      tag_96\n      jump\t// in\n    tag_95:\n        /* \"#utility.yul\":3912:4044   */\n    tag_94:\n        /* \"#utility.yul\":4204:4205   */\n      dup2\n        /* \"#utility.yul\":4136:4202   */\n      0x8000000000000000000000000000000000000000000000000000000000000000\n        /* \"#utility.yul\":4132:4206   */\n      sub\n        /* \"#utility.yul\":4129:4130   */\n      dup4\n        /* \"#utility.yul\":4125:4207   */\n      slt\n        /* \"#utility.yul\":4121:4122   */\n      0x00\n        /* \"#utility.yul\":4118:4119   */\n      dup4\n        /* \"#utility.yul\":4114:4123   */\n      slt\n        /* \"#utility.yul\":4110:4208   */\n      and\n        /* \"#utility.yul\":4107:4231   */\n      iszero\n      tag_97\n      jumpi\n        /* \"#utility.yul\":4211:4229   */\n      tag_98\n      tag_96\n      jump\t// in\n    tag_98:\n        /* \"#utility.yul\":4107:4231   */\n    tag_97:\n        /* \"#utility.yul\":4255:4256   */\n      dup3\n        /* \"#utility.yul\":4252:4253   */\n      dup3\n        /* \"#utility.yul\":4248:4257   */\n      add\n        /* \"#utility.yul\":4241:4257   */\n      swap1\n      pop\n        /* \"#utility.yul\":3738:4263   */\n      swap3\n      swap2\n      pop\n      pop\n      jump\t// out\n        /* \"#utility.yul\":4269:4345   */\n    tag_76:\n        /* \"#utility.yul\":4305:4312   */\n      0x00\n        /* \"#utility.yul\":4334:4339   */\n      dup2\n        /* \"#utility.yul\":4323:4339   */\n      swap1\n      pop\n        /* \"#utility.yul\":4269:4345   */\n      swap2\n      swap1\n      pop\n      jump\t// out\n        /* \"#utility.yul\":4351:4505   */\n    tag_40:\n        /* \"#utility.yul\":4435:4441   */\n      dup3\n        /* \"#utility.yul\":4430:4433   */\n      dup2\n        /* \"#utility.yul\":4425:4428   */\n      dup4\n        /* \"#utility.yul\":4412:4442   */\n      calldatacopy\n        /* \"#utility.yul\":4497:4498   */\n      0x00\n        /* \"#utility.yul\":4488:4494   */\n      dup4\n        /* \"#utility.yul\":4483:4486   */\n      dup4\n        /* \"#utility.yul\":4479:4495   */\n      add\n        /* \"#utility.yul\":4472:4499   */\n      mstore\n        /* \"#utility.yul\":4351:4505   */\n      pop\n      pop\n      pop\n      jump\t// out\n        /* \"#utility.yul\":4511:4792   */\n    tag_83:\n        /* \"#utility.yul\":4594:4621   */\n      tag_102\n        /* \"#utility.yul\":4616:4620   */\n      dup3\n        /* \"#utility.yul\":4594:4621   */\n      tag_90\n      jump\t// in\n    tag_102:\n        /* \"#utility.yul\":4586:4592   */\n      dup2\n        /* \"#utility.yul\":4582:4622   */\n      add\n        /* \"#utility.yul\":4724:4730   */\n      dup2\n        /* \"#utility.yul\":4712:4722   */\n      dup2\n        /* \"#utility.yul\":4709:4731   */\n      lt\n        /* \"#utility.yul\":4688:4706   */\n      0xffffffffffffffff\n        /* \"#utility.yul\":4676:4686   */\n      dup3\n        /* \"#utility.yul\":4673:4707   */\n      gt\n        /* \"#utility.yul\":4670:4732   */\n      or\n        /* \"#utility.yul\":4667:4755   */\n      iszero\n      tag_103\n      jumpi\n        /* \"#utility.yul\":4735:4753   */\n      tag_104\n      tag_88\n      jump\t// in\n    tag_104:\n        /* \"#utility.yul\":4667:4755   */\n    tag_103:\n        /* \"#utility.yul\":4775:4785   */\n      dup1\n        /* \"#utility.yul\":4771:4773   */\n      0x40\n        /* \"#utility.yul\":4764:4786   */\n      mstore\n        /* \"#utility.yul\":4554:4792   */\n      pop\n        /* \"#utility.yul\":4511:4792   */\n      pop\n      pop\n      jump\t// out\n        /* \"#utility.yul\":4798:4978   */\n    tag_96:\n        /* \"#utility.yul\":4846:4923   */\n      0x4e487b7100000000000000000000000000000000000000000000000000000000\n        /* \"#utility.yul\":4843:4844   */\n      0x00\n        /* \"#utility.yul\":4836:4924   */\n      mstore\n        /* \"#utility.yul\":4943:4947   */\n      0x11\n        /* \"#utility.yul\":4940:4941   */\n      0x04\n        /* \"#utility.yul\":4933:4948   */\n      mstore\n        /* \"#utility.yul\":4967:4971   */\n      0x24\n        /* \"#utility.yul\":4964:4965   */\n      0x00\n        /* \"#utility.yul\":4957:4972   */\n      revert\n        /* \"#utility.yul\":4984:5164   */\n    tag_88:\n        /* \"#utility.yul\":5032:5109   */\n      0x4e487b7100000000000000000000000000000000000000000000000000000000\n        /* \"#utility.yul\":5029:5030   */\n      0x00\n        /* \"#utility.yul\":5022:5110   */\n      mstore\n        /* \"#utility.yul\":5129:5133   */\n      0x41\n        /* \"#utility.yul\":5126:5127   */\n      0x04\n        /* \"#utility.yul\":5119:5134   */\n      mstore\n        /* \"#utility.yul\":5153:5157   */\n      0x24\n        /* \"#utility.yul\":5150:5151   */\n      0x00\n        /* \"#utility.yul\":5143:5158   */\n      revert\n        /* \"#utility.yul\":5170:5287   */\n    tag_49:\n        /* \"#utility.yul\":5279:5280   */\n      0x00\n        /* \"#utility.yul\":5276:5277   */\n      dup1\n        /* \"#utility.yul\":5269:5281   */\n      revert\n        /* \"#utility.yul\":5293:5410   */\n    tag_38:\n        /* \"#utility.yul\":5402:5403   */\n      0x00\n        /* \"#utility.yul\":5399:5400   */\n      dup1\n        /* \"#utility.yul\":5392:5404   */\n      revert\n        /* \"#utility.yul\":5416:5533   */\n    tag_68:\n        /* \"#utility.yul\":5525:5526   */\n      0x00\n        /* \"#utility.yul\":5522:5523   */\n      dup1\n        /* \"#utility.yul\":5515:5527   */\n      revert\n        /* \"#utility.yul\":5539:5656   */\n    tag_54:\n        /* \"#utility.yul\":5648:5649   */\n      0x00\n        /* \"#utility.yul\":5645:5646   */\n      dup1\n        /* \"#utility.yul\":5638:5650   */\n      revert\n        /* \"#utility.yul\":5662:5764   */\n    tag_90:\n        /* \"#utility.yul\":5703:5709   */\n      0x00\n        /* \"#utility.yul\":5754:5756   */\n      0x1f\n        /* \"#utility.yul\":5750:5757   */\n      not\n        /* \"#utility.yul\":5745:5747   */\n      0x1f\n        /* \"#utility.yul\":5738:5743   */\n      dup4\n        /* \"#utility.yul\":5734:5748   */\n      add\n        /* \"#utility.yul\":5730:5758   */\n      and\n        /* \"#utility.yul\":5720:5758   */\n      swap1\n      pop\n        /* \"#utility.yul\":5662:5764   */\n      swap2\n      swap1\n      pop\n      jump\t// out\n        /* \"#utility.yul\":5770:5890   */\n    tag_44:\n        /* \"#utility.yul\":5842:5865   */\n      tag_113\n        /* \"#utility.yul\":5859:5864   */\n      dup2\n        /* \"#utility.yul\":5842:5865   */\n      tag_76\n      jump\t// in\n    tag_113:\n        /* \"#utility.yul\":5835:5840   */\n      dup2\n        /* \"#utility.yul\":5832:5866   */\n      eq\n        /* \"#utility.yul\":5822:5884   */\n      tag_114\n      jumpi\n        /* \"#utility.yul\":5880:5881   */\n      0x00\n        /* \"#utility.yul\":5877:5878   */\n      dup1\n        /* \"#utility.yul\":5870:5882   */\n      revert\n        /* \"#utility.yul\":5822:5884   */\n    tag_114:\n        /* \"#utility.yul\":5770:5890   */\n      pop\n      jump\t// out\n\n    auxdata: 0xa2646970667358221220833a0b880202b61c9bc8cbfb8130223ffa0069ee8f7e064da06dc456d02fc1e764736f6c63430008070033\n}\n",
				"bytecode": {
					"linkReferences": {},
					"object": "608060405234801561001057600080fd5b506104d4806100206000396000f3fe608060405234801561001057600080fd5b50600436106100415760003560e01c80639967062d14610046578063a7e0467114610076578063e61840f2146100a6575b600080fd5b610060600480360381019061005b919061019b565b6100d6565b60405161006d91906102b5565b60405180910390f35b610090600480360381019061008b91906101db565b6100ec565b60405161009d91906102b5565b60405180910390f35b6100c060048036038101906100bb919061022e565b61010e565b6040516100cd91906102b5565b60405180910390f35b600081836100e49190610326565b905092915050565b60008183856100fb9190610326565b6101059190610326565b90509392505050565b600092915050565b6000610129610124846102f5565b6102d0565b90508281526020810184848401111561014557610144610467565b5b6101508482856103c4565b509392505050565b60008135905061016781610487565b92915050565b600082601f83011261018257610181610462565b5b8135610192848260208601610116565b91505092915050565b600080604083850312156101b2576101b1610471565b5b60006101c085828601610158565b92505060206101d185828601610158565b9150509250929050565b6000806000606084860312156101f4576101f3610471565b5b600061020286828701610158565b935050602061021386828701610158565b925050604061022486828701610158565b9150509250925092565b6000806040838503121561024557610244610471565b5b600083013567ffffffffffffffff8111156102635761026261046c565b5b61026f8582860161016d565b925050602083013567ffffffffffffffff8111156102905761028f61046c565b5b61029c8582860161016d565b9150509250929050565b6102af816103ba565b82525050565b60006020820190506102ca60008301846102a6565b92915050565b60006102da6102eb565b90506102e682826103d3565b919050565b6000604051905090565b600067ffffffffffffffff8211156103105761030f610433565b5b61031982610476565b9050602081019050919050565b6000610331826103ba565b915061033c836103ba565b9250817f7fffffffffffffffffffffffffffffffffffffffffffffffffffffffffffffff0383136000831215161561037757610376610404565b5b817f80000000000000000000000000000000000000000000000000000000000000000383126000831216156103af576103ae610404565b5b828201905092915050565b6000819050919050565b82818337600083830152505050565b6103dc82610476565b810181811067ffffffffffffffff821117156103fb576103fa610433565b5b80604052505050565b7f4e487b7100000000000000000000000000000000000000000000000000000000600052601160045260246000fd5b7f4e487b7100000000000000000000000000000000000000000000000000000000600052604160045260246000fd5b600080fd5b600080fd5b600080fd5b600080fd5b6000601f19601f8301169050919050565b610490816103ba565b811461049b57600080fd5b5056fea2646970667358221220833a0b880202b61c9bc8cbfb8130223ffa0069ee8f7e064da06dc456d02fc1e764736f6c63430008070033",
					"opcodes": "PUSH1 0x80 PUSH1 0x40 MSTORE CALLVALUE DUP1 ISZERO PUSH2 0x10 JUMPI PUSH1 0x0 DUP1 REVERT JUMPDEST POP PUSH2 0x4D4 DUP1 PUSH2 0x20 PUSH1 0x0 CODECOPY PUSH1 0x0 RETURN INVALID PUSH1 0x80 PUSH1 0x40 MSTORE CALLVALUE DUP1 ISZERO PUSH2 0x10 JUMPI PUSH1 0x0 DUP1 REVERT JUMPDEST POP PUSH1 0x4 CALLDATASIZE LT PUSH2 0x41 JUMPI PUSH1 0x0 CALLDATALOAD PUSH1 0xE0 SHR DUP1 PUSH4 0x9967062D EQ PUSH2 0x46 JUMPI DUP1 PUSH4 0xA7E04671 EQ PUSH2 0x76 JUMPI DUP1 PUSH4 0xE61840F2 EQ PUSH2 0xA6 JUMPI JUMPDEST PUSH1 0x0 DUP1 REVERT JUMPDEST PUSH2 0x60 PUSH1 0x4 DUP1 CALLDATASIZE SUB DUP2 ADD SWAP1 PUSH2 0x5B SWAP2 SWAP1 PUSH2 0x19B JUMP JUMPDEST PUSH2 0xD6 JUMP JUMPDEST PUSH1 0x40 MLOAD PUSH2 0x6D SWAP2 SWAP1 PUSH2 0x2B5 JUMP JUMPDEST PUSH1 0x40 MLOAD DUP1 SWAP2 SUB SWAP1 RETURN JUMPDEST PUSH2 0x90 PUSH1 0x4 DUP1 CALLDATASIZE SUB DUP2 ADD SWAP1 PUSH2 0x8B SWAP2 SWAP1 PUSH2 0x1DB JUMP JUMPDEST PUSH2 0xEC JUMP JUMPDEST PUSH1 0x40 MLOAD PUSH2 0x9D SWAP2 SWAP1 PUSH2 0x2B5 JUMP JUMPDEST PUSH1 0x40 MLOAD DUP1 SWAP2 SUB SWAP1 RETURN JUMPDEST PUSH2 0xC0 PUSH1 0x4 DUP1 CALLDATASIZE SUB DUP2 ADD SWAP1 PUSH2 0xBB SWAP2 SWAP1 PUSH2 0x22E JUMP JUMPDEST PUSH2 0x10E JUMP JUMPDEST PUSH1 0x40 MLOAD PUSH2 0xCD SWAP2 SWAP1 PUSH2 0x2B5 JUMP JUMPDEST PUSH1 0x40 MLOAD DUP1 SWAP2 SUB SWAP1 RETURN JUMPDEST PUSH1 0x0 DUP2 DUP4 PUSH2 0xE4 SWAP2 SWAP1 PUSH2 0x326 JUMP JUMPDEST SWAP1 POP SWAP3 SWAP2 POP POP JUMP JUMPDEST PUSH1 0x0 DUP2 DUP4 DUP6 PUSH2 0xFB SWAP2 SWAP1 PUSH2 0x326 JUMP JUMPDEST PUSH2 0x105 SWAP2 SWAP1 PUSH2 0x326 JUMP JUMPDEST SWAP1 POP SWAP4 SWAP3 POP POP POP JUMP JUMPDEST PUSH1 0x0 SWAP3 SWAP2 POP POP JUMP JUMPDEST PUSH1 0x0 PUSH2 0x129 PUSH2 0x124 DUP5 PUSH2 0x2F5 JUMP JUMPDEST PUSH2 0x2D0 JUMP JUMPDEST SWAP1 POP DUP3 DUP2 MSTORE PUSH1 0x20 DUP2 ADD DUP5 DUP5 DUP5 ADD GT ISZERO PUSH2 0x145 JUMPI PUSH2 0x144 PUSH2 0x467 JUMP JUMPDEST JUMPDEST PUSH2 0x150 DUP5 DUP3 DUP6 PUSH2 0x3C4 JUMP JUMPDEST POP SWAP4 SWAP3 POP POP POP JUMP JUMPDEST PUSH1 0x0 DUP2 CALLDATALOAD SWAP1 POP PUSH2 0x167 DUP2 PUSH2 0x487 JUMP JUMPDEST SWAP3 SWAP2 POP POP JUMP JUMPDEST PUSH1 0x0 DUP3 PUSH1 0x1F DUP4 ADD SLT PUSH2 0x182 JUMPI PUSH2 0x181 PUSH2 0x462 JUMP JUMPDEST JUMPDEST DUP2 CALLDATALOAD PUSH2 0x192 DUP5 DUP3 PUSH1 0x20 DUP7 ADD PUSH2 0x116 JUMP JUMPDEST SWAP2 POP POP SWAP3 SWAP2 POP POP JUMP JUMPDEST PUSH1 0x0 DUP1 PUSH1 0x40 DUP4 DUP6 SUB SLT ISZERO PUSH2 0x1B2 JUMPI PUSH2 0x1B1 PUSH2 0x471 JUMP JUMPDEST JUMPDEST PUSH1 0x0 PUSH2 0x1C0 DUP6 DUP3 DUP7 ADD PUSH2 0x158 JUMP JUMPDEST SWAP3 POP POP PUSH1 0x20 PUSH2 0x1D1 DUP6 DUP3 DUP7 ADD PUSH2 0x158 JUMP JUMPDEST SWAP2 POP POP SWAP3 POP SWAP3 SWAP1 POP JUMP JUMPDEST PUSH1 0x0 DUP1 PUSH1 0x0 PUSH1 0x60 DUP5 DUP7 SUB SLT ISZERO PUSH2 0x1F4 JUMPI PUSH2 0x1F3 PUSH2 0x471 JUMP JUMPDEST JUMPDEST PUSH1 0x0 PUSH2 0x202 DUP7 DUP3 DUP8 ADD PUSH2 0x158 JUMP JUMPDEST SWAP4 POP POP PUSH1 0x20 PUSH2 0x213 DUP7 DUP3 DUP8 ADD PUSH2 0x158 JUMP JUMPDEST SWAP3 POP POP PUSH1 0x40 PUSH2 0x224 DUP7 DUP3 DUP8 ADD PUSH2 0x158 JUMP JUMPDEST SWAP2 POP POP SWAP3 POP SWAP3 POP SWAP3 JUMP JUMPDEST PUSH1 0x0 DUP1 PUSH1 0x40 DUP4 DUP6 SUB SLT ISZERO PUSH2 0x245 JUMPI PUSH2 0x244 PUSH2 0x471 JUMP JUMPDEST JUMPDEST PUSH1 0x0 DUP4 ADD CALLDATALOAD PUSH8 0xFFFFFFFFFFFFFFFF DUP2 GT ISZERO PUSH2 0x263 JUMPI PUSH2 0x262 PUSH2 0x46C JUMP JUMPDEST JUMPDEST PUSH2 0x26F DUP6 DUP3 DUP7 ADD PUSH2 0x16D JUMP JUMPDEST SWAP3 POP POP PUSH1 0x20 DUP4 ADD CALLDATALOAD PUSH8 0xFFFFFFFFFFFFFFFF DUP2 GT ISZERO PUSH2 0x290 JUMPI PUSH2 0x28F PUSH2 0x46C JUMP JUMPDEST JUMPDEST PUSH2 0x29C DUP6 DUP3 DUP7 ADD PUSH2 0x16D JUMP JUMPDEST SWAP2 POP POP SWAP3 POP SWAP3 SWAP1 POP JUMP JUMPDEST PUSH2 0x2AF DUP2 PUSH2 0x3BA JUMP JUMPDEST DUP3 MSTORE POP POP JUMP JUMPDEST PUSH1 0x0 PUSH1 0x20 DUP3 ADD SWAP1 POP PUSH2 0x2CA PUSH1 0x0 DUP4 ADD DUP5 PUSH2 0x2A6 JUMP JUMPDEST SWAP3 SWAP2 POP POP JUMP JUMPDEST PUSH1 0x0 PUSH2 0x2DA PUSH2 0x2EB JUMP JUMPDEST SWAP1 POP PUSH2 0x2E6 DUP3 DUP3 PUSH2 0x3D3 JUMP JUMPDEST SWAP2 SWAP1 POP JUMP JUMPDEST PUSH1 0x0 PUSH1 0x40 MLOAD SWAP1 POP SWAP1 JUMP JUMPDEST PUSH1 0x0 PUSH8 0xFFFFFFFFFFFFFFFF DUP3 GT ISZERO PUSH2 0x310 JUMPI PUSH2 0x30F PUSH2 0x433 JUMP JUMPDEST JUMPDEST PUSH2 0x319 DUP3 PUSH2 0x476 JUMP JUMPDEST SWAP1 POP PUSH1 0x20 DUP2 ADD SWAP1 POP SWAP2 SWAP1 POP JUMP JUMPDEST PUSH1 0x0 PUSH2 0x331 DUP3 PUSH2 0x3BA JUMP JUMPDEST SWAP2 POP PUSH2 0x33C DUP4 PUSH2 0x3BA JUMP JUMPDEST SWAP3 POP DUP2 PUSH32 0x7FFFFFFFFFFFFFFFFFFFFFFFFFFFFFFFFFFFFFFFFFFFFFFFFFFFFFFFFFFFFFFF SUB DUP4 SGT PUSH1 0x0 DUP4 SLT ISZERO AND ISZERO PUSH2 0x377 JUMPI PUSH2 0x376 PUSH2 0x404 JUMP JUMPDEST JUMPDEST DUP2 PUSH32 0x8000000000000000000000000000000000000000000000000000000000000000 SUB DUP4 SLT PUSH1 0x0 DUP4 SLT AND ISZERO PUSH2 0x3AF JUMPI PUSH2 0x3AE PUSH2 0x404 JUMP JUMPDEST JUMPDEST DUP3 DUP3 ADD SWAP1 POP SWAP3 SWAP2 POP POP JUMP JUMPDEST PUSH1 0x0 DUP2 SWAP1 POP SWAP2 SWAP1 POP JUMP JUMPDEST DUP3 DUP2 DUP4 CALLDATACOPY PUSH1 0x0 DUP4 DUP4 ADD MSTORE POP POP POP JUMP JUMPDEST PUSH2 0x3DC DUP3 PUSH2 0x476 JUMP JUMPDEST DUP2 ADD DUP2 DUP2 LT PUSH8 0xFFFFFFFFFFFFFFFF DUP3 GT OR ISZERO PUSH2 0x3FB JUMPI PUSH2 0x3FA PUSH2 0x433 JUMP JUMPDEST JUMPDEST DUP1 PUSH1 0x40 MSTORE POP POP POP JUMP JUMPDEST PUSH32 0x4E487B7100000000000000000000000000000000000000000000000000000000 PUSH1 0x0 MSTORE PUSH1 0x11 PUSH1 0x4 MSTORE PUSH1 0x24 PUSH1 0x0 REVERT JUMPDEST PUSH32 0x4E487B7100000000000000000000000000000000000000000000000000000000 PUSH1 0x0 MSTORE PUSH1 0x41 PUSH1 0x4 MSTORE PUSH1 0x24 PUSH1 0x0 REVERT JUMPDEST PUSH1 0x0 DUP1 REVERT JUMPDEST PUSH1 0x0 DUP1 REVERT JUMPDEST PUSH1 0x0 DUP1 REVERT JUMPDEST PUSH1 0x0 DUP1 REVERT JUMPDEST PUSH1 0x0 PUSH1 0x1F NOT PUSH1 0x1F DUP4 ADD AND SWAP1 POP SWAP2 SWAP1 POP JUMP JUMPDEST PUSH2 0x490 DUP2 PUSH2 0x3BA JUMP JUMPDEST DUP2 EQ PUSH2 0x49B JUMPI PUSH1 0x0 DUP1 REVERT JUMPDEST POP JUMP INVALID LOG2 PUSH5 0x6970667358 0x22 SLT KECCAK256 DUP4 GASPRICE SIGNEXTEND DUP9 MUL MUL 0xB6 SHR SWAP12 0xC8 0xCB 0xFB DUP2 ADDRESS 0x22 EXTCODEHASH STATICCALL STOP PUSH10 0xEE8F7E064DA06DC456D0 0x2F 0xC1 0xE7 PUSH5 0x736F6C6343 STOP ADDMOD SMOD STOP CALLER "
				},
				"gasEstimates": {
					"creation": {
						"codeDepositCost": "247200",
						"executionCost": "287",
						"totalCost": "247487"
					},
					"external": {
						"sum(int256,int256)": "infinite",
						"sum(int256,int256,int256)": "infinite",
						"sum(string,string)": "infinite"
					}
				},
				"methodIdentifiers": {
					"sum(int256,int256)": "9967062d",
					"sum(int256,int256,int256)": "a7e04671",
					"sum(string,string)": "e61840f2"
				}
			},
			"storageLayout": {
				"storage": [],
				"types": null
			},
			"userdoc": {
				"kind": "user",
				"methods": {},
				"version": 1
			}
		}
	}
}