{
	"training/contracts/Constructor.sol": {
		"ConstructorContract": {
			"abi": [
				{
					"inputs": [
						{
							"internalType": "int256",
							"name": "_totalNumber",
							"type": "int256"
						}
					],
					"stateMutability": "nonpayable",
					"type": "constructor"
				},
				{
					"stateMutability": "payable",
					"type": "fallback"
				},
				{
					"inputs": [],
					"name": "getBalance",
					"outputs": [
						{
							"internalType": "uint256",
							"name": "",
							"type": "uint256"
						}
					],
					"stateMutability": "view",
					"type": "function"
				},
				{
					"inputs": [],
					"name": "getBalance_long_way",
					"outputs": [
						{
							"internalType": "uint256",
							"name": "",
							"type": "uint256"
						}
					],
					"stateMutability": "view",
					"type": "function"
				},
				{
					"inputs": [],
					"name": "owner",
					"outputs": [
						{
							"internalType": "address",
							"name": "",
							"type": "address"
						}
					],
					"stateMutability": "view",
					"type": "function"
				},
				{
					"inputs": [],
					"name": "totalNumber",
					"outputs": [
						{
							"internalType": "int256",
							"name": "",
							"type": "int256"
						}
					],
					"stateMutability": "view",
					"type": "function"
				}
			],
			"devdoc": {
				"kind": "dev",
				"methods": {},
				"version": 1
			},
			"evm": {
				"assembly": "    /* \"training/contracts/Constructor.sol\":159:1035  contract ConstructorContract{... */\n  mstore(0x40, 0x80)\n    /* \"training/contracts/Constructor.sol\":248:356  constructor (int _totalNumber) public{... */\n  callvalue\n  dup1\n  iszero\n  tag_1\n  jumpi\n  0x00\n  dup1\n  revert\ntag_1:\n  pop\n  mload(0x40)\n  sub(codesize, bytecodeSize)\n  dup1\n  bytecodeSize\n  dup4\n  codecopy\n  dup2\n  dup2\n  add\n  0x40\n  mstore\n  dup2\n  add\n  swap1\n  tag_2\n  swap2\n  swap1\n  tag_3\n  jump\t// in\ntag_2:\n    /* \"training/contracts/Constructor.sol\":303:313  msg.sender */\n  caller\n    /* \"training/contracts/Constructor.sol\":295:300  owner */\n  0x00\n  dup1\n    /* \"training/contracts/Constructor.sol\":295:313  owner = msg.sender */\n  0x0100\n  exp\n  dup2\n  sload\n  dup2\n  0xffffffffffffffffffffffffffffffffffffffff\n  mul\n  not\n  and\n  swap1\n  dup4\n  0xffffffffffffffffffffffffffffffffffffffff\n  and\n  mul\n  or\n  swap1\n  sstore\n  pop\n    /* \"training/contracts/Constructor.sol\":337:349  _totalNumber */\n  dup1\n    /* \"training/contracts/Constructor.sol\":323:334  totalNumber */\n  0x01\n    /* \"training/contracts/Constructor.sol\":323:349  totalNumber = _totalNumber */\n  dup2\n  swap1\n  sstore\n  pop\n    /* \"training/contracts/Constructor.sol\":248:356  constructor (int _totalNumber) public{... */\n  pop\n    /* \"training/contracts/Constructor.sol\":159:1035  contract ConstructorContract{... */\n  jump(tag_6)\n    /* \"#utility.yul\":88:205   */\ntag_8:\n    /* \"#utility.yul\":197:198   */\n  0x00\n    /* \"#utility.yul\":194:195   */\n  dup1\n    /* \"#utility.yul\":187:199   */\n  revert\n    /* \"#utility.yul\":334:410   */\ntag_10:\n    /* \"#utility.yul\":370:377   */\n  0x00\n    /* \"#utility.yul\":399:404   */\n  dup2\n    /* \"#utility.yul\":388:404   */\n  swap1\n  pop\n    /* \"#utility.yul\":334:410   */\n  swap2\n  swap1\n  pop\n  jump\t// out\n    /* \"#utility.yul\":416:536   */\ntag_11:\n    /* \"#utility.yul\":488:511   */\n  tag_19\n    /* \"#utility.yul\":505:510   */\n  dup2\n    /* \"#utility.yul\":488:511   */\n  tag_10\n  jump\t// in\ntag_19:\n    /* \"#utility.yul\":481:486   */\n  dup2\n    /* \"#utility.yul\":478:512   */\n  eq\n    /* \"#utility.yul\":468:530   */\n  tag_20\n  jumpi\n    /* \"#utility.yul\":526:527   */\n  0x00\n    /* \"#utility.yul\":523:524   */\n  dup1\n    /* \"#utility.yul\":516:528   */\n  revert\n    /* \"#utility.yul\":468:530   */\ntag_20:\n    /* \"#utility.yul\":416:536   */\n  pop\n  jump\t// out\n    /* \"#utility.yul\":542:683   */\ntag_12:\n    /* \"#utility.yul\":598:603   */\n  0x00\n    /* \"#utility.yul\":629:635   */\n  dup2\n    /* \"#utility.yul\":623:636   */\n  mload\n    /* \"#utility.yul\":614:636   */\n  swap1\n  pop\n    /* \"#utility.yul\":645:677   */\n  tag_22\n    /* \"#utility.yul\":671:676   */\n  dup2\n    /* \"#utility.yul\":645:677   */\n  tag_11\n  jump\t// in\ntag_22:\n    /* \"#utility.yul\":542:683   */\n  swap3\n  swap2\n  pop\n  pop\n  jump\t// out\n    /* \"#utility.yul\":689:1038   */\ntag_3:\n    /* \"#utility.yul\":758:764   */\n  0x00\n    /* \"#utility.yul\":807:809   */\n  0x20\n    /* \"#utility.yul\":795:804   */\n  dup3\n    /* \"#utility.yul\":786:793   */\n  dup5\n    /* \"#utility.yul\":782:805   */\n  sub\n    /* \"#utility.yul\":778:810   */\n  slt\n    /* \"#utility.yul\":775:894   */\n  iszero\n  tag_24\n  jumpi\n    /* \"#utility.yul\":813:892   */\n  tag_25\n  tag_8\n  jump\t// in\ntag_25:\n    /* \"#utility.yul\":775:894   */\ntag_24:\n    /* \"#utility.yul\":933:934   */\n  0x00\n    /* \"#utility.yul\":958:1021   */\n  tag_26\n    /* \"#utility.yul\":1013:1020   */\n  dup5\n    /* \"#utility.yul\":1004:1010   */\n  dup3\n    /* \"#utility.yul\":993:1002   */\n  dup6\n    /* \"#utility.yul\":989:1011   */\n  add\n    /* \"#utility.yul\":958:1021   */\n  tag_12\n  jump\t// in\ntag_26:\n    /* \"#utility.yul\":948:1021   */\n  swap2\n  pop\n    /* \"#utility.yul\":904:1031   */\n  pop\n    /* \"#utility.yul\":689:1038   */\n  swap3\n  swap2\n  pop\n  pop\n  jump\t// out\n    /* \"training/contracts/Constructor.sol\":159:1035  contract ConstructorContract{... */\ntag_6:\n  dataSize(sub_0)\n  dup1\n  dataOffset(sub_0)\n  0x00\n  codecopy\n  0x00\n  return\nstop\n\nsub_0: assembly {\n        /* \"training/contracts/Constructor.sol\":159:1035  contract ConstructorContract{... */\n      mstore(0x40, 0x80)\n      jumpi(tag_1, lt(calldatasize, 0x04))\n      shr(0xe0, calldataload(0x00))\n      dup1\n      0x12065fe0\n      eq\n      tag_3\n      jumpi\n      dup1\n      0x8da5cb5b\n      eq\n      tag_4\n      jumpi\n      dup1\n      0xbe6366ea\n      eq\n      tag_5\n      jumpi\n      dup1\n      0xc0daddfd\n      eq\n      tag_6\n      jumpi\n      jump(tag_2)\n    tag_1:\n    tag_2:\n      stop\n        /* \"training/contracts/Constructor.sol\":861:1031  function getBalance() public view returns(uint){... */\n    tag_3:\n      callvalue\n      dup1\n      iszero\n      tag_9\n      jumpi\n      0x00\n      dup1\n      revert\n    tag_9:\n      pop\n      tag_10\n      tag_11\n      jump\t// in\n    tag_10:\n      mload(0x40)\n      tag_12\n      swap2\n      swap1\n      tag_13\n      jump\t// in\n    tag_12:\n      mload(0x40)\n      dup1\n      swap2\n      sub\n      swap1\n      return\n        /* \"training/contracts/Constructor.sol\":193:213  address public owner */\n    tag_4:\n      callvalue\n      dup1\n      iszero\n      tag_14\n      jumpi\n      0x00\n      dup1\n      revert\n    tag_14:\n      pop\n      tag_15\n      tag_16\n      jump\t// in\n    tag_15:\n      mload(0x40)\n      tag_17\n      swap2\n      swap1\n      tag_18\n      jump\t// in\n    tag_17:\n      mload(0x40)\n      dup1\n      swap2\n      sub\n      swap1\n      return\n        /* \"training/contracts/Constructor.sol\":488:809  function getBalance_long_way() public view returns(uint) {... */\n    tag_5:\n      callvalue\n      dup1\n      iszero\n      tag_19\n      jumpi\n      0x00\n      dup1\n      revert\n    tag_19:\n      pop\n      tag_20\n      tag_21\n      jump\t// in\n    tag_20:\n      mload(0x40)\n      tag_22\n      swap2\n      swap1\n      tag_13\n      jump\t// in\n    tag_22:\n      mload(0x40)\n      dup1\n      swap2\n      sub\n      swap1\n      return\n        /* \"training/contracts/Constructor.sol\":219:241  int public totalNumber */\n    tag_6:\n      callvalue\n      dup1\n      iszero\n      tag_23\n      jumpi\n      0x00\n      dup1\n      revert\n    tag_23:\n      pop\n      tag_24\n      tag_25\n      jump\t// in\n    tag_24:\n      mload(0x40)\n      tag_26\n      swap2\n      swap1\n      tag_27\n      jump\t// in\n    tag_26:\n      mload(0x40)\n      dup1\n      swap2\n      sub\n      swap1\n      return\n        /* \"training/contracts/Constructor.sol\":861:1031  function getBalance() public view returns(uint){... */\n    tag_11:\n        /* \"training/contracts/Constructor.sol\":903:907  uint */\n      0x00\n        /* \"training/contracts/Constructor.sol\":940:945  owner */\n      dup1\n      0x00\n      swap1\n      sload\n      swap1\n      0x0100\n      exp\n      swap1\n      div\n      0xffffffffffffffffffffffffffffffffffffffff\n      and\n        /* \"training/contracts/Constructor.sol\":926:945  msg.sender == owner */\n      0xffffffffffffffffffffffffffffffffffffffff\n      and\n        /* \"training/contracts/Constructor.sol\":926:936  msg.sender */\n      caller\n        /* \"training/contracts/Constructor.sol\":926:945  msg.sender == owner */\n      0xffffffffffffffffffffffffffffffffffffffff\n      and\n      eq\n        /* \"training/contracts/Constructor.sol\":918:986  require(msg.sender == owner, \"Only the owner can call the function\") */\n      tag_29\n      jumpi\n      mload(0x40)\n      0x08c379a000000000000000000000000000000000000000000000000000000000\n      dup2\n      mstore\n      0x04\n      add\n      tag_30\n      swap1\n      tag_31\n      jump\t// in\n    tag_30:\n      mload(0x40)\n      dup1\n      swap2\n      sub\n      swap1\n      revert\n    tag_29:\n        /* \"training/contracts/Constructor.sol\":1003:1024  address(this).balance */\n      selfbalance\n        /* \"training/contracts/Constructor.sol\":996:1024  return address(this).balance */\n      swap1\n      pop\n        /* \"training/contracts/Constructor.sol\":861:1031  function getBalance() public view returns(uint){... */\n      swap1\n      jump\t// out\n        /* \"training/contracts/Constructor.sol\":193:213  address public owner */\n    tag_16:\n      0x00\n      dup1\n      sload\n      swap1\n      0x0100\n      exp\n      swap1\n      div\n      0xffffffffffffffffffffffffffffffffffffffff\n      and\n      dup2\n      jump\t// out\n        /* \"training/contracts/Constructor.sol\":488:809  function getBalance_long_way() public view returns(uint) {... */\n    tag_21:\n        /* \"training/contracts/Constructor.sol\":539:543  uint */\n      0x00\n        /* \"training/contracts/Constructor.sol\":572:577  owner */\n      dup1\n      0x00\n      swap1\n      sload\n      swap1\n      0x0100\n      exp\n      swap1\n      div\n      0xffffffffffffffffffffffffffffffffffffffff\n      and\n        /* \"training/contracts/Constructor.sol\":558:577  msg.sender == owner */\n      0xffffffffffffffffffffffffffffffffffffffff\n      and\n        /* \"training/contracts/Constructor.sol\":558:568  msg.sender */\n      caller\n        /* \"training/contracts/Constructor.sol\":558:577  msg.sender == owner */\n      0xffffffffffffffffffffffffffffffffffffffff\n      and\n      sub\n        /* \"training/contracts/Constructor.sol\":555:720  if(msg.sender == owner){... */\n      tag_33\n      jumpi\n        /* \"training/contracts/Constructor.sol\":599:620  address(this).balance */\n      selfbalance\n        /* \"training/contracts/Constructor.sol\":592:620  return address(this).balance */\n      swap1\n      pop\n      jump(tag_32)\n        /* \"training/contracts/Constructor.sol\":555:720  if(msg.sender == owner){... */\n    tag_33:\n        /* \"training/contracts/Constructor.sol\":658:666  revert() */\n      0x00\n      dup1\n      revert\n        /* \"training/contracts/Constructor.sol\":488:809  function getBalance_long_way() public view returns(uint) {... */\n    tag_32:\n      swap1\n      jump\t// out\n        /* \"training/contracts/Constructor.sol\":219:241  int public totalNumber */\n    tag_25:\n      sload(0x01)\n      dup2\n      jump\t// out\n        /* \"#utility.yul\":7:84   */\n    tag_35:\n        /* \"#utility.yul\":44:51   */\n      0x00\n        /* \"#utility.yul\":73:78   */\n      dup2\n        /* \"#utility.yul\":62:78   */\n      swap1\n      pop\n        /* \"#utility.yul\":7:84   */\n      swap2\n      swap1\n      pop\n      jump\t// out\n        /* \"#utility.yul\":90:208   */\n    tag_36:\n        /* \"#utility.yul\":177:201   */\n      tag_48\n        /* \"#utility.yul\":195:200   */\n      dup2\n        /* \"#utility.yul\":177:201   */\n      tag_35\n      jump\t// in\n    tag_48:\n        /* \"#utility.yul\":172:175   */\n      dup3\n        /* \"#utility.yul\":165:202   */\n      mstore\n        /* \"#utility.yul\":90:208   */\n      pop\n      pop\n      jump\t// out\n        /* \"#utility.yul\":214:436   */\n    tag_13:\n        /* \"#utility.yul\":307:311   */\n      0x00\n        /* \"#utility.yul\":345:347   */\n      0x20\n        /* \"#utility.yul\":334:343   */\n      dup3\n        /* \"#utility.yul\":330:348   */\n      add\n        /* \"#utility.yul\":322:348   */\n      swap1\n      pop\n        /* \"#utility.yul\":358:429   */\n      tag_50\n        /* \"#utility.yul\":426:427   */\n      0x00\n        /* \"#utility.yul\":415:424   */\n      dup4\n        /* \"#utility.yul\":411:428   */\n      add\n        /* \"#utility.yul\":402:408   */\n      dup5\n        /* \"#utility.yul\":358:429   */\n      tag_36\n      jump\t// in\n    tag_50:\n        /* \"#utility.yul\":214:436   */\n      swap3\n      swap2\n      pop\n      pop\n      jump\t// out\n        /* \"#utility.yul\":442:568   */\n    tag_37:\n        /* \"#utility.yul\":479:486   */\n      0x00\n        /* \"#utility.yul\":519:561   */\n      0xffffffffffffffffffffffffffffffffffffffff\n        /* \"#utility.yul\":512:517   */\n      dup3\n        /* \"#utility.yul\":508:562   */\n      and\n        /* \"#utility.yul\":497:562   */\n      swap1\n      pop\n        /* \"#utility.yul\":442:568   */\n      swap2\n      swap1\n      pop\n      jump\t// out\n        /* \"#utility.yul\":574:670   */\n    tag_38:\n        /* \"#utility.yul\":611:618   */\n      0x00\n        /* \"#utility.yul\":640:664   */\n      tag_53\n        /* \"#utility.yul\":658:663   */\n      dup3\n        /* \"#utility.yul\":640:664   */\n      tag_37\n      jump\t// in\n    tag_53:\n        /* \"#utility.yul\":629:664   */\n      swap1\n      pop\n        /* \"#utility.yul\":574:670   */\n      swap2\n      swap1\n      pop\n      jump\t// out\n        /* \"#utility.yul\":676:794   */\n    tag_39:\n        /* \"#utility.yul\":763:787   */\n      tag_55\n        /* \"#utility.yul\":781:786   */\n      dup2\n        /* \"#utility.yul\":763:787   */\n      tag_38\n      jump\t// in\n    tag_55:\n        /* \"#utility.yul\":758:761   */\n      dup3\n        /* \"#utility.yul\":751:788   */\n      mstore\n        /* \"#utility.yul\":676:794   */\n      pop\n      pop\n      jump\t// out\n        /* \"#utility.yul\":800:1022   */\n    tag_18:\n        /* \"#utility.yul\":893:897   */\n      0x00\n        /* \"#utility.yul\":931:933   */\n      0x20\n        /* \"#utility.yul\":920:929   */\n      dup3\n        /* \"#utility.yul\":916:934   */\n      add\n        /* \"#utility.yul\":908:934   */\n      swap1\n      pop\n        /* \"#utility.yul\":944:1015   */\n      tag_57\n        /* \"#utility.yul\":1012:1013   */\n      0x00\n        /* \"#utility.yul\":1001:1010   */\n      dup4\n        /* \"#utility.yul\":997:1014   */\n      add\n        /* \"#utility.yul\":988:994   */\n      dup5\n        /* \"#utility.yul\":944:1015   */\n      tag_39\n      jump\t// in\n    tag_57:\n        /* \"#utility.yul\":800:1022   */\n      swap3\n      swap2\n      pop\n      pop\n      jump\t// out\n        /* \"#utility.yul\":1028:1104   */\n    tag_40:\n        /* \"#utility.yul\":1064:1071   */\n      0x00\n        /* \"#utility.yul\":1093:1098   */\n      dup2\n        /* \"#utility.yul\":1082:1098   */\n      swap1\n      pop\n        /* \"#utility.yul\":1028:1104   */\n      swap2\n      swap1\n      pop\n      jump\t// out\n        /* \"#utility.yul\":1110:1225   */\n    tag_41:\n        /* \"#utility.yul\":1195:1218   */\n      tag_60\n        /* \"#utility.yul\":1212:1217   */\n      dup2\n        /* \"#utility.yul\":1195:1218   */\n      tag_40\n      jump\t// in\n    tag_60:\n        /* \"#utility.yul\":1190:1193   */\n      dup3\n        /* \"#utility.yul\":1183:1219   */\n      mstore\n        /* \"#utility.yul\":1110:1225   */\n      pop\n      pop\n      jump\t// out\n        /* \"#utility.yul\":1231:1449   */\n    tag_27:\n        /* \"#utility.yul\":1322:1326   */\n      0x00\n        /* \"#utility.yul\":1360:1362   */\n      0x20\n        /* \"#utility.yul\":1349:1358   */\n      dup3\n        /* \"#utility.yul\":1345:1363   */\n      add\n        /* \"#utility.yul\":1337:1363   */\n      swap1\n      pop\n        /* \"#utility.yul\":1373:1442   */\n      tag_62\n        /* \"#utility.yul\":1439:1440   */\n      0x00\n        /* \"#utility.yul\":1428:1437   */\n      dup4\n        /* \"#utility.yul\":1424:1441   */\n      add\n        /* \"#utility.yul\":1415:1421   */\n      dup5\n        /* \"#utility.yul\":1373:1442   */\n      tag_41\n      jump\t// in\n    tag_62:\n        /* \"#utility.yul\":1231:1449   */\n      swap3\n      swap2\n      pop\n      pop\n      jump\t// out\n        /* \"#utility.yul\":1455:1624   */\n    tag_42:\n        /* \"#utility.yul\":1539:1550   */\n      0x00\n        /* \"#utility.yul\":1573:1579   */\n      dup3\n        /* \"#utility.yul\":1568:1571   */\n      dup3\n        /* \"#utility.yul\":1561:1580   */\n      mstore\n        /* \"#utility.yul\":1613:1617   */\n      0x20\n        /* \"#utility.yul\":1608:1611   */\n      dup3\n        /* \"#utility.yul\":1604:1618   */\n      add\n        /* \"#utility.yul\":1589:1618   */\n      swap1\n      pop\n        /* \"#utility.yul\":1455:1624   */\n      swap3\n      swap2\n      pop\n      pop\n      jump\t// out\n        /* \"#utility.yul\":1630:1853   */\n    tag_43:\n        /* \"#utility.yul\":1770:1804   */\n      0x4f6e6c7920746865206f776e65722063616e2063616c6c207468652066756e63\n        /* \"#utility.yul\":1766:1767   */\n      0x00\n        /* \"#utility.yul\":1758:1764   */\n      dup3\n        /* \"#utility.yul\":1754:1768   */\n      add\n        /* \"#utility.yul\":1747:1805   */\n      mstore\n        /* \"#utility.yul\":1839:1845   */\n      0x74696f6e00000000000000000000000000000000000000000000000000000000\n        /* \"#utility.yul\":1834:1836   */\n      0x20\n        /* \"#utility.yul\":1826:1832   */\n      dup3\n        /* \"#utility.yul\":1822:1837   */\n      add\n        /* \"#utility.yul\":1815:1846   */\n      mstore\n        /* \"#utility.yul\":1630:1853   */\n      pop\n      jump\t// out\n        /* \"#utility.yul\":1859:2225   */\n    tag_44:\n        /* \"#utility.yul\":2001:2004   */\n      0x00\n        /* \"#utility.yul\":2022:2089   */\n      tag_66\n        /* \"#utility.yul\":2086:2088   */\n      0x24\n        /* \"#utility.yul\":2081:2084   */\n      dup4\n        /* \"#utility.yul\":2022:2089   */\n      tag_42\n      jump\t// in\n    tag_66:\n        /* \"#utility.yul\":2015:2089   */\n      swap2\n      pop\n        /* \"#utility.yul\":2098:2191   */\n      tag_67\n        /* \"#utility.yul\":2187:2190   */\n      dup3\n        /* \"#utility.yul\":2098:2191   */\n      tag_43\n      jump\t// in\n    tag_67:\n        /* \"#utility.yul\":2216:2218   */\n      0x40\n        /* \"#utility.yul\":2211:2214   */\n      dup3\n        /* \"#utility.yul\":2207:2219   */\n      add\n        /* \"#utility.yul\":2200:2219   */\n      swap1\n      pop\n        /* \"#utility.yul\":1859:2225   */\n      swap2\n      swap1\n      pop\n      jump\t// out\n        /* \"#utility.yul\":2231:2650   */\n    tag_31:\n        /* \"#utility.yul\":2397:2401   */\n      0x00\n        /* \"#utility.yul\":2435:2437   */\n      0x20\n        /* \"#utility.yul\":2424:2433   */\n      dup3\n        /* \"#utility.yul\":2420:2438   */\n      add\n        /* \"#utility.yul\":2412:2438   */\n      swap1\n      pop\n        /* \"#utility.yul\":2484:2493   */\n      dup2\n        /* \"#utility.yul\":2478:2482   */\n      dup2\n        /* \"#utility.yul\":2474:2494   */\n      sub\n        /* \"#utility.yul\":2470:2471   */\n      0x00\n        /* \"#utility.yul\":2459:2468   */\n      dup4\n        /* \"#utility.yul\":2455:2472   */\n      add\n        /* \"#utility.yul\":2448:2495   */\n      mstore\n        /* \"#utility.yul\":2512:2643   */\n      tag_69\n        /* \"#utility.yul\":2638:2642   */\n      dup2\n        /* \"#utility.yul\":2512:2643   */\n      tag_44\n      jump\t// in\n    tag_69:\n        /* \"#utility.yul\":2504:2643   */\n      swap1\n      pop\n        /* \"#utility.yul\":2231:2650   */\n      swap2\n      swap1\n      pop\n      jump\t// out\n\n    auxdata: 0xa26469706673582212204a3d9986e1a5f5bd4070dd391894842a3f00c3e384795b4d30b86822b825fc0264736f6c634300080d0033\n}\n",
				"bytecode": {
					"linkReferences": {},
					"object": "608060405234801561001057600080fd5b506040516104ac3803806104ac833981810160405281019061003291906100ba565b336000806101000a81548173ffffffffffffffffffffffffffffffffffffffff021916908373ffffffffffffffffffffffffffffffffffffffff16021790555080600181905550506100e7565b600080fd5b6000819050919050565b61009781610084565b81146100a257600080fd5b50565b6000815190506100b48161008e565b92915050565b6000602082840312156100d0576100cf61007f565b5b60006100de848285016100a5565b91505092915050565b6103b6806100f66000396000f3fe6080604052600436106100435760003560e01c806312065fe0146100465780638da5cb5b14610071578063be6366ea1461009c578063c0daddfd146100c757610044565b5b005b34801561005257600080fd5b5061005b6100f2565b6040516100689190610232565b60405180910390f35b34801561007d57600080fd5b50610086610189565b604051610093919061028e565b60405180910390f35b3480156100a857600080fd5b506100b16101ad565b6040516100be9190610232565b60405180910390f35b3480156100d357600080fd5b506100dc610213565b6040516100e991906102c2565b60405180910390f35b60008060009054906101000a900473ffffffffffffffffffffffffffffffffffffffff1673ffffffffffffffffffffffffffffffffffffffff163373ffffffffffffffffffffffffffffffffffffffff1614610183576040517f08c379a000000000000000000000000000000000000000000000000000000000815260040161017a90610360565b60405180910390fd5b47905090565b60008054906101000a900473ffffffffffffffffffffffffffffffffffffffff1681565b60008060009054906101000a900473ffffffffffffffffffffffffffffffffffffffff1673ffffffffffffffffffffffffffffffffffffffff163373ffffffffffffffffffffffffffffffffffffffff160361020b57479050610210565b600080fd5b90565b60015481565b6000819050919050565b61022c81610219565b82525050565b60006020820190506102476000830184610223565b92915050565b600073ffffffffffffffffffffffffffffffffffffffff82169050919050565b60006102788261024d565b9050919050565b6102888161026d565b82525050565b60006020820190506102a3600083018461027f565b92915050565b6000819050919050565b6102bc816102a9565b82525050565b60006020820190506102d760008301846102b3565b92915050565b600082825260208201905092915050565b7f4f6e6c7920746865206f776e65722063616e2063616c6c207468652066756e6360008201527f74696f6e00000000000000000000000000000000000000000000000000000000602082015250565b600061034a6024836102dd565b9150610355826102ee565b604082019050919050565b600060208201905081810360008301526103798161033d565b905091905056fea26469706673582212204a3d9986e1a5f5bd4070dd391894842a3f00c3e384795b4d30b86822b825fc0264736f6c634300080d0033",
					"opcodes": "PUSH1 0x80 PUSH1 0x40 MSTORE CALLVALUE DUP1 ISZERO PUSH2 0x10 JUMPI PUSH1 0x0 DUP1 REVERT JUMPDEST POP PUSH1 0x40 MLOAD PUSH2 0x4AC CODESIZE SUB DUP1 PUSH2 0x4AC DUP4 CODECOPY DUP2 DUP2 ADD PUSH1 0x40 MSTORE DUP2 ADD SWAP1 PUSH2 0x32 SWAP2 SWAP1 PUSH2 0xBA JUMP JUMPDEST CALLER PUSH1 0x0 DUP1 PUSH2 0x100 EXP DUP2 SLOAD DUP2 PUSH20 0xFFFFFFFFFFFFFFFFFFFFFFFFFFFFFFFFFFFFFFFF MUL NOT AND SWAP1 DUP4 PUSH20 0xFFFFFFFFFFFFFFFFFFFFFFFFFFFFFFFFFFFFFFFF AND MUL OR SWAP1 SSTORE POP DUP1 PUSH1 0x1 DUP2 SWAP1 SSTORE POP POP PUSH2 0xE7 JUMP JUMPDEST PUSH1 0x0 DUP1 REVERT JUMPDEST PUSH1 0x0 DUP2 SWAP1 POP SWAP2 SWAP1 POP JUMP JUMPDEST PUSH2 0x97 DUP2 PUSH2 0x84 JUMP JUMPDEST DUP2 EQ PUSH2 0xA2 JUMPI PUSH1 0x0 DUP1 REVERT JUMPDEST POP JUMP JUMPDEST PUSH1 0x0 DUP2 MLOAD SWAP1 POP PUSH2 0xB4 DUP2 PUSH2 0x8E JUMP JUMPDEST SWAP3 SWAP2 POP POP JUMP JUMPDEST PUSH1 0x0 PUSH1 0x20 DUP3 DUP5 SUB SLT ISZERO PUSH2 0xD0 JUMPI PUSH2 0xCF PUSH2 0x7F JUMP JUMPDEST JUMPDEST PUSH1 0x0 PUSH2 0xDE DUP5 DUP3 DUP6 ADD PUSH2 0xA5 JUMP JUMPDEST SWAP2 POP POP SWAP3 SWAP2 POP POP JUMP JUMPDEST PUSH2 0x3B6 DUP1 PUSH2 0xF6 PUSH1 0x0 CODECOPY PUSH1 0x0 RETURN INVALID PUSH1 0x80 PUSH1 0x40 MSTORE PUSH1 0x4 CALLDATASIZE LT PUSH2 0x43 JUMPI PUSH1 0x0 CALLDATALOAD PUSH1 0xE0 SHR DUP1 PUSH4 0x12065FE0 EQ PUSH2 0x46 JUMPI DUP1 PUSH4 0x8DA5CB5B EQ PUSH2 0x71 JUMPI DUP1 PUSH4 0xBE6366EA EQ PUSH2 0x9C JUMPI DUP1 PUSH4 0xC0DADDFD EQ PUSH2 0xC7 JUMPI PUSH2 0x44 JUMP JUMPDEST JUMPDEST STOP JUMPDEST CALLVALUE DUP1 ISZERO PUSH2 0x52 JUMPI PUSH1 0x0 DUP1 REVERT JUMPDEST POP PUSH2 0x5B PUSH2 0xF2 JUMP JUMPDEST PUSH1 0x40 MLOAD PUSH2 0x68 SWAP2 SWAP1 PUSH2 0x232 JUMP JUMPDEST PUSH1 0x40 MLOAD DUP1 SWAP2 SUB SWAP1 RETURN JUMPDEST CALLVALUE DUP1 ISZERO PUSH2 0x7D JUMPI PUSH1 0x0 DUP1 REVERT JUMPDEST POP PUSH2 0x86 PUSH2 0x189 JUMP JUMPDEST PUSH1 0x40 MLOAD PUSH2 0x93 SWAP2 SWAP1 PUSH2 0x28E JUMP JUMPDEST PUSH1 0x40 MLOAD DUP1 SWAP2 SUB SWAP1 RETURN JUMPDEST CALLVALUE DUP1 ISZERO PUSH2 0xA8 JUMPI PUSH1 0x0 DUP1 REVERT JUMPDEST POP PUSH2 0xB1 PUSH2 0x1AD JUMP JUMPDEST PUSH1 0x40 MLOAD PUSH2 0xBE SWAP2 SWAP1 PUSH2 0x232 JUMP JUMPDEST PUSH1 0x40 MLOAD DUP1 SWAP2 SUB SWAP1 RETURN JUMPDEST CALLVALUE DUP1 ISZERO PUSH2 0xD3 JUMPI PUSH1 0x0 DUP1 REVERT JUMPDEST POP PUSH2 0xDC PUSH2 0x213 JUMP JUMPDEST PUSH1 0x40 MLOAD PUSH2 0xE9 SWAP2 SWAP1 PUSH2 0x2C2 JUMP JUMPDEST PUSH1 0x40 MLOAD DUP1 SWAP2 SUB SWAP1 RETURN JUMPDEST PUSH1 0x0 DUP1 PUSH1 0x0 SWAP1 SLOAD SWAP1 PUSH2 0x100 EXP SWAP1 DIV PUSH20 0xFFFFFFFFFFFFFFFFFFFFFFFFFFFFFFFFFFFFFFFF AND PUSH20 0xFFFFFFFFFFFFFFFFFFFFFFFFFFFFFFFFFFFFFFFF AND CALLER PUSH20 0xFFFFFFFFFFFFFFFFFFFFFFFFFFFFFFFFFFFFFFFF AND EQ PUSH2 0x183 JUMPI PUSH1 0x40 MLOAD PUSH32 0x8C379A000000000000000000000000000000000000000000000000000000000 DUP2 MSTORE PUSH1 0x4 ADD PUSH2 0x17A SWAP1 PUSH2 0x360 JUMP JUMPDEST PUSH1 0x40 MLOAD DUP1 SWAP2 SUB SWAP1 REVERT JUMPDEST SELFBALANCE SWAP1 POP SWAP1 JUMP JUMPDEST PUSH1 0x0 DUP1 SLOAD SWAP1 PUSH2 0x100 EXP SWAP1 DIV PUSH20 0xFFFFFFFFFFFFFFFFFFFFFFFFFFFFFFFFFFFFFFFF AND DUP2 JUMP JUMPDEST PUSH1 0x0 DUP1 PUSH1 0x0 SWAP1 SLOAD SWAP1 PUSH2 0x100 EXP SWAP1 DIV PUSH20 0xFFFFFFFFFFFFFFFFFFFFFFFFFFFFFFFFFFFFFFFF AND PUSH20 0xFFFFFFFFFFFFFFFFFFFFFFFFFFFFFFFFFFFFFFFF AND CALLER PUSH20 0xFFFFFFFFFFFFFFFFFFFFFFFFFFFFFFFFFFFFFFFF AND SUB PUSH2 0x20B JUMPI SELFBALANCE SWAP1 POP PUSH2 0x210 JUMP JUMPDEST PUSH1 0x0 DUP1 REVERT JUMPDEST SWAP1 JUMP JUMPDEST PUSH1 0x1 SLOAD DUP2 JUMP JUMPDEST PUSH1 0x0 DUP2 SWAP1 POP SWAP2 SWAP1 POP JUMP JUMPDEST PUSH2 0x22C DUP2 PUSH2 0x219 JUMP JUMPDEST DUP3 MSTORE POP POP JUMP JUMPDEST PUSH1 0x0 PUSH1 0x20 DUP3 ADD SWAP1 POP PUSH2 0x247 PUSH1 0x0 DUP4 ADD DUP5 PUSH2 0x223 JUMP JUMPDEST SWAP3 SWAP2 POP POP JUMP JUMPDEST PUSH1 0x0 PUSH20 0xFFFFFFFFFFFFFFFFFFFFFFFFFFFFFFFFFFFFFFFF DUP3 AND SWAP1 POP SWAP2 SWAP1 POP JUMP JUMPDEST PUSH1 0x0 PUSH2 0x278 DUP3 PUSH2 0x24D JUMP JUMPDEST SWAP1 POP SWAP2 SWAP1 POP JUMP JUMPDEST PUSH2 0x288 DUP2 PUSH2 0x26D JUMP JUMPDEST DUP3 MSTORE POP POP JUMP JUMPDEST PUSH1 0x0 PUSH1 0x20 DUP3 ADD SWAP1 POP PUSH2 0x2A3 PUSH1 0x0 DUP4 ADD DUP5 PUSH2 0x27F JUMP JUMPDEST SWAP3 SWAP2 POP POP JUMP JUMPDEST PUSH1 0x0 DUP2 SWAP1 POP SWAP2 SWAP1 POP JUMP JUMPDEST PUSH2 0x2BC DUP2 PUSH2 0x2A9 JUMP JUMPDEST DUP3 MSTORE POP POP JUMP JUMPDEST PUSH1 0x0 PUSH1 0x20 DUP3 ADD SWAP1 POP PUSH2 0x2D7 PUSH1 0x0 DUP4 ADD DUP5 PUSH2 0x2B3 JUMP JUMPDEST SWAP3 SWAP2 POP POP JUMP JUMPDEST PUSH1 0x0 DUP3 DUP3 MSTORE PUSH1 0x20 DUP3 ADD SWAP1 POP SWAP3 SWAP2 POP POP JUMP JUMPDEST PUSH32 0x4F6E6C7920746865206F776E65722063616E2063616C6C207468652066756E63 PUSH1 0x0 DUP3 ADD MSTORE PUSH32 0x74696F6E00000000000000000000000000000000000000000000000000000000 PUSH1 0x20 DUP3 ADD MSTORE POP JUMP JUMPDEST PUSH1 0x0 PUSH2 0x34A PUSH1 0x24 DUP4 PUSH2 0x2DD JUMP JUMPDEST SWAP2 POP PUSH2 0x355 DUP3 PUSH2 0x2EE JUMP JUMPDEST PUSH1 0x40 DUP3 ADD SWAP1 POP SWAP2 SWAP1 POP JUMP JUMPDEST PUSH1 0x0 PUSH1 0x20 DUP3 ADD SWAP1 POP DUP2 DUP2 SUB PUSH1 0x0 DUP4 ADD MSTORE PUSH2 0x379 DUP2 PUSH2 0x33D JUMP JUMPDEST SWAP1 POP SWAP2 SWAP1 POP JUMP INVALID LOG2 PUSH5 0x6970667358 0x22 SLT KECCAK256 0x4A RETURNDATASIZE SWAP10 DUP7 0xE1 0xA5 CREATE2 0xBD BLOCKHASH PUSH17 0xDD391894842A3F00C3E384795B4D30B868 0x22 0xB8 0x25 0xFC MUL PUSH5 0x736F6C6343 STOP ADDMOD 0xD STOP CALLER "
				},
				"gasEstimates": {
					"creation": {
						"codeDepositCost": "190000",
						"executionCost": "infinite",
						"totalCost": "infinite"
					},
					"external": {
						"": "151",
						"getBalance()": "2602",
						"getBalance_long_way()": "2542",
						"owner()": "2511",
						"totalNumber()": "2473"
					}
				},
				"methodIdentifiers": {
					"getBalance()": "12065fe0",
					"getBalance_long_way()": "be6366ea",
					"owner()": "8da5cb5b",
					"totalNumber()": "c0daddfd"
				}
			},
			"storageLayout": {
				"storage": [
					{
						"astId": 3,
						"contract": "training/contracts/Constructor.sol:ConstructorContract",
						"label": "owner",
						"offset": 0,
						"slot": "0",
						"type": "t_address"
					},
					{
						"astId": 5,
						"contract": "training/contracts/Constructor.sol:ConstructorContract",
						"label": "totalNumber",
						"offset": 0,
						"slot": "1",
						"type": "t_int256"
					}
				],
				"types": {
					"t_address": {
						"encoding": "inplace",
						"label": "address",
						"numberOfBytes": "20"
					},
					"t_int256": {
						"encoding": "inplace",
						"label": "int256",
						"numberOfBytes": "32"
					}
				}
			},
			"userdoc": {
				"kind": "user",
				"methods": {},
				"version": 1
			}
		}
	}
}