{
	"training/contracts/Modifiers.sol": {
		"Odemeler": {
			"abi": [
				{
					"inputs": [],
					"name": "getBalance",
					"outputs": [
						{
							"internalType": "uint256",
							"name": "",
							"type": "uint256"
						}
					],
					"stateMutability": "view",
					"type": "function"
				},
				{
					"inputs": [],
					"name": "investor",
					"outputs": [
						{
							"internalType": "address payable",
							"name": "",
							"type": "address"
						}
					],
					"stateMutability": "view",
					"type": "function"
				},
				{
					"inputs": [],
					"name": "owner",
					"outputs": [
						{
							"internalType": "address",
							"name": "",
							"type": "address"
						}
					],
					"stateMutability": "view",
					"type": "function"
				},
				{
					"inputs": [],
					"name": "payMoney",
					"outputs": [],
					"stateMutability": "payable",
					"type": "function"
				},
				{
					"inputs": [],
					"name": "sendMoney",
					"outputs": [],
					"stateMutability": "payable",
					"type": "function"
				}
			],
			"devdoc": {
				"kind": "dev",
				"methods": {},
				"version": 1
			},
			"evm": {
				"assembly": "    /* \"training/contracts/Modifiers.sol\":33:853  contract Odemeler{... */\n  mstore(0x40, 0x80)\n  callvalue\n  dup1\n  iszero\n  tag_1\n  jumpi\n  0x00\n  dup1\n  revert\ntag_1:\n  pop\n  dataSize(sub_0)\n  dup1\n  dataOffset(sub_0)\n  0x00\n  codecopy\n  0x00\n  return\nstop\n\nsub_0: assembly {\n        /* \"training/contracts/Modifiers.sol\":33:853  contract Odemeler{... */\n      mstore(0x40, 0x80)\n      jumpi(tag_1, lt(calldatasize, 0x04))\n      shr(0xe0, calldataload(0x00))\n      dup1\n      0x12065fe0\n      eq\n      tag_2\n      jumpi\n      dup1\n      0x1dc1c5e3\n      eq\n      tag_3\n      jumpi\n      dup1\n      0x1e0018d6\n      eq\n      tag_4\n      jumpi\n      dup1\n      0x8da5cb5b\n      eq\n      tag_5\n      jumpi\n      dup1\n      0xcbedbf5a\n      eq\n      tag_6\n      jumpi\n    tag_1:\n      0x00\n      dup1\n      revert\n        /* \"training/contracts/Modifiers.sol\":470:563  function getBalance() public view returns(uint) {... */\n    tag_2:\n      callvalue\n      dup1\n      iszero\n      tag_7\n      jumpi\n      0x00\n      dup1\n      revert\n    tag_7:\n      pop\n      tag_8\n      tag_9\n      jump\t// in\n    tag_8:\n      mload(0x40)\n      tag_10\n      swap2\n      swap1\n      tag_11\n      jump\t// in\n    tag_10:\n      mload(0x40)\n      dup1\n      swap2\n      sub\n      swap1\n      return\n        /* \"training/contracts/Modifiers.sol\":420:464  function payMoney() external payable {... */\n    tag_3:\n      tag_12\n      tag_13\n      jump\t// in\n    tag_12:\n      stop\n        /* \"training/contracts/Modifiers.sol\":56:87  address payable public investor */\n    tag_4:\n      callvalue\n      dup1\n      iszero\n      tag_14\n      jumpi\n      0x00\n      dup1\n      revert\n    tag_14:\n      pop\n      tag_15\n      tag_16\n      jump\t// in\n    tag_15:\n      mload(0x40)\n      tag_17\n      swap2\n      swap1\n      tag_18\n      jump\t// in\n    tag_17:\n      mload(0x40)\n      dup1\n      swap2\n      sub\n      swap1\n      return\n        /* \"training/contracts/Modifiers.sol\":93:113  address public owner */\n    tag_5:\n      callvalue\n      dup1\n      iszero\n      tag_19\n      jumpi\n      0x00\n      dup1\n      revert\n    tag_19:\n      pop\n      tag_20\n      tag_21\n      jump\t// in\n    tag_20:\n      mload(0x40)\n      tag_22\n      swap2\n      swap1\n      tag_23\n      jump\t// in\n    tag_22:\n      mload(0x40)\n      dup1\n      swap2\n      sub\n      swap1\n      return\n        /* \"training/contracts/Modifiers.sol\":569:850  function sendMoney() external payable {... */\n    tag_6:\n      tag_24\n      tag_25\n      jump\t// in\n    tag_24:\n      stop\n        /* \"training/contracts/Modifiers.sol\":470:563  function getBalance() public view returns(uint) {... */\n    tag_9:\n        /* \"training/contracts/Modifiers.sol\":512:516  uint */\n      0x00\n        /* \"training/contracts/Modifiers.sol\":535:556  address(this).balance */\n      selfbalance\n        /* \"training/contracts/Modifiers.sol\":528:556  return address(this).balance */\n      swap1\n      pop\n        /* \"training/contracts/Modifiers.sol\":470:563  function getBalance() public view returns(uint) {... */\n      swap1\n      jump\t// out\n        /* \"training/contracts/Modifiers.sol\":420:464  function payMoney() external payable {... */\n    tag_13:\n      jump\t// out\n        /* \"training/contracts/Modifiers.sol\":56:87  address payable public investor */\n    tag_16:\n      0x00\n      dup1\n      sload\n      swap1\n      0x0100\n      exp\n      swap1\n      div\n      0xffffffffffffffffffffffffffffffffffffffff\n      and\n      dup2\n      jump\t// out\n        /* \"training/contracts/Modifiers.sol\":93:113  address public owner */\n    tag_21:\n      0x01\n      0x00\n      swap1\n      sload\n      swap1\n      0x0100\n      exp\n      swap1\n      div\n      0xffffffffffffffffffffffffffffffffffffffff\n      and\n      dup2\n      jump\t// out\n        /* \"training/contracts/Modifiers.sol\":569:850  function sendMoney() external payable {... */\n    tag_25:\n        /* \"training/contracts/Modifiers.sol\":636:678  0xAb8483F64d9C6d1EcF9b849Ae677dD3315835cb2 */\n      0xab8483f64d9c6d1ecf9b849ae677dd3315835cb2\n        /* \"training/contracts/Modifiers.sol\":617:625  investor */\n      0x00\n      dup1\n        /* \"training/contracts/Modifiers.sol\":617:679  investor = payable(0xAb8483F64d9C6d1EcF9b849Ae677dD3315835cb2) */\n      0x0100\n      exp\n      dup2\n      sload\n      dup2\n      0xffffffffffffffffffffffffffffffffffffffff\n      mul\n      not\n      and\n      swap1\n      dup4\n      0xffffffffffffffffffffffffffffffffffffffff\n      and\n      mul\n      or\n      swap1\n      sstore\n      pop\n        /* \"training/contracts/Modifiers.sol\":689:697  investor */\n      0x00\n      dup1\n      sload\n      swap1\n      0x0100\n      exp\n      swap1\n      div\n      0xffffffffffffffffffffffffffffffffffffffff\n      and\n        /* \"training/contracts/Modifiers.sol\":689:706  investor.transfer */\n      0xffffffffffffffffffffffffffffffffffffffff\n      and\n        /* \"training/contracts/Modifiers.sol\":689:715  investor.transfer(2 ether) */\n      0x08fc\n        /* \"training/contracts/Modifiers.sol\":707:714  2 ether */\n      0x1bc16d674ec80000\n        /* \"training/contracts/Modifiers.sol\":689:715  investor.transfer(2 ether) */\n      swap1\n      dup2\n      iszero\n      mul\n      swap1\n      mload(0x40)\n      0x00\n      mload(0x40)\n      dup1\n      dup4\n      sub\n      dup2\n      dup6\n      dup9\n      dup9\n      call\n      swap4\n      pop\n      pop\n      pop\n      pop\n      iszero\n      dup1\n      iszero\n      tag_30\n      jumpi\n      returndatasize\n      0x00\n      dup1\n      returndatacopy\n      revert(0x00, returndatasize)\n    tag_30:\n      pop\n        /* \"training/contracts/Modifiers.sol\":725:750  address payable investor2 */\n      0x00\n        /* \"training/contracts/Modifiers.sol\":761:803  0x4B20993Bc481177ec7E8f571ceCaE8A9e22C02db */\n      0x4b20993bc481177ec7e8f571cecae8a9e22c02db\n        /* \"training/contracts/Modifiers.sol\":725:804  address payable investor2 = payable(0x4B20993Bc481177ec7E8f571ceCaE8A9e22C02db) */\n      swap1\n      pop\n        /* \"training/contracts/Modifiers.sol\":814:823  investor2 */\n      dup1\n        /* \"training/contracts/Modifiers.sol\":814:832  investor2.transfer */\n      0xffffffffffffffffffffffffffffffffffffffff\n      and\n        /* \"training/contracts/Modifiers.sol\":814:843  investor2.transfer(1.5 ether) */\n      0x08fc\n        /* \"training/contracts/Modifiers.sol\":833:842  1.5 ether */\n      0x14d1120d7b160000\n        /* \"training/contracts/Modifiers.sol\":814:843  investor2.transfer(1.5 ether) */\n      swap1\n      dup2\n      iszero\n      mul\n      swap1\n      mload(0x40)\n      0x00\n      mload(0x40)\n      dup1\n      dup4\n      sub\n      dup2\n      dup6\n      dup9\n      dup9\n      call\n      swap4\n      pop\n      pop\n      pop\n      pop\n      iszero\n      dup1\n      iszero\n      tag_32\n      jumpi\n      returndatasize\n      0x00\n      dup1\n      returndatacopy\n      revert(0x00, returndatasize)\n    tag_32:\n      pop\n        /* \"training/contracts/Modifiers.sol\":607:850  {... */\n      pop\n        /* \"training/contracts/Modifiers.sol\":569:850  function sendMoney() external payable {... */\n      jump\t// out\n        /* \"#utility.yul\":7:149   */\n    tag_34:\n        /* \"#utility.yul\":110:142   */\n      tag_36\n        /* \"#utility.yul\":136:141   */\n      dup2\n        /* \"#utility.yul\":110:142   */\n      tag_37\n      jump\t// in\n    tag_36:\n        /* \"#utility.yul\":105:108   */\n      dup3\n        /* \"#utility.yul\":98:143   */\n      mstore\n        /* \"#utility.yul\":7:149   */\n      pop\n      pop\n      jump\t// out\n        /* \"#utility.yul\":155:273   */\n    tag_38:\n        /* \"#utility.yul\":242:266   */\n      tag_40\n        /* \"#utility.yul\":260:265   */\n      dup2\n        /* \"#utility.yul\":242:266   */\n      tag_41\n      jump\t// in\n    tag_40:\n        /* \"#utility.yul\":237:240   */\n      dup3\n        /* \"#utility.yul\":230:267   */\n      mstore\n        /* \"#utility.yul\":155:273   */\n      pop\n      pop\n      jump\t// out\n        /* \"#utility.yul\":279:397   */\n    tag_42:\n        /* \"#utility.yul\":366:390   */\n      tag_44\n        /* \"#utility.yul\":384:389   */\n      dup2\n        /* \"#utility.yul\":366:390   */\n      tag_45\n      jump\t// in\n    tag_44:\n        /* \"#utility.yul\":361:364   */\n      dup3\n        /* \"#utility.yul\":354:391   */\n      mstore\n        /* \"#utility.yul\":279:397   */\n      pop\n      pop\n      jump\t// out\n        /* \"#utility.yul\":403:625   */\n    tag_23:\n        /* \"#utility.yul\":496:500   */\n      0x00\n        /* \"#utility.yul\":534:536   */\n      0x20\n        /* \"#utility.yul\":523:532   */\n      dup3\n        /* \"#utility.yul\":519:537   */\n      add\n        /* \"#utility.yul\":511:537   */\n      swap1\n      pop\n        /* \"#utility.yul\":547:618   */\n      tag_47\n        /* \"#utility.yul\":615:616   */\n      0x00\n        /* \"#utility.yul\":604:613   */\n      dup4\n        /* \"#utility.yul\":600:617   */\n      add\n        /* \"#utility.yul\":591:597   */\n      dup5\n        /* \"#utility.yul\":547:618   */\n      tag_38\n      jump\t// in\n    tag_47:\n        /* \"#utility.yul\":403:625   */\n      swap3\n      swap2\n      pop\n      pop\n      jump\t// out\n        /* \"#utility.yul\":631:885   */\n    tag_18:\n        /* \"#utility.yul\":740:744   */\n      0x00\n        /* \"#utility.yul\":778:780   */\n      0x20\n        /* \"#utility.yul\":767:776   */\n      dup3\n        /* \"#utility.yul\":763:781   */\n      add\n        /* \"#utility.yul\":755:781   */\n      swap1\n      pop\n        /* \"#utility.yul\":791:878   */\n      tag_49\n        /* \"#utility.yul\":875:876   */\n      0x00\n        /* \"#utility.yul\":864:873   */\n      dup4\n        /* \"#utility.yul\":860:877   */\n      add\n        /* \"#utility.yul\":851:857   */\n      dup5\n        /* \"#utility.yul\":791:878   */\n      tag_34\n      jump\t// in\n    tag_49:\n        /* \"#utility.yul\":631:885   */\n      swap3\n      swap2\n      pop\n      pop\n      jump\t// out\n        /* \"#utility.yul\":891:1113   */\n    tag_11:\n        /* \"#utility.yul\":984:988   */\n      0x00\n        /* \"#utility.yul\":1022:1024   */\n      0x20\n        /* \"#utility.yul\":1011:1020   */\n      dup3\n        /* \"#utility.yul\":1007:1025   */\n      add\n        /* \"#utility.yul\":999:1025   */\n      swap1\n      pop\n        /* \"#utility.yul\":1035:1106   */\n      tag_51\n        /* \"#utility.yul\":1103:1104   */\n      0x00\n        /* \"#utility.yul\":1092:1101   */\n      dup4\n        /* \"#utility.yul\":1088:1105   */\n      add\n        /* \"#utility.yul\":1079:1085   */\n      dup5\n        /* \"#utility.yul\":1035:1106   */\n      tag_42\n      jump\t// in\n    tag_51:\n        /* \"#utility.yul\":891:1113   */\n      swap3\n      swap2\n      pop\n      pop\n      jump\t// out\n        /* \"#utility.yul\":1119:1215   */\n    tag_41:\n        /* \"#utility.yul\":1156:1163   */\n      0x00\n        /* \"#utility.yul\":1185:1209   */\n      tag_53\n        /* \"#utility.yul\":1203:1208   */\n      dup3\n        /* \"#utility.yul\":1185:1209   */\n      tag_54\n      jump\t// in\n    tag_53:\n        /* \"#utility.yul\":1174:1209   */\n      swap1\n      pop\n        /* \"#utility.yul\":1119:1215   */\n      swap2\n      swap1\n      pop\n      jump\t// out\n        /* \"#utility.yul\":1221:1325   */\n    tag_37:\n        /* \"#utility.yul\":1266:1273   */\n      0x00\n        /* \"#utility.yul\":1295:1319   */\n      tag_56\n        /* \"#utility.yul\":1313:1318   */\n      dup3\n        /* \"#utility.yul\":1295:1319   */\n      tag_54\n      jump\t// in\n    tag_56:\n        /* \"#utility.yul\":1284:1319   */\n      swap1\n      pop\n        /* \"#utility.yul\":1221:1325   */\n      swap2\n      swap1\n      pop\n      jump\t// out\n        /* \"#utility.yul\":1331:1457   */\n    tag_54:\n        /* \"#utility.yul\":1368:1375   */\n      0x00\n        /* \"#utility.yul\":1408:1450   */\n      0xffffffffffffffffffffffffffffffffffffffff\n        /* \"#utility.yul\":1401:1406   */\n      dup3\n        /* \"#utility.yul\":1397:1451   */\n      and\n        /* \"#utility.yul\":1386:1451   */\n      swap1\n      pop\n        /* \"#utility.yul\":1331:1457   */\n      swap2\n      swap1\n      pop\n      jump\t// out\n        /* \"#utility.yul\":1463:1540   */\n    tag_45:\n        /* \"#utility.yul\":1500:1507   */\n      0x00\n        /* \"#utility.yul\":1529:1534   */\n      dup2\n        /* \"#utility.yul\":1518:1534   */\n      swap1\n      pop\n        /* \"#utility.yul\":1463:1540   */\n      swap2\n      swap1\n      pop\n      jump\t// out\n\n    auxdata: 0xa26469706673582212206c83426727bcf1d5e75abbf149a553b64c600827f227413f476f3ecbb491998864736f6c63430008070033\n}\n",
				"bytecode": {
					"linkReferences": {},
					"object": "608060405234801561001057600080fd5b50610368806100206000396000f3fe60806040526004361061004a5760003560e01c806312065fe01461004f5780631dc1c5e31461007a5780631e0018d6146100845780638da5cb5b146100af578063cbedbf5a146100da575b600080fd5b34801561005b57600080fd5b506100646100e4565b60405161007191906102c9565b60405180910390f35b6100826100ec565b005b34801561009057600080fd5b506100996100ee565b6040516100a691906102ae565b60405180910390f35b3480156100bb57600080fd5b506100c4610112565b6040516100d19190610293565b60405180910390f35b6100e2610138565b005b600047905090565b565b60008054906101000a900473ffffffffffffffffffffffffffffffffffffffff1681565b600160009054906101000a900473ffffffffffffffffffffffffffffffffffffffff1681565b73ab8483f64d9c6d1ecf9b849ae677dd3315835cb26000806101000a81548173ffffffffffffffffffffffffffffffffffffffff021916908373ffffffffffffffffffffffffffffffffffffffff16021790555060008054906101000a900473ffffffffffffffffffffffffffffffffffffffff1673ffffffffffffffffffffffffffffffffffffffff166108fc671bc16d674ec800009081150290604051600060405180830381858888f193505050501580156101fa573d6000803e3d6000fd5b506000734b20993bc481177ec7e8f571cecae8a9e22c02db90508073ffffffffffffffffffffffffffffffffffffffff166108fc6714d1120d7b1600009081150290604051600060405180830381858888f19350505050158015610262573d6000803e3d6000fd5b5050565b61026f816102f6565b82525050565b61027e816102e4565b82525050565b61028d81610328565b82525050565b60006020820190506102a86000830184610275565b92915050565b60006020820190506102c36000830184610266565b92915050565b60006020820190506102de6000830184610284565b92915050565b60006102ef82610308565b9050919050565b600061030182610308565b9050919050565b600073ffffffffffffffffffffffffffffffffffffffff82169050919050565b600081905091905056fea26469706673582212206c83426727bcf1d5e75abbf149a553b64c600827f227413f476f3ecbb491998864736f6c63430008070033",
					"opcodes": "PUSH1 0x80 PUSH1 0x40 MSTORE CALLVALUE DUP1 ISZERO PUSH2 0x10 JUMPI PUSH1 0x0 DUP1 REVERT JUMPDEST POP PUSH2 0x368 DUP1 PUSH2 0x20 PUSH1 0x0 CODECOPY PUSH1 0x0 RETURN INVALID PUSH1 0x80 PUSH1 0x40 MSTORE PUSH1 0x4 CALLDATASIZE LT PUSH2 0x4A JUMPI PUSH1 0x0 CALLDATALOAD PUSH1 0xE0 SHR DUP1 PUSH4 0x12065FE0 EQ PUSH2 0x4F JUMPI DUP1 PUSH4 0x1DC1C5E3 EQ PUSH2 0x7A JUMPI DUP1 PUSH4 0x1E0018D6 EQ PUSH2 0x84 JUMPI DUP1 PUSH4 0x8DA5CB5B EQ PUSH2 0xAF JUMPI DUP1 PUSH4 0xCBEDBF5A EQ PUSH2 0xDA JUMPI JUMPDEST PUSH1 0x0 DUP1 REVERT JUMPDEST CALLVALUE DUP1 ISZERO PUSH2 0x5B JUMPI PUSH1 0x0 DUP1 REVERT JUMPDEST POP PUSH2 0x64 PUSH2 0xE4 JUMP JUMPDEST PUSH1 0x40 MLOAD PUSH2 0x71 SWAP2 SWAP1 PUSH2 0x2C9 JUMP JUMPDEST PUSH1 0x40 MLOAD DUP1 SWAP2 SUB SWAP1 RETURN JUMPDEST PUSH2 0x82 PUSH2 0xEC JUMP JUMPDEST STOP JUMPDEST CALLVALUE DUP1 ISZERO PUSH2 0x90 JUMPI PUSH1 0x0 DUP1 REVERT JUMPDEST POP PUSH2 0x99 PUSH2 0xEE JUMP JUMPDEST PUSH1 0x40 MLOAD PUSH2 0xA6 SWAP2 SWAP1 PUSH2 0x2AE JUMP JUMPDEST PUSH1 0x40 MLOAD DUP1 SWAP2 SUB SWAP1 RETURN JUMPDEST CALLVALUE DUP1 ISZERO PUSH2 0xBB JUMPI PUSH1 0x0 DUP1 REVERT JUMPDEST POP PUSH2 0xC4 PUSH2 0x112 JUMP JUMPDEST PUSH1 0x40 MLOAD PUSH2 0xD1 SWAP2 SWAP1 PUSH2 0x293 JUMP JUMPDEST PUSH1 0x40 MLOAD DUP1 SWAP2 SUB SWAP1 RETURN JUMPDEST PUSH2 0xE2 PUSH2 0x138 JUMP JUMPDEST STOP JUMPDEST PUSH1 0x0 SELFBALANCE SWAP1 POP SWAP1 JUMP JUMPDEST JUMP JUMPDEST PUSH1 0x0 DUP1 SLOAD SWAP1 PUSH2 0x100 EXP SWAP1 DIV PUSH20 0xFFFFFFFFFFFFFFFFFFFFFFFFFFFFFFFFFFFFFFFF AND DUP2 JUMP JUMPDEST PUSH1 0x1 PUSH1 0x0 SWAP1 SLOAD SWAP1 PUSH2 0x100 EXP SWAP1 DIV PUSH20 0xFFFFFFFFFFFFFFFFFFFFFFFFFFFFFFFFFFFFFFFF AND DUP2 JUMP JUMPDEST PUSH20 0xAB8483F64D9C6D1ECF9B849AE677DD3315835CB2 PUSH1 0x0 DUP1 PUSH2 0x100 EXP DUP2 SLOAD DUP2 PUSH20 0xFFFFFFFFFFFFFFFFFFFFFFFFFFFFFFFFFFFFFFFF MUL NOT AND SWAP1 DUP4 PUSH20 0xFFFFFFFFFFFFFFFFFFFFFFFFFFFFFFFFFFFFFFFF AND MUL OR SWAP1 SSTORE POP PUSH1 0x0 DUP1 SLOAD SWAP1 PUSH2 0x100 EXP SWAP1 DIV PUSH20 0xFFFFFFFFFFFFFFFFFFFFFFFFFFFFFFFFFFFFFFFF AND PUSH20 0xFFFFFFFFFFFFFFFFFFFFFFFFFFFFFFFFFFFFFFFF AND PUSH2 0x8FC PUSH8 0x1BC16D674EC80000 SWAP1 DUP2 ISZERO MUL SWAP1 PUSH1 0x40 MLOAD PUSH1 0x0 PUSH1 0x40 MLOAD DUP1 DUP4 SUB DUP2 DUP6 DUP9 DUP9 CALL SWAP4 POP POP POP POP ISZERO DUP1 ISZERO PUSH2 0x1FA JUMPI RETURNDATASIZE PUSH1 0x0 DUP1 RETURNDATACOPY RETURNDATASIZE PUSH1 0x0 REVERT JUMPDEST POP PUSH1 0x0 PUSH20 0x4B20993BC481177EC7E8F571CECAE8A9E22C02DB SWAP1 POP DUP1 PUSH20 0xFFFFFFFFFFFFFFFFFFFFFFFFFFFFFFFFFFFFFFFF AND PUSH2 0x8FC PUSH8 0x14D1120D7B160000 SWAP1 DUP2 ISZERO MUL SWAP1 PUSH1 0x40 MLOAD PUSH1 0x0 PUSH1 0x40 MLOAD DUP1 DUP4 SUB DUP2 DUP6 DUP9 DUP9 CALL SWAP4 POP POP POP POP ISZERO DUP1 ISZERO PUSH2 0x262 JUMPI RETURNDATASIZE PUSH1 0x0 DUP1 RETURNDATACOPY RETURNDATASIZE PUSH1 0x0 REVERT JUMPDEST POP POP JUMP JUMPDEST PUSH2 0x26F DUP2 PUSH2 0x2F6 JUMP JUMPDEST DUP3 MSTORE POP POP JUMP JUMPDEST PUSH2 0x27E DUP2 PUSH2 0x2E4 JUMP JUMPDEST DUP3 MSTORE POP POP JUMP JUMPDEST PUSH2 0x28D DUP2 PUSH2 0x328 JUMP JUMPDEST DUP3 MSTORE POP POP JUMP JUMPDEST PUSH1 0x0 PUSH1 0x20 DUP3 ADD SWAP1 POP PUSH2 0x2A8 PUSH1 0x0 DUP4 ADD DUP5 PUSH2 0x275 JUMP JUMPDEST SWAP3 SWAP2 POP POP JUMP JUMPDEST PUSH1 0x0 PUSH1 0x20 DUP3 ADD SWAP1 POP PUSH2 0x2C3 PUSH1 0x0 DUP4 ADD DUP5 PUSH2 0x266 JUMP JUMPDEST SWAP3 SWAP2 POP POP JUMP JUMPDEST PUSH1 0x0 PUSH1 0x20 DUP3 ADD SWAP1 POP PUSH2 0x2DE PUSH1 0x0 DUP4 ADD DUP5 PUSH2 0x284 JUMP JUMPDEST SWAP3 SWAP2 POP POP JUMP JUMPDEST PUSH1 0x0 PUSH2 0x2EF DUP3 PUSH2 0x308 JUMP JUMPDEST SWAP1 POP SWAP2 SWAP1 POP JUMP JUMPDEST PUSH1 0x0 PUSH2 0x301 DUP3 PUSH2 0x308 JUMP JUMPDEST SWAP1 POP SWAP2 SWAP1 POP JUMP JUMPDEST PUSH1 0x0 PUSH20 0xFFFFFFFFFFFFFFFFFFFFFFFFFFFFFFFFFFFFFFFF DUP3 AND SWAP1 POP SWAP2 SWAP1 POP JUMP JUMPDEST PUSH1 0x0 DUP2 SWAP1 POP SWAP2 SWAP1 POP JUMP INVALID LOG2 PUSH5 0x6970667358 0x22 SLT KECCAK256 PUSH13 0x83426727BCF1D5E75ABBF149A5 MSTORE8 0xB6 0x4C PUSH1 0x8 0x27 CALLCODE 0x27 COINBASE EXTCODEHASH SELFBALANCE PUSH16 0x3ECBB491998864736F6C634300080700 CALLER "
				},
				"gasEstimates": {
					"creation": {
						"codeDepositCost": "174400",
						"executionCost": "220",
						"totalCost": "174620"
					},
					"external": {
						"getBalance()": "317",
						"investor()": "2533",
						"owner()": "2558",
						"payMoney()": "120",
						"sendMoney()": "infinite"
					}
				},
				"methodIdentifiers": {
					"getBalance()": "12065fe0",
					"investor()": "1e0018d6",
					"owner()": "8da5cb5b",
					"payMoney()": "1dc1c5e3",
					"sendMoney()": "cbedbf5a"
				}
			},
			"userdoc": {
				"kind": "user",
				"methods": {},
				"version": 1
			}
		}
	}
}