{
	"training/contracts/Interfaces.sol": {
		"B": {
			"abi": [
				{
					"inputs": [
						{
							"internalType": "string",
							"name": "name",
							"type": "string"
						}
					],
					"name": "recordName",
					"outputs": [],
					"stateMutability": "nonpayable",
					"type": "function"
				},
				{
					"inputs": [
						{
							"internalType": "string",
							"name": "",
							"type": "string"
						}
					],
					"name": "students",
					"outputs": [
						{
							"internalType": "bool",
							"name": "",
							"type": "bool"
						}
					],
					"stateMutability": "view",
					"type": "function"
				}
			],
			"devdoc": {
				"kind": "dev",
				"methods": {},
				"version": 1
			},
			"evm": {
				"assembly": "    /* \"training/contracts/Interfaces.sol\":481:640  contract B is Int{... */\n  mstore(0x40, 0x80)\n  callvalue\n  dup1\n  iszero\n  tag_1\n  jumpi\n  0x00\n  dup1\n  revert\ntag_1:\n  pop\n  dataSize(sub_0)\n  dup1\n  dataOffset(sub_0)\n  0x00\n  codecopy\n  0x00\n  return\nstop\n\nsub_0: assembly {\n        /* \"training/contracts/Interfaces.sol\":481:640  contract B is Int{... */\n      mstore(0x40, 0x80)\n      callvalue\n      dup1\n      iszero\n      tag_1\n      jumpi\n      0x00\n      dup1\n      revert\n    tag_1:\n      pop\n      jumpi(tag_2, lt(calldatasize, 0x04))\n      shr(0xe0, calldataload(0x00))\n      dup1\n      0xbc3fd02f\n      eq\n      tag_3\n      jumpi\n      dup1\n      0xc7ef6bfb\n      eq\n      tag_4\n      jumpi\n    tag_2:\n      0x00\n      dup1\n      revert\n        /* \"training/contracts/Interfaces.sol\":547:638  function recordName(string memory name) override public{... */\n    tag_3:\n      tag_5\n      0x04\n      dup1\n      calldatasize\n      sub\n      dup2\n      add\n      swap1\n      tag_6\n      swap2\n      swap1\n      tag_7\n      jump\t// in\n    tag_6:\n      tag_8\n      jump\t// in\n    tag_5:\n      stop\n        /* \"training/contracts/Interfaces.sol\":504:541  mapping(string=>bool) public students */\n    tag_4:\n      tag_9\n      0x04\n      dup1\n      calldatasize\n      sub\n      dup2\n      add\n      swap1\n      tag_10\n      swap2\n      swap1\n      tag_7\n      jump\t// in\n    tag_10:\n      tag_11\n      jump\t// in\n    tag_9:\n      mload(0x40)\n      tag_12\n      swap2\n      swap1\n      tag_13\n      jump\t// in\n    tag_12:\n      mload(0x40)\n      dup1\n      swap2\n      sub\n      swap1\n      return\n        /* \"training/contracts/Interfaces.sol\":547:638  function recordName(string memory name) override public{... */\n    tag_8:\n        /* \"training/contracts/Interfaces.sol\":627:631  true */\n      0x01\n        /* \"training/contracts/Interfaces.sol\":612:620  students */\n      0x00\n        /* \"training/contracts/Interfaces.sol\":621:625  name */\n      dup3\n        /* \"training/contracts/Interfaces.sol\":612:626  students[name] */\n      mload(0x40)\n      tag_15\n      swap2\n      swap1\n      tag_16\n      jump\t// in\n    tag_15:\n      swap1\n      dup2\n      mstore\n      0x20\n      add\n      mload(0x40)\n      dup1\n      swap2\n      sub\n      swap1\n      keccak256\n      0x00\n        /* \"training/contracts/Interfaces.sol\":612:631  students[name]=true */\n      0x0100\n      exp\n      dup2\n      sload\n      dup2\n      0xff\n      mul\n      not\n      and\n      swap1\n      dup4\n      iszero\n      iszero\n      mul\n      or\n      swap1\n      sstore\n      pop\n        /* \"training/contracts/Interfaces.sol\":547:638  function recordName(string memory name) override public{... */\n      pop\n      jump\t// out\n        /* \"training/contracts/Interfaces.sol\":504:541  mapping(string=>bool) public students */\n    tag_11:\n      0x00\n      dup2\n      dup1\n      mload\n      0x20\n      dup2\n      add\n      dup3\n      add\n      dup1\n      mload\n      dup5\n      dup3\n      mstore\n      0x20\n      dup4\n      add\n      0x20\n      dup6\n      add\n      keccak256\n      dup2\n      dup4\n      mstore\n      dup1\n      swap6\n      pop\n      pop\n      pop\n      pop\n      pop\n      pop\n      0x00\n      swap2\n      pop\n      sload\n      swap1\n      0x0100\n      exp\n      swap1\n      div\n      0xff\n      and\n      dup2\n      jump\t// out\n        /* \"#utility.yul\":7:419   */\n    tag_18:\n        /* \"#utility.yul\":85:90   */\n      0x00\n        /* \"#utility.yul\":110:176   */\n      tag_20\n        /* \"#utility.yul\":126:175   */\n      tag_21\n        /* \"#utility.yul\":168:174   */\n      dup5\n        /* \"#utility.yul\":126:175   */\n      tag_22\n      jump\t// in\n    tag_21:\n        /* \"#utility.yul\":110:176   */\n      tag_23\n      jump\t// in\n    tag_20:\n        /* \"#utility.yul\":101:176   */\n      swap1\n      pop\n        /* \"#utility.yul\":199:205   */\n      dup3\n        /* \"#utility.yul\":192:197   */\n      dup2\n        /* \"#utility.yul\":185:206   */\n      mstore\n        /* \"#utility.yul\":237:241   */\n      0x20\n        /* \"#utility.yul\":230:235   */\n      dup2\n        /* \"#utility.yul\":226:242   */\n      add\n        /* \"#utility.yul\":275:278   */\n      dup5\n        /* \"#utility.yul\":266:272   */\n      dup5\n        /* \"#utility.yul\":261:264   */\n      dup5\n        /* \"#utility.yul\":257:273   */\n      add\n        /* \"#utility.yul\":254:279   */\n      gt\n        /* \"#utility.yul\":251:363   */\n      iszero\n      tag_24\n      jumpi\n        /* \"#utility.yul\":282:361   */\n      tag_25\n      tag_26\n      jump\t// in\n    tag_25:\n        /* \"#utility.yul\":251:363   */\n    tag_24:\n        /* \"#utility.yul\":372:413   */\n      tag_27\n        /* \"#utility.yul\":406:412   */\n      dup5\n        /* \"#utility.yul\":401:404   */\n      dup3\n        /* \"#utility.yul\":396:399   */\n      dup6\n        /* \"#utility.yul\":372:413   */\n      tag_28\n      jump\t// in\n    tag_27:\n        /* \"#utility.yul\":91:419   */\n      pop\n        /* \"#utility.yul\":7:419   */\n      swap4\n      swap3\n      pop\n      pop\n      pop\n      jump\t// out\n        /* \"#utility.yul\":439:779   */\n    tag_29:\n        /* \"#utility.yul\":495:500   */\n      0x00\n        /* \"#utility.yul\":544:547   */\n      dup3\n        /* \"#utility.yul\":537:541   */\n      0x1f\n        /* \"#utility.yul\":529:535   */\n      dup4\n        /* \"#utility.yul\":525:542   */\n      add\n        /* \"#utility.yul\":521:548   */\n      slt\n        /* \"#utility.yul\":511:633   */\n      tag_31\n      jumpi\n        /* \"#utility.yul\":552:631   */\n      tag_32\n      tag_33\n      jump\t// in\n    tag_32:\n        /* \"#utility.yul\":511:633   */\n    tag_31:\n        /* \"#utility.yul\":669:675   */\n      dup2\n        /* \"#utility.yul\":656:676   */\n      calldataload\n        /* \"#utility.yul\":694:773   */\n      tag_34\n        /* \"#utility.yul\":769:772   */\n      dup5\n        /* \"#utility.yul\":761:767   */\n      dup3\n        /* \"#utility.yul\":754:758   */\n      0x20\n        /* \"#utility.yul\":746:752   */\n      dup7\n        /* \"#utility.yul\":742:759   */\n      add\n        /* \"#utility.yul\":694:773   */\n      tag_18\n      jump\t// in\n    tag_34:\n        /* \"#utility.yul\":685:773   */\n      swap2\n      pop\n        /* \"#utility.yul\":501:779   */\n      pop\n        /* \"#utility.yul\":439:779   */\n      swap3\n      swap2\n      pop\n      pop\n      jump\t// out\n        /* \"#utility.yul\":785:1294   */\n    tag_7:\n        /* \"#utility.yul\":854:860   */\n      0x00\n        /* \"#utility.yul\":903:905   */\n      0x20\n        /* \"#utility.yul\":891:900   */\n      dup3\n        /* \"#utility.yul\":882:889   */\n      dup5\n        /* \"#utility.yul\":878:901   */\n      sub\n        /* \"#utility.yul\":874:906   */\n      slt\n        /* \"#utility.yul\":871:990   */\n      iszero\n      tag_36\n      jumpi\n        /* \"#utility.yul\":909:988   */\n      tag_37\n      tag_38\n      jump\t// in\n    tag_37:\n        /* \"#utility.yul\":871:990   */\n    tag_36:\n        /* \"#utility.yul\":1057:1058   */\n      0x00\n        /* \"#utility.yul\":1046:1055   */\n      dup3\n        /* \"#utility.yul\":1042:1059   */\n      add\n        /* \"#utility.yul\":1029:1060   */\n      calldataload\n        /* \"#utility.yul\":1087:1105   */\n      0xffffffffffffffff\n        /* \"#utility.yul\":1079:1085   */\n      dup2\n        /* \"#utility.yul\":1076:1106   */\n      gt\n        /* \"#utility.yul\":1073:1190   */\n      iszero\n      tag_39\n      jumpi\n        /* \"#utility.yul\":1109:1188   */\n      tag_40\n      tag_41\n      jump\t// in\n    tag_40:\n        /* \"#utility.yul\":1073:1190   */\n    tag_39:\n        /* \"#utility.yul\":1214:1277   */\n      tag_42\n        /* \"#utility.yul\":1269:1276   */\n      dup5\n        /* \"#utility.yul\":1260:1266   */\n      dup3\n        /* \"#utility.yul\":1249:1258   */\n      dup6\n        /* \"#utility.yul\":1245:1267   */\n      add\n        /* \"#utility.yul\":1214:1277   */\n      tag_29\n      jump\t// in\n    tag_42:\n        /* \"#utility.yul\":1204:1277   */\n      swap2\n      pop\n        /* \"#utility.yul\":1000:1287   */\n      pop\n        /* \"#utility.yul\":785:1294   */\n      swap3\n      swap2\n      pop\n      pop\n      jump\t// out\n        /* \"#utility.yul\":1300:1409   */\n    tag_43:\n        /* \"#utility.yul\":1381:1402   */\n      tag_45\n        /* \"#utility.yul\":1396:1401   */\n      dup2\n        /* \"#utility.yul\":1381:1402   */\n      tag_46\n      jump\t// in\n    tag_45:\n        /* \"#utility.yul\":1376:1379   */\n      dup3\n        /* \"#utility.yul\":1369:1403   */\n      mstore\n        /* \"#utility.yul\":1300:1409   */\n      pop\n      pop\n      jump\t// out\n        /* \"#utility.yul\":1415:1792   */\n    tag_47:\n        /* \"#utility.yul\":1521:1524   */\n      0x00\n        /* \"#utility.yul\":1549:1588   */\n      tag_49\n        /* \"#utility.yul\":1582:1587   */\n      dup3\n        /* \"#utility.yul\":1549:1588   */\n      tag_50\n      jump\t// in\n    tag_49:\n        /* \"#utility.yul\":1604:1693   */\n      tag_51\n        /* \"#utility.yul\":1686:1692   */\n      dup2\n        /* \"#utility.yul\":1681:1684   */\n      dup6\n        /* \"#utility.yul\":1604:1693   */\n      tag_52\n      jump\t// in\n    tag_51:\n        /* \"#utility.yul\":1597:1693   */\n      swap4\n      pop\n        /* \"#utility.yul\":1702:1754   */\n      tag_53\n        /* \"#utility.yul\":1747:1753   */\n      dup2\n        /* \"#utility.yul\":1742:1745   */\n      dup6\n        /* \"#utility.yul\":1735:1739   */\n      0x20\n        /* \"#utility.yul\":1728:1733   */\n      dup7\n        /* \"#utility.yul\":1724:1740   */\n      add\n        /* \"#utility.yul\":1702:1754   */\n      tag_54\n      jump\t// in\n    tag_53:\n        /* \"#utility.yul\":1779:1785   */\n      dup1\n        /* \"#utility.yul\":1774:1777   */\n      dup5\n        /* \"#utility.yul\":1770:1786   */\n      add\n        /* \"#utility.yul\":1763:1786   */\n      swap2\n      pop\n        /* \"#utility.yul\":1525:1792   */\n      pop\n        /* \"#utility.yul\":1415:1792   */\n      swap3\n      swap2\n      pop\n      pop\n      jump\t// out\n        /* \"#utility.yul\":1798:2073   */\n    tag_16:\n        /* \"#utility.yul\":1930:1933   */\n      0x00\n        /* \"#utility.yul\":1952:2047   */\n      tag_56\n        /* \"#utility.yul\":2043:2046   */\n      dup3\n        /* \"#utility.yul\":2034:2040   */\n      dup5\n        /* \"#utility.yul\":1952:2047   */\n      tag_47\n      jump\t// in\n    tag_56:\n        /* \"#utility.yul\":1945:2047   */\n      swap2\n      pop\n        /* \"#utility.yul\":2064:2067   */\n      dup2\n        /* \"#utility.yul\":2057:2067   */\n      swap1\n      pop\n        /* \"#utility.yul\":1798:2073   */\n      swap3\n      swap2\n      pop\n      pop\n      jump\t// out\n        /* \"#utility.yul\":2079:2289   */\n    tag_13:\n        /* \"#utility.yul\":2166:2170   */\n      0x00\n        /* \"#utility.yul\":2204:2206   */\n      0x20\n        /* \"#utility.yul\":2193:2202   */\n      dup3\n        /* \"#utility.yul\":2189:2207   */\n      add\n        /* \"#utility.yul\":2181:2207   */\n      swap1\n      pop\n        /* \"#utility.yul\":2217:2282   */\n      tag_58\n        /* \"#utility.yul\":2279:2280   */\n      0x00\n        /* \"#utility.yul\":2268:2277   */\n      dup4\n        /* \"#utility.yul\":2264:2281   */\n      add\n        /* \"#utility.yul\":2255:2261   */\n      dup5\n        /* \"#utility.yul\":2217:2282   */\n      tag_43\n      jump\t// in\n    tag_58:\n        /* \"#utility.yul\":2079:2289   */\n      swap3\n      swap2\n      pop\n      pop\n      jump\t// out\n        /* \"#utility.yul\":2295:2424   */\n    tag_23:\n        /* \"#utility.yul\":2329:2335   */\n      0x00\n        /* \"#utility.yul\":2356:2376   */\n      tag_60\n      tag_61\n      jump\t// in\n    tag_60:\n        /* \"#utility.yul\":2346:2376   */\n      swap1\n      pop\n        /* \"#utility.yul\":2385:2418   */\n      tag_62\n        /* \"#utility.yul\":2413:2417   */\n      dup3\n        /* \"#utility.yul\":2405:2411   */\n      dup3\n        /* \"#utility.yul\":2385:2418   */\n      tag_63\n      jump\t// in\n    tag_62:\n        /* \"#utility.yul\":2295:2424   */\n      swap2\n      swap1\n      pop\n      jump\t// out\n        /* \"#utility.yul\":2430:2505   */\n    tag_61:\n        /* \"#utility.yul\":2463:2469   */\n      0x00\n        /* \"#utility.yul\":2496:2498   */\n      0x40\n        /* \"#utility.yul\":2490:2499   */\n      mload\n        /* \"#utility.yul\":2480:2499   */\n      swap1\n      pop\n        /* \"#utility.yul\":2430:2505   */\n      swap1\n      jump\t// out\n        /* \"#utility.yul\":2511:2819   */\n    tag_22:\n        /* \"#utility.yul\":2573:2577   */\n      0x00\n        /* \"#utility.yul\":2663:2681   */\n      0xffffffffffffffff\n        /* \"#utility.yul\":2655:2661   */\n      dup3\n        /* \"#utility.yul\":2652:2682   */\n      gt\n        /* \"#utility.yul\":2649:2705   */\n      iszero\n      tag_66\n      jumpi\n        /* \"#utility.yul\":2685:2703   */\n      tag_67\n      tag_68\n      jump\t// in\n    tag_67:\n        /* \"#utility.yul\":2649:2705   */\n    tag_66:\n        /* \"#utility.yul\":2723:2752   */\n      tag_69\n        /* \"#utility.yul\":2745:2751   */\n      dup3\n        /* \"#utility.yul\":2723:2752   */\n      tag_70\n      jump\t// in\n    tag_69:\n        /* \"#utility.yul\":2715:2752   */\n      swap1\n      pop\n        /* \"#utility.yul\":2807:2811   */\n      0x20\n        /* \"#utility.yul\":2801:2805   */\n      dup2\n        /* \"#utility.yul\":2797:2812   */\n      add\n        /* \"#utility.yul\":2789:2812   */\n      swap1\n      pop\n        /* \"#utility.yul\":2511:2819   */\n      swap2\n      swap1\n      pop\n      jump\t// out\n        /* \"#utility.yul\":2825:2924   */\n    tag_50:\n        /* \"#utility.yul\":2877:2883   */\n      0x00\n        /* \"#utility.yul\":2911:2916   */\n      dup2\n        /* \"#utility.yul\":2905:2917   */\n      mload\n        /* \"#utility.yul\":2895:2917   */\n      swap1\n      pop\n        /* \"#utility.yul\":2825:2924   */\n      swap2\n      swap1\n      pop\n      jump\t// out\n        /* \"#utility.yul\":2930:3078   */\n    tag_52:\n        /* \"#utility.yul\":3032:3043   */\n      0x00\n        /* \"#utility.yul\":3069:3072   */\n      dup2\n        /* \"#utility.yul\":3054:3072   */\n      swap1\n      pop\n        /* \"#utility.yul\":2930:3078   */\n      swap3\n      swap2\n      pop\n      pop\n      jump\t// out\n        /* \"#utility.yul\":3084:3174   */\n    tag_46:\n        /* \"#utility.yul\":3118:3125   */\n      0x00\n        /* \"#utility.yul\":3161:3166   */\n      dup2\n        /* \"#utility.yul\":3154:3167   */\n      iszero\n        /* \"#utility.yul\":3147:3168   */\n      iszero\n        /* \"#utility.yul\":3136:3168   */\n      swap1\n      pop\n        /* \"#utility.yul\":3084:3174   */\n      swap2\n      swap1\n      pop\n      jump\t// out\n        /* \"#utility.yul\":3180:3334   */\n    tag_28:\n        /* \"#utility.yul\":3264:3270   */\n      dup3\n        /* \"#utility.yul\":3259:3262   */\n      dup2\n        /* \"#utility.yul\":3254:3257   */\n      dup4\n        /* \"#utility.yul\":3241:3271   */\n      calldatacopy\n        /* \"#utility.yul\":3326:3327   */\n      0x00\n        /* \"#utility.yul\":3317:3323   */\n      dup4\n        /* \"#utility.yul\":3312:3315   */\n      dup4\n        /* \"#utility.yul\":3308:3324   */\n      add\n        /* \"#utility.yul\":3301:3328   */\n      mstore\n        /* \"#utility.yul\":3180:3334   */\n      pop\n      pop\n      pop\n      jump\t// out\n        /* \"#utility.yul\":3340:3647   */\n    tag_54:\n        /* \"#utility.yul\":3408:3409   */\n      0x00\n        /* \"#utility.yul\":3418:3531   */\n    tag_76:\n        /* \"#utility.yul\":3432:3438   */\n      dup4\n        /* \"#utility.yul\":3429:3430   */\n      dup2\n        /* \"#utility.yul\":3426:3439   */\n      lt\n        /* \"#utility.yul\":3418:3531   */\n      iszero\n      tag_78\n      jumpi\n        /* \"#utility.yul\":3517:3518   */\n      dup1\n        /* \"#utility.yul\":3512:3515   */\n      dup3\n        /* \"#utility.yul\":3508:3519   */\n      add\n        /* \"#utility.yul\":3502:3520   */\n      mload\n        /* \"#utility.yul\":3498:3499   */\n      dup2\n        /* \"#utility.yul\":3493:3496   */\n      dup5\n        /* \"#utility.yul\":3489:3500   */\n      add\n        /* \"#utility.yul\":3482:3521   */\n      mstore\n        /* \"#utility.yul\":3454:3456   */\n      0x20\n        /* \"#utility.yul\":3451:3452   */\n      dup2\n        /* \"#utility.yul\":3447:3457   */\n      add\n        /* \"#utility.yul\":3442:3457   */\n      swap1\n      pop\n        /* \"#utility.yul\":3418:3531   */\n      jump(tag_76)\n    tag_78:\n        /* \"#utility.yul\":3549:3555   */\n      dup4\n        /* \"#utility.yul\":3546:3547   */\n      dup2\n        /* \"#utility.yul\":3543:3556   */\n      gt\n        /* \"#utility.yul\":3540:3641   */\n      iszero\n      tag_79\n      jumpi\n        /* \"#utility.yul\":3629:3630   */\n      0x00\n        /* \"#utility.yul\":3620:3626   */\n      dup5\n        /* \"#utility.yul\":3615:3618   */\n      dup5\n        /* \"#utility.yul\":3611:3627   */\n      add\n        /* \"#utility.yul\":3604:3631   */\n      mstore\n        /* \"#utility.yul\":3540:3641   */\n    tag_79:\n        /* \"#utility.yul\":3389:3647   */\n      pop\n        /* \"#utility.yul\":3340:3647   */\n      pop\n      pop\n      pop\n      jump\t// out\n        /* \"#utility.yul\":3653:3934   */\n    tag_63:\n        /* \"#utility.yul\":3736:3763   */\n      tag_81\n        /* \"#utility.yul\":3758:3762   */\n      dup3\n        /* \"#utility.yul\":3736:3763   */\n      tag_70\n      jump\t// in\n    tag_81:\n        /* \"#utility.yul\":3728:3734   */\n      dup2\n        /* \"#utility.yul\":3724:3764   */\n      add\n        /* \"#utility.yul\":3866:3872   */\n      dup2\n        /* \"#utility.yul\":3854:3864   */\n      dup2\n        /* \"#utility.yul\":3851:3873   */\n      lt\n        /* \"#utility.yul\":3830:3848   */\n      0xffffffffffffffff\n        /* \"#utility.yul\":3818:3828   */\n      dup3\n        /* \"#utility.yul\":3815:3849   */\n      gt\n        /* \"#utility.yul\":3812:3874   */\n      or\n        /* \"#utility.yul\":3809:3897   */\n      iszero\n      tag_82\n      jumpi\n        /* \"#utility.yul\":3877:3895   */\n      tag_83\n      tag_68\n      jump\t// in\n    tag_83:\n        /* \"#utility.yul\":3809:3897   */\n    tag_82:\n        /* \"#utility.yul\":3917:3927   */\n      dup1\n        /* \"#utility.yul\":3913:3915   */\n      0x40\n        /* \"#utility.yul\":3906:3928   */\n      mstore\n        /* \"#utility.yul\":3696:3934   */\n      pop\n        /* \"#utility.yul\":3653:3934   */\n      pop\n      pop\n      jump\t// out\n        /* \"#utility.yul\":3940:4120   */\n    tag_68:\n        /* \"#utility.yul\":3988:4065   */\n      0x4e487b7100000000000000000000000000000000000000000000000000000000\n        /* \"#utility.yul\":3985:3986   */\n      0x00\n        /* \"#utility.yul\":3978:4066   */\n      mstore\n        /* \"#utility.yul\":4085:4089   */\n      0x41\n        /* \"#utility.yul\":4082:4083   */\n      0x04\n        /* \"#utility.yul\":4075:4090   */\n      mstore\n        /* \"#utility.yul\":4109:4113   */\n      0x24\n        /* \"#utility.yul\":4106:4107   */\n      0x00\n        /* \"#utility.yul\":4099:4114   */\n      revert\n        /* \"#utility.yul\":4126:4243   */\n    tag_33:\n        /* \"#utility.yul\":4235:4236   */\n      0x00\n        /* \"#utility.yul\":4232:4233   */\n      dup1\n        /* \"#utility.yul\":4225:4237   */\n      revert\n        /* \"#utility.yul\":4249:4366   */\n    tag_26:\n        /* \"#utility.yul\":4358:4359   */\n      0x00\n        /* \"#utility.yul\":4355:4356   */\n      dup1\n        /* \"#utility.yul\":4348:4360   */\n      revert\n        /* \"#utility.yul\":4372:4489   */\n    tag_41:\n        /* \"#utility.yul\":4481:4482   */\n      0x00\n        /* \"#utility.yul\":4478:4479   */\n      dup1\n        /* \"#utility.yul\":4471:4483   */\n      revert\n        /* \"#utility.yul\":4495:4612   */\n    tag_38:\n        /* \"#utility.yul\":4604:4605   */\n      0x00\n        /* \"#utility.yul\":4601:4602   */\n      dup1\n        /* \"#utility.yul\":4594:4606   */\n      revert\n        /* \"#utility.yul\":4618:4720   */\n    tag_70:\n        /* \"#utility.yul\":4659:4665   */\n      0x00\n        /* \"#utility.yul\":4710:4712   */\n      0x1f\n        /* \"#utility.yul\":4706:4713   */\n      not\n        /* \"#utility.yul\":4701:4703   */\n      0x1f\n        /* \"#utility.yul\":4694:4699   */\n      dup4\n        /* \"#utility.yul\":4690:4704   */\n      add\n        /* \"#utility.yul\":4686:4714   */\n      and\n        /* \"#utility.yul\":4676:4714   */\n      swap1\n      pop\n        /* \"#utility.yul\":4618:4720   */\n      swap2\n      swap1\n      pop\n      jump\t// out\n\n    auxdata: 0xa2646970667358221220dfce5f001500b840936ad136db018350844bcd453611e42d4b79526e17da463064736f6c63430008070033\n}\n",
				"bytecode": {
					"linkReferences": {},
					"object": "608060405234801561001057600080fd5b50610397806100206000396000f3fe608060405234801561001057600080fd5b50600436106100365760003560e01c8063bc3fd02f1461003b578063c7ef6bfb14610057575b600080fd5b61005560048036038101906100509190610167565b610087565b005b610071600480360381019061006c9190610167565b6100c1565b60405161007e9190610207565b60405180910390f35b600160008260405161009991906101f0565b908152602001604051809103902060006101000a81548160ff02191690831515021790555050565b6000818051602081018201805184825260208301602085012081835280955050505050506000915054906101000a900460ff1681565b600061010a61010584610247565b610222565b90508281526020810184848401111561012657610125610341565b5b61013184828561029a565b509392505050565b600082601f83011261014e5761014d61033c565b5b813561015e8482602086016100f7565b91505092915050565b60006020828403121561017d5761017c61034b565b5b600082013567ffffffffffffffff81111561019b5761019a610346565b5b6101a784828501610139565b91505092915050565b6101b98161028e565b82525050565b60006101ca82610278565b6101d48185610283565b93506101e48185602086016102a9565b80840191505092915050565b60006101fc82846101bf565b915081905092915050565b600060208201905061021c60008301846101b0565b92915050565b600061022c61023d565b905061023882826102dc565b919050565b6000604051905090565b600067ffffffffffffffff8211156102625761026161030d565b5b61026b82610350565b9050602081019050919050565b600081519050919050565b600081905092915050565b60008115159050919050565b82818337600083830152505050565b60005b838110156102c75780820151818401526020810190506102ac565b838111156102d6576000848401525b50505050565b6102e582610350565b810181811067ffffffffffffffff821117156103045761030361030d565b5b80604052505050565b7f4e487b7100000000000000000000000000000000000000000000000000000000600052604160045260246000fd5b600080fd5b600080fd5b600080fd5b600080fd5b6000601f19601f830116905091905056fea2646970667358221220dfce5f001500b840936ad136db018350844bcd453611e42d4b79526e17da463064736f6c63430008070033",
					"opcodes": "PUSH1 0x80 PUSH1 0x40 MSTORE CALLVALUE DUP1 ISZERO PUSH2 0x10 JUMPI PUSH1 0x0 DUP1 REVERT JUMPDEST POP PUSH2 0x397 DUP1 PUSH2 0x20 PUSH1 0x0 CODECOPY PUSH1 0x0 RETURN INVALID PUSH1 0x80 PUSH1 0x40 MSTORE CALLVALUE DUP1 ISZERO PUSH2 0x10 JUMPI PUSH1 0x0 DUP1 REVERT JUMPDEST POP PUSH1 0x4 CALLDATASIZE LT PUSH2 0x36 JUMPI PUSH1 0x0 CALLDATALOAD PUSH1 0xE0 SHR DUP1 PUSH4 0xBC3FD02F EQ PUSH2 0x3B JUMPI DUP1 PUSH4 0xC7EF6BFB EQ PUSH2 0x57 JUMPI JUMPDEST PUSH1 0x0 DUP1 REVERT JUMPDEST PUSH2 0x55 PUSH1 0x4 DUP1 CALLDATASIZE SUB DUP2 ADD SWAP1 PUSH2 0x50 SWAP2 SWAP1 PUSH2 0x167 JUMP JUMPDEST PUSH2 0x87 JUMP JUMPDEST STOP JUMPDEST PUSH2 0x71 PUSH1 0x4 DUP1 CALLDATASIZE SUB DUP2 ADD SWAP1 PUSH2 0x6C SWAP2 SWAP1 PUSH2 0x167 JUMP JUMPDEST PUSH2 0xC1 JUMP JUMPDEST PUSH1 0x40 MLOAD PUSH2 0x7E SWAP2 SWAP1 PUSH2 0x207 JUMP JUMPDEST PUSH1 0x40 MLOAD DUP1 SWAP2 SUB SWAP1 RETURN JUMPDEST PUSH1 0x1 PUSH1 0x0 DUP3 PUSH1 0x40 MLOAD PUSH2 0x99 SWAP2 SWAP1 PUSH2 0x1F0 JUMP JUMPDEST SWAP1 DUP2 MSTORE PUSH1 0x20 ADD PUSH1 0x40 MLOAD DUP1 SWAP2 SUB SWAP1 KECCAK256 PUSH1 0x0 PUSH2 0x100 EXP DUP2 SLOAD DUP2 PUSH1 0xFF MUL NOT AND SWAP1 DUP4 ISZERO ISZERO MUL OR SWAP1 SSTORE POP POP JUMP JUMPDEST PUSH1 0x0 DUP2 DUP1 MLOAD PUSH1 0x20 DUP2 ADD DUP3 ADD DUP1 MLOAD DUP5 DUP3 MSTORE PUSH1 0x20 DUP4 ADD PUSH1 0x20 DUP6 ADD KECCAK256 DUP2 DUP4 MSTORE DUP1 SWAP6 POP POP POP POP POP POP PUSH1 0x0 SWAP2 POP SLOAD SWAP1 PUSH2 0x100 EXP SWAP1 DIV PUSH1 0xFF AND DUP2 JUMP JUMPDEST PUSH1 0x0 PUSH2 0x10A PUSH2 0x105 DUP5 PUSH2 0x247 JUMP JUMPDEST PUSH2 0x222 JUMP JUMPDEST SWAP1 POP DUP3 DUP2 MSTORE PUSH1 0x20 DUP2 ADD DUP5 DUP5 DUP5 ADD GT ISZERO PUSH2 0x126 JUMPI PUSH2 0x125 PUSH2 0x341 JUMP JUMPDEST JUMPDEST PUSH2 0x131 DUP5 DUP3 DUP6 PUSH2 0x29A JUMP JUMPDEST POP SWAP4 SWAP3 POP POP POP JUMP JUMPDEST PUSH1 0x0 DUP3 PUSH1 0x1F DUP4 ADD SLT PUSH2 0x14E JUMPI PUSH2 0x14D PUSH2 0x33C JUMP JUMPDEST JUMPDEST DUP2 CALLDATALOAD PUSH2 0x15E DUP5 DUP3 PUSH1 0x20 DUP7 ADD PUSH2 0xF7 JUMP JUMPDEST SWAP2 POP POP SWAP3 SWAP2 POP POP JUMP JUMPDEST PUSH1 0x0 PUSH1 0x20 DUP3 DUP5 SUB SLT ISZERO PUSH2 0x17D JUMPI PUSH2 0x17C PUSH2 0x34B JUMP JUMPDEST JUMPDEST PUSH1 0x0 DUP3 ADD CALLDATALOAD PUSH8 0xFFFFFFFFFFFFFFFF DUP2 GT ISZERO PUSH2 0x19B JUMPI PUSH2 0x19A PUSH2 0x346 JUMP JUMPDEST JUMPDEST PUSH2 0x1A7 DUP5 DUP3 DUP6 ADD PUSH2 0x139 JUMP JUMPDEST SWAP2 POP POP SWAP3 SWAP2 POP POP JUMP JUMPDEST PUSH2 0x1B9 DUP2 PUSH2 0x28E JUMP JUMPDEST DUP3 MSTORE POP POP JUMP JUMPDEST PUSH1 0x0 PUSH2 0x1CA DUP3 PUSH2 0x278 JUMP JUMPDEST PUSH2 0x1D4 DUP2 DUP6 PUSH2 0x283 JUMP JUMPDEST SWAP4 POP PUSH2 0x1E4 DUP2 DUP6 PUSH1 0x20 DUP7 ADD PUSH2 0x2A9 JUMP JUMPDEST DUP1 DUP5 ADD SWAP2 POP POP SWAP3 SWAP2 POP POP JUMP JUMPDEST PUSH1 0x0 PUSH2 0x1FC DUP3 DUP5 PUSH2 0x1BF JUMP JUMPDEST SWAP2 POP DUP2 SWAP1 POP SWAP3 SWAP2 POP POP JUMP JUMPDEST PUSH1 0x0 PUSH1 0x20 DUP3 ADD SWAP1 POP PUSH2 0x21C PUSH1 0x0 DUP4 ADD DUP5 PUSH2 0x1B0 JUMP JUMPDEST SWAP3 SWAP2 POP POP JUMP JUMPDEST PUSH1 0x0 PUSH2 0x22C PUSH2 0x23D JUMP JUMPDEST SWAP1 POP PUSH2 0x238 DUP3 DUP3 PUSH2 0x2DC JUMP JUMPDEST SWAP2 SWAP1 POP JUMP JUMPDEST PUSH1 0x0 PUSH1 0x40 MLOAD SWAP1 POP SWAP1 JUMP JUMPDEST PUSH1 0x0 PUSH8 0xFFFFFFFFFFFFFFFF DUP3 GT ISZERO PUSH2 0x262 JUMPI PUSH2 0x261 PUSH2 0x30D JUMP JUMPDEST JUMPDEST PUSH2 0x26B DUP3 PUSH2 0x350 JUMP JUMPDEST SWAP1 POP PUSH1 0x20 DUP2 ADD SWAP1 POP SWAP2 SWAP1 POP JUMP JUMPDEST PUSH1 0x0 DUP2 MLOAD SWAP1 POP SWAP2 SWAP1 POP JUMP JUMPDEST PUSH1 0x0 DUP2 SWAP1 POP SWAP3 SWAP2 POP POP JUMP JUMPDEST PUSH1 0x0 DUP2 ISZERO ISZERO SWAP1 POP SWAP2 SWAP1 POP JUMP JUMPDEST DUP3 DUP2 DUP4 CALLDATACOPY PUSH1 0x0 DUP4 DUP4 ADD MSTORE POP POP POP JUMP JUMPDEST PUSH1 0x0 JUMPDEST DUP4 DUP2 LT ISZERO PUSH2 0x2C7 JUMPI DUP1 DUP3 ADD MLOAD DUP2 DUP5 ADD MSTORE PUSH1 0x20 DUP2 ADD SWAP1 POP PUSH2 0x2AC JUMP JUMPDEST DUP4 DUP2 GT ISZERO PUSH2 0x2D6 JUMPI PUSH1 0x0 DUP5 DUP5 ADD MSTORE JUMPDEST POP POP POP POP JUMP JUMPDEST PUSH2 0x2E5 DUP3 PUSH2 0x350 JUMP JUMPDEST DUP2 ADD DUP2 DUP2 LT PUSH8 0xFFFFFFFFFFFFFFFF DUP3 GT OR ISZERO PUSH2 0x304 JUMPI PUSH2 0x303 PUSH2 0x30D JUMP JUMPDEST JUMPDEST DUP1 PUSH1 0x40 MSTORE POP POP POP JUMP JUMPDEST PUSH32 0x4E487B7100000000000000000000000000000000000000000000000000000000 PUSH1 0x0 MSTORE PUSH1 0x41 PUSH1 0x4 MSTORE PUSH1 0x24 PUSH1 0x0 REVERT JUMPDEST PUSH1 0x0 DUP1 REVERT JUMPDEST PUSH1 0x0 DUP1 REVERT JUMPDEST PUSH1 0x0 DUP1 REVERT JUMPDEST PUSH1 0x0 DUP1 REVERT JUMPDEST PUSH1 0x0 PUSH1 0x1F NOT PUSH1 0x1F DUP4 ADD AND SWAP1 POP SWAP2 SWAP1 POP JUMP INVALID LOG2 PUSH5 0x6970667358 0x22 SLT KECCAK256 0xDF 0xCE 0x5F STOP ISZERO STOP 0xB8 BLOCKHASH SWAP4 PUSH11 0xD136DB018350844BCD4536 GT 0xE4 0x2D 0x4B PUSH26 0x526E17DA463064736F6C63430008070033000000000000000000 "
				},
				"gasEstimates": {
					"creation": {
						"codeDepositCost": "183800",
						"executionCost": "226",
						"totalCost": "184026"
					},
					"external": {
						"recordName(string)": "infinite",
						"students(string)": "infinite"
					}
				},
				"methodIdentifiers": {
					"recordName(string)": "bc3fd02f",
					"students(string)": "c7ef6bfb"
				}
			},
			"storageLayout": {
				"storage": [
					{
						"astId": 32,
						"contract": "training/contracts/Interfaces.sol:B",
						"label": "students",
						"offset": 0,
						"slot": "0",
						"type": "t_mapping(t_string_memory_ptr,t_bool)"
					}
				],
				"types": {
					"t_bool": {
						"encoding": "inplace",
						"label": "bool",
						"numberOfBytes": "1"
					},
					"t_mapping(t_string_memory_ptr,t_bool)": {
						"encoding": "mapping",
						"key": "t_string_memory_ptr",
						"label": "mapping(string => bool)",
						"numberOfBytes": "32",
						"value": "t_bool"
					},
					"t_string_memory_ptr": {
						"encoding": "bytes",
						"label": "string",
						"numberOfBytes": "32"
					}
				}
			},
			"userdoc": {
				"kind": "user",
				"methods": {},
				"version": 1
			}
		}
	}
}