{
	"training/contracts/Polymorfizm.sol": {
		"Poly": {
			"abi": [
				{
					"inputs": [
						{
							"internalType": "string",
							"name": "a",
							"type": "string"
						}
					],
					"name": "sum",
					"outputs": [
						{
							"internalType": "int256",
							"name": "",
							"type": "int256"
						}
					],
					"stateMutability": "pure",
					"type": "function"
				},
				{
					"inputs": [
						{
							"internalType": "int256",
							"name": "a",
							"type": "int256"
						},
						{
							"internalType": "int256",
							"name": "b",
							"type": "int256"
						}
					],
					"name": "sum",
					"outputs": [
						{
							"internalType": "int256",
							"name": "",
							"type": "int256"
						}
					],
					"stateMutability": "pure",
					"type": "function"
				},
				{
					"inputs": [
						{
							"internalType": "int256",
							"name": "a",
							"type": "int256"
						},
						{
							"internalType": "int256",
							"name": "b",
							"type": "int256"
						},
						{
							"internalType": "int256",
							"name": "c",
							"type": "int256"
						}
					],
					"name": "sum",
					"outputs": [
						{
							"internalType": "int256",
							"name": "",
							"type": "int256"
						}
					],
					"stateMutability": "pure",
					"type": "function"
				}
			],
			"devdoc": {
				"kind": "dev",
				"methods": {},
				"version": 1
			},
			"evm": {
				"assembly": "    /* \"training/contracts/Polymorfizm.sol\":33:302  contract Poly{... */\n  mstore(0x40, 0x80)\n  callvalue\n  dup1\n  iszero\n  tag_1\n  jumpi\n  0x00\n  dup1\n  revert\ntag_1:\n  pop\n  dataSize(sub_0)\n  dup1\n  dataOffset(sub_0)\n  0x00\n  codecopy\n  0x00\n  return\nstop\n\nsub_0: assembly {\n        /* \"training/contracts/Polymorfizm.sol\":33:302  contract Poly{... */\n      mstore(0x40, 0x80)\n      callvalue\n      dup1\n      iszero\n      tag_1\n      jumpi\n      0x00\n      dup1\n      revert\n    tag_1:\n      pop\n      jumpi(tag_2, lt(calldatasize, 0x04))\n      shr(0xe0, calldataload(0x00))\n      dup1\n      0x8885353b\n      eq\n      tag_3\n      jumpi\n      dup1\n      0x9967062d\n      eq\n      tag_4\n      jumpi\n      dup1\n      0xa7e04671\n      eq\n      tag_5\n      jumpi\n    tag_2:\n      0x00\n      dup1\n      revert\n        /* \"training/contracts/Polymorfizm.sol\":229:299  function sum(string memory a) public pure returns(int){... */\n    tag_3:\n      tag_6\n      0x04\n      dup1\n      calldatasize\n      sub\n      dup2\n      add\n      swap1\n      tag_7\n      swap2\n      swap1\n      tag_8\n      jump\t// in\n    tag_7:\n      tag_9\n      jump\t// in\n    tag_6:\n      mload(0x40)\n      tag_10\n      swap2\n      swap1\n      tag_11\n      jump\t// in\n    tag_10:\n      mload(0x40)\n      dup1\n      swap2\n      sub\n      swap1\n      return\n        /* \"training/contracts/Polymorfizm.sol\":52:130  function sum(int a, int b) public pure returns(int){... */\n    tag_4:\n      tag_12\n      0x04\n      dup1\n      calldatasize\n      sub\n      dup2\n      add\n      swap1\n      tag_13\n      swap2\n      swap1\n      tag_14\n      jump\t// in\n    tag_13:\n      tag_15\n      jump\t// in\n    tag_12:\n      mload(0x40)\n      tag_16\n      swap2\n      swap1\n      tag_11\n      jump\t// in\n    tag_16:\n      mload(0x40)\n      dup1\n      swap2\n      sub\n      swap1\n      return\n        /* \"training/contracts/Polymorfizm.sol\":136:223  function sum(int a, int b, int c) public pure returns(int){... */\n    tag_5:\n      tag_17\n      0x04\n      dup1\n      calldatasize\n      sub\n      dup2\n      add\n      swap1\n      tag_18\n      swap2\n      swap1\n      tag_19\n      jump\t// in\n    tag_18:\n      tag_20\n      jump\t// in\n    tag_17:\n      mload(0x40)\n      tag_21\n      swap2\n      swap1\n      tag_11\n      jump\t// in\n    tag_21:\n      mload(0x40)\n      dup1\n      swap2\n      sub\n      swap1\n      return\n        /* \"training/contracts/Polymorfizm.sol\":229:299  function sum(string memory a) public pure returns(int){... */\n    tag_9:\n        /* \"training/contracts/Polymorfizm.sol\":279:282  int */\n      0x00\n        /* \"training/contracts/Polymorfizm.sol\":229:299  function sum(string memory a) public pure returns(int){... */\n      swap2\n      swap1\n      pop\n      jump\t// out\n        /* \"training/contracts/Polymorfizm.sol\":52:130  function sum(int a, int b) public pure returns(int){... */\n    tag_15:\n        /* \"training/contracts/Polymorfizm.sol\":99:102  int */\n      0x00\n        /* \"training/contracts/Polymorfizm.sol\":122:123  b */\n      dup2\n        /* \"training/contracts/Polymorfizm.sol\":120:121  a */\n      dup4\n        /* \"training/contracts/Polymorfizm.sol\":120:123  a+b */\n      tag_24\n      swap2\n      swap1\n      tag_25\n      jump\t// in\n    tag_24:\n        /* \"training/contracts/Polymorfizm.sol\":113:123  return a+b */\n      swap1\n      pop\n        /* \"training/contracts/Polymorfizm.sol\":52:130  function sum(int a, int b) public pure returns(int){... */\n      swap3\n      swap2\n      pop\n      pop\n      jump\t// out\n        /* \"training/contracts/Polymorfizm.sol\":136:223  function sum(int a, int b, int c) public pure returns(int){... */\n    tag_20:\n        /* \"training/contracts/Polymorfizm.sol\":190:193  int */\n      0x00\n        /* \"training/contracts/Polymorfizm.sol\":215:216  c */\n      dup2\n        /* \"training/contracts/Polymorfizm.sol\":213:214  b */\n      dup4\n        /* \"training/contracts/Polymorfizm.sol\":211:212  a */\n      dup6\n        /* \"training/contracts/Polymorfizm.sol\":211:214  a+b */\n      tag_27\n      swap2\n      swap1\n      tag_25\n      jump\t// in\n    tag_27:\n        /* \"training/contracts/Polymorfizm.sol\":211:216  a+b+c */\n      tag_28\n      swap2\n      swap1\n      tag_25\n      jump\t// in\n    tag_28:\n        /* \"training/contracts/Polymorfizm.sol\":204:216  return a+b+c */\n      swap1\n      pop\n        /* \"training/contracts/Polymorfizm.sol\":136:223  function sum(int a, int b, int c) public pure returns(int){... */\n      swap4\n      swap3\n      pop\n      pop\n      pop\n      jump\t// out\n        /* \"#utility.yul\":7:419   */\n    tag_30:\n        /* \"#utility.yul\":85:90   */\n      0x00\n        /* \"#utility.yul\":110:176   */\n      tag_32\n        /* \"#utility.yul\":126:175   */\n      tag_33\n        /* \"#utility.yul\":168:174   */\n      dup5\n        /* \"#utility.yul\":126:175   */\n      tag_34\n      jump\t// in\n    tag_33:\n        /* \"#utility.yul\":110:176   */\n      tag_35\n      jump\t// in\n    tag_32:\n        /* \"#utility.yul\":101:176   */\n      swap1\n      pop\n        /* \"#utility.yul\":199:205   */\n      dup3\n        /* \"#utility.yul\":192:197   */\n      dup2\n        /* \"#utility.yul\":185:206   */\n      mstore\n        /* \"#utility.yul\":237:241   */\n      0x20\n        /* \"#utility.yul\":230:235   */\n      dup2\n        /* \"#utility.yul\":226:242   */\n      add\n        /* \"#utility.yul\":275:278   */\n      dup5\n        /* \"#utility.yul\":266:272   */\n      dup5\n        /* \"#utility.yul\":261:264   */\n      dup5\n        /* \"#utility.yul\":257:273   */\n      add\n        /* \"#utility.yul\":254:279   */\n      gt\n        /* \"#utility.yul\":251:363   */\n      iszero\n      tag_36\n      jumpi\n        /* \"#utility.yul\":282:361   */\n      tag_37\n      tag_38\n      jump\t// in\n    tag_37:\n        /* \"#utility.yul\":251:363   */\n    tag_36:\n        /* \"#utility.yul\":372:413   */\n      tag_39\n        /* \"#utility.yul\":406:412   */\n      dup5\n        /* \"#utility.yul\":401:404   */\n      dup3\n        /* \"#utility.yul\":396:399   */\n      dup6\n        /* \"#utility.yul\":372:413   */\n      tag_40\n      jump\t// in\n    tag_39:\n        /* \"#utility.yul\":91:419   */\n      pop\n        /* \"#utility.yul\":7:419   */\n      swap4\n      swap3\n      pop\n      pop\n      pop\n      jump\t// out\n        /* \"#utility.yul\":425:562   */\n    tag_41:\n        /* \"#utility.yul\":470:475   */\n      0x00\n        /* \"#utility.yul\":508:514   */\n      dup2\n        /* \"#utility.yul\":495:515   */\n      calldataload\n        /* \"#utility.yul\":486:515   */\n      swap1\n      pop\n        /* \"#utility.yul\":524:556   */\n      tag_43\n        /* \"#utility.yul\":550:555   */\n      dup2\n        /* \"#utility.yul\":524:556   */\n      tag_44\n      jump\t// in\n    tag_43:\n        /* \"#utility.yul\":425:562   */\n      swap3\n      swap2\n      pop\n      pop\n      jump\t// out\n        /* \"#utility.yul\":582:922   */\n    tag_45:\n        /* \"#utility.yul\":638:643   */\n      0x00\n        /* \"#utility.yul\":687:690   */\n      dup3\n        /* \"#utility.yul\":680:684   */\n      0x1f\n        /* \"#utility.yul\":672:678   */\n      dup4\n        /* \"#utility.yul\":668:685   */\n      add\n        /* \"#utility.yul\":664:691   */\n      slt\n        /* \"#utility.yul\":654:776   */\n      tag_47\n      jumpi\n        /* \"#utility.yul\":695:774   */\n      tag_48\n      tag_49\n      jump\t// in\n    tag_48:\n        /* \"#utility.yul\":654:776   */\n    tag_47:\n        /* \"#utility.yul\":812:818   */\n      dup2\n        /* \"#utility.yul\":799:819   */\n      calldataload\n        /* \"#utility.yul\":837:916   */\n      tag_50\n        /* \"#utility.yul\":912:915   */\n      dup5\n        /* \"#utility.yul\":904:910   */\n      dup3\n        /* \"#utility.yul\":897:901   */\n      0x20\n        /* \"#utility.yul\":889:895   */\n      dup7\n        /* \"#utility.yul\":885:902   */\n      add\n        /* \"#utility.yul\":837:916   */\n      tag_30\n      jump\t// in\n    tag_50:\n        /* \"#utility.yul\":828:916   */\n      swap2\n      pop\n        /* \"#utility.yul\":644:922   */\n      pop\n        /* \"#utility.yul\":582:922   */\n      swap3\n      swap2\n      pop\n      pop\n      jump\t// out\n        /* \"#utility.yul\":928:1398   */\n    tag_14:\n        /* \"#utility.yul\":994:1000   */\n      0x00\n        /* \"#utility.yul\":1002:1008   */\n      dup1\n        /* \"#utility.yul\":1051:1053   */\n      0x40\n        /* \"#utility.yul\":1039:1048   */\n      dup4\n        /* \"#utility.yul\":1030:1037   */\n      dup6\n        /* \"#utility.yul\":1026:1049   */\n      sub\n        /* \"#utility.yul\":1022:1054   */\n      slt\n        /* \"#utility.yul\":1019:1138   */\n      iszero\n      tag_52\n      jumpi\n        /* \"#utility.yul\":1057:1136   */\n      tag_53\n      tag_54\n      jump\t// in\n    tag_53:\n        /* \"#utility.yul\":1019:1138   */\n    tag_52:\n        /* \"#utility.yul\":1177:1178   */\n      0x00\n        /* \"#utility.yul\":1202:1254   */\n      tag_55\n        /* \"#utility.yul\":1246:1253   */\n      dup6\n        /* \"#utility.yul\":1237:1243   */\n      dup3\n        /* \"#utility.yul\":1226:1235   */\n      dup7\n        /* \"#utility.yul\":1222:1244   */\n      add\n        /* \"#utility.yul\":1202:1254   */\n      tag_41\n      jump\t// in\n    tag_55:\n        /* \"#utility.yul\":1192:1254   */\n      swap3\n      pop\n        /* \"#utility.yul\":1148:1264   */\n      pop\n        /* \"#utility.yul\":1303:1305   */\n      0x20\n        /* \"#utility.yul\":1329:1381   */\n      tag_56\n        /* \"#utility.yul\":1373:1380   */\n      dup6\n        /* \"#utility.yul\":1364:1370   */\n      dup3\n        /* \"#utility.yul\":1353:1362   */\n      dup7\n        /* \"#utility.yul\":1349:1371   */\n      add\n        /* \"#utility.yul\":1329:1381   */\n      tag_41\n      jump\t// in\n    tag_56:\n        /* \"#utility.yul\":1319:1381   */\n      swap2\n      pop\n        /* \"#utility.yul\":1274:1391   */\n      pop\n        /* \"#utility.yul\":928:1398   */\n      swap3\n      pop\n      swap3\n      swap1\n      pop\n      jump\t// out\n        /* \"#utility.yul\":1404:2017   */\n    tag_19:\n        /* \"#utility.yul\":1478:1484   */\n      0x00\n        /* \"#utility.yul\":1486:1492   */\n      dup1\n        /* \"#utility.yul\":1494:1500   */\n      0x00\n        /* \"#utility.yul\":1543:1545   */\n      0x60\n        /* \"#utility.yul\":1531:1540   */\n      dup5\n        /* \"#utility.yul\":1522:1529   */\n      dup7\n        /* \"#utility.yul\":1518:1541   */\n      sub\n        /* \"#utility.yul\":1514:1546   */\n      slt\n        /* \"#utility.yul\":1511:1630   */\n      iszero\n      tag_58\n      jumpi\n        /* \"#utility.yul\":1549:1628   */\n      tag_59\n      tag_54\n      jump\t// in\n    tag_59:\n        /* \"#utility.yul\":1511:1630   */\n    tag_58:\n        /* \"#utility.yul\":1669:1670   */\n      0x00\n        /* \"#utility.yul\":1694:1746   */\n      tag_60\n        /* \"#utility.yul\":1738:1745   */\n      dup7\n        /* \"#utility.yul\":1729:1735   */\n      dup3\n        /* \"#utility.yul\":1718:1727   */\n      dup8\n        /* \"#utility.yul\":1714:1736   */\n      add\n        /* \"#utility.yul\":1694:1746   */\n      tag_41\n      jump\t// in\n    tag_60:\n        /* \"#utility.yul\":1684:1746   */\n      swap4\n      pop\n        /* \"#utility.yul\":1640:1756   */\n      pop\n        /* \"#utility.yul\":1795:1797   */\n      0x20\n        /* \"#utility.yul\":1821:1873   */\n      tag_61\n        /* \"#utility.yul\":1865:1872   */\n      dup7\n        /* \"#utility.yul\":1856:1862   */\n      dup3\n        /* \"#utility.yul\":1845:1854   */\n      dup8\n        /* \"#utility.yul\":1841:1863   */\n      add\n        /* \"#utility.yul\":1821:1873   */\n      tag_41\n      jump\t// in\n    tag_61:\n        /* \"#utility.yul\":1811:1873   */\n      swap3\n      pop\n        /* \"#utility.yul\":1766:1883   */\n      pop\n        /* \"#utility.yul\":1922:1924   */\n      0x40\n        /* \"#utility.yul\":1948:2000   */\n      tag_62\n        /* \"#utility.yul\":1992:1999   */\n      dup7\n        /* \"#utility.yul\":1983:1989   */\n      dup3\n        /* \"#utility.yul\":1972:1981   */\n      dup8\n        /* \"#utility.yul\":1968:1990   */\n      add\n        /* \"#utility.yul\":1948:2000   */\n      tag_41\n      jump\t// in\n    tag_62:\n        /* \"#utility.yul\":1938:2000   */\n      swap2\n      pop\n        /* \"#utility.yul\":1893:2010   */\n      pop\n        /* \"#utility.yul\":1404:2017   */\n      swap3\n      pop\n      swap3\n      pop\n      swap3\n      jump\t// out\n        /* \"#utility.yul\":2023:2532   */\n    tag_8:\n        /* \"#utility.yul\":2092:2098   */\n      0x00\n        /* \"#utility.yul\":2141:2143   */\n      0x20\n        /* \"#utility.yul\":2129:2138   */\n      dup3\n        /* \"#utility.yul\":2120:2127   */\n      dup5\n        /* \"#utility.yul\":2116:2139   */\n      sub\n        /* \"#utility.yul\":2112:2144   */\n      slt\n        /* \"#utility.yul\":2109:2228   */\n      iszero\n      tag_64\n      jumpi\n        /* \"#utility.yul\":2147:2226   */\n      tag_65\n      tag_54\n      jump\t// in\n    tag_65:\n        /* \"#utility.yul\":2109:2228   */\n    tag_64:\n        /* \"#utility.yul\":2295:2296   */\n      0x00\n        /* \"#utility.yul\":2284:2293   */\n      dup3\n        /* \"#utility.yul\":2280:2297   */\n      add\n        /* \"#utility.yul\":2267:2298   */\n      calldataload\n        /* \"#utility.yul\":2325:2343   */\n      0xffffffffffffffff\n        /* \"#utility.yul\":2317:2323   */\n      dup2\n        /* \"#utility.yul\":2314:2344   */\n      gt\n        /* \"#utility.yul\":2311:2428   */\n      iszero\n      tag_66\n      jumpi\n        /* \"#utility.yul\":2347:2426   */\n      tag_67\n      tag_68\n      jump\t// in\n    tag_67:\n        /* \"#utility.yul\":2311:2428   */\n    tag_66:\n        /* \"#utility.yul\":2452:2515   */\n      tag_69\n        /* \"#utility.yul\":2507:2514   */\n      dup5\n        /* \"#utility.yul\":2498:2504   */\n      dup3\n        /* \"#utility.yul\":2487:2496   */\n      dup6\n        /* \"#utility.yul\":2483:2505   */\n      add\n        /* \"#utility.yul\":2452:2515   */\n      tag_45\n      jump\t// in\n    tag_69:\n        /* \"#utility.yul\":2442:2515   */\n      swap2\n      pop\n        /* \"#utility.yul\":2238:2525   */\n      pop\n        /* \"#utility.yul\":2023:2532   */\n      swap3\n      swap2\n      pop\n      pop\n      jump\t// out\n        /* \"#utility.yul\":2538:2653   */\n    tag_70:\n        /* \"#utility.yul\":2623:2646   */\n      tag_72\n        /* \"#utility.yul\":2640:2645   */\n      dup2\n        /* \"#utility.yul\":2623:2646   */\n      tag_73\n      jump\t// in\n    tag_72:\n        /* \"#utility.yul\":2618:2621   */\n      dup3\n        /* \"#utility.yul\":2611:2647   */\n      mstore\n        /* \"#utility.yul\":2538:2653   */\n      pop\n      pop\n      jump\t// out\n        /* \"#utility.yul\":2659:2877   */\n    tag_11:\n        /* \"#utility.yul\":2750:2754   */\n      0x00\n        /* \"#utility.yul\":2788:2790   */\n      0x20\n        /* \"#utility.yul\":2777:2786   */\n      dup3\n        /* \"#utility.yul\":2773:2791   */\n      add\n        /* \"#utility.yul\":2765:2791   */\n      swap1\n      pop\n        /* \"#utility.yul\":2801:2870   */\n      tag_75\n        /* \"#utility.yul\":2867:2868   */\n      0x00\n        /* \"#utility.yul\":2856:2865   */\n      dup4\n        /* \"#utility.yul\":2852:2869   */\n      add\n        /* \"#utility.yul\":2843:2849   */\n      dup5\n        /* \"#utility.yul\":2801:2870   */\n      tag_70\n      jump\t// in\n    tag_75:\n        /* \"#utility.yul\":2659:2877   */\n      swap3\n      swap2\n      pop\n      pop\n      jump\t// out\n        /* \"#utility.yul\":2883:3012   */\n    tag_35:\n        /* \"#utility.yul\":2917:2923   */\n      0x00\n        /* \"#utility.yul\":2944:2964   */\n      tag_77\n      tag_78\n      jump\t// in\n    tag_77:\n        /* \"#utility.yul\":2934:2964   */\n      swap1\n      pop\n        /* \"#utility.yul\":2973:3006   */\n      tag_79\n        /* \"#utility.yul\":3001:3005   */\n      dup3\n        /* \"#utility.yul\":2993:2999   */\n      dup3\n        /* \"#utility.yul\":2973:3006   */\n      tag_80\n      jump\t// in\n    tag_79:\n        /* \"#utility.yul\":2883:3012   */\n      swap2\n      swap1\n      pop\n      jump\t// out\n        /* \"#utility.yul\":3018:3093   */\n    tag_78:\n        /* \"#utility.yul\":3051:3057   */\n      0x00\n        /* \"#utility.yul\":3084:3086   */\n      0x40\n        /* \"#utility.yul\":3078:3087   */\n      mload\n        /* \"#utility.yul\":3068:3087   */\n      swap1\n      pop\n        /* \"#utility.yul\":3018:3093   */\n      swap1\n      jump\t// out\n        /* \"#utility.yul\":3099:3407   */\n    tag_34:\n        /* \"#utility.yul\":3161:3165   */\n      0x00\n        /* \"#utility.yul\":3251:3269   */\n      0xffffffffffffffff\n        /* \"#utility.yul\":3243:3249   */\n      dup3\n        /* \"#utility.yul\":3240:3270   */\n      gt\n        /* \"#utility.yul\":3237:3293   */\n      iszero\n      tag_83\n      jumpi\n        /* \"#utility.yul\":3273:3291   */\n      tag_84\n      tag_85\n      jump\t// in\n    tag_84:\n        /* \"#utility.yul\":3237:3293   */\n    tag_83:\n        /* \"#utility.yul\":3311:3340   */\n      tag_86\n        /* \"#utility.yul\":3333:3339   */\n      dup3\n        /* \"#utility.yul\":3311:3340   */\n      tag_87\n      jump\t// in\n    tag_86:\n        /* \"#utility.yul\":3303:3340   */\n      swap1\n      pop\n        /* \"#utility.yul\":3395:3399   */\n      0x20\n        /* \"#utility.yul\":3389:3393   */\n      dup2\n        /* \"#utility.yul\":3385:3400   */\n      add\n        /* \"#utility.yul\":3377:3400   */\n      swap1\n      pop\n        /* \"#utility.yul\":3099:3407   */\n      swap2\n      swap1\n      pop\n      jump\t// out\n        /* \"#utility.yul\":3413:3938   */\n    tag_25:\n        /* \"#utility.yul\":3452:3455   */\n      0x00\n        /* \"#utility.yul\":3471:3490   */\n      tag_89\n        /* \"#utility.yul\":3488:3489   */\n      dup3\n        /* \"#utility.yul\":3471:3490   */\n      tag_73\n      jump\t// in\n    tag_89:\n        /* \"#utility.yul\":3466:3490   */\n      swap2\n      pop\n        /* \"#utility.yul\":3504:3523   */\n      tag_90\n        /* \"#utility.yul\":3521:3522   */\n      dup4\n        /* \"#utility.yul\":3504:3523   */\n      tag_73\n      jump\t// in\n    tag_90:\n        /* \"#utility.yul\":3499:3523   */\n      swap3\n      pop\n        /* \"#utility.yul\":3692:3693   */\n      dup2\n        /* \"#utility.yul\":3624:3690   */\n      0x7fffffffffffffffffffffffffffffffffffffffffffffffffffffffffffffff\n        /* \"#utility.yul\":3620:3694   */\n      sub\n        /* \"#utility.yul\":3617:3618   */\n      dup4\n        /* \"#utility.yul\":3613:3695   */\n      sgt\n        /* \"#utility.yul\":3608:3609   */\n      0x00\n        /* \"#utility.yul\":3605:3606   */\n      dup4\n        /* \"#utility.yul\":3601:3610   */\n      slt\n        /* \"#utility.yul\":3594:3611   */\n      iszero\n        /* \"#utility.yul\":3590:3696   */\n      and\n        /* \"#utility.yul\":3587:3719   */\n      iszero\n      tag_91\n      jumpi\n        /* \"#utility.yul\":3699:3717   */\n      tag_92\n      tag_93\n      jump\t// in\n    tag_92:\n        /* \"#utility.yul\":3587:3719   */\n    tag_91:\n        /* \"#utility.yul\":3879:3880   */\n      dup2\n        /* \"#utility.yul\":3811:3877   */\n      0x8000000000000000000000000000000000000000000000000000000000000000\n        /* \"#utility.yul\":3807:3881   */\n      sub\n        /* \"#utility.yul\":3804:3805   */\n      dup4\n        /* \"#utility.yul\":3800:3882   */\n      slt\n        /* \"#utility.yul\":3796:3797   */\n      0x00\n        /* \"#utility.yul\":3793:3794   */\n      dup4\n        /* \"#utility.yul\":3789:3798   */\n      slt\n        /* \"#utility.yul\":3785:3883   */\n      and\n        /* \"#utility.yul\":3782:3906   */\n      iszero\n      tag_94\n      jumpi\n        /* \"#utility.yul\":3886:3904   */\n      tag_95\n      tag_93\n      jump\t// in\n    tag_95:\n        /* \"#utility.yul\":3782:3906   */\n    tag_94:\n        /* \"#utility.yul\":3930:3931   */\n      dup3\n        /* \"#utility.yul\":3927:3928   */\n      dup3\n        /* \"#utility.yul\":3923:3932   */\n      add\n        /* \"#utility.yul\":3916:3932   */\n      swap1\n      pop\n        /* \"#utility.yul\":3413:3938   */\n      swap3\n      swap2\n      pop\n      pop\n      jump\t// out\n        /* \"#utility.yul\":3944:4020   */\n    tag_73:\n        /* \"#utility.yul\":3980:3987   */\n      0x00\n        /* \"#utility.yul\":4009:4014   */\n      dup2\n        /* \"#utility.yul\":3998:4014   */\n      swap1\n      pop\n        /* \"#utility.yul\":3944:4020   */\n      swap2\n      swap1\n      pop\n      jump\t// out\n        /* \"#utility.yul\":4026:4180   */\n    tag_40:\n        /* \"#utility.yul\":4110:4116   */\n      dup3\n        /* \"#utility.yul\":4105:4108   */\n      dup2\n        /* \"#utility.yul\":4100:4103   */\n      dup4\n        /* \"#utility.yul\":4087:4117   */\n      calldatacopy\n        /* \"#utility.yul\":4172:4173   */\n      0x00\n        /* \"#utility.yul\":4163:4169   */\n      dup4\n        /* \"#utility.yul\":4158:4161   */\n      dup4\n        /* \"#utility.yul\":4154:4170   */\n      add\n        /* \"#utility.yul\":4147:4174   */\n      mstore\n        /* \"#utility.yul\":4026:4180   */\n      pop\n      pop\n      pop\n      jump\t// out\n        /* \"#utility.yul\":4186:4467   */\n    tag_80:\n        /* \"#utility.yul\":4269:4296   */\n      tag_99\n        /* \"#utility.yul\":4291:4295   */\n      dup3\n        /* \"#utility.yul\":4269:4296   */\n      tag_87\n      jump\t// in\n    tag_99:\n        /* \"#utility.yul\":4261:4267   */\n      dup2\n        /* \"#utility.yul\":4257:4297   */\n      add\n        /* \"#utility.yul\":4399:4405   */\n      dup2\n        /* \"#utility.yul\":4387:4397   */\n      dup2\n        /* \"#utility.yul\":4384:4406   */\n      lt\n        /* \"#utility.yul\":4363:4381   */\n      0xffffffffffffffff\n        /* \"#utility.yul\":4351:4361   */\n      dup3\n        /* \"#utility.yul\":4348:4382   */\n      gt\n        /* \"#utility.yul\":4345:4407   */\n      or\n        /* \"#utility.yul\":4342:4430   */\n      iszero\n      tag_100\n      jumpi\n        /* \"#utility.yul\":4410:4428   */\n      tag_101\n      tag_85\n      jump\t// in\n    tag_101:\n        /* \"#utility.yul\":4342:4430   */\n    tag_100:\n        /* \"#utility.yul\":4450:4460   */\n      dup1\n        /* \"#utility.yul\":4446:4448   */\n      0x40\n        /* \"#utility.yul\":4439:4461   */\n      mstore\n        /* \"#utility.yul\":4229:4467   */\n      pop\n        /* \"#utility.yul\":4186:4467   */\n      pop\n      pop\n      jump\t// out\n        /* \"#utility.yul\":4473:4653   */\n    tag_93:\n        /* \"#utility.yul\":4521:4598   */\n      0x4e487b7100000000000000000000000000000000000000000000000000000000\n        /* \"#utility.yul\":4518:4519   */\n      0x00\n        /* \"#utility.yul\":4511:4599   */\n      mstore\n        /* \"#utility.yul\":4618:4622   */\n      0x11\n        /* \"#utility.yul\":4615:4616   */\n      0x04\n        /* \"#utility.yul\":4608:4623   */\n      mstore\n        /* \"#utility.yul\":4642:4646   */\n      0x24\n        /* \"#utility.yul\":4639:4640   */\n      0x00\n        /* \"#utility.yul\":4632:4647   */\n      revert\n        /* \"#utility.yul\":4659:4839   */\n    tag_85:\n        /* \"#utility.yul\":4707:4784   */\n      0x4e487b7100000000000000000000000000000000000000000000000000000000\n        /* \"#utility.yul\":4704:4705   */\n      0x00\n        /* \"#utility.yul\":4697:4785   */\n      mstore\n        /* \"#utility.yul\":4804:4808   */\n      0x41\n        /* \"#utility.yul\":4801:4802   */\n      0x04\n        /* \"#utility.yul\":4794:4809   */\n      mstore\n        /* \"#utility.yul\":4828:4832   */\n      0x24\n        /* \"#utility.yul\":4825:4826   */\n      0x00\n        /* \"#utility.yul\":4818:4833   */\n      revert\n        /* \"#utility.yul\":4845:4962   */\n    tag_49:\n        /* \"#utility.yul\":4954:4955   */\n      0x00\n        /* \"#utility.yul\":4951:4952   */\n      dup1\n        /* \"#utility.yul\":4944:4956   */\n      revert\n        /* \"#utility.yul\":4968:5085   */\n    tag_38:\n        /* \"#utility.yul\":5077:5078   */\n      0x00\n        /* \"#utility.yul\":5074:5075   */\n      dup1\n        /* \"#utility.yul\":5067:5079   */\n      revert\n        /* \"#utility.yul\":5091:5208   */\n    tag_68:\n        /* \"#utility.yul\":5200:5201   */\n      0x00\n        /* \"#utility.yul\":5197:5198   */\n      dup1\n        /* \"#utility.yul\":5190:5202   */\n      revert\n        /* \"#utility.yul\":5214:5331   */\n    tag_54:\n        /* \"#utility.yul\":5323:5324   */\n      0x00\n        /* \"#utility.yul\":5320:5321   */\n      dup1\n        /* \"#utility.yul\":5313:5325   */\n      revert\n        /* \"#utility.yul\":5337:5439   */\n    tag_87:\n        /* \"#utility.yul\":5378:5384   */\n      0x00\n        /* \"#utility.yul\":5429:5431   */\n      0x1f\n        /* \"#utility.yul\":5425:5432   */\n      not\n        /* \"#utility.yul\":5420:5422   */\n      0x1f\n        /* \"#utility.yul\":5413:5418   */\n      dup4\n        /* \"#utility.yul\":5409:5423   */\n      add\n        /* \"#utility.yul\":5405:5433   */\n      and\n        /* \"#utility.yul\":5395:5433   */\n      swap1\n      pop\n        /* \"#utility.yul\":5337:5439   */\n      swap2\n      swap1\n      pop\n      jump\t// out\n        /* \"#utility.yul\":5445:5565   */\n    tag_44:\n        /* \"#utility.yul\":5517:5540   */\n      tag_110\n        /* \"#utility.yul\":5534:5539   */\n      dup2\n        /* \"#utility.yul\":5517:5540   */\n      tag_73\n      jump\t// in\n    tag_110:\n        /* \"#utility.yul\":5510:5515   */\n      dup2\n        /* \"#utility.yul\":5507:5541   */\n      eq\n        /* \"#utility.yul\":5497:5559   */\n      tag_111\n      jumpi\n        /* \"#utility.yul\":5555:5556   */\n      0x00\n        /* \"#utility.yul\":5552:5553   */\n      dup1\n        /* \"#utility.yul\":5545:5557   */\n      revert\n        /* \"#utility.yul\":5497:5559   */\n    tag_111:\n        /* \"#utility.yul\":5445:5565   */\n      pop\n      jump\t// out\n\n    auxdata: 0xa26469706673582212208e13583b16cbf0e6975cb9eae0d91a1925dd6f2cfa0267c04da9af848dd658ee64736f6c63430008070033\n}\n",
				"bytecode": {
					"linkReferences": {},
					"object": "608060405234801561001057600080fd5b506104a4806100206000396000f3fe608060405234801561001057600080fd5b50600436106100415760003560e01c80638885353b146100465780639967062d14610076578063a7e04671146100a6575b600080fd5b610060600480360381019061005b919061022d565b6100d6565b60405161006d9190610285565b60405180910390f35b610090600480360381019061008b919061019a565b6100dd565b60405161009d9190610285565b60405180910390f35b6100c060048036038101906100bb91906101da565b6100f3565b6040516100cd9190610285565b60405180910390f35b6000919050565b600081836100eb91906102f6565b905092915050565b600081838561010291906102f6565b61010c91906102f6565b90509392505050565b6000610128610123846102c5565b6102a0565b90508281526020810184848401111561014457610143610437565b5b61014f848285610394565b509392505050565b60008135905061016681610457565b92915050565b600082601f83011261018157610180610432565b5b8135610191848260208601610115565b91505092915050565b600080604083850312156101b1576101b0610441565b5b60006101bf85828601610157565b92505060206101d085828601610157565b9150509250929050565b6000806000606084860312156101f3576101f2610441565b5b600061020186828701610157565b935050602061021286828701610157565b925050604061022386828701610157565b9150509250925092565b60006020828403121561024357610242610441565b5b600082013567ffffffffffffffff8111156102615761026061043c565b5b61026d8482850161016c565b91505092915050565b61027f8161038a565b82525050565b600060208201905061029a6000830184610276565b92915050565b60006102aa6102bb565b90506102b682826103a3565b919050565b6000604051905090565b600067ffffffffffffffff8211156102e0576102df610403565b5b6102e982610446565b9050602081019050919050565b60006103018261038a565b915061030c8361038a565b9250817f7fffffffffffffffffffffffffffffffffffffffffffffffffffffffffffffff03831360008312151615610347576103466103d4565b5b817f800000000000000000000000000000000000000000000000000000000000000003831260008312161561037f5761037e6103d4565b5b828201905092915050565b6000819050919050565b82818337600083830152505050565b6103ac82610446565b810181811067ffffffffffffffff821117156103cb576103ca610403565b5b80604052505050565b7f4e487b7100000000000000000000000000000000000000000000000000000000600052601160045260246000fd5b7f4e487b7100000000000000000000000000000000000000000000000000000000600052604160045260246000fd5b600080fd5b600080fd5b600080fd5b600080fd5b6000601f19601f8301169050919050565b6104608161038a565b811461046b57600080fd5b5056fea26469706673582212208e13583b16cbf0e6975cb9eae0d91a1925dd6f2cfa0267c04da9af848dd658ee64736f6c63430008070033",
					"opcodes": "PUSH1 0x80 PUSH1 0x40 MSTORE CALLVALUE DUP1 ISZERO PUSH2 0x10 JUMPI PUSH1 0x0 DUP1 REVERT JUMPDEST POP PUSH2 0x4A4 DUP1 PUSH2 0x20 PUSH1 0x0 CODECOPY PUSH1 0x0 RETURN INVALID PUSH1 0x80 PUSH1 0x40 MSTORE CALLVALUE DUP1 ISZERO PUSH2 0x10 JUMPI PUSH1 0x0 DUP1 REVERT JUMPDEST POP PUSH1 0x4 CALLDATASIZE LT PUSH2 0x41 JUMPI PUSH1 0x0 CALLDATALOAD PUSH1 0xE0 SHR DUP1 PUSH4 0x8885353B EQ PUSH2 0x46 JUMPI DUP1 PUSH4 0x9967062D EQ PUSH2 0x76 JUMPI DUP1 PUSH4 0xA7E04671 EQ PUSH2 0xA6 JUMPI JUMPDEST PUSH1 0x0 DUP1 REVERT JUMPDEST PUSH2 0x60 PUSH1 0x4 DUP1 CALLDATASIZE SUB DUP2 ADD SWAP1 PUSH2 0x5B SWAP2 SWAP1 PUSH2 0x22D JUMP JUMPDEST PUSH2 0xD6 JUMP JUMPDEST PUSH1 0x40 MLOAD PUSH2 0x6D SWAP2 SWAP1 PUSH2 0x285 JUMP JUMPDEST PUSH1 0x40 MLOAD DUP1 SWAP2 SUB SWAP1 RETURN JUMPDEST PUSH2 0x90 PUSH1 0x4 DUP1 CALLDATASIZE SUB DUP2 ADD SWAP1 PUSH2 0x8B SWAP2 SWAP1 PUSH2 0x19A JUMP JUMPDEST PUSH2 0xDD JUMP JUMPDEST PUSH1 0x40 MLOAD PUSH2 0x9D SWAP2 SWAP1 PUSH2 0x285 JUMP JUMPDEST PUSH1 0x40 MLOAD DUP1 SWAP2 SUB SWAP1 RETURN JUMPDEST PUSH2 0xC0 PUSH1 0x4 DUP1 CALLDATASIZE SUB DUP2 ADD SWAP1 PUSH2 0xBB SWAP2 SWAP1 PUSH2 0x1DA JUMP JUMPDEST PUSH2 0xF3 JUMP JUMPDEST PUSH1 0x40 MLOAD PUSH2 0xCD SWAP2 SWAP1 PUSH2 0x285 JUMP JUMPDEST PUSH1 0x40 MLOAD DUP1 SWAP2 SUB SWAP1 RETURN JUMPDEST PUSH1 0x0 SWAP2 SWAP1 POP JUMP JUMPDEST PUSH1 0x0 DUP2 DUP4 PUSH2 0xEB SWAP2 SWAP1 PUSH2 0x2F6 JUMP JUMPDEST SWAP1 POP SWAP3 SWAP2 POP POP JUMP JUMPDEST PUSH1 0x0 DUP2 DUP4 DUP6 PUSH2 0x102 SWAP2 SWAP1 PUSH2 0x2F6 JUMP JUMPDEST PUSH2 0x10C SWAP2 SWAP1 PUSH2 0x2F6 JUMP JUMPDEST SWAP1 POP SWAP4 SWAP3 POP POP POP JUMP JUMPDEST PUSH1 0x0 PUSH2 0x128 PUSH2 0x123 DUP5 PUSH2 0x2C5 JUMP JUMPDEST PUSH2 0x2A0 JUMP JUMPDEST SWAP1 POP DUP3 DUP2 MSTORE PUSH1 0x20 DUP2 ADD DUP5 DUP5 DUP5 ADD GT ISZERO PUSH2 0x144 JUMPI PUSH2 0x143 PUSH2 0x437 JUMP JUMPDEST JUMPDEST PUSH2 0x14F DUP5 DUP3 DUP6 PUSH2 0x394 JUMP JUMPDEST POP SWAP4 SWAP3 POP POP POP JUMP JUMPDEST PUSH1 0x0 DUP2 CALLDATALOAD SWAP1 POP PUSH2 0x166 DUP2 PUSH2 0x457 JUMP JUMPDEST SWAP3 SWAP2 POP POP JUMP JUMPDEST PUSH1 0x0 DUP3 PUSH1 0x1F DUP4 ADD SLT PUSH2 0x181 JUMPI PUSH2 0x180 PUSH2 0x432 JUMP JUMPDEST JUMPDEST DUP2 CALLDATALOAD PUSH2 0x191 DUP5 DUP3 PUSH1 0x20 DUP7 ADD PUSH2 0x115 JUMP JUMPDEST SWAP2 POP POP SWAP3 SWAP2 POP POP JUMP JUMPDEST PUSH1 0x0 DUP1 PUSH1 0x40 DUP4 DUP6 SUB SLT ISZERO PUSH2 0x1B1 JUMPI PUSH2 0x1B0 PUSH2 0x441 JUMP JUMPDEST JUMPDEST PUSH1 0x0 PUSH2 0x1BF DUP6 DUP3 DUP7 ADD PUSH2 0x157 JUMP JUMPDEST SWAP3 POP POP PUSH1 0x20 PUSH2 0x1D0 DUP6 DUP3 DUP7 ADD PUSH2 0x157 JUMP JUMPDEST SWAP2 POP POP SWAP3 POP SWAP3 SWAP1 POP JUMP JUMPDEST PUSH1 0x0 DUP1 PUSH1 0x0 PUSH1 0x60 DUP5 DUP7 SUB SLT ISZERO PUSH2 0x1F3 JUMPI PUSH2 0x1F2 PUSH2 0x441 JUMP JUMPDEST JUMPDEST PUSH1 0x0 PUSH2 0x201 DUP7 DUP3 DUP8 ADD PUSH2 0x157 JUMP JUMPDEST SWAP4 POP POP PUSH1 0x20 PUSH2 0x212 DUP7 DUP3 DUP8 ADD PUSH2 0x157 JUMP JUMPDEST SWAP3 POP POP PUSH1 0x40 PUSH2 0x223 DUP7 DUP3 DUP8 ADD PUSH2 0x157 JUMP JUMPDEST SWAP2 POP POP SWAP3 POP SWAP3 POP SWAP3 JUMP JUMPDEST PUSH1 0x0 PUSH1 0x20 DUP3 DUP5 SUB SLT ISZERO PUSH2 0x243 JUMPI PUSH2 0x242 PUSH2 0x441 JUMP JUMPDEST JUMPDEST PUSH1 0x0 DUP3 ADD CALLDATALOAD PUSH8 0xFFFFFFFFFFFFFFFF DUP2 GT ISZERO PUSH2 0x261 JUMPI PUSH2 0x260 PUSH2 0x43C JUMP JUMPDEST JUMPDEST PUSH2 0x26D DUP5 DUP3 DUP6 ADD PUSH2 0x16C JUMP JUMPDEST SWAP2 POP POP SWAP3 SWAP2 POP POP JUMP JUMPDEST PUSH2 0x27F DUP2 PUSH2 0x38A JUMP JUMPDEST DUP3 MSTORE POP POP JUMP JUMPDEST PUSH1 0x0 PUSH1 0x20 DUP3 ADD SWAP1 POP PUSH2 0x29A PUSH1 0x0 DUP4 ADD DUP5 PUSH2 0x276 JUMP JUMPDEST SWAP3 SWAP2 POP POP JUMP JUMPDEST PUSH1 0x0 PUSH2 0x2AA PUSH2 0x2BB JUMP JUMPDEST SWAP1 POP PUSH2 0x2B6 DUP3 DUP3 PUSH2 0x3A3 JUMP JUMPDEST SWAP2 SWAP1 POP JUMP JUMPDEST PUSH1 0x0 PUSH1 0x40 MLOAD SWAP1 POP SWAP1 JUMP JUMPDEST PUSH1 0x0 PUSH8 0xFFFFFFFFFFFFFFFF DUP3 GT ISZERO PUSH2 0x2E0 JUMPI PUSH2 0x2DF PUSH2 0x403 JUMP JUMPDEST JUMPDEST PUSH2 0x2E9 DUP3 PUSH2 0x446 JUMP JUMPDEST SWAP1 POP PUSH1 0x20 DUP2 ADD SWAP1 POP SWAP2 SWAP1 POP JUMP JUMPDEST PUSH1 0x0 PUSH2 0x301 DUP3 PUSH2 0x38A JUMP JUMPDEST SWAP2 POP PUSH2 0x30C DUP4 PUSH2 0x38A JUMP JUMPDEST SWAP3 POP DUP2 PUSH32 0x7FFFFFFFFFFFFFFFFFFFFFFFFFFFFFFFFFFFFFFFFFFFFFFFFFFFFFFFFFFFFFFF SUB DUP4 SGT PUSH1 0x0 DUP4 SLT ISZERO AND ISZERO PUSH2 0x347 JUMPI PUSH2 0x346 PUSH2 0x3D4 JUMP JUMPDEST JUMPDEST DUP2 PUSH32 0x8000000000000000000000000000000000000000000000000000000000000000 SUB DUP4 SLT PUSH1 0x0 DUP4 SLT AND ISZERO PUSH2 0x37F JUMPI PUSH2 0x37E PUSH2 0x3D4 JUMP JUMPDEST JUMPDEST DUP3 DUP3 ADD SWAP1 POP SWAP3 SWAP2 POP POP JUMP JUMPDEST PUSH1 0x0 DUP2 SWAP1 POP SWAP2 SWAP1 POP JUMP JUMPDEST DUP3 DUP2 DUP4 CALLDATACOPY PUSH1 0x0 DUP4 DUP4 ADD MSTORE POP POP POP JUMP JUMPDEST PUSH2 0x3AC DUP3 PUSH2 0x446 JUMP JUMPDEST DUP2 ADD DUP2 DUP2 LT PUSH8 0xFFFFFFFFFFFFFFFF DUP3 GT OR ISZERO PUSH2 0x3CB JUMPI PUSH2 0x3CA PUSH2 0x403 JUMP JUMPDEST JUMPDEST DUP1 PUSH1 0x40 MSTORE POP POP POP JUMP JUMPDEST PUSH32 0x4E487B7100000000000000000000000000000000000000000000000000000000 PUSH1 0x0 MSTORE PUSH1 0x11 PUSH1 0x4 MSTORE PUSH1 0x24 PUSH1 0x0 REVERT JUMPDEST PUSH32 0x4E487B7100000000000000000000000000000000000000000000000000000000 PUSH1 0x0 MSTORE PUSH1 0x41 PUSH1 0x4 MSTORE PUSH1 0x24 PUSH1 0x0 REVERT JUMPDEST PUSH1 0x0 DUP1 REVERT JUMPDEST PUSH1 0x0 DUP1 REVERT JUMPDEST PUSH1 0x0 DUP1 REVERT JUMPDEST PUSH1 0x0 DUP1 REVERT JUMPDEST PUSH1 0x0 PUSH1 0x1F NOT PUSH1 0x1F DUP4 ADD AND SWAP1 POP SWAP2 SWAP1 POP JUMP JUMPDEST PUSH2 0x460 DUP2 PUSH2 0x38A JUMP JUMPDEST DUP2 EQ PUSH2 0x46B JUMPI PUSH1 0x0 DUP1 REVERT JUMPDEST POP JUMP INVALID LOG2 PUSH5 0x6970667358 0x22 SLT KECCAK256 DUP15 SGT PC EXTCODESIZE AND 0xCB CREATE 0xE6 SWAP8 0x5C 0xB9 0xEA 0xE0 0xD9 BYTE NOT 0x25 0xDD PUSH16 0x2CFA0267C04DA9AF848DD658EE64736F PUSH13 0x63430008070033000000000000 "
				},
				"gasEstimates": {
					"creation": {
						"codeDepositCost": "237600",
						"executionCost": "281",
						"totalCost": "237881"
					},
					"external": {
						"sum(int256,int256)": "infinite",
						"sum(int256,int256,int256)": "infinite",
						"sum(string)": "infinite"
					}
				},
				"methodIdentifiers": {
					"sum(int256,int256)": "9967062d",
					"sum(int256,int256,int256)": "a7e04671",
					"sum(string)": "8885353b"
				}
			},
			"storageLayout": {
				"storage": [],
				"types": null
			},
			"userdoc": {
				"kind": "user",
				"methods": {},
				"version": 1
			}
		}
	}
}