{
	"training/contracts/GlobalFunc.sol": {
		"GlobalFunctions": {
			"abi": [
				{
					"inputs": [],
					"name": "getBalance",
					"outputs": [
						{
							"internalType": "uint256",
							"name": "",
							"type": "uint256"
						}
					],
					"stateMutability": "view",
					"type": "function"
				},
				{
					"inputs": [],
					"name": "getValues",
					"outputs": [
						{
							"internalType": "uint256",
							"name": "blockNumber",
							"type": "uint256"
						},
						{
							"internalType": "uint256",
							"name": "timeStamp",
							"type": "uint256"
						},
						{
							"internalType": "address",
							"name": "msgSender",
							"type": "address"
						},
						{
							"internalType": "bytes",
							"name": "msgData",
							"type": "bytes"
						}
					],
					"stateMutability": "view",
					"type": "function"
				},
				{
					"inputs": [],
					"name": "msgValue",
					"outputs": [
						{
							"internalType": "uint256",
							"name": "",
							"type": "uint256"
						}
					],
					"stateMutability": "view",
					"type": "function"
				},
				{
					"inputs": [],
					"name": "paytoContract",
					"outputs": [],
					"stateMutability": "payable",
					"type": "function"
				}
			],
			"devdoc": {
				"kind": "dev",
				"methods": {},
				"version": 1
			},
			"evm": {
				"assembly": "    /* \"training/contracts/GlobalFunc.sol\":33:664  contract GlobalFunctions{... */\n  mstore(0x40, 0x80)\n  callvalue\n  dup1\n  iszero\n  tag_1\n  jumpi\n  0x00\n  dup1\n  revert\ntag_1:\n  pop\n  dataSize(sub_0)\n  dup1\n  dataOffset(sub_0)\n  0x00\n  codecopy\n  0x00\n  return\nstop\n\nsub_0: assembly {\n        /* \"training/contracts/GlobalFunc.sol\":33:664  contract GlobalFunctions{... */\n      mstore(0x40, 0x80)\n      jumpi(tag_1, lt(calldatasize, 0x04))\n      shr(0xe0, calldataload(0x00))\n      dup1\n      0x12065fe0\n      eq\n      tag_2\n      jumpi\n      dup1\n      0x19eb4a90\n      eq\n      tag_3\n      jumpi\n      dup1\n      0x496293cf\n      eq\n      tag_4\n      jumpi\n      dup1\n      0xddf363d7\n      eq\n      tag_5\n      jumpi\n    tag_1:\n      0x00\n      dup1\n      revert\n        /* \"training/contracts/GlobalFunc.sol\":90:179  function getBalance() public view returns(uint) {... */\n    tag_2:\n      callvalue\n      dup1\n      iszero\n      tag_6\n      jumpi\n      0x00\n      dup1\n      revert\n    tag_6:\n      pop\n      tag_7\n      tag_8\n      jump\t// in\n    tag_7:\n      mload(0x40)\n      tag_9\n      swap2\n      swap1\n      tag_10\n      jump\t// in\n    tag_9:\n      mload(0x40)\n      dup1\n      swap2\n      sub\n      swap1\n      return\n        /* \"training/contracts/GlobalFunc.sol\":386:581  function getValues() public view returns (uint blockNumber, uint timeStamp, address msgSender, bytes calldata msgData){... */\n    tag_3:\n      callvalue\n      dup1\n      iszero\n      tag_11\n      jumpi\n      0x00\n      dup1\n      revert\n    tag_11:\n      pop\n      tag_12\n      tag_13\n      jump\t// in\n    tag_12:\n      mload(0x40)\n      tag_14\n      swap6\n      swap5\n      swap4\n      swap3\n      swap2\n      swap1\n      tag_15\n      jump\t// in\n    tag_14:\n      mload(0x40)\n      dup1\n      swap2\n      sub\n      swap1\n      return\n        /* \"training/contracts/GlobalFunc.sol\":587:661  function paytoContract() payable public{... */\n    tag_4:\n      tag_16\n      tag_17\n      jump\t// in\n    tag_16:\n      stop\n        /* \"training/contracts/GlobalFunc.sol\":63:83  uint public msgValue */\n    tag_5:\n      callvalue\n      dup1\n      iszero\n      tag_18\n      jumpi\n      0x00\n      dup1\n      revert\n    tag_18:\n      pop\n      tag_19\n      tag_20\n      jump\t// in\n    tag_19:\n      mload(0x40)\n      tag_21\n      swap2\n      swap1\n      tag_10\n      jump\t// in\n    tag_21:\n      mload(0x40)\n      dup1\n      swap2\n      sub\n      swap1\n      return\n        /* \"training/contracts/GlobalFunc.sol\":90:179  function getBalance() public view returns(uint) {... */\n    tag_8:\n        /* \"training/contracts/GlobalFunc.sol\":132:136  uint */\n      0x00\n        /* \"training/contracts/GlobalFunc.sol\":151:172  address(this).balance */\n      selfbalance\n        /* \"training/contracts/GlobalFunc.sol\":144:172  return address(this).balance */\n      swap1\n      pop\n        /* \"training/contracts/GlobalFunc.sol\":90:179  function getBalance() public view returns(uint) {... */\n      swap1\n      jump\t// out\n        /* \"training/contracts/GlobalFunc.sol\":386:581  function getValues() public view returns (uint blockNumber, uint timeStamp, address msgSender, bytes calldata msgData){... */\n    tag_13:\n        /* \"training/contracts/GlobalFunc.sol\":428:444  uint blockNumber */\n      0x00\n        /* \"training/contracts/GlobalFunc.sol\":446:460  uint timeStamp */\n      dup1\n        /* \"training/contracts/GlobalFunc.sol\":462:479  address msgSender */\n      0x00\n        /* \"training/contracts/GlobalFunc.sol\":481:503  bytes calldata msgData */\n      calldatasize\n      0x00\n        /* \"training/contracts/GlobalFunc.sol\":522:534  block.number */\n      number\n        /* \"training/contracts/GlobalFunc.sol\":536:551  block.timestamp */\n      timestamp\n        /* \"training/contracts/GlobalFunc.sol\":553:563  msg.sender */\n      caller\n        /* \"training/contracts/GlobalFunc.sol\":565:573  msg.data */\n      0x00\n      calldatasize\n        /* \"training/contracts/GlobalFunc.sol\":514:574  return (block.number, block.timestamp, msg.sender, msg.data) */\n      swap5\n      pop\n      swap5\n      pop\n      swap5\n      pop\n      swap5\n      pop\n      swap5\n      pop\n        /* \"training/contracts/GlobalFunc.sol\":386:581  function getValues() public view returns (uint blockNumber, uint timeStamp, address msgSender, bytes calldata msgData){... */\n      swap1\n      swap2\n      swap3\n      swap4\n      swap5\n      jump\t// out\n        /* \"training/contracts/GlobalFunc.sol\":587:661  function paytoContract() payable public{... */\n    tag_17:\n        /* \"training/contracts/GlobalFunc.sol\":645:654  msg.value */\n      callvalue\n        /* \"training/contracts/GlobalFunc.sol\":636:644  msgValue */\n      0x00\n        /* \"training/contracts/GlobalFunc.sol\":636:654  msgValue=msg.value */\n      dup2\n      swap1\n      sstore\n      pop\n        /* \"training/contracts/GlobalFunc.sol\":587:661  function paytoContract() payable public{... */\n      jump\t// out\n        /* \"training/contracts/GlobalFunc.sol\":63:83  uint public msgValue */\n    tag_20:\n      sload(0x00)\n      dup2\n      jump\t// out\n        /* \"#utility.yul\":7:125   */\n    tag_26:\n        /* \"#utility.yul\":94:118   */\n      tag_28\n        /* \"#utility.yul\":112:117   */\n      dup2\n        /* \"#utility.yul\":94:118   */\n      tag_29\n      jump\t// in\n    tag_28:\n        /* \"#utility.yul\":89:92   */\n      dup3\n        /* \"#utility.yul\":82:119   */\n      mstore\n        /* \"#utility.yul\":7:125   */\n      pop\n      pop\n      jump\t// out\n        /* \"#utility.yul\":153:454   */\n    tag_30:\n        /* \"#utility.yul\":249:252   */\n      0x00\n        /* \"#utility.yul\":270:340   */\n      tag_32\n        /* \"#utility.yul\":333:339   */\n      dup4\n        /* \"#utility.yul\":328:331   */\n      dup6\n        /* \"#utility.yul\":270:340   */\n      tag_33\n      jump\t// in\n    tag_32:\n        /* \"#utility.yul\":263:340   */\n      swap4\n      pop\n        /* \"#utility.yul\":350:393   */\n      tag_34\n        /* \"#utility.yul\":386:392   */\n      dup4\n        /* \"#utility.yul\":381:384   */\n      dup6\n        /* \"#utility.yul\":374:379   */\n      dup5\n        /* \"#utility.yul\":350:393   */\n      tag_35\n      jump\t// in\n    tag_34:\n        /* \"#utility.yul\":418:447   */\n      tag_36\n        /* \"#utility.yul\":440:446   */\n      dup4\n        /* \"#utility.yul\":418:447   */\n      tag_37\n      jump\t// in\n    tag_36:\n        /* \"#utility.yul\":413:416   */\n      dup5\n        /* \"#utility.yul\":409:448   */\n      add\n        /* \"#utility.yul\":402:448   */\n      swap1\n      pop\n        /* \"#utility.yul\":153:454   */\n      swap4\n      swap3\n      pop\n      pop\n      pop\n      jump\t// out\n        /* \"#utility.yul\":460:578   */\n    tag_38:\n        /* \"#utility.yul\":547:571   */\n      tag_40\n        /* \"#utility.yul\":565:570   */\n      dup2\n        /* \"#utility.yul\":547:571   */\n      tag_41\n      jump\t// in\n    tag_40:\n        /* \"#utility.yul\":542:545   */\n      dup3\n        /* \"#utility.yul\":535:572   */\n      mstore\n        /* \"#utility.yul\":460:578   */\n      pop\n      pop\n      jump\t// out\n        /* \"#utility.yul\":584:806   */\n    tag_10:\n        /* \"#utility.yul\":677:681   */\n      0x00\n        /* \"#utility.yul\":715:717   */\n      0x20\n        /* \"#utility.yul\":704:713   */\n      dup3\n        /* \"#utility.yul\":700:718   */\n      add\n        /* \"#utility.yul\":692:718   */\n      swap1\n      pop\n        /* \"#utility.yul\":728:799   */\n      tag_43\n        /* \"#utility.yul\":796:797   */\n      0x00\n        /* \"#utility.yul\":785:794   */\n      dup4\n        /* \"#utility.yul\":781:798   */\n      add\n        /* \"#utility.yul\":772:778   */\n      dup5\n        /* \"#utility.yul\":728:799   */\n      tag_38\n      jump\t// in\n    tag_43:\n        /* \"#utility.yul\":584:806   */\n      swap3\n      swap2\n      pop\n      pop\n      jump\t// out\n        /* \"#utility.yul\":812:1472   */\n    tag_15:\n        /* \"#utility.yul\":1017:1021   */\n      0x00\n        /* \"#utility.yul\":1055:1058   */\n      0x80\n        /* \"#utility.yul\":1044:1053   */\n      dup3\n        /* \"#utility.yul\":1040:1059   */\n      add\n        /* \"#utility.yul\":1032:1059   */\n      swap1\n      pop\n        /* \"#utility.yul\":1069:1140   */\n      tag_45\n        /* \"#utility.yul\":1137:1138   */\n      0x00\n        /* \"#utility.yul\":1126:1135   */\n      dup4\n        /* \"#utility.yul\":1122:1139   */\n      add\n        /* \"#utility.yul\":1113:1119   */\n      dup9\n        /* \"#utility.yul\":1069:1140   */\n      tag_38\n      jump\t// in\n    tag_45:\n        /* \"#utility.yul\":1150:1222   */\n      tag_46\n        /* \"#utility.yul\":1218:1220   */\n      0x20\n        /* \"#utility.yul\":1207:1216   */\n      dup4\n        /* \"#utility.yul\":1203:1221   */\n      add\n        /* \"#utility.yul\":1194:1200   */\n      dup8\n        /* \"#utility.yul\":1150:1222   */\n      tag_38\n      jump\t// in\n    tag_46:\n        /* \"#utility.yul\":1232:1304   */\n      tag_47\n        /* \"#utility.yul\":1300:1302   */\n      0x40\n        /* \"#utility.yul\":1289:1298   */\n      dup4\n        /* \"#utility.yul\":1285:1303   */\n      add\n        /* \"#utility.yul\":1276:1282   */\n      dup7\n        /* \"#utility.yul\":1232:1304   */\n      tag_26\n      jump\t// in\n    tag_47:\n        /* \"#utility.yul\":1351:1360   */\n      dup2\n        /* \"#utility.yul\":1345:1349   */\n      dup2\n        /* \"#utility.yul\":1341:1361   */\n      sub\n        /* \"#utility.yul\":1336:1338   */\n      0x60\n        /* \"#utility.yul\":1325:1334   */\n      dup4\n        /* \"#utility.yul\":1321:1339   */\n      add\n        /* \"#utility.yul\":1314:1362   */\n      mstore\n        /* \"#utility.yul\":1379:1465   */\n      tag_48\n        /* \"#utility.yul\":1460:1464   */\n      dup2\n        /* \"#utility.yul\":1451:1457   */\n      dup5\n        /* \"#utility.yul\":1443:1449   */\n      dup7\n        /* \"#utility.yul\":1379:1465   */\n      tag_30\n      jump\t// in\n    tag_48:\n        /* \"#utility.yul\":1371:1465   */\n      swap1\n      pop\n        /* \"#utility.yul\":812:1472   */\n      swap7\n      swap6\n      pop\n      pop\n      pop\n      pop\n      pop\n      pop\n      jump\t// out\n        /* \"#utility.yul\":1478:1646   */\n    tag_33:\n        /* \"#utility.yul\":1561:1572   */\n      0x00\n        /* \"#utility.yul\":1595:1601   */\n      dup3\n        /* \"#utility.yul\":1590:1593   */\n      dup3\n        /* \"#utility.yul\":1583:1602   */\n      mstore\n        /* \"#utility.yul\":1635:1639   */\n      0x20\n        /* \"#utility.yul\":1630:1633   */\n      dup3\n        /* \"#utility.yul\":1626:1640   */\n      add\n        /* \"#utility.yul\":1611:1640   */\n      swap1\n      pop\n        /* \"#utility.yul\":1478:1646   */\n      swap3\n      swap2\n      pop\n      pop\n      jump\t// out\n        /* \"#utility.yul\":1652:1748   */\n    tag_29:\n        /* \"#utility.yul\":1689:1696   */\n      0x00\n        /* \"#utility.yul\":1718:1742   */\n      tag_51\n        /* \"#utility.yul\":1736:1741   */\n      dup3\n        /* \"#utility.yul\":1718:1742   */\n      tag_52\n      jump\t// in\n    tag_51:\n        /* \"#utility.yul\":1707:1742   */\n      swap1\n      pop\n        /* \"#utility.yul\":1652:1748   */\n      swap2\n      swap1\n      pop\n      jump\t// out\n        /* \"#utility.yul\":1754:1880   */\n    tag_52:\n        /* \"#utility.yul\":1791:1798   */\n      0x00\n        /* \"#utility.yul\":1831:1873   */\n      0xffffffffffffffffffffffffffffffffffffffff\n        /* \"#utility.yul\":1824:1829   */\n      dup3\n        /* \"#utility.yul\":1820:1874   */\n      and\n        /* \"#utility.yul\":1809:1874   */\n      swap1\n      pop\n        /* \"#utility.yul\":1754:1880   */\n      swap2\n      swap1\n      pop\n      jump\t// out\n        /* \"#utility.yul\":1886:1963   */\n    tag_41:\n        /* \"#utility.yul\":1923:1930   */\n      0x00\n        /* \"#utility.yul\":1952:1957   */\n      dup2\n        /* \"#utility.yul\":1941:1957   */\n      swap1\n      pop\n        /* \"#utility.yul\":1886:1963   */\n      swap2\n      swap1\n      pop\n      jump\t// out\n        /* \"#utility.yul\":1969:2123   */\n    tag_35:\n        /* \"#utility.yul\":2053:2059   */\n      dup3\n        /* \"#utility.yul\":2048:2051   */\n      dup2\n        /* \"#utility.yul\":2043:2046   */\n      dup4\n        /* \"#utility.yul\":2030:2060   */\n      calldatacopy\n        /* \"#utility.yul\":2115:2116   */\n      0x00\n        /* \"#utility.yul\":2106:2112   */\n      dup4\n        /* \"#utility.yul\":2101:2104   */\n      dup4\n        /* \"#utility.yul\":2097:2113   */\n      add\n        /* \"#utility.yul\":2090:2117   */\n      mstore\n        /* \"#utility.yul\":1969:2123   */\n      pop\n      pop\n      pop\n      jump\t// out\n        /* \"#utility.yul\":2129:2231   */\n    tag_37:\n        /* \"#utility.yul\":2170:2176   */\n      0x00\n        /* \"#utility.yul\":2221:2223   */\n      0x1f\n        /* \"#utility.yul\":2217:2224   */\n      not\n        /* \"#utility.yul\":2212:2214   */\n      0x1f\n        /* \"#utility.yul\":2205:2210   */\n      dup4\n        /* \"#utility.yul\":2201:2215   */\n      add\n        /* \"#utility.yul\":2197:2225   */\n      and\n        /* \"#utility.yul\":2187:2225   */\n      swap1\n      pop\n        /* \"#utility.yul\":2129:2231   */\n      swap2\n      swap1\n      pop\n      jump\t// out\n\n    auxdata: 0xa2646970667358221220fc12e41d69acffe2b1cb6aeee59e889a16a41dfa26a28cbcd3abf98905fa439164736f6c63430008070033\n}\n",
				"bytecode": {
					"linkReferences": {},
					"object": "608060405234801561001057600080fd5b50610260806100206000396000f3fe60806040526004361061003f5760003560e01c806312065fe01461004457806319eb4a901461006f578063496293cf1461009e578063ddf363d7146100a8575b600080fd5b34801561005057600080fd5b506100596100d3565b6040516100669190610154565b60405180910390f35b34801561007b57600080fd5b506100846100db565b60405161009595949392919061016f565b60405180910390f35b6100a66100fa565b005b3480156100b457600080fd5b506100bd610103565b6040516100ca9190610154565b60405180910390f35b600047905090565b6000806000366000434233600036945094509450945094509091929394565b34600081905550565b60005481565b610112816101ce565b82525050565b600061012483856101bd565b935061013183858461020a565b61013a83610219565b840190509392505050565b61014e81610200565b82525050565b60006020820190506101696000830184610145565b92915050565b60006080820190506101846000830188610145565b6101916020830187610145565b61019e6040830186610109565b81810360608301526101b1818486610118565b90509695505050505050565b600082825260208201905092915050565b60006101d9826101e0565b9050919050565b600073ffffffffffffffffffffffffffffffffffffffff82169050919050565b6000819050919050565b82818337600083830152505050565b6000601f19601f830116905091905056fea2646970667358221220fc12e41d69acffe2b1cb6aeee59e889a16a41dfa26a28cbcd3abf98905fa439164736f6c63430008070033",
					"opcodes": "PUSH1 0x80 PUSH1 0x40 MSTORE CALLVALUE DUP1 ISZERO PUSH2 0x10 JUMPI PUSH1 0x0 DUP1 REVERT JUMPDEST POP PUSH2 0x260 DUP1 PUSH2 0x20 PUSH1 0x0 CODECOPY PUSH1 0x0 RETURN INVALID PUSH1 0x80 PUSH1 0x40 MSTORE PUSH1 0x4 CALLDATASIZE LT PUSH2 0x3F JUMPI PUSH1 0x0 CALLDATALOAD PUSH1 0xE0 SHR DUP1 PUSH4 0x12065FE0 EQ PUSH2 0x44 JUMPI DUP1 PUSH4 0x19EB4A90 EQ PUSH2 0x6F JUMPI DUP1 PUSH4 0x496293CF EQ PUSH2 0x9E JUMPI DUP1 PUSH4 0xDDF363D7 EQ PUSH2 0xA8 JUMPI JUMPDEST PUSH1 0x0 DUP1 REVERT JUMPDEST CALLVALUE DUP1 ISZERO PUSH2 0x50 JUMPI PUSH1 0x0 DUP1 REVERT JUMPDEST POP PUSH2 0x59 PUSH2 0xD3 JUMP JUMPDEST PUSH1 0x40 MLOAD PUSH2 0x66 SWAP2 SWAP1 PUSH2 0x154 JUMP JUMPDEST PUSH1 0x40 MLOAD DUP1 SWAP2 SUB SWAP1 RETURN JUMPDEST CALLVALUE DUP1 ISZERO PUSH2 0x7B JUMPI PUSH1 0x0 DUP1 REVERT JUMPDEST POP PUSH2 0x84 PUSH2 0xDB JUMP JUMPDEST PUSH1 0x40 MLOAD PUSH2 0x95 SWAP6 SWAP5 SWAP4 SWAP3 SWAP2 SWAP1 PUSH2 0x16F JUMP JUMPDEST PUSH1 0x40 MLOAD DUP1 SWAP2 SUB SWAP1 RETURN JUMPDEST PUSH2 0xA6 PUSH2 0xFA JUMP JUMPDEST STOP JUMPDEST CALLVALUE DUP1 ISZERO PUSH2 0xB4 JUMPI PUSH1 0x0 DUP1 REVERT JUMPDEST POP PUSH2 0xBD PUSH2 0x103 JUMP JUMPDEST PUSH1 0x40 MLOAD PUSH2 0xCA SWAP2 SWAP1 PUSH2 0x154 JUMP JUMPDEST PUSH1 0x40 MLOAD DUP1 SWAP2 SUB SWAP1 RETURN JUMPDEST PUSH1 0x0 SELFBALANCE SWAP1 POP SWAP1 JUMP JUMPDEST PUSH1 0x0 DUP1 PUSH1 0x0 CALLDATASIZE PUSH1 0x0 NUMBER TIMESTAMP CALLER PUSH1 0x0 CALLDATASIZE SWAP5 POP SWAP5 POP SWAP5 POP SWAP5 POP SWAP5 POP SWAP1 SWAP2 SWAP3 SWAP4 SWAP5 JUMP JUMPDEST CALLVALUE PUSH1 0x0 DUP2 SWAP1 SSTORE POP JUMP JUMPDEST PUSH1 0x0 SLOAD DUP2 JUMP JUMPDEST PUSH2 0x112 DUP2 PUSH2 0x1CE JUMP JUMPDEST DUP3 MSTORE POP POP JUMP JUMPDEST PUSH1 0x0 PUSH2 0x124 DUP4 DUP6 PUSH2 0x1BD JUMP JUMPDEST SWAP4 POP PUSH2 0x131 DUP4 DUP6 DUP5 PUSH2 0x20A JUMP JUMPDEST PUSH2 0x13A DUP4 PUSH2 0x219 JUMP JUMPDEST DUP5 ADD SWAP1 POP SWAP4 SWAP3 POP POP POP JUMP JUMPDEST PUSH2 0x14E DUP2 PUSH2 0x200 JUMP JUMPDEST DUP3 MSTORE POP POP JUMP JUMPDEST PUSH1 0x0 PUSH1 0x20 DUP3 ADD SWAP1 POP PUSH2 0x169 PUSH1 0x0 DUP4 ADD DUP5 PUSH2 0x145 JUMP JUMPDEST SWAP3 SWAP2 POP POP JUMP JUMPDEST PUSH1 0x0 PUSH1 0x80 DUP3 ADD SWAP1 POP PUSH2 0x184 PUSH1 0x0 DUP4 ADD DUP9 PUSH2 0x145 JUMP JUMPDEST PUSH2 0x191 PUSH1 0x20 DUP4 ADD DUP8 PUSH2 0x145 JUMP JUMPDEST PUSH2 0x19E PUSH1 0x40 DUP4 ADD DUP7 PUSH2 0x109 JUMP JUMPDEST DUP2 DUP2 SUB PUSH1 0x60 DUP4 ADD MSTORE PUSH2 0x1B1 DUP2 DUP5 DUP7 PUSH2 0x118 JUMP JUMPDEST SWAP1 POP SWAP7 SWAP6 POP POP POP POP POP POP JUMP JUMPDEST PUSH1 0x0 DUP3 DUP3 MSTORE PUSH1 0x20 DUP3 ADD SWAP1 POP SWAP3 SWAP2 POP POP JUMP JUMPDEST PUSH1 0x0 PUSH2 0x1D9 DUP3 PUSH2 0x1E0 JUMP JUMPDEST SWAP1 POP SWAP2 SWAP1 POP JUMP JUMPDEST PUSH1 0x0 PUSH20 0xFFFFFFFFFFFFFFFFFFFFFFFFFFFFFFFFFFFFFFFF DUP3 AND SWAP1 POP SWAP2 SWAP1 POP JUMP JUMPDEST PUSH1 0x0 DUP2 SWAP1 POP SWAP2 SWAP1 POP JUMP JUMPDEST DUP3 DUP2 DUP4 CALLDATACOPY PUSH1 0x0 DUP4 DUP4 ADD MSTORE POP POP POP JUMP JUMPDEST PUSH1 0x0 PUSH1 0x1F NOT PUSH1 0x1F DUP4 ADD AND SWAP1 POP SWAP2 SWAP1 POP JUMP INVALID LOG2 PUSH5 0x6970667358 0x22 SLT KECCAK256 0xFC SLT 0xE4 SAR PUSH10 0xACFFE2B1CB6AEEE59E88 SWAP11 AND LOG4 SAR STATICCALL 0x26 LOG2 DUP13 0xBC 0xD3 0xAB 0xF9 DUP10 SDIV STATICCALL NUMBER SWAP2 PUSH5 0x736F6C6343 STOP ADDMOD SMOD STOP CALLER "
				},
				"gasEstimates": {
					"creation": {
						"codeDepositCost": "121600",
						"executionCost": "165",
						"totalCost": "121765"
					},
					"external": {
						"getBalance()": "317",
						"getValues()": "infinite",
						"msgValue()": "2473",
						"paytoContract()": "22255"
					}
				},
				"methodIdentifiers": {
					"getBalance()": "12065fe0",
					"getValues()": "19eb4a90",
					"msgValue()": "ddf363d7",
					"paytoContract()": "496293cf"
				}
			},
			"userdoc": {
				"kind": "user",
				"methods": {},
				"version": 1
			}
		}
	}
}