{
	"training/contracts/lottery_test.sol": {
		"LotteryGenerator": {
			"abi": [
				{
					"constant": true,
					"inputs": [
						{
							"name": "",
							"type": "uint256"
						}
					],
					"name": "lotteries",
					"outputs": [
						{
							"name": "",
							"type": "address"
						}
					],
					"payable": false,
					"stateMutability": "view",
					"type": "function"
				},
				{
					"constant": false,
					"inputs": [
						{
							"name": "name",
							"type": "string"
						}
					],
					"name": "createLottery",
					"outputs": [],
					"payable": false,
					"stateMutability": "nonpayable",
					"type": "function"
				},
				{
					"constant": false,
					"inputs": [
						{
							"name": "lotteryAddress",
							"type": "address"
						}
					],
					"name": "deleteLottery",
					"outputs": [],
					"payable": false,
					"stateMutability": "nonpayable",
					"type": "function"
				},
				{
					"constant": true,
					"inputs": [],
					"name": "getLotteries",
					"outputs": [
						{
							"name": "",
							"type": "address[]"
						}
					],
					"payable": false,
					"stateMutability": "view",
					"type": "function"
				},
				{
					"anonymous": false,
					"inputs": [
						{
							"indexed": false,
							"name": "lotteryAddress",
							"type": "address"
						}
					],
					"name": "LotteryCreated",
					"type": "event"
				}
			],
			"devdoc": {
				"methods": {}
			},
			"evm": {
				"assembly": "    /* \"training/contracts/lottery_test.sol\":26:1067  contract LotteryGenerator {... */\n  mstore(0x40, 0x80)\n  callvalue\n    /* \"--CODEGEN--\":8:17   */\n  dup1\n    /* \"--CODEGEN--\":5:7   */\n  iszero\n  tag_1\n  jumpi\n    /* \"--CODEGEN--\":30:31   */\n  0x0\n    /* \"--CODEGEN--\":27:28   */\n  dup1\n    /* \"--CODEGEN--\":20:32   */\n  revert\n    /* \"--CODEGEN--\":5:7   */\ntag_1:\n    /* \"training/contracts/lottery_test.sol\":26:1067  contract LotteryGenerator {... */\n  pop\n  dataSize(sub_0)\n  dup1\n  dataOffset(sub_0)\n  0x0\n  codecopy\n  0x0\n  return\nstop\n\nsub_0: assembly {\n        /* \"training/contracts/lottery_test.sol\":26:1067  contract LotteryGenerator {... */\n      mstore(0x40, 0x80)\n      jumpi(tag_1, lt(calldatasize, 0x4))\n      calldataload(0x0)\n      0x100000000000000000000000000000000000000000000000000000000\n      swap1\n      div\n      0xffffffff\n      and\n      dup1\n      0x1398e076\n      eq\n      tag_2\n      jumpi\n      dup1\n      0x16842582\n      eq\n      tag_3\n      jumpi\n      dup1\n      0xa7e46eac\n      eq\n      tag_4\n      jumpi\n      dup1\n      0xbcc82ec4\n      eq\n      tag_5\n      jumpi\n    tag_1:\n      0x0\n      dup1\n      revert\n        /* \"training/contracts/lottery_test.sol\":58:84  address[] public lotteries */\n    tag_2:\n      callvalue\n        /* \"--CODEGEN--\":8:17   */\n      dup1\n        /* \"--CODEGEN--\":5:7   */\n      iszero\n      tag_6\n      jumpi\n        /* \"--CODEGEN--\":30:31   */\n      0x0\n        /* \"--CODEGEN--\":27:28   */\n      dup1\n        /* \"--CODEGEN--\":20:32   */\n      revert\n        /* \"--CODEGEN--\":5:7   */\n    tag_6:\n        /* \"training/contracts/lottery_test.sol\":58:84  address[] public lotteries */\n      pop\n      tag_7\n      0x4\n      dup1\n      calldatasize\n      sub\n      dup2\n      add\n      swap1\n      dup1\n      dup1\n      calldataload\n      swap1\n      0x20\n      add\n      swap1\n      swap3\n      swap2\n      swap1\n      pop\n      pop\n      pop\n      jump(tag_8)\n    tag_7:\n      mload(0x40)\n      dup1\n      dup3\n      0xffffffffffffffffffffffffffffffffffffffff\n      and\n      0xffffffffffffffffffffffffffffffffffffffff\n      and\n      dup2\n      mstore\n      0x20\n      add\n      swap2\n      pop\n      pop\n      mload(0x40)\n      dup1\n      swap2\n      sub\n      swap1\n      return\n        /* \"training/contracts/lottery_test.sol\":210:547  function createLottery(string name) public {... */\n    tag_3:\n      callvalue\n        /* \"--CODEGEN--\":8:17   */\n      dup1\n        /* \"--CODEGEN--\":5:7   */\n      iszero\n      tag_9\n      jumpi\n        /* \"--CODEGEN--\":30:31   */\n      0x0\n        /* \"--CODEGEN--\":27:28   */\n      dup1\n        /* \"--CODEGEN--\":20:32   */\n      revert\n        /* \"--CODEGEN--\":5:7   */\n    tag_9:\n        /* \"training/contracts/lottery_test.sol\":210:547  function createLottery(string name) public {... */\n      pop\n      tag_10\n      0x4\n      dup1\n      calldatasize\n      sub\n      dup2\n      add\n      swap1\n      dup1\n      dup1\n      calldataload\n      swap1\n      0x20\n      add\n      swap1\n      dup3\n      add\n      dup1\n      calldataload\n      swap1\n      0x20\n      add\n      swap1\n      dup1\n      dup1\n      0x1f\n      add\n      0x20\n      dup1\n      swap2\n      div\n      mul\n      0x20\n      add\n      mload(0x40)\n      swap1\n      dup2\n      add\n      0x40\n      mstore\n      dup1\n      swap4\n      swap3\n      swap2\n      swap1\n      dup2\n      dup2\n      mstore\n      0x20\n      add\n      dup4\n      dup4\n      dup1\n      dup3\n      dup5\n      calldatacopy\n      dup3\n      add\n      swap2\n      pop\n      pop\n      pop\n      pop\n      pop\n      pop\n      swap2\n      swap3\n      swap2\n      swap3\n      swap1\n      pop\n      pop\n      pop\n      jump(tag_11)\n    tag_10:\n      stop\n        /* \"training/contracts/lottery_test.sol\":647:986  function deleteLottery(address lotteryAddress) public {... */\n    tag_4:\n      callvalue\n        /* \"--CODEGEN--\":8:17   */\n      dup1\n        /* \"--CODEGEN--\":5:7   */\n      iszero\n      tag_12\n      jumpi\n        /* \"--CODEGEN--\":30:31   */\n      0x0\n        /* \"--CODEGEN--\":27:28   */\n      dup1\n        /* \"--CODEGEN--\":20:32   */\n      revert\n        /* \"--CODEGEN--\":5:7   */\n    tag_12:\n        /* \"training/contracts/lottery_test.sol\":647:986  function deleteLottery(address lotteryAddress) public {... */\n      pop\n      tag_13\n      0x4\n      dup1\n      calldatasize\n      sub\n      dup2\n      add\n      swap1\n      dup1\n      dup1\n      calldataload\n      0xffffffffffffffffffffffffffffffffffffffff\n      and\n      swap1\n      0x20\n      add\n      swap1\n      swap3\n      swap2\n      swap1\n      pop\n      pop\n      pop\n      jump(tag_14)\n    tag_13:\n      stop\n        /* \"training/contracts/lottery_test.sol\":553:641  function getLotteries() public view returns(address[]) {... */\n    tag_5:\n      callvalue\n        /* \"--CODEGEN--\":8:17   */\n      dup1\n        /* \"--CODEGEN--\":5:7   */\n      iszero\n      tag_15\n      jumpi\n        /* \"--CODEGEN--\":30:31   */\n      0x0\n        /* \"--CODEGEN--\":27:28   */\n      dup1\n        /* \"--CODEGEN--\":20:32   */\n      revert\n        /* \"--CODEGEN--\":5:7   */\n    tag_15:\n        /* \"training/contracts/lottery_test.sol\":553:641  function getLotteries() public view returns(address[]) {... */\n      pop\n      tag_16\n      jump(tag_17)\n    tag_16:\n      mload(0x40)\n      dup1\n      dup1\n      0x20\n      add\n      dup3\n      dup2\n      sub\n      dup3\n      mstore\n      dup4\n      dup2\n      dup2\n      mload\n      dup2\n      mstore\n      0x20\n      add\n      swap2\n      pop\n      dup1\n      mload\n      swap1\n      0x20\n      add\n      swap1\n      0x20\n      mul\n      dup1\n      dup4\n      dup4\n        /* \"--CODEGEN--\":23:24   */\n      0x0\n        /* \"--CODEGEN--\":8:108   */\n    tag_18:\n        /* \"--CODEGEN--\":33:36   */\n      dup4\n        /* \"--CODEGEN--\":30:31   */\n      dup2\n        /* \"--CODEGEN--\":27:37   */\n      lt\n        /* \"--CODEGEN--\":8:108   */\n      iszero\n      tag_19\n      jumpi\n        /* \"--CODEGEN--\":99:100   */\n      dup1\n        /* \"--CODEGEN--\":94:97   */\n      dup3\n        /* \"--CODEGEN--\":90:101   */\n      add\n        /* \"--CODEGEN--\":84:102   */\n      mload\n        /* \"--CODEGEN--\":80:81   */\n      dup2\n        /* \"--CODEGEN--\":75:78   */\n      dup5\n        /* \"--CODEGEN--\":71:82   */\n      add\n        /* \"--CODEGEN--\":64:103   */\n      mstore\n        /* \"--CODEGEN--\":52:54   */\n      0x20\n        /* \"--CODEGEN--\":49:50   */\n      dup2\n        /* \"--CODEGEN--\":45:55   */\n      add\n        /* \"--CODEGEN--\":40:55   */\n      swap1\n      pop\n        /* \"--CODEGEN--\":8:108   */\n      jump(tag_18)\n    tag_19:\n        /* \"--CODEGEN--\":12:26   */\n      pop\n        /* \"training/contracts/lottery_test.sol\":553:641  function getLotteries() public view returns(address[]) {... */\n      pop\n      pop\n      pop\n      swap1\n      pop\n      add\n      swap3\n      pop\n      pop\n      pop\n      mload(0x40)\n      dup1\n      swap2\n      sub\n      swap1\n      return\n        /* \"training/contracts/lottery_test.sol\":58:84  address[] public lotteries */\n    tag_8:\n      0x0\n      dup2\n      dup2\n      sload\n      dup2\n      lt\n      iszero\n      iszero\n      tag_21\n      jumpi\n      invalid\n    tag_21:\n      swap1\n      0x0\n      mstore\n      keccak256(0x0, 0x20)\n      add\n      0x0\n      swap2\n      pop\n      sload\n      swap1\n      0x100\n      exp\n      swap1\n      div\n      0xffffffffffffffffffffffffffffffffffffffff\n      and\n      dup2\n      jump\t// out\n        /* \"training/contracts/lottery_test.sol\":210:547  function createLottery(string name) public {... */\n    tag_11:\n        /* \"training/contracts/lottery_test.sol\":304:322  address newLottery */\n      0x0\n        /* \"training/contracts/lottery_test.sol\":292:293  0 */\n      dup1\n        /* \"training/contracts/lottery_test.sol\":277:281  name */\n      dup3\n        /* \"training/contracts/lottery_test.sol\":271:289  bytes(name).length */\n      mload\n        /* \"training/contracts/lottery_test.sol\":271:293  bytes(name).length > 0 */\n      gt\n        /* \"training/contracts/lottery_test.sol\":263:294  require(bytes(name).length > 0) */\n      iszero\n      iszero\n      tag_24\n      jumpi\n      0x0\n      dup1\n      revert\n    tag_24:\n        /* \"training/contracts/lottery_test.sol\":337:341  name */\n      dup2\n        /* \"training/contracts/lottery_test.sol\":343:353  msg.sender */\n      caller\n        /* \"training/contracts/lottery_test.sol\":325:354  new Lottery(name, msg.sender) */\n      tag_25\n      jump\t// in(tag_26)\n    tag_25:\n      dup1\n      dup1\n      0x20\n      add\n      dup4\n      0xffffffffffffffffffffffffffffffffffffffff\n      and\n      0xffffffffffffffffffffffffffffffffffffffff\n      and\n      dup2\n      mstore\n      0x20\n      add\n      dup3\n      dup2\n      sub\n      dup3\n      mstore\n      dup5\n      dup2\n      dup2\n      mload\n      dup2\n      mstore\n      0x20\n      add\n      swap2\n      pop\n      dup1\n      mload\n      swap1\n      0x20\n      add\n      swap1\n      dup1\n      dup4\n      dup4\n        /* \"--CODEGEN--\":23:24   */\n      0x0\n        /* \"--CODEGEN--\":8:108   */\n    tag_27:\n        /* \"--CODEGEN--\":33:36   */\n      dup4\n        /* \"--CODEGEN--\":30:31   */\n      dup2\n        /* \"--CODEGEN--\":27:37   */\n      lt\n        /* \"--CODEGEN--\":8:108   */\n      iszero\n      tag_28\n      jumpi\n        /* \"--CODEGEN--\":99:100   */\n      dup1\n        /* \"--CODEGEN--\":94:97   */\n      dup3\n        /* \"--CODEGEN--\":90:101   */\n      add\n        /* \"--CODEGEN--\":84:102   */\n      mload\n        /* \"--CODEGEN--\":80:81   */\n      dup2\n        /* \"--CODEGEN--\":75:78   */\n      dup5\n        /* \"--CODEGEN--\":71:82   */\n      add\n        /* \"--CODEGEN--\":64:103   */\n      mstore\n        /* \"--CODEGEN--\":52:54   */\n      0x20\n        /* \"--CODEGEN--\":49:50   */\n      dup2\n        /* \"--CODEGEN--\":45:55   */\n      add\n        /* \"--CODEGEN--\":40:55   */\n      swap1\n      pop\n        /* \"--CODEGEN--\":8:108   */\n      jump(tag_27)\n    tag_28:\n        /* \"--CODEGEN--\":12:26   */\n      pop\n        /* \"training/contracts/lottery_test.sol\":325:354  new Lottery(name, msg.sender) */\n      pop\n      pop\n      pop\n      swap1\n      pop\n      swap1\n      dup2\n      add\n      swap1\n      0x1f\n      and\n      dup1\n      iszero\n      tag_30\n      jumpi\n      dup1\n      dup3\n      sub\n      dup1\n      mload\n      0x1\n      dup4\n      0x20\n      sub\n      0x100\n      exp\n      sub\n      not\n      and\n      dup2\n      mstore\n      0x20\n      add\n      swap2\n      pop\n    tag_30:\n      pop\n      swap4\n      pop\n      pop\n      pop\n      pop\n      mload(0x40)\n      dup1\n      swap2\n      sub\n      swap1\n      0x0\n      create\n      dup1\n      iszero\n        /* \"--CODEGEN--\":8:17   */\n      dup1\n        /* \"--CODEGEN--\":5:7   */\n      iszero\n      tag_31\n      jumpi\n        /* \"--CODEGEN--\":45:61   */\n      returndatasize\n        /* \"--CODEGEN--\":42:43   */\n      0x0\n        /* \"--CODEGEN--\":39:40   */\n      dup1\n        /* \"--CODEGEN--\":24:62   */\n      returndatacopy\n        /* \"--CODEGEN--\":77:93   */\n      returndatasize\n        /* \"--CODEGEN--\":74:75   */\n      0x0\n        /* \"--CODEGEN--\":67:94   */\n      revert\n        /* \"--CODEGEN--\":5:7   */\n    tag_31:\n        /* \"training/contracts/lottery_test.sol\":325:354  new Lottery(name, msg.sender) */\n      pop\n        /* \"training/contracts/lottery_test.sol\":304:354  address newLottery = new Lottery(name, msg.sender) */\n      swap1\n      pop\n        /* \"training/contracts/lottery_test.sol\":428:429  1 */\n      0x1\n        /* \"training/contracts/lottery_test.sol\":399:408  lotteries */\n      0x0\n        /* \"training/contracts/lottery_test.sol\":414:424  newLottery */\n      dup3\n        /* \"training/contracts/lottery_test.sol\":399:425  lotteries.push(newLottery) */\n      swap1\n      dup1\n        /* \"--CODEGEN--\":39:40   */\n      0x1\n        /* \"--CODEGEN--\":33:36   */\n      dup2\n        /* \"--CODEGEN--\":27:37   */\n      sload\n        /* \"--CODEGEN--\":23:41   */\n      add\n        /* \"--CODEGEN--\":57:67   */\n      dup1\n        /* \"--CODEGEN--\":52:55   */\n      dup3\n        /* \"--CODEGEN--\":45:68   */\n      sstore\n        /* \"--CODEGEN--\":79:89   */\n      dup1\n        /* \"--CODEGEN--\":72:89   */\n      swap2\n      pop\n        /* \"--CODEGEN--\":0:93   */\n      pop\n        /* \"training/contracts/lottery_test.sol\":399:425  lotteries.push(newLottery) */\n      swap1\n      0x1\n      dup3\n      sub\n      swap1\n      0x0\n      mstore\n      keccak256(0x0, 0x20)\n      add\n      0x0\n      swap1\n      swap2\n      swap3\n      swap1\n      swap2\n      swap1\n      swap2\n      0x100\n      exp\n      dup2\n      sload\n      dup2\n      0xffffffffffffffffffffffffffffffffffffffff\n      mul\n      not\n      and\n      swap1\n      dup4\n      0xffffffffffffffffffffffffffffffffffffffff\n      and\n      mul\n      or\n      swap1\n      sstore\n      pop\n        /* \"training/contracts/lottery_test.sol\":399:429  lotteries.push(newLottery) - 1 */\n      sub\n        /* \"training/contracts/lottery_test.sol\":364:378  lotteryStructs */\n      0x1\n        /* \"training/contracts/lottery_test.sol\":364:390  lotteryStructs[newLottery] */\n      0x0\n        /* \"training/contracts/lottery_test.sol\":379:389  newLottery */\n      dup4\n        /* \"training/contracts/lottery_test.sol\":364:390  lotteryStructs[newLottery] */\n      0xffffffffffffffffffffffffffffffffffffffff\n      and\n      0xffffffffffffffffffffffffffffffffffffffff\n      and\n      dup2\n      mstore\n      0x20\n      add\n      swap1\n      dup2\n      mstore\n      0x20\n      add\n      0x0\n      keccak256\n        /* \"training/contracts/lottery_test.sol\":364:396  lotteryStructs[newLottery].index */\n      0x0\n      add\n        /* \"training/contracts/lottery_test.sol\":364:429  lotteryStructs[newLottery].index = lotteries.push(newLottery) - 1 */\n      dup2\n      swap1\n      sstore\n      pop\n        /* \"training/contracts/lottery_test.sol\":476:486  msg.sender */\n      caller\n        /* \"training/contracts/lottery_test.sol\":439:453  lotteryStructs */\n      0x1\n        /* \"training/contracts/lottery_test.sol\":439:465  lotteryStructs[newLottery] */\n      0x0\n        /* \"training/contracts/lottery_test.sol\":454:464  newLottery */\n      dup4\n        /* \"training/contracts/lottery_test.sol\":439:465  lotteryStructs[newLottery] */\n      0xffffffffffffffffffffffffffffffffffffffff\n      and\n      0xffffffffffffffffffffffffffffffffffffffff\n      and\n      dup2\n      mstore\n      0x20\n      add\n      swap1\n      dup2\n      mstore\n      0x20\n      add\n      0x0\n      keccak256\n        /* \"training/contracts/lottery_test.sol\":439:473  lotteryStructs[newLottery].manager */\n      0x1\n      add\n      0x0\n        /* \"training/contracts/lottery_test.sol\":439:486  lotteryStructs[newLottery].manager = msg.sender */\n      0x100\n      exp\n      dup2\n      sload\n      dup2\n      0xffffffffffffffffffffffffffffffffffffffff\n      mul\n      not\n      and\n      swap1\n      dup4\n      0xffffffffffffffffffffffffffffffffffffffff\n      and\n      mul\n      or\n      swap1\n      sstore\n      pop\n        /* \"training/contracts/lottery_test.sol\":514:540  LotteryCreated(newLottery) */\n      0xe610764cbcba803247df3450b7492f6a0084b7b5b734a7901c13fef8f84ffaf4\n        /* \"training/contracts/lottery_test.sol\":529:539  newLottery */\n      dup2\n        /* \"training/contracts/lottery_test.sol\":514:540  LotteryCreated(newLottery) */\n      mload(0x40)\n      dup1\n      dup3\n      0xffffffffffffffffffffffffffffffffffffffff\n      and\n      0xffffffffffffffffffffffffffffffffffffffff\n      and\n      dup2\n      mstore\n      0x20\n      add\n      swap2\n      pop\n      pop\n      mload(0x40)\n      dup1\n      swap2\n      sub\n      swap1\n      log1\n        /* \"training/contracts/lottery_test.sol\":210:547  function createLottery(string name) public {... */\n      pop\n      pop\n      jump\t// out\n        /* \"training/contracts/lottery_test.sol\":647:986  function deleteLottery(address lotteryAddress) public {... */\n    tag_14:\n        /* \"training/contracts/lottery_test.sol\":782:800  uint indexToDelete */\n      0x0\n        /* \"training/contracts/lottery_test.sol\":849:868  address lastAddress */\n      dup1\n        /* \"training/contracts/lottery_test.sol\":733:747  lotteryStructs */\n      0x1\n        /* \"training/contracts/lottery_test.sol\":733:763  lotteryStructs[lotteryAddress] */\n      0x0\n        /* \"training/contracts/lottery_test.sol\":748:762  lotteryAddress */\n      dup5\n        /* \"training/contracts/lottery_test.sol\":733:763  lotteryStructs[lotteryAddress] */\n      0xffffffffffffffffffffffffffffffffffffffff\n      and\n      0xffffffffffffffffffffffffffffffffffffffff\n      and\n      dup2\n      mstore\n      0x20\n      add\n      swap1\n      dup2\n      mstore\n      0x20\n      add\n      0x0\n      keccak256\n        /* \"training/contracts/lottery_test.sol\":733:771  lotteryStructs[lotteryAddress].manager */\n      0x1\n      add\n      0x0\n      swap1\n      sload\n      swap1\n      0x100\n      exp\n      swap1\n      div\n      0xffffffffffffffffffffffffffffffffffffffff\n      and\n        /* \"training/contracts/lottery_test.sol\":719:771  msg.sender == lotteryStructs[lotteryAddress].manager */\n      0xffffffffffffffffffffffffffffffffffffffff\n      and\n        /* \"training/contracts/lottery_test.sol\":719:729  msg.sender */\n      caller\n        /* \"training/contracts/lottery_test.sol\":719:771  msg.sender == lotteryStructs[lotteryAddress].manager */\n      0xffffffffffffffffffffffffffffffffffffffff\n      and\n      eq\n        /* \"training/contracts/lottery_test.sol\":711:772  require(msg.sender == lotteryStructs[lotteryAddress].manager) */\n      iszero\n      iszero\n      tag_34\n      jumpi\n      0x0\n      dup1\n      revert\n    tag_34:\n        /* \"training/contracts/lottery_test.sol\":803:817  lotteryStructs */\n      0x1\n        /* \"training/contracts/lottery_test.sol\":803:833  lotteryStructs[lotteryAddress] */\n      0x0\n        /* \"training/contracts/lottery_test.sol\":818:832  lotteryAddress */\n      dup5\n        /* \"training/contracts/lottery_test.sol\":803:833  lotteryStructs[lotteryAddress] */\n      0xffffffffffffffffffffffffffffffffffffffff\n      and\n      0xffffffffffffffffffffffffffffffffffffffff\n      and\n      dup2\n      mstore\n      0x20\n      add\n      swap1\n      dup2\n      mstore\n      0x20\n      add\n      0x0\n      keccak256\n        /* \"training/contracts/lottery_test.sol\":803:839  lotteryStructs[lotteryAddress].index */\n      0x0\n      add\n      sload\n        /* \"training/contracts/lottery_test.sol\":782:839  uint indexToDelete = lotteryStructs[lotteryAddress].index */\n      swap2\n      pop\n        /* \"training/contracts/lottery_test.sol\":871:880  lotteries */\n      0x0\n        /* \"training/contracts/lottery_test.sol\":900:901  1 */\n      0x1\n        /* \"training/contracts/lottery_test.sol\":881:890  lotteries */\n      0x0\n        /* \"training/contracts/lottery_test.sol\":881:897  lotteries.length */\n      dup1\n      sload\n      swap1\n      pop\n        /* \"training/contracts/lottery_test.sol\":881:901  lotteries.length - 1 */\n      sub\n        /* \"training/contracts/lottery_test.sol\":871:902  lotteries[lotteries.length - 1] */\n      dup2\n      sload\n      dup2\n      lt\n      iszero\n      iszero\n      tag_35\n      jumpi\n      invalid\n    tag_35:\n      swap1\n      0x0\n      mstore\n      keccak256(0x0, 0x20)\n      add\n      0x0\n      swap1\n      sload\n      swap1\n      0x100\n      exp\n      swap1\n      div\n      0xffffffffffffffffffffffffffffffffffffffff\n      and\n        /* \"training/contracts/lottery_test.sol\":849:902  address lastAddress = lotteries[lotteries.length - 1] */\n      swap1\n      pop\n        /* \"training/contracts/lottery_test.sol\":939:950  lastAddress */\n      dup1\n        /* \"training/contracts/lottery_test.sol\":912:921  lotteries */\n      0x0\n        /* \"training/contracts/lottery_test.sol\":922:935  indexToDelete */\n      dup4\n        /* \"training/contracts/lottery_test.sol\":912:936  lotteries[indexToDelete] */\n      dup2\n      sload\n      dup2\n      lt\n      iszero\n      iszero\n      tag_37\n      jumpi\n      invalid\n    tag_37:\n      swap1\n      0x0\n      mstore\n      keccak256(0x0, 0x20)\n      add\n      0x0\n        /* \"training/contracts/lottery_test.sol\":912:950  lotteries[indexToDelete] = lastAddress */\n      0x100\n      exp\n      dup2\n      sload\n      dup2\n      0xffffffffffffffffffffffffffffffffffffffff\n      mul\n      not\n      and\n      swap1\n      dup4\n      0xffffffffffffffffffffffffffffffffffffffff\n      and\n      mul\n      or\n      swap1\n      sstore\n      pop\n        /* \"training/contracts/lottery_test.sol\":960:969  lotteries */\n      0x0\n        /* \"training/contracts/lottery_test.sol\":960:979  lotteries.length -- */\n      dup1\n      sload\n      dup1\n      swap2\n      swap1\n      0x1\n      swap1\n      sub\n      tag_39\n      swap2\n      swap1\n      jump\t// in(tag_40)\n    tag_39:\n      pop\n        /* \"training/contracts/lottery_test.sol\":647:986  function deleteLottery(address lotteryAddress) public {... */\n      pop\n      pop\n      pop\n      jump\t// out\n        /* \"training/contracts/lottery_test.sol\":553:641  function getLotteries() public view returns(address[]) {... */\n    tag_17:\n        /* \"training/contracts/lottery_test.sol\":597:606  address[] */\n      0x60\n        /* \"training/contracts/lottery_test.sol\":625:634  lotteries */\n      0x0\n        /* \"training/contracts/lottery_test.sol\":618:634  return lotteries */\n      dup1\n      sload\n      dup1\n      0x20\n      mul\n      0x20\n      add\n      mload(0x40)\n      swap1\n      dup2\n      add\n      0x40\n      mstore\n      dup1\n      swap3\n      swap2\n      swap1\n      dup2\n      dup2\n      mstore\n      0x20\n      add\n      dup3\n      dup1\n      sload\n      dup1\n      iszero\n      tag_42\n      jumpi\n      0x20\n      mul\n      dup3\n      add\n      swap2\n      swap1\n      0x0\n      mstore\n      keccak256(0x0, 0x20)\n      swap1\n    tag_43:\n      dup2\n      0x0\n      swap1\n      sload\n      swap1\n      0x100\n      exp\n      swap1\n      div\n      0xffffffffffffffffffffffffffffffffffffffff\n      and\n      0xffffffffffffffffffffffffffffffffffffffff\n      and\n      dup2\n      mstore\n      0x20\n      add\n      swap1\n      0x1\n      add\n      swap1\n      dup1\n      dup4\n      gt\n      tag_43\n      jumpi\n    tag_42:\n      pop\n      pop\n      pop\n      pop\n      pop\n      swap1\n      pop\n        /* \"training/contracts/lottery_test.sol\":553:641  function getLotteries() public view returns(address[]) {... */\n      swap1\n      jump\t// out\n        /* \"training/contracts/lottery_test.sol\":26:1067  contract LotteryGenerator {... */\n    tag_26:\n      mload(0x40)\n      dataSize(sub_0)\n      dup1\n      dataOffset(sub_0)\n      dup4\n      codecopy\n      add\n      swap1\n      jump\t// out\n    tag_40:\n      dup2\n      sload\n      dup2\n      dup4\n      sstore\n      dup2\n      dup2\n      gt\n      iszero\n      tag_44\n      jumpi\n      dup2\n      dup4\n      0x0\n      mstore\n      keccak256(0x0, 0x20)\n      swap2\n      dup3\n      add\n      swap2\n      add\n      tag_45\n      swap2\n      swap1\n      jump\t// in(tag_46)\n    tag_45:\n    tag_44:\n      pop\n      pop\n      pop\n      jump\t// out\n    tag_46:\n      tag_47\n      swap2\n      swap1\n    tag_48:\n      dup1\n      dup3\n      gt\n      iszero\n      tag_49\n      jumpi\n      0x0\n      dup2\n      0x0\n      swap1\n      sstore\n      pop\n      0x1\n      add\n      jump(tag_48)\n    tag_49:\n      pop\n      swap1\n      jump\n    tag_47:\n      swap1\n      jump\t// out\n    stop\n\n    sub_0: assembly {\n            /* \"training/contracts/lottery_test.sol\":1069:4694  contract Lottery {... */\n          mstore(0x40, 0x80)\n            /* \"training/contracts/lottery_test.sol\":1639:1755  function Lottery(string name, address creator) public {... */\n          callvalue\n            /* \"--CODEGEN--\":8:17   */\n          dup1\n            /* \"--CODEGEN--\":5:7   */\n          iszero\n          tag_1\n          jumpi\n            /* \"--CODEGEN--\":30:31   */\n          0x0\n            /* \"--CODEGEN--\":27:28   */\n          dup1\n            /* \"--CODEGEN--\":20:32   */\n          revert\n            /* \"--CODEGEN--\":5:7   */\n        tag_1:\n            /* \"training/contracts/lottery_test.sol\":1639:1755  function Lottery(string name, address creator) public {... */\n          pop\n          mload(0x40)\n          sub(codesize, bytecodeSize)\n          dup1\n          bytecodeSize\n          dup4\n          codecopy\n          dup2\n          add\n          dup1\n          0x40\n          mstore\n          dup2\n          add\n          swap1\n          dup1\n          dup1\n          mload\n          dup3\n          add\n          swap3\n          swap2\n          swap1\n          0x20\n          add\n          dup1\n          mload\n          swap1\n          0x20\n          add\n          swap1\n          swap3\n          swap2\n          swap1\n          pop\n          pop\n          pop\n            /* \"training/contracts/lottery_test.sol\":1713:1720  creator */\n          dup1\n            /* \"training/contracts/lottery_test.sol\":1703:1710  manager */\n          0x1\n          0x0\n            /* \"training/contracts/lottery_test.sol\":1703:1720  manager = creator */\n          0x100\n          exp\n          dup2\n          sload\n          dup2\n          0xffffffffffffffffffffffffffffffffffffffff\n          mul\n          not\n          and\n          swap1\n          dup4\n          0xffffffffffffffffffffffffffffffffffffffff\n          and\n          mul\n          or\n          swap1\n          sstore\n          pop\n            /* \"training/contracts/lottery_test.sol\":1744:1748  name */\n          dup2\n            /* \"training/contracts/lottery_test.sol\":1730:1741  lotteryName */\n          0x0\n            /* \"training/contracts/lottery_test.sol\":1730:1748  lotteryName = name */\n          swap1\n          dup1\n          mload\n          swap1\n          0x20\n          add\n          swap1\n          tag_4\n          swap3\n          swap2\n          swap1\n          jump\t// in(tag_5)\n        tag_4:\n          pop\n            /* \"training/contracts/lottery_test.sol\":1639:1755  function Lottery(string name, address creator) public {... */\n          pop\n          pop\n            /* \"training/contracts/lottery_test.sol\":1069:4694  contract Lottery {... */\n          jump(tag_6)\n        tag_5:\n          dup3\n          dup1\n          sload\n          0x1\n          dup2\n          0x1\n          and\n          iszero\n          0x100\n          mul\n          sub\n          and\n          0x2\n          swap1\n          div\n          swap1\n          0x0\n          mstore\n          keccak256(0x0, 0x20)\n          swap1\n          0x1f\n          add\n          0x20\n          swap1\n          div\n          dup2\n          add\n          swap3\n          dup3\n          0x1f\n          lt\n          tag_8\n          jumpi\n          dup1\n          mload\n          not(0xff)\n          and\n          dup4\n          dup1\n          add\n          or\n          dup6\n          sstore\n          jump(tag_7)\n        tag_8:\n          dup3\n          dup1\n          add\n          0x1\n          add\n          dup6\n          sstore\n          dup3\n          iszero\n          tag_7\n          jumpi\n          swap2\n          dup3\n          add\n        tag_9:\n          dup3\n          dup2\n          gt\n          iszero\n          tag_10\n          jumpi\n          dup3\n          mload\n          dup3\n          sstore\n          swap2\n          0x20\n          add\n          swap2\n          swap1\n          0x1\n          add\n          swap1\n          jump(tag_9)\n        tag_10:\n        tag_7:\n          pop\n          swap1\n          pop\n          tag_11\n          swap2\n          swap1\n          jump\t// in(tag_12)\n        tag_11:\n          pop\n          swap1\n          jump\t// out\n        tag_12:\n          tag_13\n          swap2\n          swap1\n        tag_14:\n          dup1\n          dup3\n          gt\n          iszero\n          tag_15\n          jumpi\n          0x0\n          dup2\n          0x0\n          swap1\n          sstore\n          pop\n          0x1\n          add\n          jump(tag_14)\n        tag_15:\n          pop\n          swap1\n          jump\n        tag_13:\n          swap1\n          jump\t// out\n        tag_6:\n          dataSize(sub_0)\n          dup1\n          dataOffset(sub_0)\n          0x0\n          codecopy\n          0x0\n          return\n        stop\n\n        sub_0: assembly {\n                /* \"training/contracts/lottery_test.sol\":1069:4694  contract Lottery {... */\n              mstore(0x40, 0x80)\n              jumpi(tag_1, lt(calldatasize, 0x4))\n              calldataload(0x0)\n              0x100000000000000000000000000000000000000000000000000000000\n              swap1\n              div\n              0xffffffff\n              and\n              dup1\n              0x10c85fe5\n              eq\n              tag_2\n              jumpi\n              dup1\n              0x14034bd2\n              eq\n              tag_3\n              jumpi\n              dup1\n              0x1d27769f\n              eq\n              tag_4\n              jumpi\n              dup1\n              0x23d14149\n              eq\n              tag_5\n              jumpi\n              dup1\n              0x481c6a75\n              eq\n              tag_6\n              jumpi\n              dup1\n              0x5832d571\n              eq\n              tag_7\n              jumpi\n              dup1\n              0x5c12cd4b\n              eq\n              tag_8\n              jumpi\n              dup1\n              0x5d58a74a\n              eq\n              tag_9\n              jumpi\n              dup1\n              0x7752045b\n              eq\n              tag_10\n              jumpi\n              dup1\n              0x8b5b9ccc\n              eq\n              tag_11\n              jumpi\n              dup1\n              0xbdaea326\n              eq\n              tag_12\n              jumpi\n              dup1\n              0xd68895d8\n              eq\n              tag_13\n              jumpi\n              dup1\n              0xdfbf53ae\n              eq\n              tag_14\n              jumpi\n              dup1\n              0xf25266dd\n              eq\n              tag_15\n              jumpi\n            tag_1:\n                /* \"training/contracts/lottery_test.sol\":1910:1932  participate(\"Unknown\") */\n              tag_18\n              0x40\n              dup1\n              mload\n              swap1\n              dup2\n              add\n              0x40\n              mstore\n              dup1\n              0x7\n              dup2\n              mstore\n              0x20\n              add\n              0x556e6b6e6f776e00000000000000000000000000000000000000000000000000\n              dup2\n              mstore\n              pop\n                /* \"training/contracts/lottery_test.sol\":1910:1921  participate */\n              tag_19\n                /* \"training/contracts/lottery_test.sol\":1910:1932  participate(\"Unknown\") */\n              jump\t// in\n            tag_18:\n                /* \"training/contracts/lottery_test.sol\":1069:4694  contract Lottery {... */\n              stop\n                /* \"training/contracts/lottery_test.sol\":1517:1542  bool public isLotteryLive */\n            tag_2:\n              callvalue\n                /* \"--CODEGEN--\":8:17   */\n              dup1\n                /* \"--CODEGEN--\":5:7   */\n              iszero\n              tag_20\n              jumpi\n                /* \"--CODEGEN--\":30:31   */\n              0x0\n                /* \"--CODEGEN--\":27:28   */\n              dup1\n                /* \"--CODEGEN--\":20:32   */\n              revert\n                /* \"--CODEGEN--\":5:7   */\n            tag_20:\n                /* \"training/contracts/lottery_test.sol\":1517:1542  bool public isLotteryLive */\n              pop\n              tag_21\n              jump(tag_22)\n            tag_21:\n              mload(0x40)\n              dup1\n              dup3\n              iszero\n              iszero\n              iszero\n              iszero\n              dup2\n              mstore\n              0x20\n              add\n              swap2\n              pop\n              pop\n              mload(0x40)\n              dup1\n              swap2\n              sub\n              swap1\n              return\n                /* \"training/contracts/lottery_test.sol\":2905:3525  function declareWinner() public restricted {... */\n            tag_3:\n              callvalue\n                /* \"--CODEGEN--\":8:17   */\n              dup1\n                /* \"--CODEGEN--\":5:7   */\n              iszero\n              tag_23\n              jumpi\n                /* \"--CODEGEN--\":30:31   */\n              0x0\n                /* \"--CODEGEN--\":27:28   */\n              dup1\n                /* \"--CODEGEN--\":20:32   */\n              revert\n                /* \"--CODEGEN--\":5:7   */\n            tag_23:\n                /* \"training/contracts/lottery_test.sol\":2905:3525  function declareWinner() public restricted {... */\n              pop\n              tag_24\n              jump(tag_25)\n            tag_24:\n              stop\n                /* \"training/contracts/lottery_test.sol\":1945:2653  function participate(string playerName) public payable {... */\n            tag_4:\n              tag_26\n              0x4\n              dup1\n              calldatasize\n              sub\n              dup2\n              add\n              swap1\n              dup1\n              dup1\n              calldataload\n              swap1\n              0x20\n              add\n              swap1\n              dup3\n              add\n              dup1\n              calldataload\n              swap1\n              0x20\n              add\n              swap1\n              dup1\n              dup1\n              0x1f\n              add\n              0x20\n              dup1\n              swap2\n              div\n              mul\n              0x20\n              add\n              mload(0x40)\n              swap1\n              dup2\n              add\n              0x40\n              mstore\n              dup1\n              swap4\n              swap3\n              swap2\n              swap1\n              dup2\n              dup2\n              mstore\n              0x20\n              add\n              dup4\n              dup4\n              dup1\n              dup3\n              dup5\n              calldatacopy\n              dup3\n              add\n              swap2\n              pop\n              pop\n              pop\n              pop\n              pop\n              pop\n              swap2\n              swap3\n              swap2\n              swap3\n              swap1\n              pop\n              pop\n              pop\n              jump(tag_19)\n            tag_26:\n              stop\n                /* \"training/contracts/lottery_test.sol\":1119:1144  string public lotteryName */\n            tag_5:\n              callvalue\n                /* \"--CODEGEN--\":8:17   */\n              dup1\n                /* \"--CODEGEN--\":5:7   */\n              iszero\n              tag_27\n              jumpi\n                /* \"--CODEGEN--\":30:31   */\n              0x0\n                /* \"--CODEGEN--\":27:28   */\n              dup1\n                /* \"--CODEGEN--\":20:32   */\n              revert\n                /* \"--CODEGEN--\":5:7   */\n            tag_27:\n                /* \"training/contracts/lottery_test.sol\":1119:1144  string public lotteryName */\n              pop\n              tag_28\n              jump(tag_29)\n            tag_28:\n              mload(0x40)\n              dup1\n              dup1\n              0x20\n              add\n              dup3\n              dup2\n              sub\n              dup3\n              mstore\n              dup4\n              dup2\n              dup2\n              mload\n              dup2\n              mstore\n              0x20\n              add\n              swap2\n              pop\n              dup1\n              mload\n              swap1\n              0x20\n              add\n              swap1\n              dup1\n              dup4\n              dup4\n                /* \"--CODEGEN--\":23:24   */\n              0x0\n                /* \"--CODEGEN--\":8:108   */\n            tag_30:\n                /* \"--CODEGEN--\":33:36   */\n              dup4\n                /* \"--CODEGEN--\":30:31   */\n              dup2\n                /* \"--CODEGEN--\":27:37   */\n              lt\n                /* \"--CODEGEN--\":8:108   */\n              iszero\n              tag_31\n              jumpi\n                /* \"--CODEGEN--\":99:100   */\n              dup1\n                /* \"--CODEGEN--\":94:97   */\n              dup3\n                /* \"--CODEGEN--\":90:101   */\n              add\n                /* \"--CODEGEN--\":84:102   */\n              mload\n                /* \"--CODEGEN--\":80:81   */\n              dup2\n                /* \"--CODEGEN--\":75:78   */\n              dup5\n                /* \"--CODEGEN--\":71:82   */\n              add\n                /* \"--CODEGEN--\":64:103   */\n              mstore\n                /* \"--CODEGEN--\":52:54   */\n              0x20\n                /* \"--CODEGEN--\":49:50   */\n              dup2\n                /* \"--CODEGEN--\":45:55   */\n              add\n                /* \"--CODEGEN--\":40:55   */\n              swap1\n              pop\n                /* \"--CODEGEN--\":8:108   */\n              jump(tag_30)\n            tag_31:\n                /* \"--CODEGEN--\":12:26   */\n              pop\n                /* \"training/contracts/lottery_test.sol\":1119:1144  string public lotteryName */\n              pop\n              pop\n              pop\n              swap1\n              pop\n              swap1\n              dup2\n              add\n              swap1\n              0x1f\n              and\n              dup1\n              iszero\n              tag_33\n              jumpi\n              dup1\n              dup3\n              sub\n              dup1\n              mload\n              0x1\n              dup4\n              0x20\n              sub\n              0x100\n              exp\n              sub\n              not\n              and\n              dup2\n              mstore\n              0x20\n              add\n              swap2\n              pop\n            tag_33:\n              pop\n              swap3\n              pop\n              pop\n              pop\n              mload(0x40)\n              dup1\n              swap2\n              sub\n              swap1\n              return\n                /* \"training/contracts/lottery_test.sol\":1189:1211  address public manager */\n            tag_6:\n              callvalue\n                /* \"--CODEGEN--\":8:17   */\n              dup1\n                /* \"--CODEGEN--\":5:7   */\n              iszero\n              tag_34\n              jumpi\n                /* \"--CODEGEN--\":30:31   */\n              0x0\n                /* \"--CODEGEN--\":27:28   */\n              dup1\n                /* \"--CODEGEN--\":20:32   */\n              revert\n                /* \"--CODEGEN--\":5:7   */\n            tag_34:\n                /* \"training/contracts/lottery_test.sol\":1189:1211  address public manager */\n              pop\n              tag_35\n              jump(tag_36)\n            tag_35:\n              mload(0x40)\n              dup1\n              dup3\n              0xffffffffffffffffffffffffffffffffffffffff\n              and\n              0xffffffffffffffffffffffffffffffffffffffff\n              and\n              dup2\n              mstore\n              0x20\n              add\n              swap2\n              pop\n              pop\n              mload(0x40)\n              dup1\n              swap2\n              sub\n              swap1\n              return\n                /* \"training/contracts/lottery_test.sol\":1339:1370  address[] public addressIndexes */\n            tag_7:\n              callvalue\n                /* \"--CODEGEN--\":8:17   */\n              dup1\n                /* \"--CODEGEN--\":5:7   */\n              iszero\n              tag_37\n              jumpi\n                /* \"--CODEGEN--\":30:31   */\n              0x0\n                /* \"--CODEGEN--\":27:28   */\n              dup1\n                /* \"--CODEGEN--\":20:32   */\n              revert\n                /* \"--CODEGEN--\":5:7   */\n            tag_37:\n                /* \"training/contracts/lottery_test.sol\":1339:1370  address[] public addressIndexes */\n              pop\n              tag_38\n              0x4\n              dup1\n              calldatasize\n              sub\n              dup2\n              add\n              swap1\n              dup1\n              dup1\n              calldataload\n              swap1\n              0x20\n              add\n              swap1\n              swap3\n              swap2\n              swap1\n              pop\n              pop\n              pop\n              jump(tag_39)\n            tag_38:\n              mload(0x40)\n              dup1\n              dup3\n              0xffffffffffffffffffffffffffffffffffffffff\n              and\n              0xffffffffffffffffffffffffffffffffffffffff\n              and\n              dup2\n              mstore\n              0x20\n              add\n              swap2\n              pop\n              pop\n              mload(0x40)\n              dup1\n              swap2\n              sub\n              swap1\n              return\n                /* \"training/contracts/lottery_test.sol\":3628:3873  function getPlayer(address playerAddress) public view returns (string, uint) {... */\n            tag_8:\n              callvalue\n                /* \"--CODEGEN--\":8:17   */\n              dup1\n                /* \"--CODEGEN--\":5:7   */\n              iszero\n              tag_40\n              jumpi\n                /* \"--CODEGEN--\":30:31   */\n              0x0\n                /* \"--CODEGEN--\":27:28   */\n              dup1\n                /* \"--CODEGEN--\":20:32   */\n              revert\n                /* \"--CODEGEN--\":5:7   */\n            tag_40:\n                /* \"training/contracts/lottery_test.sol\":3628:3873  function getPlayer(address playerAddress) public view returns (string, uint) {... */\n              pop\n              tag_41\n              0x4\n              dup1\n              calldatasize\n              sub\n              dup2\n              add\n              swap1\n              dup1\n              dup1\n              calldataload\n              0xffffffffffffffffffffffffffffffffffffffff\n              and\n              swap1\n              0x20\n              add\n              swap1\n              swap3\n              swap2\n              swap1\n              pop\n              pop\n              pop\n              jump(tag_42)\n            tag_41:\n              mload(0x40)\n              dup1\n              dup1\n              0x20\n              add\n              dup4\n              dup2\n              mstore\n              0x20\n              add\n              dup3\n              dup2\n              sub\n              dup3\n              mstore\n              dup5\n              dup2\n              dup2\n              mload\n              dup2\n              mstore\n              0x20\n              add\n              swap2\n              pop\n              dup1\n              mload\n              swap1\n              0x20\n              add\n              swap1\n              dup1\n              dup4\n              dup4\n                /* \"--CODEGEN--\":23:24   */\n              0x0\n                /* \"--CODEGEN--\":8:108   */\n            tag_43:\n                /* \"--CODEGEN--\":33:36   */\n              dup4\n                /* \"--CODEGEN--\":30:31   */\n              dup2\n                /* \"--CODEGEN--\":27:37   */\n              lt\n                /* \"--CODEGEN--\":8:108   */\n              iszero\n              tag_44\n              jumpi\n                /* \"--CODEGEN--\":99:100   */\n              dup1\n                /* \"--CODEGEN--\":94:97   */\n              dup3\n                /* \"--CODEGEN--\":90:101   */\n              add\n                /* \"--CODEGEN--\":84:102   */\n              mload\n                /* \"--CODEGEN--\":80:81   */\n              dup2\n                /* \"--CODEGEN--\":75:78   */\n              dup5\n                /* \"--CODEGEN--\":71:82   */\n              add\n                /* \"--CODEGEN--\":64:103   */\n              mstore\n                /* \"--CODEGEN--\":52:54   */\n              0x20\n                /* \"--CODEGEN--\":49:50   */\n              dup2\n                /* \"--CODEGEN--\":45:55   */\n              add\n                /* \"--CODEGEN--\":40:55   */\n              swap1\n              pop\n                /* \"--CODEGEN--\":8:108   */\n              jump(tag_43)\n            tag_44:\n                /* \"--CODEGEN--\":12:26   */\n              pop\n                /* \"training/contracts/lottery_test.sol\":3628:3873  function getPlayer(address playerAddress) public view returns (string, uint) {... */\n              pop\n              pop\n              pop\n              swap1\n              pop\n              swap1\n              dup2\n              add\n              swap1\n              0x1f\n              and\n              dup1\n              iszero\n              tag_46\n              jumpi\n              dup1\n              dup3\n              sub\n              dup1\n              mload\n              0x1\n              dup4\n              0x20\n              sub\n              0x100\n              exp\n              sub\n              not\n              and\n              dup2\n              mstore\n              0x20\n              add\n              swap2\n              pop\n            tag_46:\n              pop\n              swap4\n              pop\n              pop\n              pop\n              pop\n              mload(0x40)\n              dup1\n              swap2\n              sub\n              swap1\n              return\n                /* \"training/contracts/lottery_test.sol\":1585:1613  uint public ethToParticipate */\n            tag_9:\n              callvalue\n                /* \"--CODEGEN--\":8:17   */\n              dup1\n                /* \"--CODEGEN--\":5:7   */\n              iszero\n              tag_47\n              jumpi\n                /* \"--CODEGEN--\":30:31   */\n              0x0\n                /* \"--CODEGEN--\":27:28   */\n              dup1\n                /* \"--CODEGEN--\":20:32   */\n              revert\n                /* \"--CODEGEN--\":5:7   */\n            tag_47:\n                /* \"training/contracts/lottery_test.sol\":1585:1613  uint public ethToParticipate */\n              pop\n              tag_48\n              jump(tag_49)\n            tag_48:\n              mload(0x40)\n              dup1\n              dup3\n              dup2\n              mstore\n              0x20\n              add\n              swap2\n              pop\n              pop\n              mload(0x40)\n              dup1\n              swap2\n              sub\n              swap1\n              return\n                /* \"training/contracts/lottery_test.sol\":1548:1579  uint public maxEntriesForPlayer */\n            tag_10:\n              callvalue\n                /* \"--CODEGEN--\":8:17   */\n              dup1\n                /* \"--CODEGEN--\":5:7   */\n              iszero\n              tag_50\n              jumpi\n                /* \"--CODEGEN--\":30:31   */\n              0x0\n                /* \"--CODEGEN--\":27:28   */\n              dup1\n                /* \"--CODEGEN--\":20:32   */\n              revert\n                /* \"--CODEGEN--\":5:7   */\n            tag_50:\n                /* \"training/contracts/lottery_test.sol\":1548:1579  uint public maxEntriesForPlayer */\n              pop\n              tag_51\n              jump(tag_52)\n            tag_51:\n              mload(0x40)\n              dup1\n              dup3\n              dup2\n              mstore\n              0x20\n              add\n              swap2\n              pop\n              pop\n              mload(0x40)\n              dup1\n              swap2\n              sub\n              swap1\n              return\n                /* \"training/contracts/lottery_test.sol\":3531:3622  function getPlayers() public view returns(address[]) {... */\n            tag_11:\n              callvalue\n                /* \"--CODEGEN--\":8:17   */\n              dup1\n                /* \"--CODEGEN--\":5:7   */\n              iszero\n              tag_53\n              jumpi\n                /* \"--CODEGEN--\":30:31   */\n              0x0\n                /* \"--CODEGEN--\":27:28   */\n              dup1\n                /* \"--CODEGEN--\":20:32   */\n              revert\n                /* \"--CODEGEN--\":5:7   */\n            tag_53:\n                /* \"training/contracts/lottery_test.sol\":3531:3622  function getPlayers() public view returns(address[]) {... */\n              pop\n              tag_54\n              jump(tag_55)\n            tag_54:\n              mload(0x40)\n              dup1\n              dup1\n              0x20\n              add\n              dup3\n              dup2\n              sub\n              dup3\n              mstore\n              dup4\n              dup2\n              dup2\n              mload\n              dup2\n              mstore\n              0x20\n              add\n              swap2\n              pop\n              dup1\n              mload\n              swap1\n              0x20\n              add\n              swap1\n              0x20\n              mul\n              dup1\n              dup4\n              dup4\n                /* \"--CODEGEN--\":23:24   */\n              0x0\n                /* \"--CODEGEN--\":8:108   */\n            tag_56:\n                /* \"--CODEGEN--\":33:36   */\n              dup4\n                /* \"--CODEGEN--\":30:31   */\n              dup2\n                /* \"--CODEGEN--\":27:37   */\n              lt\n                /* \"--CODEGEN--\":8:108   */\n              iszero\n              tag_57\n              jumpi\n                /* \"--CODEGEN--\":99:100   */\n              dup1\n                /* \"--CODEGEN--\":94:97   */\n              dup3\n                /* \"--CODEGEN--\":90:101   */\n              add\n                /* \"--CODEGEN--\":84:102   */\n              mload\n                /* \"--CODEGEN--\":80:81   */\n              dup2\n                /* \"--CODEGEN--\":75:78   */\n              dup5\n                /* \"--CODEGEN--\":71:82   */\n              add\n                /* \"--CODEGEN--\":64:103   */\n              mstore\n                /* \"--CODEGEN--\":52:54   */\n              0x20\n                /* \"--CODEGEN--\":49:50   */\n              dup2\n                /* \"--CODEGEN--\":45:55   */\n              add\n                /* \"--CODEGEN--\":40:55   */\n              swap1\n              pop\n                /* \"--CODEGEN--\":8:108   */\n              jump(tag_56)\n            tag_57:\n                /* \"--CODEGEN--\":12:26   */\n              pop\n                /* \"training/contracts/lottery_test.sol\":3531:3622  function getPlayers() public view returns(address[]) {... */\n              pop\n              pop\n              pop\n              swap1\n              pop\n              add\n              swap3\n              pop\n              pop\n              pop\n              mload(0x40)\n              dup1\n              swap2\n              sub\n              swap1\n              return\n                /* \"training/contracts/lottery_test.sol\":2659:2899  function activateLottery(uint maxEntries, uint ethRequired) public restricted {... */\n            tag_12:\n              callvalue\n                /* \"--CODEGEN--\":8:17   */\n              dup1\n                /* \"--CODEGEN--\":5:7   */\n              iszero\n              tag_59\n              jumpi\n                /* \"--CODEGEN--\":30:31   */\n              0x0\n                /* \"--CODEGEN--\":27:28   */\n              dup1\n                /* \"--CODEGEN--\":20:32   */\n              revert\n                /* \"--CODEGEN--\":5:7   */\n            tag_59:\n                /* \"training/contracts/lottery_test.sol\":2659:2899  function activateLottery(uint maxEntries, uint ethRequired) public restricted {... */\n              pop\n              tag_60\n              0x4\n              dup1\n              calldatasize\n              sub\n              dup2\n              add\n              swap1\n              dup1\n              dup1\n              calldataload\n              swap1\n              0x20\n              add\n              swap1\n              swap3\n              swap2\n              swap1\n              dup1\n              calldataload\n              swap1\n              0x20\n              add\n              swap1\n              swap3\n              swap2\n              swap1\n              pop\n              pop\n              pop\n              jump(tag_61)\n            tag_60:\n              stop\n                /* \"training/contracts/lottery_test.sol\":3879:3969  function getWinningPrice() public view returns (uint) {... */\n            tag_13:\n              callvalue\n                /* \"--CODEGEN--\":8:17   */\n              dup1\n                /* \"--CODEGEN--\":5:7   */\n              iszero\n              tag_62\n              jumpi\n                /* \"--CODEGEN--\":30:31   */\n              0x0\n                /* \"--CODEGEN--\":27:28   */\n              dup1\n                /* \"--CODEGEN--\":20:32   */\n              revert\n                /* \"--CODEGEN--\":5:7   */\n            tag_62:\n                /* \"training/contracts/lottery_test.sol\":3879:3969  function getWinningPrice() public view returns (uint) {... */\n              pop\n              tag_63\n              jump(tag_64)\n            tag_63:\n              mload(0x40)\n              dup1\n              dup3\n              dup2\n              mstore\n              0x20\n              add\n              swap2\n              pop\n              pop\n              mload(0x40)\n              dup1\n              swap2\n              sub\n              swap1\n              return\n                /* \"training/contracts/lottery_test.sol\":1491:1511  Player public winner */\n            tag_14:\n              callvalue\n                /* \"--CODEGEN--\":8:17   */\n              dup1\n                /* \"--CODEGEN--\":5:7   */\n              iszero\n              tag_65\n              jumpi\n                /* \"--CODEGEN--\":30:31   */\n              0x0\n                /* \"--CODEGEN--\":27:28   */\n              dup1\n                /* \"--CODEGEN--\":20:32   */\n              revert\n                /* \"--CODEGEN--\":5:7   */\n            tag_65:\n                /* \"training/contracts/lottery_test.sol\":1491:1511  Player public winner */\n              pop\n              tag_66\n              jump(tag_67)\n            tag_66:\n              mload(0x40)\n              dup1\n              dup1\n              0x20\n              add\n              dup5\n              dup2\n              mstore\n              0x20\n              add\n              dup4\n              dup2\n              mstore\n              0x20\n              add\n              dup3\n              dup2\n              sub\n              dup3\n              mstore\n              dup6\n              dup2\n              dup2\n              mload\n              dup2\n              mstore\n              0x20\n              add\n              swap2\n              pop\n              dup1\n              mload\n              swap1\n              0x20\n              add\n              swap1\n              dup1\n              dup4\n              dup4\n                /* \"--CODEGEN--\":23:24   */\n              0x0\n                /* \"--CODEGEN--\":8:108   */\n            tag_68:\n                /* \"--CODEGEN--\":33:36   */\n              dup4\n                /* \"--CODEGEN--\":30:31   */\n              dup2\n                /* \"--CODEGEN--\":27:37   */\n              lt\n                /* \"--CODEGEN--\":8:108   */\n              iszero\n              tag_69\n              jumpi\n                /* \"--CODEGEN--\":99:100   */\n              dup1\n                /* \"--CODEGEN--\":94:97   */\n              dup3\n                /* \"--CODEGEN--\":90:101   */\n              add\n                /* \"--CODEGEN--\":84:102   */\n              mload\n                /* \"--CODEGEN--\":80:81   */\n              dup2\n                /* \"--CODEGEN--\":75:78   */\n              dup5\n                /* \"--CODEGEN--\":71:82   */\n              add\n                /* \"--CODEGEN--\":64:103   */\n              mstore\n                /* \"--CODEGEN--\":52:54   */\n              0x20\n                /* \"--CODEGEN--\":49:50   */\n              dup2\n                /* \"--CODEGEN--\":45:55   */\n              add\n                /* \"--CODEGEN--\":40:55   */\n              swap1\n              pop\n                /* \"--CODEGEN--\":8:108   */\n              jump(tag_68)\n            tag_69:\n                /* \"--CODEGEN--\":12:26   */\n              pop\n                /* \"training/contracts/lottery_test.sol\":1491:1511  Player public winner */\n              pop\n              pop\n              pop\n              swap1\n              pop\n              swap1\n              dup2\n              add\n              swap1\n              0x1f\n              and\n              dup1\n              iszero\n              tag_71\n              jumpi\n              dup1\n              dup3\n              sub\n              dup1\n              mload\n              0x1\n              dup4\n              0x20\n              sub\n              0x100\n              exp\n              sub\n              not\n              and\n              dup2\n              mstore\n              0x20\n              add\n              swap2\n              pop\n            tag_71:\n              pop\n              swap5\n              pop\n              pop\n              pop\n              pop\n              pop\n              mload(0x40)\n              dup1\n              swap2\n              sub\n              swap1\n              return\n                /* \"training/contracts/lottery_test.sol\":1416:1443  address[] public lotteryBag */\n            tag_15:\n              callvalue\n                /* \"--CODEGEN--\":8:17   */\n              dup1\n                /* \"--CODEGEN--\":5:7   */\n              iszero\n              tag_72\n              jumpi\n                /* \"--CODEGEN--\":30:31   */\n              0x0\n                /* \"--CODEGEN--\":27:28   */\n              dup1\n                /* \"--CODEGEN--\":20:32   */\n              revert\n                /* \"--CODEGEN--\":5:7   */\n            tag_72:\n                /* \"training/contracts/lottery_test.sol\":1416:1443  address[] public lotteryBag */\n              pop\n              tag_73\n              0x4\n              dup1\n              calldatasize\n              sub\n              dup2\n              add\n              swap1\n              dup1\n              dup1\n              calldataload\n              swap1\n              0x20\n              add\n              swap1\n              swap3\n              swap2\n              swap1\n              pop\n              pop\n              pop\n              jump(tag_74)\n            tag_73:\n              mload(0x40)\n              dup1\n              dup3\n              0xffffffffffffffffffffffffffffffffffffffff\n              and\n              0xffffffffffffffffffffffffffffffffffffffff\n              and\n              dup2\n              mstore\n              0x20\n              add\n              swap2\n              pop\n              pop\n              mload(0x40)\n              dup1\n              swap2\n              sub\n              swap1\n              return\n                /* \"training/contracts/lottery_test.sol\":1945:2653  function participate(string playerName) public payable {... */\n            tag_19:\n                /* \"training/contracts/lottery_test.sol\":2045:2046  0 */\n              0x0\n                /* \"training/contracts/lottery_test.sol\":2024:2034  playerName */\n              dup2\n                /* \"training/contracts/lottery_test.sol\":2018:2042  bytes(playerName).length */\n              mload\n                /* \"training/contracts/lottery_test.sol\":2018:2046  bytes(playerName).length > 0 */\n              gt\n                /* \"training/contracts/lottery_test.sol\":2010:2047  require(bytes(playerName).length > 0) */\n              iszero\n              iszero\n              tag_76\n              jumpi\n              0x0\n              dup1\n              revert\n            tag_76:\n                /* \"training/contracts/lottery_test.sol\":2065:2078  isLotteryLive */\n              0x8\n              0x0\n              swap1\n              sload\n              swap1\n              0x100\n              exp\n              swap1\n              div\n              0xff\n              and\n                /* \"training/contracts/lottery_test.sol\":2057:2079  require(isLotteryLive) */\n              iszero\n              iszero\n              tag_77\n              jumpi\n              0x0\n              dup1\n              revert\n            tag_77:\n                /* \"training/contracts/lottery_test.sol\":2129:2136  1 ether */\n              0xde0b6b3a7640000\n                /* \"training/contracts/lottery_test.sol\":2110:2126  ethToParticipate */\n              sload(0xa)\n                /* \"training/contracts/lottery_test.sol\":2110:2136  ethToParticipate * 1 ether */\n              mul\n                /* \"training/contracts/lottery_test.sol\":2097:2106  msg.value */\n              callvalue\n                /* \"training/contracts/lottery_test.sol\":2097:2136  msg.value == ethToParticipate * 1 ether */\n              eq\n                /* \"training/contracts/lottery_test.sol\":2089:2137  require(msg.value == ethToParticipate * 1 ether) */\n              iszero\n              iszero\n              tag_78\n              jumpi\n              0x0\n              dup1\n              revert\n            tag_78:\n                /* \"training/contracts/lottery_test.sol\":2188:2207  maxEntriesForPlayer */\n              sload(0x9)\n                /* \"training/contracts/lottery_test.sol\":2155:2162  players */\n              0x3\n                /* \"training/contracts/lottery_test.sol\":2155:2174  players[msg.sender] */\n              0x0\n                /* \"training/contracts/lottery_test.sol\":2163:2173  msg.sender */\n              caller\n                /* \"training/contracts/lottery_test.sol\":2155:2174  players[msg.sender] */\n              0xffffffffffffffffffffffffffffffffffffffff\n              and\n              0xffffffffffffffffffffffffffffffffffffffff\n              and\n              dup2\n              mstore\n              0x20\n              add\n              swap1\n              dup2\n              mstore\n              0x20\n              add\n              0x0\n              keccak256\n                /* \"training/contracts/lottery_test.sol\":2155:2185  players[msg.sender].entryCount */\n              0x1\n              add\n              sload\n                /* \"training/contracts/lottery_test.sol\":2155:2207  players[msg.sender].entryCount < maxEntriesForPlayer */\n              lt\n                /* \"training/contracts/lottery_test.sol\":2147:2208  require(players[msg.sender].entryCount < maxEntriesForPlayer) */\n              iszero\n              iszero\n              tag_79\n              jumpi\n              0x0\n              dup1\n              revert\n            tag_79:\n                /* \"training/contracts/lottery_test.sol\":2223:2246  isNewPlayer(msg.sender) */\n              tag_80\n                /* \"training/contracts/lottery_test.sol\":2235:2245  msg.sender */\n              caller\n                /* \"training/contracts/lottery_test.sol\":2223:2234  isNewPlayer */\n              tag_81\n                /* \"training/contracts/lottery_test.sol\":2223:2246  isNewPlayer(msg.sender) */\n              jump\t// in\n            tag_80:\n                /* \"training/contracts/lottery_test.sol\":2219:2501  if (isNewPlayer(msg.sender)) {... */\n              iszero\n              tag_82\n              jumpi\n                /* \"training/contracts/lottery_test.sol\":2295:2296  1 */\n              0x1\n                /* \"training/contracts/lottery_test.sol\":2262:2269  players */\n              0x3\n                /* \"training/contracts/lottery_test.sol\":2262:2281  players[msg.sender] */\n              0x0\n                /* \"training/contracts/lottery_test.sol\":2270:2280  msg.sender */\n              caller\n                /* \"training/contracts/lottery_test.sol\":2262:2281  players[msg.sender] */\n              0xffffffffffffffffffffffffffffffffffffffff\n              and\n              0xffffffffffffffffffffffffffffffffffffffff\n              and\n              dup2\n              mstore\n              0x20\n              add\n              swap1\n              dup2\n              mstore\n              0x20\n              add\n              0x0\n              keccak256\n                /* \"training/contracts/lottery_test.sol\":2262:2292  players[msg.sender].entryCount */\n              0x1\n              add\n                /* \"training/contracts/lottery_test.sol\":2262:2296  players[msg.sender].entryCount = 1 */\n              dup2\n              swap1\n              sstore\n              pop\n                /* \"training/contracts/lottery_test.sol\":2337:2347  playerName */\n              dup1\n                /* \"training/contracts/lottery_test.sol\":2310:2317  players */\n              0x3\n                /* \"training/contracts/lottery_test.sol\":2310:2329  players[msg.sender] */\n              0x0\n                /* \"training/contracts/lottery_test.sol\":2318:2328  msg.sender */\n              caller\n                /* \"training/contracts/lottery_test.sol\":2310:2329  players[msg.sender] */\n              0xffffffffffffffffffffffffffffffffffffffff\n              and\n              0xffffffffffffffffffffffffffffffffffffffff\n              and\n              dup2\n              mstore\n              0x20\n              add\n              swap1\n              dup2\n              mstore\n              0x20\n              add\n              0x0\n              keccak256\n                /* \"training/contracts/lottery_test.sol\":2310:2334  players[msg.sender].name */\n              0x0\n              add\n                /* \"training/contracts/lottery_test.sol\":2310:2347  players[msg.sender].name = playerName */\n              swap1\n              dup1\n              mload\n              swap1\n              0x20\n              add\n              swap1\n              tag_83\n              swap3\n              swap2\n              swap1\n              jump\t// in(tag_84)\n            tag_83:\n              pop\n                /* \"training/contracts/lottery_test.sol\":2423:2424  1 */\n              0x1\n                /* \"training/contracts/lottery_test.sol\":2389:2403  addressIndexes */\n              0x2\n                /* \"training/contracts/lottery_test.sol\":2409:2419  msg.sender */\n              caller\n                /* \"training/contracts/lottery_test.sol\":2389:2420  addressIndexes.push(msg.sender) */\n              swap1\n              dup1\n                /* \"--CODEGEN--\":39:40   */\n              0x1\n                /* \"--CODEGEN--\":33:36   */\n              dup2\n                /* \"--CODEGEN--\":27:37   */\n              sload\n                /* \"--CODEGEN--\":23:41   */\n              add\n                /* \"--CODEGEN--\":57:67   */\n              dup1\n                /* \"--CODEGEN--\":52:55   */\n              dup3\n                /* \"--CODEGEN--\":45:68   */\n              sstore\n                /* \"--CODEGEN--\":79:89   */\n              dup1\n                /* \"--CODEGEN--\":72:89   */\n              swap2\n              pop\n                /* \"--CODEGEN--\":0:93   */\n              pop\n                /* \"training/contracts/lottery_test.sol\":2389:2420  addressIndexes.push(msg.sender) */\n              swap1\n              0x1\n              dup3\n              sub\n              swap1\n              0x0\n              mstore\n              keccak256(0x0, 0x20)\n              add\n              0x0\n              swap1\n              swap2\n              swap3\n              swap1\n              swap2\n              swap1\n              swap2\n              0x100\n              exp\n              dup2\n              sload\n              dup2\n              0xffffffffffffffffffffffffffffffffffffffff\n              mul\n              not\n              and\n              swap1\n              dup4\n              0xffffffffffffffffffffffffffffffffffffffff\n              and\n              mul\n              or\n              swap1\n              sstore\n              pop\n                /* \"training/contracts/lottery_test.sol\":2389:2424  addressIndexes.push(msg.sender) - 1 */\n              sub\n                /* \"training/contracts/lottery_test.sol\":2361:2368  players */\n              0x3\n                /* \"training/contracts/lottery_test.sol\":2361:2380  players[msg.sender] */\n              0x0\n                /* \"training/contracts/lottery_test.sol\":2369:2379  msg.sender */\n              caller\n                /* \"training/contracts/lottery_test.sol\":2361:2380  players[msg.sender] */\n              0xffffffffffffffffffffffffffffffffffffffff\n              and\n              0xffffffffffffffffffffffffffffffffffffffff\n              and\n              dup2\n              mstore\n              0x20\n              add\n              swap1\n              dup2\n              mstore\n              0x20\n              add\n              0x0\n              keccak256\n                /* \"training/contracts/lottery_test.sol\":2361:2386  players[msg.sender].index */\n              0x2\n              add\n                /* \"training/contracts/lottery_test.sol\":2361:2424  players[msg.sender].index = addressIndexes.push(msg.sender) - 1 */\n              dup2\n              swap1\n              sstore\n              pop\n                /* \"training/contracts/lottery_test.sol\":2219:2501  if (isNewPlayer(msg.sender)) {... */\n              jump(tag_86)\n            tag_82:\n                /* \"training/contracts/lottery_test.sol\":2489:2490  1 */\n              0x1\n                /* \"training/contracts/lottery_test.sol\":2455:2462  players */\n              0x3\n                /* \"training/contracts/lottery_test.sol\":2455:2474  players[msg.sender] */\n              0x0\n                /* \"training/contracts/lottery_test.sol\":2463:2473  msg.sender */\n              caller\n                /* \"training/contracts/lottery_test.sol\":2455:2474  players[msg.sender] */\n              0xffffffffffffffffffffffffffffffffffffffff\n              and\n              0xffffffffffffffffffffffffffffffffffffffff\n              and\n              dup2\n              mstore\n              0x20\n              add\n              swap1\n              dup2\n              mstore\n              0x20\n              add\n              0x0\n              keccak256\n                /* \"training/contracts/lottery_test.sol\":2455:2485  players[msg.sender].entryCount */\n              0x1\n              add\n              0x0\n                /* \"training/contracts/lottery_test.sol\":2455:2490  players[msg.sender].entryCount += 1 */\n              dup3\n              dup3\n              sload\n              add\n              swap3\n              pop\n              pop\n              dup2\n              swap1\n              sstore\n              pop\n                /* \"training/contracts/lottery_test.sol\":2219:2501  if (isNewPlayer(msg.sender)) {... */\n            tag_86:\n                /* \"training/contracts/lottery_test.sol\":2511:2521  lotteryBag */\n              0x4\n                /* \"training/contracts/lottery_test.sol\":2527:2537  msg.sender */\n              caller\n                /* \"training/contracts/lottery_test.sol\":2511:2538  lotteryBag.push(msg.sender) */\n              swap1\n              dup1\n                /* \"--CODEGEN--\":39:40   */\n              0x1\n                /* \"--CODEGEN--\":33:36   */\n              dup2\n                /* \"--CODEGEN--\":27:37   */\n              sload\n                /* \"--CODEGEN--\":23:41   */\n              add\n                /* \"--CODEGEN--\":57:67   */\n              dup1\n                /* \"--CODEGEN--\":52:55   */\n              dup3\n                /* \"--CODEGEN--\":45:68   */\n              sstore\n                /* \"--CODEGEN--\":79:89   */\n              dup1\n                /* \"--CODEGEN--\":72:89   */\n              swap2\n              pop\n                /* \"--CODEGEN--\":0:93   */\n              pop\n                /* \"training/contracts/lottery_test.sol\":2511:2538  lotteryBag.push(msg.sender) */\n              swap1\n              0x1\n              dup3\n              sub\n              swap1\n              0x0\n              mstore\n              keccak256(0x0, 0x20)\n              add\n              0x0\n              swap1\n              swap2\n              swap3\n              swap1\n              swap2\n              swap1\n              swap2\n              0x100\n              exp\n              dup2\n              sload\n              dup2\n              0xffffffffffffffffffffffffffffffffffffffff\n              mul\n              not\n              and\n              swap1\n              dup4\n              0xffffffffffffffffffffffffffffffffffffffff\n              and\n              mul\n              or\n              swap1\n              sstore\n              pop\n              pop\n                /* \"training/contracts/lottery_test.sol\":2570:2646  PlayerParticipated(players[msg.sender].name, players[msg.sender].entryCount) */\n              0x76041b6e8130995874e79e751d284536c37242cb014fb0584ede1d1e64ce03c9\n                /* \"training/contracts/lottery_test.sol\":2589:2596  players */\n              0x3\n                /* \"training/contracts/lottery_test.sol\":2589:2608  players[msg.sender] */\n              0x0\n                /* \"training/contracts/lottery_test.sol\":2597:2607  msg.sender */\n              caller\n                /* \"training/contracts/lottery_test.sol\":2589:2608  players[msg.sender] */\n              0xffffffffffffffffffffffffffffffffffffffff\n              and\n              0xffffffffffffffffffffffffffffffffffffffff\n              and\n              dup2\n              mstore\n              0x20\n              add\n              swap1\n              dup2\n              mstore\n              0x20\n              add\n              0x0\n              keccak256\n                /* \"training/contracts/lottery_test.sol\":2589:2613  players[msg.sender].name */\n              0x0\n              add\n                /* \"training/contracts/lottery_test.sol\":2615:2622  players */\n              0x3\n                /* \"training/contracts/lottery_test.sol\":2615:2634  players[msg.sender] */\n              0x0\n                /* \"training/contracts/lottery_test.sol\":2623:2633  msg.sender */\n              caller\n                /* \"training/contracts/lottery_test.sol\":2615:2634  players[msg.sender] */\n              0xffffffffffffffffffffffffffffffffffffffff\n              and\n              0xffffffffffffffffffffffffffffffffffffffff\n              and\n              dup2\n              mstore\n              0x20\n              add\n              swap1\n              dup2\n              mstore\n              0x20\n              add\n              0x0\n              keccak256\n                /* \"training/contracts/lottery_test.sol\":2615:2645  players[msg.sender].entryCount */\n              0x1\n              add\n              sload\n                /* \"training/contracts/lottery_test.sol\":2570:2646  PlayerParticipated(players[msg.sender].name, players[msg.sender].entryCount) */\n              mload(0x40)\n              dup1\n              dup1\n              0x20\n              add\n              dup4\n              dup2\n              mstore\n              0x20\n              add\n              dup3\n              dup2\n              sub\n              dup3\n              mstore\n              dup5\n              dup2\n              dup2\n              sload\n              0x1\n              dup2\n              0x1\n              and\n              iszero\n              0x100\n              mul\n              sub\n              and\n              0x2\n              swap1\n              div\n              dup2\n              mstore\n              0x20\n              add\n              swap2\n              pop\n              dup1\n              sload\n              0x1\n              dup2\n              0x1\n              and\n              iszero\n              0x100\n              mul\n              sub\n              and\n              0x2\n              swap1\n              div\n              dup1\n              iszero\n              tag_88\n              jumpi\n              dup1\n              0x1f\n              lt\n              tag_89\n              jumpi\n              0x100\n              dup1\n              dup4\n              sload\n              div\n              mul\n              dup4\n              mstore\n              swap2\n              0x20\n              add\n              swap2\n              jump(tag_88)\n            tag_89:\n              dup3\n              add\n              swap2\n              swap1\n              0x0\n              mstore\n              keccak256(0x0, 0x20)\n              swap1\n            tag_90:\n              dup2\n              sload\n              dup2\n              mstore\n              swap1\n              0x1\n              add\n              swap1\n              0x20\n              add\n              dup1\n              dup4\n              gt\n              tag_90\n              jumpi\n              dup3\n              swap1\n              sub\n              0x1f\n              and\n              dup3\n              add\n              swap2\n            tag_88:\n              pop\n              pop\n              swap4\n              pop\n              pop\n              pop\n              pop\n              mload(0x40)\n              dup1\n              swap2\n              sub\n              swap1\n              log1\n                /* \"training/contracts/lottery_test.sol\":1945:2653  function participate(string playerName) public payable {... */\n              pop\n              jump\t// out\n                /* \"training/contracts/lottery_test.sol\":1517:1542  bool public isLotteryLive */\n            tag_22:\n              0x8\n              0x0\n              swap1\n              sload\n              swap1\n              0x100\n              exp\n              swap1\n              div\n              0xff\n              and\n              dup2\n              jump\t// out\n                /* \"training/contracts/lottery_test.sol\":2905:3525  function declareWinner() public restricted {... */\n            tag_25:\n                /* \"training/contracts/lottery_test.sol\":2999:3009  uint index */\n              0x0\n                /* \"training/contracts/lottery_test.sol\":4531:4538  manager */\n              0x1\n              0x0\n              swap1\n              sload\n              swap1\n              0x100\n              exp\n              swap1\n              div\n              0xffffffffffffffffffffffffffffffffffffffff\n              and\n                /* \"training/contracts/lottery_test.sol\":4517:4538  msg.sender == manager */\n              0xffffffffffffffffffffffffffffffffffffffff\n              and\n                /* \"training/contracts/lottery_test.sol\":4517:4527  msg.sender */\n              caller\n                /* \"training/contracts/lottery_test.sol\":4517:4538  msg.sender == manager */\n              0xffffffffffffffffffffffffffffffffffffffff\n              and\n              eq\n                /* \"training/contracts/lottery_test.sol\":4509:4539  require(msg.sender == manager) */\n              iszero\n              iszero\n              tag_92\n              jumpi\n              0x0\n              dup1\n              revert\n            tag_92:\n                /* \"training/contracts/lottery_test.sol\":2986:2987  0 */\n              0x0\n                /* \"training/contracts/lottery_test.sol\":2966:2976  lotteryBag */\n              0x4\n                /* \"training/contracts/lottery_test.sol\":2966:2983  lotteryBag.length */\n              dup1\n              sload\n              swap1\n              pop\n                /* \"training/contracts/lottery_test.sol\":2966:2987  lotteryBag.length > 0 */\n              gt\n                /* \"training/contracts/lottery_test.sol\":2958:2988  require(lotteryBag.length > 0) */\n              iszero\n              iszero\n              tag_94\n              jumpi\n              0x0\n              dup1\n              revert\n            tag_94:\n                /* \"training/contracts/lottery_test.sol\":3037:3047  lotteryBag */\n              0x4\n                /* \"training/contracts/lottery_test.sol\":3037:3054  lotteryBag.length */\n              dup1\n              sload\n              swap1\n              pop\n                /* \"training/contracts/lottery_test.sol\":3012:3034  generateRandomNumber() */\n              tag_95\n                /* \"training/contracts/lottery_test.sol\":3012:3032  generateRandomNumber */\n              tag_96\n                /* \"training/contracts/lottery_test.sol\":3012:3034  generateRandomNumber() */\n              jump\t// in\n            tag_95:\n                /* \"training/contracts/lottery_test.sol\":3012:3054  generateRandomNumber() % lotteryBag.length */\n              dup2\n              iszero\n              iszero\n              tag_97\n              jumpi\n              invalid\n            tag_97:\n              mod\n                /* \"training/contracts/lottery_test.sol\":2999:3054  uint index = generateRandomNumber() % lotteryBag.length */\n              swap1\n              pop\n                /* \"training/contracts/lottery_test.sol\":3064:3074  lotteryBag */\n              0x4\n                /* \"training/contracts/lottery_test.sol\":3075:3080  index */\n              dup2\n                /* \"training/contracts/lottery_test.sol\":3064:3081  lotteryBag[index] */\n              dup2\n              sload\n              dup2\n              lt\n              iszero\n              iszero\n              tag_98\n              jumpi\n              invalid\n            tag_98:\n              swap1\n              0x0\n              mstore\n              keccak256(0x0, 0x20)\n              add\n              0x0\n              swap1\n              sload\n              swap1\n              0x100\n              exp\n              swap1\n              div\n              0xffffffffffffffffffffffffffffffffffffffff\n              and\n                /* \"training/contracts/lottery_test.sol\":3064:3090  lotteryBag[index].transfer */\n              0xffffffffffffffffffffffffffffffffffffffff\n              and\n                /* \"training/contracts/lottery_test.sol\":3064:3104  lotteryBag[index].transfer(this.balance) */\n              0x8fc\n                /* \"training/contracts/lottery_test.sol\":3091:3095  this */\n              address\n                /* \"training/contracts/lottery_test.sol\":3091:3103  this.balance */\n              0xffffffffffffffffffffffffffffffffffffffff\n              and\n              balance\n                /* \"training/contracts/lottery_test.sol\":3064:3104  lotteryBag[index].transfer(this.balance) */\n              swap1\n              dup2\n              iszero\n              mul\n              swap1\n              mload(0x40)\n              0x0\n              mload(0x40)\n              dup1\n              dup4\n              sub\n              dup2\n              dup6\n              dup9\n              dup9\n              call\n              swap4\n              pop\n              pop\n              pop\n              pop\n              iszero\n                /* \"--CODEGEN--\":8:17   */\n              dup1\n                /* \"--CODEGEN--\":5:7   */\n              iszero\n              tag_100\n              jumpi\n                /* \"--CODEGEN--\":45:61   */\n              returndatasize\n                /* \"--CODEGEN--\":42:43   */\n              0x0\n                /* \"--CODEGEN--\":39:40   */\n              dup1\n                /* \"--CODEGEN--\":24:62   */\n              returndatacopy\n                /* \"--CODEGEN--\":77:93   */\n              returndatasize\n                /* \"--CODEGEN--\":74:75   */\n              0x0\n                /* \"--CODEGEN--\":67:94   */\n              revert\n                /* \"--CODEGEN--\":5:7   */\n            tag_100:\n                /* \"training/contracts/lottery_test.sol\":3064:3104  lotteryBag[index].transfer(this.balance) */\n              pop\n                /* \"training/contracts/lottery_test.sol\":3138:3145  players */\n              0x3\n                /* \"training/contracts/lottery_test.sol\":3138:3164  players[lotteryBag[index]] */\n              0x0\n                /* \"training/contracts/lottery_test.sol\":3146:3156  lotteryBag */\n              0x4\n                /* \"training/contracts/lottery_test.sol\":3157:3162  index */\n              dup4\n                /* \"training/contracts/lottery_test.sol\":3146:3163  lotteryBag[index] */\n              dup2\n              sload\n              dup2\n              lt\n              iszero\n              iszero\n              tag_101\n              jumpi\n              invalid\n            tag_101:\n              swap1\n              0x0\n              mstore\n              keccak256(0x0, 0x20)\n              add\n              0x0\n              swap1\n              sload\n              swap1\n              0x100\n              exp\n              swap1\n              div\n              0xffffffffffffffffffffffffffffffffffffffff\n              and\n                /* \"training/contracts/lottery_test.sol\":3138:3164  players[lotteryBag[index]] */\n              0xffffffffffffffffffffffffffffffffffffffff\n              and\n              0xffffffffffffffffffffffffffffffffffffffff\n              and\n              dup2\n              mstore\n              0x20\n              add\n              swap1\n              dup2\n              mstore\n              0x20\n              add\n              0x0\n              keccak256\n                /* \"training/contracts/lottery_test.sol\":3138:3169  players[lotteryBag[index]].name */\n              0x0\n              add\n                /* \"training/contracts/lottery_test.sol\":3124:3130  winner */\n              0x5\n                /* \"training/contracts/lottery_test.sol\":3124:3135  winner.name */\n              0x0\n              add\n                /* \"training/contracts/lottery_test.sol\":3124:3169  winner.name = players[lotteryBag[index]].name */\n              swap1\n              dup1\n              sload\n              0x1\n              dup2\n              0x1\n              and\n              iszero\n              0x100\n              mul\n              sub\n              and\n              0x2\n              swap1\n              div\n              tag_103\n              swap3\n              swap2\n              swap1\n              jump\t// in(tag_104)\n            tag_103:\n              pop\n                /* \"training/contracts/lottery_test.sol\":3199:3206  players */\n              0x3\n                /* \"training/contracts/lottery_test.sol\":3199:3225  players[lotteryBag[index]] */\n              0x0\n                /* \"training/contracts/lottery_test.sol\":3207:3217  lotteryBag */\n              0x4\n                /* \"training/contracts/lottery_test.sol\":3218:3223  index */\n              dup4\n                /* \"training/contracts/lottery_test.sol\":3207:3224  lotteryBag[index] */\n              dup2\n              sload\n              dup2\n              lt\n              iszero\n              iszero\n              tag_105\n              jumpi\n              invalid\n            tag_105:\n              swap1\n              0x0\n              mstore\n              keccak256(0x0, 0x20)\n              add\n              0x0\n              swap1\n              sload\n              swap1\n              0x100\n              exp\n              swap1\n              div\n              0xffffffffffffffffffffffffffffffffffffffff\n              and\n                /* \"training/contracts/lottery_test.sol\":3199:3225  players[lotteryBag[index]] */\n              0xffffffffffffffffffffffffffffffffffffffff\n              and\n              0xffffffffffffffffffffffffffffffffffffffff\n              and\n              dup2\n              mstore\n              0x20\n              add\n              swap1\n              dup2\n              mstore\n              0x20\n              add\n              0x0\n              keccak256\n                /* \"training/contracts/lottery_test.sol\":3199:3236  players[lotteryBag[index]].entryCount */\n              0x1\n              add\n              sload\n                /* \"training/contracts/lottery_test.sol\":3179:3185  winner */\n              0x5\n                /* \"training/contracts/lottery_test.sol\":3179:3196  winner.entryCount */\n              0x1\n              add\n                /* \"training/contracts/lottery_test.sol\":3179:3236  winner.entryCount = players[lotteryBag[index]].entryCount */\n              dup2\n              swap1\n              sstore\n              pop\n                /* \"training/contracts/lottery_test.sol\":3326:3327  0 */\n              0x0\n                /* \"training/contracts/lottery_test.sol\":3312:3328  new address[](0) */\n              mload(0x40)\n              swap1\n              dup1\n              dup3\n              mstore\n              dup1\n              0x20\n              mul\n              0x20\n              add\n              dup3\n              add\n              0x40\n              mstore\n              dup1\n              iszero\n              tag_107\n              jumpi\n              dup2\n              0x20\n              add\n                /* \"--CODEGEN--\":29:31   */\n              0x20\n                /* \"--CODEGEN--\":21:27   */\n              dup3\n                /* \"--CODEGEN--\":17:32   */\n              mul\n                /* \"--CODEGEN--\":117:121   */\n              dup1\n                /* \"--CODEGEN--\":105:115   */\n              codesize\n                /* \"--CODEGEN--\":97:103   */\n              dup4\n                /* \"--CODEGEN--\":88:122   */\n              codecopy\n                /* \"--CODEGEN--\":148:152   */\n              dup1\n                /* \"--CODEGEN--\":140:146   */\n              dup3\n                /* \"--CODEGEN--\":136:153   */\n              add\n                /* \"--CODEGEN--\":126:153   */\n              swap2\n              pop\n                /* \"--CODEGEN--\":0:157   */\n              pop\n                /* \"training/contracts/lottery_test.sol\":3312:3328  new address[](0) */\n              swap1\n              pop\n            tag_107:\n              pop\n                /* \"training/contracts/lottery_test.sol\":3299:3309  lotteryBag */\n              0x4\n                /* \"training/contracts/lottery_test.sol\":3299:3328  lotteryBag = new address[](0) */\n              swap1\n              dup1\n              mload\n              swap1\n              0x20\n              add\n              swap1\n              tag_108\n              swap3\n              swap2\n              swap1\n              jump\t// in(tag_109)\n            tag_108:\n              pop\n                /* \"training/contracts/lottery_test.sol\":3369:3370  0 */\n              0x0\n                /* \"training/contracts/lottery_test.sol\":3355:3371  new address[](0) */\n              mload(0x40)\n              swap1\n              dup1\n              dup3\n              mstore\n              dup1\n              0x20\n              mul\n              0x20\n              add\n              dup3\n              add\n              0x40\n              mstore\n              dup1\n              iszero\n              tag_110\n              jumpi\n              dup2\n              0x20\n              add\n                /* \"--CODEGEN--\":29:31   */\n              0x20\n                /* \"--CODEGEN--\":21:27   */\n              dup3\n                /* \"--CODEGEN--\":17:32   */\n              mul\n                /* \"--CODEGEN--\":117:121   */\n              dup1\n                /* \"--CODEGEN--\":105:115   */\n              codesize\n                /* \"--CODEGEN--\":97:103   */\n              dup4\n                /* \"--CODEGEN--\":88:122   */\n              codecopy\n                /* \"--CODEGEN--\":148:152   */\n              dup1\n                /* \"--CODEGEN--\":140:146   */\n              dup3\n                /* \"--CODEGEN--\":136:153   */\n              add\n                /* \"--CODEGEN--\":126:153   */\n              swap2\n              pop\n                /* \"--CODEGEN--\":0:157   */\n              pop\n                /* \"training/contracts/lottery_test.sol\":3355:3371  new address[](0) */\n              swap1\n              pop\n            tag_110:\n              pop\n                /* \"training/contracts/lottery_test.sol\":3338:3352  addressIndexes */\n              0x2\n                /* \"training/contracts/lottery_test.sol\":3338:3371  addressIndexes = new address[](0) */\n              swap1\n              dup1\n              mload\n              swap1\n              0x20\n              add\n              swap1\n              tag_111\n              swap3\n              swap2\n              swap1\n              jump\t// in(tag_109)\n            tag_111:\n              pop\n                /* \"training/contracts/lottery_test.sol\":3435:3440  false */\n              0x0\n                /* \"training/contracts/lottery_test.sol\":3419:3432  isLotteryLive */\n              0x8\n              0x0\n                /* \"training/contracts/lottery_test.sol\":3419:3440  isLotteryLive = false */\n              0x100\n              exp\n              dup2\n              sload\n              dup2\n              0xff\n              mul\n              not\n              and\n              swap1\n              dup4\n              iszero\n              iszero\n              mul\n              or\n              swap1\n              sstore\n              pop\n                /* \"training/contracts/lottery_test.sol\":3472:3518  WinnerDeclared(winner.name, winner.entryCount) */\n              0xd6d1eeba639254bd05e36261ae299af245328ab997fd9b7823d5fff17f1b74a4\n                /* \"training/contracts/lottery_test.sol\":3487:3493  winner */\n              0x5\n                /* \"training/contracts/lottery_test.sol\":3487:3498  winner.name */\n              0x0\n              add\n                /* \"training/contracts/lottery_test.sol\":3500:3506  winner */\n              0x5\n                /* \"training/contracts/lottery_test.sol\":3500:3517  winner.entryCount */\n              0x1\n              add\n              sload\n                /* \"training/contracts/lottery_test.sol\":3472:3518  WinnerDeclared(winner.name, winner.entryCount) */\n              mload(0x40)\n              dup1\n              dup1\n              0x20\n              add\n              dup4\n              dup2\n              mstore\n              0x20\n              add\n              dup3\n              dup2\n              sub\n              dup3\n              mstore\n              dup5\n              dup2\n              dup2\n              sload\n              0x1\n              dup2\n              0x1\n              and\n              iszero\n              0x100\n              mul\n              sub\n              and\n              0x2\n              swap1\n              div\n              dup2\n              mstore\n              0x20\n              add\n              swap2\n              pop\n              dup1\n              sload\n              0x1\n              dup2\n              0x1\n              and\n              iszero\n              0x100\n              mul\n              sub\n              and\n              0x2\n              swap1\n              div\n              dup1\n              iszero\n              tag_112\n              jumpi\n              dup1\n              0x1f\n              lt\n              tag_113\n              jumpi\n              0x100\n              dup1\n              dup4\n              sload\n              div\n              mul\n              dup4\n              mstore\n              swap2\n              0x20\n              add\n              swap2\n              jump(tag_112)\n            tag_113:\n              dup3\n              add\n              swap2\n              swap1\n              0x0\n              mstore\n              keccak256(0x0, 0x20)\n              swap1\n            tag_114:\n              dup2\n              sload\n              dup2\n              mstore\n              swap1\n              0x1\n              add\n              swap1\n              0x20\n              add\n              dup1\n              dup4\n              gt\n              tag_114\n              jumpi\n              dup3\n              swap1\n              sub\n              0x1f\n              and\n              dup3\n              add\n              swap2\n            tag_112:\n              pop\n              pop\n              swap4\n              pop\n              pop\n              pop\n              pop\n              mload(0x40)\n              dup1\n              swap2\n              sub\n              swap1\n              log1\n                /* \"training/contracts/lottery_test.sol\":2905:3525  function declareWinner() public restricted {... */\n              pop\n              jump\t// out\n                /* \"training/contracts/lottery_test.sol\":1119:1144  string public lotteryName */\n            tag_29:\n              0x0\n              dup1\n              sload\n              0x1\n              dup2\n              0x1\n              and\n              iszero\n              0x100\n              mul\n              sub\n              and\n              0x2\n              swap1\n              div\n              dup1\n              0x1f\n              add\n              0x20\n              dup1\n              swap2\n              div\n              mul\n              0x20\n              add\n              mload(0x40)\n              swap1\n              dup2\n              add\n              0x40\n              mstore\n              dup1\n              swap3\n              swap2\n              swap1\n              dup2\n              dup2\n              mstore\n              0x20\n              add\n              dup3\n              dup1\n              sload\n              0x1\n              dup2\n              0x1\n              and\n              iszero\n              0x100\n              mul\n              sub\n              and\n              0x2\n              swap1\n              div\n              dup1\n              iszero\n              tag_115\n              jumpi\n              dup1\n              0x1f\n              lt\n              tag_116\n              jumpi\n              0x100\n              dup1\n              dup4\n              sload\n              div\n              mul\n              dup4\n              mstore\n              swap2\n              0x20\n              add\n              swap2\n              jump(tag_115)\n            tag_116:\n              dup3\n              add\n              swap2\n              swap1\n              0x0\n              mstore\n              keccak256(0x0, 0x20)\n              swap1\n            tag_117:\n              dup2\n              sload\n              dup2\n              mstore\n              swap1\n              0x1\n              add\n              swap1\n              0x20\n              add\n              dup1\n              dup4\n              gt\n              tag_117\n              jumpi\n              dup3\n              swap1\n              sub\n              0x1f\n              and\n              dup3\n              add\n              swap2\n            tag_115:\n              pop\n              pop\n              pop\n              pop\n              pop\n              dup2\n              jump\t// out\n                /* \"training/contracts/lottery_test.sol\":1189:1211  address public manager */\n            tag_36:\n              0x1\n              0x0\n              swap1\n              sload\n              swap1\n              0x100\n              exp\n              swap1\n              div\n              0xffffffffffffffffffffffffffffffffffffffff\n              and\n              dup2\n              jump\t// out\n                /* \"training/contracts/lottery_test.sol\":1339:1370  address[] public addressIndexes */\n            tag_39:\n              0x2\n              dup2\n              dup2\n              sload\n              dup2\n              lt\n              iszero\n              iszero\n              tag_118\n              jumpi\n              invalid\n            tag_118:\n              swap1\n              0x0\n              mstore\n              keccak256(0x0, 0x20)\n              add\n              0x0\n              swap2\n              pop\n              sload\n              swap1\n              0x100\n              exp\n              swap1\n              div\n              0xffffffffffffffffffffffffffffffffffffffff\n              and\n              dup2\n              jump\t// out\n                /* \"training/contracts/lottery_test.sol\":3628:3873  function getPlayer(address playerAddress) public view returns (string, uint) {... */\n            tag_42:\n                /* \"training/contracts/lottery_test.sol\":3691:3697  string */\n              0x60\n                /* \"training/contracts/lottery_test.sol\":3699:3703  uint */\n              0x0\n                /* \"training/contracts/lottery_test.sol\":3719:3745  isNewPlayer(playerAddress) */\n              tag_121\n                /* \"training/contracts/lottery_test.sol\":3731:3744  playerAddress */\n              dup4\n                /* \"training/contracts/lottery_test.sol\":3719:3730  isNewPlayer */\n              tag_81\n                /* \"training/contracts/lottery_test.sol\":3719:3745  isNewPlayer(playerAddress) */\n              jump\t// in\n            tag_121:\n                /* \"training/contracts/lottery_test.sol\":3715:3786  if (isNewPlayer(playerAddress)) {... */\n              iszero\n              tag_122\n              jumpi\n                /* \"training/contracts/lottery_test.sol\":3773:3774  0 */\n              0x0\n                /* \"training/contracts/lottery_test.sol\":3761:3775  return (\"\", 0) */\n              0x20\n              mload(0x40)\n              swap1\n              dup2\n              add\n              0x40\n              mstore\n              dup1\n              0x0\n              dup2\n              mstore\n              pop\n              swap1\n              dup1\n              swap1\n              pop\n              swap2\n              pop\n              swap2\n              pop\n              jump(tag_120)\n                /* \"training/contracts/lottery_test.sol\":3715:3786  if (isNewPlayer(playerAddress)) {... */\n            tag_122:\n                /* \"training/contracts/lottery_test.sol\":3803:3810  players */\n              0x3\n                /* \"training/contracts/lottery_test.sol\":3803:3825  players[playerAddress] */\n              0x0\n                /* \"training/contracts/lottery_test.sol\":3811:3824  playerAddress */\n              dup5\n                /* \"training/contracts/lottery_test.sol\":3803:3825  players[playerAddress] */\n              0xffffffffffffffffffffffffffffffffffffffff\n              and\n              0xffffffffffffffffffffffffffffffffffffffff\n              and\n              dup2\n              mstore\n              0x20\n              add\n              swap1\n              dup2\n              mstore\n              0x20\n              add\n              0x0\n              keccak256\n                /* \"training/contracts/lottery_test.sol\":3803:3830  players[playerAddress].name */\n              0x0\n              add\n                /* \"training/contracts/lottery_test.sol\":3832:3839  players */\n              0x3\n                /* \"training/contracts/lottery_test.sol\":3832:3854  players[playerAddress] */\n              0x0\n                /* \"training/contracts/lottery_test.sol\":3840:3853  playerAddress */\n              dup6\n                /* \"training/contracts/lottery_test.sol\":3832:3854  players[playerAddress] */\n              0xffffffffffffffffffffffffffffffffffffffff\n              and\n              0xffffffffffffffffffffffffffffffffffffffff\n              and\n              dup2\n              mstore\n              0x20\n              add\n              swap1\n              dup2\n              mstore\n              0x20\n              add\n              0x0\n              keccak256\n                /* \"training/contracts/lottery_test.sol\":3832:3865  players[playerAddress].entryCount */\n              0x1\n              add\n              sload\n                /* \"training/contracts/lottery_test.sol\":3795:3866  return (players[playerAddress].name, players[playerAddress].entryCount) */\n              dup2\n              dup1\n              sload\n              0x1\n              dup2\n              0x1\n              and\n              iszero\n              0x100\n              mul\n              sub\n              and\n              0x2\n              swap1\n              div\n              dup1\n              0x1f\n              add\n              0x20\n              dup1\n              swap2\n              div\n              mul\n              0x20\n              add\n              mload(0x40)\n              swap1\n              dup2\n              add\n              0x40\n              mstore\n              dup1\n              swap3\n              swap2\n              swap1\n              dup2\n              dup2\n              mstore\n              0x20\n              add\n              dup3\n              dup1\n              sload\n              0x1\n              dup2\n              0x1\n              and\n              iszero\n              0x100\n              mul\n              sub\n              and\n              0x2\n              swap1\n              div\n              dup1\n              iszero\n              tag_123\n              jumpi\n              dup1\n              0x1f\n              lt\n              tag_124\n              jumpi\n              0x100\n              dup1\n              dup4\n              sload\n              div\n              mul\n              dup4\n              mstore\n              swap2\n              0x20\n              add\n              swap2\n              jump(tag_123)\n            tag_124:\n              dup3\n              add\n              swap2\n              swap1\n              0x0\n              mstore\n              keccak256(0x0, 0x20)\n              swap1\n            tag_125:\n              dup2\n              sload\n              dup2\n              mstore\n              swap1\n              0x1\n              add\n              swap1\n              0x20\n              add\n              dup1\n              dup4\n              gt\n              tag_125\n              jumpi\n              dup3\n              swap1\n              sub\n              0x1f\n              and\n              dup3\n              add\n              swap2\n            tag_123:\n              pop\n              pop\n              pop\n              pop\n              pop\n              swap2\n              pop\n              swap2\n              pop\n              swap2\n              pop\n                /* \"training/contracts/lottery_test.sol\":3628:3873  function getPlayer(address playerAddress) public view returns (string, uint) {... */\n            tag_120:\n              swap2\n              pop\n              swap2\n              jump\t// out\n                /* \"training/contracts/lottery_test.sol\":1585:1613  uint public ethToParticipate */\n            tag_49:\n              sload(0xa)\n              dup2\n              jump\t// out\n                /* \"training/contracts/lottery_test.sol\":1548:1579  uint public maxEntriesForPlayer */\n            tag_52:\n              sload(0x9)\n              dup2\n              jump\t// out\n                /* \"training/contracts/lottery_test.sol\":3531:3622  function getPlayers() public view returns(address[]) {... */\n            tag_55:\n                /* \"training/contracts/lottery_test.sol\":3573:3582  address[] */\n              0x60\n                /* \"training/contracts/lottery_test.sol\":3601:3615  addressIndexes */\n              0x2\n                /* \"training/contracts/lottery_test.sol\":3594:3615  return addressIndexes */\n              dup1\n              sload\n              dup1\n              0x20\n              mul\n              0x20\n              add\n              mload(0x40)\n              swap1\n              dup2\n              add\n              0x40\n              mstore\n              dup1\n              swap3\n              swap2\n              swap1\n              dup2\n              dup2\n              mstore\n              0x20\n              add\n              dup3\n              dup1\n              sload\n              dup1\n              iszero\n              tag_127\n              jumpi\n              0x20\n              mul\n              dup3\n              add\n              swap2\n              swap1\n              0x0\n              mstore\n              keccak256(0x0, 0x20)\n              swap1\n            tag_128:\n              dup2\n              0x0\n              swap1\n              sload\n              swap1\n              0x100\n              exp\n              swap1\n              div\n              0xffffffffffffffffffffffffffffffffffffffff\n              and\n              0xffffffffffffffffffffffffffffffffffffffff\n              and\n              dup2\n              mstore\n              0x20\n              add\n              swap1\n              0x1\n              add\n              swap1\n              dup1\n              dup4\n              gt\n              tag_128\n              jumpi\n            tag_127:\n              pop\n              pop\n              pop\n              pop\n              pop\n              swap1\n              pop\n                /* \"training/contracts/lottery_test.sol\":3531:3622  function getPlayers() public view returns(address[]) {... */\n              swap1\n              jump\t// out\n                /* \"training/contracts/lottery_test.sol\":2659:2899  function activateLottery(uint maxEntries, uint ethRequired) public restricted {... */\n            tag_61:\n                /* \"training/contracts/lottery_test.sol\":4531:4538  manager */\n              0x1\n              0x0\n              swap1\n              sload\n              swap1\n              0x100\n              exp\n              swap1\n              div\n              0xffffffffffffffffffffffffffffffffffffffff\n              and\n                /* \"training/contracts/lottery_test.sol\":4517:4538  msg.sender == manager */\n              0xffffffffffffffffffffffffffffffffffffffff\n              and\n                /* \"training/contracts/lottery_test.sol\":4517:4527  msg.sender */\n              caller\n                /* \"training/contracts/lottery_test.sol\":4517:4538  msg.sender == manager */\n              0xffffffffffffffffffffffffffffffffffffffff\n              and\n              eq\n                /* \"training/contracts/lottery_test.sol\":4509:4539  require(msg.sender == manager) */\n              iszero\n              iszero\n              tag_130\n              jumpi\n              0x0\n              dup1\n              revert\n            tag_130:\n                /* \"training/contracts/lottery_test.sol\":2763:2767  true */\n              0x1\n                /* \"training/contracts/lottery_test.sol\":2747:2760  isLotteryLive */\n              0x8\n              0x0\n                /* \"training/contracts/lottery_test.sol\":2747:2767  isLotteryLive = true */\n              0x100\n              exp\n              dup2\n              sload\n              dup2\n              0xff\n              mul\n              not\n              and\n              swap1\n              dup4\n              iszero\n              iszero\n              mul\n              or\n              swap1\n              sstore\n              pop\n                /* \"training/contracts/lottery_test.sol\":2813:2814  0 */\n              0x0\n                /* \"training/contracts/lottery_test.sol\":2799:2809  maxEntries */\n              dup3\n                /* \"training/contracts/lottery_test.sol\":2799:2814  maxEntries == 0 */\n              eq\n                /* \"training/contracts/lottery_test.sol\":2799:2830  maxEntries == 0 ? 1: maxEntries */\n              tag_132\n              jumpi\n                /* \"training/contracts/lottery_test.sol\":2820:2830  maxEntries */\n              dup2\n                /* \"training/contracts/lottery_test.sol\":2799:2830  maxEntries == 0 ? 1: maxEntries */\n              jump(tag_133)\n            tag_132:\n                /* \"training/contracts/lottery_test.sol\":2817:2818  1 */\n              0x1\n                /* \"training/contracts/lottery_test.sol\":2799:2830  maxEntries == 0 ? 1: maxEntries */\n            tag_133:\n                /* \"training/contracts/lottery_test.sol\":2777:2796  maxEntriesForPlayer */\n              0x9\n                /* \"training/contracts/lottery_test.sol\":2777:2830  maxEntriesForPlayer = maxEntries == 0 ? 1: maxEntries */\n              dup2\n              swap1\n              sstore\n              pop\n                /* \"training/contracts/lottery_test.sol\":2874:2875  0 */\n              0x0\n                /* \"training/contracts/lottery_test.sol\":2859:2870  ethRequired */\n              dup2\n                /* \"training/contracts/lottery_test.sol\":2859:2875  ethRequired == 0 */\n              eq\n                /* \"training/contracts/lottery_test.sol\":2859:2892  ethRequired == 0 ? 1: ethRequired */\n              tag_134\n              jumpi\n                /* \"training/contracts/lottery_test.sol\":2881:2892  ethRequired */\n              dup1\n                /* \"training/contracts/lottery_test.sol\":2859:2892  ethRequired == 0 ? 1: ethRequired */\n              jump(tag_135)\n            tag_134:\n                /* \"training/contracts/lottery_test.sol\":2878:2879  1 */\n              0x1\n                /* \"training/contracts/lottery_test.sol\":2859:2892  ethRequired == 0 ? 1: ethRequired */\n            tag_135:\n                /* \"training/contracts/lottery_test.sol\":2840:2856  ethToParticipate */\n              0xa\n                /* \"training/contracts/lottery_test.sol\":2840:2892  ethToParticipate = ethRequired == 0 ? 1: ethRequired */\n              dup2\n              swap1\n              sstore\n              pop\n                /* \"training/contracts/lottery_test.sol\":2659:2899  function activateLottery(uint maxEntries, uint ethRequired) public restricted {... */\n              pop\n              pop\n              jump\t// out\n                /* \"training/contracts/lottery_test.sol\":3879:3969  function getWinningPrice() public view returns (uint) {... */\n            tag_64:\n                /* \"training/contracts/lottery_test.sol\":3927:3931  uint */\n              0x0\n                /* \"training/contracts/lottery_test.sol\":3950:3954  this */\n              address\n                /* \"training/contracts/lottery_test.sol\":3950:3962  this.balance */\n              0xffffffffffffffffffffffffffffffffffffffff\n              and\n              balance\n                /* \"training/contracts/lottery_test.sol\":3943:3962  return this.balance */\n              swap1\n              pop\n                /* \"training/contracts/lottery_test.sol\":3879:3969  function getWinningPrice() public view returns (uint) {... */\n              swap1\n              jump\t// out\n                /* \"training/contracts/lottery_test.sol\":1491:1511  Player public winner */\n            tag_67:\n              0x5\n              dup1\n              0x0\n              add\n              dup1\n              sload\n              0x1\n              dup2\n              0x1\n              and\n              iszero\n              0x100\n              mul\n              sub\n              and\n              0x2\n              swap1\n              div\n              dup1\n              0x1f\n              add\n              0x20\n              dup1\n              swap2\n              div\n              mul\n              0x20\n              add\n              mload(0x40)\n              swap1\n              dup2\n              add\n              0x40\n              mstore\n              dup1\n              swap3\n              swap2\n              swap1\n              dup2\n              dup2\n              mstore\n              0x20\n              add\n              dup3\n              dup1\n              sload\n              0x1\n              dup2\n              0x1\n              and\n              iszero\n              0x100\n              mul\n              sub\n              and\n              0x2\n              swap1\n              div\n              dup1\n              iszero\n              tag_137\n              jumpi\n              dup1\n              0x1f\n              lt\n              tag_138\n              jumpi\n              0x100\n              dup1\n              dup4\n              sload\n              div\n              mul\n              dup4\n              mstore\n              swap2\n              0x20\n              add\n              swap2\n              jump(tag_137)\n            tag_138:\n              dup3\n              add\n              swap2\n              swap1\n              0x0\n              mstore\n              keccak256(0x0, 0x20)\n              swap1\n            tag_139:\n              dup2\n              sload\n              dup2\n              mstore\n              swap1\n              0x1\n              add\n              swap1\n              0x20\n              add\n              dup1\n              dup4\n              gt\n              tag_139\n              jumpi\n              dup3\n              swap1\n              sub\n              0x1f\n              and\n              dup3\n              add\n              swap2\n            tag_137:\n              pop\n              pop\n              pop\n              pop\n              pop\n              swap1\n              dup1\n              0x1\n              add\n              sload\n              swap1\n              dup1\n              0x2\n              add\n              sload\n              swap1\n              pop\n              dup4\n              jump\t// out\n                /* \"training/contracts/lottery_test.sol\":1416:1443  address[] public lotteryBag */\n            tag_74:\n              0x4\n              dup2\n              dup2\n              sload\n              dup2\n              lt\n              iszero\n              iszero\n              tag_140\n              jumpi\n              invalid\n            tag_140:\n              swap1\n              0x0\n              mstore\n              keccak256(0x0, 0x20)\n              add\n              0x0\n              swap2\n              pop\n              sload\n              swap1\n              0x100\n              exp\n              swap1\n              div\n              0xffffffffffffffffffffffffffffffffffffffff\n              and\n              dup2\n              jump\t// out\n                /* \"training/contracts/lottery_test.sol\":4000:4235  function isNewPlayer(address playerAddress) private view returns(bool) {... */\n            tag_81:\n                /* \"training/contracts/lottery_test.sol\":4065:4069  bool */\n              0x0\n                /* \"training/contracts/lottery_test.sol\":4110:4111  0 */\n              dup1\n                /* \"training/contracts/lottery_test.sol\":4085:4099  addressIndexes */\n              0x2\n                /* \"training/contracts/lottery_test.sol\":4085:4106  addressIndexes.length */\n              dup1\n              sload\n              swap1\n              pop\n                /* \"training/contracts/lottery_test.sol\":4085:4111  addressIndexes.length == 0 */\n              eq\n                /* \"training/contracts/lottery_test.sol\":4081:4149  if (addressIndexes.length == 0) {... */\n              iszero\n              tag_143\n              jumpi\n                /* \"training/contracts/lottery_test.sol\":4134:4138  true */\n              0x1\n                /* \"training/contracts/lottery_test.sol\":4127:4138  return true */\n              swap1\n              pop\n              jump(tag_142)\n                /* \"training/contracts/lottery_test.sol\":4081:4149  if (addressIndexes.length == 0) {... */\n            tag_143:\n                /* \"training/contracts/lottery_test.sol\":4214:4227  playerAddress */\n              dup2\n                /* \"training/contracts/lottery_test.sol\":4166:4227  addressIndexes[players[playerAddress].index] != playerAddress */\n              0xffffffffffffffffffffffffffffffffffffffff\n              and\n                /* \"training/contracts/lottery_test.sol\":4166:4180  addressIndexes */\n              0x2\n                /* \"training/contracts/lottery_test.sol\":4181:4188  players */\n              0x3\n                /* \"training/contracts/lottery_test.sol\":4181:4203  players[playerAddress] */\n              0x0\n                /* \"training/contracts/lottery_test.sol\":4189:4202  playerAddress */\n              dup6\n                /* \"training/contracts/lottery_test.sol\":4181:4203  players[playerAddress] */\n              0xffffffffffffffffffffffffffffffffffffffff\n              and\n              0xffffffffffffffffffffffffffffffffffffffff\n              and\n              dup2\n              mstore\n              0x20\n              add\n              swap1\n              dup2\n              mstore\n              0x20\n              add\n              0x0\n              keccak256\n                /* \"training/contracts/lottery_test.sol\":4181:4209  players[playerAddress].index */\n              0x2\n              add\n              sload\n                /* \"training/contracts/lottery_test.sol\":4166:4210  addressIndexes[players[playerAddress].index] */\n              dup2\n              sload\n              dup2\n              lt\n              iszero\n              iszero\n              tag_144\n              jumpi\n              invalid\n            tag_144:\n              swap1\n              0x0\n              mstore\n              keccak256(0x0, 0x20)\n              add\n              0x0\n              swap1\n              sload\n              swap1\n              0x100\n              exp\n              swap1\n              div\n              0xffffffffffffffffffffffffffffffffffffffff\n              and\n                /* \"training/contracts/lottery_test.sol\":4166:4227  addressIndexes[players[playerAddress].index] != playerAddress */\n              0xffffffffffffffffffffffffffffffffffffffff\n              and\n              eq\n              iszero\n                /* \"training/contracts/lottery_test.sol\":4158:4228  return (addressIndexes[players[playerAddress].index] != playerAddress) */\n              swap1\n              pop\n                /* \"training/contracts/lottery_test.sol\":4000:4235  function isNewPlayer(address playerAddress) private view returns(bool) {... */\n            tag_142:\n              swap2\n              swap1\n              pop\n              jump\t// out\n                /* \"training/contracts/lottery_test.sol\":4321:4454  function generateRandomNumber() private view returns(uint) {... */\n            tag_96:\n                /* \"training/contracts/lottery_test.sol\":4374:4378  uint */\n              0x0\n                /* \"training/contracts/lottery_test.sol\":4412:4428  block.difficulty */\n              difficulty\n                /* \"training/contracts/lottery_test.sol\":4430:4433  now */\n              timestamp\n                /* \"training/contracts/lottery_test.sol\":4435:4445  lotteryBag */\n              0x4\n                /* \"training/contracts/lottery_test.sol\":4402:4446  keccak256(block.difficulty, now, lotteryBag) */\n              mload(0x40)\n              dup1\n              dup5\n              dup2\n              mstore\n              0x20\n              add\n              dup4\n              dup2\n              mstore\n              0x20\n              add\n              dup3\n              dup1\n              sload\n              dup1\n              iszero\n              tag_147\n              jumpi\n              0x20\n              mul\n              dup3\n              add\n              swap2\n              swap1\n              0x0\n              mstore\n              keccak256(0x0, 0x20)\n              swap1\n            tag_148:\n              dup2\n              0x0\n              swap1\n              sload\n              swap1\n              0x100\n              exp\n              swap1\n              div\n              0xffffffffffffffffffffffffffffffffffffffff\n              and\n              0xffffffffffffffffffffffffffffffffffffffff\n              and\n              dup2\n              mstore\n              0x20\n              add\n              swap1\n              0x1\n              add\n              swap1\n              dup1\n              dup4\n              gt\n              tag_148\n              jumpi\n            tag_147:\n              pop\n              pop\n              swap4\n              pop\n              pop\n              pop\n              pop\n              mload(0x40)\n              dup1\n              swap2\n              sub\n              swap1\n              keccak256\n                /* \"training/contracts/lottery_test.sol\":4397:4447  uint(keccak256(block.difficulty, now, lotteryBag)) */\n              0x1\n              swap1\n              div\n                /* \"training/contracts/lottery_test.sol\":4390:4447  return uint(keccak256(block.difficulty, now, lotteryBag)) */\n              swap1\n              pop\n                /* \"training/contracts/lottery_test.sol\":4321:4454  function generateRandomNumber() private view returns(uint) {... */\n              swap1\n              jump\t// out\n                /* \"training/contracts/lottery_test.sol\":1069:4694  contract Lottery {... */\n            tag_84:\n              dup3\n              dup1\n              sload\n              0x1\n              dup2\n              0x1\n              and\n              iszero\n              0x100\n              mul\n              sub\n              and\n              0x2\n              swap1\n              div\n              swap1\n              0x0\n              mstore\n              keccak256(0x0, 0x20)\n              swap1\n              0x1f\n              add\n              0x20\n              swap1\n              div\n              dup2\n              add\n              swap3\n              dup3\n              0x1f\n              lt\n              tag_150\n              jumpi\n              dup1\n              mload\n              not(0xff)\n              and\n              dup4\n              dup1\n              add\n              or\n              dup6\n              sstore\n              jump(tag_149)\n            tag_150:\n              dup3\n              dup1\n              add\n              0x1\n              add\n              dup6\n              sstore\n              dup3\n              iszero\n              tag_149\n              jumpi\n              swap2\n              dup3\n              add\n            tag_151:\n              dup3\n              dup2\n              gt\n              iszero\n              tag_152\n              jumpi\n              dup3\n              mload\n              dup3\n              sstore\n              swap2\n              0x20\n              add\n              swap2\n              swap1\n              0x1\n              add\n              swap1\n              jump(tag_151)\n            tag_152:\n            tag_149:\n              pop\n              swap1\n              pop\n              tag_153\n              swap2\n              swap1\n              jump\t// in(tag_154)\n            tag_153:\n              pop\n              swap1\n              jump\t// out\n            tag_104:\n              dup3\n              dup1\n              sload\n              0x1\n              dup2\n              0x1\n              and\n              iszero\n              0x100\n              mul\n              sub\n              and\n              0x2\n              swap1\n              div\n              swap1\n              0x0\n              mstore\n              keccak256(0x0, 0x20)\n              swap1\n              0x1f\n              add\n              0x20\n              swap1\n              div\n              dup2\n              add\n              swap3\n              dup3\n              0x1f\n              lt\n              tag_156\n              jumpi\n              dup1\n              sload\n              dup6\n              sstore\n              jump(tag_155)\n            tag_156:\n              dup3\n              dup1\n              add\n              0x1\n              add\n              dup6\n              sstore\n              dup3\n              iszero\n              tag_155\n              jumpi\n              0x0\n              mstore\n              keccak256(0x0, 0x20)\n              swap2\n              0x1f\n              add\n              0x20\n              swap1\n              div\n              dup3\n              add\n            tag_157:\n              dup3\n              dup2\n              gt\n              iszero\n              tag_158\n              jumpi\n              dup3\n              sload\n              dup3\n              sstore\n              swap2\n              0x1\n              add\n              swap2\n              swap1\n              0x1\n              add\n              swap1\n              jump(tag_157)\n            tag_158:\n            tag_155:\n              pop\n              swap1\n              pop\n              tag_159\n              swap2\n              swap1\n              jump\t// in(tag_154)\n            tag_159:\n              pop\n              swap1\n              jump\t// out\n            tag_109:\n              dup3\n              dup1\n              sload\n              dup3\n              dup3\n              sstore\n              swap1\n              0x0\n              mstore\n              keccak256(0x0, 0x20)\n              swap1\n              dup2\n              add\n              swap3\n              dup3\n              iszero\n              tag_160\n              jumpi\n              swap2\n              0x20\n              mul\n              dup3\n              add\n            tag_161:\n              dup3\n              dup2\n              gt\n              iszero\n              tag_162\n              jumpi\n              dup3\n              mload\n              dup3\n              exp(0x100, 0x0)\n              dup2\n              sload\n              dup2\n              0xffffffffffffffffffffffffffffffffffffffff\n              mul\n              not\n              and\n              swap1\n              dup4\n              0xffffffffffffffffffffffffffffffffffffffff\n              and\n              mul\n              or\n              swap1\n              sstore\n              pop\n              swap2\n              0x20\n              add\n              swap2\n              swap1\n              0x1\n              add\n              swap1\n              jump(tag_161)\n            tag_162:\n            tag_160:\n              pop\n              swap1\n              pop\n              tag_163\n              swap2\n              swap1\n              jump\t// in(tag_164)\n            tag_163:\n              pop\n              swap1\n              jump\t// out\n            tag_154:\n              tag_165\n              swap2\n              swap1\n            tag_166:\n              dup1\n              dup3\n              gt\n              iszero\n              tag_167\n              jumpi\n              0x0\n              dup2\n              0x0\n              swap1\n              sstore\n              pop\n              0x1\n              add\n              jump(tag_166)\n            tag_167:\n              pop\n              swap1\n              jump\n            tag_165:\n              swap1\n              jump\t// out\n            tag_164:\n              tag_168\n              swap2\n              swap1\n            tag_169:\n              dup1\n              dup3\n              gt\n              iszero\n              tag_170\n              jumpi\n              0x0\n              dup2\n              dup2\n              0x100\n              exp\n              dup2\n              sload\n              swap1\n              0xffffffffffffffffffffffffffffffffffffffff\n              mul\n              not\n              and\n              swap1\n              sstore\n              pop\n              0x1\n              add\n              jump(tag_169)\n            tag_170:\n              pop\n              swap1\n              jump\n            tag_168:\n              swap1\n              jump\t// out\n\n            auxdata: 0xa165627a7a723058200b91e6cf16d5a6e6080db7ae67aa43a8b2300ef36f7718454b8175f087af73720029\n        }\n    }\n\n    auxdata: 0xa165627a7a7230582038480d57b9e92ec9378bddf736f1b07405a6c5558e47940dcca4137a35b4958e0029\n}\n",
				"bytecode": {
					"linkReferences": {},
					"object": "608060405234801561001057600080fd5b50611ea6806100206000396000f300608060405260043610610062576000357c0100000000000000000000000000000000000000000000000000000000900463ffffffff1680631398e0761461006757806316842582146100d4578063a7e46eac1461013d578063bcc82ec414610180575b600080fd5b34801561007357600080fd5b50610092600480360381019080803590602001909291905050506101ec565b604051808273ffffffffffffffffffffffffffffffffffffffff1673ffffffffffffffffffffffffffffffffffffffff16815260200191505060405180910390f35b3480156100e057600080fd5b5061013b600480360381019080803590602001908201803590602001908080601f016020809104026020016040519081016040528093929190818152602001838380828437820191505050505050919291929050505061022a565b005b34801561014957600080fd5b5061017e600480360381019080803573ffffffffffffffffffffffffffffffffffffffff16906020019092919050505061049c565b005b34801561018c57600080fd5b50610195610637565b6040518080602001828103825283818151815260200191508051906020019060200280838360005b838110156101d85780820151818401526020810190506101bd565b505050509050019250505060405180910390f35b6000818154811015156101fb57fe5b906000526020600020016000915054906101000a900473ffffffffffffffffffffffffffffffffffffffff1681565b600080825111151561023b57600080fd5b81336102456106c5565b80806020018373ffffffffffffffffffffffffffffffffffffffff1673ffffffffffffffffffffffffffffffffffffffff168152602001828103825284818151815260200191508051906020019080838360005b838110156102b4578082015181840152602081019050610299565b50505050905090810190601f1680156102e15780820380516001836020036101000a031916815260200191505b509350505050604051809103906000f080158015610303573d6000803e3d6000fd5b509050600160008290806001815401808255809150509060018203906000526020600020016000909192909190916101000a81548173ffffffffffffffffffffffffffffffffffffffff021916908373ffffffffffffffffffffffffffffffffffffffff16021790555003600160008373ffffffffffffffffffffffffffffffffffffffff1673ffffffffffffffffffffffffffffffffffffffff1681526020019081526020016000206000018190555033600160008373ffffffffffffffffffffffffffffffffffffffff1673ffffffffffffffffffffffffffffffffffffffff16815260200190815260200160002060010160006101000a81548173ffffffffffffffffffffffffffffffffffffffff021916908373ffffffffffffffffffffffffffffffffffffffff1602179055507fe610764cbcba803247df3450b7492f6a0084b7b5b734a7901c13fef8f84ffaf481604051808273ffffffffffffffffffffffffffffffffffffffff1673ffffffffffffffffffffffffffffffffffffffff16815260200191505060405180910390a15050565b600080600160008473ffffffffffffffffffffffffffffffffffffffff1673ffffffffffffffffffffffffffffffffffffffff16815260200190815260200160002060010160009054906101000a900473ffffffffffffffffffffffffffffffffffffffff1673ffffffffffffffffffffffffffffffffffffffff163373ffffffffffffffffffffffffffffffffffffffff1614151561053b57600080fd5b600160008473ffffffffffffffffffffffffffffffffffffffff1673ffffffffffffffffffffffffffffffffffffffff168152602001908152602001600020600001549150600060016000805490500381548110151561059757fe5b9060005260206000200160009054906101000a900473ffffffffffffffffffffffffffffffffffffffff169050806000838154811015156105d457fe5b9060005260206000200160006101000a81548173ffffffffffffffffffffffffffffffffffffffff021916908373ffffffffffffffffffffffffffffffffffffffff160217905550600080548091906001900361063191906106d5565b50505050565b606060008054806020026020016040519081016040528092919081815260200182805480156106bb57602002820191906000526020600020905b8160009054906101000a900473ffffffffffffffffffffffffffffffffffffffff1673ffffffffffffffffffffffffffffffffffffffff1681526020019060010190808311610671575b5050505050905090565b6040516117548061072783390190565b8154818355818111156106fc578183600052602060002091820191016106fb9190610701565b5b505050565b61072391905b8082111561071f576000816000905550600101610707565b5090565b90560060806040523480156200001157600080fd5b506040516200175438038062001754833981018060405281019080805182019291906020018051906020019092919050505080600160006101000a81548173ffffffffffffffffffffffffffffffffffffffff021916908373ffffffffffffffffffffffffffffffffffffffff16021790555081600090805190602001906200009c929190620000a5565b50505062000154565b828054600181600116156101000203166002900490600052602060002090601f016020900481019282601f10620000e857805160ff191683800117855562000119565b8280016001018555821562000119579182015b8281111562000118578251825591602001919060010190620000fb565b5b5090506200012891906200012c565b5090565b6200015191905b808211156200014d57600081600090555060010162000133565b5090565b90565b6115f080620001646000396000f3006080604052600436106100d0576000357c0100000000000000000000000000000000000000000000000000000000900463ffffffff16806310c85fe51461011057806314034bd21461013f5780631d27769f1461015657806323d14149146101b2578063481c6a75146102425780635832d571146102995780635c12cd4b146103065780635d58a74a146103c95780637752045b146103f45780638b5b9ccc1461041f578063bdaea3261461048b578063d68895d8146104c2578063dfbf53ae146104ed578063f25266dd1461058b575b61010e6040805190810160405280600781526020017f556e6b6e6f776e000000000000000000000000000000000000000000000000008152506105f8565b005b34801561011c57600080fd5b506101256109ee565b604051808215151515815260200191505060405180910390f35b34801561014b57600080fd5b50610154610a01565b005b6101b0600480360381019080803590602001908201803590602001908080601f01602080910402602001604051908101604052809392919081815260200183838082843782019150505050505091929192905050506105f8565b005b3480156101be57600080fd5b506101c7610dbf565b6040518080602001828103825283818151815260200191508051906020019080838360005b838110156102075780820151818401526020810190506101ec565b50505050905090810190601f1680156102345780820380516001836020036101000a031916815260200191505b509250505060405180910390f35b34801561024e57600080fd5b50610257610e5d565b604051808273ffffffffffffffffffffffffffffffffffffffff1673ffffffffffffffffffffffffffffffffffffffff16815260200191505060405180910390f35b3480156102a557600080fd5b506102c460048036038101908080359060200190929190505050610e83565b604051808273ffffffffffffffffffffffffffffffffffffffff1673ffffffffffffffffffffffffffffffffffffffff16815260200191505060405180910390f35b34801561031257600080fd5b50610347600480360381019080803573ffffffffffffffffffffffffffffffffffffffff169060200190929190505050610ec1565b6040518080602001838152602001828103825284818151815260200191508051906020019080838360005b8381101561038d578082015181840152602081019050610372565b50505050905090810190601f1680156103ba5780820380516001836020036101000a031916815260200191505b50935050505060405180910390f35b3480156103d557600080fd5b506103de61101e565b6040518082815260200191505060405180910390f35b34801561040057600080fd5b50610409611024565b6040518082815260200191505060405180910390f35b34801561042b57600080fd5b5061043461102a565b6040518080602001828103825283818151815260200191508051906020019060200280838360005b8381101561047757808201518184015260208101905061045c565b505050509050019250505060405180910390f35b34801561049757600080fd5b506104c060048036038101908080359060200190929190803590602001909291905050506110b8565b005b3480156104ce57600080fd5b506104d7611161565b6040518082815260200191505060405180910390f35b3480156104f957600080fd5b50610502611180565b6040518080602001848152602001838152602001828103825285818151815260200191508051906020019080838360005b8381101561054e578082015181840152602081019050610533565b50505050905090810190601f16801561057b5780820380516001836020036101000a031916815260200191505b5094505050505060405180910390f35b34801561059757600080fd5b506105b660048036038101908080359060200190929190505050611230565b604051808273ffffffffffffffffffffffffffffffffffffffff1673ffffffffffffffffffffffffffffffffffffffff16815260200191505060405180910390f35b6000815111151561060857600080fd5b600860009054906101000a900460ff16151561062357600080fd5b670de0b6b3a7640000600a54023414151561063d57600080fd5b600954600360003373ffffffffffffffffffffffffffffffffffffffff1673ffffffffffffffffffffffffffffffffffffffff1681526020019081526020016000206001015410151561068f57600080fd5b6106983361126e565b156107ef576001600360003373ffffffffffffffffffffffffffffffffffffffff1673ffffffffffffffffffffffffffffffffffffffff1681526020019081526020016000206001018190555080600360003373ffffffffffffffffffffffffffffffffffffffff1673ffffffffffffffffffffffffffffffffffffffff168152602001908152602001600020600001908051906020019061073b9291906113cb565b50600160023390806001815401808255809150509060018203906000526020600020016000909192909190916101000a81548173ffffffffffffffffffffffffffffffffffffffff021916908373ffffffffffffffffffffffffffffffffffffffff16021790555003600360003373ffffffffffffffffffffffffffffffffffffffff1673ffffffffffffffffffffffffffffffffffffffff16815260200190815260200160002060020181905550610841565b6001600360003373ffffffffffffffffffffffffffffffffffffffff1673ffffffffffffffffffffffffffffffffffffffff168152602001908152602001600020600101600082825401925050819055505b60043390806001815401808255809150509060018203906000526020600020016000909192909190916101000a81548173ffffffffffffffffffffffffffffffffffffffff021916908373ffffffffffffffffffffffffffffffffffffffff160217905550507f76041b6e8130995874e79e751d284536c37242cb014fb0584ede1d1e64ce03c9600360003373ffffffffffffffffffffffffffffffffffffffff1673ffffffffffffffffffffffffffffffffffffffff168152602001908152602001600020600001600360003373ffffffffffffffffffffffffffffffffffffffff1673ffffffffffffffffffffffffffffffffffffffff1681526020019081526020016000206001015460405180806020018381526020018281038252848181546001816001161561010002031660029004815260200191508054600181600116156101000203166002900480156109dc5780601f106109b1576101008083540402835291602001916109dc565b820191906000526020600020905b8154815290600101906020018083116109bf57829003601f168201915b5050935050505060405180910390a150565b600860009054906101000a900460ff1681565b6000600160009054906101000a900473ffffffffffffffffffffffffffffffffffffffff1673ffffffffffffffffffffffffffffffffffffffff163373ffffffffffffffffffffffffffffffffffffffff16141515610a5f57600080fd5b6000600480549050111515610a7357600080fd5b600480549050610a81611339565b811515610a8a57fe5b069050600481815481101515610a9c57fe5b9060005260206000200160009054906101000a900473ffffffffffffffffffffffffffffffffffffffff1673ffffffffffffffffffffffffffffffffffffffff166108fc3073ffffffffffffffffffffffffffffffffffffffff16319081150290604051600060405180830381858888f19350505050158015610b23573d6000803e3d6000fd5b5060036000600483815481101515610b3757fe5b9060005260206000200160009054906101000a900473ffffffffffffffffffffffffffffffffffffffff1673ffffffffffffffffffffffffffffffffffffffff1673ffffffffffffffffffffffffffffffffffffffff16815260200190815260200160002060000160056000019080546001816001161561010002031660029004610bc392919061144b565b5060036000600483815481101515610bd757fe5b9060005260206000200160009054906101000a900473ffffffffffffffffffffffffffffffffffffffff1673ffffffffffffffffffffffffffffffffffffffff1673ffffffffffffffffffffffffffffffffffffffff168152602001908152602001600020600101546005600101819055506000604051908082528060200260200182016040528015610c795781602001602082028038833980820191505090505b5060049080519060200190610c8f9291906114d2565b506000604051908082528060200260200182016040528015610cc05781602001602082028038833980820191505090505b5060029080519060200190610cd69291906114d2565b506000600860006101000a81548160ff0219169083151502179055507fd6d1eeba639254bd05e36261ae299af245328ab997fd9b7823d5fff17f1b74a460056000016005600101546040518080602001838152602001828103825284818154600181600116156101000203166002900481526020019150805460018160011615610100020316600290048015610dad5780601f10610d8257610100808354040283529160200191610dad565b820191906000526020600020905b815481529060010190602001808311610d9057829003601f168201915b5050935050505060405180910390a150565b60008054600181600116156101000203166002900480601f016020809104026020016040519081016040528092919081815260200182805460018160011615610100020316600290048015610e555780601f10610e2a57610100808354040283529160200191610e55565b820191906000526020600020905b815481529060010190602001808311610e3857829003601f168201915b505050505081565b600160009054906101000a900473ffffffffffffffffffffffffffffffffffffffff1681565b600281815481101515610e9257fe5b906000526020600020016000915054906101000a900473ffffffffffffffffffffffffffffffffffffffff1681565b60606000610ece8361126e565b15610ef357600060206040519081016040528060008152509080905091509150611019565b600360008473ffffffffffffffffffffffffffffffffffffffff1673ffffffffffffffffffffffffffffffffffffffff168152602001908152602001600020600001600360008573ffffffffffffffffffffffffffffffffffffffff1673ffffffffffffffffffffffffffffffffffffffff16815260200190815260200160002060010154818054600181600116156101000203166002900480601f01602080910402602001604051908101604052809291908181526020018280546001816001161561010002031660029004801561100d5780601f10610fe25761010080835404028352916020019161100d565b820191906000526020600020905b815481529060010190602001808311610ff057829003601f168201915b50505050509150915091505b915091565b600a5481565b60095481565b606060028054806020026020016040519081016040528092919081815260200182805480156110ae57602002820191906000526020600020905b8160009054906101000a900473ffffffffffffffffffffffffffffffffffffffff1673ffffffffffffffffffffffffffffffffffffffff1681526020019060010190808311611064575b5050505050905090565b600160009054906101000a900473ffffffffffffffffffffffffffffffffffffffff1673ffffffffffffffffffffffffffffffffffffffff163373ffffffffffffffffffffffffffffffffffffffff1614151561111457600080fd5b6001600860006101000a81548160ff0219169083151502179055506000821461113d5781611140565b60015b600981905550600081146111545780611157565b60015b600a819055505050565b60003073ffffffffffffffffffffffffffffffffffffffff1631905090565b6005806000018054600181600116156101000203166002900480601f01602080910402602001604051908101604052809291908181526020018280546001816001161561010002031660029004801561121a5780601f106111ef5761010080835404028352916020019161121a565b820191906000526020600020905b8154815290600101906020018083116111fd57829003601f168201915b5050505050908060010154908060020154905083565b60048181548110151561123f57fe5b906000526020600020016000915054906101000a900473ffffffffffffffffffffffffffffffffffffffff1681565b60008060028054905014156112865760019050611334565b8173ffffffffffffffffffffffffffffffffffffffff166002600360008573ffffffffffffffffffffffffffffffffffffffff1673ffffffffffffffffffffffffffffffffffffffff168152602001908152602001600020600201548154811015156112ee57fe5b9060005260206000200160009054906101000a900473ffffffffffffffffffffffffffffffffffffffff1673ffffffffffffffffffffffffffffffffffffffff16141590505b919050565b6000444260046040518084815260200183815260200182805480156113b357602002820191906000526020600020905b8160009054906101000a900473ffffffffffffffffffffffffffffffffffffffff1673ffffffffffffffffffffffffffffffffffffffff1681526020019060010190808311611369575b50509350505050604051809103902060019004905090565b828054600181600116156101000203166002900490600052602060002090601f016020900481019282601f1061140c57805160ff191683800117855561143a565b8280016001018555821561143a579182015b8281111561143957825182559160200191906001019061141e565b5b509050611447919061155c565b5090565b828054600181600116156101000203166002900490600052602060002090601f016020900481019282601f1061148457805485556114c1565b828001600101855582156114c157600052602060002091601f016020900482015b828111156114c05782548255916001019190600101906114a5565b5b5090506114ce919061155c565b5090565b82805482825590600052602060002090810192821561154b579160200282015b8281111561154a5782518260006101000a81548173ffffffffffffffffffffffffffffffffffffffff021916908373ffffffffffffffffffffffffffffffffffffffff160217905550916020019190600101906114f2565b5b5090506115589190611581565b5090565b61157e91905b8082111561157a576000816000905550600101611562565b5090565b90565b6115c191905b808211156115bd57600081816101000a81549073ffffffffffffffffffffffffffffffffffffffff021916905550600101611587565b5090565b905600a165627a7a723058200b91e6cf16d5a6e6080db7ae67aa43a8b2300ef36f7718454b8175f087af73720029a165627a7a7230582038480d57b9e92ec9378bddf736f1b07405a6c5558e47940dcca4137a35b4958e0029",
					"opcodes": "PUSH1 0x80 PUSH1 0x40 MSTORE CALLVALUE DUP1 ISZERO PUSH2 0x10 JUMPI PUSH1 0x0 DUP1 REVERT JUMPDEST POP PUSH2 0x1EA6 DUP1 PUSH2 0x20 PUSH1 0x0 CODECOPY PUSH1 0x0 RETURN STOP PUSH1 0x80 PUSH1 0x40 MSTORE PUSH1 0x4 CALLDATASIZE LT PUSH2 0x62 JUMPI PUSH1 0x0 CALLDATALOAD PUSH29 0x100000000000000000000000000000000000000000000000000000000 SWAP1 DIV PUSH4 0xFFFFFFFF AND DUP1 PUSH4 0x1398E076 EQ PUSH2 0x67 JUMPI DUP1 PUSH4 0x16842582 EQ PUSH2 0xD4 JUMPI DUP1 PUSH4 0xA7E46EAC EQ PUSH2 0x13D JUMPI DUP1 PUSH4 0xBCC82EC4 EQ PUSH2 0x180 JUMPI JUMPDEST PUSH1 0x0 DUP1 REVERT JUMPDEST CALLVALUE DUP1 ISZERO PUSH2 0x73 JUMPI PUSH1 0x0 DUP1 REVERT JUMPDEST POP PUSH2 0x92 PUSH1 0x4 DUP1 CALLDATASIZE SUB DUP2 ADD SWAP1 DUP1 DUP1 CALLDATALOAD SWAP1 PUSH1 0x20 ADD SWAP1 SWAP3 SWAP2 SWAP1 POP POP POP PUSH2 0x1EC JUMP JUMPDEST PUSH1 0x40 MLOAD DUP1 DUP3 PUSH20 0xFFFFFFFFFFFFFFFFFFFFFFFFFFFFFFFFFFFFFFFF AND PUSH20 0xFFFFFFFFFFFFFFFFFFFFFFFFFFFFFFFFFFFFFFFF AND DUP2 MSTORE PUSH1 0x20 ADD SWAP2 POP POP PUSH1 0x40 MLOAD DUP1 SWAP2 SUB SWAP1 RETURN JUMPDEST CALLVALUE DUP1 ISZERO PUSH2 0xE0 JUMPI PUSH1 0x0 DUP1 REVERT JUMPDEST POP PUSH2 0x13B PUSH1 0x4 DUP1 CALLDATASIZE SUB DUP2 ADD SWAP1 DUP1 DUP1 CALLDATALOAD SWAP1 PUSH1 0x20 ADD SWAP1 DUP3 ADD DUP1 CALLDATALOAD SWAP1 PUSH1 0x20 ADD SWAP1 DUP1 DUP1 PUSH1 0x1F ADD PUSH1 0x20 DUP1 SWAP2 DIV MUL PUSH1 0x20 ADD PUSH1 0x40 MLOAD SWAP1 DUP2 ADD PUSH1 0x40 MSTORE DUP1 SWAP4 SWAP3 SWAP2 SWAP1 DUP2 DUP2 MSTORE PUSH1 0x20 ADD DUP4 DUP4 DUP1 DUP3 DUP5 CALLDATACOPY DUP3 ADD SWAP2 POP POP POP POP POP POP SWAP2 SWAP3 SWAP2 SWAP3 SWAP1 POP POP POP PUSH2 0x22A JUMP JUMPDEST STOP JUMPDEST CALLVALUE DUP1 ISZERO PUSH2 0x149 JUMPI PUSH1 0x0 DUP1 REVERT JUMPDEST POP PUSH2 0x17E PUSH1 0x4 DUP1 CALLDATASIZE SUB DUP2 ADD SWAP1 DUP1 DUP1 CALLDATALOAD PUSH20 0xFFFFFFFFFFFFFFFFFFFFFFFFFFFFFFFFFFFFFFFF AND SWAP1 PUSH1 0x20 ADD SWAP1 SWAP3 SWAP2 SWAP1 POP POP POP PUSH2 0x49C JUMP JUMPDEST STOP JUMPDEST CALLVALUE DUP1 ISZERO PUSH2 0x18C JUMPI PUSH1 0x0 DUP1 REVERT JUMPDEST POP PUSH2 0x195 PUSH2 0x637 JUMP JUMPDEST PUSH1 0x40 MLOAD DUP1 DUP1 PUSH1 0x20 ADD DUP3 DUP2 SUB DUP3 MSTORE DUP4 DUP2 DUP2 MLOAD DUP2 MSTORE PUSH1 0x20 ADD SWAP2 POP DUP1 MLOAD SWAP1 PUSH1 0x20 ADD SWAP1 PUSH1 0x20 MUL DUP1 DUP4 DUP4 PUSH1 0x0 JUMPDEST DUP4 DUP2 LT ISZERO PUSH2 0x1D8 JUMPI DUP1 DUP3 ADD MLOAD DUP2 DUP5 ADD MSTORE PUSH1 0x20 DUP2 ADD SWAP1 POP PUSH2 0x1BD JUMP JUMPDEST POP POP POP POP SWAP1 POP ADD SWAP3 POP POP POP PUSH1 0x40 MLOAD DUP1 SWAP2 SUB SWAP1 RETURN JUMPDEST PUSH1 0x0 DUP2 DUP2 SLOAD DUP2 LT ISZERO ISZERO PUSH2 0x1FB JUMPI INVALID JUMPDEST SWAP1 PUSH1 0x0 MSTORE PUSH1 0x20 PUSH1 0x0 KECCAK256 ADD PUSH1 0x0 SWAP2 POP SLOAD SWAP1 PUSH2 0x100 EXP SWAP1 DIV PUSH20 0xFFFFFFFFFFFFFFFFFFFFFFFFFFFFFFFFFFFFFFFF AND DUP2 JUMP JUMPDEST PUSH1 0x0 DUP1 DUP3 MLOAD GT ISZERO ISZERO PUSH2 0x23B JUMPI PUSH1 0x0 DUP1 REVERT JUMPDEST DUP2 CALLER PUSH2 0x245 PUSH2 0x6C5 JUMP JUMPDEST DUP1 DUP1 PUSH1 0x20 ADD DUP4 PUSH20 0xFFFFFFFFFFFFFFFFFFFFFFFFFFFFFFFFFFFFFFFF AND PUSH20 0xFFFFFFFFFFFFFFFFFFFFFFFFFFFFFFFFFFFFFFFF AND DUP2 MSTORE PUSH1 0x20 ADD DUP3 DUP2 SUB DUP3 MSTORE DUP5 DUP2 DUP2 MLOAD DUP2 MSTORE PUSH1 0x20 ADD SWAP2 POP DUP1 MLOAD SWAP1 PUSH1 0x20 ADD SWAP1 DUP1 DUP4 DUP4 PUSH1 0x0 JUMPDEST DUP4 DUP2 LT ISZERO PUSH2 0x2B4 JUMPI DUP1 DUP3 ADD MLOAD DUP2 DUP5 ADD MSTORE PUSH1 0x20 DUP2 ADD SWAP1 POP PUSH2 0x299 JUMP JUMPDEST POP POP POP POP SWAP1 POP SWAP1 DUP2 ADD SWAP1 PUSH1 0x1F AND DUP1 ISZERO PUSH2 0x2E1 JUMPI DUP1 DUP3 SUB DUP1 MLOAD PUSH1 0x1 DUP4 PUSH1 0x20 SUB PUSH2 0x100 EXP SUB NOT AND DUP2 MSTORE PUSH1 0x20 ADD SWAP2 POP JUMPDEST POP SWAP4 POP POP POP POP PUSH1 0x40 MLOAD DUP1 SWAP2 SUB SWAP1 PUSH1 0x0 CREATE DUP1 ISZERO DUP1 ISZERO PUSH2 0x303 JUMPI RETURNDATASIZE PUSH1 0x0 DUP1 RETURNDATACOPY RETURNDATASIZE PUSH1 0x0 REVERT JUMPDEST POP SWAP1 POP PUSH1 0x1 PUSH1 0x0 DUP3 SWAP1 DUP1 PUSH1 0x1 DUP2 SLOAD ADD DUP1 DUP3 SSTORE DUP1 SWAP2 POP POP SWAP1 PUSH1 0x1 DUP3 SUB SWAP1 PUSH1 0x0 MSTORE PUSH1 0x20 PUSH1 0x0 KECCAK256 ADD PUSH1 0x0 SWAP1 SWAP2 SWAP3 SWAP1 SWAP2 SWAP1 SWAP2 PUSH2 0x100 EXP DUP2 SLOAD DUP2 PUSH20 0xFFFFFFFFFFFFFFFFFFFFFFFFFFFFFFFFFFFFFFFF MUL NOT AND SWAP1 DUP4 PUSH20 0xFFFFFFFFFFFFFFFFFFFFFFFFFFFFFFFFFFFFFFFF AND MUL OR SWAP1 SSTORE POP SUB PUSH1 0x1 PUSH1 0x0 DUP4 PUSH20 0xFFFFFFFFFFFFFFFFFFFFFFFFFFFFFFFFFFFFFFFF AND PUSH20 0xFFFFFFFFFFFFFFFFFFFFFFFFFFFFFFFFFFFFFFFF AND DUP2 MSTORE PUSH1 0x20 ADD SWAP1 DUP2 MSTORE PUSH1 0x20 ADD PUSH1 0x0 KECCAK256 PUSH1 0x0 ADD DUP2 SWAP1 SSTORE POP CALLER PUSH1 0x1 PUSH1 0x0 DUP4 PUSH20 0xFFFFFFFFFFFFFFFFFFFFFFFFFFFFFFFFFFFFFFFF AND PUSH20 0xFFFFFFFFFFFFFFFFFFFFFFFFFFFFFFFFFFFFFFFF AND DUP2 MSTORE PUSH1 0x20 ADD SWAP1 DUP2 MSTORE PUSH1 0x20 ADD PUSH1 0x0 KECCAK256 PUSH1 0x1 ADD PUSH1 0x0 PUSH2 0x100 EXP DUP2 SLOAD DUP2 PUSH20 0xFFFFFFFFFFFFFFFFFFFFFFFFFFFFFFFFFFFFFFFF MUL NOT AND SWAP1 DUP4 PUSH20 0xFFFFFFFFFFFFFFFFFFFFFFFFFFFFFFFFFFFFFFFF AND MUL OR SWAP1 SSTORE POP PUSH32 0xE610764CBCBA803247DF3450B7492F6A0084B7B5B734A7901C13FEF8F84FFAF4 DUP2 PUSH1 0x40 MLOAD DUP1 DUP3 PUSH20 0xFFFFFFFFFFFFFFFFFFFFFFFFFFFFFFFFFFFFFFFF AND PUSH20 0xFFFFFFFFFFFFFFFFFFFFFFFFFFFFFFFFFFFFFFFF AND DUP2 MSTORE PUSH1 0x20 ADD SWAP2 POP POP PUSH1 0x40 MLOAD DUP1 SWAP2 SUB SWAP1 LOG1 POP POP JUMP JUMPDEST PUSH1 0x0 DUP1 PUSH1 0x1 PUSH1 0x0 DUP5 PUSH20 0xFFFFFFFFFFFFFFFFFFFFFFFFFFFFFFFFFFFFFFFF AND PUSH20 0xFFFFFFFFFFFFFFFFFFFFFFFFFFFFFFFFFFFFFFFF AND DUP2 MSTORE PUSH1 0x20 ADD SWAP1 DUP2 MSTORE PUSH1 0x20 ADD PUSH1 0x0 KECCAK256 PUSH1 0x1 ADD PUSH1 0x0 SWAP1 SLOAD SWAP1 PUSH2 0x100 EXP SWAP1 DIV PUSH20 0xFFFFFFFFFFFFFFFFFFFFFFFFFFFFFFFFFFFFFFFF AND PUSH20 0xFFFFFFFFFFFFFFFFFFFFFFFFFFFFFFFFFFFFFFFF AND CALLER PUSH20 0xFFFFFFFFFFFFFFFFFFFFFFFFFFFFFFFFFFFFFFFF AND EQ ISZERO ISZERO PUSH2 0x53B JUMPI PUSH1 0x0 DUP1 REVERT JUMPDEST PUSH1 0x1 PUSH1 0x0 DUP5 PUSH20 0xFFFFFFFFFFFFFFFFFFFFFFFFFFFFFFFFFFFFFFFF AND PUSH20 0xFFFFFFFFFFFFFFFFFFFFFFFFFFFFFFFFFFFFFFFF AND DUP2 MSTORE PUSH1 0x20 ADD SWAP1 DUP2 MSTORE PUSH1 0x20 ADD PUSH1 0x0 KECCAK256 PUSH1 0x0 ADD SLOAD SWAP2 POP PUSH1 0x0 PUSH1 0x1 PUSH1 0x0 DUP1 SLOAD SWAP1 POP SUB DUP2 SLOAD DUP2 LT ISZERO ISZERO PUSH2 0x597 JUMPI INVALID JUMPDEST SWAP1 PUSH1 0x0 MSTORE PUSH1 0x20 PUSH1 0x0 KECCAK256 ADD PUSH1 0x0 SWAP1 SLOAD SWAP1 PUSH2 0x100 EXP SWAP1 DIV PUSH20 0xFFFFFFFFFFFFFFFFFFFFFFFFFFFFFFFFFFFFFFFF AND SWAP1 POP DUP1 PUSH1 0x0 DUP4 DUP2 SLOAD DUP2 LT ISZERO ISZERO PUSH2 0x5D4 JUMPI INVALID JUMPDEST SWAP1 PUSH1 0x0 MSTORE PUSH1 0x20 PUSH1 0x0 KECCAK256 ADD PUSH1 0x0 PUSH2 0x100 EXP DUP2 SLOAD DUP2 PUSH20 0xFFFFFFFFFFFFFFFFFFFFFFFFFFFFFFFFFFFFFFFF MUL NOT AND SWAP1 DUP4 PUSH20 0xFFFFFFFFFFFFFFFFFFFFFFFFFFFFFFFFFFFFFFFF AND MUL OR SWAP1 SSTORE POP PUSH1 0x0 DUP1 SLOAD DUP1 SWAP2 SWAP1 PUSH1 0x1 SWAP1 SUB PUSH2 0x631 SWAP2 SWAP1 PUSH2 0x6D5 JUMP JUMPDEST POP POP POP POP JUMP JUMPDEST PUSH1 0x60 PUSH1 0x0 DUP1 SLOAD DUP1 PUSH1 0x20 MUL PUSH1 0x20 ADD PUSH1 0x40 MLOAD SWAP1 DUP2 ADD PUSH1 0x40 MSTORE DUP1 SWAP3 SWAP2 SWAP1 DUP2 DUP2 MSTORE PUSH1 0x20 ADD DUP3 DUP1 SLOAD DUP1 ISZERO PUSH2 0x6BB JUMPI PUSH1 0x20 MUL DUP3 ADD SWAP2 SWAP1 PUSH1 0x0 MSTORE PUSH1 0x20 PUSH1 0x0 KECCAK256 SWAP1 JUMPDEST DUP2 PUSH1 0x0 SWAP1 SLOAD SWAP1 PUSH2 0x100 EXP SWAP1 DIV PUSH20 0xFFFFFFFFFFFFFFFFFFFFFFFFFFFFFFFFFFFFFFFF AND PUSH20 0xFFFFFFFFFFFFFFFFFFFFFFFFFFFFFFFFFFFFFFFF AND DUP2 MSTORE PUSH1 0x20 ADD SWAP1 PUSH1 0x1 ADD SWAP1 DUP1 DUP4 GT PUSH2 0x671 JUMPI JUMPDEST POP POP POP POP POP SWAP1 POP SWAP1 JUMP JUMPDEST PUSH1 0x40 MLOAD PUSH2 0x1754 DUP1 PUSH2 0x727 DUP4 CODECOPY ADD SWAP1 JUMP JUMPDEST DUP2 SLOAD DUP2 DUP4 SSTORE DUP2 DUP2 GT ISZERO PUSH2 0x6FC JUMPI DUP2 DUP4 PUSH1 0x0 MSTORE PUSH1 0x20 PUSH1 0x0 KECCAK256 SWAP2 DUP3 ADD SWAP2 ADD PUSH2 0x6FB SWAP2 SWAP1 PUSH2 0x701 JUMP JUMPDEST JUMPDEST POP POP POP JUMP JUMPDEST PUSH2 0x723 SWAP2 SWAP1 JUMPDEST DUP1 DUP3 GT ISZERO PUSH2 0x71F JUMPI PUSH1 0x0 DUP2 PUSH1 0x0 SWAP1 SSTORE POP PUSH1 0x1 ADD PUSH2 0x707 JUMP JUMPDEST POP SWAP1 JUMP JUMPDEST SWAP1 JUMP STOP PUSH1 0x80 PUSH1 0x40 MSTORE CALLVALUE DUP1 ISZERO PUSH3 0x11 JUMPI PUSH1 0x0 DUP1 REVERT JUMPDEST POP PUSH1 0x40 MLOAD PUSH3 0x1754 CODESIZE SUB DUP1 PUSH3 0x1754 DUP4 CODECOPY DUP2 ADD DUP1 PUSH1 0x40 MSTORE DUP2 ADD SWAP1 DUP1 DUP1 MLOAD DUP3 ADD SWAP3 SWAP2 SWAP1 PUSH1 0x20 ADD DUP1 MLOAD SWAP1 PUSH1 0x20 ADD SWAP1 SWAP3 SWAP2 SWAP1 POP POP POP DUP1 PUSH1 0x1 PUSH1 0x0 PUSH2 0x100 EXP DUP2 SLOAD DUP2 PUSH20 0xFFFFFFFFFFFFFFFFFFFFFFFFFFFFFFFFFFFFFFFF MUL NOT AND SWAP1 DUP4 PUSH20 0xFFFFFFFFFFFFFFFFFFFFFFFFFFFFFFFFFFFFFFFF AND MUL OR SWAP1 SSTORE POP DUP2 PUSH1 0x0 SWAP1 DUP1 MLOAD SWAP1 PUSH1 0x20 ADD SWAP1 PUSH3 0x9C SWAP3 SWAP2 SWAP1 PUSH3 0xA5 JUMP JUMPDEST POP POP POP PUSH3 0x154 JUMP JUMPDEST DUP3 DUP1 SLOAD PUSH1 0x1 DUP2 PUSH1 0x1 AND ISZERO PUSH2 0x100 MUL SUB AND PUSH1 0x2 SWAP1 DIV SWAP1 PUSH1 0x0 MSTORE PUSH1 0x20 PUSH1 0x0 KECCAK256 SWAP1 PUSH1 0x1F ADD PUSH1 0x20 SWAP1 DIV DUP2 ADD SWAP3 DUP3 PUSH1 0x1F LT PUSH3 0xE8 JUMPI DUP1 MLOAD PUSH1 0xFF NOT AND DUP4 DUP1 ADD OR DUP6 SSTORE PUSH3 0x119 JUMP JUMPDEST DUP3 DUP1 ADD PUSH1 0x1 ADD DUP6 SSTORE DUP3 ISZERO PUSH3 0x119 JUMPI SWAP2 DUP3 ADD JUMPDEST DUP3 DUP2 GT ISZERO PUSH3 0x118 JUMPI DUP3 MLOAD DUP3 SSTORE SWAP2 PUSH1 0x20 ADD SWAP2 SWAP1 PUSH1 0x1 ADD SWAP1 PUSH3 0xFB JUMP JUMPDEST JUMPDEST POP SWAP1 POP PUSH3 0x128 SWAP2 SWAP1 PUSH3 0x12C JUMP JUMPDEST POP SWAP1 JUMP JUMPDEST PUSH3 0x151 SWAP2 SWAP1 JUMPDEST DUP1 DUP3 GT ISZERO PUSH3 0x14D JUMPI PUSH1 0x0 DUP2 PUSH1 0x0 SWAP1 SSTORE POP PUSH1 0x1 ADD PUSH3 0x133 JUMP JUMPDEST POP SWAP1 JUMP JUMPDEST SWAP1 JUMP JUMPDEST PUSH2 0x15F0 DUP1 PUSH3 0x164 PUSH1 0x0 CODECOPY PUSH1 0x0 RETURN STOP PUSH1 0x80 PUSH1 0x40 MSTORE PUSH1 0x4 CALLDATASIZE LT PUSH2 0xD0 JUMPI PUSH1 0x0 CALLDATALOAD PUSH29 0x100000000000000000000000000000000000000000000000000000000 SWAP1 DIV PUSH4 0xFFFFFFFF AND DUP1 PUSH4 0x10C85FE5 EQ PUSH2 0x110 JUMPI DUP1 PUSH4 0x14034BD2 EQ PUSH2 0x13F JUMPI DUP1 PUSH4 0x1D27769F EQ PUSH2 0x156 JUMPI DUP1 PUSH4 0x23D14149 EQ PUSH2 0x1B2 JUMPI DUP1 PUSH4 0x481C6A75 EQ PUSH2 0x242 JUMPI DUP1 PUSH4 0x5832D571 EQ PUSH2 0x299 JUMPI DUP1 PUSH4 0x5C12CD4B EQ PUSH2 0x306 JUMPI DUP1 PUSH4 0x5D58A74A EQ PUSH2 0x3C9 JUMPI DUP1 PUSH4 0x7752045B EQ PUSH2 0x3F4 JUMPI DUP1 PUSH4 0x8B5B9CCC EQ PUSH2 0x41F JUMPI DUP1 PUSH4 0xBDAEA326 EQ PUSH2 0x48B JUMPI DUP1 PUSH4 0xD68895D8 EQ PUSH2 0x4C2 JUMPI DUP1 PUSH4 0xDFBF53AE EQ PUSH2 0x4ED JUMPI DUP1 PUSH4 0xF25266DD EQ PUSH2 0x58B JUMPI JUMPDEST PUSH2 0x10E PUSH1 0x40 DUP1 MLOAD SWAP1 DUP2 ADD PUSH1 0x40 MSTORE DUP1 PUSH1 0x7 DUP2 MSTORE PUSH1 0x20 ADD PUSH32 0x556E6B6E6F776E00000000000000000000000000000000000000000000000000 DUP2 MSTORE POP PUSH2 0x5F8 JUMP JUMPDEST STOP JUMPDEST CALLVALUE DUP1 ISZERO PUSH2 0x11C JUMPI PUSH1 0x0 DUP1 REVERT JUMPDEST POP PUSH2 0x125 PUSH2 0x9EE JUMP JUMPDEST PUSH1 0x40 MLOAD DUP1 DUP3 ISZERO ISZERO ISZERO ISZERO DUP2 MSTORE PUSH1 0x20 ADD SWAP2 POP POP PUSH1 0x40 MLOAD DUP1 SWAP2 SUB SWAP1 RETURN JUMPDEST CALLVALUE DUP1 ISZERO PUSH2 0x14B JUMPI PUSH1 0x0 DUP1 REVERT JUMPDEST POP PUSH2 0x154 PUSH2 0xA01 JUMP JUMPDEST STOP JUMPDEST PUSH2 0x1B0 PUSH1 0x4 DUP1 CALLDATASIZE SUB DUP2 ADD SWAP1 DUP1 DUP1 CALLDATALOAD SWAP1 PUSH1 0x20 ADD SWAP1 DUP3 ADD DUP1 CALLDATALOAD SWAP1 PUSH1 0x20 ADD SWAP1 DUP1 DUP1 PUSH1 0x1F ADD PUSH1 0x20 DUP1 SWAP2 DIV MUL PUSH1 0x20 ADD PUSH1 0x40 MLOAD SWAP1 DUP2 ADD PUSH1 0x40 MSTORE DUP1 SWAP4 SWAP3 SWAP2 SWAP1 DUP2 DUP2 MSTORE PUSH1 0x20 ADD DUP4 DUP4 DUP1 DUP3 DUP5 CALLDATACOPY DUP3 ADD SWAP2 POP POP POP POP POP POP SWAP2 SWAP3 SWAP2 SWAP3 SWAP1 POP POP POP PUSH2 0x5F8 JUMP JUMPDEST STOP JUMPDEST CALLVALUE DUP1 ISZERO PUSH2 0x1BE JUMPI PUSH1 0x0 DUP1 REVERT JUMPDEST POP PUSH2 0x1C7 PUSH2 0xDBF JUMP JUMPDEST PUSH1 0x40 MLOAD DUP1 DUP1 PUSH1 0x20 ADD DUP3 DUP2 SUB DUP3 MSTORE DUP4 DUP2 DUP2 MLOAD DUP2 MSTORE PUSH1 0x20 ADD SWAP2 POP DUP1 MLOAD SWAP1 PUSH1 0x20 ADD SWAP1 DUP1 DUP4 DUP4 PUSH1 0x0 JUMPDEST DUP4 DUP2 LT ISZERO PUSH2 0x207 JUMPI DUP1 DUP3 ADD MLOAD DUP2 DUP5 ADD MSTORE PUSH1 0x20 DUP2 ADD SWAP1 POP PUSH2 0x1EC JUMP JUMPDEST POP POP POP POP SWAP1 POP SWAP1 DUP2 ADD SWAP1 PUSH1 0x1F AND DUP1 ISZERO PUSH2 0x234 JUMPI DUP1 DUP3 SUB DUP1 MLOAD PUSH1 0x1 DUP4 PUSH1 0x20 SUB PUSH2 0x100 EXP SUB NOT AND DUP2 MSTORE PUSH1 0x20 ADD SWAP2 POP JUMPDEST POP SWAP3 POP POP POP PUSH1 0x40 MLOAD DUP1 SWAP2 SUB SWAP1 RETURN JUMPDEST CALLVALUE DUP1 ISZERO PUSH2 0x24E JUMPI PUSH1 0x0 DUP1 REVERT JUMPDEST POP PUSH2 0x257 PUSH2 0xE5D JUMP JUMPDEST PUSH1 0x40 MLOAD DUP1 DUP3 PUSH20 0xFFFFFFFFFFFFFFFFFFFFFFFFFFFFFFFFFFFFFFFF AND PUSH20 0xFFFFFFFFFFFFFFFFFFFFFFFFFFFFFFFFFFFFFFFF AND DUP2 MSTORE PUSH1 0x20 ADD SWAP2 POP POP PUSH1 0x40 MLOAD DUP1 SWAP2 SUB SWAP1 RETURN JUMPDEST CALLVALUE DUP1 ISZERO PUSH2 0x2A5 JUMPI PUSH1 0x0 DUP1 REVERT JUMPDEST POP PUSH2 0x2C4 PUSH1 0x4 DUP1 CALLDATASIZE SUB DUP2 ADD SWAP1 DUP1 DUP1 CALLDATALOAD SWAP1 PUSH1 0x20 ADD SWAP1 SWAP3 SWAP2 SWAP1 POP POP POP PUSH2 0xE83 JUMP JUMPDEST PUSH1 0x40 MLOAD DUP1 DUP3 PUSH20 0xFFFFFFFFFFFFFFFFFFFFFFFFFFFFFFFFFFFFFFFF AND PUSH20 0xFFFFFFFFFFFFFFFFFFFFFFFFFFFFFFFFFFFFFFFF AND DUP2 MSTORE PUSH1 0x20 ADD SWAP2 POP POP PUSH1 0x40 MLOAD DUP1 SWAP2 SUB SWAP1 RETURN JUMPDEST CALLVALUE DUP1 ISZERO PUSH2 0x312 JUMPI PUSH1 0x0 DUP1 REVERT JUMPDEST POP PUSH2 0x347 PUSH1 0x4 DUP1 CALLDATASIZE SUB DUP2 ADD SWAP1 DUP1 DUP1 CALLDATALOAD PUSH20 0xFFFFFFFFFFFFFFFFFFFFFFFFFFFFFFFFFFFFFFFF AND SWAP1 PUSH1 0x20 ADD SWAP1 SWAP3 SWAP2 SWAP1 POP POP POP PUSH2 0xEC1 JUMP JUMPDEST PUSH1 0x40 MLOAD DUP1 DUP1 PUSH1 0x20 ADD DUP4 DUP2 MSTORE PUSH1 0x20 ADD DUP3 DUP2 SUB DUP3 MSTORE DUP5 DUP2 DUP2 MLOAD DUP2 MSTORE PUSH1 0x20 ADD SWAP2 POP DUP1 MLOAD SWAP1 PUSH1 0x20 ADD SWAP1 DUP1 DUP4 DUP4 PUSH1 0x0 JUMPDEST DUP4 DUP2 LT ISZERO PUSH2 0x38D JUMPI DUP1 DUP3 ADD MLOAD DUP2 DUP5 ADD MSTORE PUSH1 0x20 DUP2 ADD SWAP1 POP PUSH2 0x372 JUMP JUMPDEST POP POP POP POP SWAP1 POP SWAP1 DUP2 ADD SWAP1 PUSH1 0x1F AND DUP1 ISZERO PUSH2 0x3BA JUMPI DUP1 DUP3 SUB DUP1 MLOAD PUSH1 0x1 DUP4 PUSH1 0x20 SUB PUSH2 0x100 EXP SUB NOT AND DUP2 MSTORE PUSH1 0x20 ADD SWAP2 POP JUMPDEST POP SWAP4 POP POP POP POP PUSH1 0x40 MLOAD DUP1 SWAP2 SUB SWAP1 RETURN JUMPDEST CALLVALUE DUP1 ISZERO PUSH2 0x3D5 JUMPI PUSH1 0x0 DUP1 REVERT JUMPDEST POP PUSH2 0x3DE PUSH2 0x101E JUMP JUMPDEST PUSH1 0x40 MLOAD DUP1 DUP3 DUP2 MSTORE PUSH1 0x20 ADD SWAP2 POP POP PUSH1 0x40 MLOAD DUP1 SWAP2 SUB SWAP1 RETURN JUMPDEST CALLVALUE DUP1 ISZERO PUSH2 0x400 JUMPI PUSH1 0x0 DUP1 REVERT JUMPDEST POP PUSH2 0x409 PUSH2 0x1024 JUMP JUMPDEST PUSH1 0x40 MLOAD DUP1 DUP3 DUP2 MSTORE PUSH1 0x20 ADD SWAP2 POP POP PUSH1 0x40 MLOAD DUP1 SWAP2 SUB SWAP1 RETURN JUMPDEST CALLVALUE DUP1 ISZERO PUSH2 0x42B JUMPI PUSH1 0x0 DUP1 REVERT JUMPDEST POP PUSH2 0x434 PUSH2 0x102A JUMP JUMPDEST PUSH1 0x40 MLOAD DUP1 DUP1 PUSH1 0x20 ADD DUP3 DUP2 SUB DUP3 MSTORE DUP4 DUP2 DUP2 MLOAD DUP2 MSTORE PUSH1 0x20 ADD SWAP2 POP DUP1 MLOAD SWAP1 PUSH1 0x20 ADD SWAP1 PUSH1 0x20 MUL DUP1 DUP4 DUP4 PUSH1 0x0 JUMPDEST DUP4 DUP2 LT ISZERO PUSH2 0x477 JUMPI DUP1 DUP3 ADD MLOAD DUP2 DUP5 ADD MSTORE PUSH1 0x20 DUP2 ADD SWAP1 POP PUSH2 0x45C JUMP JUMPDEST POP POP POP POP SWAP1 POP ADD SWAP3 POP POP POP PUSH1 0x40 MLOAD DUP1 SWAP2 SUB SWAP1 RETURN JUMPDEST CALLVALUE DUP1 ISZERO PUSH2 0x497 JUMPI PUSH1 0x0 DUP1 REVERT JUMPDEST POP PUSH2 0x4C0 PUSH1 0x4 DUP1 CALLDATASIZE SUB DUP2 ADD SWAP1 DUP1 DUP1 CALLDATALOAD SWAP1 PUSH1 0x20 ADD SWAP1 SWAP3 SWAP2 SWAP1 DUP1 CALLDATALOAD SWAP1 PUSH1 0x20 ADD SWAP1 SWAP3 SWAP2 SWAP1 POP POP POP PUSH2 0x10B8 JUMP JUMPDEST STOP JUMPDEST CALLVALUE DUP1 ISZERO PUSH2 0x4CE JUMPI PUSH1 0x0 DUP1 REVERT JUMPDEST POP PUSH2 0x4D7 PUSH2 0x1161 JUMP JUMPDEST PUSH1 0x40 MLOAD DUP1 DUP3 DUP2 MSTORE PUSH1 0x20 ADD SWAP2 POP POP PUSH1 0x40 MLOAD DUP1 SWAP2 SUB SWAP1 RETURN JUMPDEST CALLVALUE DUP1 ISZERO PUSH2 0x4F9 JUMPI PUSH1 0x0 DUP1 REVERT JUMPDEST POP PUSH2 0x502 PUSH2 0x1180 JUMP JUMPDEST PUSH1 0x40 MLOAD DUP1 DUP1 PUSH1 0x20 ADD DUP5 DUP2 MSTORE PUSH1 0x20 ADD DUP4 DUP2 MSTORE PUSH1 0x20 ADD DUP3 DUP2 SUB DUP3 MSTORE DUP6 DUP2 DUP2 MLOAD DUP2 MSTORE PUSH1 0x20 ADD SWAP2 POP DUP1 MLOAD SWAP1 PUSH1 0x20 ADD SWAP1 DUP1 DUP4 DUP4 PUSH1 0x0 JUMPDEST DUP4 DUP2 LT ISZERO PUSH2 0x54E JUMPI DUP1 DUP3 ADD MLOAD DUP2 DUP5 ADD MSTORE PUSH1 0x20 DUP2 ADD SWAP1 POP PUSH2 0x533 JUMP JUMPDEST POP POP POP POP SWAP1 POP SWAP1 DUP2 ADD SWAP1 PUSH1 0x1F AND DUP1 ISZERO PUSH2 0x57B JUMPI DUP1 DUP3 SUB DUP1 MLOAD PUSH1 0x1 DUP4 PUSH1 0x20 SUB PUSH2 0x100 EXP SUB NOT AND DUP2 MSTORE PUSH1 0x20 ADD SWAP2 POP JUMPDEST POP SWAP5 POP POP POP POP POP PUSH1 0x40 MLOAD DUP1 SWAP2 SUB SWAP1 RETURN JUMPDEST CALLVALUE DUP1 ISZERO PUSH2 0x597 JUMPI PUSH1 0x0 DUP1 REVERT JUMPDEST POP PUSH2 0x5B6 PUSH1 0x4 DUP1 CALLDATASIZE SUB DUP2 ADD SWAP1 DUP1 DUP1 CALLDATALOAD SWAP1 PUSH1 0x20 ADD SWAP1 SWAP3 SWAP2 SWAP1 POP POP POP PUSH2 0x1230 JUMP JUMPDEST PUSH1 0x40 MLOAD DUP1 DUP3 PUSH20 0xFFFFFFFFFFFFFFFFFFFFFFFFFFFFFFFFFFFFFFFF AND PUSH20 0xFFFFFFFFFFFFFFFFFFFFFFFFFFFFFFFFFFFFFFFF AND DUP2 MSTORE PUSH1 0x20 ADD SWAP2 POP POP PUSH1 0x40 MLOAD DUP1 SWAP2 SUB SWAP1 RETURN JUMPDEST PUSH1 0x0 DUP2 MLOAD GT ISZERO ISZERO PUSH2 0x608 JUMPI PUSH1 0x0 DUP1 REVERT JUMPDEST PUSH1 0x8 PUSH1 0x0 SWAP1 SLOAD SWAP1 PUSH2 0x100 EXP SWAP1 DIV PUSH1 0xFF AND ISZERO ISZERO PUSH2 0x623 JUMPI PUSH1 0x0 DUP1 REVERT JUMPDEST PUSH8 0xDE0B6B3A7640000 PUSH1 0xA SLOAD MUL CALLVALUE EQ ISZERO ISZERO PUSH2 0x63D JUMPI PUSH1 0x0 DUP1 REVERT JUMPDEST PUSH1 0x9 SLOAD PUSH1 0x3 PUSH1 0x0 CALLER PUSH20 0xFFFFFFFFFFFFFFFFFFFFFFFFFFFFFFFFFFFFFFFF AND PUSH20 0xFFFFFFFFFFFFFFFFFFFFFFFFFFFFFFFFFFFFFFFF AND DUP2 MSTORE PUSH1 0x20 ADD SWAP1 DUP2 MSTORE PUSH1 0x20 ADD PUSH1 0x0 KECCAK256 PUSH1 0x1 ADD SLOAD LT ISZERO ISZERO PUSH2 0x68F JUMPI PUSH1 0x0 DUP1 REVERT JUMPDEST PUSH2 0x698 CALLER PUSH2 0x126E JUMP JUMPDEST ISZERO PUSH2 0x7EF JUMPI PUSH1 0x1 PUSH1 0x3 PUSH1 0x0 CALLER PUSH20 0xFFFFFFFFFFFFFFFFFFFFFFFFFFFFFFFFFFFFFFFF AND PUSH20 0xFFFFFFFFFFFFFFFFFFFFFFFFFFFFFFFFFFFFFFFF AND DUP2 MSTORE PUSH1 0x20 ADD SWAP1 DUP2 MSTORE PUSH1 0x20 ADD PUSH1 0x0 KECCAK256 PUSH1 0x1 ADD DUP2 SWAP1 SSTORE POP DUP1 PUSH1 0x3 PUSH1 0x0 CALLER PUSH20 0xFFFFFFFFFFFFFFFFFFFFFFFFFFFFFFFFFFFFFFFF AND PUSH20 0xFFFFFFFFFFFFFFFFFFFFFFFFFFFFFFFFFFFFFFFF AND DUP2 MSTORE PUSH1 0x20 ADD SWAP1 DUP2 MSTORE PUSH1 0x20 ADD PUSH1 0x0 KECCAK256 PUSH1 0x0 ADD SWAP1 DUP1 MLOAD SWAP1 PUSH1 0x20 ADD SWAP1 PUSH2 0x73B SWAP3 SWAP2 SWAP1 PUSH2 0x13CB JUMP JUMPDEST POP PUSH1 0x1 PUSH1 0x2 CALLER SWAP1 DUP1 PUSH1 0x1 DUP2 SLOAD ADD DUP1 DUP3 SSTORE DUP1 SWAP2 POP POP SWAP1 PUSH1 0x1 DUP3 SUB SWAP1 PUSH1 0x0 MSTORE PUSH1 0x20 PUSH1 0x0 KECCAK256 ADD PUSH1 0x0 SWAP1 SWAP2 SWAP3 SWAP1 SWAP2 SWAP1 SWAP2 PUSH2 0x100 EXP DUP2 SLOAD DUP2 PUSH20 0xFFFFFFFFFFFFFFFFFFFFFFFFFFFFFFFFFFFFFFFF MUL NOT AND SWAP1 DUP4 PUSH20 0xFFFFFFFFFFFFFFFFFFFFFFFFFFFFFFFFFFFFFFFF AND MUL OR SWAP1 SSTORE POP SUB PUSH1 0x3 PUSH1 0x0 CALLER PUSH20 0xFFFFFFFFFFFFFFFFFFFFFFFFFFFFFFFFFFFFFFFF AND PUSH20 0xFFFFFFFFFFFFFFFFFFFFFFFFFFFFFFFFFFFFFFFF AND DUP2 MSTORE PUSH1 0x20 ADD SWAP1 DUP2 MSTORE PUSH1 0x20 ADD PUSH1 0x0 KECCAK256 PUSH1 0x2 ADD DUP2 SWAP1 SSTORE POP PUSH2 0x841 JUMP JUMPDEST PUSH1 0x1 PUSH1 0x3 PUSH1 0x0 CALLER PUSH20 0xFFFFFFFFFFFFFFFFFFFFFFFFFFFFFFFFFFFFFFFF AND PUSH20 0xFFFFFFFFFFFFFFFFFFFFFFFFFFFFFFFFFFFFFFFF AND DUP2 MSTORE PUSH1 0x20 ADD SWAP1 DUP2 MSTORE PUSH1 0x20 ADD PUSH1 0x0 KECCAK256 PUSH1 0x1 ADD PUSH1 0x0 DUP3 DUP3 SLOAD ADD SWAP3 POP POP DUP2 SWAP1 SSTORE POP JUMPDEST PUSH1 0x4 CALLER SWAP1 DUP1 PUSH1 0x1 DUP2 SLOAD ADD DUP1 DUP3 SSTORE DUP1 SWAP2 POP POP SWAP1 PUSH1 0x1 DUP3 SUB SWAP1 PUSH1 0x0 MSTORE PUSH1 0x20 PUSH1 0x0 KECCAK256 ADD PUSH1 0x0 SWAP1 SWAP2 SWAP3 SWAP1 SWAP2 SWAP1 SWAP2 PUSH2 0x100 EXP DUP2 SLOAD DUP2 PUSH20 0xFFFFFFFFFFFFFFFFFFFFFFFFFFFFFFFFFFFFFFFF MUL NOT AND SWAP1 DUP4 PUSH20 0xFFFFFFFFFFFFFFFFFFFFFFFFFFFFFFFFFFFFFFFF AND MUL OR SWAP1 SSTORE POP POP PUSH32 0x76041B6E8130995874E79E751D284536C37242CB014FB0584EDE1D1E64CE03C9 PUSH1 0x3 PUSH1 0x0 CALLER PUSH20 0xFFFFFFFFFFFFFFFFFFFFFFFFFFFFFFFFFFFFFFFF AND PUSH20 0xFFFFFFFFFFFFFFFFFFFFFFFFFFFFFFFFFFFFFFFF AND DUP2 MSTORE PUSH1 0x20 ADD SWAP1 DUP2 MSTORE PUSH1 0x20 ADD PUSH1 0x0 KECCAK256 PUSH1 0x0 ADD PUSH1 0x3 PUSH1 0x0 CALLER PUSH20 0xFFFFFFFFFFFFFFFFFFFFFFFFFFFFFFFFFFFFFFFF AND PUSH20 0xFFFFFFFFFFFFFFFFFFFFFFFFFFFFFFFFFFFFFFFF AND DUP2 MSTORE PUSH1 0x20 ADD SWAP1 DUP2 MSTORE PUSH1 0x20 ADD PUSH1 0x0 KECCAK256 PUSH1 0x1 ADD SLOAD PUSH1 0x40 MLOAD DUP1 DUP1 PUSH1 0x20 ADD DUP4 DUP2 MSTORE PUSH1 0x20 ADD DUP3 DUP2 SUB DUP3 MSTORE DUP5 DUP2 DUP2 SLOAD PUSH1 0x1 DUP2 PUSH1 0x1 AND ISZERO PUSH2 0x100 MUL SUB AND PUSH1 0x2 SWAP1 DIV DUP2 MSTORE PUSH1 0x20 ADD SWAP2 POP DUP1 SLOAD PUSH1 0x1 DUP2 PUSH1 0x1 AND ISZERO PUSH2 0x100 MUL SUB AND PUSH1 0x2 SWAP1 DIV DUP1 ISZERO PUSH2 0x9DC JUMPI DUP1 PUSH1 0x1F LT PUSH2 0x9B1 JUMPI PUSH2 0x100 DUP1 DUP4 SLOAD DIV MUL DUP4 MSTORE SWAP2 PUSH1 0x20 ADD SWAP2 PUSH2 0x9DC JUMP JUMPDEST DUP3 ADD SWAP2 SWAP1 PUSH1 0x0 MSTORE PUSH1 0x20 PUSH1 0x0 KECCAK256 SWAP1 JUMPDEST DUP2 SLOAD DUP2 MSTORE SWAP1 PUSH1 0x1 ADD SWAP1 PUSH1 0x20 ADD DUP1 DUP4 GT PUSH2 0x9BF JUMPI DUP3 SWAP1 SUB PUSH1 0x1F AND DUP3 ADD SWAP2 JUMPDEST POP POP SWAP4 POP POP POP POP PUSH1 0x40 MLOAD DUP1 SWAP2 SUB SWAP1 LOG1 POP JUMP JUMPDEST PUSH1 0x8 PUSH1 0x0 SWAP1 SLOAD SWAP1 PUSH2 0x100 EXP SWAP1 DIV PUSH1 0xFF AND DUP2 JUMP JUMPDEST PUSH1 0x0 PUSH1 0x1 PUSH1 0x0 SWAP1 SLOAD SWAP1 PUSH2 0x100 EXP SWAP1 DIV PUSH20 0xFFFFFFFFFFFFFFFFFFFFFFFFFFFFFFFFFFFFFFFF AND PUSH20 0xFFFFFFFFFFFFFFFFFFFFFFFFFFFFFFFFFFFFFFFF AND CALLER PUSH20 0xFFFFFFFFFFFFFFFFFFFFFFFFFFFFFFFFFFFFFFFF AND EQ ISZERO ISZERO PUSH2 0xA5F JUMPI PUSH1 0x0 DUP1 REVERT JUMPDEST PUSH1 0x0 PUSH1 0x4 DUP1 SLOAD SWAP1 POP GT ISZERO ISZERO PUSH2 0xA73 JUMPI PUSH1 0x0 DUP1 REVERT JUMPDEST PUSH1 0x4 DUP1 SLOAD SWAP1 POP PUSH2 0xA81 PUSH2 0x1339 JUMP JUMPDEST DUP2 ISZERO ISZERO PUSH2 0xA8A JUMPI INVALID JUMPDEST MOD SWAP1 POP PUSH1 0x4 DUP2 DUP2 SLOAD DUP2 LT ISZERO ISZERO PUSH2 0xA9C JUMPI INVALID JUMPDEST SWAP1 PUSH1 0x0 MSTORE PUSH1 0x20 PUSH1 0x0 KECCAK256 ADD PUSH1 0x0 SWAP1 SLOAD SWAP1 PUSH2 0x100 EXP SWAP1 DIV PUSH20 0xFFFFFFFFFFFFFFFFFFFFFFFFFFFFFFFFFFFFFFFF AND PUSH20 0xFFFFFFFFFFFFFFFFFFFFFFFFFFFFFFFFFFFFFFFF AND PUSH2 0x8FC ADDRESS PUSH20 0xFFFFFFFFFFFFFFFFFFFFFFFFFFFFFFFFFFFFFFFF AND BALANCE SWAP1 DUP2 ISZERO MUL SWAP1 PUSH1 0x40 MLOAD PUSH1 0x0 PUSH1 0x40 MLOAD DUP1 DUP4 SUB DUP2 DUP6 DUP9 DUP9 CALL SWAP4 POP POP POP POP ISZERO DUP1 ISZERO PUSH2 0xB23 JUMPI RETURNDATASIZE PUSH1 0x0 DUP1 RETURNDATACOPY RETURNDATASIZE PUSH1 0x0 REVERT JUMPDEST POP PUSH1 0x3 PUSH1 0x0 PUSH1 0x4 DUP4 DUP2 SLOAD DUP2 LT ISZERO ISZERO PUSH2 0xB37 JUMPI INVALID JUMPDEST SWAP1 PUSH1 0x0 MSTORE PUSH1 0x20 PUSH1 0x0 KECCAK256 ADD PUSH1 0x0 SWAP1 SLOAD SWAP1 PUSH2 0x100 EXP SWAP1 DIV PUSH20 0xFFFFFFFFFFFFFFFFFFFFFFFFFFFFFFFFFFFFFFFF AND PUSH20 0xFFFFFFFFFFFFFFFFFFFFFFFFFFFFFFFFFFFFFFFF AND PUSH20 0xFFFFFFFFFFFFFFFFFFFFFFFFFFFFFFFFFFFFFFFF AND DUP2 MSTORE PUSH1 0x20 ADD SWAP1 DUP2 MSTORE PUSH1 0x20 ADD PUSH1 0x0 KECCAK256 PUSH1 0x0 ADD PUSH1 0x5 PUSH1 0x0 ADD SWAP1 DUP1 SLOAD PUSH1 0x1 DUP2 PUSH1 0x1 AND ISZERO PUSH2 0x100 MUL SUB AND PUSH1 0x2 SWAP1 DIV PUSH2 0xBC3 SWAP3 SWAP2 SWAP1 PUSH2 0x144B JUMP JUMPDEST POP PUSH1 0x3 PUSH1 0x0 PUSH1 0x4 DUP4 DUP2 SLOAD DUP2 LT ISZERO ISZERO PUSH2 0xBD7 JUMPI INVALID JUMPDEST SWAP1 PUSH1 0x0 MSTORE PUSH1 0x20 PUSH1 0x0 KECCAK256 ADD PUSH1 0x0 SWAP1 SLOAD SWAP1 PUSH2 0x100 EXP SWAP1 DIV PUSH20 0xFFFFFFFFFFFFFFFFFFFFFFFFFFFFFFFFFFFFFFFF AND PUSH20 0xFFFFFFFFFFFFFFFFFFFFFFFFFFFFFFFFFFFFFFFF AND PUSH20 0xFFFFFFFFFFFFFFFFFFFFFFFFFFFFFFFFFFFFFFFF AND DUP2 MSTORE PUSH1 0x20 ADD SWAP1 DUP2 MSTORE PUSH1 0x20 ADD PUSH1 0x0 KECCAK256 PUSH1 0x1 ADD SLOAD PUSH1 0x5 PUSH1 0x1 ADD DUP2 SWAP1 SSTORE POP PUSH1 0x0 PUSH1 0x40 MLOAD SWAP1 DUP1 DUP3 MSTORE DUP1 PUSH1 0x20 MUL PUSH1 0x20 ADD DUP3 ADD PUSH1 0x40 MSTORE DUP1 ISZERO PUSH2 0xC79 JUMPI DUP2 PUSH1 0x20 ADD PUSH1 0x20 DUP3 MUL DUP1 CODESIZE DUP4 CODECOPY DUP1 DUP3 ADD SWAP2 POP POP SWAP1 POP JUMPDEST POP PUSH1 0x4 SWAP1 DUP1 MLOAD SWAP1 PUSH1 0x20 ADD SWAP1 PUSH2 0xC8F SWAP3 SWAP2 SWAP1 PUSH2 0x14D2 JUMP JUMPDEST POP PUSH1 0x0 PUSH1 0x40 MLOAD SWAP1 DUP1 DUP3 MSTORE DUP1 PUSH1 0x20 MUL PUSH1 0x20 ADD DUP3 ADD PUSH1 0x40 MSTORE DUP1 ISZERO PUSH2 0xCC0 JUMPI DUP2 PUSH1 0x20 ADD PUSH1 0x20 DUP3 MUL DUP1 CODESIZE DUP4 CODECOPY DUP1 DUP3 ADD SWAP2 POP POP SWAP1 POP JUMPDEST POP PUSH1 0x2 SWAP1 DUP1 MLOAD SWAP1 PUSH1 0x20 ADD SWAP1 PUSH2 0xCD6 SWAP3 SWAP2 SWAP1 PUSH2 0x14D2 JUMP JUMPDEST POP PUSH1 0x0 PUSH1 0x8 PUSH1 0x0 PUSH2 0x100 EXP DUP2 SLOAD DUP2 PUSH1 0xFF MUL NOT AND SWAP1 DUP4 ISZERO ISZERO MUL OR SWAP1 SSTORE POP PUSH32 0xD6D1EEBA639254BD05E36261AE299AF245328AB997FD9B7823D5FFF17F1B74A4 PUSH1 0x5 PUSH1 0x0 ADD PUSH1 0x5 PUSH1 0x1 ADD SLOAD PUSH1 0x40 MLOAD DUP1 DUP1 PUSH1 0x20 ADD DUP4 DUP2 MSTORE PUSH1 0x20 ADD DUP3 DUP2 SUB DUP3 MSTORE DUP5 DUP2 DUP2 SLOAD PUSH1 0x1 DUP2 PUSH1 0x1 AND ISZERO PUSH2 0x100 MUL SUB AND PUSH1 0x2 SWAP1 DIV DUP2 MSTORE PUSH1 0x20 ADD SWAP2 POP DUP1 SLOAD PUSH1 0x1 DUP2 PUSH1 0x1 AND ISZERO PUSH2 0x100 MUL SUB AND PUSH1 0x2 SWAP1 DIV DUP1 ISZERO PUSH2 0xDAD JUMPI DUP1 PUSH1 0x1F LT PUSH2 0xD82 JUMPI PUSH2 0x100 DUP1 DUP4 SLOAD DIV MUL DUP4 MSTORE SWAP2 PUSH1 0x20 ADD SWAP2 PUSH2 0xDAD JUMP JUMPDEST DUP3 ADD SWAP2 SWAP1 PUSH1 0x0 MSTORE PUSH1 0x20 PUSH1 0x0 KECCAK256 SWAP1 JUMPDEST DUP2 SLOAD DUP2 MSTORE SWAP1 PUSH1 0x1 ADD SWAP1 PUSH1 0x20 ADD DUP1 DUP4 GT PUSH2 0xD90 JUMPI DUP3 SWAP1 SUB PUSH1 0x1F AND DUP3 ADD SWAP2 JUMPDEST POP POP SWAP4 POP POP POP POP PUSH1 0x40 MLOAD DUP1 SWAP2 SUB SWAP1 LOG1 POP JUMP JUMPDEST PUSH1 0x0 DUP1 SLOAD PUSH1 0x1 DUP2 PUSH1 0x1 AND ISZERO PUSH2 0x100 MUL SUB AND PUSH1 0x2 SWAP1 DIV DUP1 PUSH1 0x1F ADD PUSH1 0x20 DUP1 SWAP2 DIV MUL PUSH1 0x20 ADD PUSH1 0x40 MLOAD SWAP1 DUP2 ADD PUSH1 0x40 MSTORE DUP1 SWAP3 SWAP2 SWAP1 DUP2 DUP2 MSTORE PUSH1 0x20 ADD DUP3 DUP1 SLOAD PUSH1 0x1 DUP2 PUSH1 0x1 AND ISZERO PUSH2 0x100 MUL SUB AND PUSH1 0x2 SWAP1 DIV DUP1 ISZERO PUSH2 0xE55 JUMPI DUP1 PUSH1 0x1F LT PUSH2 0xE2A JUMPI PUSH2 0x100 DUP1 DUP4 SLOAD DIV MUL DUP4 MSTORE SWAP2 PUSH1 0x20 ADD SWAP2 PUSH2 0xE55 JUMP JUMPDEST DUP3 ADD SWAP2 SWAP1 PUSH1 0x0 MSTORE PUSH1 0x20 PUSH1 0x0 KECCAK256 SWAP1 JUMPDEST DUP2 SLOAD DUP2 MSTORE SWAP1 PUSH1 0x1 ADD SWAP1 PUSH1 0x20 ADD DUP1 DUP4 GT PUSH2 0xE38 JUMPI DUP3 SWAP1 SUB PUSH1 0x1F AND DUP3 ADD SWAP2 JUMPDEST POP POP POP POP POP DUP2 JUMP JUMPDEST PUSH1 0x1 PUSH1 0x0 SWAP1 SLOAD SWAP1 PUSH2 0x100 EXP SWAP1 DIV PUSH20 0xFFFFFFFFFFFFFFFFFFFFFFFFFFFFFFFFFFFFFFFF AND DUP2 JUMP JUMPDEST PUSH1 0x2 DUP2 DUP2 SLOAD DUP2 LT ISZERO ISZERO PUSH2 0xE92 JUMPI INVALID JUMPDEST SWAP1 PUSH1 0x0 MSTORE PUSH1 0x20 PUSH1 0x0 KECCAK256 ADD PUSH1 0x0 SWAP2 POP SLOAD SWAP1 PUSH2 0x100 EXP SWAP1 DIV PUSH20 0xFFFFFFFFFFFFFFFFFFFFFFFFFFFFFFFFFFFFFFFF AND DUP2 JUMP JUMPDEST PUSH1 0x60 PUSH1 0x0 PUSH2 0xECE DUP4 PUSH2 0x126E JUMP JUMPDEST ISZERO PUSH2 0xEF3 JUMPI PUSH1 0x0 PUSH1 0x20 PUSH1 0x40 MLOAD SWAP1 DUP2 ADD PUSH1 0x40 MSTORE DUP1 PUSH1 0x0 DUP2 MSTORE POP SWAP1 DUP1 SWAP1 POP SWAP2 POP SWAP2 POP PUSH2 0x1019 JUMP JUMPDEST PUSH1 0x3 PUSH1 0x0 DUP5 PUSH20 0xFFFFFFFFFFFFFFFFFFFFFFFFFFFFFFFFFFFFFFFF AND PUSH20 0xFFFFFFFFFFFFFFFFFFFFFFFFFFFFFFFFFFFFFFFF AND DUP2 MSTORE PUSH1 0x20 ADD SWAP1 DUP2 MSTORE PUSH1 0x20 ADD PUSH1 0x0 KECCAK256 PUSH1 0x0 ADD PUSH1 0x3 PUSH1 0x0 DUP6 PUSH20 0xFFFFFFFFFFFFFFFFFFFFFFFFFFFFFFFFFFFFFFFF AND PUSH20 0xFFFFFFFFFFFFFFFFFFFFFFFFFFFFFFFFFFFFFFFF AND DUP2 MSTORE PUSH1 0x20 ADD SWAP1 DUP2 MSTORE PUSH1 0x20 ADD PUSH1 0x0 KECCAK256 PUSH1 0x1 ADD SLOAD DUP2 DUP1 SLOAD PUSH1 0x1 DUP2 PUSH1 0x1 AND ISZERO PUSH2 0x100 MUL SUB AND PUSH1 0x2 SWAP1 DIV DUP1 PUSH1 0x1F ADD PUSH1 0x20 DUP1 SWAP2 DIV MUL PUSH1 0x20 ADD PUSH1 0x40 MLOAD SWAP1 DUP2 ADD PUSH1 0x40 MSTORE DUP1 SWAP3 SWAP2 SWAP1 DUP2 DUP2 MSTORE PUSH1 0x20 ADD DUP3 DUP1 SLOAD PUSH1 0x1 DUP2 PUSH1 0x1 AND ISZERO PUSH2 0x100 MUL SUB AND PUSH1 0x2 SWAP1 DIV DUP1 ISZERO PUSH2 0x100D JUMPI DUP1 PUSH1 0x1F LT PUSH2 0xFE2 JUMPI PUSH2 0x100 DUP1 DUP4 SLOAD DIV MUL DUP4 MSTORE SWAP2 PUSH1 0x20 ADD SWAP2 PUSH2 0x100D JUMP JUMPDEST DUP3 ADD SWAP2 SWAP1 PUSH1 0x0 MSTORE PUSH1 0x20 PUSH1 0x0 KECCAK256 SWAP1 JUMPDEST DUP2 SLOAD DUP2 MSTORE SWAP1 PUSH1 0x1 ADD SWAP1 PUSH1 0x20 ADD DUP1 DUP4 GT PUSH2 0xFF0 JUMPI DUP3 SWAP1 SUB PUSH1 0x1F AND DUP3 ADD SWAP2 JUMPDEST POP POP POP POP POP SWAP2 POP SWAP2 POP SWAP2 POP JUMPDEST SWAP2 POP SWAP2 JUMP JUMPDEST PUSH1 0xA SLOAD DUP2 JUMP JUMPDEST PUSH1 0x9 SLOAD DUP2 JUMP JUMPDEST PUSH1 0x60 PUSH1 0x2 DUP1 SLOAD DUP1 PUSH1 0x20 MUL PUSH1 0x20 ADD PUSH1 0x40 MLOAD SWAP1 DUP2 ADD PUSH1 0x40 MSTORE DUP1 SWAP3 SWAP2 SWAP1 DUP2 DUP2 MSTORE PUSH1 0x20 ADD DUP3 DUP1 SLOAD DUP1 ISZERO PUSH2 0x10AE JUMPI PUSH1 0x20 MUL DUP3 ADD SWAP2 SWAP1 PUSH1 0x0 MSTORE PUSH1 0x20 PUSH1 0x0 KECCAK256 SWAP1 JUMPDEST DUP2 PUSH1 0x0 SWAP1 SLOAD SWAP1 PUSH2 0x100 EXP SWAP1 DIV PUSH20 0xFFFFFFFFFFFFFFFFFFFFFFFFFFFFFFFFFFFFFFFF AND PUSH20 0xFFFFFFFFFFFFFFFFFFFFFFFFFFFFFFFFFFFFFFFF AND DUP2 MSTORE PUSH1 0x20 ADD SWAP1 PUSH1 0x1 ADD SWAP1 DUP1 DUP4 GT PUSH2 0x1064 JUMPI JUMPDEST POP POP POP POP POP SWAP1 POP SWAP1 JUMP JUMPDEST PUSH1 0x1 PUSH1 0x0 SWAP1 SLOAD SWAP1 PUSH2 0x100 EXP SWAP1 DIV PUSH20 0xFFFFFFFFFFFFFFFFFFFFFFFFFFFFFFFFFFFFFFFF AND PUSH20 0xFFFFFFFFFFFFFFFFFFFFFFFFFFFFFFFFFFFFFFFF AND CALLER PUSH20 0xFFFFFFFFFFFFFFFFFFFFFFFFFFFFFFFFFFFFFFFF AND EQ ISZERO ISZERO PUSH2 0x1114 JUMPI PUSH1 0x0 DUP1 REVERT JUMPDEST PUSH1 0x1 PUSH1 0x8 PUSH1 0x0 PUSH2 0x100 EXP DUP2 SLOAD DUP2 PUSH1 0xFF MUL NOT AND SWAP1 DUP4 ISZERO ISZERO MUL OR SWAP1 SSTORE POP PUSH1 0x0 DUP3 EQ PUSH2 0x113D JUMPI DUP2 PUSH2 0x1140 JUMP JUMPDEST PUSH1 0x1 JUMPDEST PUSH1 0x9 DUP2 SWAP1 SSTORE POP PUSH1 0x0 DUP2 EQ PUSH2 0x1154 JUMPI DUP1 PUSH2 0x1157 JUMP JUMPDEST PUSH1 0x1 JUMPDEST PUSH1 0xA DUP2 SWAP1 SSTORE POP POP POP JUMP JUMPDEST PUSH1 0x0 ADDRESS PUSH20 0xFFFFFFFFFFFFFFFFFFFFFFFFFFFFFFFFFFFFFFFF AND BALANCE SWAP1 POP SWAP1 JUMP JUMPDEST PUSH1 0x5 DUP1 PUSH1 0x0 ADD DUP1 SLOAD PUSH1 0x1 DUP2 PUSH1 0x1 AND ISZERO PUSH2 0x100 MUL SUB AND PUSH1 0x2 SWAP1 DIV DUP1 PUSH1 0x1F ADD PUSH1 0x20 DUP1 SWAP2 DIV MUL PUSH1 0x20 ADD PUSH1 0x40 MLOAD SWAP1 DUP2 ADD PUSH1 0x40 MSTORE DUP1 SWAP3 SWAP2 SWAP1 DUP2 DUP2 MSTORE PUSH1 0x20 ADD DUP3 DUP1 SLOAD PUSH1 0x1 DUP2 PUSH1 0x1 AND ISZERO PUSH2 0x100 MUL SUB AND PUSH1 0x2 SWAP1 DIV DUP1 ISZERO PUSH2 0x121A JUMPI DUP1 PUSH1 0x1F LT PUSH2 0x11EF JUMPI PUSH2 0x100 DUP1 DUP4 SLOAD DIV MUL DUP4 MSTORE SWAP2 PUSH1 0x20 ADD SWAP2 PUSH2 0x121A JUMP JUMPDEST DUP3 ADD SWAP2 SWAP1 PUSH1 0x0 MSTORE PUSH1 0x20 PUSH1 0x0 KECCAK256 SWAP1 JUMPDEST DUP2 SLOAD DUP2 MSTORE SWAP1 PUSH1 0x1 ADD SWAP1 PUSH1 0x20 ADD DUP1 DUP4 GT PUSH2 0x11FD JUMPI DUP3 SWAP1 SUB PUSH1 0x1F AND DUP3 ADD SWAP2 JUMPDEST POP POP POP POP POP SWAP1 DUP1 PUSH1 0x1 ADD SLOAD SWAP1 DUP1 PUSH1 0x2 ADD SLOAD SWAP1 POP DUP4 JUMP JUMPDEST PUSH1 0x4 DUP2 DUP2 SLOAD DUP2 LT ISZERO ISZERO PUSH2 0x123F JUMPI INVALID JUMPDEST SWAP1 PUSH1 0x0 MSTORE PUSH1 0x20 PUSH1 0x0 KECCAK256 ADD PUSH1 0x0 SWAP2 POP SLOAD SWAP1 PUSH2 0x100 EXP SWAP1 DIV PUSH20 0xFFFFFFFFFFFFFFFFFFFFFFFFFFFFFFFFFFFFFFFF AND DUP2 JUMP JUMPDEST PUSH1 0x0 DUP1 PUSH1 0x2 DUP1 SLOAD SWAP1 POP EQ ISZERO PUSH2 0x1286 JUMPI PUSH1 0x1 SWAP1 POP PUSH2 0x1334 JUMP JUMPDEST DUP2 PUSH20 0xFFFFFFFFFFFFFFFFFFFFFFFFFFFFFFFFFFFFFFFF AND PUSH1 0x2 PUSH1 0x3 PUSH1 0x0 DUP6 PUSH20 0xFFFFFFFFFFFFFFFFFFFFFFFFFFFFFFFFFFFFFFFF AND PUSH20 0xFFFFFFFFFFFFFFFFFFFFFFFFFFFFFFFFFFFFFFFF AND DUP2 MSTORE PUSH1 0x20 ADD SWAP1 DUP2 MSTORE PUSH1 0x20 ADD PUSH1 0x0 KECCAK256 PUSH1 0x2 ADD SLOAD DUP2 SLOAD DUP2 LT ISZERO ISZERO PUSH2 0x12EE JUMPI INVALID JUMPDEST SWAP1 PUSH1 0x0 MSTORE PUSH1 0x20 PUSH1 0x0 KECCAK256 ADD PUSH1 0x0 SWAP1 SLOAD SWAP1 PUSH2 0x100 EXP SWAP1 DIV PUSH20 0xFFFFFFFFFFFFFFFFFFFFFFFFFFFFFFFFFFFFFFFF AND PUSH20 0xFFFFFFFFFFFFFFFFFFFFFFFFFFFFFFFFFFFFFFFF AND EQ ISZERO SWAP1 POP JUMPDEST SWAP2 SWAP1 POP JUMP JUMPDEST PUSH1 0x0 DIFFICULTY TIMESTAMP PUSH1 0x4 PUSH1 0x40 MLOAD DUP1 DUP5 DUP2 MSTORE PUSH1 0x20 ADD DUP4 DUP2 MSTORE PUSH1 0x20 ADD DUP3 DUP1 SLOAD DUP1 ISZERO PUSH2 0x13B3 JUMPI PUSH1 0x20 MUL DUP3 ADD SWAP2 SWAP1 PUSH1 0x0 MSTORE PUSH1 0x20 PUSH1 0x0 KECCAK256 SWAP1 JUMPDEST DUP2 PUSH1 0x0 SWAP1 SLOAD SWAP1 PUSH2 0x100 EXP SWAP1 DIV PUSH20 0xFFFFFFFFFFFFFFFFFFFFFFFFFFFFFFFFFFFFFFFF AND PUSH20 0xFFFFFFFFFFFFFFFFFFFFFFFFFFFFFFFFFFFFFFFF AND DUP2 MSTORE PUSH1 0x20 ADD SWAP1 PUSH1 0x1 ADD SWAP1 DUP1 DUP4 GT PUSH2 0x1369 JUMPI JUMPDEST POP POP SWAP4 POP POP POP POP PUSH1 0x40 MLOAD DUP1 SWAP2 SUB SWAP1 KECCAK256 PUSH1 0x1 SWAP1 DIV SWAP1 POP SWAP1 JUMP JUMPDEST DUP3 DUP1 SLOAD PUSH1 0x1 DUP2 PUSH1 0x1 AND ISZERO PUSH2 0x100 MUL SUB AND PUSH1 0x2 SWAP1 DIV SWAP1 PUSH1 0x0 MSTORE PUSH1 0x20 PUSH1 0x0 KECCAK256 SWAP1 PUSH1 0x1F ADD PUSH1 0x20 SWAP1 DIV DUP2 ADD SWAP3 DUP3 PUSH1 0x1F LT PUSH2 0x140C JUMPI DUP1 MLOAD PUSH1 0xFF NOT AND DUP4 DUP1 ADD OR DUP6 SSTORE PUSH2 0x143A JUMP JUMPDEST DUP3 DUP1 ADD PUSH1 0x1 ADD DUP6 SSTORE DUP3 ISZERO PUSH2 0x143A JUMPI SWAP2 DUP3 ADD JUMPDEST DUP3 DUP2 GT ISZERO PUSH2 0x1439 JUMPI DUP3 MLOAD DUP3 SSTORE SWAP2 PUSH1 0x20 ADD SWAP2 SWAP1 PUSH1 0x1 ADD SWAP1 PUSH2 0x141E JUMP JUMPDEST JUMPDEST POP SWAP1 POP PUSH2 0x1447 SWAP2 SWAP1 PUSH2 0x155C JUMP JUMPDEST POP SWAP1 JUMP JUMPDEST DUP3 DUP1 SLOAD PUSH1 0x1 DUP2 PUSH1 0x1 AND ISZERO PUSH2 0x100 MUL SUB AND PUSH1 0x2 SWAP1 DIV SWAP1 PUSH1 0x0 MSTORE PUSH1 0x20 PUSH1 0x0 KECCAK256 SWAP1 PUSH1 0x1F ADD PUSH1 0x20 SWAP1 DIV DUP2 ADD SWAP3 DUP3 PUSH1 0x1F LT PUSH2 0x1484 JUMPI DUP1 SLOAD DUP6 SSTORE PUSH2 0x14C1 JUMP JUMPDEST DUP3 DUP1 ADD PUSH1 0x1 ADD DUP6 SSTORE DUP3 ISZERO PUSH2 0x14C1 JUMPI PUSH1 0x0 MSTORE PUSH1 0x20 PUSH1 0x0 KECCAK256 SWAP2 PUSH1 0x1F ADD PUSH1 0x20 SWAP1 DIV DUP3 ADD JUMPDEST DUP3 DUP2 GT ISZERO PUSH2 0x14C0 JUMPI DUP3 SLOAD DUP3 SSTORE SWAP2 PUSH1 0x1 ADD SWAP2 SWAP1 PUSH1 0x1 ADD SWAP1 PUSH2 0x14A5 JUMP JUMPDEST JUMPDEST POP SWAP1 POP PUSH2 0x14CE SWAP2 SWAP1 PUSH2 0x155C JUMP JUMPDEST POP SWAP1 JUMP JUMPDEST DUP3 DUP1 SLOAD DUP3 DUP3 SSTORE SWAP1 PUSH1 0x0 MSTORE PUSH1 0x20 PUSH1 0x0 KECCAK256 SWAP1 DUP2 ADD SWAP3 DUP3 ISZERO PUSH2 0x154B JUMPI SWAP2 PUSH1 0x20 MUL DUP3 ADD JUMPDEST DUP3 DUP2 GT ISZERO PUSH2 0x154A JUMPI DUP3 MLOAD DUP3 PUSH1 0x0 PUSH2 0x100 EXP DUP2 SLOAD DUP2 PUSH20 0xFFFFFFFFFFFFFFFFFFFFFFFFFFFFFFFFFFFFFFFF MUL NOT AND SWAP1 DUP4 PUSH20 0xFFFFFFFFFFFFFFFFFFFFFFFFFFFFFFFFFFFFFFFF AND MUL OR SWAP1 SSTORE POP SWAP2 PUSH1 0x20 ADD SWAP2 SWAP1 PUSH1 0x1 ADD SWAP1 PUSH2 0x14F2 JUMP JUMPDEST JUMPDEST POP SWAP1 POP PUSH2 0x1558 SWAP2 SWAP1 PUSH2 0x1581 JUMP JUMPDEST POP SWAP1 JUMP JUMPDEST PUSH2 0x157E SWAP2 SWAP1 JUMPDEST DUP1 DUP3 GT ISZERO PUSH2 0x157A JUMPI PUSH1 0x0 DUP2 PUSH1 0x0 SWAP1 SSTORE POP PUSH1 0x1 ADD PUSH2 0x1562 JUMP JUMPDEST POP SWAP1 JUMP JUMPDEST SWAP1 JUMP JUMPDEST PUSH2 0x15C1 SWAP2 SWAP1 JUMPDEST DUP1 DUP3 GT ISZERO PUSH2 0x15BD JUMPI PUSH1 0x0 DUP2 DUP2 PUSH2 0x100 EXP DUP2 SLOAD SWAP1 PUSH20 0xFFFFFFFFFFFFFFFFFFFFFFFFFFFFFFFFFFFFFFFF MUL NOT AND SWAP1 SSTORE POP PUSH1 0x1 ADD PUSH2 0x1587 JUMP JUMPDEST POP SWAP1 JUMP JUMPDEST SWAP1 JUMP STOP LOG1 PUSH6 0x627A7A723058 KECCAK256 SIGNEXTEND SWAP2 0xe6 0xcf AND 0xd5 0xa6 0xe6 ADDMOD 0xd 0xb7 0xae PUSH8 0xAA43A8B2300EF36F PUSH24 0x18454B8175F087AF73720029A165627A7A7230582038480D JUMPI 0xb9 0xe9 0x2e 0xc9 CALLDATACOPY DUP12 0xdd 0xf7 CALLDATASIZE CALL 0xb0 PUSH21 0x5A6C5558E47940DCCA4137A35B4958E0029000000 "
				},
				"gasEstimates": {
					"creation": {
						"codeDepositCost": "1569200",
						"executionCost": "1645",
						"totalCost": "1570845"
					},
					"external": {
						"createLottery(string)": "infinite",
						"deleteLottery(address)": "infinite",
						"getLotteries()": "infinite",
						"lotteries(uint256)": "786"
					}
				},
				"methodIdentifiers": {
					"createLottery(string)": "16842582",
					"deleteLottery(address)": "a7e46eac",
					"getLotteries()": "bcc82ec4",
					"lotteries(uint256)": "1398e076"
				}
			},
			"userdoc": {
				"methods": {}
			}
		}
	}
}