{
	"training/contracts/Constructor.sol": {
		"ConstructorContract": {
			"abi": [
				{
					"inputs": [],
					"name": "owner",
					"outputs": [
						{
							"internalType": "address",
							"name": "",
							"type": "address"
						}
					],
					"stateMutability": "view",
					"type": "function"
				},
				{
					"inputs": [],
					"name": "totalNumber",
					"outputs": [
						{
							"internalType": "int256",
							"name": "",
							"type": "int256"
						}
					],
					"stateMutability": "view",
					"type": "function"
				}
			],
			"devdoc": {
				"kind": "dev",
				"methods": {},
				"version": 1
			},
			"evm": {
				"assembly": "    /* \"training/contracts/Constructor.sol\":33:125  contract ConstructorContract{... */\n  mstore(0x40, 0x80)\n  callvalue\n  dup1\n  iszero\n  tag_1\n  jumpi\n  0x00\n  dup1\n  revert\ntag_1:\n  pop\n  dataSize(sub_0)\n  dup1\n  dataOffset(sub_0)\n  0x00\n  codecopy\n  0x00\n  return\nstop\n\nsub_0: assembly {\n        /* \"training/contracts/Constructor.sol\":33:125  contract ConstructorContract{... */\n      mstore(0x40, 0x80)\n      callvalue\n      dup1\n      iszero\n      tag_1\n      jumpi\n      0x00\n      dup1\n      revert\n    tag_1:\n      pop\n      jumpi(tag_2, lt(calldatasize, 0x04))\n      shr(0xe0, calldataload(0x00))\n      dup1\n      0x8da5cb5b\n      eq\n      tag_3\n      jumpi\n      dup1\n      0xc0daddfd\n      eq\n      tag_4\n      jumpi\n    tag_2:\n      0x00\n      dup1\n      revert\n        /* \"training/contracts/Constructor.sol\":67:87  address public owner */\n    tag_3:\n      tag_5\n      tag_6\n      jump\t// in\n    tag_5:\n      mload(0x40)\n      tag_7\n      swap2\n      swap1\n      tag_8\n      jump\t// in\n    tag_7:\n      mload(0x40)\n      dup1\n      swap2\n      sub\n      swap1\n      return\n        /* \"training/contracts/Constructor.sol\":93:115  int public totalNumber */\n    tag_4:\n      tag_9\n      tag_10\n      jump\t// in\n    tag_9:\n      mload(0x40)\n      tag_11\n      swap2\n      swap1\n      tag_12\n      jump\t// in\n    tag_11:\n      mload(0x40)\n      dup1\n      swap2\n      sub\n      swap1\n      return\n        /* \"training/contracts/Constructor.sol\":67:87  address public owner */\n    tag_6:\n      0x00\n      dup1\n      sload\n      swap1\n      0x0100\n      exp\n      swap1\n      div\n      0xffffffffffffffffffffffffffffffffffffffff\n      and\n      dup2\n      jump\t// out\n        /* \"training/contracts/Constructor.sol\":93:115  int public totalNumber */\n    tag_10:\n      sload(0x01)\n      dup2\n      jump\t// out\n        /* \"#utility.yul\":7:125   */\n    tag_14:\n        /* \"#utility.yul\":94:118   */\n      tag_16\n        /* \"#utility.yul\":112:117   */\n      dup2\n        /* \"#utility.yul\":94:118   */\n      tag_17\n      jump\t// in\n    tag_16:\n        /* \"#utility.yul\":89:92   */\n      dup3\n        /* \"#utility.yul\":82:119   */\n      mstore\n        /* \"#utility.yul\":7:125   */\n      pop\n      pop\n      jump\t// out\n        /* \"#utility.yul\":131:246   */\n    tag_18:\n        /* \"#utility.yul\":216:239   */\n      tag_20\n        /* \"#utility.yul\":233:238   */\n      dup2\n        /* \"#utility.yul\":216:239   */\n      tag_21\n      jump\t// in\n    tag_20:\n        /* \"#utility.yul\":211:214   */\n      dup3\n        /* \"#utility.yul\":204:240   */\n      mstore\n        /* \"#utility.yul\":131:246   */\n      pop\n      pop\n      jump\t// out\n        /* \"#utility.yul\":252:474   */\n    tag_8:\n        /* \"#utility.yul\":345:349   */\n      0x00\n        /* \"#utility.yul\":383:385   */\n      0x20\n        /* \"#utility.yul\":372:381   */\n      dup3\n        /* \"#utility.yul\":368:386   */\n      add\n        /* \"#utility.yul\":360:386   */\n      swap1\n      pop\n        /* \"#utility.yul\":396:467   */\n      tag_23\n        /* \"#utility.yul\":464:465   */\n      0x00\n        /* \"#utility.yul\":453:462   */\n      dup4\n        /* \"#utility.yul\":449:466   */\n      add\n        /* \"#utility.yul\":440:446   */\n      dup5\n        /* \"#utility.yul\":396:467   */\n      tag_14\n      jump\t// in\n    tag_23:\n        /* \"#utility.yul\":252:474   */\n      swap3\n      swap2\n      pop\n      pop\n      jump\t// out\n        /* \"#utility.yul\":480:698   */\n    tag_12:\n        /* \"#utility.yul\":571:575   */\n      0x00\n        /* \"#utility.yul\":609:611   */\n      0x20\n        /* \"#utility.yul\":598:607   */\n      dup3\n        /* \"#utility.yul\":594:612   */\n      add\n        /* \"#utility.yul\":586:612   */\n      swap1\n      pop\n        /* \"#utility.yul\":622:691   */\n      tag_25\n        /* \"#utility.yul\":688:689   */\n      0x00\n        /* \"#utility.yul\":677:686   */\n      dup4\n        /* \"#utility.yul\":673:690   */\n      add\n        /* \"#utility.yul\":664:670   */\n      dup5\n        /* \"#utility.yul\":622:691   */\n      tag_18\n      jump\t// in\n    tag_25:\n        /* \"#utility.yul\":480:698   */\n      swap3\n      swap2\n      pop\n      pop\n      jump\t// out\n        /* \"#utility.yul\":704:800   */\n    tag_17:\n        /* \"#utility.yul\":741:748   */\n      0x00\n        /* \"#utility.yul\":770:794   */\n      tag_27\n        /* \"#utility.yul\":788:793   */\n      dup3\n        /* \"#utility.yul\":770:794   */\n      tag_28\n      jump\t// in\n    tag_27:\n        /* \"#utility.yul\":759:794   */\n      swap1\n      pop\n        /* \"#utility.yul\":704:800   */\n      swap2\n      swap1\n      pop\n      jump\t// out\n        /* \"#utility.yul\":806:882   */\n    tag_21:\n        /* \"#utility.yul\":842:849   */\n      0x00\n        /* \"#utility.yul\":871:876   */\n      dup2\n        /* \"#utility.yul\":860:876   */\n      swap1\n      pop\n        /* \"#utility.yul\":806:882   */\n      swap2\n      swap1\n      pop\n      jump\t// out\n        /* \"#utility.yul\":888:1014   */\n    tag_28:\n        /* \"#utility.yul\":925:932   */\n      0x00\n        /* \"#utility.yul\":965:1007   */\n      0xffffffffffffffffffffffffffffffffffffffff\n        /* \"#utility.yul\":958:963   */\n      dup3\n        /* \"#utility.yul\":954:1008   */\n      and\n        /* \"#utility.yul\":943:1008   */\n      swap1\n      pop\n        /* \"#utility.yul\":888:1014   */\n      swap2\n      swap1\n      pop\n      jump\t// out\n\n    auxdata: 0xa2646970667358221220bde876eb4700f43131fe773deb29a2d5b78445f4c1161fad76d62ba690d2ee7764736f6c63430008070033\n}\n",
				"bytecode": {
					"linkReferences": {},
					"object": "608060405234801561001057600080fd5b50610167806100206000396000f3fe608060405234801561001057600080fd5b50600436106100365760003560e01c80638da5cb5b1461003b578063c0daddfd14610059575b600080fd5b610043610077565b60405161005091906100bf565b60405180910390f35b61006161009b565b60405161006e91906100da565b60405180910390f35b60008054906101000a900473ffffffffffffffffffffffffffffffffffffffff1681565b60015481565b6100aa816100f5565b82525050565b6100b981610107565b82525050565b60006020820190506100d460008301846100a1565b92915050565b60006020820190506100ef60008301846100b0565b92915050565b600061010082610111565b9050919050565b6000819050919050565b600073ffffffffffffffffffffffffffffffffffffffff8216905091905056fea2646970667358221220bde876eb4700f43131fe773deb29a2d5b78445f4c1161fad76d62ba690d2ee7764736f6c63430008070033",
					"opcodes": "PUSH1 0x80 PUSH1 0x40 MSTORE CALLVALUE DUP1 ISZERO PUSH2 0x10 JUMPI PUSH1 0x0 DUP1 REVERT JUMPDEST POP PUSH2 0x167 DUP1 PUSH2 0x20 PUSH1 0x0 CODECOPY PUSH1 0x0 RETURN INVALID PUSH1 0x80 PUSH1 0x40 MSTORE CALLVALUE DUP1 ISZERO PUSH2 0x10 JUMPI PUSH1 0x0 DUP1 REVERT JUMPDEST POP PUSH1 0x4 CALLDATASIZE LT PUSH2 0x36 JUMPI PUSH1 0x0 CALLDATALOAD PUSH1 0xE0 SHR DUP1 PUSH4 0x8DA5CB5B EQ PUSH2 0x3B JUMPI DUP1 PUSH4 0xC0DADDFD EQ PUSH2 0x59 JUMPI JUMPDEST PUSH1 0x0 DUP1 REVERT JUMPDEST PUSH2 0x43 PUSH2 0x77 JUMP JUMPDEST PUSH1 0x40 MLOAD PUSH2 0x50 SWAP2 SWAP1 PUSH2 0xBF JUMP JUMPDEST PUSH1 0x40 MLOAD DUP1 SWAP2 SUB SWAP1 RETURN JUMPDEST PUSH2 0x61 PUSH2 0x9B JUMP JUMPDEST PUSH1 0x40 MLOAD PUSH2 0x6E SWAP2 SWAP1 PUSH2 0xDA JUMP JUMPDEST PUSH1 0x40 MLOAD DUP1 SWAP2 SUB SWAP1 RETURN JUMPDEST PUSH1 0x0 DUP1 SLOAD SWAP1 PUSH2 0x100 EXP SWAP1 DIV PUSH20 0xFFFFFFFFFFFFFFFFFFFFFFFFFFFFFFFFFFFFFFFF AND DUP2 JUMP JUMPDEST PUSH1 0x1 SLOAD DUP2 JUMP JUMPDEST PUSH2 0xAA DUP2 PUSH2 0xF5 JUMP JUMPDEST DUP3 MSTORE POP POP JUMP JUMPDEST PUSH2 0xB9 DUP2 PUSH2 0x107 JUMP JUMPDEST DUP3 MSTORE POP POP JUMP JUMPDEST PUSH1 0x0 PUSH1 0x20 DUP3 ADD SWAP1 POP PUSH2 0xD4 PUSH1 0x0 DUP4 ADD DUP5 PUSH2 0xA1 JUMP JUMPDEST SWAP3 SWAP2 POP POP JUMP JUMPDEST PUSH1 0x0 PUSH1 0x20 DUP3 ADD SWAP1 POP PUSH2 0xEF PUSH1 0x0 DUP4 ADD DUP5 PUSH2 0xB0 JUMP JUMPDEST SWAP3 SWAP2 POP POP JUMP JUMPDEST PUSH1 0x0 PUSH2 0x100 DUP3 PUSH2 0x111 JUMP JUMPDEST SWAP1 POP SWAP2 SWAP1 POP JUMP JUMPDEST PUSH1 0x0 DUP2 SWAP1 POP SWAP2 SWAP1 POP JUMP JUMPDEST PUSH1 0x0 PUSH20 0xFFFFFFFFFFFFFFFFFFFFFFFFFFFFFFFFFFFFFFFF DUP3 AND SWAP1 POP SWAP2 SWAP1 POP JUMP INVALID LOG2 PUSH5 0x6970667358 0x22 SLT KECCAK256 0xBD 0xE8 PUSH23 0xEB4700F43131FE773DEB29A2D5B78445F4C1161FAD76D6 0x2B 0xA6 SWAP1 0xD2 0xEE PUSH24 0x64736F6C6343000807003300000000000000000000000000 "
				},
				"gasEstimates": {
					"creation": {
						"codeDepositCost": "71800",
						"executionCost": "123",
						"totalCost": "71923"
					},
					"external": {
						"owner()": "2489",
						"totalNumber()": "2429"
					}
				},
				"methodIdentifiers": {
					"owner()": "8da5cb5b",
					"totalNumber()": "c0daddfd"
				}
			},
			"userdoc": {
				"kind": "user",
				"methods": {},
				"version": 1
			}
		}
	}
}