{
	"training/contracts/Modifiers.sol": {
		"Odemeler": {
			"abi": [
				{
					"inputs": [],
					"name": "getBalance",
					"outputs": [
						{
							"internalType": "uint256",
							"name": "",
							"type": "uint256"
						}
					],
					"stateMutability": "view",
					"type": "function"
				},
				{
					"inputs": [],
					"name": "investor",
					"outputs": [
						{
							"internalType": "address payable",
							"name": "",
							"type": "address"
						}
					],
					"stateMutability": "view",
					"type": "function"
				},
				{
					"inputs": [],
					"name": "owner",
					"outputs": [
						{
							"internalType": "address",
							"name": "",
							"type": "address"
						}
					],
					"stateMutability": "view",
					"type": "function"
				},
				{
					"inputs": [],
					"name": "payMoney",
					"outputs": [],
					"stateMutability": "payable",
					"type": "function"
				},
				{
					"inputs": [],
					"name": "sendMoney",
					"outputs": [],
					"stateMutability": "payable",
					"type": "function"
				}
			],
			"devdoc": {
				"kind": "dev",
				"methods": {},
				"version": 1
			},
			"evm": {
				"assembly": "    /* \"training/contracts/Modifiers.sol\":33:881  contract Odemeler{... */\n  mstore(0x40, 0x80)\n  callvalue\n  dup1\n  iszero\n  tag_1\n  jumpi\n  0x00\n  dup1\n  revert\ntag_1:\n  pop\n  dataSize(sub_0)\n  dup1\n  dataOffset(sub_0)\n  0x00\n  codecopy\n  0x00\n  return\nstop\n\nsub_0: assembly {\n        /* \"training/contracts/Modifiers.sol\":33:881  contract Odemeler{... */\n      mstore(0x40, 0x80)\n      jumpi(tag_1, lt(calldatasize, 0x04))\n      shr(0xe0, calldataload(0x00))\n      dup1\n      0x12065fe0\n      eq\n      tag_2\n      jumpi\n      dup1\n      0x1dc1c5e3\n      eq\n      tag_3\n      jumpi\n      dup1\n      0x1e0018d6\n      eq\n      tag_4\n      jumpi\n      dup1\n      0x8da5cb5b\n      eq\n      tag_5\n      jumpi\n      dup1\n      0xcbedbf5a\n      eq\n      tag_6\n      jumpi\n    tag_1:\n      0x00\n      dup1\n      revert\n        /* \"training/contracts/Modifiers.sol\":478:581  function getBalance() public onlyOwner view returns(uint) {... */\n    tag_2:\n      callvalue\n      dup1\n      iszero\n      tag_7\n      jumpi\n      0x00\n      dup1\n      revert\n    tag_7:\n      pop\n      tag_8\n      tag_9\n      jump\t// in\n    tag_8:\n      mload(0x40)\n      tag_10\n      swap2\n      swap1\n      tag_11\n      jump\t// in\n    tag_10:\n      mload(0x40)\n      dup1\n      swap2\n      sub\n      swap1\n      return\n        /* \"training/contracts/Modifiers.sol\":428:472  function payMoney() external payable {... */\n    tag_3:\n      tag_12\n      tag_13\n      jump\t// in\n    tag_12:\n      stop\n        /* \"training/contracts/Modifiers.sol\":82:113  address payable public investor */\n    tag_4:\n      callvalue\n      dup1\n      iszero\n      tag_14\n      jumpi\n      0x00\n      dup1\n      revert\n    tag_14:\n      pop\n      tag_15\n      tag_16\n      jump\t// in\n    tag_15:\n      mload(0x40)\n      tag_17\n      swap2\n      swap1\n      tag_18\n      jump\t// in\n    tag_17:\n      mload(0x40)\n      dup1\n      swap2\n      sub\n      swap1\n      return\n        /* \"training/contracts/Modifiers.sol\":56:76  address public owner */\n    tag_5:\n      callvalue\n      dup1\n      iszero\n      tag_19\n      jumpi\n      0x00\n      dup1\n      revert\n    tag_19:\n      pop\n      tag_20\n      tag_21\n      jump\t// in\n    tag_20:\n      mload(0x40)\n      tag_22\n      swap2\n      swap1\n      tag_23\n      jump\t// in\n    tag_22:\n      mload(0x40)\n      dup1\n      swap2\n      sub\n      swap1\n      return\n        /* \"training/contracts/Modifiers.sol\":587:878  function sendMoney() external onlyOwner payable {... */\n    tag_6:\n      tag_24\n      tag_25\n      jump\t// in\n    tag_24:\n      stop\n        /* \"training/contracts/Modifiers.sol\":478:581  function getBalance() public onlyOwner view returns(uint) {... */\n    tag_9:\n        /* \"training/contracts/Modifiers.sol\":530:534  uint */\n      0x00\n        /* \"training/contracts/Modifiers.sol\":357:362  owner */\n      dup1\n      0x00\n      swap1\n      sload\n      swap1\n      0x0100\n      exp\n      swap1\n      div\n      0xffffffffffffffffffffffffffffffffffffffff\n      and\n        /* \"training/contracts/Modifiers.sol\":345:362  msg.sender==owner */\n      0xffffffffffffffffffffffffffffffffffffffff\n      and\n        /* \"training/contracts/Modifiers.sol\":345:355  msg.sender */\n      caller\n        /* \"training/contracts/Modifiers.sol\":345:362  msg.sender==owner */\n      0xffffffffffffffffffffffffffffffffffffffff\n      and\n      eq\n        /* \"training/contracts/Modifiers.sol\":337:403  require(msg.sender==owner, \"Only the owner can call the function\") */\n      tag_27\n      jumpi\n      mload(0x40)\n      0x08c379a000000000000000000000000000000000000000000000000000000000\n      dup2\n      mstore\n      0x04\n      add\n      tag_28\n      swap1\n      tag_29\n      jump\t// in\n    tag_28:\n      mload(0x40)\n      dup1\n      swap2\n      sub\n      swap1\n      revert\n    tag_27:\n        /* \"training/contracts/Modifiers.sol\":553:574  address(this).balance */\n      selfbalance\n        /* \"training/contracts/Modifiers.sol\":546:574  return address(this).balance */\n      swap1\n      pop\n        /* \"training/contracts/Modifiers.sol\":478:581  function getBalance() public onlyOwner view returns(uint) {... */\n      swap1\n      jump\t// out\n        /* \"training/contracts/Modifiers.sol\":428:472  function payMoney() external payable {... */\n    tag_13:\n      jump\t// out\n        /* \"training/contracts/Modifiers.sol\":82:113  address payable public investor */\n    tag_16:\n      0x01\n      0x00\n      swap1\n      sload\n      swap1\n      0x0100\n      exp\n      swap1\n      div\n      0xffffffffffffffffffffffffffffffffffffffff\n      and\n      dup2\n      jump\t// out\n        /* \"training/contracts/Modifiers.sol\":56:76  address public owner */\n    tag_21:\n      0x00\n      dup1\n      sload\n      swap1\n      0x0100\n      exp\n      swap1\n      div\n      0xffffffffffffffffffffffffffffffffffffffff\n      and\n      dup2\n      jump\t// out\n        /* \"training/contracts/Modifiers.sol\":587:878  function sendMoney() external onlyOwner payable {... */\n    tag_25:\n        /* \"training/contracts/Modifiers.sol\":357:362  owner */\n      0x00\n      dup1\n      sload\n      swap1\n      0x0100\n      exp\n      swap1\n      div\n      0xffffffffffffffffffffffffffffffffffffffff\n      and\n        /* \"training/contracts/Modifiers.sol\":345:362  msg.sender==owner */\n      0xffffffffffffffffffffffffffffffffffffffff\n      and\n        /* \"training/contracts/Modifiers.sol\":345:355  msg.sender */\n      caller\n        /* \"training/contracts/Modifiers.sol\":345:362  msg.sender==owner */\n      0xffffffffffffffffffffffffffffffffffffffff\n      and\n      eq\n        /* \"training/contracts/Modifiers.sol\":337:403  require(msg.sender==owner, \"Only the owner can call the function\") */\n      tag_33\n      jumpi\n      mload(0x40)\n      0x08c379a000000000000000000000000000000000000000000000000000000000\n      dup2\n      mstore\n      0x04\n      add\n      tag_34\n      swap1\n      tag_29\n      jump\t// in\n    tag_34:\n      mload(0x40)\n      dup1\n      swap2\n      sub\n      swap1\n      revert\n    tag_33:\n        /* \"training/contracts/Modifiers.sol\":664:706  0xAb8483F64d9C6d1EcF9b849Ae677dD3315835cb2 */\n      0xab8483f64d9c6d1ecf9b849ae677dd3315835cb2\n        /* \"training/contracts/Modifiers.sol\":645:653  investor */\n      0x01\n      0x00\n        /* \"training/contracts/Modifiers.sol\":645:707  investor = payable(0xAb8483F64d9C6d1EcF9b849Ae677dD3315835cb2) */\n      0x0100\n      exp\n      dup2\n      sload\n      dup2\n      0xffffffffffffffffffffffffffffffffffffffff\n      mul\n      not\n      and\n      swap1\n      dup4\n      0xffffffffffffffffffffffffffffffffffffffff\n      and\n      mul\n      or\n      swap1\n      sstore\n      pop\n        /* \"training/contracts/Modifiers.sol\":717:725  investor */\n      0x01\n      0x00\n      swap1\n      sload\n      swap1\n      0x0100\n      exp\n      swap1\n      div\n      0xffffffffffffffffffffffffffffffffffffffff\n      and\n        /* \"training/contracts/Modifiers.sol\":717:734  investor.transfer */\n      0xffffffffffffffffffffffffffffffffffffffff\n      and\n        /* \"training/contracts/Modifiers.sol\":717:743  investor.transfer(2 ether) */\n      0x08fc\n        /* \"training/contracts/Modifiers.sol\":735:742  2 ether */\n      0x1bc16d674ec80000\n        /* \"training/contracts/Modifiers.sol\":717:743  investor.transfer(2 ether) */\n      swap1\n      dup2\n      iszero\n      mul\n      swap1\n      mload(0x40)\n      0x00\n      mload(0x40)\n      dup1\n      dup4\n      sub\n      dup2\n      dup6\n      dup9\n      dup9\n      call\n      swap4\n      pop\n      pop\n      pop\n      pop\n      iszero\n      dup1\n      iszero\n      tag_37\n      jumpi\n      returndatasize\n      0x00\n      dup1\n      returndatacopy\n      revert(0x00, returndatasize)\n    tag_37:\n      pop\n        /* \"training/contracts/Modifiers.sol\":753:778  address payable investor2 */\n      0x00\n        /* \"training/contracts/Modifiers.sol\":789:831  0x4B20993Bc481177ec7E8f571ceCaE8A9e22C02db */\n      0x4b20993bc481177ec7e8f571cecae8a9e22c02db\n        /* \"training/contracts/Modifiers.sol\":753:832  address payable investor2 = payable(0x4B20993Bc481177ec7E8f571ceCaE8A9e22C02db) */\n      swap1\n      pop\n        /* \"training/contracts/Modifiers.sol\":842:851  investor2 */\n      dup1\n        /* \"training/contracts/Modifiers.sol\":842:860  investor2.transfer */\n      0xffffffffffffffffffffffffffffffffffffffff\n      and\n        /* \"training/contracts/Modifiers.sol\":842:871  investor2.transfer(1.5 ether) */\n      0x08fc\n        /* \"training/contracts/Modifiers.sol\":861:870  1.5 ether */\n      0x14d1120d7b160000\n        /* \"training/contracts/Modifiers.sol\":842:871  investor2.transfer(1.5 ether) */\n      swap1\n      dup2\n      iszero\n      mul\n      swap1\n      mload(0x40)\n      0x00\n      mload(0x40)\n      dup1\n      dup4\n      sub\n      dup2\n      dup6\n      dup9\n      dup9\n      call\n      swap4\n      pop\n      pop\n      pop\n      pop\n      iszero\n      dup1\n      iszero\n      tag_39\n      jumpi\n      returndatasize\n      0x00\n      dup1\n      returndatacopy\n      revert(0x00, returndatasize)\n    tag_39:\n      pop\n        /* \"training/contracts/Modifiers.sol\":635:878  {... */\n      pop\n        /* \"training/contracts/Modifiers.sol\":587:878  function sendMoney() external onlyOwner payable {... */\n      jump\t// out\n        /* \"#utility.yul\":7:149   */\n    tag_41:\n        /* \"#utility.yul\":110:142   */\n      tag_43\n        /* \"#utility.yul\":136:141   */\n      dup2\n        /* \"#utility.yul\":110:142   */\n      tag_44\n      jump\t// in\n    tag_43:\n        /* \"#utility.yul\":105:108   */\n      dup3\n        /* \"#utility.yul\":98:143   */\n      mstore\n        /* \"#utility.yul\":7:149   */\n      pop\n      pop\n      jump\t// out\n        /* \"#utility.yul\":155:273   */\n    tag_45:\n        /* \"#utility.yul\":242:266   */\n      tag_47\n        /* \"#utility.yul\":260:265   */\n      dup2\n        /* \"#utility.yul\":242:266   */\n      tag_48\n      jump\t// in\n    tag_47:\n        /* \"#utility.yul\":237:240   */\n      dup3\n        /* \"#utility.yul\":230:267   */\n      mstore\n        /* \"#utility.yul\":155:273   */\n      pop\n      pop\n      jump\t// out\n        /* \"#utility.yul\":279:645   */\n    tag_49:\n        /* \"#utility.yul\":421:424   */\n      0x00\n        /* \"#utility.yul\":442:509   */\n      tag_51\n        /* \"#utility.yul\":506:508   */\n      0x24\n        /* \"#utility.yul\":501:504   */\n      dup4\n        /* \"#utility.yul\":442:509   */\n      tag_52\n      jump\t// in\n    tag_51:\n        /* \"#utility.yul\":435:509   */\n      swap2\n      pop\n        /* \"#utility.yul\":518:611   */\n      tag_53\n        /* \"#utility.yul\":607:610   */\n      dup3\n        /* \"#utility.yul\":518:611   */\n      tag_54\n      jump\t// in\n    tag_53:\n        /* \"#utility.yul\":636:638   */\n      0x40\n        /* \"#utility.yul\":631:634   */\n      dup3\n        /* \"#utility.yul\":627:639   */\n      add\n        /* \"#utility.yul\":620:639   */\n      swap1\n      pop\n        /* \"#utility.yul\":279:645   */\n      swap2\n      swap1\n      pop\n      jump\t// out\n        /* \"#utility.yul\":651:769   */\n    tag_55:\n        /* \"#utility.yul\":738:762   */\n      tag_57\n        /* \"#utility.yul\":756:761   */\n      dup2\n        /* \"#utility.yul\":738:762   */\n      tag_58\n      jump\t// in\n    tag_57:\n        /* \"#utility.yul\":733:736   */\n      dup3\n        /* \"#utility.yul\":726:763   */\n      mstore\n        /* \"#utility.yul\":651:769   */\n      pop\n      pop\n      jump\t// out\n        /* \"#utility.yul\":775:997   */\n    tag_23:\n        /* \"#utility.yul\":868:872   */\n      0x00\n        /* \"#utility.yul\":906:908   */\n      0x20\n        /* \"#utility.yul\":895:904   */\n      dup3\n        /* \"#utility.yul\":891:909   */\n      add\n        /* \"#utility.yul\":883:909   */\n      swap1\n      pop\n        /* \"#utility.yul\":919:990   */\n      tag_60\n        /* \"#utility.yul\":987:988   */\n      0x00\n        /* \"#utility.yul\":976:985   */\n      dup4\n        /* \"#utility.yul\":972:989   */\n      add\n        /* \"#utility.yul\":963:969   */\n      dup5\n        /* \"#utility.yul\":919:990   */\n      tag_45\n      jump\t// in\n    tag_60:\n        /* \"#utility.yul\":775:997   */\n      swap3\n      swap2\n      pop\n      pop\n      jump\t// out\n        /* \"#utility.yul\":1003:1257   */\n    tag_18:\n        /* \"#utility.yul\":1112:1116   */\n      0x00\n        /* \"#utility.yul\":1150:1152   */\n      0x20\n        /* \"#utility.yul\":1139:1148   */\n      dup3\n        /* \"#utility.yul\":1135:1153   */\n      add\n        /* \"#utility.yul\":1127:1153   */\n      swap1\n      pop\n        /* \"#utility.yul\":1163:1250   */\n      tag_62\n        /* \"#utility.yul\":1247:1248   */\n      0x00\n        /* \"#utility.yul\":1236:1245   */\n      dup4\n        /* \"#utility.yul\":1232:1249   */\n      add\n        /* \"#utility.yul\":1223:1229   */\n      dup5\n        /* \"#utility.yul\":1163:1250   */\n      tag_41\n      jump\t// in\n    tag_62:\n        /* \"#utility.yul\":1003:1257   */\n      swap3\n      swap2\n      pop\n      pop\n      jump\t// out\n        /* \"#utility.yul\":1263:1682   */\n    tag_29:\n        /* \"#utility.yul\":1429:1433   */\n      0x00\n        /* \"#utility.yul\":1467:1469   */\n      0x20\n        /* \"#utility.yul\":1456:1465   */\n      dup3\n        /* \"#utility.yul\":1452:1470   */\n      add\n        /* \"#utility.yul\":1444:1470   */\n      swap1\n      pop\n        /* \"#utility.yul\":1516:1525   */\n      dup2\n        /* \"#utility.yul\":1510:1514   */\n      dup2\n        /* \"#utility.yul\":1506:1526   */\n      sub\n        /* \"#utility.yul\":1502:1503   */\n      0x00\n        /* \"#utility.yul\":1491:1500   */\n      dup4\n        /* \"#utility.yul\":1487:1504   */\n      add\n        /* \"#utility.yul\":1480:1527   */\n      mstore\n        /* \"#utility.yul\":1544:1675   */\n      tag_64\n        /* \"#utility.yul\":1670:1674   */\n      dup2\n        /* \"#utility.yul\":1544:1675   */\n      tag_49\n      jump\t// in\n    tag_64:\n        /* \"#utility.yul\":1536:1675   */\n      swap1\n      pop\n        /* \"#utility.yul\":1263:1682   */\n      swap2\n      swap1\n      pop\n      jump\t// out\n        /* \"#utility.yul\":1688:1910   */\n    tag_11:\n        /* \"#utility.yul\":1781:1785   */\n      0x00\n        /* \"#utility.yul\":1819:1821   */\n      0x20\n        /* \"#utility.yul\":1808:1817   */\n      dup3\n        /* \"#utility.yul\":1804:1822   */\n      add\n        /* \"#utility.yul\":1796:1822   */\n      swap1\n      pop\n        /* \"#utility.yul\":1832:1903   */\n      tag_66\n        /* \"#utility.yul\":1900:1901   */\n      0x00\n        /* \"#utility.yul\":1889:1898   */\n      dup4\n        /* \"#utility.yul\":1885:1902   */\n      add\n        /* \"#utility.yul\":1876:1882   */\n      dup5\n        /* \"#utility.yul\":1832:1903   */\n      tag_55\n      jump\t// in\n    tag_66:\n        /* \"#utility.yul\":1688:1910   */\n      swap3\n      swap2\n      pop\n      pop\n      jump\t// out\n        /* \"#utility.yul\":1916:2085   */\n    tag_52:\n        /* \"#utility.yul\":2000:2011   */\n      0x00\n        /* \"#utility.yul\":2034:2040   */\n      dup3\n        /* \"#utility.yul\":2029:2032   */\n      dup3\n        /* \"#utility.yul\":2022:2041   */\n      mstore\n        /* \"#utility.yul\":2074:2078   */\n      0x20\n        /* \"#utility.yul\":2069:2072   */\n      dup3\n        /* \"#utility.yul\":2065:2079   */\n      add\n        /* \"#utility.yul\":2050:2079   */\n      swap1\n      pop\n        /* \"#utility.yul\":1916:2085   */\n      swap3\n      swap2\n      pop\n      pop\n      jump\t// out\n        /* \"#utility.yul\":2091:2187   */\n    tag_48:\n        /* \"#utility.yul\":2128:2135   */\n      0x00\n        /* \"#utility.yul\":2157:2181   */\n      tag_69\n        /* \"#utility.yul\":2175:2180   */\n      dup3\n        /* \"#utility.yul\":2157:2181   */\n      tag_70\n      jump\t// in\n    tag_69:\n        /* \"#utility.yul\":2146:2181   */\n      swap1\n      pop\n        /* \"#utility.yul\":2091:2187   */\n      swap2\n      swap1\n      pop\n      jump\t// out\n        /* \"#utility.yul\":2193:2297   */\n    tag_44:\n        /* \"#utility.yul\":2238:2245   */\n      0x00\n        /* \"#utility.yul\":2267:2291   */\n      tag_72\n        /* \"#utility.yul\":2285:2290   */\n      dup3\n        /* \"#utility.yul\":2267:2291   */\n      tag_70\n      jump\t// in\n    tag_72:\n        /* \"#utility.yul\":2256:2291   */\n      swap1\n      pop\n        /* \"#utility.yul\":2193:2297   */\n      swap2\n      swap1\n      pop\n      jump\t// out\n        /* \"#utility.yul\":2303:2429   */\n    tag_70:\n        /* \"#utility.yul\":2340:2347   */\n      0x00\n        /* \"#utility.yul\":2380:2422   */\n      0xffffffffffffffffffffffffffffffffffffffff\n        /* \"#utility.yul\":2373:2378   */\n      dup3\n        /* \"#utility.yul\":2369:2423   */\n      and\n        /* \"#utility.yul\":2358:2423   */\n      swap1\n      pop\n        /* \"#utility.yul\":2303:2429   */\n      swap2\n      swap1\n      pop\n      jump\t// out\n        /* \"#utility.yul\":2435:2512   */\n    tag_58:\n        /* \"#utility.yul\":2472:2479   */\n      0x00\n        /* \"#utility.yul\":2501:2506   */\n      dup2\n        /* \"#utility.yul\":2490:2506   */\n      swap1\n      pop\n        /* \"#utility.yul\":2435:2512   */\n      swap2\n      swap1\n      pop\n      jump\t// out\n        /* \"#utility.yul\":2518:2741   */\n    tag_54:\n        /* \"#utility.yul\":2658:2692   */\n      0x4f6e6c7920746865206f776e65722063616e2063616c6c207468652066756e63\n        /* \"#utility.yul\":2654:2655   */\n      0x00\n        /* \"#utility.yul\":2646:2652   */\n      dup3\n        /* \"#utility.yul\":2642:2656   */\n      add\n        /* \"#utility.yul\":2635:2693   */\n      mstore\n        /* \"#utility.yul\":2727:2733   */\n      0x74696f6e00000000000000000000000000000000000000000000000000000000\n        /* \"#utility.yul\":2722:2724   */\n      0x20\n        /* \"#utility.yul\":2714:2720   */\n      dup3\n        /* \"#utility.yul\":2710:2725   */\n      add\n        /* \"#utility.yul\":2703:2734   */\n      mstore\n        /* \"#utility.yul\":2518:2741   */\n      pop\n      jump\t// out\n\n    auxdata: 0xa264697066735822122063eaeadf1dd1b24f0e1bc57f8dd126dd099378830c0a32ebbf7fd28b8462cf7864736f6c63430008070033\n}\n",
				"bytecode": {
					"linkReferences": {},
					"object": "608060405234801561001057600080fd5b5061052b806100206000396000f3fe60806040526004361061004a5760003560e01c806312065fe01461004f5780631dc1c5e31461007a5780631e0018d6146100845780638da5cb5b146100af578063cbedbf5a146100da575b600080fd5b34801561005b57600080fd5b506100646100e4565b604051610071919061042c565b60405180910390f35b61008261017b565b005b34801561009057600080fd5b5061009961017d565b6040516100a691906103f1565b60405180910390f35b3480156100bb57600080fd5b506100c46101a3565b6040516100d191906103d6565b60405180910390f35b6100e26101c7565b005b60008060009054906101000a900473ffffffffffffffffffffffffffffffffffffffff1673ffffffffffffffffffffffffffffffffffffffff163373ffffffffffffffffffffffffffffffffffffffff1614610175576040517f08c379a000000000000000000000000000000000000000000000000000000000815260040161016c9061040c565b60405180910390fd5b47905090565b565b600160009054906101000a900473ffffffffffffffffffffffffffffffffffffffff1681565b60008054906101000a900473ffffffffffffffffffffffffffffffffffffffff1681565b60008054906101000a900473ffffffffffffffffffffffffffffffffffffffff1673ffffffffffffffffffffffffffffffffffffffff163373ffffffffffffffffffffffffffffffffffffffff1614610255576040517f08c379a000000000000000000000000000000000000000000000000000000000815260040161024c9061040c565b60405180910390fd5b73ab8483f64d9c6d1ecf9b849ae677dd3315835cb2600160006101000a81548173ffffffffffffffffffffffffffffffffffffffff021916908373ffffffffffffffffffffffffffffffffffffffff160217905550600160009054906101000a900473ffffffffffffffffffffffffffffffffffffffff1673ffffffffffffffffffffffffffffffffffffffff166108fc671bc16d674ec800009081150290604051600060405180830381858888f1935050505015801561031a573d6000803e3d6000fd5b506000734b20993bc481177ec7e8f571cecae8a9e22c02db90508073ffffffffffffffffffffffffffffffffffffffff166108fc6714d1120d7b1600009081150290604051600060405180830381858888f19350505050158015610382573d6000803e3d6000fd5b5050565b61038f8161046a565b82525050565b61039e81610458565b82525050565b60006103b1602483610447565b91506103bc826104a6565b604082019050919050565b6103d08161049c565b82525050565b60006020820190506103eb6000830184610395565b92915050565b60006020820190506104066000830184610386565b92915050565b60006020820190508181036000830152610425816103a4565b9050919050565b600060208201905061044160008301846103c7565b92915050565b600082825260208201905092915050565b60006104638261047c565b9050919050565b60006104758261047c565b9050919050565b600073ffffffffffffffffffffffffffffffffffffffff82169050919050565b6000819050919050565b7f4f6e6c7920746865206f776e65722063616e2063616c6c207468652066756e6360008201527f74696f6e0000000000000000000000000000000000000000000000000000000060208201525056fea264697066735822122063eaeadf1dd1b24f0e1bc57f8dd126dd099378830c0a32ebbf7fd28b8462cf7864736f6c63430008070033",
					"opcodes": "PUSH1 0x80 PUSH1 0x40 MSTORE CALLVALUE DUP1 ISZERO PUSH2 0x10 JUMPI PUSH1 0x0 DUP1 REVERT JUMPDEST POP PUSH2 0x52B DUP1 PUSH2 0x20 PUSH1 0x0 CODECOPY PUSH1 0x0 RETURN INVALID PUSH1 0x80 PUSH1 0x40 MSTORE PUSH1 0x4 CALLDATASIZE LT PUSH2 0x4A JUMPI PUSH1 0x0 CALLDATALOAD PUSH1 0xE0 SHR DUP1 PUSH4 0x12065FE0 EQ PUSH2 0x4F JUMPI DUP1 PUSH4 0x1DC1C5E3 EQ PUSH2 0x7A JUMPI DUP1 PUSH4 0x1E0018D6 EQ PUSH2 0x84 JUMPI DUP1 PUSH4 0x8DA5CB5B EQ PUSH2 0xAF JUMPI DUP1 PUSH4 0xCBEDBF5A EQ PUSH2 0xDA JUMPI JUMPDEST PUSH1 0x0 DUP1 REVERT JUMPDEST CALLVALUE DUP1 ISZERO PUSH2 0x5B JUMPI PUSH1 0x0 DUP1 REVERT JUMPDEST POP PUSH2 0x64 PUSH2 0xE4 JUMP JUMPDEST PUSH1 0x40 MLOAD PUSH2 0x71 SWAP2 SWAP1 PUSH2 0x42C JUMP JUMPDEST PUSH1 0x40 MLOAD DUP1 SWAP2 SUB SWAP1 RETURN JUMPDEST PUSH2 0x82 PUSH2 0x17B JUMP JUMPDEST STOP JUMPDEST CALLVALUE DUP1 ISZERO PUSH2 0x90 JUMPI PUSH1 0x0 DUP1 REVERT JUMPDEST POP PUSH2 0x99 PUSH2 0x17D JUMP JUMPDEST PUSH1 0x40 MLOAD PUSH2 0xA6 SWAP2 SWAP1 PUSH2 0x3F1 JUMP JUMPDEST PUSH1 0x40 MLOAD DUP1 SWAP2 SUB SWAP1 RETURN JUMPDEST CALLVALUE DUP1 ISZERO PUSH2 0xBB JUMPI PUSH1 0x0 DUP1 REVERT JUMPDEST POP PUSH2 0xC4 PUSH2 0x1A3 JUMP JUMPDEST PUSH1 0x40 MLOAD PUSH2 0xD1 SWAP2 SWAP1 PUSH2 0x3D6 JUMP JUMPDEST PUSH1 0x40 MLOAD DUP1 SWAP2 SUB SWAP1 RETURN JUMPDEST PUSH2 0xE2 PUSH2 0x1C7 JUMP JUMPDEST STOP JUMPDEST PUSH1 0x0 DUP1 PUSH1 0x0 SWAP1 SLOAD SWAP1 PUSH2 0x100 EXP SWAP1 DIV PUSH20 0xFFFFFFFFFFFFFFFFFFFFFFFFFFFFFFFFFFFFFFFF AND PUSH20 0xFFFFFFFFFFFFFFFFFFFFFFFFFFFFFFFFFFFFFFFF AND CALLER PUSH20 0xFFFFFFFFFFFFFFFFFFFFFFFFFFFFFFFFFFFFFFFF AND EQ PUSH2 0x175 JUMPI PUSH1 0x40 MLOAD PUSH32 0x8C379A000000000000000000000000000000000000000000000000000000000 DUP2 MSTORE PUSH1 0x4 ADD PUSH2 0x16C SWAP1 PUSH2 0x40C JUMP JUMPDEST PUSH1 0x40 MLOAD DUP1 SWAP2 SUB SWAP1 REVERT JUMPDEST SELFBALANCE SWAP1 POP SWAP1 JUMP JUMPDEST JUMP JUMPDEST PUSH1 0x1 PUSH1 0x0 SWAP1 SLOAD SWAP1 PUSH2 0x100 EXP SWAP1 DIV PUSH20 0xFFFFFFFFFFFFFFFFFFFFFFFFFFFFFFFFFFFFFFFF AND DUP2 JUMP JUMPDEST PUSH1 0x0 DUP1 SLOAD SWAP1 PUSH2 0x100 EXP SWAP1 DIV PUSH20 0xFFFFFFFFFFFFFFFFFFFFFFFFFFFFFFFFFFFFFFFF AND DUP2 JUMP JUMPDEST PUSH1 0x0 DUP1 SLOAD SWAP1 PUSH2 0x100 EXP SWAP1 DIV PUSH20 0xFFFFFFFFFFFFFFFFFFFFFFFFFFFFFFFFFFFFFFFF AND PUSH20 0xFFFFFFFFFFFFFFFFFFFFFFFFFFFFFFFFFFFFFFFF AND CALLER PUSH20 0xFFFFFFFFFFFFFFFFFFFFFFFFFFFFFFFFFFFFFFFF AND EQ PUSH2 0x255 JUMPI PUSH1 0x40 MLOAD PUSH32 0x8C379A000000000000000000000000000000000000000000000000000000000 DUP2 MSTORE PUSH1 0x4 ADD PUSH2 0x24C SWAP1 PUSH2 0x40C JUMP JUMPDEST PUSH1 0x40 MLOAD DUP1 SWAP2 SUB SWAP1 REVERT JUMPDEST PUSH20 0xAB8483F64D9C6D1ECF9B849AE677DD3315835CB2 PUSH1 0x1 PUSH1 0x0 PUSH2 0x100 EXP DUP2 SLOAD DUP2 PUSH20 0xFFFFFFFFFFFFFFFFFFFFFFFFFFFFFFFFFFFFFFFF MUL NOT AND SWAP1 DUP4 PUSH20 0xFFFFFFFFFFFFFFFFFFFFFFFFFFFFFFFFFFFFFFFF AND MUL OR SWAP1 SSTORE POP PUSH1 0x1 PUSH1 0x0 SWAP1 SLOAD SWAP1 PUSH2 0x100 EXP SWAP1 DIV PUSH20 0xFFFFFFFFFFFFFFFFFFFFFFFFFFFFFFFFFFFFFFFF AND PUSH20 0xFFFFFFFFFFFFFFFFFFFFFFFFFFFFFFFFFFFFFFFF AND PUSH2 0x8FC PUSH8 0x1BC16D674EC80000 SWAP1 DUP2 ISZERO MUL SWAP1 PUSH1 0x40 MLOAD PUSH1 0x0 PUSH1 0x40 MLOAD DUP1 DUP4 SUB DUP2 DUP6 DUP9 DUP9 CALL SWAP4 POP POP POP POP ISZERO DUP1 ISZERO PUSH2 0x31A JUMPI RETURNDATASIZE PUSH1 0x0 DUP1 RETURNDATACOPY RETURNDATASIZE PUSH1 0x0 REVERT JUMPDEST POP PUSH1 0x0 PUSH20 0x4B20993BC481177EC7E8F571CECAE8A9E22C02DB SWAP1 POP DUP1 PUSH20 0xFFFFFFFFFFFFFFFFFFFFFFFFFFFFFFFFFFFFFFFF AND PUSH2 0x8FC PUSH8 0x14D1120D7B160000 SWAP1 DUP2 ISZERO MUL SWAP1 PUSH1 0x40 MLOAD PUSH1 0x0 PUSH1 0x40 MLOAD DUP1 DUP4 SUB DUP2 DUP6 DUP9 DUP9 CALL SWAP4 POP POP POP POP ISZERO DUP1 ISZERO PUSH2 0x382 JUMPI RETURNDATASIZE PUSH1 0x0 DUP1 RETURNDATACOPY RETURNDATASIZE PUSH1 0x0 REVERT JUMPDEST POP POP JUMP JUMPDEST PUSH2 0x38F DUP2 PUSH2 0x46A JUMP JUMPDEST DUP3 MSTORE POP POP JUMP JUMPDEST PUSH2 0x39E DUP2 PUSH2 0x458 JUMP JUMPDEST DUP3 MSTORE POP POP JUMP JUMPDEST PUSH1 0x0 PUSH2 0x3B1 PUSH1 0x24 DUP4 PUSH2 0x447 JUMP JUMPDEST SWAP2 POP PUSH2 0x3BC DUP3 PUSH2 0x4A6 JUMP JUMPDEST PUSH1 0x40 DUP3 ADD SWAP1 POP SWAP2 SWAP1 POP JUMP JUMPDEST PUSH2 0x3D0 DUP2 PUSH2 0x49C JUMP JUMPDEST DUP3 MSTORE POP POP JUMP JUMPDEST PUSH1 0x0 PUSH1 0x20 DUP3 ADD SWAP1 POP PUSH2 0x3EB PUSH1 0x0 DUP4 ADD DUP5 PUSH2 0x395 JUMP JUMPDEST SWAP3 SWAP2 POP POP JUMP JUMPDEST PUSH1 0x0 PUSH1 0x20 DUP3 ADD SWAP1 POP PUSH2 0x406 PUSH1 0x0 DUP4 ADD DUP5 PUSH2 0x386 JUMP JUMPDEST SWAP3 SWAP2 POP POP JUMP JUMPDEST PUSH1 0x0 PUSH1 0x20 DUP3 ADD SWAP1 POP DUP2 DUP2 SUB PUSH1 0x0 DUP4 ADD MSTORE PUSH2 0x425 DUP2 PUSH2 0x3A4 JUMP JUMPDEST SWAP1 POP SWAP2 SWAP1 POP JUMP JUMPDEST PUSH1 0x0 PUSH1 0x20 DUP3 ADD SWAP1 POP PUSH2 0x441 PUSH1 0x0 DUP4 ADD DUP5 PUSH2 0x3C7 JUMP JUMPDEST SWAP3 SWAP2 POP POP JUMP JUMPDEST PUSH1 0x0 DUP3 DUP3 MSTORE PUSH1 0x20 DUP3 ADD SWAP1 POP SWAP3 SWAP2 POP POP JUMP JUMPDEST PUSH1 0x0 PUSH2 0x463 DUP3 PUSH2 0x47C JUMP JUMPDEST SWAP1 POP SWAP2 SWAP1 POP JUMP JUMPDEST PUSH1 0x0 PUSH2 0x475 DUP3 PUSH2 0x47C JUMP JUMPDEST SWAP1 POP SWAP2 SWAP1 POP JUMP JUMPDEST PUSH1 0x0 PUSH20 0xFFFFFFFFFFFFFFFFFFFFFFFFFFFFFFFFFFFFFFFF DUP3 AND SWAP1 POP SWAP2 SWAP1 POP JUMP JUMPDEST PUSH1 0x0 DUP2 SWAP1 POP SWAP2 SWAP1 POP JUMP JUMPDEST PUSH32 0x4F6E6C7920746865206F776E65722063616E2063616C6C207468652066756E63 PUSH1 0x0 DUP3 ADD MSTORE PUSH32 0x74696F6E00000000000000000000000000000000000000000000000000000000 PUSH1 0x20 DUP3 ADD MSTORE POP JUMP INVALID LOG2 PUSH5 0x6970667358 0x22 SLT KECCAK256 PUSH4 0xEAEADF1D 0xD1 0xB2 0x4F 0xE SHL 0xC5 PUSH32 0x8DD126DD099378830C0A32EBBF7FD28B8462CF7864736F6C6343000807003300 "
				},
				"gasEstimates": {
					"creation": {
						"codeDepositCost": "264600",
						"executionCost": "306",
						"totalCost": "264906"
					},
					"external": {
						"getBalance()": "2602",
						"investor()": "2536",
						"owner()": "2555",
						"payMoney()": "120",
						"sendMoney()": "infinite"
					}
				},
				"methodIdentifiers": {
					"getBalance()": "12065fe0",
					"investor()": "1e0018d6",
					"owner()": "8da5cb5b",
					"payMoney()": "1dc1c5e3",
					"sendMoney()": "cbedbf5a"
				}
			},
			"userdoc": {
				"kind": "user",
				"methods": {},
				"version": 1
			}
		}
	}
}