{
	"training/contracts/Constructor.sol": {
		"ConstructorContract": {
			"abi": [
				{
					"inputs": [
						{
							"internalType": "int256",
							"name": "_totalNumber",
							"type": "int256"
						}
					],
					"stateMutability": "nonpayable",
					"type": "constructor"
				},
				{
					"inputs": [],
					"name": "owner",
					"outputs": [
						{
							"internalType": "address",
							"name": "",
							"type": "address"
						}
					],
					"stateMutability": "view",
					"type": "function"
				},
				{
					"inputs": [],
					"name": "totalNumber",
					"outputs": [
						{
							"internalType": "int256",
							"name": "",
							"type": "int256"
						}
					],
					"stateMutability": "view",
					"type": "function"
				}
			],
			"devdoc": {
				"kind": "dev",
				"methods": {},
				"version": 1
			},
			"evm": {
				"assembly": "    /* \"training/contracts/Constructor.sol\":38:238  contract ConstructorContract{... */\n  mstore(0x40, 0x80)\n    /* \"training/contracts/Constructor.sol\":127:235  constructor (int _totalNumber) public{... */\n  callvalue\n  dup1\n  iszero\n  tag_1\n  jumpi\n  0x00\n  dup1\n  revert\ntag_1:\n  pop\n  mload(0x40)\n  sub(codesize, bytecodeSize)\n  dup1\n  bytecodeSize\n  dup4\n  codecopy\n  dup2\n  dup2\n  add\n  0x40\n  mstore\n  dup2\n  add\n  swap1\n  tag_2\n  swap2\n  swap1\n  tag_3\n  jump\t// in\ntag_2:\n    /* \"training/contracts/Constructor.sol\":182:192  msg.sender */\n  caller\n    /* \"training/contracts/Constructor.sol\":174:179  owner */\n  0x00\n  dup1\n    /* \"training/contracts/Constructor.sol\":174:192  owner = msg.sender */\n  0x0100\n  exp\n  dup2\n  sload\n  dup2\n  0xffffffffffffffffffffffffffffffffffffffff\n  mul\n  not\n  and\n  swap1\n  dup4\n  0xffffffffffffffffffffffffffffffffffffffff\n  and\n  mul\n  or\n  swap1\n  sstore\n  pop\n    /* \"training/contracts/Constructor.sol\":216:228  _totalNumber */\n  dup1\n    /* \"training/contracts/Constructor.sol\":202:213  totalNumber */\n  0x01\n    /* \"training/contracts/Constructor.sol\":202:228  totalNumber = _totalNumber */\n  dup2\n  swap1\n  sstore\n  pop\n    /* \"training/contracts/Constructor.sol\":127:235  constructor (int _totalNumber) public{... */\n  pop\n    /* \"training/contracts/Constructor.sol\":38:238  contract ConstructorContract{... */\n  jump(tag_6)\n    /* \"#utility.yul\":7:148   */\ntag_8:\n    /* \"#utility.yul\":63:68   */\n  0x00\n    /* \"#utility.yul\":94:100   */\n  dup2\n    /* \"#utility.yul\":88:101   */\n  mload\n    /* \"#utility.yul\":79:101   */\n  swap1\n  pop\n    /* \"#utility.yul\":110:142   */\n  tag_10\n    /* \"#utility.yul\":136:141   */\n  dup2\n    /* \"#utility.yul\":110:142   */\n  tag_11\n  jump\t// in\ntag_10:\n    /* \"#utility.yul\":7:148   */\n  swap3\n  swap2\n  pop\n  pop\n  jump\t// out\n    /* \"#utility.yul\":154:503   */\ntag_3:\n    /* \"#utility.yul\":223:229   */\n  0x00\n    /* \"#utility.yul\":272:274   */\n  0x20\n    /* \"#utility.yul\":260:269   */\n  dup3\n    /* \"#utility.yul\":251:258   */\n  dup5\n    /* \"#utility.yul\":247:270   */\n  sub\n    /* \"#utility.yul\":243:275   */\n  slt\n    /* \"#utility.yul\":240:359   */\n  iszero\n  tag_13\n  jumpi\n    /* \"#utility.yul\":278:357   */\n  tag_14\n  tag_15\n  jump\t// in\ntag_14:\n    /* \"#utility.yul\":240:359   */\ntag_13:\n    /* \"#utility.yul\":398:399   */\n  0x00\n    /* \"#utility.yul\":423:486   */\n  tag_16\n    /* \"#utility.yul\":478:485   */\n  dup5\n    /* \"#utility.yul\":469:475   */\n  dup3\n    /* \"#utility.yul\":458:467   */\n  dup6\n    /* \"#utility.yul\":454:476   */\n  add\n    /* \"#utility.yul\":423:486   */\n  tag_8\n  jump\t// in\ntag_16:\n    /* \"#utility.yul\":413:486   */\n  swap2\n  pop\n    /* \"#utility.yul\":369:496   */\n  pop\n    /* \"#utility.yul\":154:503   */\n  swap3\n  swap2\n  pop\n  pop\n  jump\t// out\n    /* \"#utility.yul\":590:666   */\ntag_19:\n    /* \"#utility.yul\":626:633   */\n  0x00\n    /* \"#utility.yul\":655:660   */\n  dup2\n    /* \"#utility.yul\":644:660   */\n  swap1\n  pop\n    /* \"#utility.yul\":590:666   */\n  swap2\n  swap1\n  pop\n  jump\t// out\n    /* \"#utility.yul\":795:912   */\ntag_15:\n    /* \"#utility.yul\":904:905   */\n  0x00\n    /* \"#utility.yul\":901:902   */\n  dup1\n    /* \"#utility.yul\":894:906   */\n  revert\n    /* \"#utility.yul\":918:1038   */\ntag_11:\n    /* \"#utility.yul\":990:1013   */\n  tag_25\n    /* \"#utility.yul\":1007:1012   */\n  dup2\n    /* \"#utility.yul\":990:1013   */\n  tag_19\n  jump\t// in\ntag_25:\n    /* \"#utility.yul\":983:988   */\n  dup2\n    /* \"#utility.yul\":980:1014   */\n  eq\n    /* \"#utility.yul\":970:1032   */\n  tag_26\n  jumpi\n    /* \"#utility.yul\":1028:1029   */\n  0x00\n    /* \"#utility.yul\":1025:1026   */\n  dup1\n    /* \"#utility.yul\":1018:1030   */\n  revert\n    /* \"#utility.yul\":970:1032   */\ntag_26:\n    /* \"#utility.yul\":918:1038   */\n  pop\n  jump\t// out\n    /* \"training/contracts/Constructor.sol\":38:238  contract ConstructorContract{... */\ntag_6:\n  dataSize(sub_0)\n  dup1\n  dataOffset(sub_0)\n  0x00\n  codecopy\n  0x00\n  return\nstop\n\nsub_0: assembly {\n        /* \"training/contracts/Constructor.sol\":38:238  contract ConstructorContract{... */\n      mstore(0x40, 0x80)\n      callvalue\n      dup1\n      iszero\n      tag_1\n      jumpi\n      0x00\n      dup1\n      revert\n    tag_1:\n      pop\n      jumpi(tag_2, lt(calldatasize, 0x04))\n      shr(0xe0, calldataload(0x00))\n      dup1\n      0x8da5cb5b\n      eq\n      tag_3\n      jumpi\n      dup1\n      0xc0daddfd\n      eq\n      tag_4\n      jumpi\n    tag_2:\n      0x00\n      dup1\n      revert\n        /* \"training/contracts/Constructor.sol\":72:92  address public owner */\n    tag_3:\n      tag_5\n      tag_6\n      jump\t// in\n    tag_5:\n      mload(0x40)\n      tag_7\n      swap2\n      swap1\n      tag_8\n      jump\t// in\n    tag_7:\n      mload(0x40)\n      dup1\n      swap2\n      sub\n      swap1\n      return\n        /* \"training/contracts/Constructor.sol\":98:120  int public totalNumber */\n    tag_4:\n      tag_9\n      tag_10\n      jump\t// in\n    tag_9:\n      mload(0x40)\n      tag_11\n      swap2\n      swap1\n      tag_12\n      jump\t// in\n    tag_11:\n      mload(0x40)\n      dup1\n      swap2\n      sub\n      swap1\n      return\n        /* \"training/contracts/Constructor.sol\":72:92  address public owner */\n    tag_6:\n      0x00\n      dup1\n      sload\n      swap1\n      0x0100\n      exp\n      swap1\n      div\n      0xffffffffffffffffffffffffffffffffffffffff\n      and\n      dup2\n      jump\t// out\n        /* \"training/contracts/Constructor.sol\":98:120  int public totalNumber */\n    tag_10:\n      sload(0x01)\n      dup2\n      jump\t// out\n        /* \"#utility.yul\":7:125   */\n    tag_14:\n        /* \"#utility.yul\":94:118   */\n      tag_16\n        /* \"#utility.yul\":112:117   */\n      dup2\n        /* \"#utility.yul\":94:118   */\n      tag_17\n      jump\t// in\n    tag_16:\n        /* \"#utility.yul\":89:92   */\n      dup3\n        /* \"#utility.yul\":82:119   */\n      mstore\n        /* \"#utility.yul\":7:125   */\n      pop\n      pop\n      jump\t// out\n        /* \"#utility.yul\":131:246   */\n    tag_18:\n        /* \"#utility.yul\":216:239   */\n      tag_20\n        /* \"#utility.yul\":233:238   */\n      dup2\n        /* \"#utility.yul\":216:239   */\n      tag_21\n      jump\t// in\n    tag_20:\n        /* \"#utility.yul\":211:214   */\n      dup3\n        /* \"#utility.yul\":204:240   */\n      mstore\n        /* \"#utility.yul\":131:246   */\n      pop\n      pop\n      jump\t// out\n        /* \"#utility.yul\":252:474   */\n    tag_8:\n        /* \"#utility.yul\":345:349   */\n      0x00\n        /* \"#utility.yul\":383:385   */\n      0x20\n        /* \"#utility.yul\":372:381   */\n      dup3\n        /* \"#utility.yul\":368:386   */\n      add\n        /* \"#utility.yul\":360:386   */\n      swap1\n      pop\n        /* \"#utility.yul\":396:467   */\n      tag_23\n        /* \"#utility.yul\":464:465   */\n      0x00\n        /* \"#utility.yul\":453:462   */\n      dup4\n        /* \"#utility.yul\":449:466   */\n      add\n        /* \"#utility.yul\":440:446   */\n      dup5\n        /* \"#utility.yul\":396:467   */\n      tag_14\n      jump\t// in\n    tag_23:\n        /* \"#utility.yul\":252:474   */\n      swap3\n      swap2\n      pop\n      pop\n      jump\t// out\n        /* \"#utility.yul\":480:698   */\n    tag_12:\n        /* \"#utility.yul\":571:575   */\n      0x00\n        /* \"#utility.yul\":609:611   */\n      0x20\n        /* \"#utility.yul\":598:607   */\n      dup3\n        /* \"#utility.yul\":594:612   */\n      add\n        /* \"#utility.yul\":586:612   */\n      swap1\n      pop\n        /* \"#utility.yul\":622:691   */\n      tag_25\n        /* \"#utility.yul\":688:689   */\n      0x00\n        /* \"#utility.yul\":677:686   */\n      dup4\n        /* \"#utility.yul\":673:690   */\n      add\n        /* \"#utility.yul\":664:670   */\n      dup5\n        /* \"#utility.yul\":622:691   */\n      tag_18\n      jump\t// in\n    tag_25:\n        /* \"#utility.yul\":480:698   */\n      swap3\n      swap2\n      pop\n      pop\n      jump\t// out\n        /* \"#utility.yul\":704:800   */\n    tag_17:\n        /* \"#utility.yul\":741:748   */\n      0x00\n        /* \"#utility.yul\":770:794   */\n      tag_27\n        /* \"#utility.yul\":788:793   */\n      dup3\n        /* \"#utility.yul\":770:794   */\n      tag_28\n      jump\t// in\n    tag_27:\n        /* \"#utility.yul\":759:794   */\n      swap1\n      pop\n        /* \"#utility.yul\":704:800   */\n      swap2\n      swap1\n      pop\n      jump\t// out\n        /* \"#utility.yul\":806:882   */\n    tag_21:\n        /* \"#utility.yul\":842:849   */\n      0x00\n        /* \"#utility.yul\":871:876   */\n      dup2\n        /* \"#utility.yul\":860:876   */\n      swap1\n      pop\n        /* \"#utility.yul\":806:882   */\n      swap2\n      swap1\n      pop\n      jump\t// out\n        /* \"#utility.yul\":888:1014   */\n    tag_28:\n        /* \"#utility.yul\":925:932   */\n      0x00\n        /* \"#utility.yul\":965:1007   */\n      0xffffffffffffffffffffffffffffffffffffffff\n        /* \"#utility.yul\":958:963   */\n      dup3\n        /* \"#utility.yul\":954:1008   */\n      and\n        /* \"#utility.yul\":943:1008   */\n      swap1\n      pop\n        /* \"#utility.yul\":888:1014   */\n      swap2\n      swap1\n      pop\n      jump\t// out\n\n    auxdata: 0xa26469706673582212208a10af9e890b23951408fe2c45f1827c628e17bc93b495007e2f447ad59058a664736f6c63430008070033\n}\n",
				"bytecode": {
					"linkReferences": {},
					"object": "608060405234801561001057600080fd5b5060405161025d38038061025d83398181016040528101906100329190610094565b336000806101000a81548173ffffffffffffffffffffffffffffffffffffffff021916908373ffffffffffffffffffffffffffffffffffffffff16021790555080600181905550506100e7565b60008151905061008e816100d0565b92915050565b6000602082840312156100aa576100a96100cb565b5b60006100b88482850161007f565b91505092915050565b6000819050919050565b600080fd5b6100d9816100c1565b81146100e457600080fd5b50565b610167806100f66000396000f3fe608060405234801561001057600080fd5b50600436106100365760003560e01c80638da5cb5b1461003b578063c0daddfd14610059575b600080fd5b610043610077565b60405161005091906100bf565b60405180910390f35b61006161009b565b60405161006e91906100da565b60405180910390f35b60008054906101000a900473ffffffffffffffffffffffffffffffffffffffff1681565b60015481565b6100aa816100f5565b82525050565b6100b981610107565b82525050565b60006020820190506100d460008301846100a1565b92915050565b60006020820190506100ef60008301846100b0565b92915050565b600061010082610111565b9050919050565b6000819050919050565b600073ffffffffffffffffffffffffffffffffffffffff8216905091905056fea26469706673582212208a10af9e890b23951408fe2c45f1827c628e17bc93b495007e2f447ad59058a664736f6c63430008070033",
					"opcodes": "PUSH1 0x80 PUSH1 0x40 MSTORE CALLVALUE DUP1 ISZERO PUSH2 0x10 JUMPI PUSH1 0x0 DUP1 REVERT JUMPDEST POP PUSH1 0x40 MLOAD PUSH2 0x25D CODESIZE SUB DUP1 PUSH2 0x25D DUP4 CODECOPY DUP2 DUP2 ADD PUSH1 0x40 MSTORE DUP2 ADD SWAP1 PUSH2 0x32 SWAP2 SWAP1 PUSH2 0x94 JUMP JUMPDEST CALLER PUSH1 0x0 DUP1 PUSH2 0x100 EXP DUP2 SLOAD DUP2 PUSH20 0xFFFFFFFFFFFFFFFFFFFFFFFFFFFFFFFFFFFFFFFF MUL NOT AND SWAP1 DUP4 PUSH20 0xFFFFFFFFFFFFFFFFFFFFFFFFFFFFFFFFFFFFFFFF AND MUL OR SWAP1 SSTORE POP DUP1 PUSH1 0x1 DUP2 SWAP1 SSTORE POP POP PUSH2 0xE7 JUMP JUMPDEST PUSH1 0x0 DUP2 MLOAD SWAP1 POP PUSH2 0x8E DUP2 PUSH2 0xD0 JUMP JUMPDEST SWAP3 SWAP2 POP POP JUMP JUMPDEST PUSH1 0x0 PUSH1 0x20 DUP3 DUP5 SUB SLT ISZERO PUSH2 0xAA JUMPI PUSH2 0xA9 PUSH2 0xCB JUMP JUMPDEST JUMPDEST PUSH1 0x0 PUSH2 0xB8 DUP5 DUP3 DUP6 ADD PUSH2 0x7F JUMP JUMPDEST SWAP2 POP POP SWAP3 SWAP2 POP POP JUMP JUMPDEST PUSH1 0x0 DUP2 SWAP1 POP SWAP2 SWAP1 POP JUMP JUMPDEST PUSH1 0x0 DUP1 REVERT JUMPDEST PUSH2 0xD9 DUP2 PUSH2 0xC1 JUMP JUMPDEST DUP2 EQ PUSH2 0xE4 JUMPI PUSH1 0x0 DUP1 REVERT JUMPDEST POP JUMP JUMPDEST PUSH2 0x167 DUP1 PUSH2 0xF6 PUSH1 0x0 CODECOPY PUSH1 0x0 RETURN INVALID PUSH1 0x80 PUSH1 0x40 MSTORE CALLVALUE DUP1 ISZERO PUSH2 0x10 JUMPI PUSH1 0x0 DUP1 REVERT JUMPDEST POP PUSH1 0x4 CALLDATASIZE LT PUSH2 0x36 JUMPI PUSH1 0x0 CALLDATALOAD PUSH1 0xE0 SHR DUP1 PUSH4 0x8DA5CB5B EQ PUSH2 0x3B JUMPI DUP1 PUSH4 0xC0DADDFD EQ PUSH2 0x59 JUMPI JUMPDEST PUSH1 0x0 DUP1 REVERT JUMPDEST PUSH2 0x43 PUSH2 0x77 JUMP JUMPDEST PUSH1 0x40 MLOAD PUSH2 0x50 SWAP2 SWAP1 PUSH2 0xBF JUMP JUMPDEST PUSH1 0x40 MLOAD DUP1 SWAP2 SUB SWAP1 RETURN JUMPDEST PUSH2 0x61 PUSH2 0x9B JUMP JUMPDEST PUSH1 0x40 MLOAD PUSH2 0x6E SWAP2 SWAP1 PUSH2 0xDA JUMP JUMPDEST PUSH1 0x40 MLOAD DUP1 SWAP2 SUB SWAP1 RETURN JUMPDEST PUSH1 0x0 DUP1 SLOAD SWAP1 PUSH2 0x100 EXP SWAP1 DIV PUSH20 0xFFFFFFFFFFFFFFFFFFFFFFFFFFFFFFFFFFFFFFFF AND DUP2 JUMP JUMPDEST PUSH1 0x1 SLOAD DUP2 JUMP JUMPDEST PUSH2 0xAA DUP2 PUSH2 0xF5 JUMP JUMPDEST DUP3 MSTORE POP POP JUMP JUMPDEST PUSH2 0xB9 DUP2 PUSH2 0x107 JUMP JUMPDEST DUP3 MSTORE POP POP JUMP JUMPDEST PUSH1 0x0 PUSH1 0x20 DUP3 ADD SWAP1 POP PUSH2 0xD4 PUSH1 0x0 DUP4 ADD DUP5 PUSH2 0xA1 JUMP JUMPDEST SWAP3 SWAP2 POP POP JUMP JUMPDEST PUSH1 0x0 PUSH1 0x20 DUP3 ADD SWAP1 POP PUSH2 0xEF PUSH1 0x0 DUP4 ADD DUP5 PUSH2 0xB0 JUMP JUMPDEST SWAP3 SWAP2 POP POP JUMP JUMPDEST PUSH1 0x0 PUSH2 0x100 DUP3 PUSH2 0x111 JUMP JUMPDEST SWAP1 POP SWAP2 SWAP1 POP JUMP JUMPDEST PUSH1 0x0 DUP2 SWAP1 POP SWAP2 SWAP1 POP JUMP JUMPDEST PUSH1 0x0 PUSH20 0xFFFFFFFFFFFFFFFFFFFFFFFFFFFFFFFFFFFFFFFF DUP3 AND SWAP1 POP SWAP2 SWAP1 POP JUMP INVALID LOG2 PUSH5 0x6970667358 0x22 SLT KECCAK256 DUP11 LT 0xAF SWAP15 DUP10 SIGNEXTEND 0x23 SWAP6 EQ ADDMOD INVALID 0x2C GASLIMIT CALL DUP3 PUSH29 0x628E17BC93B495007E2F447AD59058A664736F6C634300080700330000 "
				},
				"gasEstimates": {
					"creation": {
						"codeDepositCost": "71800",
						"executionCost": "infinite",
						"totalCost": "infinite"
					},
					"external": {
						"owner()": "2489",
						"totalNumber()": "2429"
					}
				},
				"methodIdentifiers": {
					"owner()": "8da5cb5b",
					"totalNumber()": "c0daddfd"
				}
			},
			"userdoc": {
				"kind": "user",
				"methods": {},
				"version": 1
			}
		}
	}
}