{
	"training/contracts/Inheritence,sol.sol": {
		"US": {
			"abi": [
				{
					"inputs": [
						{
							"internalType": "int256",
							"name": "_a",
							"type": "int256"
						}
					],
					"stateMutability": "nonpayable",
					"type": "constructor"
				},
				{
					"inputs": [],
					"name": "a",
					"outputs": [
						{
							"internalType": "int256",
							"name": "",
							"type": "int256"
						}
					],
					"stateMutability": "view",
					"type": "function"
				},
				{
					"inputs": [],
					"name": "flag",
					"outputs": [
						{
							"internalType": "string",
							"name": "",
							"type": "string"
						}
					],
					"stateMutability": "view",
					"type": "function"
				},
				{
					"inputs": [],
					"name": "name",
					"outputs": [
						{
							"internalType": "string",
							"name": "",
							"type": "string"
						}
					],
					"stateMutability": "view",
					"type": "function"
				},
				{
					"inputs": [],
					"name": "president",
					"outputs": [
						{
							"internalType": "string",
							"name": "",
							"type": "string"
						}
					],
					"stateMutability": "view",
					"type": "function"
				},
				{
					"inputs": [],
					"name": "primeMinister",
					"outputs": [
						{
							"internalType": "string",
							"name": "",
							"type": "string"
						}
					],
					"stateMutability": "view",
					"type": "function"
				},
				{
					"inputs": [],
					"name": "sqkm",
					"outputs": [
						{
							"internalType": "uint256",
							"name": "",
							"type": "uint256"
						}
					],
					"stateMutability": "view",
					"type": "function"
				},
				{
					"inputs": [],
					"name": "sqm",
					"outputs": [
						{
							"internalType": "uint256",
							"name": "",
							"type": "uint256"
						}
					],
					"stateMutability": "view",
					"type": "function"
				}
			],
			"devdoc": {
				"kind": "dev",
				"methods": {},
				"version": 1
			},
			"evm": {
				"assembly": "    /* \"training/contracts/Inheritence,sol.sol\":622:760  contract US is Country, Turkey(){... */\n  mstore(0x40, 0x80)\n    /* \"training/contracts/Inheritence,sol.sol\":710:758  constructor(int _a) Country(_a*_a) public{... */\n  callvalue\n  dup1\n  iszero\n  tag_1\n  jumpi\n  0x00\n  dup1\n  revert\ntag_1:\n  pop\n  mload(0x40)\n  sub(codesize, bytecodeSize)\n  dup1\n  bytecodeSize\n  dup4\n  codecopy\n  dup2\n  dup2\n  add\n  0x40\n  mstore\n  dup2\n  add\n  swap1\n  tag_2\n  swap2\n  swap1\n  tag_3\n  jump\t// in\ntag_2:\n    /* \"training/contracts/Inheritence,sol.sol\":741:743  _a */\n  dup1\n    /* \"training/contracts/Inheritence,sol.sol\":738:740  _a */\n  dup2\n    /* \"training/contracts/Inheritence,sol.sol\":738:743  _a*_a */\n  tag_5\n  swap2\n  swap1\n  tag_6\n  jump\t// in\ntag_5:\n    /* \"training/contracts/Inheritence,sol.sol\":320:322  _a */\n  dup1\n    /* \"training/contracts/Inheritence,sol.sol\":318:319  a */\n  0x03\n    /* \"training/contracts/Inheritence,sol.sol\":318:322  a=_a */\n  dup2\n  swap1\n  sstore\n  pop\n    /* \"training/contracts/Inheritence,sol.sol\":203:329  constructor(int _a){        // baslangic degeri verildigi icin bunlari diger kontratlarda girmemiz gerekli... */\n  pop\n    /* \"training/contracts/Inheritence,sol.sol\":710:758  constructor(int _a) Country(_a*_a) public{... */\n  pop\n    /* \"training/contracts/Inheritence,sol.sol\":622:760  contract US is Country, Turkey(){... */\n  jump(tag_10)\n    /* \"#utility.yul\":7:148   */\ntag_12:\n    /* \"#utility.yul\":63:68   */\n  0x00\n    /* \"#utility.yul\":94:100   */\n  dup2\n    /* \"#utility.yul\":88:101   */\n  mload\n    /* \"#utility.yul\":79:101   */\n  swap1\n  pop\n    /* \"#utility.yul\":110:142   */\n  tag_14\n    /* \"#utility.yul\":136:141   */\n  dup2\n    /* \"#utility.yul\":110:142   */\n  tag_15\n  jump\t// in\ntag_14:\n    /* \"#utility.yul\":7:148   */\n  swap3\n  swap2\n  pop\n  pop\n  jump\t// out\n    /* \"#utility.yul\":154:503   */\ntag_3:\n    /* \"#utility.yul\":223:229   */\n  0x00\n    /* \"#utility.yul\":272:274   */\n  0x20\n    /* \"#utility.yul\":260:269   */\n  dup3\n    /* \"#utility.yul\":251:258   */\n  dup5\n    /* \"#utility.yul\":247:270   */\n  sub\n    /* \"#utility.yul\":243:275   */\n  slt\n    /* \"#utility.yul\":240:359   */\n  iszero\n  tag_17\n  jumpi\n    /* \"#utility.yul\":278:357   */\n  tag_18\n  tag_19\n  jump\t// in\ntag_18:\n    /* \"#utility.yul\":240:359   */\ntag_17:\n    /* \"#utility.yul\":398:399   */\n  0x00\n    /* \"#utility.yul\":423:486   */\n  tag_20\n    /* \"#utility.yul\":478:485   */\n  dup5\n    /* \"#utility.yul\":469:475   */\n  dup3\n    /* \"#utility.yul\":458:467   */\n  dup6\n    /* \"#utility.yul\":454:476   */\n  add\n    /* \"#utility.yul\":423:486   */\n  tag_12\n  jump\t// in\ntag_20:\n    /* \"#utility.yul\":413:486   */\n  swap2\n  pop\n    /* \"#utility.yul\":369:496   */\n  pop\n    /* \"#utility.yul\":154:503   */\n  swap3\n  swap2\n  pop\n  pop\n  jump\t// out\n    /* \"#utility.yul\":590:1581   */\ntag_6:\n    /* \"#utility.yul\":629:636   */\n  0x00\n    /* \"#utility.yul\":652:671   */\n  tag_24\n    /* \"#utility.yul\":669:670   */\n  dup3\n    /* \"#utility.yul\":652:671   */\n  tag_25\n  jump\t// in\ntag_24:\n    /* \"#utility.yul\":647:671   */\n  swap2\n  pop\n    /* \"#utility.yul\":685:704   */\n  tag_26\n    /* \"#utility.yul\":702:703   */\n  dup4\n    /* \"#utility.yul\":685:704   */\n  tag_25\n  jump\t// in\ntag_26:\n    /* \"#utility.yul\":680:704   */\n  swap3\n  pop\n    /* \"#utility.yul\":886:887   */\n  dup3\n    /* \"#utility.yul\":818:884   */\n  0x7fffffffffffffffffffffffffffffffffffffffffffffffffffffffffffffff\n    /* \"#utility.yul\":814:888   */\n  div\n    /* \"#utility.yul\":811:812   */\n  dup3\n    /* \"#utility.yul\":808:889   */\n  gt\n    /* \"#utility.yul\":803:804   */\n  0x00\n    /* \"#utility.yul\":800:801   */\n  dup5\n    /* \"#utility.yul\":796:805   */\n  sgt\n    /* \"#utility.yul\":792:793   */\n  0x00\n    /* \"#utility.yul\":789:790   */\n  dup5\n    /* \"#utility.yul\":785:794   */\n  sgt\n    /* \"#utility.yul\":781:806   */\n  and\n    /* \"#utility.yul\":777:890   */\n  and\n    /* \"#utility.yul\":774:913   */\n  iszero\n  tag_27\n  jumpi\n    /* \"#utility.yul\":893:911   */\n  tag_28\n  tag_29\n  jump\t// in\ntag_28:\n    /* \"#utility.yul\":774:913   */\ntag_27:\n    /* \"#utility.yul\":1097:1098   */\n  dup2\n    /* \"#utility.yul\":1029:1095   */\n  0x8000000000000000000000000000000000000000000000000000000000000000\n    /* \"#utility.yul\":1024:1099   */\n  sdiv\n    /* \"#utility.yul\":1021:1022   */\n  dup4\n    /* \"#utility.yul\":1017:1100   */\n  slt\n    /* \"#utility.yul\":1012:1013   */\n  0x00\n    /* \"#utility.yul\":1009:1010   */\n  dup5\n    /* \"#utility.yul\":1005:1014   */\n  slt\n    /* \"#utility.yul\":1001:1002   */\n  0x00\n    /* \"#utility.yul\":998:999   */\n  dup5\n    /* \"#utility.yul\":994:1003   */\n  sgt\n    /* \"#utility.yul\":990:1015   */\n  and\n    /* \"#utility.yul\":986:1101   */\n  and\n    /* \"#utility.yul\":983:1124   */\n  iszero\n  tag_30\n  jumpi\n    /* \"#utility.yul\":1104:1122   */\n  tag_31\n  tag_29\n  jump\t// in\ntag_31:\n    /* \"#utility.yul\":983:1124   */\ntag_30:\n    /* \"#utility.yul\":1308:1309   */\n  dup3\n    /* \"#utility.yul\":1240:1306   */\n  0x8000000000000000000000000000000000000000000000000000000000000000\n    /* \"#utility.yul\":1235:1310   */\n  sdiv\n    /* \"#utility.yul\":1232:1233   */\n  dup3\n    /* \"#utility.yul\":1228:1311   */\n  slt\n    /* \"#utility.yul\":1223:1224   */\n  0x00\n    /* \"#utility.yul\":1220:1221   */\n  dup5\n    /* \"#utility.yul\":1216:1225   */\n  sgt\n    /* \"#utility.yul\":1212:1213   */\n  0x00\n    /* \"#utility.yul\":1209:1210   */\n  dup5\n    /* \"#utility.yul\":1205:1214   */\n  slt\n    /* \"#utility.yul\":1201:1226   */\n  and\n    /* \"#utility.yul\":1197:1312   */\n  and\n    /* \"#utility.yul\":1194:1335   */\n  iszero\n  tag_32\n  jumpi\n    /* \"#utility.yul\":1315:1333   */\n  tag_33\n  tag_29\n  jump\t// in\ntag_33:\n    /* \"#utility.yul\":1194:1335   */\ntag_32:\n    /* \"#utility.yul\":1518:1519   */\n  dup3\n    /* \"#utility.yul\":1450:1516   */\n  0x7fffffffffffffffffffffffffffffffffffffffffffffffffffffffffffffff\n    /* \"#utility.yul\":1445:1520   */\n  sdiv\n    /* \"#utility.yul\":1442:1443   */\n  dup3\n    /* \"#utility.yul\":1438:1521   */\n  slt\n    /* \"#utility.yul\":1433:1434   */\n  0x00\n    /* \"#utility.yul\":1430:1431   */\n  dup5\n    /* \"#utility.yul\":1426:1435   */\n  slt\n    /* \"#utility.yul\":1422:1423   */\n  0x00\n    /* \"#utility.yul\":1419:1420   */\n  dup5\n    /* \"#utility.yul\":1415:1424   */\n  slt\n    /* \"#utility.yul\":1411:1436   */\n  and\n    /* \"#utility.yul\":1407:1522   */\n  and\n    /* \"#utility.yul\":1404:1545   */\n  iszero\n  tag_34\n  jumpi\n    /* \"#utility.yul\":1525:1543   */\n  tag_35\n  tag_29\n  jump\t// in\ntag_35:\n    /* \"#utility.yul\":1404:1545   */\ntag_34:\n    /* \"#utility.yul\":1573:1574   */\n  dup3\n    /* \"#utility.yul\":1570:1571   */\n  dup3\n    /* \"#utility.yul\":1566:1575   */\n  mul\n    /* \"#utility.yul\":1555:1575   */\n  swap1\n  pop\n    /* \"#utility.yul\":590:1581   */\n  swap3\n  swap2\n  pop\n  pop\n  jump\t// out\n    /* \"#utility.yul\":1587:1663   */\ntag_25:\n    /* \"#utility.yul\":1623:1630   */\n  0x00\n    /* \"#utility.yul\":1652:1657   */\n  dup2\n    /* \"#utility.yul\":1641:1657   */\n  swap1\n  pop\n    /* \"#utility.yul\":1587:1663   */\n  swap2\n  swap1\n  pop\n  jump\t// out\n    /* \"#utility.yul\":1669:1849   */\ntag_29:\n    /* \"#utility.yul\":1717:1794   */\n  0x4e487b7100000000000000000000000000000000000000000000000000000000\n    /* \"#utility.yul\":1714:1715   */\n  0x00\n    /* \"#utility.yul\":1707:1795   */\n  mstore\n    /* \"#utility.yul\":1814:1818   */\n  0x11\n    /* \"#utility.yul\":1811:1812   */\n  0x04\n    /* \"#utility.yul\":1804:1819   */\n  mstore\n    /* \"#utility.yul\":1838:1842   */\n  0x24\n    /* \"#utility.yul\":1835:1836   */\n  0x00\n    /* \"#utility.yul\":1828:1843   */\n  revert\n    /* \"#utility.yul\":1978:2095   */\ntag_19:\n    /* \"#utility.yul\":2087:2088   */\n  0x00\n    /* \"#utility.yul\":2084:2085   */\n  dup1\n    /* \"#utility.yul\":2077:2089   */\n  revert\n    /* \"#utility.yul\":2101:2221   */\ntag_15:\n    /* \"#utility.yul\":2173:2196   */\n  tag_42\n    /* \"#utility.yul\":2190:2195   */\n  dup2\n    /* \"#utility.yul\":2173:2196   */\n  tag_25\n  jump\t// in\ntag_42:\n    /* \"#utility.yul\":2166:2171   */\n  dup2\n    /* \"#utility.yul\":2163:2197   */\n  eq\n    /* \"#utility.yul\":2153:2215   */\n  tag_43\n  jumpi\n    /* \"#utility.yul\":2211:2212   */\n  0x00\n    /* \"#utility.yul\":2208:2209   */\n  dup1\n    /* \"#utility.yul\":2201:2213   */\n  revert\n    /* \"#utility.yul\":2153:2215   */\ntag_43:\n    /* \"#utility.yul\":2101:2221   */\n  pop\n  jump\t// out\n    /* \"training/contracts/Inheritence,sol.sol\":622:760  contract US is Country, Turkey(){... */\ntag_10:\n  dataSize(sub_0)\n  dup1\n  dataOffset(sub_0)\n  0x00\n  codecopy\n  0x00\n  return\nstop\n\nsub_0: assembly {\n        /* \"training/contracts/Inheritence,sol.sol\":622:760  contract US is Country, Turkey(){... */\n      mstore(0x40, 0x80)\n      callvalue\n      dup1\n      iszero\n      tag_1\n      jumpi\n      0x00\n      dup1\n      revert\n    tag_1:\n      pop\n      jumpi(tag_2, lt(calldatasize, 0x04))\n      shr(0xe0, calldataload(0x00))\n      dup1\n      0x59774655\n      gt\n      tag_10\n      jumpi\n      dup1\n      0x59774655\n      eq\n      tag_6\n      jumpi\n      dup1\n      0x5eee812c\n      eq\n      tag_7\n      jumpi\n      dup1\n      0x890eba68\n      eq\n      tag_8\n      jumpi\n      dup1\n      0xf6ab7520\n      eq\n      tag_9\n      jumpi\n      jump(tag_2)\n    tag_10:\n      dup1\n      0x06fdde03\n      eq\n      tag_3\n      jumpi\n      dup1\n      0x0dbe671f\n      eq\n      tag_4\n      jumpi\n      dup1\n      0x324a1376\n      eq\n      tag_5\n      jumpi\n    tag_2:\n      0x00\n      dup1\n      revert\n        /* \"training/contracts/Inheritence,sol.sol\":55:73  string public name */\n    tag_3:\n      tag_11\n      tag_12\n      jump\t// in\n    tag_11:\n      mload(0x40)\n      tag_13\n      swap2\n      swap1\n      tag_14\n      jump\t// in\n    tag_13:\n      mload(0x40)\n      dup1\n      swap2\n      sub\n      swap1\n      return\n        /* \"training/contracts/Inheritence,sol.sol\":185:197  int public a */\n    tag_4:\n      tag_15\n      tag_16\n      jump\t// in\n    tag_15:\n      mload(0x40)\n      tag_17\n      swap2\n      swap1\n      tag_18\n      jump\t// in\n    tag_17:\n      mload(0x40)\n      dup1\n      swap2\n      sub\n      swap1\n      return\n        /* \"training/contracts/Inheritence,sol.sol\":681:704  string public president */\n    tag_5:\n      tag_19\n      tag_20\n      jump\t// in\n    tag_19:\n      mload(0x40)\n      tag_21\n      swap2\n      swap1\n      tag_14\n      jump\t// in\n    tag_21:\n      mload(0x40)\n      dup1\n      swap2\n      sub\n      swap1\n      return\n        /* \"training/contracts/Inheritence,sol.sol\":660:675  uint public sqm */\n    tag_6:\n      tag_22\n      tag_23\n      jump\t// in\n    tag_22:\n      mload(0x40)\n      tag_24\n      swap2\n      swap1\n      tag_25\n      jump\t// in\n    tag_24:\n      mload(0x40)\n      dup1\n      swap2\n      sub\n      swap1\n      return\n        /* \"training/contracts/Inheritence,sol.sol\":590:617  string public primeMinister */\n    tag_7:\n      tag_26\n      tag_27\n      jump\t// in\n    tag_26:\n      mload(0x40)\n      tag_28\n      swap2\n      swap1\n      tag_14\n      jump\t// in\n    tag_28:\n      mload(0x40)\n      dup1\n      swap2\n      sub\n      swap1\n      return\n        /* \"training/contracts/Inheritence,sol.sol\":79:97  string public flag */\n    tag_8:\n      tag_29\n      tag_30\n      jump\t// in\n    tag_29:\n      mload(0x40)\n      tag_31\n      swap2\n      swap1\n      tag_14\n      jump\t// in\n    tag_31:\n      mload(0x40)\n      dup1\n      swap2\n      sub\n      swap1\n      return\n        /* \"training/contracts/Inheritence,sol.sol\":568:584  uint public sqkm */\n    tag_9:\n      tag_32\n      tag_33\n      jump\t// in\n    tag_32:\n      mload(0x40)\n      tag_34\n      swap2\n      swap1\n      tag_25\n      jump\t// in\n    tag_34:\n      mload(0x40)\n      dup1\n      swap2\n      sub\n      swap1\n      return\n        /* \"training/contracts/Inheritence,sol.sol\":55:73  string public name */\n    tag_12:\n      0x00\n      dup1\n      sload\n      tag_35\n      swap1\n      tag_36\n      jump\t// in\n    tag_35:\n      dup1\n      0x1f\n      add\n      0x20\n      dup1\n      swap2\n      div\n      mul\n      0x20\n      add\n      mload(0x40)\n      swap1\n      dup2\n      add\n      0x40\n      mstore\n      dup1\n      swap3\n      swap2\n      swap1\n      dup2\n      dup2\n      mstore\n      0x20\n      add\n      dup3\n      dup1\n      sload\n      tag_37\n      swap1\n      tag_36\n      jump\t// in\n    tag_37:\n      dup1\n      iszero\n      tag_38\n      jumpi\n      dup1\n      0x1f\n      lt\n      tag_39\n      jumpi\n      0x0100\n      dup1\n      dup4\n      sload\n      div\n      mul\n      dup4\n      mstore\n      swap2\n      0x20\n      add\n      swap2\n      jump(tag_38)\n    tag_39:\n      dup3\n      add\n      swap2\n      swap1\n      0x00\n      mstore\n      keccak256(0x00, 0x20)\n      swap1\n    tag_40:\n      dup2\n      sload\n      dup2\n      mstore\n      swap1\n      0x01\n      add\n      swap1\n      0x20\n      add\n      dup1\n      dup4\n      gt\n      tag_40\n      jumpi\n      dup3\n      swap1\n      sub\n      0x1f\n      and\n      dup3\n      add\n      swap2\n    tag_38:\n      pop\n      pop\n      pop\n      pop\n      pop\n      dup2\n      jump\t// out\n        /* \"training/contracts/Inheritence,sol.sol\":185:197  int public a */\n    tag_16:\n      sload(0x03)\n      dup2\n      jump\t// out\n        /* \"training/contracts/Inheritence,sol.sol\":681:704  string public president */\n    tag_20:\n      0x07\n      dup1\n      sload\n      tag_41\n      swap1\n      tag_36\n      jump\t// in\n    tag_41:\n      dup1\n      0x1f\n      add\n      0x20\n      dup1\n      swap2\n      div\n      mul\n      0x20\n      add\n      mload(0x40)\n      swap1\n      dup2\n      add\n      0x40\n      mstore\n      dup1\n      swap3\n      swap2\n      swap1\n      dup2\n      dup2\n      mstore\n      0x20\n      add\n      dup3\n      dup1\n      sload\n      tag_42\n      swap1\n      tag_36\n      jump\t// in\n    tag_42:\n      dup1\n      iszero\n      tag_43\n      jumpi\n      dup1\n      0x1f\n      lt\n      tag_44\n      jumpi\n      0x0100\n      dup1\n      dup4\n      sload\n      div\n      mul\n      dup4\n      mstore\n      swap2\n      0x20\n      add\n      swap2\n      jump(tag_43)\n    tag_44:\n      dup3\n      add\n      swap2\n      swap1\n      0x00\n      mstore\n      keccak256(0x00, 0x20)\n      swap1\n    tag_45:\n      dup2\n      sload\n      dup2\n      mstore\n      swap1\n      0x01\n      add\n      swap1\n      0x20\n      add\n      dup1\n      dup4\n      gt\n      tag_45\n      jumpi\n      dup3\n      swap1\n      sub\n      0x1f\n      and\n      dup3\n      add\n      swap2\n    tag_43:\n      pop\n      pop\n      pop\n      pop\n      pop\n      dup2\n      jump\t// out\n        /* \"training/contracts/Inheritence,sol.sol\":660:675  uint public sqm */\n    tag_23:\n      sload(0x06)\n      dup2\n      jump\t// out\n        /* \"training/contracts/Inheritence,sol.sol\":590:617  string public primeMinister */\n    tag_27:\n      0x05\n      dup1\n      sload\n      tag_46\n      swap1\n      tag_36\n      jump\t// in\n    tag_46:\n      dup1\n      0x1f\n      add\n      0x20\n      dup1\n      swap2\n      div\n      mul\n      0x20\n      add\n      mload(0x40)\n      swap1\n      dup2\n      add\n      0x40\n      mstore\n      dup1\n      swap3\n      swap2\n      swap1\n      dup2\n      dup2\n      mstore\n      0x20\n      add\n      dup3\n      dup1\n      sload\n      tag_47\n      swap1\n      tag_36\n      jump\t// in\n    tag_47:\n      dup1\n      iszero\n      tag_48\n      jumpi\n      dup1\n      0x1f\n      lt\n      tag_49\n      jumpi\n      0x0100\n      dup1\n      dup4\n      sload\n      div\n      mul\n      dup4\n      mstore\n      swap2\n      0x20\n      add\n      swap2\n      jump(tag_48)\n    tag_49:\n      dup3\n      add\n      swap2\n      swap1\n      0x00\n      mstore\n      keccak256(0x00, 0x20)\n      swap1\n    tag_50:\n      dup2\n      sload\n      dup2\n      mstore\n      swap1\n      0x01\n      add\n      swap1\n      0x20\n      add\n      dup1\n      dup4\n      gt\n      tag_50\n      jumpi\n      dup3\n      swap1\n      sub\n      0x1f\n      and\n      dup3\n      add\n      swap2\n    tag_48:\n      pop\n      pop\n      pop\n      pop\n      pop\n      dup2\n      jump\t// out\n        /* \"training/contracts/Inheritence,sol.sol\":79:97  string public flag */\n    tag_30:\n      0x01\n      dup1\n      sload\n      tag_51\n      swap1\n      tag_36\n      jump\t// in\n    tag_51:\n      dup1\n      0x1f\n      add\n      0x20\n      dup1\n      swap2\n      div\n      mul\n      0x20\n      add\n      mload(0x40)\n      swap1\n      dup2\n      add\n      0x40\n      mstore\n      dup1\n      swap3\n      swap2\n      swap1\n      dup2\n      dup2\n      mstore\n      0x20\n      add\n      dup3\n      dup1\n      sload\n      tag_52\n      swap1\n      tag_36\n      jump\t// in\n    tag_52:\n      dup1\n      iszero\n      tag_53\n      jumpi\n      dup1\n      0x1f\n      lt\n      tag_54\n      jumpi\n      0x0100\n      dup1\n      dup4\n      sload\n      div\n      mul\n      dup4\n      mstore\n      swap2\n      0x20\n      add\n      swap2\n      jump(tag_53)\n    tag_54:\n      dup3\n      add\n      swap2\n      swap1\n      0x00\n      mstore\n      keccak256(0x00, 0x20)\n      swap1\n    tag_55:\n      dup2\n      sload\n      dup2\n      mstore\n      swap1\n      0x01\n      add\n      swap1\n      0x20\n      add\n      dup1\n      dup4\n      gt\n      tag_55\n      jumpi\n      dup3\n      swap1\n      sub\n      0x1f\n      and\n      dup3\n      add\n      swap2\n    tag_53:\n      pop\n      pop\n      pop\n      pop\n      pop\n      dup2\n      jump\t// out\n        /* \"training/contracts/Inheritence,sol.sol\":568:584  uint public sqkm */\n    tag_33:\n      sload(0x04)\n      dup2\n      jump\t// out\n        /* \"#utility.yul\":7:122   */\n    tag_57:\n        /* \"#utility.yul\":92:115   */\n      tag_59\n        /* \"#utility.yul\":109:114   */\n      dup2\n        /* \"#utility.yul\":92:115   */\n      tag_60\n      jump\t// in\n    tag_59:\n        /* \"#utility.yul\":87:90   */\n      dup3\n        /* \"#utility.yul\":80:116   */\n      mstore\n        /* \"#utility.yul\":7:122   */\n      pop\n      pop\n      jump\t// out\n        /* \"#utility.yul\":128:492   */\n    tag_61:\n        /* \"#utility.yul\":216:219   */\n      0x00\n        /* \"#utility.yul\":244:283   */\n      tag_63\n        /* \"#utility.yul\":277:282   */\n      dup3\n        /* \"#utility.yul\":244:283   */\n      tag_64\n      jump\t// in\n    tag_63:\n        /* \"#utility.yul\":299:370   */\n      tag_65\n        /* \"#utility.yul\":363:369   */\n      dup2\n        /* \"#utility.yul\":358:361   */\n      dup6\n        /* \"#utility.yul\":299:370   */\n      tag_66\n      jump\t// in\n    tag_65:\n        /* \"#utility.yul\":292:370   */\n      swap4\n      pop\n        /* \"#utility.yul\":379:431   */\n      tag_67\n        /* \"#utility.yul\":424:430   */\n      dup2\n        /* \"#utility.yul\":419:422   */\n      dup6\n        /* \"#utility.yul\":412:416   */\n      0x20\n        /* \"#utility.yul\":405:410   */\n      dup7\n        /* \"#utility.yul\":401:417   */\n      add\n        /* \"#utility.yul\":379:431   */\n      tag_68\n      jump\t// in\n    tag_67:\n        /* \"#utility.yul\":456:485   */\n      tag_69\n        /* \"#utility.yul\":478:484   */\n      dup2\n        /* \"#utility.yul\":456:485   */\n      tag_70\n      jump\t// in\n    tag_69:\n        /* \"#utility.yul\":451:454   */\n      dup5\n        /* \"#utility.yul\":447:486   */\n      add\n        /* \"#utility.yul\":440:486   */\n      swap2\n      pop\n        /* \"#utility.yul\":220:492   */\n      pop\n        /* \"#utility.yul\":128:492   */\n      swap3\n      swap2\n      pop\n      pop\n      jump\t// out\n        /* \"#utility.yul\":498:616   */\n    tag_71:\n        /* \"#utility.yul\":585:609   */\n      tag_73\n        /* \"#utility.yul\":603:608   */\n      dup2\n        /* \"#utility.yul\":585:609   */\n      tag_74\n      jump\t// in\n    tag_73:\n        /* \"#utility.yul\":580:583   */\n      dup3\n        /* \"#utility.yul\":573:610   */\n      mstore\n        /* \"#utility.yul\":498:616   */\n      pop\n      pop\n      jump\t// out\n        /* \"#utility.yul\":622:840   */\n    tag_18:\n        /* \"#utility.yul\":713:717   */\n      0x00\n        /* \"#utility.yul\":751:753   */\n      0x20\n        /* \"#utility.yul\":740:749   */\n      dup3\n        /* \"#utility.yul\":736:754   */\n      add\n        /* \"#utility.yul\":728:754   */\n      swap1\n      pop\n        /* \"#utility.yul\":764:833   */\n      tag_76\n        /* \"#utility.yul\":830:831   */\n      0x00\n        /* \"#utility.yul\":819:828   */\n      dup4\n        /* \"#utility.yul\":815:832   */\n      add\n        /* \"#utility.yul\":806:812   */\n      dup5\n        /* \"#utility.yul\":764:833   */\n      tag_57\n      jump\t// in\n    tag_76:\n        /* \"#utility.yul\":622:840   */\n      swap3\n      swap2\n      pop\n      pop\n      jump\t// out\n        /* \"#utility.yul\":846:1159   */\n    tag_14:\n        /* \"#utility.yul\":959:963   */\n      0x00\n        /* \"#utility.yul\":997:999   */\n      0x20\n        /* \"#utility.yul\":986:995   */\n      dup3\n        /* \"#utility.yul\":982:1000   */\n      add\n        /* \"#utility.yul\":974:1000   */\n      swap1\n      pop\n        /* \"#utility.yul\":1046:1055   */\n      dup2\n        /* \"#utility.yul\":1040:1044   */\n      dup2\n        /* \"#utility.yul\":1036:1056   */\n      sub\n        /* \"#utility.yul\":1032:1033   */\n      0x00\n        /* \"#utility.yul\":1021:1030   */\n      dup4\n        /* \"#utility.yul\":1017:1034   */\n      add\n        /* \"#utility.yul\":1010:1057   */\n      mstore\n        /* \"#utility.yul\":1074:1152   */\n      tag_78\n        /* \"#utility.yul\":1147:1151   */\n      dup2\n        /* \"#utility.yul\":1138:1144   */\n      dup5\n        /* \"#utility.yul\":1074:1152   */\n      tag_61\n      jump\t// in\n    tag_78:\n        /* \"#utility.yul\":1066:1152   */\n      swap1\n      pop\n        /* \"#utility.yul\":846:1159   */\n      swap3\n      swap2\n      pop\n      pop\n      jump\t// out\n        /* \"#utility.yul\":1165:1387   */\n    tag_25:\n        /* \"#utility.yul\":1258:1262   */\n      0x00\n        /* \"#utility.yul\":1296:1298   */\n      0x20\n        /* \"#utility.yul\":1285:1294   */\n      dup3\n        /* \"#utility.yul\":1281:1299   */\n      add\n        /* \"#utility.yul\":1273:1299   */\n      swap1\n      pop\n        /* \"#utility.yul\":1309:1380   */\n      tag_80\n        /* \"#utility.yul\":1377:1378   */\n      0x00\n        /* \"#utility.yul\":1366:1375   */\n      dup4\n        /* \"#utility.yul\":1362:1379   */\n      add\n        /* \"#utility.yul\":1353:1359   */\n      dup5\n        /* \"#utility.yul\":1309:1380   */\n      tag_71\n      jump\t// in\n    tag_80:\n        /* \"#utility.yul\":1165:1387   */\n      swap3\n      swap2\n      pop\n      pop\n      jump\t// out\n        /* \"#utility.yul\":1393:1492   */\n    tag_64:\n        /* \"#utility.yul\":1445:1451   */\n      0x00\n        /* \"#utility.yul\":1479:1484   */\n      dup2\n        /* \"#utility.yul\":1473:1485   */\n      mload\n        /* \"#utility.yul\":1463:1485   */\n      swap1\n      pop\n        /* \"#utility.yul\":1393:1492   */\n      swap2\n      swap1\n      pop\n      jump\t// out\n        /* \"#utility.yul\":1498:1667   */\n    tag_66:\n        /* \"#utility.yul\":1582:1593   */\n      0x00\n        /* \"#utility.yul\":1616:1622   */\n      dup3\n        /* \"#utility.yul\":1611:1614   */\n      dup3\n        /* \"#utility.yul\":1604:1623   */\n      mstore\n        /* \"#utility.yul\":1656:1660   */\n      0x20\n        /* \"#utility.yul\":1651:1654   */\n      dup3\n        /* \"#utility.yul\":1647:1661   */\n      add\n        /* \"#utility.yul\":1632:1661   */\n      swap1\n      pop\n        /* \"#utility.yul\":1498:1667   */\n      swap3\n      swap2\n      pop\n      pop\n      jump\t// out\n        /* \"#utility.yul\":1673:1749   */\n    tag_60:\n        /* \"#utility.yul\":1709:1716   */\n      0x00\n        /* \"#utility.yul\":1738:1743   */\n      dup2\n        /* \"#utility.yul\":1727:1743   */\n      swap1\n      pop\n        /* \"#utility.yul\":1673:1749   */\n      swap2\n      swap1\n      pop\n      jump\t// out\n        /* \"#utility.yul\":1755:1832   */\n    tag_74:\n        /* \"#utility.yul\":1792:1799   */\n      0x00\n        /* \"#utility.yul\":1821:1826   */\n      dup2\n        /* \"#utility.yul\":1810:1826   */\n      swap1\n      pop\n        /* \"#utility.yul\":1755:1832   */\n      swap2\n      swap1\n      pop\n      jump\t// out\n        /* \"#utility.yul\":1838:2145   */\n    tag_68:\n        /* \"#utility.yul\":1906:1907   */\n      0x00\n        /* \"#utility.yul\":1916:2029   */\n    tag_86:\n        /* \"#utility.yul\":1930:1936   */\n      dup4\n        /* \"#utility.yul\":1927:1928   */\n      dup2\n        /* \"#utility.yul\":1924:1937   */\n      lt\n        /* \"#utility.yul\":1916:2029   */\n      iszero\n      tag_88\n      jumpi\n        /* \"#utility.yul\":2015:2016   */\n      dup1\n        /* \"#utility.yul\":2010:2013   */\n      dup3\n        /* \"#utility.yul\":2006:2017   */\n      add\n        /* \"#utility.yul\":2000:2018   */\n      mload\n        /* \"#utility.yul\":1996:1997   */\n      dup2\n        /* \"#utility.yul\":1991:1994   */\n      dup5\n        /* \"#utility.yul\":1987:1998   */\n      add\n        /* \"#utility.yul\":1980:2019   */\n      mstore\n        /* \"#utility.yul\":1952:1954   */\n      0x20\n        /* \"#utility.yul\":1949:1950   */\n      dup2\n        /* \"#utility.yul\":1945:1955   */\n      add\n        /* \"#utility.yul\":1940:1955   */\n      swap1\n      pop\n        /* \"#utility.yul\":1916:2029   */\n      jump(tag_86)\n    tag_88:\n        /* \"#utility.yul\":2047:2053   */\n      dup4\n        /* \"#utility.yul\":2044:2045   */\n      dup2\n        /* \"#utility.yul\":2041:2054   */\n      gt\n        /* \"#utility.yul\":2038:2139   */\n      iszero\n      tag_89\n      jumpi\n        /* \"#utility.yul\":2127:2128   */\n      0x00\n        /* \"#utility.yul\":2118:2124   */\n      dup5\n        /* \"#utility.yul\":2113:2116   */\n      dup5\n        /* \"#utility.yul\":2109:2125   */\n      add\n        /* \"#utility.yul\":2102:2129   */\n      mstore\n        /* \"#utility.yul\":2038:2139   */\n    tag_89:\n        /* \"#utility.yul\":1887:2145   */\n      pop\n        /* \"#utility.yul\":1838:2145   */\n      pop\n      pop\n      pop\n      jump\t// out\n        /* \"#utility.yul\":2151:2471   */\n    tag_36:\n        /* \"#utility.yul\":2195:2201   */\n      0x00\n        /* \"#utility.yul\":2232:2233   */\n      0x02\n        /* \"#utility.yul\":2226:2230   */\n      dup3\n        /* \"#utility.yul\":2222:2234   */\n      div\n        /* \"#utility.yul\":2212:2234   */\n      swap1\n      pop\n        /* \"#utility.yul\":2279:2280   */\n      0x01\n        /* \"#utility.yul\":2273:2277   */\n      dup3\n        /* \"#utility.yul\":2269:2281   */\n      and\n        /* \"#utility.yul\":2300:2318   */\n      dup1\n        /* \"#utility.yul\":2290:2371   */\n      tag_91\n      jumpi\n        /* \"#utility.yul\":2356:2360   */\n      0x7f\n        /* \"#utility.yul\":2348:2354   */\n      dup3\n        /* \"#utility.yul\":2344:2361   */\n      and\n        /* \"#utility.yul\":2334:2361   */\n      swap2\n      pop\n        /* \"#utility.yul\":2290:2371   */\n    tag_91:\n        /* \"#utility.yul\":2418:2420   */\n      0x20\n        /* \"#utility.yul\":2410:2416   */\n      dup3\n        /* \"#utility.yul\":2407:2421   */\n      lt\n        /* \"#utility.yul\":2387:2405   */\n      dup2\n        /* \"#utility.yul\":2384:2422   */\n      eq\n        /* \"#utility.yul\":2381:2465   */\n      iszero\n      tag_92\n      jumpi\n        /* \"#utility.yul\":2437:2455   */\n      tag_93\n      tag_94\n      jump\t// in\n    tag_93:\n        /* \"#utility.yul\":2381:2465   */\n    tag_92:\n        /* \"#utility.yul\":2202:2471   */\n      pop\n        /* \"#utility.yul\":2151:2471   */\n      swap2\n      swap1\n      pop\n      jump\t// out\n        /* \"#utility.yul\":2477:2657   */\n    tag_94:\n        /* \"#utility.yul\":2525:2602   */\n      0x4e487b7100000000000000000000000000000000000000000000000000000000\n        /* \"#utility.yul\":2522:2523   */\n      0x00\n        /* \"#utility.yul\":2515:2603   */\n      mstore\n        /* \"#utility.yul\":2622:2626   */\n      0x22\n        /* \"#utility.yul\":2619:2620   */\n      0x04\n        /* \"#utility.yul\":2612:2627   */\n      mstore\n        /* \"#utility.yul\":2646:2650   */\n      0x24\n        /* \"#utility.yul\":2643:2644   */\n      0x00\n        /* \"#utility.yul\":2636:2651   */\n      revert\n        /* \"#utility.yul\":2663:2765   */\n    tag_70:\n        /* \"#utility.yul\":2704:2710   */\n      0x00\n        /* \"#utility.yul\":2755:2757   */\n      0x1f\n        /* \"#utility.yul\":2751:2758   */\n      not\n        /* \"#utility.yul\":2746:2748   */\n      0x1f\n        /* \"#utility.yul\":2739:2744   */\n      dup4\n        /* \"#utility.yul\":2735:2749   */\n      add\n        /* \"#utility.yul\":2731:2759   */\n      and\n        /* \"#utility.yul\":2721:2759   */\n      swap1\n      pop\n        /* \"#utility.yul\":2663:2765   */\n      swap2\n      swap1\n      pop\n      jump\t// out\n\n    auxdata: 0xa26469706673582212201ff319e8ecc7bf4499f650d5d9a26a3ed16a2d4c6f4a286feb39ae814dc2c5b464736f6c63430008070033\n}\n",
				"bytecode": {
					"linkReferences": {},
					"object": "608060405234801561001057600080fd5b5060405161076138038061076183398181016040528101906100329190610061565b808161003e919061008e565b8060038190555050506101fa565b60008151905061005b816101e3565b92915050565b600060208284031215610077576100766101de565b5b60006100858482850161004c565b91505092915050565b6000610099826101a5565b91506100a4836101a5565b9250827f7fffffffffffffffffffffffffffffffffffffffffffffffffffffffffffffff04821160008413600084131616156100e3576100e26101af565b5b817f800000000000000000000000000000000000000000000000000000000000000005831260008412600084131616156101205761011f6101af565b5b827f8000000000000000000000000000000000000000000000000000000000000000058212600084136000841216161561015d5761015c6101af565b5b827f7fffffffffffffffffffffffffffffffffffffffffffffffffffffffffffffff058212600084126000841216161561019a576101996101af565b5b828202905092915050565b6000819050919050565b7f4e487b7100000000000000000000000000000000000000000000000000000000600052601160045260246000fd5b600080fd5b6101ec816101a5565b81146101f757600080fd5b50565b610558806102096000396000f3fe608060405234801561001057600080fd5b506004361061007d5760003560e01c8063597746551161005b57806359774655146100dc5780635eee812c146100fa578063890eba6814610118578063f6ab7520146101365761007d565b806306fdde03146100825780630dbe671f146100a0578063324a1376146100be575b600080fd5b61008a610154565b6040516100979190610410565b60405180910390f35b6100a86101e2565b6040516100b591906103f5565b60405180910390f35b6100c66101e8565b6040516100d39190610410565b60405180910390f35b6100e4610276565b6040516100f19190610432565b60405180910390f35b61010261027c565b60405161010f9190610410565b60405180910390f35b61012061030a565b60405161012d9190610410565b60405180910390f35b61013e610398565b60405161014b9190610432565b60405180910390f35b60008054610161906104b0565b80601f016020809104026020016040519081016040528092919081815260200182805461018d906104b0565b80156101da5780601f106101af576101008083540402835291602001916101da565b820191906000526020600020905b8154815290600101906020018083116101bd57829003601f168201915b505050505081565b60035481565b600780546101f5906104b0565b80601f0160208091040260200160405190810160405280929190818152602001828054610221906104b0565b801561026e5780601f106102435761010080835404028352916020019161026e565b820191906000526020600020905b81548152906001019060200180831161025157829003601f168201915b505050505081565b60065481565b60058054610289906104b0565b80601f01602080910402602001604051908101604052809291908181526020018280546102b5906104b0565b80156103025780601f106102d757610100808354040283529160200191610302565b820191906000526020600020905b8154815290600101906020018083116102e557829003601f168201915b505050505081565b60018054610317906104b0565b80601f0160208091040260200160405190810160405280929190818152602001828054610343906104b0565b80156103905780601f1061036557610100808354040283529160200191610390565b820191906000526020600020905b81548152906001019060200180831161037357829003601f168201915b505050505081565b60045481565b6103a781610469565b82525050565b60006103b88261044d565b6103c28185610458565b93506103d281856020860161047d565b6103db81610511565b840191505092915050565b6103ef81610473565b82525050565b600060208201905061040a600083018461039e565b92915050565b6000602082019050818103600083015261042a81846103ad565b905092915050565b600060208201905061044760008301846103e6565b92915050565b600081519050919050565b600082825260208201905092915050565b6000819050919050565b6000819050919050565b60005b8381101561049b578082015181840152602081019050610480565b838111156104aa576000848401525b50505050565b600060028204905060018216806104c857607f821691505b602082108114156104dc576104db6104e2565b5b50919050565b7f4e487b7100000000000000000000000000000000000000000000000000000000600052602260045260246000fd5b6000601f19601f830116905091905056fea26469706673582212201ff319e8ecc7bf4499f650d5d9a26a3ed16a2d4c6f4a286feb39ae814dc2c5b464736f6c63430008070033",
					"opcodes": "PUSH1 0x80 PUSH1 0x40 MSTORE CALLVALUE DUP1 ISZERO PUSH2 0x10 JUMPI PUSH1 0x0 DUP1 REVERT JUMPDEST POP PUSH1 0x40 MLOAD PUSH2 0x761 CODESIZE SUB DUP1 PUSH2 0x761 DUP4 CODECOPY DUP2 DUP2 ADD PUSH1 0x40 MSTORE DUP2 ADD SWAP1 PUSH2 0x32 SWAP2 SWAP1 PUSH2 0x61 JUMP JUMPDEST DUP1 DUP2 PUSH2 0x3E SWAP2 SWAP1 PUSH2 0x8E JUMP JUMPDEST DUP1 PUSH1 0x3 DUP2 SWAP1 SSTORE POP POP POP PUSH2 0x1FA JUMP JUMPDEST PUSH1 0x0 DUP2 MLOAD SWAP1 POP PUSH2 0x5B DUP2 PUSH2 0x1E3 JUMP JUMPDEST SWAP3 SWAP2 POP POP JUMP JUMPDEST PUSH1 0x0 PUSH1 0x20 DUP3 DUP5 SUB SLT ISZERO PUSH2 0x77 JUMPI PUSH2 0x76 PUSH2 0x1DE JUMP JUMPDEST JUMPDEST PUSH1 0x0 PUSH2 0x85 DUP5 DUP3 DUP6 ADD PUSH2 0x4C JUMP JUMPDEST SWAP2 POP POP SWAP3 SWAP2 POP POP JUMP JUMPDEST PUSH1 0x0 PUSH2 0x99 DUP3 PUSH2 0x1A5 JUMP JUMPDEST SWAP2 POP PUSH2 0xA4 DUP4 PUSH2 0x1A5 JUMP JUMPDEST SWAP3 POP DUP3 PUSH32 0x7FFFFFFFFFFFFFFFFFFFFFFFFFFFFFFFFFFFFFFFFFFFFFFFFFFFFFFFFFFFFFFF DIV DUP3 GT PUSH1 0x0 DUP5 SGT PUSH1 0x0 DUP5 SGT AND AND ISZERO PUSH2 0xE3 JUMPI PUSH2 0xE2 PUSH2 0x1AF JUMP JUMPDEST JUMPDEST DUP2 PUSH32 0x8000000000000000000000000000000000000000000000000000000000000000 SDIV DUP4 SLT PUSH1 0x0 DUP5 SLT PUSH1 0x0 DUP5 SGT AND AND ISZERO PUSH2 0x120 JUMPI PUSH2 0x11F PUSH2 0x1AF JUMP JUMPDEST JUMPDEST DUP3 PUSH32 0x8000000000000000000000000000000000000000000000000000000000000000 SDIV DUP3 SLT PUSH1 0x0 DUP5 SGT PUSH1 0x0 DUP5 SLT AND AND ISZERO PUSH2 0x15D JUMPI PUSH2 0x15C PUSH2 0x1AF JUMP JUMPDEST JUMPDEST DUP3 PUSH32 0x7FFFFFFFFFFFFFFFFFFFFFFFFFFFFFFFFFFFFFFFFFFFFFFFFFFFFFFFFFFFFFFF SDIV DUP3 SLT PUSH1 0x0 DUP5 SLT PUSH1 0x0 DUP5 SLT AND AND ISZERO PUSH2 0x19A JUMPI PUSH2 0x199 PUSH2 0x1AF JUMP JUMPDEST JUMPDEST DUP3 DUP3 MUL SWAP1 POP SWAP3 SWAP2 POP POP JUMP JUMPDEST PUSH1 0x0 DUP2 SWAP1 POP SWAP2 SWAP1 POP JUMP JUMPDEST PUSH32 0x4E487B7100000000000000000000000000000000000000000000000000000000 PUSH1 0x0 MSTORE PUSH1 0x11 PUSH1 0x4 MSTORE PUSH1 0x24 PUSH1 0x0 REVERT JUMPDEST PUSH1 0x0 DUP1 REVERT JUMPDEST PUSH2 0x1EC DUP2 PUSH2 0x1A5 JUMP JUMPDEST DUP2 EQ PUSH2 0x1F7 JUMPI PUSH1 0x0 DUP1 REVERT JUMPDEST POP JUMP JUMPDEST PUSH2 0x558 DUP1 PUSH2 0x209 PUSH1 0x0 CODECOPY PUSH1 0x0 RETURN INVALID PUSH1 0x80 PUSH1 0x40 MSTORE CALLVALUE DUP1 ISZERO PUSH2 0x10 JUMPI PUSH1 0x0 DUP1 REVERT JUMPDEST POP PUSH1 0x4 CALLDATASIZE LT PUSH2 0x7D JUMPI PUSH1 0x0 CALLDATALOAD PUSH1 0xE0 SHR DUP1 PUSH4 0x59774655 GT PUSH2 0x5B JUMPI DUP1 PUSH4 0x59774655 EQ PUSH2 0xDC JUMPI DUP1 PUSH4 0x5EEE812C EQ PUSH2 0xFA JUMPI DUP1 PUSH4 0x890EBA68 EQ PUSH2 0x118 JUMPI DUP1 PUSH4 0xF6AB7520 EQ PUSH2 0x136 JUMPI PUSH2 0x7D JUMP JUMPDEST DUP1 PUSH4 0x6FDDE03 EQ PUSH2 0x82 JUMPI DUP1 PUSH4 0xDBE671F EQ PUSH2 0xA0 JUMPI DUP1 PUSH4 0x324A1376 EQ PUSH2 0xBE JUMPI JUMPDEST PUSH1 0x0 DUP1 REVERT JUMPDEST PUSH2 0x8A PUSH2 0x154 JUMP JUMPDEST PUSH1 0x40 MLOAD PUSH2 0x97 SWAP2 SWAP1 PUSH2 0x410 JUMP JUMPDEST PUSH1 0x40 MLOAD DUP1 SWAP2 SUB SWAP1 RETURN JUMPDEST PUSH2 0xA8 PUSH2 0x1E2 JUMP JUMPDEST PUSH1 0x40 MLOAD PUSH2 0xB5 SWAP2 SWAP1 PUSH2 0x3F5 JUMP JUMPDEST PUSH1 0x40 MLOAD DUP1 SWAP2 SUB SWAP1 RETURN JUMPDEST PUSH2 0xC6 PUSH2 0x1E8 JUMP JUMPDEST PUSH1 0x40 MLOAD PUSH2 0xD3 SWAP2 SWAP1 PUSH2 0x410 JUMP JUMPDEST PUSH1 0x40 MLOAD DUP1 SWAP2 SUB SWAP1 RETURN JUMPDEST PUSH2 0xE4 PUSH2 0x276 JUMP JUMPDEST PUSH1 0x40 MLOAD PUSH2 0xF1 SWAP2 SWAP1 PUSH2 0x432 JUMP JUMPDEST PUSH1 0x40 MLOAD DUP1 SWAP2 SUB SWAP1 RETURN JUMPDEST PUSH2 0x102 PUSH2 0x27C JUMP JUMPDEST PUSH1 0x40 MLOAD PUSH2 0x10F SWAP2 SWAP1 PUSH2 0x410 JUMP JUMPDEST PUSH1 0x40 MLOAD DUP1 SWAP2 SUB SWAP1 RETURN JUMPDEST PUSH2 0x120 PUSH2 0x30A JUMP JUMPDEST PUSH1 0x40 MLOAD PUSH2 0x12D SWAP2 SWAP1 PUSH2 0x410 JUMP JUMPDEST PUSH1 0x40 MLOAD DUP1 SWAP2 SUB SWAP1 RETURN JUMPDEST PUSH2 0x13E PUSH2 0x398 JUMP JUMPDEST PUSH1 0x40 MLOAD PUSH2 0x14B SWAP2 SWAP1 PUSH2 0x432 JUMP JUMPDEST PUSH1 0x40 MLOAD DUP1 SWAP2 SUB SWAP1 RETURN JUMPDEST PUSH1 0x0 DUP1 SLOAD PUSH2 0x161 SWAP1 PUSH2 0x4B0 JUMP JUMPDEST DUP1 PUSH1 0x1F ADD PUSH1 0x20 DUP1 SWAP2 DIV MUL PUSH1 0x20 ADD PUSH1 0x40 MLOAD SWAP1 DUP2 ADD PUSH1 0x40 MSTORE DUP1 SWAP3 SWAP2 SWAP1 DUP2 DUP2 MSTORE PUSH1 0x20 ADD DUP3 DUP1 SLOAD PUSH2 0x18D SWAP1 PUSH2 0x4B0 JUMP JUMPDEST DUP1 ISZERO PUSH2 0x1DA JUMPI DUP1 PUSH1 0x1F LT PUSH2 0x1AF JUMPI PUSH2 0x100 DUP1 DUP4 SLOAD DIV MUL DUP4 MSTORE SWAP2 PUSH1 0x20 ADD SWAP2 PUSH2 0x1DA JUMP JUMPDEST DUP3 ADD SWAP2 SWAP1 PUSH1 0x0 MSTORE PUSH1 0x20 PUSH1 0x0 KECCAK256 SWAP1 JUMPDEST DUP2 SLOAD DUP2 MSTORE SWAP1 PUSH1 0x1 ADD SWAP1 PUSH1 0x20 ADD DUP1 DUP4 GT PUSH2 0x1BD JUMPI DUP3 SWAP1 SUB PUSH1 0x1F AND DUP3 ADD SWAP2 JUMPDEST POP POP POP POP POP DUP2 JUMP JUMPDEST PUSH1 0x3 SLOAD DUP2 JUMP JUMPDEST PUSH1 0x7 DUP1 SLOAD PUSH2 0x1F5 SWAP1 PUSH2 0x4B0 JUMP JUMPDEST DUP1 PUSH1 0x1F ADD PUSH1 0x20 DUP1 SWAP2 DIV MUL PUSH1 0x20 ADD PUSH1 0x40 MLOAD SWAP1 DUP2 ADD PUSH1 0x40 MSTORE DUP1 SWAP3 SWAP2 SWAP1 DUP2 DUP2 MSTORE PUSH1 0x20 ADD DUP3 DUP1 SLOAD PUSH2 0x221 SWAP1 PUSH2 0x4B0 JUMP JUMPDEST DUP1 ISZERO PUSH2 0x26E JUMPI DUP1 PUSH1 0x1F LT PUSH2 0x243 JUMPI PUSH2 0x100 DUP1 DUP4 SLOAD DIV MUL DUP4 MSTORE SWAP2 PUSH1 0x20 ADD SWAP2 PUSH2 0x26E JUMP JUMPDEST DUP3 ADD SWAP2 SWAP1 PUSH1 0x0 MSTORE PUSH1 0x20 PUSH1 0x0 KECCAK256 SWAP1 JUMPDEST DUP2 SLOAD DUP2 MSTORE SWAP1 PUSH1 0x1 ADD SWAP1 PUSH1 0x20 ADD DUP1 DUP4 GT PUSH2 0x251 JUMPI DUP3 SWAP1 SUB PUSH1 0x1F AND DUP3 ADD SWAP2 JUMPDEST POP POP POP POP POP DUP2 JUMP JUMPDEST PUSH1 0x6 SLOAD DUP2 JUMP JUMPDEST PUSH1 0x5 DUP1 SLOAD PUSH2 0x289 SWAP1 PUSH2 0x4B0 JUMP JUMPDEST DUP1 PUSH1 0x1F ADD PUSH1 0x20 DUP1 SWAP2 DIV MUL PUSH1 0x20 ADD PUSH1 0x40 MLOAD SWAP1 DUP2 ADD PUSH1 0x40 MSTORE DUP1 SWAP3 SWAP2 SWAP1 DUP2 DUP2 MSTORE PUSH1 0x20 ADD DUP3 DUP1 SLOAD PUSH2 0x2B5 SWAP1 PUSH2 0x4B0 JUMP JUMPDEST DUP1 ISZERO PUSH2 0x302 JUMPI DUP1 PUSH1 0x1F LT PUSH2 0x2D7 JUMPI PUSH2 0x100 DUP1 DUP4 SLOAD DIV MUL DUP4 MSTORE SWAP2 PUSH1 0x20 ADD SWAP2 PUSH2 0x302 JUMP JUMPDEST DUP3 ADD SWAP2 SWAP1 PUSH1 0x0 MSTORE PUSH1 0x20 PUSH1 0x0 KECCAK256 SWAP1 JUMPDEST DUP2 SLOAD DUP2 MSTORE SWAP1 PUSH1 0x1 ADD SWAP1 PUSH1 0x20 ADD DUP1 DUP4 GT PUSH2 0x2E5 JUMPI DUP3 SWAP1 SUB PUSH1 0x1F AND DUP3 ADD SWAP2 JUMPDEST POP POP POP POP POP DUP2 JUMP JUMPDEST PUSH1 0x1 DUP1 SLOAD PUSH2 0x317 SWAP1 PUSH2 0x4B0 JUMP JUMPDEST DUP1 PUSH1 0x1F ADD PUSH1 0x20 DUP1 SWAP2 DIV MUL PUSH1 0x20 ADD PUSH1 0x40 MLOAD SWAP1 DUP2 ADD PUSH1 0x40 MSTORE DUP1 SWAP3 SWAP2 SWAP1 DUP2 DUP2 MSTORE PUSH1 0x20 ADD DUP3 DUP1 SLOAD PUSH2 0x343 SWAP1 PUSH2 0x4B0 JUMP JUMPDEST DUP1 ISZERO PUSH2 0x390 JUMPI DUP1 PUSH1 0x1F LT PUSH2 0x365 JUMPI PUSH2 0x100 DUP1 DUP4 SLOAD DIV MUL DUP4 MSTORE SWAP2 PUSH1 0x20 ADD SWAP2 PUSH2 0x390 JUMP JUMPDEST DUP3 ADD SWAP2 SWAP1 PUSH1 0x0 MSTORE PUSH1 0x20 PUSH1 0x0 KECCAK256 SWAP1 JUMPDEST DUP2 SLOAD DUP2 MSTORE SWAP1 PUSH1 0x1 ADD SWAP1 PUSH1 0x20 ADD DUP1 DUP4 GT PUSH2 0x373 JUMPI DUP3 SWAP1 SUB PUSH1 0x1F AND DUP3 ADD SWAP2 JUMPDEST POP POP POP POP POP DUP2 JUMP JUMPDEST PUSH1 0x4 SLOAD DUP2 JUMP JUMPDEST PUSH2 0x3A7 DUP2 PUSH2 0x469 JUMP JUMPDEST DUP3 MSTORE POP POP JUMP JUMPDEST PUSH1 0x0 PUSH2 0x3B8 DUP3 PUSH2 0x44D JUMP JUMPDEST PUSH2 0x3C2 DUP2 DUP6 PUSH2 0x458 JUMP JUMPDEST SWAP4 POP PUSH2 0x3D2 DUP2 DUP6 PUSH1 0x20 DUP7 ADD PUSH2 0x47D JUMP JUMPDEST PUSH2 0x3DB DUP2 PUSH2 0x511 JUMP JUMPDEST DUP5 ADD SWAP2 POP POP SWAP3 SWAP2 POP POP JUMP JUMPDEST PUSH2 0x3EF DUP2 PUSH2 0x473 JUMP JUMPDEST DUP3 MSTORE POP POP JUMP JUMPDEST PUSH1 0x0 PUSH1 0x20 DUP3 ADD SWAP1 POP PUSH2 0x40A PUSH1 0x0 DUP4 ADD DUP5 PUSH2 0x39E JUMP JUMPDEST SWAP3 SWAP2 POP POP JUMP JUMPDEST PUSH1 0x0 PUSH1 0x20 DUP3 ADD SWAP1 POP DUP2 DUP2 SUB PUSH1 0x0 DUP4 ADD MSTORE PUSH2 0x42A DUP2 DUP5 PUSH2 0x3AD JUMP JUMPDEST SWAP1 POP SWAP3 SWAP2 POP POP JUMP JUMPDEST PUSH1 0x0 PUSH1 0x20 DUP3 ADD SWAP1 POP PUSH2 0x447 PUSH1 0x0 DUP4 ADD DUP5 PUSH2 0x3E6 JUMP JUMPDEST SWAP3 SWAP2 POP POP JUMP JUMPDEST PUSH1 0x0 DUP2 MLOAD SWAP1 POP SWAP2 SWAP1 POP JUMP JUMPDEST PUSH1 0x0 DUP3 DUP3 MSTORE PUSH1 0x20 DUP3 ADD SWAP1 POP SWAP3 SWAP2 POP POP JUMP JUMPDEST PUSH1 0x0 DUP2 SWAP1 POP SWAP2 SWAP1 POP JUMP JUMPDEST PUSH1 0x0 DUP2 SWAP1 POP SWAP2 SWAP1 POP JUMP JUMPDEST PUSH1 0x0 JUMPDEST DUP4 DUP2 LT ISZERO PUSH2 0x49B JUMPI DUP1 DUP3 ADD MLOAD DUP2 DUP5 ADD MSTORE PUSH1 0x20 DUP2 ADD SWAP1 POP PUSH2 0x480 JUMP JUMPDEST DUP4 DUP2 GT ISZERO PUSH2 0x4AA JUMPI PUSH1 0x0 DUP5 DUP5 ADD MSTORE JUMPDEST POP POP POP POP JUMP JUMPDEST PUSH1 0x0 PUSH1 0x2 DUP3 DIV SWAP1 POP PUSH1 0x1 DUP3 AND DUP1 PUSH2 0x4C8 JUMPI PUSH1 0x7F DUP3 AND SWAP2 POP JUMPDEST PUSH1 0x20 DUP3 LT DUP2 EQ ISZERO PUSH2 0x4DC JUMPI PUSH2 0x4DB PUSH2 0x4E2 JUMP JUMPDEST JUMPDEST POP SWAP2 SWAP1 POP JUMP JUMPDEST PUSH32 0x4E487B7100000000000000000000000000000000000000000000000000000000 PUSH1 0x0 MSTORE PUSH1 0x22 PUSH1 0x4 MSTORE PUSH1 0x24 PUSH1 0x0 REVERT JUMPDEST PUSH1 0x0 PUSH1 0x1F NOT PUSH1 0x1F DUP4 ADD AND SWAP1 POP SWAP2 SWAP1 POP JUMP INVALID LOG2 PUSH5 0x6970667358 0x22 SLT KECCAK256 0x1F RETURN NOT 0xE8 0xEC 0xC7 0xBF DIFFICULTY SWAP10 0xF6 POP 0xD5 0xD9 LOG2 PUSH11 0x3ED16A2D4C6F4A286FEB39 0xAE DUP2 0x4D 0xC2 0xC5 0xB4 PUSH5 0x736F6C6343 STOP ADDMOD SMOD STOP CALLER "
				},
				"gasEstimates": {
					"creation": {
						"codeDepositCost": "273600",
						"executionCost": "infinite",
						"totalCost": "infinite"
					},
					"external": {
						"a()": "2452",
						"flag()": "infinite",
						"name()": "infinite",
						"president()": "infinite",
						"primeMinister()": "infinite",
						"sqkm()": "2495",
						"sqm()": "2429"
					}
				},
				"methodIdentifiers": {
					"a()": "0dbe671f",
					"flag()": "890eba68",
					"name()": "06fdde03",
					"president()": "324a1376",
					"primeMinister()": "5eee812c",
					"sqkm()": "f6ab7520",
					"sqm()": "59774655"
				}
			},
			"userdoc": {
				"kind": "user",
				"methods": {},
				"version": 1
			}
		}
	}
}