{
	"training/contracts/OnetoAnother.sol": {
		"Toyota": {
			"abi": [
				{
					"inputs": [],
					"name": "change",
					"outputs": [],
					"stateMutability": "nonpayable",
					"type": "function"
				},
				{
					"inputs": [],
					"name": "deploy",
					"outputs": [],
					"stateMutability": "nonpayable",
					"type": "function"
				},
				{
					"inputs": [],
					"name": "newCar",
					"outputs": [
						{
							"internalType": "contract Car",
							"name": "",
							"type": "address"
						}
					],
					"stateMutability": "view",
					"type": "function"
				}
			],
			"devdoc": {
				"kind": "dev",
				"methods": {},
				"version": 1
			},
			"evm": {
				"assembly": "    /* \"training/contracts/OnetoAnother.sol\":70:519  contract Toyota{... */\n  mstore(0x40, 0x80)\n  callvalue\n  dup1\n  iszero\n  tag_1\n  jumpi\n  0x00\n  dup1\n  revert\ntag_1:\n  pop\n  dataSize(sub_0)\n  dup1\n  dataOffset(sub_0)\n  0x00\n  codecopy\n  0x00\n  return\nstop\n\nsub_0: assembly {\n        /* \"training/contracts/OnetoAnother.sol\":70:519  contract Toyota{... */\n      mstore(0x40, 0x80)\n      callvalue\n      dup1\n      iszero\n      tag_1\n      jumpi\n      0x00\n      dup1\n      revert\n    tag_1:\n      pop\n      jumpi(tag_2, lt(calldatasize, 0x04))\n      shr(0xe0, calldataload(0x00))\n      dup1\n      0x2ee79ded\n      eq\n      tag_3\n      jumpi\n      dup1\n      0x775c300c\n      eq\n      tag_4\n      jumpi\n      dup1\n      0xfdb9c793\n      eq\n      tag_5\n      jumpi\n    tag_2:\n      0x00\n      dup1\n      revert\n        /* \"training/contracts/OnetoAnother.sol\":318:440  function change() public{... */\n    tag_3:\n      tag_6\n      tag_7\n      jump\t// in\n    tag_6:\n      stop\n        /* \"training/contracts/OnetoAnother.sol\":114:240  function deploy() public{... */\n    tag_4:\n      tag_8\n      tag_9\n      jump\t// in\n    tag_8:\n      stop\n        /* \"training/contracts/OnetoAnother.sol\":91:108  Car public newCar */\n    tag_5:\n      tag_10\n      tag_11\n      jump\t// in\n    tag_10:\n      mload(0x40)\n      tag_12\n      swap2\n      swap1\n      tag_13\n      jump\t// in\n    tag_12:\n      mload(0x40)\n      dup1\n      swap2\n      sub\n      swap1\n      return\n        /* \"training/contracts/OnetoAnother.sol\":318:440  function change() public{... */\n    tag_7:\n        /* \"training/contracts/OnetoAnother.sol\":352:358  newCar */\n      0x00\n      dup1\n      sload\n      swap1\n      0x0100\n      exp\n      swap1\n      div\n      0xffffffffffffffffffffffffffffffffffffffff\n      and\n        /* \"training/contracts/OnetoAnother.sol\":352:370  newCar.changecolor */\n      0xffffffffffffffffffffffffffffffffffffffff\n      and\n      0x238bb05d\n        /* \"training/contracts/OnetoAnother.sol\":352:377  newCar.changecolor(\"red\") */\n      mload(0x40)\n      dup2\n      0xffffffff\n      and\n      0xe0\n      shl\n      dup2\n      mstore\n      0x04\n      add\n      tag_15\n      swap1\n      tag_16\n      jump\t// in\n    tag_15:\n      0x00\n      mload(0x40)\n      dup1\n      dup4\n      sub\n      dup2\n      0x00\n      dup8\n      dup1\n      extcodesize\n      iszero\n      dup1\n      iszero\n      tag_17\n      jumpi\n      0x00\n      dup1\n      revert\n    tag_17:\n      pop\n      gas\n      call\n      iszero\n      dup1\n      iszero\n      tag_19\n      jumpi\n      returndatasize\n      0x00\n      dup1\n      returndatacopy\n      revert(0x00, returndatasize)\n    tag_19:\n      pop\n      pop\n      pop\n      pop\n        /* \"training/contracts/OnetoAnother.sol\":318:440  function change() public{... */\n      jump\t// out\n        /* \"training/contracts/OnetoAnother.sol\":114:240  function deploy() public{... */\n    tag_9:\n        /* \"training/contracts/OnetoAnother.sol\":157:172  new Car(\"blue\") */\n      mload(0x40)\n      tag_21\n      swap1\n      tag_22\n      jump\t// in\n    tag_21:\n      tag_23\n      swap1\n      tag_24\n      jump\t// in\n    tag_23:\n      mload(0x40)\n      dup1\n      swap2\n      sub\n      swap1\n      0x00\n      create\n      dup1\n      iszero\n      dup1\n      iszero\n      tag_25\n      jumpi\n      returndatasize\n      0x00\n      dup1\n      returndatacopy\n      revert(0x00, returndatasize)\n    tag_25:\n      pop\n        /* \"training/contracts/OnetoAnother.sol\":148:154  newCar */\n      0x00\n      dup1\n        /* \"training/contracts/OnetoAnother.sol\":148:172  newCar = new Car(\"blue\") */\n      0x0100\n      exp\n      dup2\n      sload\n      dup2\n      0xffffffffffffffffffffffffffffffffffffffff\n      mul\n      not\n      and\n      swap1\n      dup4\n      0xffffffffffffffffffffffffffffffffffffffff\n      and\n      mul\n      or\n      swap1\n      sstore\n      pop\n        /* \"training/contracts/OnetoAnother.sol\":114:240  function deploy() public{... */\n      jump\t// out\n        /* \"training/contracts/OnetoAnother.sol\":91:108  Car public newCar */\n    tag_11:\n      0x00\n      dup1\n      sload\n      swap1\n      0x0100\n      exp\n      swap1\n      div\n      0xffffffffffffffffffffffffffffffffffffffff\n      and\n      dup2\n      jump\t// out\n    tag_22:\n      dataSize(sub_0)\n      dup1\n      dataOffset(sub_0)\n      dup4\n      codecopy\n      add\n      swap1\n      jump\t// out\n        /* \"#utility.yul\":7:133   */\n    tag_26:\n        /* \"#utility.yul\":44:51   */\n      0x00\n        /* \"#utility.yul\":84:126   */\n      0xffffffffffffffffffffffffffffffffffffffff\n        /* \"#utility.yul\":77:82   */\n      dup3\n        /* \"#utility.yul\":73:127   */\n      and\n        /* \"#utility.yul\":62:127   */\n      swap1\n      pop\n        /* \"#utility.yul\":7:133   */\n      swap2\n      swap1\n      pop\n      jump\t// out\n        /* \"#utility.yul\":139:199   */\n    tag_27:\n        /* \"#utility.yul\":167:170   */\n      0x00\n        /* \"#utility.yul\":188:193   */\n      dup2\n        /* \"#utility.yul\":181:193   */\n      swap1\n      pop\n        /* \"#utility.yul\":139:199   */\n      swap2\n      swap1\n      pop\n      jump\t// out\n        /* \"#utility.yul\":205:347   */\n    tag_28:\n        /* \"#utility.yul\":255:264   */\n      0x00\n        /* \"#utility.yul\":288:341   */\n      tag_41\n        /* \"#utility.yul\":306:340   */\n      tag_42\n        /* \"#utility.yul\":315:339   */\n      tag_43\n        /* \"#utility.yul\":333:338   */\n      dup5\n        /* \"#utility.yul\":315:339   */\n      tag_26\n      jump\t// in\n    tag_43:\n        /* \"#utility.yul\":306:340   */\n      tag_27\n      jump\t// in\n    tag_42:\n        /* \"#utility.yul\":288:341   */\n      tag_26\n      jump\t// in\n    tag_41:\n        /* \"#utility.yul\":275:341   */\n      swap1\n      pop\n        /* \"#utility.yul\":205:347   */\n      swap2\n      swap1\n      pop\n      jump\t// out\n        /* \"#utility.yul\":353:479   */\n    tag_29:\n        /* \"#utility.yul\":403:412   */\n      0x00\n        /* \"#utility.yul\":436:473   */\n      tag_45\n        /* \"#utility.yul\":467:472   */\n      dup3\n        /* \"#utility.yul\":436:473   */\n      tag_28\n      jump\t// in\n    tag_45:\n        /* \"#utility.yul\":423:473   */\n      swap1\n      pop\n        /* \"#utility.yul\":353:479   */\n      swap2\n      swap1\n      pop\n      jump\t// out\n        /* \"#utility.yul\":485:621   */\n    tag_30:\n        /* \"#utility.yul\":545:554   */\n      0x00\n        /* \"#utility.yul\":578:615   */\n      tag_47\n        /* \"#utility.yul\":609:614   */\n      dup3\n        /* \"#utility.yul\":578:615   */\n      tag_29\n      jump\t// in\n    tag_47:\n        /* \"#utility.yul\":565:615   */\n      swap1\n      pop\n        /* \"#utility.yul\":485:621   */\n      swap2\n      swap1\n      pop\n      jump\t// out\n        /* \"#utility.yul\":627:778   */\n    tag_31:\n        /* \"#utility.yul\":724:771   */\n      tag_49\n        /* \"#utility.yul\":765:770   */\n      dup2\n        /* \"#utility.yul\":724:771   */\n      tag_30\n      jump\t// in\n    tag_49:\n        /* \"#utility.yul\":719:722   */\n      dup3\n        /* \"#utility.yul\":712:772   */\n      mstore\n        /* \"#utility.yul\":627:778   */\n      pop\n      pop\n      jump\t// out\n        /* \"#utility.yul\":784:1026   */\n    tag_13:\n        /* \"#utility.yul\":887:891   */\n      0x00\n        /* \"#utility.yul\":925:927   */\n      0x20\n        /* \"#utility.yul\":914:923   */\n      dup3\n        /* \"#utility.yul\":910:928   */\n      add\n        /* \"#utility.yul\":902:928   */\n      swap1\n      pop\n        /* \"#utility.yul\":938:1019   */\n      tag_51\n        /* \"#utility.yul\":1016:1017   */\n      0x00\n        /* \"#utility.yul\":1005:1014   */\n      dup4\n        /* \"#utility.yul\":1001:1018   */\n      add\n        /* \"#utility.yul\":992:998   */\n      dup5\n        /* \"#utility.yul\":938:1019   */\n      tag_31\n      jump\t// in\n    tag_51:\n        /* \"#utility.yul\":784:1026   */\n      swap3\n      swap2\n      pop\n      pop\n      jump\t// out\n        /* \"#utility.yul\":1032:1201   */\n    tag_32:\n        /* \"#utility.yul\":1116:1127   */\n      0x00\n        /* \"#utility.yul\":1150:1156   */\n      dup3\n        /* \"#utility.yul\":1145:1148   */\n      dup3\n        /* \"#utility.yul\":1138:1157   */\n      mstore\n        /* \"#utility.yul\":1190:1194   */\n      0x20\n        /* \"#utility.yul\":1185:1188   */\n      dup3\n        /* \"#utility.yul\":1181:1195   */\n      add\n        /* \"#utility.yul\":1166:1195   */\n      swap1\n      pop\n        /* \"#utility.yul\":1032:1201   */\n      swap3\n      swap2\n      pop\n      pop\n      jump\t// out\n        /* \"#utility.yul\":1207:1360   */\n    tag_33:\n        /* \"#utility.yul\":1347:1352   */\n      0x7265640000000000000000000000000000000000000000000000000000000000\n        /* \"#utility.yul\":1343:1344   */\n      0x00\n        /* \"#utility.yul\":1335:1341   */\n      dup3\n        /* \"#utility.yul\":1331:1345   */\n      add\n        /* \"#utility.yul\":1324:1353   */\n      mstore\n        /* \"#utility.yul\":1207:1360   */\n      pop\n      jump\t// out\n        /* \"#utility.yul\":1366:1731   */\n    tag_34:\n        /* \"#utility.yul\":1508:1511   */\n      0x00\n        /* \"#utility.yul\":1529:1595   */\n      tag_55\n        /* \"#utility.yul\":1593:1594   */\n      0x03\n        /* \"#utility.yul\":1588:1591   */\n      dup4\n        /* \"#utility.yul\":1529:1595   */\n      tag_32\n      jump\t// in\n    tag_55:\n        /* \"#utility.yul\":1522:1595   */\n      swap2\n      pop\n        /* \"#utility.yul\":1604:1697   */\n      tag_56\n        /* \"#utility.yul\":1693:1696   */\n      dup3\n        /* \"#utility.yul\":1604:1697   */\n      tag_33\n      jump\t// in\n    tag_56:\n        /* \"#utility.yul\":1722:1724   */\n      0x20\n        /* \"#utility.yul\":1717:1720   */\n      dup3\n        /* \"#utility.yul\":1713:1725   */\n      add\n        /* \"#utility.yul\":1706:1725   */\n      swap1\n      pop\n        /* \"#utility.yul\":1366:1731   */\n      swap2\n      swap1\n      pop\n      jump\t// out\n        /* \"#utility.yul\":1737:2156   */\n    tag_16:\n        /* \"#utility.yul\":1903:1907   */\n      0x00\n        /* \"#utility.yul\":1941:1943   */\n      0x20\n        /* \"#utility.yul\":1930:1939   */\n      dup3\n        /* \"#utility.yul\":1926:1944   */\n      add\n        /* \"#utility.yul\":1918:1944   */\n      swap1\n      pop\n        /* \"#utility.yul\":1990:1999   */\n      dup2\n        /* \"#utility.yul\":1984:1988   */\n      dup2\n        /* \"#utility.yul\":1980:2000   */\n      sub\n        /* \"#utility.yul\":1976:1977   */\n      0x00\n        /* \"#utility.yul\":1965:1974   */\n      dup4\n        /* \"#utility.yul\":1961:1978   */\n      add\n        /* \"#utility.yul\":1954:2001   */\n      mstore\n        /* \"#utility.yul\":2018:2149   */\n      tag_58\n        /* \"#utility.yul\":2144:2148   */\n      dup2\n        /* \"#utility.yul\":2018:2149   */\n      tag_34\n      jump\t// in\n    tag_58:\n        /* \"#utility.yul\":2010:2149   */\n      swap1\n      pop\n        /* \"#utility.yul\":1737:2156   */\n      swap2\n      swap1\n      pop\n      jump\t// out\n        /* \"#utility.yul\":2162:2316   */\n    tag_35:\n        /* \"#utility.yul\":2302:2308   */\n      0x626c756500000000000000000000000000000000000000000000000000000000\n        /* \"#utility.yul\":2298:2299   */\n      0x00\n        /* \"#utility.yul\":2290:2296   */\n      dup3\n        /* \"#utility.yul\":2286:2300   */\n      add\n        /* \"#utility.yul\":2279:2309   */\n      mstore\n        /* \"#utility.yul\":2162:2316   */\n      pop\n      jump\t// out\n        /* \"#utility.yul\":2322:2687   */\n    tag_36:\n        /* \"#utility.yul\":2464:2467   */\n      0x00\n        /* \"#utility.yul\":2485:2551   */\n      tag_61\n        /* \"#utility.yul\":2549:2550   */\n      0x04\n        /* \"#utility.yul\":2544:2547   */\n      dup4\n        /* \"#utility.yul\":2485:2551   */\n      tag_32\n      jump\t// in\n    tag_61:\n        /* \"#utility.yul\":2478:2551   */\n      swap2\n      pop\n        /* \"#utility.yul\":2560:2653   */\n      tag_62\n        /* \"#utility.yul\":2649:2652   */\n      dup3\n        /* \"#utility.yul\":2560:2653   */\n      tag_35\n      jump\t// in\n    tag_62:\n        /* \"#utility.yul\":2678:2680   */\n      0x20\n        /* \"#utility.yul\":2673:2676   */\n      dup3\n        /* \"#utility.yul\":2669:2681   */\n      add\n        /* \"#utility.yul\":2662:2681   */\n      swap1\n      pop\n        /* \"#utility.yul\":2322:2687   */\n      swap2\n      swap1\n      pop\n      jump\t// out\n        /* \"#utility.yul\":2693:3112   */\n    tag_24:\n        /* \"#utility.yul\":2859:2863   */\n      0x00\n        /* \"#utility.yul\":2897:2899   */\n      0x20\n        /* \"#utility.yul\":2886:2895   */\n      dup3\n        /* \"#utility.yul\":2882:2900   */\n      add\n        /* \"#utility.yul\":2874:2900   */\n      swap1\n      pop\n        /* \"#utility.yul\":2946:2955   */\n      dup2\n        /* \"#utility.yul\":2940:2944   */\n      dup2\n        /* \"#utility.yul\":2936:2956   */\n      sub\n        /* \"#utility.yul\":2932:2933   */\n      0x00\n        /* \"#utility.yul\":2921:2930   */\n      dup4\n        /* \"#utility.yul\":2917:2934   */\n      add\n        /* \"#utility.yul\":2910:2957   */\n      mstore\n        /* \"#utility.yul\":2974:3105   */\n      tag_64\n        /* \"#utility.yul\":3100:3104   */\n      dup2\n        /* \"#utility.yul\":2974:3105   */\n      tag_36\n      jump\t// in\n    tag_64:\n        /* \"#utility.yul\":2966:3105   */\n      swap1\n      pop\n        /* \"#utility.yul\":2693:3112   */\n      swap2\n      swap1\n      pop\n      jump\t// out\n    stop\n\n    sub_0: assembly {\n            /* \"training/contracts/OnetoAnother.sol\":521:1072  contract Car{... */\n          mstore(0x40, 0x80)\n            /* \"training/contracts/OnetoAnother.sol\":564:762  constructor(string memory _color) public{   //deploy edildiginge bu contract cagirilir burada... */\n          callvalue\n          dup1\n          iszero\n          tag_1\n          jumpi\n          0x00\n          dup1\n          revert\n        tag_1:\n          pop\n          mload(0x40)\n          sub(codesize, bytecodeSize)\n          dup1\n          bytecodeSize\n          dup4\n          codecopy\n          dup2\n          dup2\n          add\n          0x40\n          mstore\n          dup2\n          add\n          swap1\n          tag_2\n          swap2\n          swap1\n          tag_3\n          jump\t// in\n        tag_2:\n            /* \"training/contracts/OnetoAnother.sol\":672:678  _color */\n          dup1\n            /* \"training/contracts/OnetoAnother.sol\":666:671  color */\n          0x00\n            /* \"training/contracts/OnetoAnother.sol\":666:678  color=_color */\n          swap1\n          dup1\n          mload\n          swap1\n          0x20\n          add\n          swap1\n          tag_6\n          swap3\n          swap2\n          swap1\n          tag_7\n          jump\t// in\n        tag_6:\n          pop\n            /* \"training/contracts/OnetoAnother.sol\":564:762  constructor(string memory _color) public{   //deploy edildiginge bu contract cagirilir burada... */\n          pop\n            /* \"training/contracts/OnetoAnother.sol\":521:1072  contract Car{... */\n          jump(tag_8)\n        tag_7:\n          dup3\n          dup1\n          sload\n          tag_9\n          swap1\n          tag_10\n          jump\t// in\n        tag_9:\n          swap1\n          0x00\n          mstore\n          keccak256(0x00, 0x20)\n          swap1\n          0x1f\n          add\n          0x20\n          swap1\n          div\n          dup2\n          add\n          swap3\n          dup3\n          tag_12\n          jumpi\n          0x00\n          dup6\n          sstore\n          jump(tag_11)\n        tag_12:\n          dup3\n          0x1f\n          lt\n          tag_13\n          jumpi\n          dup1\n          mload\n          not(0xff)\n          and\n          dup4\n          dup1\n          add\n          or\n          dup6\n          sstore\n          jump(tag_11)\n        tag_13:\n          dup3\n          dup1\n          add\n          0x01\n          add\n          dup6\n          sstore\n          dup3\n          iszero\n          tag_11\n          jumpi\n          swap2\n          dup3\n          add\n        tag_14:\n          dup3\n          dup2\n          gt\n          iszero\n          tag_15\n          jumpi\n          dup3\n          mload\n          dup3\n          sstore\n          swap2\n          0x20\n          add\n          swap2\n          swap1\n          0x01\n          add\n          swap1\n          jump(tag_14)\n        tag_15:\n        tag_11:\n          pop\n          swap1\n          pop\n          tag_16\n          swap2\n          swap1\n          tag_17\n          jump\t// in\n        tag_16:\n          pop\n          swap1\n          jump\t// out\n        tag_17:\n        tag_18:\n          dup1\n          dup3\n          gt\n          iszero\n          tag_19\n          jumpi\n          0x00\n          dup2\n          0x00\n          swap1\n          sstore\n          pop\n          0x01\n          add\n          jump(tag_18)\n        tag_19:\n          pop\n          swap1\n          jump\t// out\n            /* \"#utility.yul\":7:82   */\n        tag_20:\n            /* \"#utility.yul\":40:46   */\n          0x00\n            /* \"#utility.yul\":73:75   */\n          0x40\n            /* \"#utility.yul\":67:76   */\n          mload\n            /* \"#utility.yul\":57:76   */\n          swap1\n          pop\n            /* \"#utility.yul\":7:82   */\n          swap1\n          jump\t// out\n            /* \"#utility.yul\":88:205   */\n        tag_21:\n            /* \"#utility.yul\":197:198   */\n          0x00\n            /* \"#utility.yul\":194:195   */\n          dup1\n            /* \"#utility.yul\":187:199   */\n          revert\n            /* \"#utility.yul\":211:328   */\n        tag_22:\n            /* \"#utility.yul\":320:321   */\n          0x00\n            /* \"#utility.yul\":317:318   */\n          dup1\n            /* \"#utility.yul\":310:322   */\n          revert\n            /* \"#utility.yul\":334:451   */\n        tag_23:\n            /* \"#utility.yul\":443:444   */\n          0x00\n            /* \"#utility.yul\":440:441   */\n          dup1\n            /* \"#utility.yul\":433:445   */\n          revert\n            /* \"#utility.yul\":457:574   */\n        tag_24:\n            /* \"#utility.yul\":566:567   */\n          0x00\n            /* \"#utility.yul\":563:564   */\n          dup1\n            /* \"#utility.yul\":556:568   */\n          revert\n            /* \"#utility.yul\":580:682   */\n        tag_25:\n            /* \"#utility.yul\":621:627   */\n          0x00\n            /* \"#utility.yul\":672:674   */\n          0x1f\n            /* \"#utility.yul\":668:675   */\n          not\n            /* \"#utility.yul\":663:665   */\n          0x1f\n            /* \"#utility.yul\":656:661   */\n          dup4\n            /* \"#utility.yul\":652:666   */\n          add\n            /* \"#utility.yul\":648:676   */\n          and\n            /* \"#utility.yul\":638:676   */\n          swap1\n          pop\n            /* \"#utility.yul\":580:682   */\n          swap2\n          swap1\n          pop\n          jump\t// out\n            /* \"#utility.yul\":688:868   */\n        tag_26:\n            /* \"#utility.yul\":736:813   */\n          0x4e487b7100000000000000000000000000000000000000000000000000000000\n            /* \"#utility.yul\":733:734   */\n          0x00\n            /* \"#utility.yul\":726:814   */\n          mstore\n            /* \"#utility.yul\":833:837   */\n          0x41\n            /* \"#utility.yul\":830:831   */\n          0x04\n            /* \"#utility.yul\":823:838   */\n          mstore\n            /* \"#utility.yul\":857:861   */\n          0x24\n            /* \"#utility.yul\":854:855   */\n          0x00\n            /* \"#utility.yul\":847:862   */\n          revert\n            /* \"#utility.yul\":874:1155   */\n        tag_27:\n            /* \"#utility.yul\":957:984   */\n          tag_43\n            /* \"#utility.yul\":979:983   */\n          dup3\n            /* \"#utility.yul\":957:984   */\n          tag_25\n          jump\t// in\n        tag_43:\n            /* \"#utility.yul\":949:955   */\n          dup2\n            /* \"#utility.yul\":945:985   */\n          add\n            /* \"#utility.yul\":1087:1093   */\n          dup2\n            /* \"#utility.yul\":1075:1085   */\n          dup2\n            /* \"#utility.yul\":1072:1094   */\n          lt\n            /* \"#utility.yul\":1051:1069   */\n          0xffffffffffffffff\n            /* \"#utility.yul\":1039:1049   */\n          dup3\n            /* \"#utility.yul\":1036:1070   */\n          gt\n            /* \"#utility.yul\":1033:1095   */\n          or\n            /* \"#utility.yul\":1030:1118   */\n          iszero\n          tag_44\n          jumpi\n            /* \"#utility.yul\":1098:1116   */\n          tag_45\n          tag_26\n          jump\t// in\n        tag_45:\n            /* \"#utility.yul\":1030:1118   */\n        tag_44:\n            /* \"#utility.yul\":1138:1148   */\n          dup1\n            /* \"#utility.yul\":1134:1136   */\n          0x40\n            /* \"#utility.yul\":1127:1149   */\n          mstore\n            /* \"#utility.yul\":917:1155   */\n          pop\n            /* \"#utility.yul\":874:1155   */\n          pop\n          pop\n          jump\t// out\n            /* \"#utility.yul\":1161:1290   */\n        tag_28:\n            /* \"#utility.yul\":1195:1201   */\n          0x00\n            /* \"#utility.yul\":1222:1242   */\n          tag_47\n          tag_20\n          jump\t// in\n        tag_47:\n            /* \"#utility.yul\":1212:1242   */\n          swap1\n          pop\n            /* \"#utility.yul\":1251:1284   */\n          tag_48\n            /* \"#utility.yul\":1279:1283   */\n          dup3\n            /* \"#utility.yul\":1271:1277   */\n          dup3\n            /* \"#utility.yul\":1251:1284   */\n          tag_27\n          jump\t// in\n        tag_48:\n            /* \"#utility.yul\":1161:1290   */\n          swap2\n          swap1\n          pop\n          jump\t// out\n            /* \"#utility.yul\":1296:1604   */\n        tag_29:\n            /* \"#utility.yul\":1358:1362   */\n          0x00\n            /* \"#utility.yul\":1448:1466   */\n          0xffffffffffffffff\n            /* \"#utility.yul\":1440:1446   */\n          dup3\n            /* \"#utility.yul\":1437:1467   */\n          gt\n            /* \"#utility.yul\":1434:1490   */\n          iszero\n          tag_50\n          jumpi\n            /* \"#utility.yul\":1470:1488   */\n          tag_51\n          tag_26\n          jump\t// in\n        tag_51:\n            /* \"#utility.yul\":1434:1490   */\n        tag_50:\n            /* \"#utility.yul\":1508:1537   */\n          tag_52\n            /* \"#utility.yul\":1530:1536   */\n          dup3\n            /* \"#utility.yul\":1508:1537   */\n          tag_25\n          jump\t// in\n        tag_52:\n            /* \"#utility.yul\":1500:1537   */\n          swap1\n          pop\n            /* \"#utility.yul\":1592:1596   */\n          0x20\n            /* \"#utility.yul\":1586:1590   */\n          dup2\n            /* \"#utility.yul\":1582:1597   */\n          add\n            /* \"#utility.yul\":1574:1597   */\n          swap1\n          pop\n            /* \"#utility.yul\":1296:1604   */\n          swap2\n          swap1\n          pop\n          jump\t// out\n            /* \"#utility.yul\":1610:1917   */\n        tag_30:\n            /* \"#utility.yul\":1678:1679   */\n          0x00\n            /* \"#utility.yul\":1688:1801   */\n        tag_54:\n            /* \"#utility.yul\":1702:1708   */\n          dup4\n            /* \"#utility.yul\":1699:1700   */\n          dup2\n            /* \"#utility.yul\":1696:1709   */\n          lt\n            /* \"#utility.yul\":1688:1801   */\n          iszero\n          tag_56\n          jumpi\n            /* \"#utility.yul\":1787:1788   */\n          dup1\n            /* \"#utility.yul\":1782:1785   */\n          dup3\n            /* \"#utility.yul\":1778:1789   */\n          add\n            /* \"#utility.yul\":1772:1790   */\n          mload\n            /* \"#utility.yul\":1768:1769   */\n          dup2\n            /* \"#utility.yul\":1763:1766   */\n          dup5\n            /* \"#utility.yul\":1759:1770   */\n          add\n            /* \"#utility.yul\":1752:1791   */\n          mstore\n            /* \"#utility.yul\":1724:1726   */\n          0x20\n            /* \"#utility.yul\":1721:1722   */\n          dup2\n            /* \"#utility.yul\":1717:1727   */\n          add\n            /* \"#utility.yul\":1712:1727   */\n          swap1\n          pop\n            /* \"#utility.yul\":1688:1801   */\n          jump(tag_54)\n        tag_56:\n            /* \"#utility.yul\":1819:1825   */\n          dup4\n            /* \"#utility.yul\":1816:1817   */\n          dup2\n            /* \"#utility.yul\":1813:1826   */\n          gt\n            /* \"#utility.yul\":1810:1911   */\n          iszero\n          tag_57\n          jumpi\n            /* \"#utility.yul\":1899:1900   */\n          0x00\n            /* \"#utility.yul\":1890:1896   */\n          dup5\n            /* \"#utility.yul\":1885:1888   */\n          dup5\n            /* \"#utility.yul\":1881:1897   */\n          add\n            /* \"#utility.yul\":1874:1901   */\n          mstore\n            /* \"#utility.yul\":1810:1911   */\n        tag_57:\n            /* \"#utility.yul\":1659:1917   */\n          pop\n            /* \"#utility.yul\":1610:1917   */\n          pop\n          pop\n          pop\n          jump\t// out\n            /* \"#utility.yul\":1923:2344   */\n        tag_31:\n            /* \"#utility.yul\":2012:2017   */\n          0x00\n            /* \"#utility.yul\":2037:2103   */\n          tag_59\n            /* \"#utility.yul\":2053:2102   */\n          tag_60\n            /* \"#utility.yul\":2095:2101   */\n          dup5\n            /* \"#utility.yul\":2053:2102   */\n          tag_29\n          jump\t// in\n        tag_60:\n            /* \"#utility.yul\":2037:2103   */\n          tag_28\n          jump\t// in\n        tag_59:\n            /* \"#utility.yul\":2028:2103   */\n          swap1\n          pop\n            /* \"#utility.yul\":2126:2132   */\n          dup3\n            /* \"#utility.yul\":2119:2124   */\n          dup2\n            /* \"#utility.yul\":2112:2133   */\n          mstore\n            /* \"#utility.yul\":2164:2168   */\n          0x20\n            /* \"#utility.yul\":2157:2162   */\n          dup2\n            /* \"#utility.yul\":2153:2169   */\n          add\n            /* \"#utility.yul\":2202:2205   */\n          dup5\n            /* \"#utility.yul\":2193:2199   */\n          dup5\n            /* \"#utility.yul\":2188:2191   */\n          dup5\n            /* \"#utility.yul\":2184:2200   */\n          add\n            /* \"#utility.yul\":2181:2206   */\n          gt\n            /* \"#utility.yul\":2178:2290   */\n          iszero\n          tag_61\n          jumpi\n            /* \"#utility.yul\":2209:2288   */\n          tag_62\n          tag_24\n          jump\t// in\n        tag_62:\n            /* \"#utility.yul\":2178:2290   */\n        tag_61:\n            /* \"#utility.yul\":2299:2338   */\n          tag_63\n            /* \"#utility.yul\":2331:2337   */\n          dup5\n            /* \"#utility.yul\":2326:2329   */\n          dup3\n            /* \"#utility.yul\":2321:2324   */\n          dup6\n            /* \"#utility.yul\":2299:2338   */\n          tag_30\n          jump\t// in\n        tag_63:\n            /* \"#utility.yul\":2018:2344   */\n          pop\n            /* \"#utility.yul\":1923:2344   */\n          swap4\n          swap3\n          pop\n          pop\n          pop\n          jump\t// out\n            /* \"#utility.yul\":2364:2719   */\n        tag_32:\n            /* \"#utility.yul\":2431:2436   */\n          0x00\n            /* \"#utility.yul\":2480:2483   */\n          dup3\n            /* \"#utility.yul\":2473:2477   */\n          0x1f\n            /* \"#utility.yul\":2465:2471   */\n          dup4\n            /* \"#utility.yul\":2461:2478   */\n          add\n            /* \"#utility.yul\":2457:2484   */\n          slt\n            /* \"#utility.yul\":2447:2569   */\n          tag_65\n          jumpi\n            /* \"#utility.yul\":2488:2567   */\n          tag_66\n          tag_23\n          jump\t// in\n        tag_66:\n            /* \"#utility.yul\":2447:2569   */\n        tag_65:\n            /* \"#utility.yul\":2598:2604   */\n          dup2\n            /* \"#utility.yul\":2592:2605   */\n          mload\n            /* \"#utility.yul\":2623:2713   */\n          tag_67\n            /* \"#utility.yul\":2709:2712   */\n          dup5\n            /* \"#utility.yul\":2701:2707   */\n          dup3\n            /* \"#utility.yul\":2694:2698   */\n          0x20\n            /* \"#utility.yul\":2686:2692   */\n          dup7\n            /* \"#utility.yul\":2682:2699   */\n          add\n            /* \"#utility.yul\":2623:2713   */\n          tag_31\n          jump\t// in\n        tag_67:\n            /* \"#utility.yul\":2614:2713   */\n          swap2\n          pop\n            /* \"#utility.yul\":2437:2719   */\n          pop\n            /* \"#utility.yul\":2364:2719   */\n          swap3\n          swap2\n          pop\n          pop\n          jump\t// out\n            /* \"#utility.yul\":2725:3249   */\n        tag_3:\n            /* \"#utility.yul\":2805:2811   */\n          0x00\n            /* \"#utility.yul\":2854:2856   */\n          0x20\n            /* \"#utility.yul\":2842:2851   */\n          dup3\n            /* \"#utility.yul\":2833:2840   */\n          dup5\n            /* \"#utility.yul\":2829:2852   */\n          sub\n            /* \"#utility.yul\":2825:2857   */\n          slt\n            /* \"#utility.yul\":2822:2941   */\n          iszero\n          tag_69\n          jumpi\n            /* \"#utility.yul\":2860:2939   */\n          tag_70\n          tag_21\n          jump\t// in\n        tag_70:\n            /* \"#utility.yul\":2822:2941   */\n        tag_69:\n            /* \"#utility.yul\":3001:3002   */\n          0x00\n            /* \"#utility.yul\":2990:2999   */\n          dup3\n            /* \"#utility.yul\":2986:3003   */\n          add\n            /* \"#utility.yul\":2980:3004   */\n          mload\n            /* \"#utility.yul\":3031:3049   */\n          0xffffffffffffffff\n            /* \"#utility.yul\":3023:3029   */\n          dup2\n            /* \"#utility.yul\":3020:3050   */\n          gt\n            /* \"#utility.yul\":3017:3134   */\n          iszero\n          tag_71\n          jumpi\n            /* \"#utility.yul\":3053:3132   */\n          tag_72\n          tag_22\n          jump\t// in\n        tag_72:\n            /* \"#utility.yul\":3017:3134   */\n        tag_71:\n            /* \"#utility.yul\":3158:3232   */\n          tag_73\n            /* \"#utility.yul\":3224:3231   */\n          dup5\n            /* \"#utility.yul\":3215:3221   */\n          dup3\n            /* \"#utility.yul\":3204:3213   */\n          dup6\n            /* \"#utility.yul\":3200:3222   */\n          add\n            /* \"#utility.yul\":3158:3232   */\n          tag_32\n          jump\t// in\n        tag_73:\n            /* \"#utility.yul\":3148:3232   */\n          swap2\n          pop\n            /* \"#utility.yul\":2951:3242   */\n          pop\n            /* \"#utility.yul\":2725:3249   */\n          swap3\n          swap2\n          pop\n          pop\n          jump\t// out\n            /* \"#utility.yul\":3255:3435   */\n        tag_33:\n            /* \"#utility.yul\":3303:3380   */\n          0x4e487b7100000000000000000000000000000000000000000000000000000000\n            /* \"#utility.yul\":3300:3301   */\n          0x00\n            /* \"#utility.yul\":3293:3381   */\n          mstore\n            /* \"#utility.yul\":3400:3404   */\n          0x22\n            /* \"#utility.yul\":3397:3398   */\n          0x04\n            /* \"#utility.yul\":3390:3405   */\n          mstore\n            /* \"#utility.yul\":3424:3428   */\n          0x24\n            /* \"#utility.yul\":3421:3422   */\n          0x00\n            /* \"#utility.yul\":3414:3429   */\n          revert\n            /* \"#utility.yul\":3441:3761   */\n        tag_10:\n            /* \"#utility.yul\":3485:3491   */\n          0x00\n            /* \"#utility.yul\":3522:3523   */\n          0x02\n            /* \"#utility.yul\":3516:3520   */\n          dup3\n            /* \"#utility.yul\":3512:3524   */\n          div\n            /* \"#utility.yul\":3502:3524   */\n          swap1\n          pop\n            /* \"#utility.yul\":3569:3570   */\n          0x01\n            /* \"#utility.yul\":3563:3567   */\n          dup3\n            /* \"#utility.yul\":3559:3571   */\n          and\n            /* \"#utility.yul\":3590:3608   */\n          dup1\n            /* \"#utility.yul\":3580:3661   */\n          tag_76\n          jumpi\n            /* \"#utility.yul\":3646:3650   */\n          0x7f\n            /* \"#utility.yul\":3638:3644   */\n          dup3\n            /* \"#utility.yul\":3634:3651   */\n          and\n            /* \"#utility.yul\":3624:3651   */\n          swap2\n          pop\n            /* \"#utility.yul\":3580:3661   */\n        tag_76:\n            /* \"#utility.yul\":3708:3710   */\n          0x20\n            /* \"#utility.yul\":3700:3706   */\n          dup3\n            /* \"#utility.yul\":3697:3711   */\n          lt\n            /* \"#utility.yul\":3677:3695   */\n          dup2\n            /* \"#utility.yul\":3674:3712   */\n          sub\n            /* \"#utility.yul\":3671:3755   */\n          tag_77\n          jumpi\n            /* \"#utility.yul\":3727:3745   */\n          tag_78\n          tag_33\n          jump\t// in\n        tag_78:\n            /* \"#utility.yul\":3671:3755   */\n        tag_77:\n            /* \"#utility.yul\":3492:3761   */\n          pop\n            /* \"#utility.yul\":3441:3761   */\n          swap2\n          swap1\n          pop\n          jump\t// out\n            /* \"training/contracts/OnetoAnother.sol\":521:1072  contract Car{... */\n        tag_8:\n          dataSize(sub_0)\n          dup1\n          dataOffset(sub_0)\n          0x00\n          codecopy\n          0x00\n          return\n        stop\n\n        sub_0: assembly {\n                /* \"training/contracts/OnetoAnother.sol\":521:1072  contract Car{... */\n              mstore(0x40, 0x80)\n              callvalue\n              dup1\n              iszero\n              tag_1\n              jumpi\n              0x00\n              dup1\n              revert\n            tag_1:\n              pop\n              jumpi(tag_2, lt(calldatasize, 0x04))\n              shr(0xe0, calldataload(0x00))\n              dup1\n              0x238bb05d\n              eq\n              tag_3\n              jumpi\n              dup1\n              0xcf08fed5\n              eq\n              tag_4\n              jumpi\n            tag_2:\n              0x00\n              dup1\n              revert\n                /* \"training/contracts/OnetoAnother.sol\":856:1070  function changecolor(string memory _newColor) public{   //\"Car\" contractin icinde renk degistirmek istersek... */\n            tag_3:\n              tag_5\n              0x04\n              dup1\n              calldatasize\n              sub\n              dup2\n              add\n              swap1\n              tag_6\n              swap2\n              swap1\n              tag_7\n              jump\t// in\n            tag_6:\n              tag_8\n              jump\t// in\n            tag_5:\n              stop\n                /* \"training/contracts/OnetoAnother.sol\":539:558  string public color */\n            tag_4:\n              tag_9\n              tag_10\n              jump\t// in\n            tag_9:\n              mload(0x40)\n              tag_11\n              swap2\n              swap1\n              tag_12\n              jump\t// in\n            tag_11:\n              mload(0x40)\n              dup1\n              swap2\n              sub\n              swap1\n              return\n                /* \"training/contracts/OnetoAnother.sol\":856:1070  function changecolor(string memory _newColor) public{   //\"Car\" contractin icinde renk degistirmek istersek... */\n            tag_8:\n                /* \"training/contracts/OnetoAnother.sol\":978:987  _newColor */\n              dup1\n                /* \"training/contracts/OnetoAnother.sol\":972:977  color */\n              0x00\n                /* \"training/contracts/OnetoAnother.sol\":972:987  color=_newColor */\n              swap1\n              dup1\n              mload\n              swap1\n              0x20\n              add\n              swap1\n              tag_14\n              swap3\n              swap2\n              swap1\n              tag_15\n              jump\t// in\n            tag_14:\n              pop\n                /* \"training/contracts/OnetoAnother.sol\":856:1070  function changecolor(string memory _newColor) public{   //\"Car\" contractin icinde renk degistirmek istersek... */\n              pop\n              jump\t// out\n                /* \"training/contracts/OnetoAnother.sol\":539:558  string public color */\n            tag_10:\n              0x00\n              dup1\n              sload\n              tag_16\n              swap1\n              tag_17\n              jump\t// in\n            tag_16:\n              dup1\n              0x1f\n              add\n              0x20\n              dup1\n              swap2\n              div\n              mul\n              0x20\n              add\n              mload(0x40)\n              swap1\n              dup2\n              add\n              0x40\n              mstore\n              dup1\n              swap3\n              swap2\n              swap1\n              dup2\n              dup2\n              mstore\n              0x20\n              add\n              dup3\n              dup1\n              sload\n              tag_18\n              swap1\n              tag_17\n              jump\t// in\n            tag_18:\n              dup1\n              iszero\n              tag_19\n              jumpi\n              dup1\n              0x1f\n              lt\n              tag_20\n              jumpi\n              0x0100\n              dup1\n              dup4\n              sload\n              div\n              mul\n              dup4\n              mstore\n              swap2\n              0x20\n              add\n              swap2\n              jump(tag_19)\n            tag_20:\n              dup3\n              add\n              swap2\n              swap1\n              0x00\n              mstore\n              keccak256(0x00, 0x20)\n              swap1\n            tag_21:\n              dup2\n              sload\n              dup2\n              mstore\n              swap1\n              0x01\n              add\n              swap1\n              0x20\n              add\n              dup1\n              dup4\n              gt\n              tag_21\n              jumpi\n              dup3\n              swap1\n              sub\n              0x1f\n              and\n              dup3\n              add\n              swap2\n            tag_19:\n              pop\n              pop\n              pop\n              pop\n              pop\n              dup2\n              jump\t// out\n            tag_15:\n              dup3\n              dup1\n              sload\n              tag_22\n              swap1\n              tag_17\n              jump\t// in\n            tag_22:\n              swap1\n              0x00\n              mstore\n              keccak256(0x00, 0x20)\n              swap1\n              0x1f\n              add\n              0x20\n              swap1\n              div\n              dup2\n              add\n              swap3\n              dup3\n              tag_24\n              jumpi\n              0x00\n              dup6\n              sstore\n              jump(tag_23)\n            tag_24:\n              dup3\n              0x1f\n              lt\n              tag_25\n              jumpi\n              dup1\n              mload\n              not(0xff)\n              and\n              dup4\n              dup1\n              add\n              or\n              dup6\n              sstore\n              jump(tag_23)\n            tag_25:\n              dup3\n              dup1\n              add\n              0x01\n              add\n              dup6\n              sstore\n              dup3\n              iszero\n              tag_23\n              jumpi\n              swap2\n              dup3\n              add\n            tag_26:\n              dup3\n              dup2\n              gt\n              iszero\n              tag_27\n              jumpi\n              dup3\n              mload\n              dup3\n              sstore\n              swap2\n              0x20\n              add\n              swap2\n              swap1\n              0x01\n              add\n              swap1\n              jump(tag_26)\n            tag_27:\n            tag_23:\n              pop\n              swap1\n              pop\n              tag_28\n              swap2\n              swap1\n              tag_29\n              jump\t// in\n            tag_28:\n              pop\n              swap1\n              jump\t// out\n            tag_29:\n            tag_30:\n              dup1\n              dup3\n              gt\n              iszero\n              tag_31\n              jumpi\n              0x00\n              dup2\n              0x00\n              swap1\n              sstore\n              pop\n              0x01\n              add\n              jump(tag_30)\n            tag_31:\n              pop\n              swap1\n              jump\t// out\n                /* \"#utility.yul\":7:82   */\n            tag_32:\n                /* \"#utility.yul\":40:46   */\n              0x00\n                /* \"#utility.yul\":73:75   */\n              0x40\n                /* \"#utility.yul\":67:76   */\n              mload\n                /* \"#utility.yul\":57:76   */\n              swap1\n              pop\n                /* \"#utility.yul\":7:82   */\n              swap1\n              jump\t// out\n                /* \"#utility.yul\":88:205   */\n            tag_33:\n                /* \"#utility.yul\":197:198   */\n              0x00\n                /* \"#utility.yul\":194:195   */\n              dup1\n                /* \"#utility.yul\":187:199   */\n              revert\n                /* \"#utility.yul\":211:328   */\n            tag_34:\n                /* \"#utility.yul\":320:321   */\n              0x00\n                /* \"#utility.yul\":317:318   */\n              dup1\n                /* \"#utility.yul\":310:322   */\n              revert\n                /* \"#utility.yul\":334:451   */\n            tag_35:\n                /* \"#utility.yul\":443:444   */\n              0x00\n                /* \"#utility.yul\":440:441   */\n              dup1\n                /* \"#utility.yul\":433:445   */\n              revert\n                /* \"#utility.yul\":457:574   */\n            tag_36:\n                /* \"#utility.yul\":566:567   */\n              0x00\n                /* \"#utility.yul\":563:564   */\n              dup1\n                /* \"#utility.yul\":556:568   */\n              revert\n                /* \"#utility.yul\":580:682   */\n            tag_37:\n                /* \"#utility.yul\":621:627   */\n              0x00\n                /* \"#utility.yul\":672:674   */\n              0x1f\n                /* \"#utility.yul\":668:675   */\n              not\n                /* \"#utility.yul\":663:665   */\n              0x1f\n                /* \"#utility.yul\":656:661   */\n              dup4\n                /* \"#utility.yul\":652:666   */\n              add\n                /* \"#utility.yul\":648:676   */\n              and\n                /* \"#utility.yul\":638:676   */\n              swap1\n              pop\n                /* \"#utility.yul\":580:682   */\n              swap2\n              swap1\n              pop\n              jump\t// out\n                /* \"#utility.yul\":688:868   */\n            tag_38:\n                /* \"#utility.yul\":736:813   */\n              0x4e487b7100000000000000000000000000000000000000000000000000000000\n                /* \"#utility.yul\":733:734   */\n              0x00\n                /* \"#utility.yul\":726:814   */\n              mstore\n                /* \"#utility.yul\":833:837   */\n              0x41\n                /* \"#utility.yul\":830:831   */\n              0x04\n                /* \"#utility.yul\":823:838   */\n              mstore\n                /* \"#utility.yul\":857:861   */\n              0x24\n                /* \"#utility.yul\":854:855   */\n              0x00\n                /* \"#utility.yul\":847:862   */\n              revert\n                /* \"#utility.yul\":874:1155   */\n            tag_39:\n                /* \"#utility.yul\":957:984   */\n              tag_59\n                /* \"#utility.yul\":979:983   */\n              dup3\n                /* \"#utility.yul\":957:984   */\n              tag_37\n              jump\t// in\n            tag_59:\n                /* \"#utility.yul\":949:955   */\n              dup2\n                /* \"#utility.yul\":945:985   */\n              add\n                /* \"#utility.yul\":1087:1093   */\n              dup2\n                /* \"#utility.yul\":1075:1085   */\n              dup2\n                /* \"#utility.yul\":1072:1094   */\n              lt\n                /* \"#utility.yul\":1051:1069   */\n              0xffffffffffffffff\n                /* \"#utility.yul\":1039:1049   */\n              dup3\n                /* \"#utility.yul\":1036:1070   */\n              gt\n                /* \"#utility.yul\":1033:1095   */\n              or\n                /* \"#utility.yul\":1030:1118   */\n              iszero\n              tag_60\n              jumpi\n                /* \"#utility.yul\":1098:1116   */\n              tag_61\n              tag_38\n              jump\t// in\n            tag_61:\n                /* \"#utility.yul\":1030:1118   */\n            tag_60:\n                /* \"#utility.yul\":1138:1148   */\n              dup1\n                /* \"#utility.yul\":1134:1136   */\n              0x40\n                /* \"#utility.yul\":1127:1149   */\n              mstore\n                /* \"#utility.yul\":917:1155   */\n              pop\n                /* \"#utility.yul\":874:1155   */\n              pop\n              pop\n              jump\t// out\n                /* \"#utility.yul\":1161:1290   */\n            tag_40:\n                /* \"#utility.yul\":1195:1201   */\n              0x00\n                /* \"#utility.yul\":1222:1242   */\n              tag_63\n              tag_32\n              jump\t// in\n            tag_63:\n                /* \"#utility.yul\":1212:1242   */\n              swap1\n              pop\n                /* \"#utility.yul\":1251:1284   */\n              tag_64\n                /* \"#utility.yul\":1279:1283   */\n              dup3\n                /* \"#utility.yul\":1271:1277   */\n              dup3\n                /* \"#utility.yul\":1251:1284   */\n              tag_39\n              jump\t// in\n            tag_64:\n                /* \"#utility.yul\":1161:1290   */\n              swap2\n              swap1\n              pop\n              jump\t// out\n                /* \"#utility.yul\":1296:1604   */\n            tag_41:\n                /* \"#utility.yul\":1358:1362   */\n              0x00\n                /* \"#utility.yul\":1448:1466   */\n              0xffffffffffffffff\n                /* \"#utility.yul\":1440:1446   */\n              dup3\n                /* \"#utility.yul\":1437:1467   */\n              gt\n                /* \"#utility.yul\":1434:1490   */\n              iszero\n              tag_66\n              jumpi\n                /* \"#utility.yul\":1470:1488   */\n              tag_67\n              tag_38\n              jump\t// in\n            tag_67:\n                /* \"#utility.yul\":1434:1490   */\n            tag_66:\n                /* \"#utility.yul\":1508:1537   */\n              tag_68\n                /* \"#utility.yul\":1530:1536   */\n              dup3\n                /* \"#utility.yul\":1508:1537   */\n              tag_37\n              jump\t// in\n            tag_68:\n                /* \"#utility.yul\":1500:1537   */\n              swap1\n              pop\n                /* \"#utility.yul\":1592:1596   */\n              0x20\n                /* \"#utility.yul\":1586:1590   */\n              dup2\n                /* \"#utility.yul\":1582:1597   */\n              add\n                /* \"#utility.yul\":1574:1597   */\n              swap1\n              pop\n                /* \"#utility.yul\":1296:1604   */\n              swap2\n              swap1\n              pop\n              jump\t// out\n                /* \"#utility.yul\":1610:1764   */\n            tag_42:\n                /* \"#utility.yul\":1694:1700   */\n              dup3\n                /* \"#utility.yul\":1689:1692   */\n              dup2\n                /* \"#utility.yul\":1684:1687   */\n              dup4\n                /* \"#utility.yul\":1671:1701   */\n              calldatacopy\n                /* \"#utility.yul\":1756:1757   */\n              0x00\n                /* \"#utility.yul\":1747:1753   */\n              dup4\n                /* \"#utility.yul\":1742:1745   */\n              dup4\n                /* \"#utility.yul\":1738:1754   */\n              add\n                /* \"#utility.yul\":1731:1758   */\n              mstore\n                /* \"#utility.yul\":1610:1764   */\n              pop\n              pop\n              pop\n              jump\t// out\n                /* \"#utility.yul\":1770:2182   */\n            tag_43:\n                /* \"#utility.yul\":1848:1853   */\n              0x00\n                /* \"#utility.yul\":1873:1939   */\n              tag_71\n                /* \"#utility.yul\":1889:1938   */\n              tag_72\n                /* \"#utility.yul\":1931:1937   */\n              dup5\n                /* \"#utility.yul\":1889:1938   */\n              tag_41\n              jump\t// in\n            tag_72:\n                /* \"#utility.yul\":1873:1939   */\n              tag_40\n              jump\t// in\n            tag_71:\n                /* \"#utility.yul\":1864:1939   */\n              swap1\n              pop\n                /* \"#utility.yul\":1962:1968   */\n              dup3\n                /* \"#utility.yul\":1955:1960   */\n              dup2\n                /* \"#utility.yul\":1948:1969   */\n              mstore\n                /* \"#utility.yul\":2000:2004   */\n              0x20\n                /* \"#utility.yul\":1993:1998   */\n              dup2\n                /* \"#utility.yul\":1989:2005   */\n              add\n                /* \"#utility.yul\":2038:2041   */\n              dup5\n                /* \"#utility.yul\":2029:2035   */\n              dup5\n                /* \"#utility.yul\":2024:2027   */\n              dup5\n                /* \"#utility.yul\":2020:2036   */\n              add\n                /* \"#utility.yul\":2017:2042   */\n              gt\n                /* \"#utility.yul\":2014:2126   */\n              iszero\n              tag_73\n              jumpi\n                /* \"#utility.yul\":2045:2124   */\n              tag_74\n              tag_36\n              jump\t// in\n            tag_74:\n                /* \"#utility.yul\":2014:2126   */\n            tag_73:\n                /* \"#utility.yul\":2135:2176   */\n              tag_75\n                /* \"#utility.yul\":2169:2175   */\n              dup5\n                /* \"#utility.yul\":2164:2167   */\n              dup3\n                /* \"#utility.yul\":2159:2162   */\n              dup6\n                /* \"#utility.yul\":2135:2176   */\n              tag_42\n              jump\t// in\n            tag_75:\n                /* \"#utility.yul\":1854:2182   */\n              pop\n                /* \"#utility.yul\":1770:2182   */\n              swap4\n              swap3\n              pop\n              pop\n              pop\n              jump\t// out\n                /* \"#utility.yul\":2202:2542   */\n            tag_44:\n                /* \"#utility.yul\":2258:2263   */\n              0x00\n                /* \"#utility.yul\":2307:2310   */\n              dup3\n                /* \"#utility.yul\":2300:2304   */\n              0x1f\n                /* \"#utility.yul\":2292:2298   */\n              dup4\n                /* \"#utility.yul\":2288:2305   */\n              add\n                /* \"#utility.yul\":2284:2311   */\n              slt\n                /* \"#utility.yul\":2274:2396   */\n              tag_77\n              jumpi\n                /* \"#utility.yul\":2315:2394   */\n              tag_78\n              tag_35\n              jump\t// in\n            tag_78:\n                /* \"#utility.yul\":2274:2396   */\n            tag_77:\n                /* \"#utility.yul\":2432:2438   */\n              dup2\n                /* \"#utility.yul\":2419:2439   */\n              calldataload\n                /* \"#utility.yul\":2457:2536   */\n              tag_79\n                /* \"#utility.yul\":2532:2535   */\n              dup5\n                /* \"#utility.yul\":2524:2530   */\n              dup3\n                /* \"#utility.yul\":2517:2521   */\n              0x20\n                /* \"#utility.yul\":2509:2515   */\n              dup7\n                /* \"#utility.yul\":2505:2522   */\n              add\n                /* \"#utility.yul\":2457:2536   */\n              tag_43\n              jump\t// in\n            tag_79:\n                /* \"#utility.yul\":2448:2536   */\n              swap2\n              pop\n                /* \"#utility.yul\":2264:2542   */\n              pop\n                /* \"#utility.yul\":2202:2542   */\n              swap3\n              swap2\n              pop\n              pop\n              jump\t// out\n                /* \"#utility.yul\":2548:3057   */\n            tag_7:\n                /* \"#utility.yul\":2617:2623   */\n              0x00\n                /* \"#utility.yul\":2666:2668   */\n              0x20\n                /* \"#utility.yul\":2654:2663   */\n              dup3\n                /* \"#utility.yul\":2645:2652   */\n              dup5\n                /* \"#utility.yul\":2641:2664   */\n              sub\n                /* \"#utility.yul\":2637:2669   */\n              slt\n                /* \"#utility.yul\":2634:2753   */\n              iszero\n              tag_81\n              jumpi\n                /* \"#utility.yul\":2672:2751   */\n              tag_82\n              tag_33\n              jump\t// in\n            tag_82:\n                /* \"#utility.yul\":2634:2753   */\n            tag_81:\n                /* \"#utility.yul\":2820:2821   */\n              0x00\n                /* \"#utility.yul\":2809:2818   */\n              dup3\n                /* \"#utility.yul\":2805:2822   */\n              add\n                /* \"#utility.yul\":2792:2823   */\n              calldataload\n                /* \"#utility.yul\":2850:2868   */\n              0xffffffffffffffff\n                /* \"#utility.yul\":2842:2848   */\n              dup2\n                /* \"#utility.yul\":2839:2869   */\n              gt\n                /* \"#utility.yul\":2836:2953   */\n              iszero\n              tag_83\n              jumpi\n                /* \"#utility.yul\":2872:2951   */\n              tag_84\n              tag_34\n              jump\t// in\n            tag_84:\n                /* \"#utility.yul\":2836:2953   */\n            tag_83:\n                /* \"#utility.yul\":2977:3040   */\n              tag_85\n                /* \"#utility.yul\":3032:3039   */\n              dup5\n                /* \"#utility.yul\":3023:3029   */\n              dup3\n                /* \"#utility.yul\":3012:3021   */\n              dup6\n                /* \"#utility.yul\":3008:3030   */\n              add\n                /* \"#utility.yul\":2977:3040   */\n              tag_44\n              jump\t// in\n            tag_85:\n                /* \"#utility.yul\":2967:3040   */\n              swap2\n              pop\n                /* \"#utility.yul\":2763:3050   */\n              pop\n                /* \"#utility.yul\":2548:3057   */\n              swap3\n              swap2\n              pop\n              pop\n              jump\t// out\n                /* \"#utility.yul\":3063:3162   */\n            tag_45:\n                /* \"#utility.yul\":3115:3121   */\n              0x00\n                /* \"#utility.yul\":3149:3154   */\n              dup2\n                /* \"#utility.yul\":3143:3155   */\n              mload\n                /* \"#utility.yul\":3133:3155   */\n              swap1\n              pop\n                /* \"#utility.yul\":3063:3162   */\n              swap2\n              swap1\n              pop\n              jump\t// out\n                /* \"#utility.yul\":3168:3337   */\n            tag_46:\n                /* \"#utility.yul\":3252:3263   */\n              0x00\n                /* \"#utility.yul\":3286:3292   */\n              dup3\n                /* \"#utility.yul\":3281:3284   */\n              dup3\n                /* \"#utility.yul\":3274:3293   */\n              mstore\n                /* \"#utility.yul\":3326:3330   */\n              0x20\n                /* \"#utility.yul\":3321:3324   */\n              dup3\n                /* \"#utility.yul\":3317:3331   */\n              add\n                /* \"#utility.yul\":3302:3331   */\n              swap1\n              pop\n                /* \"#utility.yul\":3168:3337   */\n              swap3\n              swap2\n              pop\n              pop\n              jump\t// out\n                /* \"#utility.yul\":3343:3650   */\n            tag_47:\n                /* \"#utility.yul\":3411:3412   */\n              0x00\n                /* \"#utility.yul\":3421:3534   */\n            tag_89:\n                /* \"#utility.yul\":3435:3441   */\n              dup4\n                /* \"#utility.yul\":3432:3433   */\n              dup2\n                /* \"#utility.yul\":3429:3442   */\n              lt\n                /* \"#utility.yul\":3421:3534   */\n              iszero\n              tag_91\n              jumpi\n                /* \"#utility.yul\":3520:3521   */\n              dup1\n                /* \"#utility.yul\":3515:3518   */\n              dup3\n                /* \"#utility.yul\":3511:3522   */\n              add\n                /* \"#utility.yul\":3505:3523   */\n              mload\n                /* \"#utility.yul\":3501:3502   */\n              dup2\n                /* \"#utility.yul\":3496:3499   */\n              dup5\n                /* \"#utility.yul\":3492:3503   */\n              add\n                /* \"#utility.yul\":3485:3524   */\n              mstore\n                /* \"#utility.yul\":3457:3459   */\n              0x20\n                /* \"#utility.yul\":3454:3455   */\n              dup2\n                /* \"#utility.yul\":3450:3460   */\n              add\n                /* \"#utility.yul\":3445:3460   */\n              swap1\n              pop\n                /* \"#utility.yul\":3421:3534   */\n              jump(tag_89)\n            tag_91:\n                /* \"#utility.yul\":3552:3558   */\n              dup4\n                /* \"#utility.yul\":3549:3550   */\n              dup2\n                /* \"#utility.yul\":3546:3559   */\n              gt\n                /* \"#utility.yul\":3543:3644   */\n              iszero\n              tag_92\n              jumpi\n                /* \"#utility.yul\":3632:3633   */\n              0x00\n                /* \"#utility.yul\":3623:3629   */\n              dup5\n                /* \"#utility.yul\":3618:3621   */\n              dup5\n                /* \"#utility.yul\":3614:3630   */\n              add\n                /* \"#utility.yul\":3607:3634   */\n              mstore\n                /* \"#utility.yul\":3543:3644   */\n            tag_92:\n                /* \"#utility.yul\":3392:3650   */\n              pop\n                /* \"#utility.yul\":3343:3650   */\n              pop\n              pop\n              pop\n              jump\t// out\n                /* \"#utility.yul\":3656:4020   */\n            tag_48:\n                /* \"#utility.yul\":3744:3747   */\n              0x00\n                /* \"#utility.yul\":3772:3811   */\n              tag_94\n                /* \"#utility.yul\":3805:3810   */\n              dup3\n                /* \"#utility.yul\":3772:3811   */\n              tag_45\n              jump\t// in\n            tag_94:\n                /* \"#utility.yul\":3827:3898   */\n              tag_95\n                /* \"#utility.yul\":3891:3897   */\n              dup2\n                /* \"#utility.yul\":3886:3889   */\n              dup6\n                /* \"#utility.yul\":3827:3898   */\n              tag_46\n              jump\t// in\n            tag_95:\n                /* \"#utility.yul\":3820:3898   */\n              swap4\n              pop\n                /* \"#utility.yul\":3907:3959   */\n              tag_96\n                /* \"#utility.yul\":3952:3958   */\n              dup2\n                /* \"#utility.yul\":3947:3950   */\n              dup6\n                /* \"#utility.yul\":3940:3944   */\n              0x20\n                /* \"#utility.yul\":3933:3938   */\n              dup7\n                /* \"#utility.yul\":3929:3945   */\n              add\n                /* \"#utility.yul\":3907:3959   */\n              tag_47\n              jump\t// in\n            tag_96:\n                /* \"#utility.yul\":3984:4013   */\n              tag_97\n                /* \"#utility.yul\":4006:4012   */\n              dup2\n                /* \"#utility.yul\":3984:4013   */\n              tag_37\n              jump\t// in\n            tag_97:\n                /* \"#utility.yul\":3979:3982   */\n              dup5\n                /* \"#utility.yul\":3975:4014   */\n              add\n                /* \"#utility.yul\":3968:4014   */\n              swap2\n              pop\n                /* \"#utility.yul\":3748:4020   */\n              pop\n                /* \"#utility.yul\":3656:4020   */\n              swap3\n              swap2\n              pop\n              pop\n              jump\t// out\n                /* \"#utility.yul\":4026:4339   */\n            tag_12:\n                /* \"#utility.yul\":4139:4143   */\n              0x00\n                /* \"#utility.yul\":4177:4179   */\n              0x20\n                /* \"#utility.yul\":4166:4175   */\n              dup3\n                /* \"#utility.yul\":4162:4180   */\n              add\n                /* \"#utility.yul\":4154:4180   */\n              swap1\n              pop\n                /* \"#utility.yul\":4226:4235   */\n              dup2\n                /* \"#utility.yul\":4220:4224   */\n              dup2\n                /* \"#utility.yul\":4216:4236   */\n              sub\n                /* \"#utility.yul\":4212:4213   */\n              0x00\n                /* \"#utility.yul\":4201:4210   */\n              dup4\n                /* \"#utility.yul\":4197:4214   */\n              add\n                /* \"#utility.yul\":4190:4237   */\n              mstore\n                /* \"#utility.yul\":4254:4332   */\n              tag_99\n                /* \"#utility.yul\":4327:4331   */\n              dup2\n                /* \"#utility.yul\":4318:4324   */\n              dup5\n                /* \"#utility.yul\":4254:4332   */\n              tag_48\n              jump\t// in\n            tag_99:\n                /* \"#utility.yul\":4246:4332   */\n              swap1\n              pop\n                /* \"#utility.yul\":4026:4339   */\n              swap3\n              swap2\n              pop\n              pop\n              jump\t// out\n                /* \"#utility.yul\":4345:4525   */\n            tag_49:\n                /* \"#utility.yul\":4393:4470   */\n              0x4e487b7100000000000000000000000000000000000000000000000000000000\n                /* \"#utility.yul\":4390:4391   */\n              0x00\n                /* \"#utility.yul\":4383:4471   */\n              mstore\n                /* \"#utility.yul\":4490:4494   */\n              0x22\n                /* \"#utility.yul\":4487:4488   */\n              0x04\n                /* \"#utility.yul\":4480:4495   */\n              mstore\n                /* \"#utility.yul\":4514:4518   */\n              0x24\n                /* \"#utility.yul\":4511:4512   */\n              0x00\n                /* \"#utility.yul\":4504:4519   */\n              revert\n                /* \"#utility.yul\":4531:4851   */\n            tag_17:\n                /* \"#utility.yul\":4575:4581   */\n              0x00\n                /* \"#utility.yul\":4612:4613   */\n              0x02\n                /* \"#utility.yul\":4606:4610   */\n              dup3\n                /* \"#utility.yul\":4602:4614   */\n              div\n                /* \"#utility.yul\":4592:4614   */\n              swap1\n              pop\n                /* \"#utility.yul\":4659:4660   */\n              0x01\n                /* \"#utility.yul\":4653:4657   */\n              dup3\n                /* \"#utility.yul\":4649:4661   */\n              and\n                /* \"#utility.yul\":4680:4698   */\n              dup1\n                /* \"#utility.yul\":4670:4751   */\n              tag_102\n              jumpi\n                /* \"#utility.yul\":4736:4740   */\n              0x7f\n                /* \"#utility.yul\":4728:4734   */\n              dup3\n                /* \"#utility.yul\":4724:4741   */\n              and\n                /* \"#utility.yul\":4714:4741   */\n              swap2\n              pop\n                /* \"#utility.yul\":4670:4751   */\n            tag_102:\n                /* \"#utility.yul\":4798:4800   */\n              0x20\n                /* \"#utility.yul\":4790:4796   */\n              dup3\n                /* \"#utility.yul\":4787:4801   */\n              lt\n                /* \"#utility.yul\":4767:4785   */\n              dup2\n                /* \"#utility.yul\":4764:4802   */\n              sub\n                /* \"#utility.yul\":4761:4845   */\n              tag_103\n              jumpi\n                /* \"#utility.yul\":4817:4835   */\n              tag_104\n              tag_49\n              jump\t// in\n            tag_104:\n                /* \"#utility.yul\":4761:4845   */\n            tag_103:\n                /* \"#utility.yul\":4582:4851   */\n              pop\n                /* \"#utility.yul\":4531:4851   */\n              swap2\n              swap1\n              pop\n              jump\t// out\n\n            auxdata: 0xa2646970667358221220ac882bb2e5db3df2ee4814a79822055dc03398d3da81e83a4a6ef3ef33c7b7d064736f6c634300080d0033\n        }\n    }\n\n    auxdata: 0xa2646970667358221220ae52e2f03defcd9fbdcbd5619f122e93992cde41e2a671033605b5662b14b5ab64736f6c634300080d0033\n}\n",
				"bytecode": {
					"linkReferences": {},
					"object": "608060405234801561001057600080fd5b50610b6c806100206000396000f3fe608060405234801561001057600080fd5b50600436106100415760003560e01c80632ee79ded14610046578063775c300c14610050578063fdb9c7931461005a575b600080fd5b61004e610078565b005b610058610103565b005b610062610176565b60405161006f9190610226565b60405180910390f35b60008054906101000a900473ffffffffffffffffffffffffffffffffffffffff1673ffffffffffffffffffffffffffffffffffffffff1663238bb05d6040518163ffffffff1660e01b81526004016100cf9061029e565b600060405180830381600087803b1580156100e957600080fd5b505af11580156100fd573d6000803e3d6000fd5b50505050565b60405161010f9061019a565b6101189061030a565b604051809103906000f080158015610134573d6000803e3d6000fd5b506000806101000a81548173ffffffffffffffffffffffffffffffffffffffff021916908373ffffffffffffffffffffffffffffffffffffffff160217905550565b60008054906101000a900473ffffffffffffffffffffffffffffffffffffffff1681565b61080c8061032b83390190565b600073ffffffffffffffffffffffffffffffffffffffff82169050919050565b6000819050919050565b60006101ec6101e76101e2846101a7565b6101c7565b6101a7565b9050919050565b60006101fe826101d1565b9050919050565b6000610210826101f3565b9050919050565b61022081610205565b82525050565b600060208201905061023b6000830184610217565b92915050565b600082825260208201905092915050565b7f7265640000000000000000000000000000000000000000000000000000000000600082015250565b6000610288600383610241565b915061029382610252565b602082019050919050565b600060208201905081810360008301526102b78161027b565b9050919050565b7f626c756500000000000000000000000000000000000000000000000000000000600082015250565b60006102f4600483610241565b91506102ff826102be565b602082019050919050565b60006020820190508181036000830152610323816102e7565b905091905056fe60806040523480156200001157600080fd5b506040516200080c3803806200080c8339818101604052810190620000379190620002a4565b80600090805190602001906200004f92919062000057565b505062000359565b828054620000659062000324565b90600052602060002090601f016020900481019282620000895760008555620000d5565b82601f10620000a457805160ff1916838001178555620000d5565b82800160010185558215620000d5579182015b82811115620000d4578251825591602001919060010190620000b7565b5b509050620000e49190620000e8565b5090565b5b8082111562000103576000816000905550600101620000e9565b5090565b6000604051905090565b600080fd5b600080fd5b600080fd5b600080fd5b6000601f19601f8301169050919050565b7f4e487b7100000000000000000000000000000000000000000000000000000000600052604160045260246000fd5b620001708262000125565b810181811067ffffffffffffffff8211171562000192576200019162000136565b5b80604052505050565b6000620001a762000107565b9050620001b5828262000165565b919050565b600067ffffffffffffffff821115620001d857620001d762000136565b5b620001e38262000125565b9050602081019050919050565b60005b8381101562000210578082015181840152602081019050620001f3565b8381111562000220576000848401525b50505050565b60006200023d6200023784620001ba565b6200019b565b9050828152602081018484840111156200025c576200025b62000120565b5b62000269848285620001f0565b509392505050565b600082601f8301126200028957620002886200011b565b5b81516200029b84826020860162000226565b91505092915050565b600060208284031215620002bd57620002bc62000111565b5b600082015167ffffffffffffffff811115620002de57620002dd62000116565b5b620002ec8482850162000271565b91505092915050565b7f4e487b7100000000000000000000000000000000000000000000000000000000600052602260045260246000fd5b600060028204905060018216806200033d57607f821691505b602082108103620003535762000352620002f5565b5b50919050565b6104a380620003696000396000f3fe608060405234801561001057600080fd5b50600436106100365760003560e01c8063238bb05d1461003b578063cf08fed514610057575b600080fd5b6100556004803603810190610050919061031a565b610075565b005b61005f61008f565b60405161006c91906103eb565b60405180910390f35b806000908051906020019061008b92919061011d565b5050565b6000805461009c9061043c565b80601f01602080910402602001604051908101604052809291908181526020018280546100c89061043c565b80156101155780601f106100ea57610100808354040283529160200191610115565b820191906000526020600020905b8154815290600101906020018083116100f857829003601f168201915b505050505081565b8280546101299061043c565b90600052602060002090601f01602090048101928261014b5760008555610192565b82601f1061016457805160ff1916838001178555610192565b82800160010185558215610192579182015b82811115610191578251825591602001919060010190610176565b5b50905061019f91906101a3565b5090565b5b808211156101bc5760008160009055506001016101a4565b5090565b6000604051905090565b600080fd5b600080fd5b600080fd5b600080fd5b6000601f19601f8301169050919050565b7f4e487b7100000000000000000000000000000000000000000000000000000000600052604160045260246000fd5b610227826101de565b810181811067ffffffffffffffff82111715610246576102456101ef565b5b80604052505050565b60006102596101c0565b9050610265828261021e565b919050565b600067ffffffffffffffff821115610285576102846101ef565b5b61028e826101de565b9050602081019050919050565b82818337600083830152505050565b60006102bd6102b88461026a565b61024f565b9050828152602081018484840111156102d9576102d86101d9565b5b6102e484828561029b565b509392505050565b600082601f830112610301576103006101d4565b5b81356103118482602086016102aa565b91505092915050565b6000602082840312156103305761032f6101ca565b5b600082013567ffffffffffffffff81111561034e5761034d6101cf565b5b61035a848285016102ec565b91505092915050565b600081519050919050565b600082825260208201905092915050565b60005b8381101561039d578082015181840152602081019050610382565b838111156103ac576000848401525b50505050565b60006103bd82610363565b6103c7818561036e565b93506103d781856020860161037f565b6103e0816101de565b840191505092915050565b6000602082019050818103600083015261040581846103b2565b905092915050565b7f4e487b7100000000000000000000000000000000000000000000000000000000600052602260045260246000fd5b6000600282049050600182168061045457607f821691505b6020821081036104675761046661040d565b5b5091905056fea2646970667358221220ac882bb2e5db3df2ee4814a79822055dc03398d3da81e83a4a6ef3ef33c7b7d064736f6c634300080d0033a2646970667358221220ae52e2f03defcd9fbdcbd5619f122e93992cde41e2a671033605b5662b14b5ab64736f6c634300080d0033",
					"opcodes": "PUSH1 0x80 PUSH1 0x40 MSTORE CALLVALUE DUP1 ISZERO PUSH2 0x10 JUMPI PUSH1 0x0 DUP1 REVERT JUMPDEST POP PUSH2 0xB6C DUP1 PUSH2 0x20 PUSH1 0x0 CODECOPY PUSH1 0x0 RETURN INVALID PUSH1 0x80 PUSH1 0x40 MSTORE CALLVALUE DUP1 ISZERO PUSH2 0x10 JUMPI PUSH1 0x0 DUP1 REVERT JUMPDEST POP PUSH1 0x4 CALLDATASIZE LT PUSH2 0x41 JUMPI PUSH1 0x0 CALLDATALOAD PUSH1 0xE0 SHR DUP1 PUSH4 0x2EE79DED EQ PUSH2 0x46 JUMPI DUP1 PUSH4 0x775C300C EQ PUSH2 0x50 JUMPI DUP1 PUSH4 0xFDB9C793 EQ PUSH2 0x5A JUMPI JUMPDEST PUSH1 0x0 DUP1 REVERT JUMPDEST PUSH2 0x4E PUSH2 0x78 JUMP JUMPDEST STOP JUMPDEST PUSH2 0x58 PUSH2 0x103 JUMP JUMPDEST STOP JUMPDEST PUSH2 0x62 PUSH2 0x176 JUMP JUMPDEST PUSH1 0x40 MLOAD PUSH2 0x6F SWAP2 SWAP1 PUSH2 0x226 JUMP JUMPDEST PUSH1 0x40 MLOAD DUP1 SWAP2 SUB SWAP1 RETURN JUMPDEST PUSH1 0x0 DUP1 SLOAD SWAP1 PUSH2 0x100 EXP SWAP1 DIV PUSH20 0xFFFFFFFFFFFFFFFFFFFFFFFFFFFFFFFFFFFFFFFF AND PUSH20 0xFFFFFFFFFFFFFFFFFFFFFFFFFFFFFFFFFFFFFFFF AND PUSH4 0x238BB05D PUSH1 0x40 MLOAD DUP2 PUSH4 0xFFFFFFFF AND PUSH1 0xE0 SHL DUP2 MSTORE PUSH1 0x4 ADD PUSH2 0xCF SWAP1 PUSH2 0x29E JUMP JUMPDEST PUSH1 0x0 PUSH1 0x40 MLOAD DUP1 DUP4 SUB DUP2 PUSH1 0x0 DUP8 DUP1 EXTCODESIZE ISZERO DUP1 ISZERO PUSH2 0xE9 JUMPI PUSH1 0x0 DUP1 REVERT JUMPDEST POP GAS CALL ISZERO DUP1 ISZERO PUSH2 0xFD JUMPI RETURNDATASIZE PUSH1 0x0 DUP1 RETURNDATACOPY RETURNDATASIZE PUSH1 0x0 REVERT JUMPDEST POP POP POP POP JUMP JUMPDEST PUSH1 0x40 MLOAD PUSH2 0x10F SWAP1 PUSH2 0x19A JUMP JUMPDEST PUSH2 0x118 SWAP1 PUSH2 0x30A JUMP JUMPDEST PUSH1 0x40 MLOAD DUP1 SWAP2 SUB SWAP1 PUSH1 0x0 CREATE DUP1 ISZERO DUP1 ISZERO PUSH2 0x134 JUMPI RETURNDATASIZE PUSH1 0x0 DUP1 RETURNDATACOPY RETURNDATASIZE PUSH1 0x0 REVERT JUMPDEST POP PUSH1 0x0 DUP1 PUSH2 0x100 EXP DUP2 SLOAD DUP2 PUSH20 0xFFFFFFFFFFFFFFFFFFFFFFFFFFFFFFFFFFFFFFFF MUL NOT AND SWAP1 DUP4 PUSH20 0xFFFFFFFFFFFFFFFFFFFFFFFFFFFFFFFFFFFFFFFF AND MUL OR SWAP1 SSTORE POP JUMP JUMPDEST PUSH1 0x0 DUP1 SLOAD SWAP1 PUSH2 0x100 EXP SWAP1 DIV PUSH20 0xFFFFFFFFFFFFFFFFFFFFFFFFFFFFFFFFFFFFFFFF AND DUP2 JUMP JUMPDEST PUSH2 0x80C DUP1 PUSH2 0x32B DUP4 CODECOPY ADD SWAP1 JUMP JUMPDEST PUSH1 0x0 PUSH20 0xFFFFFFFFFFFFFFFFFFFFFFFFFFFFFFFFFFFFFFFF DUP3 AND SWAP1 POP SWAP2 SWAP1 POP JUMP JUMPDEST PUSH1 0x0 DUP2 SWAP1 POP SWAP2 SWAP1 POP JUMP JUMPDEST PUSH1 0x0 PUSH2 0x1EC PUSH2 0x1E7 PUSH2 0x1E2 DUP5 PUSH2 0x1A7 JUMP JUMPDEST PUSH2 0x1C7 JUMP JUMPDEST PUSH2 0x1A7 JUMP JUMPDEST SWAP1 POP SWAP2 SWAP1 POP JUMP JUMPDEST PUSH1 0x0 PUSH2 0x1FE DUP3 PUSH2 0x1D1 JUMP JUMPDEST SWAP1 POP SWAP2 SWAP1 POP JUMP JUMPDEST PUSH1 0x0 PUSH2 0x210 DUP3 PUSH2 0x1F3 JUMP JUMPDEST SWAP1 POP SWAP2 SWAP1 POP JUMP JUMPDEST PUSH2 0x220 DUP2 PUSH2 0x205 JUMP JUMPDEST DUP3 MSTORE POP POP JUMP JUMPDEST PUSH1 0x0 PUSH1 0x20 DUP3 ADD SWAP1 POP PUSH2 0x23B PUSH1 0x0 DUP4 ADD DUP5 PUSH2 0x217 JUMP JUMPDEST SWAP3 SWAP2 POP POP JUMP JUMPDEST PUSH1 0x0 DUP3 DUP3 MSTORE PUSH1 0x20 DUP3 ADD SWAP1 POP SWAP3 SWAP2 POP POP JUMP JUMPDEST PUSH32 0x7265640000000000000000000000000000000000000000000000000000000000 PUSH1 0x0 DUP3 ADD MSTORE POP JUMP JUMPDEST PUSH1 0x0 PUSH2 0x288 PUSH1 0x3 DUP4 PUSH2 0x241 JUMP JUMPDEST SWAP2 POP PUSH2 0x293 DUP3 PUSH2 0x252 JUMP JUMPDEST PUSH1 0x20 DUP3 ADD SWAP1 POP SWAP2 SWAP1 POP JUMP JUMPDEST PUSH1 0x0 PUSH1 0x20 DUP3 ADD SWAP1 POP DUP2 DUP2 SUB PUSH1 0x0 DUP4 ADD MSTORE PUSH2 0x2B7 DUP2 PUSH2 0x27B JUMP JUMPDEST SWAP1 POP SWAP2 SWAP1 POP JUMP JUMPDEST PUSH32 0x626C756500000000000000000000000000000000000000000000000000000000 PUSH1 0x0 DUP3 ADD MSTORE POP JUMP JUMPDEST PUSH1 0x0 PUSH2 0x2F4 PUSH1 0x4 DUP4 PUSH2 0x241 JUMP JUMPDEST SWAP2 POP PUSH2 0x2FF DUP3 PUSH2 0x2BE JUMP JUMPDEST PUSH1 0x20 DUP3 ADD SWAP1 POP SWAP2 SWAP1 POP JUMP JUMPDEST PUSH1 0x0 PUSH1 0x20 DUP3 ADD SWAP1 POP DUP2 DUP2 SUB PUSH1 0x0 DUP4 ADD MSTORE PUSH2 0x323 DUP2 PUSH2 0x2E7 JUMP JUMPDEST SWAP1 POP SWAP2 SWAP1 POP JUMP INVALID PUSH1 0x80 PUSH1 0x40 MSTORE CALLVALUE DUP1 ISZERO PUSH3 0x11 JUMPI PUSH1 0x0 DUP1 REVERT JUMPDEST POP PUSH1 0x40 MLOAD PUSH3 0x80C CODESIZE SUB DUP1 PUSH3 0x80C DUP4 CODECOPY DUP2 DUP2 ADD PUSH1 0x40 MSTORE DUP2 ADD SWAP1 PUSH3 0x37 SWAP2 SWAP1 PUSH3 0x2A4 JUMP JUMPDEST DUP1 PUSH1 0x0 SWAP1 DUP1 MLOAD SWAP1 PUSH1 0x20 ADD SWAP1 PUSH3 0x4F SWAP3 SWAP2 SWAP1 PUSH3 0x57 JUMP JUMPDEST POP POP PUSH3 0x359 JUMP JUMPDEST DUP3 DUP1 SLOAD PUSH3 0x65 SWAP1 PUSH3 0x324 JUMP JUMPDEST SWAP1 PUSH1 0x0 MSTORE PUSH1 0x20 PUSH1 0x0 KECCAK256 SWAP1 PUSH1 0x1F ADD PUSH1 0x20 SWAP1 DIV DUP2 ADD SWAP3 DUP3 PUSH3 0x89 JUMPI PUSH1 0x0 DUP6 SSTORE PUSH3 0xD5 JUMP JUMPDEST DUP3 PUSH1 0x1F LT PUSH3 0xA4 JUMPI DUP1 MLOAD PUSH1 0xFF NOT AND DUP4 DUP1 ADD OR DUP6 SSTORE PUSH3 0xD5 JUMP JUMPDEST DUP3 DUP1 ADD PUSH1 0x1 ADD DUP6 SSTORE DUP3 ISZERO PUSH3 0xD5 JUMPI SWAP2 DUP3 ADD JUMPDEST DUP3 DUP2 GT ISZERO PUSH3 0xD4 JUMPI DUP3 MLOAD DUP3 SSTORE SWAP2 PUSH1 0x20 ADD SWAP2 SWAP1 PUSH1 0x1 ADD SWAP1 PUSH3 0xB7 JUMP JUMPDEST JUMPDEST POP SWAP1 POP PUSH3 0xE4 SWAP2 SWAP1 PUSH3 0xE8 JUMP JUMPDEST POP SWAP1 JUMP JUMPDEST JUMPDEST DUP1 DUP3 GT ISZERO PUSH3 0x103 JUMPI PUSH1 0x0 DUP2 PUSH1 0x0 SWAP1 SSTORE POP PUSH1 0x1 ADD PUSH3 0xE9 JUMP JUMPDEST POP SWAP1 JUMP JUMPDEST PUSH1 0x0 PUSH1 0x40 MLOAD SWAP1 POP SWAP1 JUMP JUMPDEST PUSH1 0x0 DUP1 REVERT JUMPDEST PUSH1 0x0 DUP1 REVERT JUMPDEST PUSH1 0x0 DUP1 REVERT JUMPDEST PUSH1 0x0 DUP1 REVERT JUMPDEST PUSH1 0x0 PUSH1 0x1F NOT PUSH1 0x1F DUP4 ADD AND SWAP1 POP SWAP2 SWAP1 POP JUMP JUMPDEST PUSH32 0x4E487B7100000000000000000000000000000000000000000000000000000000 PUSH1 0x0 MSTORE PUSH1 0x41 PUSH1 0x4 MSTORE PUSH1 0x24 PUSH1 0x0 REVERT JUMPDEST PUSH3 0x170 DUP3 PUSH3 0x125 JUMP JUMPDEST DUP2 ADD DUP2 DUP2 LT PUSH8 0xFFFFFFFFFFFFFFFF DUP3 GT OR ISZERO PUSH3 0x192 JUMPI PUSH3 0x191 PUSH3 0x136 JUMP JUMPDEST JUMPDEST DUP1 PUSH1 0x40 MSTORE POP POP POP JUMP JUMPDEST PUSH1 0x0 PUSH3 0x1A7 PUSH3 0x107 JUMP JUMPDEST SWAP1 POP PUSH3 0x1B5 DUP3 DUP3 PUSH3 0x165 JUMP JUMPDEST SWAP2 SWAP1 POP JUMP JUMPDEST PUSH1 0x0 PUSH8 0xFFFFFFFFFFFFFFFF DUP3 GT ISZERO PUSH3 0x1D8 JUMPI PUSH3 0x1D7 PUSH3 0x136 JUMP JUMPDEST JUMPDEST PUSH3 0x1E3 DUP3 PUSH3 0x125 JUMP JUMPDEST SWAP1 POP PUSH1 0x20 DUP2 ADD SWAP1 POP SWAP2 SWAP1 POP JUMP JUMPDEST PUSH1 0x0 JUMPDEST DUP4 DUP2 LT ISZERO PUSH3 0x210 JUMPI DUP1 DUP3 ADD MLOAD DUP2 DUP5 ADD MSTORE PUSH1 0x20 DUP2 ADD SWAP1 POP PUSH3 0x1F3 JUMP JUMPDEST DUP4 DUP2 GT ISZERO PUSH3 0x220 JUMPI PUSH1 0x0 DUP5 DUP5 ADD MSTORE JUMPDEST POP POP POP POP JUMP JUMPDEST PUSH1 0x0 PUSH3 0x23D PUSH3 0x237 DUP5 PUSH3 0x1BA JUMP JUMPDEST PUSH3 0x19B JUMP JUMPDEST SWAP1 POP DUP3 DUP2 MSTORE PUSH1 0x20 DUP2 ADD DUP5 DUP5 DUP5 ADD GT ISZERO PUSH3 0x25C JUMPI PUSH3 0x25B PUSH3 0x120 JUMP JUMPDEST JUMPDEST PUSH3 0x269 DUP5 DUP3 DUP6 PUSH3 0x1F0 JUMP JUMPDEST POP SWAP4 SWAP3 POP POP POP JUMP JUMPDEST PUSH1 0x0 DUP3 PUSH1 0x1F DUP4 ADD SLT PUSH3 0x289 JUMPI PUSH3 0x288 PUSH3 0x11B JUMP JUMPDEST JUMPDEST DUP2 MLOAD PUSH3 0x29B DUP5 DUP3 PUSH1 0x20 DUP7 ADD PUSH3 0x226 JUMP JUMPDEST SWAP2 POP POP SWAP3 SWAP2 POP POP JUMP JUMPDEST PUSH1 0x0 PUSH1 0x20 DUP3 DUP5 SUB SLT ISZERO PUSH3 0x2BD JUMPI PUSH3 0x2BC PUSH3 0x111 JUMP JUMPDEST JUMPDEST PUSH1 0x0 DUP3 ADD MLOAD PUSH8 0xFFFFFFFFFFFFFFFF DUP2 GT ISZERO PUSH3 0x2DE JUMPI PUSH3 0x2DD PUSH3 0x116 JUMP JUMPDEST JUMPDEST PUSH3 0x2EC DUP5 DUP3 DUP6 ADD PUSH3 0x271 JUMP JUMPDEST SWAP2 POP POP SWAP3 SWAP2 POP POP JUMP JUMPDEST PUSH32 0x4E487B7100000000000000000000000000000000000000000000000000000000 PUSH1 0x0 MSTORE PUSH1 0x22 PUSH1 0x4 MSTORE PUSH1 0x24 PUSH1 0x0 REVERT JUMPDEST PUSH1 0x0 PUSH1 0x2 DUP3 DIV SWAP1 POP PUSH1 0x1 DUP3 AND DUP1 PUSH3 0x33D JUMPI PUSH1 0x7F DUP3 AND SWAP2 POP JUMPDEST PUSH1 0x20 DUP3 LT DUP2 SUB PUSH3 0x353 JUMPI PUSH3 0x352 PUSH3 0x2F5 JUMP JUMPDEST JUMPDEST POP SWAP2 SWAP1 POP JUMP JUMPDEST PUSH2 0x4A3 DUP1 PUSH3 0x369 PUSH1 0x0 CODECOPY PUSH1 0x0 RETURN INVALID PUSH1 0x80 PUSH1 0x40 MSTORE CALLVALUE DUP1 ISZERO PUSH2 0x10 JUMPI PUSH1 0x0 DUP1 REVERT JUMPDEST POP PUSH1 0x4 CALLDATASIZE LT PUSH2 0x36 JUMPI PUSH1 0x0 CALLDATALOAD PUSH1 0xE0 SHR DUP1 PUSH4 0x238BB05D EQ PUSH2 0x3B JUMPI DUP1 PUSH4 0xCF08FED5 EQ PUSH2 0x57 JUMPI JUMPDEST PUSH1 0x0 DUP1 REVERT JUMPDEST PUSH2 0x55 PUSH1 0x4 DUP1 CALLDATASIZE SUB DUP2 ADD SWAP1 PUSH2 0x50 SWAP2 SWAP1 PUSH2 0x31A JUMP JUMPDEST PUSH2 0x75 JUMP JUMPDEST STOP JUMPDEST PUSH2 0x5F PUSH2 0x8F JUMP JUMPDEST PUSH1 0x40 MLOAD PUSH2 0x6C SWAP2 SWAP1 PUSH2 0x3EB JUMP JUMPDEST PUSH1 0x40 MLOAD DUP1 SWAP2 SUB SWAP1 RETURN JUMPDEST DUP1 PUSH1 0x0 SWAP1 DUP1 MLOAD SWAP1 PUSH1 0x20 ADD SWAP1 PUSH2 0x8B SWAP3 SWAP2 SWAP1 PUSH2 0x11D JUMP JUMPDEST POP POP JUMP JUMPDEST PUSH1 0x0 DUP1 SLOAD PUSH2 0x9C SWAP1 PUSH2 0x43C JUMP JUMPDEST DUP1 PUSH1 0x1F ADD PUSH1 0x20 DUP1 SWAP2 DIV MUL PUSH1 0x20 ADD PUSH1 0x40 MLOAD SWAP1 DUP2 ADD PUSH1 0x40 MSTORE DUP1 SWAP3 SWAP2 SWAP1 DUP2 DUP2 MSTORE PUSH1 0x20 ADD DUP3 DUP1 SLOAD PUSH2 0xC8 SWAP1 PUSH2 0x43C JUMP JUMPDEST DUP1 ISZERO PUSH2 0x115 JUMPI DUP1 PUSH1 0x1F LT PUSH2 0xEA JUMPI PUSH2 0x100 DUP1 DUP4 SLOAD DIV MUL DUP4 MSTORE SWAP2 PUSH1 0x20 ADD SWAP2 PUSH2 0x115 JUMP JUMPDEST DUP3 ADD SWAP2 SWAP1 PUSH1 0x0 MSTORE PUSH1 0x20 PUSH1 0x0 KECCAK256 SWAP1 JUMPDEST DUP2 SLOAD DUP2 MSTORE SWAP1 PUSH1 0x1 ADD SWAP1 PUSH1 0x20 ADD DUP1 DUP4 GT PUSH2 0xF8 JUMPI DUP3 SWAP1 SUB PUSH1 0x1F AND DUP3 ADD SWAP2 JUMPDEST POP POP POP POP POP DUP2 JUMP JUMPDEST DUP3 DUP1 SLOAD PUSH2 0x129 SWAP1 PUSH2 0x43C JUMP JUMPDEST SWAP1 PUSH1 0x0 MSTORE PUSH1 0x20 PUSH1 0x0 KECCAK256 SWAP1 PUSH1 0x1F ADD PUSH1 0x20 SWAP1 DIV DUP2 ADD SWAP3 DUP3 PUSH2 0x14B JUMPI PUSH1 0x0 DUP6 SSTORE PUSH2 0x192 JUMP JUMPDEST DUP3 PUSH1 0x1F LT PUSH2 0x164 JUMPI DUP1 MLOAD PUSH1 0xFF NOT AND DUP4 DUP1 ADD OR DUP6 SSTORE PUSH2 0x192 JUMP JUMPDEST DUP3 DUP1 ADD PUSH1 0x1 ADD DUP6 SSTORE DUP3 ISZERO PUSH2 0x192 JUMPI SWAP2 DUP3 ADD JUMPDEST DUP3 DUP2 GT ISZERO PUSH2 0x191 JUMPI DUP3 MLOAD DUP3 SSTORE SWAP2 PUSH1 0x20 ADD SWAP2 SWAP1 PUSH1 0x1 ADD SWAP1 PUSH2 0x176 JUMP JUMPDEST JUMPDEST POP SWAP1 POP PUSH2 0x19F SWAP2 SWAP1 PUSH2 0x1A3 JUMP JUMPDEST POP SWAP1 JUMP JUMPDEST JUMPDEST DUP1 DUP3 GT ISZERO PUSH2 0x1BC JUMPI PUSH1 0x0 DUP2 PUSH1 0x0 SWAP1 SSTORE POP PUSH1 0x1 ADD PUSH2 0x1A4 JUMP JUMPDEST POP SWAP1 JUMP JUMPDEST PUSH1 0x0 PUSH1 0x40 MLOAD SWAP1 POP SWAP1 JUMP JUMPDEST PUSH1 0x0 DUP1 REVERT JUMPDEST PUSH1 0x0 DUP1 REVERT JUMPDEST PUSH1 0x0 DUP1 REVERT JUMPDEST PUSH1 0x0 DUP1 REVERT JUMPDEST PUSH1 0x0 PUSH1 0x1F NOT PUSH1 0x1F DUP4 ADD AND SWAP1 POP SWAP2 SWAP1 POP JUMP JUMPDEST PUSH32 0x4E487B7100000000000000000000000000000000000000000000000000000000 PUSH1 0x0 MSTORE PUSH1 0x41 PUSH1 0x4 MSTORE PUSH1 0x24 PUSH1 0x0 REVERT JUMPDEST PUSH2 0x227 DUP3 PUSH2 0x1DE JUMP JUMPDEST DUP2 ADD DUP2 DUP2 LT PUSH8 0xFFFFFFFFFFFFFFFF DUP3 GT OR ISZERO PUSH2 0x246 JUMPI PUSH2 0x245 PUSH2 0x1EF JUMP JUMPDEST JUMPDEST DUP1 PUSH1 0x40 MSTORE POP POP POP JUMP JUMPDEST PUSH1 0x0 PUSH2 0x259 PUSH2 0x1C0 JUMP JUMPDEST SWAP1 POP PUSH2 0x265 DUP3 DUP3 PUSH2 0x21E JUMP JUMPDEST SWAP2 SWAP1 POP JUMP JUMPDEST PUSH1 0x0 PUSH8 0xFFFFFFFFFFFFFFFF DUP3 GT ISZERO PUSH2 0x285 JUMPI PUSH2 0x284 PUSH2 0x1EF JUMP JUMPDEST JUMPDEST PUSH2 0x28E DUP3 PUSH2 0x1DE JUMP JUMPDEST SWAP1 POP PUSH1 0x20 DUP2 ADD SWAP1 POP SWAP2 SWAP1 POP JUMP JUMPDEST DUP3 DUP2 DUP4 CALLDATACOPY PUSH1 0x0 DUP4 DUP4 ADD MSTORE POP POP POP JUMP JUMPDEST PUSH1 0x0 PUSH2 0x2BD PUSH2 0x2B8 DUP5 PUSH2 0x26A JUMP JUMPDEST PUSH2 0x24F JUMP JUMPDEST SWAP1 POP DUP3 DUP2 MSTORE PUSH1 0x20 DUP2 ADD DUP5 DUP5 DUP5 ADD GT ISZERO PUSH2 0x2D9 JUMPI PUSH2 0x2D8 PUSH2 0x1D9 JUMP JUMPDEST JUMPDEST PUSH2 0x2E4 DUP5 DUP3 DUP6 PUSH2 0x29B JUMP JUMPDEST POP SWAP4 SWAP3 POP POP POP JUMP JUMPDEST PUSH1 0x0 DUP3 PUSH1 0x1F DUP4 ADD SLT PUSH2 0x301 JUMPI PUSH2 0x300 PUSH2 0x1D4 JUMP JUMPDEST JUMPDEST DUP2 CALLDATALOAD PUSH2 0x311 DUP5 DUP3 PUSH1 0x20 DUP7 ADD PUSH2 0x2AA JUMP JUMPDEST SWAP2 POP POP SWAP3 SWAP2 POP POP JUMP JUMPDEST PUSH1 0x0 PUSH1 0x20 DUP3 DUP5 SUB SLT ISZERO PUSH2 0x330 JUMPI PUSH2 0x32F PUSH2 0x1CA JUMP JUMPDEST JUMPDEST PUSH1 0x0 DUP3 ADD CALLDATALOAD PUSH8 0xFFFFFFFFFFFFFFFF DUP2 GT ISZERO PUSH2 0x34E JUMPI PUSH2 0x34D PUSH2 0x1CF JUMP JUMPDEST JUMPDEST PUSH2 0x35A DUP5 DUP3 DUP6 ADD PUSH2 0x2EC JUMP JUMPDEST SWAP2 POP POP SWAP3 SWAP2 POP POP JUMP JUMPDEST PUSH1 0x0 DUP2 MLOAD SWAP1 POP SWAP2 SWAP1 POP JUMP JUMPDEST PUSH1 0x0 DUP3 DUP3 MSTORE PUSH1 0x20 DUP3 ADD SWAP1 POP SWAP3 SWAP2 POP POP JUMP JUMPDEST PUSH1 0x0 JUMPDEST DUP4 DUP2 LT ISZERO PUSH2 0x39D JUMPI DUP1 DUP3 ADD MLOAD DUP2 DUP5 ADD MSTORE PUSH1 0x20 DUP2 ADD SWAP1 POP PUSH2 0x382 JUMP JUMPDEST DUP4 DUP2 GT ISZERO PUSH2 0x3AC JUMPI PUSH1 0x0 DUP5 DUP5 ADD MSTORE JUMPDEST POP POP POP POP JUMP JUMPDEST PUSH1 0x0 PUSH2 0x3BD DUP3 PUSH2 0x363 JUMP JUMPDEST PUSH2 0x3C7 DUP2 DUP6 PUSH2 0x36E JUMP JUMPDEST SWAP4 POP PUSH2 0x3D7 DUP2 DUP6 PUSH1 0x20 DUP7 ADD PUSH2 0x37F JUMP JUMPDEST PUSH2 0x3E0 DUP2 PUSH2 0x1DE JUMP JUMPDEST DUP5 ADD SWAP2 POP POP SWAP3 SWAP2 POP POP JUMP JUMPDEST PUSH1 0x0 PUSH1 0x20 DUP3 ADD SWAP1 POP DUP2 DUP2 SUB PUSH1 0x0 DUP4 ADD MSTORE PUSH2 0x405 DUP2 DUP5 PUSH2 0x3B2 JUMP JUMPDEST SWAP1 POP SWAP3 SWAP2 POP POP JUMP JUMPDEST PUSH32 0x4E487B7100000000000000000000000000000000000000000000000000000000 PUSH1 0x0 MSTORE PUSH1 0x22 PUSH1 0x4 MSTORE PUSH1 0x24 PUSH1 0x0 REVERT JUMPDEST PUSH1 0x0 PUSH1 0x2 DUP3 DIV SWAP1 POP PUSH1 0x1 DUP3 AND DUP1 PUSH2 0x454 JUMPI PUSH1 0x7F DUP3 AND SWAP2 POP JUMPDEST PUSH1 0x20 DUP3 LT DUP2 SUB PUSH2 0x467 JUMPI PUSH2 0x466 PUSH2 0x40D JUMP JUMPDEST JUMPDEST POP SWAP2 SWAP1 POP JUMP INVALID LOG2 PUSH5 0x6970667358 0x22 SLT KECCAK256 0xAC DUP9 0x2B 0xB2 0xE5 0xDB RETURNDATASIZE CALLCODE 0xEE BASEFEE EQ 0xA7 SWAP9 0x22 SDIV 0x5D 0xC0 CALLER SWAP9 0xD3 0xDA DUP2 0xE8 GASPRICE 0x4A PUSH15 0xF3EF33C7B7D064736F6C634300080D STOP CALLER LOG2 PUSH5 0x6970667358 0x22 SLT KECCAK256 0xAE MSTORE 0xE2 CREATE RETURNDATASIZE 0xEF 0xCD SWAP16 0xBD 0xCB 0xD5 PUSH2 0x9F12 0x2E SWAP4 SWAP10 0x2C 0xDE COINBASE 0xE2 0xA6 PUSH18 0x33605B5662B14B5AB64736F6C634300080D STOP CALLER "
				},
				"gasEstimates": {
					"creation": {
						"codeDepositCost": "584800",
						"executionCost": "619",
						"totalCost": "585419"
					},
					"external": {
						"change()": "infinite",
						"deploy()": "infinite",
						"newCar()": "infinite"
					}
				},
				"methodIdentifiers": {
					"change()": "2ee79ded",
					"deploy()": "775c300c",
					"newCar()": "fdb9c793"
				}
			},
			"storageLayout": {
				"storage": [
					{
						"astId": 4,
						"contract": "training/contracts/OnetoAnother.sol:Toyota",
						"label": "newCar",
						"offset": 0,
						"slot": "0",
						"type": "t_contract(Car)50"
					}
				],
				"types": {
					"t_contract(Car)50": {
						"encoding": "inplace",
						"label": "contract Car",
						"numberOfBytes": "20"
					}
				}
			},
			"userdoc": {
				"kind": "user",
				"methods": {},
				"version": 1
			}
		}
	}
}