{
	"data": {
		"bytecode": {
			"linkReferences": {},
			"object": "608060405234801561001057600080fd5b506102c4806100206000396000f3fe608060405234801561001057600080fd5b50600436106100625760003560e01c80630209f982146100675780630dbe671f146100855780634df7e3d0146100a35780634f2be91f146100c1578063853255cc146100cb578063f9fa48c3146100e9575b600080fd5b61006f6100f3565b60405161007c919061018e565b60405180910390f35b61008d6100f9565b60405161009a919061018e565b60405180910390f35b6100ab6100ff565b6040516100b8919061018e565b60405180910390f35b6100c9610105565b005b6100d3610124565b6040516100e0919061018e565b60405180910390f35b6100f161012a565b005b60035481565b60005481565b60015481565b61011c60015460005461014990919063ffffffff16565b600281905550565b60025481565b61014160015460005461015f90919063ffffffff16565b600381905550565b6000818361015791906101d8565b905092915050565b6000818361016d919061025d565b905092915050565b6000819050919050565b61018881610175565b82525050565b60006020820190506101a3600083018461017f565b92915050565b7f4e487b7100000000000000000000000000000000000000000000000000000000600052601160045260246000fd5b60006101e382610175565b91506101ee83610175565b9250827fffffffffffffffffffffffffffffffffffffffffffffffffffffffffffffffff03821115610223576102226101a9565b5b828201905092915050565b7f4e487b7100000000000000000000000000000000000000000000000000000000600052601260045260246000fd5b600061026882610175565b915061027383610175565b9250826102835761028261022e565b5b82820490509291505056fea26469706673582212202d6b4efc280bd9e265c6d5a634d9e495bef2776c71eb41c58e3cd1ed1c796eb464736f6c63430008090033",
			"opcodes": "PUSH1 0x80 PUSH1 0x40 MSTORE CALLVALUE DUP1 ISZERO PUSH2 0x10 JUMPI PUSH1 0x0 DUP1 REVERT JUMPDEST POP PUSH2 0x2C4 DUP1 PUSH2 0x20 PUSH1 0x0 CODECOPY PUSH1 0x0 RETURN INVALID PUSH1 0x80 PUSH1 0x40 MSTORE CALLVALUE DUP1 ISZERO PUSH2 0x10 JUMPI PUSH1 0x0 DUP1 REVERT JUMPDEST POP PUSH1 0x4 CALLDATASIZE LT PUSH2 0x62 JUMPI PUSH1 0x0 CALLDATALOAD PUSH1 0xE0 SHR DUP1 PUSH4 0x209F982 EQ PUSH2 0x67 JUMPI DUP1 PUSH4 0xDBE671F EQ PUSH2 0x85 JUMPI DUP1 PUSH4 0x4DF7E3D0 EQ PUSH2 0xA3 JUMPI DUP1 PUSH4 0x4F2BE91F EQ PUSH2 0xC1 JUMPI DUP1 PUSH4 0x853255CC EQ PUSH2 0xCB JUMPI DUP1 PUSH4 0xF9FA48C3 EQ PUSH2 0xE9 JUMPI JUMPDEST PUSH1 0x0 DUP1 REVERT JUMPDEST PUSH2 0x6F PUSH2 0xF3 JUMP JUMPDEST PUSH1 0x40 MLOAD PUSH2 0x7C SWAP2 SWAP1 PUSH2 0x18E JUMP JUMPDEST PUSH1 0x40 MLOAD DUP1 SWAP2 SUB SWAP1 RETURN JUMPDEST PUSH2 0x8D PUSH2 0xF9 JUMP JUMPDEST PUSH1 0x40 MLOAD PUSH2 0x9A SWAP2 SWAP1 PUSH2 0x18E JUMP JUMPDEST PUSH1 0x40 MLOAD DUP1 SWAP2 SUB SWAP1 RETURN JUMPDEST PUSH2 0xAB PUSH2 0xFF JUMP JUMPDEST PUSH1 0x40 MLOAD PUSH2 0xB8 SWAP2 SWAP1 PUSH2 0x18E JUMP JUMPDEST PUSH1 0x40 MLOAD DUP1 SWAP2 SUB SWAP1 RETURN JUMPDEST PUSH2 0xC9 PUSH2 0x105 JUMP JUMPDEST STOP JUMPDEST PUSH2 0xD3 PUSH2 0x124 JUMP JUMPDEST PUSH1 0x40 MLOAD PUSH2 0xE0 SWAP2 SWAP1 PUSH2 0x18E JUMP JUMPDEST PUSH1 0x40 MLOAD DUP1 SWAP2 SUB SWAP1 RETURN JUMPDEST PUSH2 0xF1 PUSH2 0x12A JUMP JUMPDEST STOP JUMPDEST PUSH1 0x3 SLOAD DUP2 JUMP JUMPDEST PUSH1 0x0 SLOAD DUP2 JUMP JUMPDEST PUSH1 0x1 SLOAD DUP2 JUMP JUMPDEST PUSH2 0x11C PUSH1 0x1 SLOAD PUSH1 0x0 SLOAD PUSH2 0x149 SWAP1 SWAP2 SWAP1 PUSH4 0xFFFFFFFF AND JUMP JUMPDEST PUSH1 0x2 DUP2 SWAP1 SSTORE POP JUMP JUMPDEST PUSH1 0x2 SLOAD DUP2 JUMP JUMPDEST PUSH2 0x141 PUSH1 0x1 SLOAD PUSH1 0x0 SLOAD PUSH2 0x15F SWAP1 SWAP2 SWAP1 PUSH4 0xFFFFFFFF AND JUMP JUMPDEST PUSH1 0x3 DUP2 SWAP1 SSTORE POP JUMP JUMPDEST PUSH1 0x0 DUP2 DUP4 PUSH2 0x157 SWAP2 SWAP1 PUSH2 0x1D8 JUMP JUMPDEST SWAP1 POP SWAP3 SWAP2 POP POP JUMP JUMPDEST PUSH1 0x0 DUP2 DUP4 PUSH2 0x16D SWAP2 SWAP1 PUSH2 0x25D JUMP JUMPDEST SWAP1 POP SWAP3 SWAP2 POP POP JUMP JUMPDEST PUSH1 0x0 DUP2 SWAP1 POP SWAP2 SWAP1 POP JUMP JUMPDEST PUSH2 0x188 DUP2 PUSH2 0x175 JUMP JUMPDEST DUP3 MSTORE POP POP JUMP JUMPDEST PUSH1 0x0 PUSH1 0x20 DUP3 ADD SWAP1 POP PUSH2 0x1A3 PUSH1 0x0 DUP4 ADD DUP5 PUSH2 0x17F JUMP JUMPDEST SWAP3 SWAP2 POP POP JUMP JUMPDEST PUSH32 0x4E487B7100000000000000000000000000000000000000000000000000000000 PUSH1 0x0 MSTORE PUSH1 0x11 PUSH1 0x4 MSTORE PUSH1 0x24 PUSH1 0x0 REVERT JUMPDEST PUSH1 0x0 PUSH2 0x1E3 DUP3 PUSH2 0x175 JUMP JUMPDEST SWAP2 POP PUSH2 0x1EE DUP4 PUSH2 0x175 JUMP JUMPDEST SWAP3 POP DUP3 PUSH32 0xFFFFFFFFFFFFFFFFFFFFFFFFFFFFFFFFFFFFFFFFFFFFFFFFFFFFFFFFFFFFFFFF SUB DUP3 GT ISZERO PUSH2 0x223 JUMPI PUSH2 0x222 PUSH2 0x1A9 JUMP JUMPDEST JUMPDEST DUP3 DUP3 ADD SWAP1 POP SWAP3 SWAP2 POP POP JUMP JUMPDEST PUSH32 0x4E487B7100000000000000000000000000000000000000000000000000000000 PUSH1 0x0 MSTORE PUSH1 0x12 PUSH1 0x4 MSTORE PUSH1 0x24 PUSH1 0x0 REVERT JUMPDEST PUSH1 0x0 PUSH2 0x268 DUP3 PUSH2 0x175 JUMP JUMPDEST SWAP2 POP PUSH2 0x273 DUP4 PUSH2 0x175 JUMP JUMPDEST SWAP3 POP DUP3 PUSH2 0x283 JUMPI PUSH2 0x282 PUSH2 0x22E JUMP JUMPDEST JUMPDEST DUP3 DUP3 DIV SWAP1 POP SWAP3 SWAP2 POP POP JUMP INVALID LOG2 PUSH5 0x6970667358 0x22 SLT KECCAK256 0x2D PUSH12 0x4EFC280BD9E265C6D5A634D9 0xE4 SWAP6 0xBE CALLCODE PUSH24 0x6C71EB41C58E3CD1ED1C796EB464736F6C63430008090033 "
		},
		"gasEstimates": {
			"creation": {
				"codeDepositCost": "141600",
				"executionCost": "190",
				"totalCost": "141790"
			},
			"external": {
				"a()": "2429",
				"add()": "infinite",
				"b()": "2451",
				"div()": "infinite",
				"reminder()": "2407",
				"sum()": "2495"
			}
		},
		"methodIdentifiers": {
			"a()": "0dbe671f",
			"add()": "4f2be91f",
			"b()": "4df7e3d0",
			"div()": "f9fa48c3",
			"reminder()": "0209f982",
			"sum()": "853255cc"
		}
	},
	"abi": [
		{
			"inputs": [],
			"name": "a",
			"outputs": [
				{
					"internalType": "uint256",
					"name": "",
					"type": "uint256"
				}
			],
			"stateMutability": "view",
			"type": "function"
		},
		{
			"inputs": [],
			"name": "add",
			"outputs": [],
			"stateMutability": "nonpayable",
			"type": "function"
		},
		{
			"inputs": [],
			"name": "b",
			"outputs": [
				{
					"internalType": "uint256",
					"name": "",
					"type": "uint256"
				}
			],
			"stateMutability": "view",
			"type": "function"
		},
		{
			"inputs": [],
			"name": "div",
			"outputs": [],
			"stateMutability": "nonpayable",
			"type": "function"
		},
		{
			"inputs": [],
			"name": "reminder",
			"outputs": [
				{
					"internalType": "uint256",
					"name": "",
					"type": "uint256"
				}
			],
			"stateMutability": "view",
			"type": "function"
		},
		{
			"inputs": [],
			"name": "sum",
			"outputs": [
				{
					"internalType": "uint256",
					"name": "",
					"type": "uint256"
				}
			],
			"stateMutability": "view",
			"type": "function"
		}
	]
}