{
	"data": {
		"bytecode": {
			"linkReferences": {},
			"object": "6080604052600a60005560036001556040518060400160405280600581526020017f6d6975756c0000000000000000000000000000000000000000000000000000008152506003908051906020019061005992919061006c565b5034801561006657600080fd5b50610170565b8280546100789061010f565b90600052602060002090601f01602090048101928261009a57600085556100e1565b82601f106100b357805160ff19168380011785556100e1565b828001600101855582156100e1579182015b828111156100e05782518255916020019190600101906100c5565b5b5090506100ee91906100f2565b5090565b5b8082111561010b5760008160009055506001016100f3565b5090565b6000600282049050600182168061012757607f821691505b6020821081141561013b5761013a610141565b5b50919050565b7f4e487b7100000000000000000000000000000000000000000000000000000000600052602260045260246000fd5b6107348061017f6000396000f3fe608060405234801561001057600080fd5b50600436106100885760003560e01c80634df7e3d01161005b5780634df7e3d0146101065780637fcaf66614610124578063853255cc146101405780638da927771461015e57610088565b806306fdde031461008d5780630dbe671f146100ab578063362f0472146100c95780633bc5de30146100e8575b600080fd5b61009561017d565b6040516100a29190610463565b60405180910390f35b6100b361020b565b6040516100c09190610485565b60405180910390f35b6100d1610211565b6040516100df92919061043a565b60405180910390f35b6100f0610220565b6040516100fd9190610485565b60405180910390f35b61010e610241565b60405161011b9190610485565b60405180910390f35b61013e6004803603810190610139919061038b565b610247565b005b610148610261565b6040516101559190610485565b60405180910390f35b610166610267565b6040516101749291906104a0565b60405180910390f35b6003805461018a906105a0565b80601f01602080910402602001604051908101604052809291908181526020018280546101b6906105a0565b80156102035780601f106101d857610100808354040283529160200191610203565b820191906000526020600020905b8154815290600101906020018083116101e657829003601f168201915b505050505081565b60005481565b60008060166001915091509091565b600080600081548092919061023490610603565b9190505550600054905090565b60015481565b806003908051906020019061025d929190610278565b5050565b60025481565b600080600054600154915091509091565b828054610284906105a0565b90600052602060002090601f0160209004810192826102a657600085556102ed565b82601f106102bf57805160ff19168380011785556102ed565b828001600101855582156102ed579182015b828111156102ec5782518255916020019190600101906102d1565b5b5090506102fa91906102fe565b5090565b5b808211156103175760008160009055506001016102ff565b5090565b600061032e610329846104ee565b6104c9565b90508281526020810184848401111561034a576103496106de565b5b61035584828561055e565b509392505050565b600082601f830112610372576103716106d9565b5b813561038284826020860161031b565b91505092915050565b6000602082840312156103a1576103a06106e8565b5b600082013567ffffffffffffffff8111156103bf576103be6106e3565b5b6103cb8482850161035d565b91505092915050565b6103dd8161053b565b82525050565b6103ec81610547565b82525050565b60006103fd8261051f565b610407818561052a565b935061041781856020860161056d565b610420816106ed565b840191505092915050565b61043481610554565b82525050565b600060408201905061044f60008301856103e3565b61045c60208301846103d4565b9392505050565b6000602082019050818103600083015261047d81846103f2565b905092915050565b600060208201905061049a600083018461042b565b92915050565b60006040820190506104b5600083018561042b565b6104c2602083018461042b565b9392505050565b60006104d36104e4565b90506104df82826105d2565b919050565b6000604051905090565b600067ffffffffffffffff821115610509576105086106aa565b5b610512826106ed565b9050602081019050919050565b600081519050919050565b600082825260208201905092915050565b60008115159050919050565b60008160010b9050919050565b6000819050919050565b82818337600083830152505050565b60005b8381101561058b578082015181840152602081019050610570565b8381111561059a576000848401525b50505050565b600060028204905060018216806105b857607f821691505b602082108114156105cc576105cb61067b565b5b50919050565b6105db826106ed565b810181811067ffffffffffffffff821117156105fa576105f96106aa565b5b80604052505050565b600061060e82610554565b91507fffffffffffffffffffffffffffffffffffffffffffffffffffffffffffffffff8214156106415761064061064c565b5b600182019050919050565b7f4e487b7100000000000000000000000000000000000000000000000000000000600052601160045260246000fd5b7f4e487b7100000000000000000000000000000000000000000000000000000000600052602260045260246000fd5b7f4e487b7100000000000000000000000000000000000000000000000000000000600052604160045260246000fd5b600080fd5b600080fd5b600080fd5b600080fd5b6000601f19601f830116905091905056fea2646970667358221220f7d0bfe8549c7f36a7e183149e6cc7c2dc48121e8f8eb9f60ff87d6c1e97b56f64736f6c63430008070033",
			"opcodes": "PUSH1 0x80 PUSH1 0x40 MSTORE PUSH1 0xA PUSH1 0x0 SSTORE PUSH1 0x3 PUSH1 0x1 SSTORE PUSH1 0x40 MLOAD DUP1 PUSH1 0x40 ADD PUSH1 0x40 MSTORE DUP1 PUSH1 0x5 DUP2 MSTORE PUSH1 0x20 ADD PUSH32 0x6D6975756C000000000000000000000000000000000000000000000000000000 DUP2 MSTORE POP PUSH1 0x3 SWAP1 DUP1 MLOAD SWAP1 PUSH1 0x20 ADD SWAP1 PUSH2 0x59 SWAP3 SWAP2 SWAP1 PUSH2 0x6C JUMP JUMPDEST POP CALLVALUE DUP1 ISZERO PUSH2 0x66 JUMPI PUSH1 0x0 DUP1 REVERT JUMPDEST POP PUSH2 0x170 JUMP JUMPDEST DUP3 DUP1 SLOAD PUSH2 0x78 SWAP1 PUSH2 0x10F JUMP JUMPDEST SWAP1 PUSH1 0x0 MSTORE PUSH1 0x20 PUSH1 0x0 KECCAK256 SWAP1 PUSH1 0x1F ADD PUSH1 0x20 SWAP1 DIV DUP2 ADD SWAP3 DUP3 PUSH2 0x9A JUMPI PUSH1 0x0 DUP6 SSTORE PUSH2 0xE1 JUMP JUMPDEST DUP3 PUSH1 0x1F LT PUSH2 0xB3 JUMPI DUP1 MLOAD PUSH1 0xFF NOT AND DUP4 DUP1 ADD OR DUP6 SSTORE PUSH2 0xE1 JUMP JUMPDEST DUP3 DUP1 ADD PUSH1 0x1 ADD DUP6 SSTORE DUP3 ISZERO PUSH2 0xE1 JUMPI SWAP2 DUP3 ADD JUMPDEST DUP3 DUP2 GT ISZERO PUSH2 0xE0 JUMPI DUP3 MLOAD DUP3 SSTORE SWAP2 PUSH1 0x20 ADD SWAP2 SWAP1 PUSH1 0x1 ADD SWAP1 PUSH2 0xC5 JUMP JUMPDEST JUMPDEST POP SWAP1 POP PUSH2 0xEE SWAP2 SWAP1 PUSH2 0xF2 JUMP JUMPDEST POP SWAP1 JUMP JUMPDEST JUMPDEST DUP1 DUP3 GT ISZERO PUSH2 0x10B JUMPI PUSH1 0x0 DUP2 PUSH1 0x0 SWAP1 SSTORE POP PUSH1 0x1 ADD PUSH2 0xF3 JUMP JUMPDEST POP SWAP1 JUMP JUMPDEST PUSH1 0x0 PUSH1 0x2 DUP3 DIV SWAP1 POP PUSH1 0x1 DUP3 AND DUP1 PUSH2 0x127 JUMPI PUSH1 0x7F DUP3 AND SWAP2 POP JUMPDEST PUSH1 0x20 DUP3 LT DUP2 EQ ISZERO PUSH2 0x13B JUMPI PUSH2 0x13A PUSH2 0x141 JUMP JUMPDEST JUMPDEST POP SWAP2 SWAP1 POP JUMP JUMPDEST PUSH32 0x4E487B7100000000000000000000000000000000000000000000000000000000 PUSH1 0x0 MSTORE PUSH1 0x22 PUSH1 0x4 MSTORE PUSH1 0x24 PUSH1 0x0 REVERT JUMPDEST PUSH2 0x734 DUP1 PUSH2 0x17F PUSH1 0x0 CODECOPY PUSH1 0x0 RETURN INVALID PUSH1 0x80 PUSH1 0x40 MSTORE CALLVALUE DUP1 ISZERO PUSH2 0x10 JUMPI PUSH1 0x0 DUP1 REVERT JUMPDEST POP PUSH1 0x4 CALLDATASIZE LT PUSH2 0x88 JUMPI PUSH1 0x0 CALLDATALOAD PUSH1 0xE0 SHR DUP1 PUSH4 0x4DF7E3D0 GT PUSH2 0x5B JUMPI DUP1 PUSH4 0x4DF7E3D0 EQ PUSH2 0x106 JUMPI DUP1 PUSH4 0x7FCAF666 EQ PUSH2 0x124 JUMPI DUP1 PUSH4 0x853255CC EQ PUSH2 0x140 JUMPI DUP1 PUSH4 0x8DA92777 EQ PUSH2 0x15E JUMPI PUSH2 0x88 JUMP JUMPDEST DUP1 PUSH4 0x6FDDE03 EQ PUSH2 0x8D JUMPI DUP1 PUSH4 0xDBE671F EQ PUSH2 0xAB JUMPI DUP1 PUSH4 0x362F0472 EQ PUSH2 0xC9 JUMPI DUP1 PUSH4 0x3BC5DE30 EQ PUSH2 0xE8 JUMPI JUMPDEST PUSH1 0x0 DUP1 REVERT JUMPDEST PUSH2 0x95 PUSH2 0x17D JUMP JUMPDEST PUSH1 0x40 MLOAD PUSH2 0xA2 SWAP2 SWAP1 PUSH2 0x463 JUMP JUMPDEST PUSH1 0x40 MLOAD DUP1 SWAP2 SUB SWAP1 RETURN JUMPDEST PUSH2 0xB3 PUSH2 0x20B JUMP JUMPDEST PUSH1 0x40 MLOAD PUSH2 0xC0 SWAP2 SWAP1 PUSH2 0x485 JUMP JUMPDEST PUSH1 0x40 MLOAD DUP1 SWAP2 SUB SWAP1 RETURN JUMPDEST PUSH2 0xD1 PUSH2 0x211 JUMP JUMPDEST PUSH1 0x40 MLOAD PUSH2 0xDF SWAP3 SWAP2 SWAP1 PUSH2 0x43A JUMP JUMPDEST PUSH1 0x40 MLOAD DUP1 SWAP2 SUB SWAP1 RETURN JUMPDEST PUSH2 0xF0 PUSH2 0x220 JUMP JUMPDEST PUSH1 0x40 MLOAD PUSH2 0xFD SWAP2 SWAP1 PUSH2 0x485 JUMP JUMPDEST PUSH1 0x40 MLOAD DUP1 SWAP2 SUB SWAP1 RETURN JUMPDEST PUSH2 0x10E PUSH2 0x241 JUMP JUMPDEST PUSH1 0x40 MLOAD PUSH2 0x11B SWAP2 SWAP1 PUSH2 0x485 JUMP JUMPDEST PUSH1 0x40 MLOAD DUP1 SWAP2 SUB SWAP1 RETURN JUMPDEST PUSH2 0x13E PUSH1 0x4 DUP1 CALLDATASIZE SUB DUP2 ADD SWAP1 PUSH2 0x139 SWAP2 SWAP1 PUSH2 0x38B JUMP JUMPDEST PUSH2 0x247 JUMP JUMPDEST STOP JUMPDEST PUSH2 0x148 PUSH2 0x261 JUMP JUMPDEST PUSH1 0x40 MLOAD PUSH2 0x155 SWAP2 SWAP1 PUSH2 0x485 JUMP JUMPDEST PUSH1 0x40 MLOAD DUP1 SWAP2 SUB SWAP1 RETURN JUMPDEST PUSH2 0x166 PUSH2 0x267 JUMP JUMPDEST PUSH1 0x40 MLOAD PUSH2 0x174 SWAP3 SWAP2 SWAP1 PUSH2 0x4A0 JUMP JUMPDEST PUSH1 0x40 MLOAD DUP1 SWAP2 SUB SWAP1 RETURN JUMPDEST PUSH1 0x3 DUP1 SLOAD PUSH2 0x18A SWAP1 PUSH2 0x5A0 JUMP JUMPDEST DUP1 PUSH1 0x1F ADD PUSH1 0x20 DUP1 SWAP2 DIV MUL PUSH1 0x20 ADD PUSH1 0x40 MLOAD SWAP1 DUP2 ADD PUSH1 0x40 MSTORE DUP1 SWAP3 SWAP2 SWAP1 DUP2 DUP2 MSTORE PUSH1 0x20 ADD DUP3 DUP1 SLOAD PUSH2 0x1B6 SWAP1 PUSH2 0x5A0 JUMP JUMPDEST DUP1 ISZERO PUSH2 0x203 JUMPI DUP1 PUSH1 0x1F LT PUSH2 0x1D8 JUMPI PUSH2 0x100 DUP1 DUP4 SLOAD DIV MUL DUP4 MSTORE SWAP2 PUSH1 0x20 ADD SWAP2 PUSH2 0x203 JUMP JUMPDEST DUP3 ADD SWAP2 SWAP1 PUSH1 0x0 MSTORE PUSH1 0x20 PUSH1 0x0 KECCAK256 SWAP1 JUMPDEST DUP2 SLOAD DUP2 MSTORE SWAP1 PUSH1 0x1 ADD SWAP1 PUSH1 0x20 ADD DUP1 DUP4 GT PUSH2 0x1E6 JUMPI DUP3 SWAP1 SUB PUSH1 0x1F AND DUP3 ADD SWAP2 JUMPDEST POP POP POP POP POP DUP2 JUMP JUMPDEST PUSH1 0x0 SLOAD DUP2 JUMP JUMPDEST PUSH1 0x0 DUP1 PUSH1 0x16 PUSH1 0x1 SWAP2 POP SWAP2 POP SWAP1 SWAP2 JUMP JUMPDEST PUSH1 0x0 DUP1 PUSH1 0x0 DUP2 SLOAD DUP1 SWAP3 SWAP2 SWAP1 PUSH2 0x234 SWAP1 PUSH2 0x603 JUMP JUMPDEST SWAP2 SWAP1 POP SSTORE POP PUSH1 0x0 SLOAD SWAP1 POP SWAP1 JUMP JUMPDEST PUSH1 0x1 SLOAD DUP2 JUMP JUMPDEST DUP1 PUSH1 0x3 SWAP1 DUP1 MLOAD SWAP1 PUSH1 0x20 ADD SWAP1 PUSH2 0x25D SWAP3 SWAP2 SWAP1 PUSH2 0x278 JUMP JUMPDEST POP POP JUMP JUMPDEST PUSH1 0x2 SLOAD DUP2 JUMP JUMPDEST PUSH1 0x0 DUP1 PUSH1 0x0 SLOAD PUSH1 0x1 SLOAD SWAP2 POP SWAP2 POP SWAP1 SWAP2 JUMP JUMPDEST DUP3 DUP1 SLOAD PUSH2 0x284 SWAP1 PUSH2 0x5A0 JUMP JUMPDEST SWAP1 PUSH1 0x0 MSTORE PUSH1 0x20 PUSH1 0x0 KECCAK256 SWAP1 PUSH1 0x1F ADD PUSH1 0x20 SWAP1 DIV DUP2 ADD SWAP3 DUP3 PUSH2 0x2A6 JUMPI PUSH1 0x0 DUP6 SSTORE PUSH2 0x2ED JUMP JUMPDEST DUP3 PUSH1 0x1F LT PUSH2 0x2BF JUMPI DUP1 MLOAD PUSH1 0xFF NOT AND DUP4 DUP1 ADD OR DUP6 SSTORE PUSH2 0x2ED JUMP JUMPDEST DUP3 DUP1 ADD PUSH1 0x1 ADD DUP6 SSTORE DUP3 ISZERO PUSH2 0x2ED JUMPI SWAP2 DUP3 ADD JUMPDEST DUP3 DUP2 GT ISZERO PUSH2 0x2EC JUMPI DUP3 MLOAD DUP3 SSTORE SWAP2 PUSH1 0x20 ADD SWAP2 SWAP1 PUSH1 0x1 ADD SWAP1 PUSH2 0x2D1 JUMP JUMPDEST JUMPDEST POP SWAP1 POP PUSH2 0x2FA SWAP2 SWAP1 PUSH2 0x2FE JUMP JUMPDEST POP SWAP1 JUMP JUMPDEST JUMPDEST DUP1 DUP3 GT ISZERO PUSH2 0x317 JUMPI PUSH1 0x0 DUP2 PUSH1 0x0 SWAP1 SSTORE POP PUSH1 0x1 ADD PUSH2 0x2FF JUMP JUMPDEST POP SWAP1 JUMP JUMPDEST PUSH1 0x0 PUSH2 0x32E PUSH2 0x329 DUP5 PUSH2 0x4EE JUMP JUMPDEST PUSH2 0x4C9 JUMP JUMPDEST SWAP1 POP DUP3 DUP2 MSTORE PUSH1 0x20 DUP2 ADD DUP5 DUP5 DUP5 ADD GT ISZERO PUSH2 0x34A JUMPI PUSH2 0x349 PUSH2 0x6DE JUMP JUMPDEST JUMPDEST PUSH2 0x355 DUP5 DUP3 DUP6 PUSH2 0x55E JUMP JUMPDEST POP SWAP4 SWAP3 POP POP POP JUMP JUMPDEST PUSH1 0x0 DUP3 PUSH1 0x1F DUP4 ADD SLT PUSH2 0x372 JUMPI PUSH2 0x371 PUSH2 0x6D9 JUMP JUMPDEST JUMPDEST DUP2 CALLDATALOAD PUSH2 0x382 DUP5 DUP3 PUSH1 0x20 DUP7 ADD PUSH2 0x31B JUMP JUMPDEST SWAP2 POP POP SWAP3 SWAP2 POP POP JUMP JUMPDEST PUSH1 0x0 PUSH1 0x20 DUP3 DUP5 SUB SLT ISZERO PUSH2 0x3A1 JUMPI PUSH2 0x3A0 PUSH2 0x6E8 JUMP JUMPDEST JUMPDEST PUSH1 0x0 DUP3 ADD CALLDATALOAD PUSH8 0xFFFFFFFFFFFFFFFF DUP2 GT ISZERO PUSH2 0x3BF JUMPI PUSH2 0x3BE PUSH2 0x6E3 JUMP JUMPDEST JUMPDEST PUSH2 0x3CB DUP5 DUP3 DUP6 ADD PUSH2 0x35D JUMP JUMPDEST SWAP2 POP POP SWAP3 SWAP2 POP POP JUMP JUMPDEST PUSH2 0x3DD DUP2 PUSH2 0x53B JUMP JUMPDEST DUP3 MSTORE POP POP JUMP JUMPDEST PUSH2 0x3EC DUP2 PUSH2 0x547 JUMP JUMPDEST DUP3 MSTORE POP POP JUMP JUMPDEST PUSH1 0x0 PUSH2 0x3FD DUP3 PUSH2 0x51F JUMP JUMPDEST PUSH2 0x407 DUP2 DUP6 PUSH2 0x52A JUMP JUMPDEST SWAP4 POP PUSH2 0x417 DUP2 DUP6 PUSH1 0x20 DUP7 ADD PUSH2 0x56D JUMP JUMPDEST PUSH2 0x420 DUP2 PUSH2 0x6ED JUMP JUMPDEST DUP5 ADD SWAP2 POP POP SWAP3 SWAP2 POP POP JUMP JUMPDEST PUSH2 0x434 DUP2 PUSH2 0x554 JUMP JUMPDEST DUP3 MSTORE POP POP JUMP JUMPDEST PUSH1 0x0 PUSH1 0x40 DUP3 ADD SWAP1 POP PUSH2 0x44F PUSH1 0x0 DUP4 ADD DUP6 PUSH2 0x3E3 JUMP JUMPDEST PUSH2 0x45C PUSH1 0x20 DUP4 ADD DUP5 PUSH2 0x3D4 JUMP JUMPDEST SWAP4 SWAP3 POP POP POP JUMP JUMPDEST PUSH1 0x0 PUSH1 0x20 DUP3 ADD SWAP1 POP DUP2 DUP2 SUB PUSH1 0x0 DUP4 ADD MSTORE PUSH2 0x47D DUP2 DUP5 PUSH2 0x3F2 JUMP JUMPDEST SWAP1 POP SWAP3 SWAP2 POP POP JUMP JUMPDEST PUSH1 0x0 PUSH1 0x20 DUP3 ADD SWAP1 POP PUSH2 0x49A PUSH1 0x0 DUP4 ADD DUP5 PUSH2 0x42B JUMP JUMPDEST SWAP3 SWAP2 POP POP JUMP JUMPDEST PUSH1 0x0 PUSH1 0x40 DUP3 ADD SWAP1 POP PUSH2 0x4B5 PUSH1 0x0 DUP4 ADD DUP6 PUSH2 0x42B JUMP JUMPDEST PUSH2 0x4C2 PUSH1 0x20 DUP4 ADD DUP5 PUSH2 0x42B JUMP JUMPDEST SWAP4 SWAP3 POP POP POP JUMP JUMPDEST PUSH1 0x0 PUSH2 0x4D3 PUSH2 0x4E4 JUMP JUMPDEST SWAP1 POP PUSH2 0x4DF DUP3 DUP3 PUSH2 0x5D2 JUMP JUMPDEST SWAP2 SWAP1 POP JUMP JUMPDEST PUSH1 0x0 PUSH1 0x40 MLOAD SWAP1 POP SWAP1 JUMP JUMPDEST PUSH1 0x0 PUSH8 0xFFFFFFFFFFFFFFFF DUP3 GT ISZERO PUSH2 0x509 JUMPI PUSH2 0x508 PUSH2 0x6AA JUMP JUMPDEST JUMPDEST PUSH2 0x512 DUP3 PUSH2 0x6ED JUMP JUMPDEST SWAP1 POP PUSH1 0x20 DUP2 ADD SWAP1 POP SWAP2 SWAP1 POP JUMP JUMPDEST PUSH1 0x0 DUP2 MLOAD SWAP1 POP SWAP2 SWAP1 POP JUMP JUMPDEST PUSH1 0x0 DUP3 DUP3 MSTORE PUSH1 0x20 DUP3 ADD SWAP1 POP SWAP3 SWAP2 POP POP JUMP JUMPDEST PUSH1 0x0 DUP2 ISZERO ISZERO SWAP1 POP SWAP2 SWAP1 POP JUMP JUMPDEST PUSH1 0x0 DUP2 PUSH1 0x1 SIGNEXTEND SWAP1 POP SWAP2 SWAP1 POP JUMP JUMPDEST PUSH1 0x0 DUP2 SWAP1 POP SWAP2 SWAP1 POP JUMP JUMPDEST DUP3 DUP2 DUP4 CALLDATACOPY PUSH1 0x0 DUP4 DUP4 ADD MSTORE POP POP POP JUMP JUMPDEST PUSH1 0x0 JUMPDEST DUP4 DUP2 LT ISZERO PUSH2 0x58B JUMPI DUP1 DUP3 ADD MLOAD DUP2 DUP5 ADD MSTORE PUSH1 0x20 DUP2 ADD SWAP1 POP PUSH2 0x570 JUMP JUMPDEST DUP4 DUP2 GT ISZERO PUSH2 0x59A JUMPI PUSH1 0x0 DUP5 DUP5 ADD MSTORE JUMPDEST POP POP POP POP JUMP JUMPDEST PUSH1 0x0 PUSH1 0x2 DUP3 DIV SWAP1 POP PUSH1 0x1 DUP3 AND DUP1 PUSH2 0x5B8 JUMPI PUSH1 0x7F DUP3 AND SWAP2 POP JUMPDEST PUSH1 0x20 DUP3 LT DUP2 EQ ISZERO PUSH2 0x5CC JUMPI PUSH2 0x5CB PUSH2 0x67B JUMP JUMPDEST JUMPDEST POP SWAP2 SWAP1 POP JUMP JUMPDEST PUSH2 0x5DB DUP3 PUSH2 0x6ED JUMP JUMPDEST DUP2 ADD DUP2 DUP2 LT PUSH8 0xFFFFFFFFFFFFFFFF DUP3 GT OR ISZERO PUSH2 0x5FA JUMPI PUSH2 0x5F9 PUSH2 0x6AA JUMP JUMPDEST JUMPDEST DUP1 PUSH1 0x40 MSTORE POP POP POP JUMP JUMPDEST PUSH1 0x0 PUSH2 0x60E DUP3 PUSH2 0x554 JUMP JUMPDEST SWAP2 POP PUSH32 0xFFFFFFFFFFFFFFFFFFFFFFFFFFFFFFFFFFFFFFFFFFFFFFFFFFFFFFFFFFFFFFFF DUP3 EQ ISZERO PUSH2 0x641 JUMPI PUSH2 0x640 PUSH2 0x64C JUMP JUMPDEST JUMPDEST PUSH1 0x1 DUP3 ADD SWAP1 POP SWAP2 SWAP1 POP JUMP JUMPDEST PUSH32 0x4E487B7100000000000000000000000000000000000000000000000000000000 PUSH1 0x0 MSTORE PUSH1 0x11 PUSH1 0x4 MSTORE PUSH1 0x24 PUSH1 0x0 REVERT JUMPDEST PUSH32 0x4E487B7100000000000000000000000000000000000000000000000000000000 PUSH1 0x0 MSTORE PUSH1 0x22 PUSH1 0x4 MSTORE PUSH1 0x24 PUSH1 0x0 REVERT JUMPDEST PUSH32 0x4E487B7100000000000000000000000000000000000000000000000000000000 PUSH1 0x0 MSTORE PUSH1 0x41 PUSH1 0x4 MSTORE PUSH1 0x24 PUSH1 0x0 REVERT JUMPDEST PUSH1 0x0 DUP1 REVERT JUMPDEST PUSH1 0x0 DUP1 REVERT JUMPDEST PUSH1 0x0 DUP1 REVERT JUMPDEST PUSH1 0x0 DUP1 REVERT JUMPDEST PUSH1 0x0 PUSH1 0x1F NOT PUSH1 0x1F DUP4 ADD AND SWAP1 POP SWAP2 SWAP1 POP JUMP INVALID LOG2 PUSH5 0x6970667358 0x22 SLT KECCAK256 0xF7 0xD0 0xBF 0xE8 SLOAD SWAP13 PUSH32 0x36A7E183149E6CC7C2DC48121E8F8EB9F60FF87D6C1E97B56F64736F6C634300 ADDMOD SMOD STOP CALLER "
		},
		"gasEstimates": {
			"creation": {
				"codeDepositCost": "368800",
				"executionCost": "infinite",
				"totalCost": "infinite"
			},
			"external": {
				"a()": "2452",
				"b()": "2429",
				"dataRead()": "510",
				"getData()": "infinite",
				"getsum()": "infinite",
				"name()": "infinite",
				"setString(string)": "infinite",
				"sum()": "2473"
			}
		},
		"methodIdentifiers": {
			"a()": "0dbe671f",
			"b()": "4df7e3d0",
			"dataRead()": "362f0472",
			"getData()": "3bc5de30",
			"getsum()": "8da92777",
			"name()": "06fdde03",
			"setString(string)": "7fcaf666",
			"sum()": "853255cc"
		}
	},
	"abi": [
		{
			"inputs": [],
			"name": "a",
			"outputs": [
				{
					"internalType": "uint256",
					"name": "",
					"type": "uint256"
				}
			],
			"stateMutability": "view",
			"type": "function"
		},
		{
			"inputs": [],
			"name": "b",
			"outputs": [
				{
					"internalType": "uint256",
					"name": "",
					"type": "uint256"
				}
			],
			"stateMutability": "view",
			"type": "function"
		},
		{
			"inputs": [],
			"name": "dataRead",
			"outputs": [
				{
					"internalType": "int16",
					"name": "balance",
					"type": "int16"
				},
				{
					"internalType": "bool",
					"name": "live",
					"type": "bool"
				}
			],
			"stateMutability": "pure",
			"type": "function"
		},
		{
			"inputs": [],
			"name": "getData",
			"outputs": [
				{
					"internalType": "uint256",
					"name": "",
					"type": "uint256"
				}
			],
			"stateMutability": "nonpayable",
			"type": "function"
		},
		{
			"inputs": [],
			"name": "getsum",
			"outputs": [
				{
					"internalType": "uint256",
					"name": "",
					"type": "uint256"
				},
				{
					"internalType": "uint256",
					"name": "",
					"type": "uint256"
				}
			],
			"stateMutability": "view",
			"type": "function"
		},
		{
			"inputs": [],
			"name": "name",
			"outputs": [
				{
					"internalType": "string",
					"name": "",
					"type": "string"
				}
			],
			"stateMutability": "view",
			"type": "function"
		},
		{
			"inputs": [
				{
					"internalType": "string",
					"name": "_name",
					"type": "string"
				}
			],
			"name": "setString",
			"outputs": [],
			"stateMutability": "nonpayable",
			"type": "function"
		},
		{
			"inputs": [],
			"name": "sum",
			"outputs": [
				{
					"internalType": "uint256",
					"name": "",
					"type": "uint256"
				}
			],
			"stateMutability": "view",
			"type": "function"
		}
	]
}